{"abi":[{"type":"function","name":"approve","inputs":[{"name":"to","type":"address","internalType":"address"},{"name":"tokenId","type":"uint256","internalType":"uint256"}],"outputs":[],"stateMutability":"nonpayable"},{"type":"function","name":"balanceOf","inputs":[{"name":"owner","type":"address","internalType":"address"}],"outputs":[{"name":"","type":"uint256","internalType":"uint256"}],"stateMutability":"view"},{"type":"function","name":"baseUri","inputs":[],"outputs":[{"name":"","type":"string","internalType":"string"}],"stateMutability":"view"},{"type":"function","name":"burn","inputs":[{"name":"tokenId","type":"uint256","internalType":"uint256"}],"outputs":[],"stateMutability":"nonpayable"},{"type":"function","name":"confirmAppManagerAddress","inputs":[],"outputs":[],"stateMutability":"nonpayable"},{"type":"function","name":"connectHandlerToToken","inputs":[{"name":"_deployedHandlerAddress","type":"address","internalType":"address"}],"outputs":[],"stateMutability":"nonpayable"},{"type":"function","name":"getAppManagerAddress","inputs":[],"outputs":[{"name":"","type":"address","internalType":"address"}],"stateMutability":"view"},{"type":"function","name":"getApproved","inputs":[{"name":"tokenId","type":"uint256","internalType":"uint256"}],"outputs":[{"name":"","type":"address","internalType":"address"}],"stateMutability":"view"},{"type":"function","name":"getHandlerAddress","inputs":[],"outputs":[{"name":"","type":"address","internalType":"address"}],"stateMutability":"view"},{"type":"function","name":"getTestVariable1","inputs":[],"outputs":[{"name":"","type":"uint256","internalType":"uint256"}],"stateMutability":"view"},{"type":"function","name":"getTestVariable2","inputs":[],"outputs":[{"name":"","type":"string","internalType":"string"}],"stateMutability":"view"},{"type":"function","name":"handlerAddress","inputs":[],"outputs":[{"name":"","type":"address","internalType":"address"}],"stateMutability":"view"},{"type":"function","name":"initialize","inputs":[{"name":"_nameProto","type":"string","internalType":"string"},{"name":"_symbolProto","type":"string","internalType":"string"},{"name":"_appManagerAddress","type":"address","internalType":"address"},{"name":"_baseUri","type":"string","internalType":"string"}],"outputs":[],"stateMutability":"nonpayable"},{"type":"function","name":"isApprovedForAll","inputs":[{"name":"owner","type":"address","internalType":"address"},{"name":"operator","type":"address","internalType":"address"}],"outputs":[{"name":"","type":"bool","internalType":"bool"}],"stateMutability":"view"},{"type":"function","name":"name","inputs":[],"outputs":[{"name":"","type":"string","internalType":"string"}],"stateMutability":"view"},{"type":"function","name":"owner","inputs":[],"outputs":[{"name":"","type":"address","internalType":"address"}],"stateMutability":"view"},{"type":"function","name":"ownerOf","inputs":[{"name":"tokenId","type":"uint256","internalType":"uint256"}],"outputs":[{"name":"","type":"address","internalType":"address"}],"stateMutability":"view"},{"type":"function","name":"paused","inputs":[],"outputs":[{"name":"","type":"bool","internalType":"bool"}],"stateMutability":"view"},{"type":"function","name":"proposeAppManagerAddress","inputs":[{"name":"_newAppManagerAddress","type":"address","internalType":"address"}],"outputs":[],"stateMutability":"nonpayable"},{"type":"function","name":"proxiableUUID","inputs":[],"outputs":[{"name":"","type":"bytes32","internalType":"bytes32"}],"stateMutability":"view"},{"type":"function","name":"renounceOwnership","inputs":[],"outputs":[],"stateMutability":"nonpayable"},{"type":"function","name":"safeMint","inputs":[{"name":"to","type":"address","internalType":"address"}],"outputs":[],"stateMutability":"payable"},{"type":"function","name":"safeTransferFrom","inputs":[{"name":"from","type":"address","internalType":"address"},{"name":"to","type":"address","internalType":"address"},{"name":"tokenId","type":"uint256","internalType":"uint256"}],"outputs":[],"stateMutability":"nonpayable"},{"type":"function","name":"safeTransferFrom","inputs":[{"name":"from","type":"address","internalType":"address"},{"name":"to","type":"address","internalType":"address"},{"name":"tokenId","type":"uint256","internalType":"uint256"},{"name":"data","type":"bytes","internalType":"bytes"}],"outputs":[],"stateMutability":"nonpayable"},{"type":"function","name":"setApprovalForAll","inputs":[{"name":"operator","type":"address","internalType":"address"},{"name":"approved","type":"bool","internalType":"bool"}],"outputs":[],"stateMutability":"nonpayable"},{"type":"function","name":"setBaseURI","inputs":[{"name":"_baseUri","type":"string","internalType":"string"}],"outputs":[],"stateMutability":"nonpayable"},{"type":"function","name":"setTestVariable1","inputs":[{"name":"_value","type":"uint256","internalType":"uint256"}],"outputs":[],"stateMutability":"nonpayable"},{"type":"function","name":"setTestVariable2","inputs":[{"name":"_value","type":"string","internalType":"string"}],"outputs":[],"stateMutability":"nonpayable"},{"type":"function","name":"supportsInterface","inputs":[{"name":"interfaceId","type":"bytes4","internalType":"bytes4"}],"outputs":[{"name":"","type":"bool","internalType":"bool"}],"stateMutability":"view"},{"type":"function","name":"symbol","inputs":[],"outputs":[{"name":"","type":"string","internalType":"string"}],"stateMutability":"view"},{"type":"function","name":"tokenByIndex","inputs":[{"name":"index","type":"uint256","internalType":"uint256"}],"outputs":[{"name":"","type":"uint256","internalType":"uint256"}],"stateMutability":"view"},{"type":"function","name":"tokenOfOwnerByIndex","inputs":[{"name":"owner","type":"address","internalType":"address"},{"name":"index","type":"uint256","internalType":"uint256"}],"outputs":[{"name":"","type":"uint256","internalType":"uint256"}],"stateMutability":"view"},{"type":"function","name":"tokenURI","inputs":[{"name":"tokenId","type":"uint256","internalType":"uint256"}],"outputs":[{"name":"","type":"string","internalType":"string"}],"stateMutability":"view"},{"type":"function","name":"totalSupply","inputs":[],"outputs":[{"name":"","type":"uint256","internalType":"uint256"}],"stateMutability":"view"},{"type":"function","name":"transferFrom","inputs":[{"name":"from","type":"address","internalType":"address"},{"name":"to","type":"address","internalType":"address"},{"name":"tokenId","type":"uint256","internalType":"uint256"}],"outputs":[],"stateMutability":"nonpayable"},{"type":"function","name":"transferOwnership","inputs":[{"name":"newOwner","type":"address","internalType":"address"}],"outputs":[],"stateMutability":"nonpayable"},{"type":"function","name":"upgradeTo","inputs":[{"name":"newImplementation","type":"address","internalType":"address"}],"outputs":[],"stateMutability":"nonpayable"},{"type":"function","name":"upgradeToAndCall","inputs":[{"name":"newImplementation","type":"address","internalType":"address"},{"name":"data","type":"bytes","internalType":"bytes"}],"outputs":[],"stateMutability":"payable"},{"type":"function","name":"withdraw","inputs":[],"outputs":[],"stateMutability":"payable"},{"type":"event","name":"AD1467_AppManagerAddressSet","inputs":[{"name":"_address","type":"address","indexed":true,"internalType":"address"}],"anonymous":false},{"type":"event","name":"AD1467_CollectionPrice","inputs":[{"name":"collection","type":"address","indexed":true,"internalType":"address"},{"name":"price","type":"uint256","indexed":true,"internalType":"uint256"}],"anonymous":false},{"type":"event","name":"AD1467_FeeType","inputs":[{"name":"tag","type":"bytes32","indexed":true,"internalType":"bytes32"},{"name":"add","type":"bool","indexed":true,"internalType":"bool"},{"name":"minBalance","type":"uint256","indexed":false,"internalType":"uint256"},{"name":"maxBalance","type":"uint256","indexed":false,"internalType":"uint256"},{"name":"feePercentage","type":"int256","indexed":false,"internalType":"int256"},{"name":"targetAccount","type":"address","indexed":false,"internalType":"address"}],"anonymous":false},{"type":"event","name":"AD1467_HandlerConnected","inputs":[{"name":"handlerAddress","type":"address","indexed":true,"internalType":"address"},{"name":"assetAddress","type":"address","indexed":true,"internalType":"address"}],"anonymous":false},{"type":"event","name":"AD1467_NewNFTDeployed","inputs":[{"name":"appManagerAddress","type":"address","indexed":true,"internalType":"address"}],"anonymous":false},{"type":"event","name":"AD1467_NewTokenDeployed","inputs":[{"name":"appManagerAddress","type":"address","indexed":true,"internalType":"address"}],"anonymous":false},{"type":"event","name":"AD1467_SingleTokenPrice","inputs":[{"name":"collection","type":"address","indexed":true,"internalType":"address"},{"name":"tokenID","type":"uint256","indexed":true,"internalType":"uint256"},{"name":"price","type":"uint256","indexed":true,"internalType":"uint256"}],"anonymous":false},{"type":"event","name":"AD1467_TokenPrice","inputs":[{"name":"token","type":"address","indexed":true,"internalType":"address"},{"name":"price","type":"uint256","indexed":true,"internalType":"uint256"}],"anonymous":false},{"type":"event","name":"AdminChanged","inputs":[{"name":"previousAdmin","type":"address","indexed":false,"internalType":"address"},{"name":"newAdmin","type":"address","indexed":false,"internalType":"address"}],"anonymous":false},{"type":"event","name":"Approval","inputs":[{"name":"owner","type":"address","indexed":true,"internalType":"address"},{"name":"approved","type":"address","indexed":true,"internalType":"address"},{"name":"tokenId","type":"uint256","indexed":true,"internalType":"uint256"}],"anonymous":false},{"type":"event","name":"ApprovalForAll","inputs":[{"name":"owner","type":"address","indexed":true,"internalType":"address"},{"name":"operator","type":"address","indexed":true,"internalType":"address"},{"name":"approved","type":"bool","indexed":false,"internalType":"bool"}],"anonymous":false},{"type":"event","name":"BatchMetadataUpdate","inputs":[{"name":"_fromTokenId","type":"uint256","indexed":false,"internalType":"uint256"},{"name":"_toTokenId","type":"uint256","indexed":false,"internalType":"uint256"}],"anonymous":false},{"type":"event","name":"BeaconUpgraded","inputs":[{"name":"beacon","type":"address","indexed":true,"internalType":"address"}],"anonymous":false},{"type":"event","name":"Initialized","inputs":[{"name":"version","type":"uint8","indexed":false,"internalType":"uint8"}],"anonymous":false},{"type":"event","name":"MetadataUpdate","inputs":[{"name":"_tokenId","type":"uint256","indexed":false,"internalType":"uint256"}],"anonymous":false},{"type":"event","name":"OwnershipTransferred","inputs":[{"name":"previousOwner","type":"address","indexed":true,"internalType":"address"},{"name":"newOwner","type":"address","indexed":true,"internalType":"address"}],"anonymous":false},{"type":"event","name":"Paused","inputs":[{"name":"account","type":"address","indexed":false,"internalType":"address"}],"anonymous":false},{"type":"event","name":"Transfer","inputs":[{"name":"from","type":"address","indexed":true,"internalType":"address"},{"name":"to","type":"address","indexed":true,"internalType":"address"},{"name":"tokenId","type":"uint256","indexed":true,"internalType":"uint256"}],"anonymous":false},{"type":"event","name":"Unpaused","inputs":[{"name":"account","type":"address","indexed":false,"internalType":"address"}],"anonymous":false},{"type":"event","name":"Upgraded","inputs":[{"name":"implementation","type":"address","indexed":true,"internalType":"address"}],"anonymous":false},{"type":"error","name":"AppManagerNotConnected","inputs":[]},{"type":"error","name":"BelowMinAdminThreshold","inputs":[]},{"type":"error","name":"ConfirmerDoesNotMatchProposedAddress","inputs":[]},{"type":"error","name":"NoProposalHasBeenMade","inputs":[]},{"type":"error","name":"NotAppAdministrator","inputs":[]},{"type":"error","name":"NotAppAdministratorOrOwner","inputs":[]},{"type":"error","name":"NotRuleAdministrator","inputs":[]},{"type":"error","name":"NotSuperAdmin","inputs":[{"name":"","type":"address","internalType":"address"}]},{"type":"error","name":"OnlyOwnerCanMint","inputs":[]},{"type":"error","name":"ZeroAddress","inputs":[]}],"bytecode":{"object":"0x60a0604052306080523480156200001557600080fd5b5060016101f755620000266200002c565b620000ed565b600054610100900460ff1615620000995760405162461bcd60e51b815260206004820152602760248201527f496e697469616c697a61626c653a20636f6e747261637420697320696e697469604482015266616c697a696e6760c81b606482015260840160405180910390fd5b60005460ff90811614620000eb576000805460ff191660ff9081179091556040519081527f7f26b83ff96e1f2b6a682f133852f6798a09c465da95921460cefb38474024989060200160405180910390a15b565b6080516135686200012560003960008181610ac301528181610b0301528181610def01528181610e2f0152610f5101526135686000f3fe6080604052600436106102305760003560e01c8063573cede81161012e57806395d89b41116100ab578063caddbab81161006f578063caddbab81461063b578063cdccb27a14610651578063e6a0706314610666578063e985e9c514610686578063f2fde38b146106cf57600080fd5b806395d89b41146105b15780639abc8320146105c6578063a22cb465146105db578063b88d4fde146105fb578063c87b56dd1461061b57600080fd5b806370a08231116100f257806370a082311461051c578063715018a61461053c57806371af85e01461055157806381fefd88146105715780638da5cb5b1461059257600080fd5b8063573cede8146104875780635c975abb1461049c5780636352211e146104bc5780636f9c83b8146104dc5780636fd7d970146104fb57600080fd5b80633659cfe6116101bc5780634c330077116101805780634c330077146104005780634f1ef2861461041f5780634f6ccce71461043257806352d1902d1461045257806355f804b31461046757600080fd5b80633659cfe6146103855780633ccfd60b146103a557806340d097c3146103ad57806342842e0e146103c057806342966c68146103e057600080fd5b806311280cb51161020357806311280cb5146102e657806318160ddd14610306578063211abd0c1461032557806323b872dd146103455780632f745c591461036557600080fd5b806301ffc9a71461023557806306fdde031461026a578063081812fc1461028c578063095ea7b3146102c4575b600080fd5b34801561024157600080fd5b50610255610250366004612cf3565b6106ef565b60405190151581526020015b60405180910390f35b34801561027657600080fd5b5061027f610700565b6040516102619190612d60565b34801561029857600080fd5b506102ac6102a7366004612d73565b610792565b6040516001600160a01b039091168152602001610261565b3480156102d057600080fd5b506102e46102df366004612da8565b6107b9565b005b3480156102f257600080fd5b506102e4610301366004612dd2565b6108d3565b34801561031257600080fd5b506099545b604051908152602001610261565b34801561033157600080fd5b506102e4610340366004612e90565b6109e0565b34801561035157600080fd5b506102e4610360366004612ec5565b6109f1565b34801561037157600080fd5b50610317610380366004612da8565b610a23565b34801561039157600080fd5b506102e46103a0366004612dd2565b610ab9565b6102e4610b98565b6102e46103bb366004612dd2565b610cae565b3480156103cc57600080fd5b506102e46103db366004612ec5565b610d9c565b3480156103ec57600080fd5b506102e46103fb366004612d73565b610db7565b34801561040c57600080fd5b506101c4546001600160a01b03166102ac565b6102e461042d366004612f01565b610de5565b34801561043e57600080fd5b5061031761044d366004612d73565b610eb1565b34801561045e57600080fd5b50610317610f44565b34801561047357600080fd5b506102e4610482366004612e90565b610ff7565b34801561049357600080fd5b5061027f6110c5565b3480156104a857600080fd5b506101c554600160a01b900460ff16610255565b3480156104c857600080fd5b506102ac6104d7366004612d73565b6110d5565b3480156104e857600080fd5b506101f8546001600160a01b03166102ac565b34801561050757600080fd5b506101f8546102ac906001600160a01b031681565b34801561052857600080fd5b50610317610537366004612dd2565b611135565b34801561054857600080fd5b506102e46111bb565b34801561055d57600080fd5b506102e461056c366004612dd2565b6111cf565b34801561057d57600080fd5b506102e461058c366004612d73565b61022d55565b34801561059e57600080fd5b5061012d546001600160a01b03166102ac565b3480156105bd57600080fd5b5061027f611314565b3480156105d257600080fd5b5061027f611323565b3480156105e757600080fd5b506102e46105f6366004612f5d565b6113b2565b34801561060757600080fd5b506102e4610616366004612f94565b6113bd565b34801561062757600080fd5b5061027f610636366004612d73565b6113ef565b34801561064757600080fd5b5061022d54610317565b34801561065d57600080fd5b506102e46113fa565b34801561067257600080fd5b506102e4610681366004612ffc565b611487565b34801561069257600080fd5b506102556106a1366004613089565b6001600160a01b039182166000908152606a6020908152604080832093909416825291909152205460ff1690565b3480156106db57600080fd5b506102e46106ea366004612dd2565b611698565b60006106fa8261170e565b92915050565b60606065805461070f906130bc565b80601f016020809104026020016040519081016040528092919081815260200182805461073b906130bc565b80156107885780601f1061075d57610100808354040283529160200191610788565b820191906000526020600020905b81548152906001019060200180831161076b57829003601f168201915b5050505050905090565b600061079d82611733565b506000908152606960205260409020546001600160a01b031690565b60006107c4826110d5565b9050806001600160a01b0316836001600160a01b0316036108365760405162461bcd60e51b815260206004820152602160248201527f4552433732313a20617070726f76616c20746f2063757272656e74206f776e656044820152603960f91b60648201526084015b60405180910390fd5b336001600160a01b0382161480610852575061085281336106a1565b6108c45760405162461bcd60e51b815260206004820152603d60248201527f4552433732313a20617070726f76652063616c6c6572206973206e6f7420746f60448201527f6b656e206f776e6572206f7220617070726f76656420666f7220616c6c000000606482015260840161082d565b6108ce8383611792565b505050565b6101c4546001600160a01b0316806108fe576040516371724ffd60e01b815260040160405180910390fd5b806001600160a01b03811663c3c2ebbb336040516001600160e01b031960e084901b1681526001600160a01b039091166004820152602401602060405180830381865afa158015610953573d6000803e3d6000fd5b505050506040513d601f19601f8201168201806040525081019061097791906130f6565b6109945760405163ba80c9e560e01b815260040160405180910390fd5b6001600160a01b0383166109bb5760405163d92e233d60e01b815260040160405180910390fd5b50506101c380546001600160a01b0319166001600160a01b0392909216919091179055565b61022e6109ed8282613163565b5050565b6109fc335b82611800565b610a185760405162461bcd60e51b815260040161082d90613223565b6108ce83838361187f565b6000610a2e83611135565b8210610a905760405162461bcd60e51b815260206004820152602b60248201527f455243373231456e756d657261626c653a206f776e657220696e646578206f7560448201526a74206f6620626f756e647360a81b606482015260840161082d565b506001600160a01b03919091166000908152609760209081526040808320938352929052205490565b6001600160a01b037f0000000000000000000000000000000000000000000000000000000000000000163003610b015760405162461bcd60e51b815260040161082d90613270565b7f00000000000000000000000000000000000000000000000000000000000000006001600160a01b0316610b4a6000805160206134ec833981519152546001600160a01b031690565b6001600160a01b031614610b705760405162461bcd60e51b815260040161082d906132bc565b610b79816119f0565b60408051600080825260208201909252610b95918391906119f8565b50565b6101c4546001600160a01b031680610bc3576040516371724ffd60e01b815260040160405180910390fd5b806001600160a01b03811663c3c2ebbb336040516001600160e01b031960e084901b1681526001600160a01b039091166004820152602401602060405180830381865afa158015610c18573d6000803e3d6000fd5b505050506040513d601f19601f82011682018060405250810190610c3c91906130f6565b610c595760405163ba80c9e560e01b815260040160405180910390fd5b604051600090339047908381818185875af1925050503d8060008114610c9b576040519150601f19603f3d011682016040523d82523d6000602084013e610ca0565b606091505b50509050806108ce57600080fd5b6101c4546001600160a01b031680610cd9576040516371724ffd60e01b815260040160405180910390fd5b806001600160a01b03811663c3c2ebbb336040516001600160e01b031960e084901b1681526001600160a01b039091166004820152602401602060405180830381865afa158015610d2e573d6000803e3d6000fd5b505050506040513d601f19601f82011682018060405250810190610d5291906130f6565b610d6f5760405163ba80c9e560e01b815260040160405180910390fd5b6000610d7b6101fa5490565b9050610d8c6101fa80546001019055565b610d968482611b63565b50505050565b6108ce838383604051806020016040528060008152506113bd565b610dc0336109f6565b610ddc5760405162461bcd60e51b815260040161082d90613223565b610b9581611b7d565b6001600160a01b037f0000000000000000000000000000000000000000000000000000000000000000163003610e2d5760405162461bcd60e51b815260040161082d90613270565b7f00000000000000000000000000000000000000000000000000000000000000006001600160a01b0316610e766000805160206134ec833981519152546001600160a01b031690565b6001600160a01b031614610e9c5760405162461bcd60e51b815260040161082d906132bc565b610ea5826119f0565b6109ed828260016119f8565b6000610ebc60995490565b8210610f1f5760405162461bcd60e51b815260206004820152602c60248201527f455243373231456e756d657261626c653a20676c6f62616c20696e646578206f60448201526b7574206f6620626f756e647360a01b606482015260840161082d565b60998281548110610f3257610f32613308565b90600052602060002001549050919050565b6000306001600160a01b037f00000000000000000000000000000000000000000000000000000000000000001614610fe45760405162461bcd60e51b815260206004820152603860248201527f555550535570677261646561626c653a206d757374206e6f742062652063616c60448201527f6c6564207468726f7567682064656c656761746563616c6c0000000000000000606482015260840161082d565b506000805160206134ec83398151915290565b6101c4546001600160a01b031680611022576040516371724ffd60e01b815260040160405180910390fd5b806001600160a01b03811663c3c2ebbb336040516001600160e01b031960e084901b1681526001600160a01b039091166004820152602401602060405180830381865afa158015611077573d6000803e3d6000fd5b505050506040513d601f19601f8201168201806040525081019061109b91906130f6565b6110b85760405163ba80c9e560e01b815260040160405180910390fd5b6101fb610d968482613163565b606061022e805461070f906130bc565b6000818152606760205260408120546001600160a01b0316806106fa5760405162461bcd60e51b8152602060048201526018602482015277115490cdcc8c4e881a5b9d985b1a59081d1bdad95b88125160421b604482015260640161082d565b60006001600160a01b03821661119f5760405162461bcd60e51b815260206004820152602960248201527f4552433732313a2061646472657373207a65726f206973206e6f7420612076616044820152683634b21037bbb732b960b91b606482015260840161082d565b506001600160a01b031660009081526068602052604090205490565b6111c3611b86565b6111cd6000611be1565b565b6101c4546001600160a01b0316806111fa576040516371724ffd60e01b815260040160405180910390fd5b806001600160a01b03811663c3c2ebbb336040516001600160e01b031960e084901b1681526001600160a01b039091166004820152602401602060405180830381865afa15801561124f573d6000803e3d6000fd5b505050506040513d601f19601f8201168201806040525081019061127391906130f6565b6112905760405163ba80c9e560e01b815260040160405180910390fd5b6001600160a01b0383166112b75760405163d92e233d60e01b815260040160405180910390fd5b6101f880546001600160a01b0385166001600160a01b031991821681179092556101f98054909116821790556040513091907f9a2cdaf1a28a88ccd359d6abc6a27d4856d16459aafb0aae34c1296bab5b63fb90600090a3505050565b60606066805461070f906130bc565b6101fb8054611331906130bc565b80601f016020809104026020016040519081016040528092919081815260200182805461135d906130bc565b80156113aa5780601f1061137f576101008083540402835291602001916113aa565b820191906000526020600020905b81548152906001019060200180831161138d57829003601f168201915b505050505081565b6109ed338383611c34565b6113c73383611800565b6113e35760405162461bcd60e51b815260040161082d90613223565b610d9684848484611d02565b60606106fa82611d35565b6101c3546001600160a01b03166114245760405163821e0eeb60e01b815260040160405180910390fd5b6101c3546001600160a01b0316331461145057604051634128496760e01b815260040160405180910390fd5b6101c380546101c480546001600160a01b0383166001600160a01b031991821681179092556101c580548216909217909155169055565b816001600160a01b0381166114af576040516371724ffd60e01b815260040160405180910390fd5b806001600160a01b03811663c3c2ebbb336040516001600160e01b031960e084901b1681526001600160a01b039091166004820152602401602060405180830381865afa158015611504573d6000803e3d6000fd5b505050506040513d601f19601f8201168201806040525081019061152891906130f6565b6115455760405163ba80c9e560e01b815260040160405180910390fd5b600054610100900460ff16158080156115655750600054600160ff909116105b8061157f5750303b15801561157f575060005460ff166001145b6115e25760405162461bcd60e51b815260206004820152602e60248201527f496e697469616c697a61626c653a20636f6e747261637420697320616c72656160448201526d191e481a5b9a5d1a585b1a5e995960921b606482015260840161082d565b6000805460ff191660011790558015611605576000805461ff0019166101001790555b61160f8787611e30565b611617611e61565b61161f611e61565b611627611e88565b61162f611e61565b611637611eb7565b61164085611ee6565b61164984610ff7565b801561168f576000805461ff0019169055604051600181527f7f26b83ff96e1f2b6a682f133852f6798a09c465da95921460cefb38474024989060200160405180910390a15b50505050505050565b6116a0611b86565b6001600160a01b0381166117055760405162461bcd60e51b815260206004820152602660248201527f4f776e61626c653a206e6577206f776e657220697320746865207a65726f206160448201526564647265737360d01b606482015260840161082d565b610b9581611be1565b60006001600160e01b03198216632483248360e11b14806106fa57506106fa82611f7f565b6000818152606760205260409020546001600160a01b0316610b955760405162461bcd60e51b8152602060048201526018602482015277115490cdcc8c4e881a5b9d985b1a59081d1bdad95b88125160421b604482015260640161082d565b600081815260696020526040902080546001600160a01b0319166001600160a01b03841690811790915581906117c7826110d5565b6001600160a01b03167f8c5be1e5ebec7d5bd14f71427d1e84f3dd0314c0f7b2291e5b200ac8c7c3b92560405160405180910390a45050565b60008061180c836110d5565b9050806001600160a01b0316846001600160a01b0316148061185357506001600160a01b038082166000908152606a602090815260408083209388168352929052205460ff165b806118775750836001600160a01b031661186c84610792565b6001600160a01b0316145b949350505050565b826001600160a01b0316611892826110d5565b6001600160a01b0316146118b85760405162461bcd60e51b815260040161082d9061331e565b6001600160a01b03821661191a5760405162461bcd60e51b8152602060048201526024808201527f4552433732313a207472616e7366657220746f20746865207a65726f206164646044820152637265737360e01b606482015260840161082d565b6119278383836001611fa4565b826001600160a01b031661193a826110d5565b6001600160a01b0316146119605760405162461bcd60e51b815260040161082d9061331e565b600081815260696020908152604080832080546001600160a01b03199081169091556001600160a01b0387811680865260688552838620805460001901905590871680865283862080546001019055868652606790945282852080549092168417909155905184937fddf252ad1be2c89b69c2b068fc378daa952ba7f163c4a11628f55a4df523b3ef91a4505050565b610b95611b86565b7f4910fdfa16fed3260ed0e7147f7cc6da11a60208b5b9406d12a635614ffd91435460ff1615611a2b576108ce836120ab565b826001600160a01b03166352d1902d6040518163ffffffff1660e01b8152600401602060405180830381865afa925050508015611a85575060408051601f3d908101601f19168201909252611a8291810190613363565b60015b611ae85760405162461bcd60e51b815260206004820152602e60248201527f45524331393637557067726164653a206e657720696d706c656d656e7461746960448201526d6f6e206973206e6f74205555505360901b606482015260840161082d565b6000805160206134ec8339815191528114611b575760405162461bcd60e51b815260206004820152602960248201527f45524331393637557067726164653a20756e737570706f727465642070726f786044820152681a58589b195555525160ba1b606482015260840161082d565b506108ce838383612147565b6109ed82826040518060200160405280600081525061216c565b610b958161219f565b61012d546001600160a01b031633146111cd5760405162461bcd60e51b815260206004820181905260248201527f4f776e61626c653a2063616c6c6572206973206e6f7420746865206f776e6572604482015260640161082d565b61012d80546001600160a01b038381166001600160a01b0319831681179093556040519116919082907f8be0079c531659141344cd1fd0a4f28419497f9722a3daafe3b4186f6b6457e090600090a35050565b816001600160a01b0316836001600160a01b031603611c955760405162461bcd60e51b815260206004820152601960248201527f4552433732313a20617070726f766520746f2063616c6c657200000000000000604482015260640161082d565b6001600160a01b038381166000818152606a6020908152604080832094871680845294825291829020805460ff191686151590811790915591519182527f17307eab39ab6107e8899845ad3d59bd9653f200f220920489ca2b5937696c31910160405180910390a3505050565b611d0d84848461187f565b611d19848484846121df565b610d965760405162461bcd60e51b815260040161082d9061337c565b6060611d4082611733565b600082815260c9602052604081208054611d59906130bc565b80601f0160208091040260200160405190810160405280929190818152602001828054611d85906130bc565b8015611dd25780601f10611da757610100808354040283529160200191611dd2565b820191906000526020600020905b815481529060010190602001808311611db557829003601f168201915b505050505090506000611de36122e0565b90508051600003611df5575092915050565b815115611e27578082604051602001611e0f9291906133ce565b60405160208183030381529060405292505050919050565b611877846122f0565b600054610100900460ff16611e575760405162461bcd60e51b815260040161082d906133fd565b6109ed8282612357565b600054610100900460ff166111cd5760405162461bcd60e51b815260040161082d906133fd565b600054610100900460ff16611eaf5760405162461bcd60e51b815260040161082d906133fd565b6111cd612397565b600054610100900460ff16611ede5760405162461bcd60e51b815260040161082d906133fd565b6111cd6123c7565b600054610100900460ff16611f0d5760405162461bcd60e51b815260040161082d906133fd565b6001600160a01b038116611f345760405163d92e233d60e01b815260040160405180910390fd5b6101c480546001600160a01b0319166001600160a01b0383169081179091556040517f72609421458389ee9c5f42d2ead41eecce3b39daf473d94de7f1ec1a9b593a0090600090a250565b60006001600160e01b0319821663780e9d6360e01b14806106fa57506106fa826123fe565b611fac61244e565b6101f9546001600160a01b039081169063e802b52390861615611fd757611fd286611135565b611fda565b60005b6001600160a01b03861615611ff757611ff286611135565b611ffa565b60005b8787336040516001600160e01b031960e088901b168152600481019590955260248501939093526001600160a01b0391821660448501528116606484015216608482015260a4810185905260c4016020604051808303816000875af1158015612067573d6000803e3d6000fd5b505050506040513d601f19601f8201168201806040525081019061208b91906130f6565b61209457600080fd5b6120a0848484846124a9565b610d9660016101f755565b6001600160a01b0381163b6121185760405162461bcd60e51b815260206004820152602d60248201527f455243313936373a206e657720696d706c656d656e746174696f6e206973206e60448201526c1bdd08184818dbdb9d1c9858dd609a1b606482015260840161082d565b6000805160206134ec83398151915280546001600160a01b0319166001600160a01b0392909216919091179055565b612150836125dd565b60008251118061215d5750805b156108ce57610d96838361261d565b6121768383612642565b61218360008484846121df565b6108ce5760405162461bcd60e51b815260040161082d9061337c565b6121a8816127db565b600081815260c96020526040902080546121c1906130bc565b159050610b9557600081815260c960205260408120610b9591612c8f565b60006001600160a01b0384163b156122d557604051630a85bd0160e11b81526001600160a01b0385169063150b7a0290612223903390899088908890600401613448565b6020604051808303816000875af192505050801561225e575060408051601f3d908101601f1916820190925261225b9181019061347b565b60015b6122bb573d80801561228c576040519150601f19603f3d011682016040523d82523d6000602084013e612291565b606091505b5080516000036122b35760405162461bcd60e51b815260040161082d9061337c565b805181602001fd5b6001600160e01b031916630a85bd0160e11b149050611877565b506001949350505050565b60606101fb805461070f906130bc565b60606122fb82611733565b60006123056122e0565b905060008151116123255760405180602001604052806000815250612350565b8061232f8461287e565b6040516020016123409291906133ce565b6040516020818303038152906040525b9392505050565b600054610100900460ff1661237e5760405162461bcd60e51b815260040161082d906133fd565b606561238a8382613163565b5060666108ce8282613163565b600054610100900460ff166123be5760405162461bcd60e51b815260040161082d906133fd565b6111cd33611be1565b600054610100900460ff166123ee5760405162461bcd60e51b815260040161082d906133fd565b6101c5805460ff60a01b19169055565b60006001600160e01b031982166380ac58cd60e01b148061242f57506001600160e01b03198216635b5e139f60e01b145b806106fa57506301ffc9a760e01b6001600160e01b03198316146106fa565b60026101f754036124a15760405162461bcd60e51b815260206004820152601f60248201527f5265656e7472616e637947756172643a207265656e7472616e742063616c6c00604482015260640161082d565b60026101f755565b60018111156125185760405162461bcd60e51b815260206004820152603560248201527f455243373231456e756d657261626c653a20636f6e7365637574697665207472604482015274185b9cd9995c9cc81b9bdd081cdd5c1c1bdc9d1959605a1b606482015260840161082d565b816001600160a01b0385166125745761256f81609980546000838152609a60205260408120829055600182018355919091527f72a152ddfb8e864297c917af52ea6c1c68aead0fee1a62673fcc7e0c94979d000155565b612597565b836001600160a01b0316856001600160a01b031614612597576125978582612911565b6001600160a01b0384166125b3576125ae816129ae565b6125d6565b846001600160a01b0316846001600160a01b0316146125d6576125d68482612a5d565b5050505050565b6125e6816120ab565b6040516001600160a01b038216907fbc7cd75a20ee27fd9adebab32041f755214dbc6bffa90cc0225b39da2e5c2d3b90600090a250565b6060612350838360405180606001604052806027815260200161350c60279139612aa1565b6001600160a01b0382166126985760405162461bcd60e51b815260206004820181905260248201527f4552433732313a206d696e7420746f20746865207a65726f2061646472657373604482015260640161082d565b6000818152606760205260409020546001600160a01b0316156126fd5760405162461bcd60e51b815260206004820152601c60248201527f4552433732313a20746f6b656e20616c7265616479206d696e74656400000000604482015260640161082d565b61270b600083836001611fa4565b6000818152606760205260409020546001600160a01b0316156127705760405162461bcd60e51b815260206004820152601c60248201527f4552433732313a20746f6b656e20616c7265616479206d696e74656400000000604482015260640161082d565b6001600160a01b038216600081815260686020908152604080832080546001019055848352606790915280822080546001600160a01b0319168417905551839291907fddf252ad1be2c89b69c2b068fc378daa952ba7f163c4a11628f55a4df523b3ef908290a45050565b60006127e6826110d5565b90506127f6816000846001611fa4565b6127ff826110d5565b600083815260696020908152604080832080546001600160a01b03199081169091556001600160a01b0385168085526068845282852080546000190190558785526067909352818420805490911690555192935084927fddf252ad1be2c89b69c2b068fc378daa952ba7f163c4a11628f55a4df523b3ef908390a45050565b6060600061288b83612b19565b600101905060008167ffffffffffffffff8111156128ab576128ab612ded565b6040519080825280601f01601f1916602001820160405280156128d5576020820181803683370190505b5090508181016020015b600019016f181899199a1a9b1b9c1cb0b131b232b360811b600a86061a8153600a85049450846128df57509392505050565b6000600161291e84611135565b6129289190613498565b60008381526098602052604090205490915080821461297b576001600160a01b03841660009081526097602090815260408083208584528252808320548484528184208190558352609890915290208190555b5060009182526098602090815260408084208490556001600160a01b039094168352609781528383209183525290812055565b6099546000906129c090600190613498565b6000838152609a6020526040812054609980549394509092849081106129e8576129e8613308565b906000526020600020015490508060998381548110612a0957612a09613308565b6000918252602080832090910192909255828152609a90915260408082208490558582528120556099805480612a4157612a416134b9565b6001900381819060005260206000200160009055905550505050565b6000612a6883611135565b6001600160a01b039093166000908152609760209081526040808320868452825280832085905593825260989052919091209190915550565b6060600080856001600160a01b031685604051612abe91906134cf565b600060405180830381855af49150503d8060008114612af9576040519150601f19603f3d011682016040523d82523d6000602084013e612afe565b606091505b5091509150612b0f86838387612bf1565b9695505050505050565b60008072184f03e93ff9f4daa797ed6e38ed64bf6a1f0160401b8310612b585772184f03e93ff9f4daa797ed6e38ed64bf6a1f0160401b830492506040015b6d04ee2d6d415b85acef81000000008310612b84576d04ee2d6d415b85acef8100000000830492506020015b662386f26fc100008310612ba257662386f26fc10000830492506010015b6305f5e1008310612bba576305f5e100830492506008015b6127108310612bce57612710830492506004015b60648310612be0576064830492506002015b600a83106106fa5760010192915050565b60608315612c60578251600003612c59576001600160a01b0385163b612c595760405162461bcd60e51b815260206004820152601d60248201527f416464726573733a2063616c6c20746f206e6f6e2d636f6e7472616374000000604482015260640161082d565b5081611877565b6118778383815115612c755781518083602001fd5b8060405162461bcd60e51b815260040161082d9190612d60565b508054612c9b906130bc565b6000825580601f10612cab575050565b601f016020900490600052602060002090810190610b9591905b80821115612cd95760008155600101612cc5565b5090565b6001600160e01b031981168114610b9557600080fd5b600060208284031215612d0557600080fd5b813561235081612cdd565b60005b83811015612d2b578181015183820152602001612d13565b50506000910152565b60008151808452612d4c816020860160208601612d10565b601f01601f19169290920160200192915050565b6020815260006123506020830184612d34565b600060208284031215612d8557600080fd5b5035919050565b80356001600160a01b0381168114612da357600080fd5b919050565b60008060408385031215612dbb57600080fd5b612dc483612d8c565b946020939093013593505050565b600060208284031215612de457600080fd5b61235082612d8c565b634e487b7160e01b600052604160045260246000fd5b600082601f830112612e1457600080fd5b813567ffffffffffffffff80821115612e2f57612e2f612ded565b604051601f8301601f19908116603f01168101908282118183101715612e5757612e57612ded565b81604052838152866020858801011115612e7057600080fd5b836020870160208301376000602085830101528094505050505092915050565b600060208284031215612ea257600080fd5b813567ffffffffffffffff811115612eb957600080fd5b61187784828501612e03565b600080600060608486031215612eda57600080fd5b612ee384612d8c565b9250612ef160208501612d8c565b9150604084013590509250925092565b60008060408385031215612f1457600080fd5b612f1d83612d8c565b9150602083013567ffffffffffffffff811115612f3957600080fd5b612f4585828601612e03565b9150509250929050565b8015158114610b9557600080fd5b60008060408385031215612f7057600080fd5b612f7983612d8c565b91506020830135612f8981612f4f565b809150509250929050565b60008060008060808587031215612faa57600080fd5b612fb385612d8c565b9350612fc160208601612d8c565b925060408501359150606085013567ffffffffffffffff811115612fe457600080fd5b612ff087828801612e03565b91505092959194509250565b6000806000806080858703121561301257600080fd5b843567ffffffffffffffff8082111561302a57600080fd5b61303688838901612e03565b9550602087013591508082111561304c57600080fd5b61305888838901612e03565b945061306660408801612d8c565b9350606087013591508082111561307c57600080fd5b50612ff087828801612e03565b6000806040838503121561309c57600080fd5b6130a583612d8c565b91506130b360208401612d8c565b90509250929050565b600181811c908216806130d057607f821691505b6020821081036130f057634e487b7160e01b600052602260045260246000fd5b50919050565b60006020828403121561310857600080fd5b815161235081612f4f565b601f8211156108ce576000816000526020600020601f850160051c8101602086101561313c5750805b601f850160051c820191505b8181101561315b57828155600101613148565b505050505050565b815167ffffffffffffffff81111561317d5761317d612ded565b6131918161318b84546130bc565b84613113565b602080601f8311600181146131c657600084156131ae5750858301515b600019600386901b1c1916600185901b17855561315b565b600085815260208120601f198616915b828110156131f5578886015182559484019460019091019084016131d6565b50858210156132135787850151600019600388901b60f8161c191681555b5050505050600190811b01905550565b6020808252602d908201527f4552433732313a2063616c6c6572206973206e6f7420746f6b656e206f776e6560408201526c1c881bdc88185c1c1c9bdd9959609a1b606082015260800190565b6020808252602c908201527f46756e6374696f6e206d7573742062652063616c6c6564207468726f7567682060408201526b19195b1959d85d1958d85b1b60a21b606082015260800190565b6020808252602c908201527f46756e6374696f6e206d7573742062652063616c6c6564207468726f7567682060408201526b6163746976652070726f787960a01b606082015260800190565b634e487b7160e01b600052603260045260246000fd5b60208082526025908201527f4552433732313a207472616e736665722066726f6d20696e636f72726563742060408201526437bbb732b960d91b606082015260800190565b60006020828403121561337557600080fd5b5051919050565b60208082526032908201527f4552433732313a207472616e7366657220746f206e6f6e20455243373231526560408201527131b2b4bb32b91034b6b83632b6b2b73a32b960711b606082015260800190565b600083516133e0818460208801612d10565b8351908301906133f4818360208801612d10565b01949350505050565b6020808252602b908201527f496e697469616c697a61626c653a20636f6e7472616374206973206e6f74206960408201526a6e697469616c697a696e6760a81b606082015260800190565b6001600160a01b0385811682528416602082015260408101839052608060608201819052600090612b0f90830184612d34565b60006020828403121561348d57600080fd5b815161235081612cdd565b818103818111156106fa57634e487b7160e01b600052601160045260246000fd5b634e487b7160e01b600052603160045260246000fd5b600082516134e1818460208701612d10565b919091019291505056fe360894a13ba1a3210667c828492db98dca3e2076cc3735a920a3ca505d382bbc416464726573733a206c6f772d6c6576656c2064656c65676174652063616c6c206661696c6564a2646970667358221220841d752c25ddf01a235a9994e12e885925db53b77653bc6f32282b665b9b9eb864736f6c63430008180033","linkReferences":{}},"methodIdentifiers":{"approve(address,uint256)":"095ea7b3","balanceOf(address)":"70a08231","baseUri()":"9abc8320","burn(uint256)":"42966c68","confirmAppManagerAddress()":"cdccb27a","connectHandlerToToken(address)":"71af85e0","getAppManagerAddress()":"4c330077","getApproved(uint256)":"081812fc","getHandlerAddress()":"6f9c83b8","getTestVariable1()":"caddbab8","getTestVariable2()":"573cede8","handlerAddress()":"6fd7d970","initialize(string,string,address,string)":"e6a07063","isApprovedForAll(address,address)":"e985e9c5","name()":"06fdde03","owner()":"8da5cb5b","ownerOf(uint256)":"6352211e","paused()":"5c975abb","proposeAppManagerAddress(address)":"11280cb5","proxiableUUID()":"52d1902d","renounceOwnership()":"715018a6","safeMint(address)":"40d097c3","safeTransferFrom(address,address,uint256)":"42842e0e","safeTransferFrom(address,address,uint256,bytes)":"b88d4fde","setApprovalForAll(address,bool)":"a22cb465","setBaseURI(string)":"55f804b3","setTestVariable1(uint256)":"81fefd88","setTestVariable2(string)":"211abd0c","supportsInterface(bytes4)":"01ffc9a7","symbol()":"95d89b41","tokenByIndex(uint256)":"4f6ccce7","tokenOfOwnerByIndex(address,uint256)":"2f745c59","tokenURI(uint256)":"c87b56dd","totalSupply()":"18160ddd","transferFrom(address,address,uint256)":"23b872dd","transferOwnership(address)":"f2fde38b","upgradeTo(address)":"3659cfe6","upgradeToAndCall(address,bytes)":"4f1ef286","withdraw()":"3ccfd60b"},"id":321}