{"abi":[{"type":"constructor","inputs":[{"name":"_dataModuleAppManagerAddress","type":"address","internalType":"address"}],"stateMutability":"nonpayable"},{"type":"function","name":"addPauseRule","inputs":[{"name":"_pauseStart","type":"uint64","internalType":"uint64"},{"name":"_pauseStop","type":"uint64","internalType":"uint64"}],"outputs":[],"stateMutability":"nonpayable"},{"type":"function","name":"cleanOutdatedRules","inputs":[],"outputs":[],"stateMutability":"nonpayable"},{"type":"function","name":"confirmDataProvider","inputs":[{"name":"_providerType","type":"uint8","internalType":"enum IDataModule.ProviderType"}],"outputs":[],"stateMutability":"nonpayable"},{"type":"function","name":"confirmOwner","inputs":[],"outputs":[],"stateMutability":"nonpayable"},{"type":"function","name":"dataModuleAppManagerAddress","inputs":[],"outputs":[{"name":"","type":"address","internalType":"address"}],"stateMutability":"view"},{"type":"function","name":"getPauseRules","inputs":[],"outputs":[{"name":"","type":"tuple[]","internalType":"struct PauseRule[]","components":[{"name":"pauseStart","type":"uint64","internalType":"uint64"},{"name":"pauseStop","type":"uint64","internalType":"uint64"}]}],"stateMutability":"view"},{"type":"function","name":"isPauseRulesEmpty","inputs":[],"outputs":[{"name":"","type":"bool","internalType":"bool"}],"stateMutability":"view"},{"type":"function","name":"owner","inputs":[],"outputs":[{"name":"","type":"address","internalType":"address"}],"stateMutability":"view"},{"type":"function","name":"proposeOwner","inputs":[{"name":"_newOwner","type":"address","internalType":"address"}],"outputs":[],"stateMutability":"nonpayable"},{"type":"function","name":"removePauseRule","inputs":[{"name":"_pauseStart","type":"uint64","internalType":"uint64"},{"name":"_pauseStop","type":"uint64","internalType":"uint64"}],"outputs":[],"stateMutability":"nonpayable"},{"type":"function","name":"renounceOwnership","inputs":[],"outputs":[],"stateMutability":"nonpayable"},{"type":"function","name":"transferOwnership","inputs":[{"name":"newOwner","type":"address","internalType":"address"}],"outputs":[],"stateMutability":"nonpayable"},{"type":"function","name":"version","inputs":[],"outputs":[{"name":"","type":"string","internalType":"string"}],"stateMutability":"pure"},{"type":"event","name":"AD1467_AMMRegistered","inputs":[{"name":"_address","type":"address","indexed":true,"internalType":"address"}],"anonymous":false},{"type":"event","name":"AD1467_AccessLevelAdded","inputs":[{"name":"_address","type":"address","indexed":true,"internalType":"address"},{"name":"_level","type":"uint8","indexed":true,"internalType":"uint8"}],"anonymous":false},{"type":"event","name":"AD1467_AccessLevelAdmin","inputs":[{"name":"admin","type":"address","indexed":true,"internalType":"address"},{"name":"add","type":"bool","indexed":true,"internalType":"bool"}],"anonymous":false},{"type":"event","name":"AD1467_AccessLevelProviderSet","inputs":[{"name":"_address","type":"address","indexed":true,"internalType":"address"}],"anonymous":false},{"type":"event","name":"AD1467_AccessLevelRemoved","inputs":[{"name":"_address","type":"address","indexed":true,"internalType":"address"}],"anonymous":false},{"type":"event","name":"AD1467_AccountAdded","inputs":[{"name":"account","type":"address","indexed":true,"internalType":"address"}],"anonymous":false},{"type":"event","name":"AD1467_AccountProviderSet","inputs":[{"name":"_address","type":"address","indexed":true,"internalType":"address"}],"anonymous":false},{"type":"event","name":"AD1467_AccountRemoved","inputs":[{"name":"account","type":"address","indexed":true,"internalType":"address"}],"anonymous":false},{"type":"event","name":"AD1467_AppAdministrator","inputs":[{"name":"admin","type":"address","indexed":true,"internalType":"address"},{"name":"add","type":"bool","indexed":true,"internalType":"bool"}],"anonymous":false},{"type":"event","name":"AD1467_AppManagerDataUpgradeProposed","inputs":[{"name":"deployedAddress","type":"address","indexed":true,"internalType":"address"},{"name":"replacedAddress","type":"address","indexed":false,"internalType":"address"}],"anonymous":false},{"type":"event","name":"AD1467_AppManagerDeployed","inputs":[{"name":"superAndAppAdmin","type":"address","indexed":true,"internalType":"address"},{"name":"appName","type":"string","indexed":true,"internalType":"string"}],"anonymous":false},{"type":"event","name":"AD1467_AppManagerDeployedForUpgrade","inputs":[{"name":"superAndAppAdmin","type":"address","indexed":true,"internalType":"address"},{"name":"appName","type":"string","indexed":true,"internalType":"string"}],"anonymous":false},{"type":"event","name":"AD1467_AppNameChanged","inputs":[{"name":"appName","type":"string","indexed":true,"internalType":"string"}],"anonymous":false},{"type":"event","name":"AD1467_DataContractsMigrated","inputs":[{"name":"ownerAddress","type":"address","indexed":true,"internalType":"address"}],"anonymous":false},{"type":"event","name":"AD1467_PauseRuleEvent","inputs":[{"name":"pauseStart","type":"uint256","indexed":true,"internalType":"uint256"},{"name":"pauseStop","type":"uint256","indexed":true,"internalType":"uint256"},{"name":"add","type":"bool","indexed":true,"internalType":"bool"}],"anonymous":false},{"type":"event","name":"AD1467_PauseRuleProviderSet","inputs":[{"name":"_address","type":"address","indexed":true,"internalType":"address"}],"anonymous":false},{"type":"event","name":"AD1467_RemoveFromRegistry","inputs":[{"name":"contractName","type":"string","indexed":false,"internalType":"string"},{"name":"contractAddress","type":"address","indexed":false,"internalType":"address"}],"anonymous":false},{"type":"event","name":"AD1467_RiskAdmin","inputs":[{"name":"admin","type":"address","indexed":true,"internalType":"address"},{"name":"add","type":"bool","indexed":true,"internalType":"bool"}],"anonymous":false},{"type":"event","name":"AD1467_RiskProviderSet","inputs":[{"name":"_address","type":"address","indexed":true,"internalType":"address"}],"anonymous":false},{"type":"event","name":"AD1467_RiskScoreAdded","inputs":[{"name":"_address","type":"address","indexed":true,"internalType":"address"},{"name":"_score","type":"uint8","indexed":false,"internalType":"uint8"}],"anonymous":false},{"type":"event","name":"AD1467_RiskScoreRemoved","inputs":[{"name":"_address","type":"address","indexed":true,"internalType":"address"}],"anonymous":false},{"type":"event","name":"AD1467_RuleAdmin","inputs":[{"name":"admin","type":"address","indexed":true,"internalType":"address"},{"name":"add","type":"bool","indexed":true,"internalType":"bool"}],"anonymous":false},{"type":"event","name":"AD1467_RuleBypassAccount","inputs":[{"name":"bypassAccount","type":"address","indexed":true,"internalType":"address"},{"name":"add","type":"bool","indexed":true,"internalType":"bool"}],"anonymous":false},{"type":"event","name":"AD1467_SuperAdministrator","inputs":[{"name":"admin","type":"address","indexed":true,"internalType":"address"},{"name":"add","type":"bool","indexed":true,"internalType":"bool"}],"anonymous":false},{"type":"event","name":"AD1467_Tag","inputs":[{"name":"_address","type":"address","indexed":true,"internalType":"address"},{"name":"_tag","type":"bytes32","indexed":true,"internalType":"bytes32"},{"name":"add","type":"bool","indexed":true,"internalType":"bool"}],"anonymous":false},{"type":"event","name":"AD1467_TagAlreadyApplied","inputs":[{"name":"_address","type":"address","indexed":true,"internalType":"address"}],"anonymous":false},{"type":"event","name":"AD1467_TagProviderSet","inputs":[{"name":"_address","type":"address","indexed":true,"internalType":"address"}],"anonymous":false},{"type":"event","name":"AD1467_TokenNameUpdated","inputs":[{"name":"_token","type":"string","indexed":true,"internalType":"string"},{"name":"_address","type":"address","indexed":true,"internalType":"address"}],"anonymous":false},{"type":"event","name":"AD1467_TokenRegistered","inputs":[{"name":"_token","type":"string","indexed":true,"internalType":"string"},{"name":"_address","type":"address","indexed":true,"internalType":"address"}],"anonymous":false},{"type":"event","name":"AD1467_TradingRuleAddressAllowlist","inputs":[{"name":"_address","type":"address","indexed":true,"internalType":"address"},{"name":"isApproved","type":"bool","indexed":true,"internalType":"bool"}],"anonymous":false},{"type":"event","name":"AD1467_TreasuryRegistered","inputs":[{"name":"_address","type":"address","indexed":true,"internalType":"address"}],"anonymous":false},{"type":"event","name":"OwnershipTransferred","inputs":[{"name":"previousOwner","type":"address","indexed":true,"internalType":"address"},{"name":"newOwner","type":"address","indexed":true,"internalType":"address"}],"anonymous":false},{"type":"error","name":"AppManagerNotConnected","inputs":[]},{"type":"error","name":"ApplicationPaused","inputs":[{"name":"started","type":"uint256","internalType":"uint256"},{"name":"ends","type":"uint256","internalType":"uint256"}]},{"type":"error","name":"ConfirmerDoesNotMatchProposedAddress","inputs":[]},{"type":"error","name":"InvalidDateWindow","inputs":[{"name":"startDate","type":"uint256","internalType":"uint256"},{"name":"endDate","type":"uint256","internalType":"uint256"}]},{"type":"error","name":"MaxPauseRulesReached","inputs":[]},{"type":"error","name":"NoProposalHasBeenMade","inputs":[]},{"type":"error","name":"NotAppAdministratorOrOwner","inputs":[]},{"type":"error","name":"ZeroAddress","inputs":[]}],"bytecode":{"object":"0x60a060405234801561001057600080fd5b50604051610e69380380610e6983398101604081905261002f916100a4565b8061003933610054565b6001600160a01b031660805261004e81610054565b506100d4565b600080546001600160a01b038381166001600160a01b0319831681178455604051919092169283917f8be0079c531659141344cd1fd0a4f28419497f9722a3daafe3b4186f6b6457e09190a35050565b6000602082840312156100b657600080fd5b81516001600160a01b03811681146100cd57600080fd5b9392505050565b608051610d576101126000396000818161019501528181610300015281816103470152818161042b015281816105fe01526106450152610d576000f3fe608060405234801561001057600080fd5b50600436106100cf5760003560e01c80638da5cb5b1161008c578063d3d24c9b11610066578063d3d24c9b14610190578063d4f93870146101b7578063ddbd94a9146101cc578063f2fde38b146101df57600080fd5b80638da5cb5b14610150578063b5ed298a14610175578063bd9b6d861461018857600080fd5b806312be4100146100d45780631bf974f3146100de5780632d59e38b146100f157806342456e771461010e57806354fd4d5014610121578063715018a614610148575b600080fd5b6100dc6101f2565b005b6100dc6100ec366004610b39565b6102fe565b6100f9610496565b60405190151581526020015b60405180910390f35b6100dc61011c366004610b7d565b6104a8565b60408051808201825260058152640312e312e360dc1b602082015290516101059190610bb0565b6100dc6105e8565b6000546001600160a01b03165b6040516001600160a01b039091168152602001610105565b6100dc610183366004610bff565b6105fc565b6100dc61075c565b61015d7f000000000000000000000000000000000000000000000000000000000000000081565b6101bf6107c5565b6040516101059190610c28565b6100dc6101da366004610b7d565b610843565b6100dc6101ed366004610bff565b610957565b60005b6003548110156102fb575b60035415801590610212575060035481105b801561024c5750426003828154811061022d5761022d610c84565b600091825260209091200154600160401b90046001600160401b031611155b156102f357600015156003828154811061026857610268610c84565b9060005260206000200160000160089054906101000a90046001600160401b03166001600160401b0316600383815481106102a5576102a5610c84565b60009182526020822001546040516001600160401b03909116917fc59968cc6328a09c380b64d3606420afabed418dd4248c157679cbaaa395909891a46102ee8160ff166109cd565b610200565b6001016101f5565b50565b7f00000000000000000000000000000000000000000000000000000000000000006001600160a01b0316610345576040516371724ffd60e01b815260040160405180910390fd5b7f00000000000000000000000000000000000000000000000000000000000000006001600160a01b03811663c3c2ebbb336040516001600160e01b031960e084901b1681526001600160a01b039091166004820152602401602060405180830381865afa1580156103ba573d6000803e3d6000fd5b505050506040513d601f19601f820116820180604052508101906103de9190610c9a565b1580156103f657506000546001600160a01b03163314155b156104145760405163054f3a3160e31b815260040160405180910390fd5b604051632b124b7960e01b81526001600160a01b037f00000000000000000000000000000000000000000000000000000000000000001690632b124b7990610460908590600401610cbc565b600060405180830381600087803b15801561047a57600080fd5b505af115801561048e573d6000803e3d6000fd5b505050505050565b60006104a0610a8f565b506003541590565b6104b0610a8f565b600354600f116104d35760405163d30bd9c560e01b815260040160405180910390fd5b6104db6101f2565b816001600160401b0316816001600160401b0316111580610505575042826001600160401b031611155b1561053b576040516338121a1360e11b81526001600160401b038084166004830152821660248201526044015b60405180910390fd5b6040805180820182526001600160401b03808516808352848216602084018181526003805460018181018355600092835287517fc2575a0e9e593c00f959f8c92f12db2869c3395a3b0502d05e2516446f71f85b909201805494518816600160401b026001600160801b0319909516929097169190911792909217909455945193949390927fc59968cc6328a09c380b64d3606420afabed418dd4248c157679cbaaa395909891a4505050565b6105f0610a8f565b6105fa6000610ae9565b565b7f00000000000000000000000000000000000000000000000000000000000000006001600160a01b0316610643576040516371724ffd60e01b815260040160405180910390fd5b7f00000000000000000000000000000000000000000000000000000000000000006001600160a01b03811663c3c2ebbb336040516001600160e01b031960e084901b1681526001600160a01b039091166004820152602401602060405180830381865afa1580156106b8573d6000803e3d6000fd5b505050506040513d601f19601f820116820180604052508101906106dc9190610c9a565b1580156106f457506000546001600160a01b03163314155b156107125760405163054f3a3160e31b815260040160405180910390fd5b6001600160a01b0382166107395760405163d92e233d60e01b815260040160405180910390fd5b50600180546001600160a01b0319166001600160a01b0392909216919091179055565b6001546001600160a01b03166107855760405163821e0eeb60e01b815260040160405180910390fd5b6001546001600160a01b031633146107b057604051634128496760e01b815260040160405180910390fd5b6001546105fa906001600160a01b0316610ae9565b60606107cf610a8f565b6003805480602002602001604051908101604052809291908181526020016000905b8282101561083a57600084815260209081902060408051808201909152908401546001600160401b038082168352600160401b90910416818301528252600190920191016107f1565b50505050905090565b61084b610a8f565b60005b6003548110156109525760005b6003541580159061086d575060035482105b8015610877575080155b156109495760006003838154811061089157610891610c84565b6000918252602091829020604080518082019091529101546001600160401b03808216808452600160401b9092048116938301939093529092509086161480156108f05750836001600160401b031681602001516001600160401b0316145b1561093e576108fe836109cd565b6040516000906001600160401b0380871691908816907fc59968cc6328a09c380b64d3606420afabed418dd4248c157679cbaaa3959098908490a4610943565b600191505b5061085b565b5060010161084e565b505050565b61095f610a8f565b6001600160a01b0381166109c45760405162461bcd60e51b815260206004820152602660248201527f4f776e61626c653a206e6577206f776e657220697320746865207a65726f206160448201526564647265737360d01b6064820152608401610532565b6102fb81610ae9565b60038054906109dd600183610ce4565b815481106109ed576109ed610c84565b9060005260206000200160038381548110610a0a57610a0a610c84565b600091825260209091208254910180546001600160401b0392831667ffffffffffffffff1982168117835593546001600160801b0319909116909317600160401b938490049092169092021790556003805480610a6957610a69610d0b565b600082815260209020810160001990810180546001600160801b03191690550190555050565b6000546001600160a01b031633146105fa5760405162461bcd60e51b815260206004820181905260248201527f4f776e61626c653a2063616c6c6572206973206e6f7420746865206f776e65726044820152606401610532565b600080546001600160a01b038381166001600160a01b0319831681178455604051919092169283917f8be0079c531659141344cd1fd0a4f28419497f9722a3daafe3b4186f6b6457e09190a35050565b600060208284031215610b4b57600080fd5b813560058110610b5a57600080fd5b9392505050565b80356001600160401b0381168114610b7857600080fd5b919050565b60008060408385031215610b9057600080fd5b610b9983610b61565b9150610ba760208401610b61565b90509250929050565b60006020808352835180602085015260005b81811015610bde57858101830151858201604001528201610bc2565b506000604082860101526040601f19601f8301168501019250505092915050565b600060208284031215610c1157600080fd5b81356001600160a01b0381168114610b5a57600080fd5b602080825282518282018190526000919060409081850190868401855b82811015610c7757815180516001600160401b0390811686529087015116868501529284019290850190600101610c45565b5091979650505050505050565b634e487b7160e01b600052603260045260246000fd5b600060208284031215610cac57600080fd5b81518015158114610b5a57600080fd5b6020810160058310610cde57634e487b7160e01b600052602160045260246000fd5b91905290565b81810381811115610d0557634e487b7160e01b600052601160045260246000fd5b92915050565b634e487b7160e01b600052603160045260246000fdfea2646970667358221220f8037e7e39cb99ec3a78369504217b092f439ee3c6e0626cb6b3b28d84ca07ae64736f6c63430008180033","linkReferences":{}},"methodIdentifiers":{"addPauseRule(uint64,uint64)":"42456e77","cleanOutdatedRules()":"12be4100","confirmDataProvider(uint8)":"1bf974f3","confirmOwner()":"bd9b6d86","dataModuleAppManagerAddress()":"d3d24c9b","getPauseRules()":"d4f93870","isPauseRulesEmpty()":"2d59e38b","owner()":"8da5cb5b","proposeOwner(address)":"b5ed298a","removePauseRule(uint64,uint64)":"ddbd94a9","renounceOwnership()":"715018a6","transferOwnership(address)":"f2fde38b","version()":"54fd4d50"},"id":144}