{"abi":[{"type":"function","name":"activateTokenMaxBuyVolume","inputs":[{"name":"_on","type":"bool","internalType":"bool"}],"outputs":[],"stateMutability":"nonpayable"},{"type":"function","name":"getTokenMaxBuyVolumeId","inputs":[],"outputs":[{"name":"","type":"uint32","internalType":"uint32"}],"stateMutability":"view"},{"type":"function","name":"isTokenMaxBuyVolumeActive","inputs":[],"outputs":[{"name":"","type":"bool","internalType":"bool"}],"stateMutability":"view"},{"type":"function","name":"setTokenMaxBuyVolumeId","inputs":[{"name":"_ruleId","type":"uint32","internalType":"uint32"}],"outputs":[],"stateMutability":"nonpayable"},{"type":"function","name":"setTokenMaxBuyVolumeIdFull","inputs":[{"name":"_actions","type":"uint8[]","internalType":"enum ActionTypes[]"},{"name":"_ruleIds","type":"uint32[]","internalType":"uint32[]"}],"outputs":[],"stateMutability":"nonpayable"},{"type":"event","name":"AD1467_AppManagerAddressProposed","inputs":[{"name":"_address","type":"address","indexed":true,"internalType":"address"}],"anonymous":false},{"type":"event","name":"AD1467_AppManagerAddressSet","inputs":[{"name":"_address","type":"address","indexed":true,"internalType":"address"}],"anonymous":false},{"type":"event","name":"AD1467_ApplicationHandlerActionActivated","inputs":[{"name":"ruleType","type":"bytes32","indexed":true,"internalType":"bytes32"},{"name":"actions","type":"uint8[]","indexed":false,"internalType":"enum ActionTypes[]"}],"anonymous":false},{"type":"event","name":"AD1467_ApplicationHandlerActionApplied","inputs":[{"name":"ruleType","type":"bytes32","indexed":true,"internalType":"bytes32"},{"name":"action","type":"uint8","indexed":true,"internalType":"enum ActionTypes"},{"name":"ruleId","type":"uint32","indexed":true,"internalType":"uint32"}],"anonymous":false},{"type":"event","name":"AD1467_ApplicationHandlerActionAppliedFull","inputs":[{"name":"ruleType","type":"bytes32","indexed":true,"internalType":"bytes32"},{"name":"actions","type":"uint8[]","indexed":false,"internalType":"enum ActionTypes[]"},{"name":"ruleIds","type":"uint32[]","indexed":false,"internalType":"uint32[]"}],"anonymous":false},{"type":"event","name":"AD1467_ApplicationHandlerActionDeactivated","inputs":[{"name":"ruleType","type":"bytes32","indexed":true,"internalType":"bytes32"},{"name":"actions","type":"uint8[]","indexed":false,"internalType":"enum ActionTypes[]"}],"anonymous":false},{"type":"event","name":"AD1467_ERC721AddressSet","inputs":[{"name":"_address","type":"address","indexed":true,"internalType":"address"}],"anonymous":false},{"type":"event","name":"AD1467_FeeActivationSet","inputs":[{"name":"_activation","type":"bool","indexed":true,"internalType":"bool"}],"anonymous":false},{"type":"event","name":"AD1467_NFTValuationLimitUpdated","inputs":[{"name":"nftValuationLimit","type":"uint256","indexed":true,"internalType":"uint256"}],"anonymous":false},{"type":"error","name":"AccountApproveDenyOraclesPerAssetLimitReached","inputs":[]},{"type":"error","name":"AppManagerNotConnected","inputs":[]},{"type":"error","name":"BatchMintBurnNotSupported","inputs":[]},{"type":"error","name":"BelowMinAdminThreshold","inputs":[]},{"type":"error","name":"CannotTurnOffAccountDenyForNoAccessLevelWhileActive","inputs":[]},{"type":"error","name":"FeesAreGreaterThanTransactionAmount","inputs":[{"name":"","type":"address","internalType":"address"}]},{"type":"error","name":"InputArraysMustHaveSameLength","inputs":[]},{"type":"error","name":"InputArraysSizesNotValid","inputs":[]},{"type":"error","name":"InvalidAction","inputs":[]},{"type":"error","name":"NotAppAdministrator","inputs":[]},{"type":"error","name":"NotAppAdministratorOrOwner","inputs":[]},{"type":"error","name":"NotRuleAdministrator","inputs":[]},{"type":"error","name":"NotSuperAdmin","inputs":[{"name":"","type":"address","internalType":"address"}]},{"type":"error","name":"PeriodExceeds5Years","inputs":[]},{"type":"error","name":"ZeroValueNotPermited","inputs":[]},{"type":"error","name":"actionCheckFailed","inputs":[]}],"bytecode":{"object":"0x608060405234801561001057600080fd5b50610ae2806100206000396000f3fe608060405234801561001057600080fd5b50600436106100575760003560e01c80636790eb611461005c5780639e86fabd14610071578063ad87bfbe14610093578063e0ce0c09146100a6578063f11da4df146100b9575b600080fd5b61006f61006a366004610809565b6100d1565b005b6100796102d5565b60405163ffffffff90911681526020015b60405180910390f35b61006f6100a1366004610879565b6102eb565b61006f6100b43660046108fe565b6104c4565b6100c1610652565b604051901515815260200161008a565b6100d961066d565b600201546001600160a01b031680610104576040516371724ffd60e01b815260040160405180910390fd5b806001600160a01b03811663d4a7db7f336040516001600160e01b031960e084901b1681526001600160a01b039091166004820152602401602060405180830381865afa158015610159573d6000803e3d6000fd5b505050506040513d601f19601f8201168201806040525081019061017d9190610919565b61019a57604051631acd860160e31b815260040160405180910390fd5b826101a36106a1565b80549115156401000000000264ff0000000019909216919091179055604080516001808252818301909252600091602080830190803683370190505090506001816000815181106101f6576101f6610936565b6020026020010190600481111561020f5761020f61094c565b908160048111156102225761022261094c565b905250831561027f5773544f4b454e5f4d41585f4255595f564f4c554d4560601b7f4dfa26a794eb61a703a2beac482f06b4372aed0b7c0d6b4490db416146d8e32e82604051610272919061098b565b60405180910390a26102cf565b73544f4b454e5f4d41585f4255595f564f4c554d4560601b7fe67b4c6b446d2563a2a39eb75b71127a3f908bcfcef4f7c89bd9e1b3ef39d15e826040516102c6919061098b565b60405180910390a25b50505050565b60006102df6106a1565b5463ffffffff16919050565b6102f361066d565b600201546001600160a01b03168061031e576040516371724ffd60e01b815260040160405180910390fd5b806001600160a01b03811663d4a7db7f336040516001600160e01b031960e084901b1681526001600160a01b039091166004820152602401602060405180830381865afa158015610373573d6000803e3d6000fd5b505050506040513d601f19601f820116820180604052508101906103979190610919565b6103b457604051631acd860160e31b815260040160405180910390fd5b60008590036103d657604051633f4ab26f60e21b815260040160405180910390fd5b8483146103f55760405162514d8b60e31b815260040160405180910390fd5b6103fd6106cf565b60005b858110156104665761045e87878381811061041d5761041d610936565b905060200201602081019061043291906109e3565b86868481811061044457610444610936565b905060200201602081019061045991906108fe565b61072e565b600101610400565b5073544f4b454e5f4d41585f4255595f564f4c554d4560601b7ffce5ba10ca670317c4ad6aaf14bfb5c4467bb4415ab89dafce1434471a227126878787876040516104b494939291906109fe565b60405180910390a2505050505050565b6104cc61066d565b600201546001600160a01b0316806104f7576040516371724ffd60e01b815260040160405180910390fd5b806001600160a01b03811663d4a7db7f336040516001600160e01b031960e084901b1681526001600160a01b039091166004820152602401602060405180830381865afa15801561054c573d6000803e3d6000fd5b505050506040513d601f19601f820116820180604052508101906105709190610919565b61058d57604051631acd860160e31b815260040160405180910390fd5b61059561066d565b600101546040516350436ce560e01b815263ffffffff851660048201526001600160a01b03909116906350436ce59060240160006040518083038186803b1580156105df57600080fd5b505afa1580156105f3573d6000803e3d6000fd5b5050505061060260018461072e565b63ffffffff8316600160405173544f4b454e5f4d41585f4255595f564f4c554d4560601b907f4f87ac5c7868c692420a972d0f84fa7750afbf2b8a09848fefc355020bce707b90600090a4505050565b600061065c6106a1565b54640100000000900460ff16919050565b60008061069b60017f1c7e9355957c344e150b07462120dcb6c99b078e258444a7cd1841042fa7f14b610a8b565b92915050565b60008061069b60017fd1bd7799c7d4801564a7fa1bf18eec1222637e8da584f0026edf39ad2607654f610a8b565b60006106d96106a1565b905060005b6106e661066d565b60030154600160a01b900460ff16811161072a57815464ffffffffff19168255600060018084019190915560028301805467ffffffffffffffff19169055016106de565b5050565b60018260048111156107425761074261094c565b1461076057604051634a7f394f60e01b815260040160405180910390fd5b61076861066d565b600101546040516350436ce560e01b815263ffffffff831660048201526001600160a01b03909116906350436ce59060240160006040518083038186803b1580156107b257600080fd5b505afa1580156107c6573d6000803e3d6000fd5b5050505060006107d46106a1565b805464ffffffffff191663ffffffff90931692909217640100000000179091555050565b801515811461080657600080fd5b50565b60006020828403121561081b57600080fd5b8135610826816107f8565b9392505050565b60008083601f84011261083f57600080fd5b50813567ffffffffffffffff81111561085757600080fd5b6020830191508360208260051b850101111561087257600080fd5b9250929050565b6000806000806040858703121561088f57600080fd5b843567ffffffffffffffff808211156108a757600080fd5b6108b38883890161082d565b909650945060208701359150808211156108cc57600080fd5b506108d98782880161082d565b95989497509550505050565b803563ffffffff811681146108f957600080fd5b919050565b60006020828403121561091057600080fd5b610826826108e5565b60006020828403121561092b57600080fd5b8151610826816107f8565b634e487b7160e01b600052603260045260246000fd5b634e487b7160e01b600052602160045260246000fd5b60006005821061098257634e487b7160e01b600052602160045260246000fd5b50815260200190565b6020808252825182820181905260009190848201906040850190845b818110156109c8576109ba838551610962565b9385019392506001016109a7565b50909695505050505050565b8035600581106108f957600080fd5b6000602082840312156109f557600080fd5b610826826109d4565b6040808252810184905260008560608301825b87811015610a3c57610a2b82610a26856109d4565b610962565b602093909301929150600101610a11565b5083810360208581019190915285825291508590820160005b86811015610a7e5763ffffffff610a6b846108e5565b1682529183019190830190600101610a55565b5098975050505050505050565b8181038181111561069b57634e487b7160e01b600052601160045260246000fdfea2646970667358221220a81a068b5dcd09f6e738c40388c41da4775dd30efe2af881ba2fb50b041fbfab64736f6c63430008180033","linkReferences":{}},"methodIdentifiers":{"activateTokenMaxBuyVolume(bool)":"6790eb61","getTokenMaxBuyVolumeId()":"9e86fabd","isTokenMaxBuyVolumeActive()":"f11da4df","setTokenMaxBuyVolumeId(uint32)":"e0ce0c09","setTokenMaxBuyVolumeIdFull(uint8[],uint32[])":"ad87bfbe"},"id":190}