{"abi":[{"type":"function","name":"activateAccountMaxSellSize","inputs":[{"name":"_on","type":"bool","internalType":"bool"}],"outputs":[],"stateMutability":"nonpayable"},{"type":"function","name":"getAccountMaxSellSizeId","inputs":[],"outputs":[{"name":"","type":"uint32","internalType":"uint32"}],"stateMutability":"view"},{"type":"function","name":"isAccountMaxSellSizeActive","inputs":[],"outputs":[{"name":"","type":"bool","internalType":"bool"}],"stateMutability":"view"},{"type":"function","name":"setAccountMaxSellSizeId","inputs":[{"name":"_ruleId","type":"uint32","internalType":"uint32"}],"outputs":[],"stateMutability":"nonpayable"},{"type":"function","name":"setAccountMaxSellSizeIdFull","inputs":[{"name":"_actions","type":"uint8[]","internalType":"enum ActionTypes[]"},{"name":"_ruleIds","type":"uint32[]","internalType":"uint32[]"}],"outputs":[],"stateMutability":"nonpayable"},{"type":"event","name":"AD1467_AppManagerAddressProposed","inputs":[{"name":"_address","type":"address","indexed":true,"internalType":"address"}],"anonymous":false},{"type":"event","name":"AD1467_AppManagerAddressSet","inputs":[{"name":"_address","type":"address","indexed":true,"internalType":"address"}],"anonymous":false},{"type":"event","name":"AD1467_ApplicationHandlerActionActivated","inputs":[{"name":"ruleType","type":"bytes32","indexed":true,"internalType":"bytes32"},{"name":"actions","type":"uint8[]","indexed":false,"internalType":"enum ActionTypes[]"}],"anonymous":false},{"type":"event","name":"AD1467_ApplicationHandlerActionApplied","inputs":[{"name":"ruleType","type":"bytes32","indexed":true,"internalType":"bytes32"},{"name":"action","type":"uint8","indexed":true,"internalType":"enum ActionTypes"},{"name":"ruleId","type":"uint32","indexed":true,"internalType":"uint32"}],"anonymous":false},{"type":"event","name":"AD1467_ApplicationHandlerActionAppliedFull","inputs":[{"name":"ruleType","type":"bytes32","indexed":true,"internalType":"bytes32"},{"name":"actions","type":"uint8[]","indexed":false,"internalType":"enum ActionTypes[]"},{"name":"ruleIds","type":"uint32[]","indexed":false,"internalType":"uint32[]"}],"anonymous":false},{"type":"event","name":"AD1467_ApplicationHandlerActionDeactivated","inputs":[{"name":"ruleType","type":"bytes32","indexed":true,"internalType":"bytes32"},{"name":"actions","type":"uint8[]","indexed":false,"internalType":"enum ActionTypes[]"}],"anonymous":false},{"type":"event","name":"AD1467_ERC721AddressSet","inputs":[{"name":"_address","type":"address","indexed":true,"internalType":"address"}],"anonymous":false},{"type":"event","name":"AD1467_FeeActivationSet","inputs":[{"name":"_activation","type":"bool","indexed":true,"internalType":"bool"}],"anonymous":false},{"type":"event","name":"AD1467_NFTValuationLimitUpdated","inputs":[{"name":"nftValuationLimit","type":"uint256","indexed":true,"internalType":"uint256"}],"anonymous":false},{"type":"error","name":"AccountApproveDenyOraclesPerAssetLimitReached","inputs":[]},{"type":"error","name":"AppManagerNotConnected","inputs":[]},{"type":"error","name":"BatchMintBurnNotSupported","inputs":[]},{"type":"error","name":"BelowMinAdminThreshold","inputs":[]},{"type":"error","name":"CannotTurnOffAccountDenyForNoAccessLevelWhileActive","inputs":[]},{"type":"error","name":"FeesAreGreaterThanTransactionAmount","inputs":[{"name":"","type":"address","internalType":"address"}]},{"type":"error","name":"InputArraysMustHaveSameLength","inputs":[]},{"type":"error","name":"InputArraysSizesNotValid","inputs":[]},{"type":"error","name":"InvalidAction","inputs":[]},{"type":"error","name":"NotAppAdministrator","inputs":[]},{"type":"error","name":"NotAppAdministratorOrOwner","inputs":[]},{"type":"error","name":"NotRuleAdministrator","inputs":[]},{"type":"error","name":"NotSuperAdmin","inputs":[{"name":"","type":"address","internalType":"address"}]},{"type":"error","name":"PeriodExceeds5Years","inputs":[]},{"type":"error","name":"ZeroValueNotPermited","inputs":[]},{"type":"error","name":"actionCheckFailed","inputs":[]}],"bytecode":{"object":"0x608060405234801561001057600080fd5b50610a60806100206000396000f3fe608060405234801561001057600080fd5b50600436106100575760003560e01c80633ebb5dbb1461005c57806388011f0e1461007e5780638ca023aa14610093578063c307524b146100a6578063f27279b7146100b9575b600080fd5b6100646100d1565b60405163ffffffff90911681526020015b60405180910390f35b61009161008c3660046107c2565b6100e7565b005b6100916100a1366004610847565b6102c1565b6100916100b436600461087a565b6103e6565b6100c16105ec565b6040519015158152602001610075565b60006100db610607565b5463ffffffff16919050565b6100ef61063b565b600201546001600160a01b03168061011a576040516371724ffd60e01b815260040160405180910390fd5b806001600160a01b03811663d4a7db7f336040516001600160e01b031960e084901b1681526001600160a01b039091166004820152602401602060405180830381865afa15801561016f573d6000803e3d6000fd5b505050506040513d601f19601f820116820180604052508101906101939190610897565b6101b057604051631acd860160e31b815260040160405180910390fd5b60008590036101d257604051633f4ab26f60e21b815260040160405180910390fd5b8483146101f15760405162514d8b60e31b815260040160405180910390fd5b6101f9610669565b60005b858110156102625761025a878783818110610219576102196108b4565b905060200201602081019061022e91906108d9565b868684818110610240576102406108b4565b90506020020160208101906102559190610847565b6106ac565b6001016101fc565b50744143434f554e545f4d41585f53454c4c5f53495a4560581b7ffce5ba10ca670317c4ad6aaf14bfb5c4467bb4415ab89dafce1434471a227126878787876040516102b19493929190610933565b60405180910390a2505050505050565b6102c961063b565b600201546001600160a01b0316806102f4576040516371724ffd60e01b815260040160405180910390fd5b806001600160a01b03811663d4a7db7f336040516001600160e01b031960e084901b1681526001600160a01b039091166004820152602401602060405180830381865afa158015610349573d6000803e3d6000fd5b505050506040513d601f19601f8201168201806040525081019061036d9190610897565b61038a57604051631acd860160e31b815260040160405180910390fd5b6103956002846106ac565b63ffffffff83166002604051744143434f554e545f4d41585f53454c4c5f53495a4560581b907f4f87ac5c7868c692420a972d0f84fa7750afbf2b8a09848fefc355020bce707b90600090a4505050565b6103ee61063b565b600201546001600160a01b031680610419576040516371724ffd60e01b815260040160405180910390fd5b806001600160a01b03811663d4a7db7f336040516001600160e01b031960e084901b1681526001600160a01b039091166004820152602401602060405180830381865afa15801561046e573d6000803e3d6000fd5b505050506040513d601f19601f820116820180604052508101906104929190610897565b6104af57604051631acd860160e31b815260040160405180910390fd5b826104b8610607565b80549115156401000000000264ff00000000199092169190911790556040805160018082528183019092526000916020808301908036833701905050905060028160008151811061050b5761050b6108b4565b60200260200101906004811115610524576105246108f4565b90816004811115610537576105376108f4565b905250831561059557744143434f554e545f4d41585f53454c4c5f53495a4560581b7f4dfa26a794eb61a703a2beac482f06b4372aed0b7c0d6b4490db416146d8e32e8260405161058891906109c0565b60405180910390a26105e6565b744143434f554e545f4d41585f53454c4c5f53495a4560581b7fe67b4c6b446d2563a2a39eb75b71127a3f908bcfcef4f7c89bd9e1b3ef39d15e826040516105dd91906109c0565b60405180910390a25b50505050565b60006105f6610607565b54640100000000900460ff16919050565b60008061063560017ff9397a199b69953d97776df17438ea0629f955e5b5df28e98fa3dbe5aa39991d610a09565b92915050565b60008061063560017f1c7e9355957c344e150b07462120dcb6c99b078e258444a7cd1841042fa7f14b610a09565b6000610673610607565b905060005b61068061063b565b60030154600160a01b900460ff1681116106a857815464ffffffffff19168255600101610678565b5050565b60028260048111156106c0576106c06108f4565b146106de57604051634a7f394f60e01b815260040160405180910390fd5b6106e661063b565b600101546040516302dc5e6760e21b815263ffffffff831660048201526001600160a01b0390911690630b71799c9060240160006040518083038186803b15801561073057600080fd5b505afa158015610744573d6000803e3d6000fd5b505050506000610752610607565b805464ffffffffff191663ffffffff90931692909217640100000000179091555050565b60008083601f84011261078857600080fd5b50813567ffffffffffffffff8111156107a057600080fd5b6020830191508360208260051b85010111156107bb57600080fd5b9250929050565b600080600080604085870312156107d857600080fd5b843567ffffffffffffffff808211156107f057600080fd5b6107fc88838901610776565b9096509450602087013591508082111561081557600080fd5b5061082287828801610776565b95989497509550505050565b803563ffffffff8116811461084257600080fd5b919050565b60006020828403121561085957600080fd5b6108628261082e565b9392505050565b801515811461087757600080fd5b50565b60006020828403121561088c57600080fd5b813561086281610869565b6000602082840312156108a957600080fd5b815161086281610869565b634e487b7160e01b600052603260045260246000fd5b80356005811061084257600080fd5b6000602082840312156108eb57600080fd5b610862826108ca565b634e487b7160e01b600052602160045260246000fd5b60006005821061092a57634e487b7160e01b600052602160045260246000fd5b50815260200190565b6040808252810184905260008560608301825b87811015610971576109608261095b856108ca565b61090a565b602093909301929150600101610946565b5083810360208581019190915285825291508590820160005b868110156109b35763ffffffff6109a08461082e565b168252918301919083019060010161098a565b5098975050505050505050565b6020808252825182820181905260009190848201906040850190845b818110156109fd576109ef83855161090a565b9385019392506001016109dc565b50909695505050505050565b8181038181111561063557634e487b7160e01b600052601160045260246000fdfea2646970667358221220019c6d599bf72273cd14e904cdafc2db74131f82144e213158b99d9ddd8c2a6464736f6c63430008180033","linkReferences":{}},"methodIdentifiers":{"activateAccountMaxSellSize(bool)":"c307524b","getAccountMaxSellSizeId()":"3ebb5dbb","isAccountMaxSellSizeActive()":"f27279b7","setAccountMaxSellSizeId(uint32)":"8ca023aa","setAccountMaxSellSizeIdFull(uint8[],uint32[])":"88011f0e"},"id":185}