{"abi":[{"type":"constructor","inputs":[{"name":"_appManagerAddress","type":"address","internalType":"address"}],"stateMutability":"nonpayable"},{"type":"function","name":"getChainlinkAzukiToUSDFeedPrice","inputs":[],"outputs":[{"name":"","type":"uint256","internalType":"uint256"}],"stateMutability":"view"},{"type":"function","name":"getChainlinkCryptoToUSDFeedPrice","inputs":[],"outputs":[{"name":"","type":"uint256","internalType":"uint256"}],"stateMutability":"view"},{"type":"function","name":"getChainlinkPudgyToUSDFeedPrice","inputs":[],"outputs":[{"name":"","type":"uint256","internalType":"uint256"}],"stateMutability":"view"},{"type":"function","name":"getNFTCollectionPrice","inputs":[{"name":"nftContract","type":"address","internalType":"address"}],"outputs":[{"name":"price","type":"uint256","internalType":"uint256"}],"stateMutability":"view"},{"type":"function","name":"getNFTPrice","inputs":[{"name":"nftContract","type":"address","internalType":"address"},{"name":"id","type":"uint256","internalType":"uint256"}],"outputs":[{"name":"price","type":"uint256","internalType":"uint256"}],"stateMutability":"view"},{"type":"function","name":"owner","inputs":[],"outputs":[{"name":"","type":"address","internalType":"address"}],"stateMutability":"view"},{"type":"function","name":"renounceOwnership","inputs":[],"outputs":[],"stateMutability":"nonpayable"},{"type":"function","name":"setAzuikiFeedAddress","inputs":[{"name":"_address","type":"address","internalType":"address"}],"outputs":[],"stateMutability":"nonpayable"},{"type":"function","name":"setAzukiAddress","inputs":[{"name":"_address","type":"address","internalType":"address"}],"outputs":[],"stateMutability":"nonpayable"},{"type":"function","name":"setCryptoPunkAddress","inputs":[{"name":"_address","type":"address","internalType":"address"}],"outputs":[],"stateMutability":"nonpayable"},{"type":"function","name":"setCryptoPunkFeedAddress","inputs":[{"name":"_address","type":"address","internalType":"address"}],"outputs":[],"stateMutability":"nonpayable"},{"type":"function","name":"setPudgyPenguinAddress","inputs":[{"name":"_address","type":"address","internalType":"address"}],"outputs":[],"stateMutability":"nonpayable"},{"type":"function","name":"setPudgyPenguinFeedAddress","inputs":[{"name":"_address","type":"address","internalType":"address"}],"outputs":[],"stateMutability":"nonpayable"},{"type":"function","name":"transferOwnership","inputs":[{"name":"newOwner","type":"address","internalType":"address"}],"outputs":[],"stateMutability":"nonpayable"},{"type":"event","name":"AD1467_AppManagerAddressSet","inputs":[{"name":"_address","type":"address","indexed":true,"internalType":"address"}],"anonymous":false},{"type":"event","name":"AD1467_CollectionPrice","inputs":[{"name":"collection","type":"address","indexed":true,"internalType":"address"},{"name":"price","type":"uint256","indexed":true,"internalType":"uint256"}],"anonymous":false},{"type":"event","name":"AD1467_FeeType","inputs":[{"name":"tag","type":"bytes32","indexed":true,"internalType":"bytes32"},{"name":"add","type":"bool","indexed":true,"internalType":"bool"},{"name":"minBalance","type":"uint256","indexed":false,"internalType":"uint256"},{"name":"maxBalance","type":"uint256","indexed":false,"internalType":"uint256"},{"name":"feePercentage","type":"int256","indexed":false,"internalType":"int256"},{"name":"targetAccount","type":"address","indexed":false,"internalType":"address"}],"anonymous":false},{"type":"event","name":"AD1467_HandlerConnected","inputs":[{"name":"handlerAddress","type":"address","indexed":true,"internalType":"address"},{"name":"assetAddress","type":"address","indexed":true,"internalType":"address"}],"anonymous":false},{"type":"event","name":"AD1467_NewNFTDeployed","inputs":[{"name":"appManagerAddress","type":"address","indexed":true,"internalType":"address"}],"anonymous":false},{"type":"event","name":"AD1467_NewTokenDeployed","inputs":[{"name":"appManagerAddress","type":"address","indexed":true,"internalType":"address"}],"anonymous":false},{"type":"event","name":"AD1467_SingleTokenPrice","inputs":[{"name":"collection","type":"address","indexed":true,"internalType":"address"},{"name":"tokenID","type":"uint256","indexed":true,"internalType":"uint256"},{"name":"price","type":"uint256","indexed":true,"internalType":"uint256"}],"anonymous":false},{"type":"event","name":"AD1467_TokenPrice","inputs":[{"name":"token","type":"address","indexed":true,"internalType":"address"},{"name":"price","type":"uint256","indexed":true,"internalType":"uint256"}],"anonymous":false},{"type":"event","name":"OwnershipTransferred","inputs":[{"name":"previousOwner","type":"address","indexed":true,"internalType":"address"},{"name":"newOwner","type":"address","indexed":true,"internalType":"address"}],"anonymous":false},{"type":"error","name":"AppManagerNotConnected","inputs":[]},{"type":"error","name":"BelowMinAdminThreshold","inputs":[]},{"type":"error","name":"NoPriceFeed","inputs":[{"name":"tokenAddress","type":"address","internalType":"address"}]},{"type":"error","name":"NotAnNFTContract","inputs":[{"name":"nftContract","type":"address","internalType":"address"}]},{"type":"error","name":"NotAppAdministrator","inputs":[]},{"type":"error","name":"NotAppAdministratorOrOwner","inputs":[]},{"type":"error","name":"NotRuleAdministrator","inputs":[]},{"type":"error","name":"NotSuperAdmin","inputs":[{"name":"","type":"address","internalType":"address"}]},{"type":"error","name":"ZeroAddress","inputs":[]}],"bytecode":{"object":"0x60a0604052600180546001600160a01b031990811673bd3531da5cf5857e7cfaa92426877b022e612cf817909155600280548216739f2ba149c2a0ee76043d83558c4e79e9f3e5731b17905560038054821673b47e3cd837ddf8e4c57f05d70ab865de6e193bbb1790556004805482167301b6710b01cf3dd8ae64243097d91afb03728fdd17905560058054821673ed5af388653567af2f388e6224dc7c4b3241c5441790556006805490911673a8b9a447c73191744d5b79bce864f343455e11501790553480156100d057600080fd5b506040516111d13803806111d18339810160408190526100ef91610180565b6100f833610130565b6001600160a01b03811661011f5760405163d92e233d60e01b815260040160405180910390fd5b6001600160a01b03166080526101b0565b600080546001600160a01b038381166001600160a01b0319831681178455604051919092169283917f8be0079c531659141344cd1fd0a4f28419497f9722a3daafe3b4186f6b6457e09190a35050565b60006020828403121561019257600080fd5b81516001600160a01b03811681146101a957600080fd5b9392505050565b608051610fe36101ee600039600081816101ec015281816103150152818161043e015281816105f80152818161087c01526109a50152610fe36000f3fe608060405234801561001057600080fd5b50600436106100ea5760003560e01c8063923c7e491161008c578063bc24179311610066578063bc241793146101b4578063d434786d146101c7578063f20a33fb146101cf578063f2fde38b146101d757600080fd5b8063923c7e4914610186578063961689151461018e578063a059586d146101a157600080fd5b80635586d150116100c85780635586d1501461012a5780636762ba4514610150578063715018a6146101635780638da5cb5b1461016b57600080fd5b80632cbe1451146100ef57806331f01e6d1461010457806354c9f41114610117575b600080fd5b6101026100fd366004610d2b565b6101ea565b005b610102610112366004610d2b565b610313565b610102610125366004610d2b565b61043c565b61013d610138366004610d2b565b610565565b6040519081526020015b60405180910390f35b61010261015e366004610d2b565b6105f6565b61010261071f565b6000546040516001600160a01b039091168152602001610147565b61013d610733565b61010261019c366004610d2b565b61087a565b6101026101af366004610d2b565b6109a3565b61013d6101c2366004610d46565b610acc565b61013d610b54565b61013d610ba3565b6101026101e5366004610d2b565b610bf1565b7f00000000000000000000000000000000000000000000000000000000000000006001600160a01b038116610232576040516371724ffd60e01b815260040160405180910390fd5b806001600160a01b03811663c3c2ebbb336040516001600160e01b031960e084901b1681526001600160a01b039091166004820152602401602060405180830381865afa158015610287573d6000803e3d6000fd5b505050506040513d601f19601f820116820180604052508101906102ab9190610d70565b6102c85760405163ba80c9e560e01b815260040160405180910390fd5b6001600160a01b0383166102ef5760405163d92e233d60e01b815260040160405180910390fd5b5050600680546001600160a01b0319166001600160a01b0392909216919091179055565b7f00000000000000000000000000000000000000000000000000000000000000006001600160a01b03811661035b576040516371724ffd60e01b815260040160405180910390fd5b806001600160a01b03811663c3c2ebbb336040516001600160e01b031960e084901b1681526001600160a01b039091166004820152602401602060405180830381865afa1580156103b0573d6000803e3d6000fd5b505050506040513d601f19601f820116820180604052508101906103d49190610d70565b6103f15760405163ba80c9e560e01b815260040160405180910390fd5b6001600160a01b0383166104185760405163d92e233d60e01b815260040160405180910390fd5b5050600380546001600160a01b0319166001600160a01b0392909216919091179055565b7f00000000000000000000000000000000000000000000000000000000000000006001600160a01b038116610484576040516371724ffd60e01b815260040160405180910390fd5b806001600160a01b03811663c3c2ebbb336040516001600160e01b031960e084901b1681526001600160a01b039091166004820152602401602060405180830381865afa1580156104d9573d6000803e3d6000fd5b505050506040513d601f19601f820116820180604052508101906104fd9190610d70565b61051a5760405163ba80c9e560e01b815260040160405180910390fd5b6001600160a01b0383166105415760405163d92e233d60e01b815260040160405180910390fd5b5050600280546001600160a01b0319166001600160a01b0392909216919091179055565b6001546000906001600160a01b039081169083160361058c57610586610ba3565b92915050565b6003546001600160a01b03908116908316036105aa57610586610b54565b6005546001600160a01b03908116908316036105c857610586610733565b604051632a4f499d60e21b81526001600160a01b03831660048201526024015b60405180910390fd5b919050565b7f00000000000000000000000000000000000000000000000000000000000000006001600160a01b03811661063e576040516371724ffd60e01b815260040160405180910390fd5b806001600160a01b03811663c3c2ebbb336040516001600160e01b031960e084901b1681526001600160a01b039091166004820152602401602060405180830381865afa158015610693573d6000803e3d6000fd5b505050506040513d601f19601f820116820180604052508101906106b79190610d70565b6106d45760405163ba80c9e560e01b815260040160405180910390fd5b6001600160a01b0383166106fb5760405163d92e233d60e01b815260040160405180910390fd5b5050600180546001600160a01b0319166001600160a01b0392909216919091179055565b610727610c6a565b6107316000610cc4565b565b6006546040805163313ce56760e01b815290516000926001600160a01b0316918391839163313ce5679160048083019260209291908290030181865afa158015610781573d6000803e3d6000fd5b505050506040513d601f19601f820116820180604052508101906107a59190610d92565b90506000826001600160a01b031663feaf968c6040518163ffffffff1660e01b815260040160a060405180830381865afa1580156107e7573d6000803e3d6000fd5b505050506040513d601f19601f8201168201806040525081019061080b9190610dcf565b50505091505060128260ff16101561084457610828826012610e35565b61083390600a610f32565b61083d9082610f41565b9050610873565b60128260ff1611156108735761085b601283610e35565b61086690600a610f32565b6108709082610f71565b90505b9392505050565b7f00000000000000000000000000000000000000000000000000000000000000006001600160a01b0381166108c2576040516371724ffd60e01b815260040160405180910390fd5b806001600160a01b03811663c3c2ebbb336040516001600160e01b031960e084901b1681526001600160a01b039091166004820152602401602060405180830381865afa158015610917573d6000803e3d6000fd5b505050506040513d601f19601f8201168201806040525081019061093b9190610d70565b6109585760405163ba80c9e560e01b815260040160405180910390fd5b6001600160a01b03831661097f5760405163d92e233d60e01b815260040160405180910390fd5b5050600480546001600160a01b0319166001600160a01b0392909216919091179055565b7f00000000000000000000000000000000000000000000000000000000000000006001600160a01b0381166109eb576040516371724ffd60e01b815260040160405180910390fd5b806001600160a01b03811663c3c2ebbb336040516001600160e01b031960e084901b1681526001600160a01b039091166004820152602401602060405180830381865afa158015610a40573d6000803e3d6000fd5b505050506040513d601f19601f82011682018060405250810190610a649190610d70565b610a815760405163ba80c9e560e01b815260040160405180910390fd5b6001600160a01b038316610aa85760405163d92e233d60e01b815260040160405180910390fd5b5050600580546001600160a01b0319166001600160a01b0392909216919091179055565b6001546000906001600160a01b0390811690841603610af457610aed610ba3565b9050610586565b6003546001600160a01b0390811690841603610b1257610aed610b54565b6005546001600160a01b0390811690841603610b3057610aed610733565b604051632a4f499d60e21b81526001600160a01b03841660048201526024016105e8565b600480546040805163313ce56760e01b815290516000936001600160a01b03909316928492849263313ce567928281019260209291908290030181865afa158015610781573d6000803e3d6000fd5b6002546040805163313ce56760e01b815290516000926001600160a01b0316918391839163313ce5679160048083019260209291908290030181865afa158015610781573d6000803e3d6000fd5b610bf9610c6a565b6001600160a01b038116610c5e5760405162461bcd60e51b815260206004820152602660248201527f4f776e61626c653a206e6577206f776e657220697320746865207a65726f206160448201526564647265737360d01b60648201526084016105e8565b610c6781610cc4565b50565b6000546001600160a01b031633146107315760405162461bcd60e51b815260206004820181905260248201527f4f776e61626c653a2063616c6c6572206973206e6f7420746865206f776e657260448201526064016105e8565b600080546001600160a01b038381166001600160a01b0319831681178455604051919092169283917f8be0079c531659141344cd1fd0a4f28419497f9722a3daafe3b4186f6b6457e09190a35050565b80356001600160a01b03811681146105f157600080fd5b600060208284031215610d3d57600080fd5b61087382610d14565b60008060408385031215610d5957600080fd5b610d6283610d14565b946020939093013593505050565b600060208284031215610d8257600080fd5b8151801515811461087357600080fd5b600060208284031215610da457600080fd5b815160ff8116811461087357600080fd5b805169ffffffffffffffffffff811681146105f157600080fd5b600080600080600060a08688031215610de757600080fd5b610df086610db5565b9450602086015193506040860151925060608601519150610e1360808701610db5565b90509295509295909350565b634e487b7160e01b600052601160045260246000fd5b60ff828116828216039081111561058657610586610e1f565b600181815b80851115610e89578160001904821115610e6f57610e6f610e1f565b80851615610e7c57918102915b93841c9390800290610e53565b509250929050565b600082610ea057506001610586565b81610ead57506000610586565b8160018114610ec35760028114610ecd57610ee9565b6001915050610586565b60ff841115610ede57610ede610e1f565b50506001821b610586565b5060208310610133831016604e8410600b8410161715610f0c575081810a610586565b610f168383610e4e565b8060001904821115610f2a57610f2a610e1f565b029392505050565b600061087360ff841683610e91565b80820260008212600160ff1b84141615610f5d57610f5d610e1f565b818105831482151761058657610586610e1f565b600082610f8e57634e487b7160e01b600052601260045260246000fd5b600160ff1b821460001984141615610fa857610fa8610e1f565b50059056fea264697066735822122013a072649a1ab1ba6b5601119c5e8f031e4d898c1538fcb6214c8ab24c21a40b64736f6c63430008180033","linkReferences":{}},"methodIdentifiers":{"getChainlinkAzukiToUSDFeedPrice()":"923c7e49","getChainlinkCryptoToUSDFeedPrice()":"d434786d","getChainlinkPudgyToUSDFeedPrice()":"f20a33fb","getNFTCollectionPrice(address)":"5586d150","getNFTPrice(address,uint256)":"bc241793","owner()":"8da5cb5b","renounceOwnership()":"715018a6","setAzuikiFeedAddress(address)":"2cbe1451","setAzukiAddress(address)":"a059586d","setCryptoPunkAddress(address)":"31f01e6d","setCryptoPunkFeedAddress(address)":"96168915","setPudgyPenguinAddress(address)":"6762ba45","setPudgyPenguinFeedAddress(address)":"54c9f411","transferOwnership(address)":"f2fde38b"},"id":216}