{"abi":[{"type":"function","name":"activateTokenMinHoldTime","inputs":[{"name":"_actions","type":"uint8[]","internalType":"enum ActionTypes[]"},{"name":"_on","type":"bool","internalType":"bool"}],"outputs":[],"stateMutability":"nonpayable"},{"type":"function","name":"getTokenMinHoldTimePeriod","inputs":[{"name":"_action","type":"uint8","internalType":"enum ActionTypes"}],"outputs":[{"name":"","type":"uint32","internalType":"uint32"}],"stateMutability":"view"},{"type":"function","name":"isTokenMinHoldTimeActive","inputs":[{"name":"_action","type":"uint8","internalType":"enum ActionTypes"}],"outputs":[{"name":"","type":"bool","internalType":"bool"}],"stateMutability":"view"},{"type":"function","name":"setTokenMinHoldTime","inputs":[{"name":"_actions","type":"uint8[]","internalType":"enum ActionTypes[]"},{"name":"_minHoldTimeHours","type":"uint32","internalType":"uint32"}],"outputs":[],"stateMutability":"nonpayable"},{"type":"function","name":"setTokenMinHoldTimeFull","inputs":[{"name":"_actions","type":"uint8[]","internalType":"enum ActionTypes[]"},{"name":"_minHoldTimeHours","type":"uint32[]","internalType":"uint32[]"}],"outputs":[],"stateMutability":"nonpayable"},{"type":"event","name":"AD1467_AppManagerAddressProposed","inputs":[{"name":"_address","type":"address","indexed":true,"internalType":"address"}],"anonymous":false},{"type":"event","name":"AD1467_AppManagerAddressSet","inputs":[{"name":"_address","type":"address","indexed":true,"internalType":"address"}],"anonymous":false},{"type":"event","name":"AD1467_ApplicationHandlerActionActivated","inputs":[{"name":"ruleType","type":"bytes32","indexed":true,"internalType":"bytes32"},{"name":"actions","type":"uint8[]","indexed":false,"internalType":"enum ActionTypes[]"}],"anonymous":false},{"type":"event","name":"AD1467_ApplicationHandlerActionApplied","inputs":[{"name":"ruleType","type":"bytes32","indexed":true,"internalType":"bytes32"},{"name":"action","type":"uint8","indexed":true,"internalType":"enum ActionTypes"},{"name":"ruleId","type":"uint32","indexed":true,"internalType":"uint32"}],"anonymous":false},{"type":"event","name":"AD1467_ApplicationHandlerActionAppliedFull","inputs":[{"name":"ruleType","type":"bytes32","indexed":true,"internalType":"bytes32"},{"name":"actions","type":"uint8[]","indexed":false,"internalType":"enum ActionTypes[]"},{"name":"ruleIds","type":"uint32[]","indexed":false,"internalType":"uint32[]"}],"anonymous":false},{"type":"event","name":"AD1467_ApplicationHandlerActionDeactivated","inputs":[{"name":"ruleType","type":"bytes32","indexed":true,"internalType":"bytes32"},{"name":"actions","type":"uint8[]","indexed":false,"internalType":"enum ActionTypes[]"}],"anonymous":false},{"type":"event","name":"AD1467_ERC721AddressSet","inputs":[{"name":"_address","type":"address","indexed":true,"internalType":"address"}],"anonymous":false},{"type":"event","name":"AD1467_FeeActivationSet","inputs":[{"name":"_activation","type":"bool","indexed":true,"internalType":"bool"}],"anonymous":false},{"type":"event","name":"AD1467_NFTValuationLimitUpdated","inputs":[{"name":"nftValuationLimit","type":"uint256","indexed":true,"internalType":"uint256"}],"anonymous":false},{"type":"error","name":"AccountApproveDenyOraclesPerAssetLimitReached","inputs":[]},{"type":"error","name":"AppManagerNotConnected","inputs":[]},{"type":"error","name":"BatchMintBurnNotSupported","inputs":[]},{"type":"error","name":"BelowMinAdminThreshold","inputs":[]},{"type":"error","name":"CannotTurnOffAccountDenyForNoAccessLevelWhileActive","inputs":[]},{"type":"error","name":"FeesAreGreaterThanTransactionAmount","inputs":[{"name":"","type":"address","internalType":"address"}]},{"type":"error","name":"InputArraysMustHaveSameLength","inputs":[]},{"type":"error","name":"InputArraysSizesNotValid","inputs":[]},{"type":"error","name":"InvalidAction","inputs":[]},{"type":"error","name":"NotAppAdministrator","inputs":[]},{"type":"error","name":"NotAppAdministratorOrOwner","inputs":[]},{"type":"error","name":"NotRuleAdministrator","inputs":[]},{"type":"error","name":"NotSuperAdmin","inputs":[{"name":"","type":"address","internalType":"address"}]},{"type":"error","name":"PeriodExceeds5Years","inputs":[]},{"type":"error","name":"ZeroValueNotPermited","inputs":[]},{"type":"error","name":"actionCheckFailed","inputs":[]}],"bytecode":{"object":"0x608060405234801561001057600080fd5b50610c58806100206000396000f3fe608060405234801561001057600080fd5b50600436106100575760003560e01c80633eeb86181461005c57806343764c6b14610071578063d220525714610084578063dd385883146100ac578063deefc86d146100bf575b600080fd5b61006f61006a366004610953565b6100e7565b005b61006f61007f3660046109d8565b6102bf565b610097610092366004610a3b565b610453565b60405190151581526020015b60405180910390f35b61006f6100ba366004610a6e565b6104a4565b6100d26100cd366004610a3b565b6106b4565b60405163ffffffff90911681526020016100a3565b6100ef610709565b600201546001600160a01b03168061011a576040516371724ffd60e01b815260040160405180910390fd5b806001600160a01b03811663d4a7db7f336040516001600160e01b031960e084901b1681526001600160a01b039091166004820152602401602060405180830381865afa15801561016f573d6000803e3d6000fd5b505050506040513d601f19601f820116820180604052508101906101939190610ac5565b6101b057604051631acd860160e31b815260040160405180910390fd5b60008590036101d257604051633f4ab26f60e21b815260040160405180910390fd5b8483146101f15760405162514d8b60e31b815260040160405180910390fd5b6101f961073d565b60005b858110156102625761025a87878381811061021957610219610ae2565b905060200201602081019061022e9190610a3b565b86868481811061024057610240610ae2565b90506020020160208101906102559190610af8565b6107cb565b6001016101fc565b5072544f4b454e5f4d494e5f484f4c445f54494d4560681b7ffce5ba10ca670317c4ad6aaf14bfb5c4467bb4415ab89dafce1434471a227126878787876040516102af9493929190610b85565b60405180910390a2505050505050565b6102c7610709565b600201546001600160a01b0316806102f2576040516371724ffd60e01b815260040160405180910390fd5b806001600160a01b03811663d4a7db7f336040516001600160e01b031960e084901b1681526001600160a01b039091166004820152602401602060405180830381865afa158015610347573d6000803e3d6000fd5b505050506040513d601f19601f8201168201806040525081019061036b9190610ac5565b61038857604051631acd860160e31b815260040160405180910390fd5b60005b8481101561044b576103c38686838181106103a8576103a8610ae2565b90506020020160208101906103bd9190610a3b565b856107cb565b8363ffffffff168686838181106103dc576103dc610ae2565b90506020020160208101906103f19190610a3b565b600481111561040257610402610b13565b60405172544f4b454e5f4d494e5f484f4c445f54494d4560681b907f4f87ac5c7868c692420a972d0f84fa7750afbf2b8a09848fefc355020bce707b90600090a460010161038b565b505050505050565b600061045d6108d9565b600083600481111561047157610471610b13565b600481111561048257610482610b13565b8152602081019190915260400160002054640100000000900460ff1692915050565b6104ac610709565b600201546001600160a01b0316806104d7576040516371724ffd60e01b815260040160405180910390fd5b806001600160a01b03811663d4a7db7f336040516001600160e01b031960e084901b1681526001600160a01b039091166004820152602401602060405180830381865afa15801561052c573d6000803e3d6000fd5b505050506040513d601f19601f820116820180604052508101906105509190610ac5565b61056d57604051631acd860160e31b815260040160405180910390fd5b60005b8481101561060057836105816108d9565b600088888581811061059557610595610ae2565b90506020020160208101906105aa9190610a3b565b60048111156105bb576105bb610b13565b60048111156105cc576105cc610b13565b8152602081019190915260400160002080549115156401000000000264ff0000000019909216919091179055600101610570565b50821561065c5772544f4b454e5f4d494e5f484f4c445f54494d4560681b7f4dfa26a794eb61a703a2beac482f06b4372aed0b7c0d6b4490db416146d8e32e868660405161064f929190610be5565b60405180910390a26106ad565b72544f4b454e5f4d494e5f484f4c445f54494d4560681b7fe67b4c6b446d2563a2a39eb75b71127a3f908bcfcef4f7c89bd9e1b3ef39d15e86866040516106a4929190610be5565b60405180910390a25b5050505050565b60006106be6108d9565b60008360048111156106d2576106d2610b13565b60048111156106e3576106e3610b13565b815260208101919091526040016000205465010000000000900463ffffffff1692915050565b60008061073760017f1c7e9355957c344e150b07462120dcb6c99b078e258444a7cd1841042fa7f14b610c01565b92915050565b60006107476108d9565b905060005b610754610709565b60030154600160a01b900460ff1681116107c75781600082600481111561077d5761077d610b13565b600481111561078e5761078e610b13565b600481111561079f5761079f610b13565b81526020810191909152604001600020805468ffffffffffffffffff1916905560010161074c565b5050565b8063ffffffff166000036107f257604051631153c6f560e21b815260040160405180910390fd5b61ab3663ffffffff8216111561081b5760405163771d7f9360e01b815260040160405180910390fd5b60006108256108d9565b90508181600085600481111561083d5761083d610b13565b600481111561084e5761084e610b13565b815260200190815260200160002060000160056101000a81548163ffffffff021916908363ffffffff160217905550600181600001600085600481111561089757610897610b13565b60048111156108a8576108a8610b13565b8152602081019190915260400160002080549115156401000000000264ff0000000019909216919091179055505050565b60008061073760017f2880716ddaeaa9864ac87aea73eba567e0bc7cd2fbdeca4464e86ba438b75189610c01565b60008083601f84011261091957600080fd5b50813567ffffffffffffffff81111561093157600080fd5b6020830191508360208260051b850101111561094c57600080fd5b9250929050565b6000806000806040858703121561096957600080fd5b843567ffffffffffffffff8082111561098157600080fd5b61098d88838901610907565b909650945060208701359150808211156109a657600080fd5b506109b387828801610907565b95989497509550505050565b803563ffffffff811681146109d357600080fd5b919050565b6000806000604084860312156109ed57600080fd5b833567ffffffffffffffff811115610a0457600080fd5b610a1086828701610907565b9094509250610a239050602085016109bf565b90509250925092565b8035600581106109d357600080fd5b600060208284031215610a4d57600080fd5b610a5682610a2c565b9392505050565b8015158114610a6b57600080fd5b50565b600080600060408486031215610a8357600080fd5b833567ffffffffffffffff811115610a9a57600080fd5b610aa686828701610907565b9094509250506020840135610aba81610a5d565b809150509250925092565b600060208284031215610ad757600080fd5b8151610a5681610a5d565b634e487b7160e01b600052603260045260246000fd5b600060208284031215610b0a57600080fd5b610a56826109bf565b634e487b7160e01b600052602160045260246000fd5b818352600060208085019450826000805b86811015610b7957610b4b83610a2c565b60058110610b6757634e487b7160e01b83526021600452602483fd5b88529683019691830191600101610b3a565b50959695505050505050565b604081526000610b99604083018688610b29565b8281036020848101919091528482528591810160005b86811015610bd85763ffffffff610bc5856109bf565b1682529282019290820190600101610baf565b5098975050505050505050565b602081526000610bf9602083018486610b29565b949350505050565b8181038181111561073757634e487b7160e01b600052601160045260246000fdfea2646970667358221220e5ef438c7a62b3b8dba68fe78e1951c27863992b2fa95dd798f4e01c6465fdb864736f6c63430008180033","linkReferences":{}},"methodIdentifiers":{"activateTokenMinHoldTime(uint8[],bool)":"dd385883","getTokenMinHoldTimePeriod(uint8)":"deefc86d","isTokenMinHoldTimeActive(uint8)":"d2205257","setTokenMinHoldTime(uint8[],uint32)":"43764c6b","setTokenMinHoldTimeFull(uint8[],uint32[])":"3eeb8618"},"id":195}