{"abi":[{"type":"function","name":"validateAccountApproveDenyOracle","inputs":[{"name":"_ruleId","type":"uint32","internalType":"uint32"}],"outputs":[],"stateMutability":"view"},{"type":"function","name":"validateAccountMaxBuySize","inputs":[{"name":"_ruleId","type":"uint32","internalType":"uint32"}],"outputs":[],"stateMutability":"view"},{"type":"function","name":"validateAccountMaxSellSize","inputs":[{"name":"_ruleId","type":"uint32","internalType":"uint32"}],"outputs":[],"stateMutability":"view"},{"type":"function","name":"validateAccountMaxTxValueByRiskScore","inputs":[{"name":"_ruleId","type":"uint32","internalType":"uint32"}],"outputs":[],"stateMutability":"view"},{"type":"function","name":"validateAccountMaxValueByAccessLevel","inputs":[{"name":"_ruleId","type":"uint32","internalType":"uint32"}],"outputs":[],"stateMutability":"view"},{"type":"function","name":"validateAccountMaxValueByRiskScore","inputs":[{"name":"_ruleId","type":"uint32","internalType":"uint32"}],"outputs":[],"stateMutability":"view"},{"type":"function","name":"validateAccountMaxValueOutByAccessLevel","inputs":[{"name":"_ruleId","type":"uint32","internalType":"uint32"}],"outputs":[],"stateMutability":"view"},{"type":"function","name":"validateAccountMinMaxTokenBalance","inputs":[{"name":"_ruleId","type":"uint32","internalType":"uint32"}],"outputs":[],"stateMutability":"view"},{"type":"function","name":"validateAccountMinMaxTokenBalanceERC721","inputs":[{"name":"_ruleId","type":"uint32","internalType":"uint32"}],"outputs":[],"stateMutability":"view"},{"type":"function","name":"validateAdminMinTokenBalance","inputs":[{"name":"_ruleId","type":"uint32","internalType":"uint32"}],"outputs":[],"stateMutability":"view"},{"type":"function","name":"validatePause","inputs":[{"name":"_ruleId","type":"uint32","internalType":"uint32"},{"name":"_dataServer","type":"address","internalType":"address"}],"outputs":[],"stateMutability":"view"},{"type":"function","name":"validateTokenMaxBuyVolume","inputs":[{"name":"_ruleId","type":"uint32","internalType":"uint32"}],"outputs":[],"stateMutability":"view"},{"type":"function","name":"validateTokenMaxDailyTrades","inputs":[{"name":"_ruleId","type":"uint32","internalType":"uint32"}],"outputs":[],"stateMutability":"view"},{"type":"function","name":"validateTokenMaxSellVolume","inputs":[{"name":"_ruleId","type":"uint32","internalType":"uint32"}],"outputs":[],"stateMutability":"view"},{"type":"function","name":"validateTokenMaxSupplyVolatility","inputs":[{"name":"_ruleId","type":"uint32","internalType":"uint32"}],"outputs":[],"stateMutability":"view"},{"type":"function","name":"validateTokenMaxTradingVolume","inputs":[{"name":"_ruleId","type":"uint32","internalType":"uint32"}],"outputs":[],"stateMutability":"view"},{"type":"function","name":"validateTokenMinTxSize","inputs":[{"name":"_ruleId","type":"uint32","internalType":"uint32"}],"outputs":[],"stateMutability":"view"},{"type":"error","name":"RuleDoesNotExist","inputs":[]}],"bytecode":{"object":"0x608060405234801561001057600080fd5b50610969806100206000396000f3fe608060405234801561001057600080fd5b506004361061010b5760003560e01c8063866fafc7116100a2578063c34593a311610071578063c34593a3146101e3578063c4b61b98146101f6578063edc3189d14610209578063f314bcb91461021c578063f7ff83591461022f57600080fd5b8063866fafc7146101aa578063979cc76b146101bd578063a174d76e146101d0578063ad1be6161461011057600080fd5b8063319f427b116100de578063319f427b1461015e57806350436ce51461017157806363009ce2146101845780636d40f01b1461019757600080fd5b80630647293a146101105780630b71799c146101255780630dc1083214610138578063251d88ed1461014b575b600080fd5b61012361011e366004610749565b610242565b005b610123610133366004610749565b610260565b610123610146366004610749565b61026b565b610123610159366004610749565b610276565b61012361016c36600461076b565b610281565b61012361017f366004610749565b61030a565b610123610192366004610749565b610315565b6101236101a5366004610749565b610320565b6101236101b8366004610749565b61032b565b6101236101cb366004610749565b610336565b6101236101de366004610749565b610341565b6101236101f1366004610749565b61034c565b610123610204366004610749565b610357565b610123610217366004610749565b610362565b61012361022a366004610749565b61036d565b61012361023d366004610749565b610378565b61025d61024d610383565b63ffffffff808416919061039e16565b50565b61025d61024d6103ce565b61025d61024d6103d9565b61025d61024d6103f4565b6000816001600160a01b031663d4f938706040518163ffffffff1660e01b8152600401600060405180830381865afa1580156102c1573d6000803e3d6000fd5b505050506040513d6000823e601f3d908101601f191682016040526102e99190810190610836565b905061030581518463ffffffff1661039e90919063ffffffff16565b505050565b61025d61024d6103ff565b61025d61024d61040a565b61025d61024d610415565b61025d61024d610420565b61025d61024d61042b565b61025d61024d610436565b61025d61024d610441565b61025d61024d61044c565b61025d61024d610457565b61025d61024d610462565b61025d61024d61046d565b60008061038e610478565b6002015463ffffffff1692915050565b8163ffffffff168163ffffffff16116103ca576040516325ef9da360e11b815260040160405180910390fd5b5050565b60008061038e6104ac565b6000806103e46104da565b6001015463ffffffff1692915050565b6000806103e4610508565b6000806103e4610536565b6000806103e4610564565b6000806103e4610592565b60008061038e6105c0565b6000806103e46105ee565b6000806103e461061c565b6000806103e461064a565b6000806103e4610678565b6000806103e46106a6565b6000806103e46106d4565b6000806103e4610702565b6000806104a660017f57f022a955ea4a82d6829b2369e82ccc92e1e803cd0f0f5669038f7b6e994fc6610912565b92915050565b6000806104a660017f1162e821763e1a90b75e60ad1e076d131a2344e0b7a0b39fe6e1691100701615610912565b6000806104a660017f4ad28c94cb815a5bc8c4c7a6826bafcf87389a6ca864ba468204d2b980cfcd5f610912565b6000806104a660017f393520d3a7ae2d5ebb865efe7c253600ffe7f63536515bbd509b4936416fc46c610912565b6000806104a660017f25a585c2e8f7fa7b14633f4226915cea53b2c82875c542bdc3e0d9112ee62c08610912565b6000806104a660017fcd576fc088c5eb040f665f257428613253482a372b228b4e0451df92d88b2b2d610912565b6000806104a660017f7ec0480b9860da71df40eeba9d55d11a6e64e9befe36fdfcdb7f8f7bb7dae19c610912565b6000806104a660017fb55fad9ae18bf1512bc017f51e2b8984d659cd3a8848cbaa71ef7c0999db6bd0610912565b6000806104a660017fe933e4fa004729344ad93dde4bd94d0b881b307b0cca199749c0ad3af2429199610912565b6000806104a660017f5f3e73a83d0712e1b13444a98d0279e8921ea9760d8491b3bab0cf95044a4a4f610912565b6000806104a660017fdc15be84837e6adc6cb93c079465be8e43c2ac54b75e2a73d79900c1c9f9c9c5610912565b6000806104a660017f4815e3fa667405e725c432fd6db2286588ecce84f997ea5bdb96e5e764a28d48610912565b6000806104a660017f83267efb4f531fecf2aed040d8a6b66e44808d12f27a568b82ac7d35297d9fad610912565b6000806104a660017f5387434b2d3be7a91940ea8e6fee24226ef10692fcf63e7e5c04ec47fd7f9d79610912565b6000806104a660017f36a6b5e1dcad62c6cb5da92222f5f227370563aad6447813d73230d0fad88f74610912565b803563ffffffff8116811461074457600080fd5b919050565b60006020828403121561075b57600080fd5b61076482610730565b9392505050565b6000806040838503121561077e57600080fd5b61078783610730565b915060208301356001600160a01b03811681146107a357600080fd5b809150509250929050565b634e487b7160e01b600052604160045260246000fd5b6040805190810167ffffffffffffffff811182821017156107e7576107e76107ae565b60405290565b604051601f8201601f1916810167ffffffffffffffff81118282101715610816576108166107ae565b604052919050565b805167ffffffffffffffff8116811461074457600080fd5b6000602080838503121561084957600080fd5b825167ffffffffffffffff8082111561086157600080fd5b818501915085601f83011261087557600080fd5b815181811115610887576108876107ae565b610895848260051b016107ed565b818152848101925060069190911b8301840190878211156108b557600080fd5b928401925b8184101561090757604084890312156108d35760008081fd5b6108db6107c4565b6108e48561081e565b81526108f186860161081e565b81870152835260409390930192918401916108ba565b979650505050505050565b818103818111156104a657634e487b7160e01b600052601160045260246000fdfea26469706673582212200951ae7759b093ef5a42b55dfec3b293266b5acdc2561aab9cd5502ecaeca24b64736f6c63430008180033","linkReferences":{}},"methodIdentifiers":{"validateAccountApproveDenyOracle(uint32)":"251d88ed","validateAccountMaxBuySize(uint32)":"866fafc7","validateAccountMaxSellSize(uint32)":"0b71799c","validateAccountMaxTxValueByRiskScore(uint32)":"edc3189d","validateAccountMaxValueByAccessLevel(uint32)":"c4b61b98","validateAccountMaxValueByRiskScore(uint32)":"0dc10832","validateAccountMaxValueOutByAccessLevel(uint32)":"63009ce2","validateAccountMinMaxTokenBalance(uint32)":"0647293a","validateAccountMinMaxTokenBalanceERC721(uint32)":"ad1be616","validateAdminMinTokenBalance(uint32)":"f314bcb9","validatePause(uint32,address)":"319f427b","validateTokenMaxBuyVolume(uint32)":"50436ce5","validateTokenMaxDailyTrades(uint32)":"a174d76e","validateTokenMaxSellVolume(uint32)":"f7ff8359","validateTokenMaxSupplyVolatility(uint32)":"979cc76b","validateTokenMaxTradingVolume(uint32)":"6d40f01b","validateTokenMinTxSize(uint32)":"c34593a3"},"id":236}