{"abi":[{"type":"function","name":"activateAccountApproveDenyOracle","inputs":[{"name":"_actions","type":"uint8[]","internalType":"enum ActionTypes[]"},{"name":"_on","type":"bool","internalType":"bool"},{"name":"ruleId","type":"uint32","internalType":"uint32"}],"outputs":[],"stateMutability":"nonpayable"},{"type":"function","name":"activateMinTransactionSizeRule","inputs":[{"name":"_actions","type":"uint8[]","internalType":"enum ActionTypes[]"},{"name":"_on","type":"bool","internalType":"bool"}],"outputs":[],"stateMutability":"nonpayable"},{"type":"function","name":"activateTokenMaxDailyTrades","inputs":[{"name":"_actions","type":"uint8[]","internalType":"enum ActionTypes[]"},{"name":"_on","type":"bool","internalType":"bool"}],"outputs":[],"stateMutability":"nonpayable"},{"type":"function","name":"activateTokenMaxSupplyVolatility","inputs":[{"name":"_actions","type":"uint8[]","internalType":"enum ActionTypes[]"},{"name":"_on","type":"bool","internalType":"bool"}],"outputs":[],"stateMutability":"nonpayable"},{"type":"function","name":"activateTokenMaxTradingVolume","inputs":[{"name":"_actions","type":"uint8[]","internalType":"enum ActionTypes[]"},{"name":"_on","type":"bool","internalType":"bool"}],"outputs":[],"stateMutability":"nonpayable"},{"type":"function","name":"activateTokenMinHoldTime","inputs":[{"name":"_actions","type":"uint8[]","internalType":"enum ActionTypes[]"},{"name":"_on","type":"bool","internalType":"bool"}],"outputs":[],"stateMutability":"nonpayable"},{"type":"function","name":"checkNonTaggedRules","inputs":[{"name":"action","type":"uint8","internalType":"enum ActionTypes"},{"name":"_from","type":"address","internalType":"address"},{"name":"_to","type":"address","internalType":"address"},{"name":"_amount","type":"uint256","internalType":"uint256"},{"name":"_tokenId","type":"uint256","internalType":"uint256"}],"outputs":[],"stateMutability":"nonpayable"},{"type":"function","name":"getAccountApproveDenyOracleIds","inputs":[{"name":"_action","type":"uint8","internalType":"enum ActionTypes"}],"outputs":[{"name":"","type":"uint32[]","internalType":"uint32[]"}],"stateMutability":"view"},{"type":"function","name":"getTokenMaxDailyTradesId","inputs":[{"name":"_action","type":"uint8","internalType":"enum ActionTypes"}],"outputs":[{"name":"","type":"uint32","internalType":"uint32"}],"stateMutability":"view"},{"type":"function","name":"getTokenMaxSupplyVolatilityId","inputs":[{"name":"_action","type":"uint8","internalType":"enum ActionTypes"}],"outputs":[{"name":"","type":"uint32","internalType":"uint32"}],"stateMutability":"view"},{"type":"function","name":"getTokenMaxTradingVolumeId","inputs":[{"name":"_action","type":"uint8","internalType":"enum ActionTypes"}],"outputs":[{"name":"","type":"uint32","internalType":"uint32"}],"stateMutability":"view"},{"type":"function","name":"getTokenMinHoldTimePeriod","inputs":[{"name":"_action","type":"uint8","internalType":"enum ActionTypes"}],"outputs":[{"name":"","type":"uint32","internalType":"uint32"}],"stateMutability":"view"},{"type":"function","name":"getTokenMinTxSizeId","inputs":[{"name":"_action","type":"uint8","internalType":"enum ActionTypes"}],"outputs":[{"name":"","type":"uint32","internalType":"uint32"}],"stateMutability":"view"},{"type":"function","name":"isAccountApproveDenyOracleActive","inputs":[{"name":"_action","type":"uint8","internalType":"enum ActionTypes"},{"name":"ruleId","type":"uint32","internalType":"uint32"}],"outputs":[{"name":"","type":"bool","internalType":"bool"}],"stateMutability":"view"},{"type":"function","name":"isTokenMaxDailyTradesActive","inputs":[{"name":"_action","type":"uint8","internalType":"enum ActionTypes"}],"outputs":[{"name":"","type":"bool","internalType":"bool"}],"stateMutability":"view"},{"type":"function","name":"isTokenMaxSupplyVolatilityActive","inputs":[{"name":"_action","type":"uint8","internalType":"enum ActionTypes"}],"outputs":[{"name":"","type":"bool","internalType":"bool"}],"stateMutability":"view"},{"type":"function","name":"isTokenMaxTradingVolumeActive","inputs":[{"name":"_action","type":"uint8","internalType":"enum ActionTypes"}],"outputs":[{"name":"","type":"bool","internalType":"bool"}],"stateMutability":"view"},{"type":"function","name":"isTokenMinHoldTimeActive","inputs":[{"name":"_action","type":"uint8","internalType":"enum ActionTypes"}],"outputs":[{"name":"","type":"bool","internalType":"bool"}],"stateMutability":"view"},{"type":"function","name":"isTokenMinTxSizeActive","inputs":[{"name":"_action","type":"uint8","internalType":"enum ActionTypes"}],"outputs":[{"name":"","type":"bool","internalType":"bool"}],"stateMutability":"view"},{"type":"function","name":"removeAccountApproveDenyOracle","inputs":[{"name":"_actions","type":"uint8[]","internalType":"enum ActionTypes[]"},{"name":"ruleId","type":"uint32","internalType":"uint32"}],"outputs":[],"stateMutability":"nonpayable"},{"type":"function","name":"setAccountApproveDenyOracleId","inputs":[{"name":"_actions","type":"uint8[]","internalType":"enum ActionTypes[]"},{"name":"_ruleId","type":"uint32","internalType":"uint32"}],"outputs":[],"stateMutability":"nonpayable"},{"type":"function","name":"setAccountApproveDenyOracleIdFull","inputs":[{"name":"_actions","type":"uint8[]","internalType":"enum ActionTypes[]"},{"name":"_ruleIds","type":"uint32[]","internalType":"uint32[]"}],"outputs":[],"stateMutability":"nonpayable"},{"type":"function","name":"setTokenMaxDailyTradesId","inputs":[{"name":"_actions","type":"uint8[]","internalType":"enum ActionTypes[]"},{"name":"_ruleId","type":"uint32","internalType":"uint32"}],"outputs":[],"stateMutability":"nonpayable"},{"type":"function","name":"setTokenMaxDailyTradesIdFull","inputs":[{"name":"_actions","type":"uint8[]","internalType":"enum ActionTypes[]"},{"name":"_ruleIds","type":"uint32[]","internalType":"uint32[]"}],"outputs":[],"stateMutability":"nonpayable"},{"type":"function","name":"setTokenMaxSupplyVolatilityId","inputs":[{"name":"_actions","type":"uint8[]","internalType":"enum ActionTypes[]"},{"name":"_ruleId","type":"uint32","internalType":"uint32"}],"outputs":[],"stateMutability":"nonpayable"},{"type":"function","name":"setTokenMaxSupplyVolatilityIdFull","inputs":[{"name":"_actions","type":"uint8[]","internalType":"enum ActionTypes[]"},{"name":"_ruleIds","type":"uint32[]","internalType":"uint32[]"}],"outputs":[],"stateMutability":"nonpayable"},{"type":"function","name":"setTokenMaxTradingVolumeId","inputs":[{"name":"_actions","type":"uint8[]","internalType":"enum ActionTypes[]"},{"name":"_ruleId","type":"uint32","internalType":"uint32"}],"outputs":[],"stateMutability":"nonpayable"},{"type":"function","name":"setTokenMaxTradingVolumeIdFull","inputs":[{"name":"_actions","type":"uint8[]","internalType":"enum ActionTypes[]"},{"name":"_ruleIds","type":"uint32[]","internalType":"uint32[]"}],"outputs":[],"stateMutability":"nonpayable"},{"type":"function","name":"setTokenMinHoldTime","inputs":[{"name":"_actions","type":"uint8[]","internalType":"enum ActionTypes[]"},{"name":"_minHoldTimeHours","type":"uint32","internalType":"uint32"}],"outputs":[],"stateMutability":"nonpayable"},{"type":"function","name":"setTokenMinHoldTimeFull","inputs":[{"name":"_actions","type":"uint8[]","internalType":"enum ActionTypes[]"},{"name":"_minHoldTimeHours","type":"uint32[]","internalType":"uint32[]"}],"outputs":[],"stateMutability":"nonpayable"},{"type":"function","name":"setTokenMinTxSizeId","inputs":[{"name":"_actions","type":"uint8[]","internalType":"enum ActionTypes[]"},{"name":"_ruleId","type":"uint32","internalType":"uint32"}],"outputs":[],"stateMutability":"nonpayable"},{"type":"function","name":"setTokenMinTxSizeIdFull","inputs":[{"name":"_actions","type":"uint8[]","internalType":"enum ActionTypes[]"},{"name":"_ruleIds","type":"uint32[]","internalType":"uint32[]"}],"outputs":[],"stateMutability":"nonpayable"},{"type":"event","name":"AD1467_AppManagerAddressProposed","inputs":[{"name":"_address","type":"address","indexed":true,"internalType":"address"}],"anonymous":false},{"type":"event","name":"AD1467_AppManagerAddressSet","inputs":[{"name":"_address","type":"address","indexed":true,"internalType":"address"}],"anonymous":false},{"type":"event","name":"AD1467_ApplicationHandlerActionActivated","inputs":[{"name":"ruleType","type":"bytes32","indexed":true,"internalType":"bytes32"},{"name":"actions","type":"uint8[]","indexed":false,"internalType":"enum ActionTypes[]"}],"anonymous":false},{"type":"event","name":"AD1467_ApplicationHandlerActionApplied","inputs":[{"name":"ruleType","type":"bytes32","indexed":true,"internalType":"bytes32"},{"name":"action","type":"uint8","indexed":true,"internalType":"enum ActionTypes"},{"name":"ruleId","type":"uint32","indexed":true,"internalType":"uint32"}],"anonymous":false},{"type":"event","name":"AD1467_ApplicationHandlerActionAppliedFull","inputs":[{"name":"ruleType","type":"bytes32","indexed":true,"internalType":"bytes32"},{"name":"actions","type":"uint8[]","indexed":false,"internalType":"enum ActionTypes[]"},{"name":"ruleIds","type":"uint32[]","indexed":false,"internalType":"uint32[]"}],"anonymous":false},{"type":"event","name":"AD1467_ApplicationHandlerActionDeactivated","inputs":[{"name":"ruleType","type":"bytes32","indexed":true,"internalType":"bytes32"},{"name":"actions","type":"uint8[]","indexed":false,"internalType":"enum ActionTypes[]"}],"anonymous":false},{"type":"event","name":"AD1467_ERC721AddressSet","inputs":[{"name":"_address","type":"address","indexed":true,"internalType":"address"}],"anonymous":false},{"type":"event","name":"AD1467_FeeActivationSet","inputs":[{"name":"_activation","type":"bool","indexed":true,"internalType":"bool"}],"anonymous":false},{"type":"event","name":"AD1467_NFTValuationLimitUpdated","inputs":[{"name":"nftValuationLimit","type":"uint256","indexed":true,"internalType":"uint256"}],"anonymous":false},{"type":"error","name":"AccountApproveDenyOraclesPerAssetLimitReached","inputs":[]},{"type":"error","name":"AppManagerNotConnected","inputs":[]},{"type":"error","name":"BatchMintBurnNotSupported","inputs":[]},{"type":"error","name":"BelowMinAdminThreshold","inputs":[]},{"type":"error","name":"CannotTurnOffAccountDenyForNoAccessLevelWhileActive","inputs":[]},{"type":"error","name":"FeesAreGreaterThanTransactionAmount","inputs":[{"name":"","type":"address","internalType":"address"}]},{"type":"error","name":"InputArraysMustHaveSameLength","inputs":[]},{"type":"error","name":"InputArraysSizesNotValid","inputs":[]},{"type":"error","name":"InvalidAction","inputs":[]},{"type":"error","name":"NotAppAdministrator","inputs":[]},{"type":"error","name":"NotAppAdministratorOrOwner","inputs":[]},{"type":"error","name":"NotRuleAdministrator","inputs":[]},{"type":"error","name":"NotSuperAdmin","inputs":[{"name":"","type":"address","internalType":"address"}]},{"type":"error","name":"PeriodExceeds5Years","inputs":[]},{"type":"error","name":"ZeroValueNotPermited","inputs":[]},{"type":"error","name":"actionCheckFailed","inputs":[]}],"bytecode":{"object":"0x608060405234801561001057600080fd5b506147e8806100206000396000f3fe608060405234801561001057600080fd5b50600436106101f05760003560e01c806352b06d981161010f5780639466093a116100a2578063dd38588311610071578063dd38588314610442578063deefc86d14610455578063e818960614610468578063f2af6b031461047b57600080fd5b80639466093a146103f6578063a7d7081914610409578063bdfd67b31461041c578063d22052571461042f57600080fd5b806368ecb274116100de57806368ecb274146103aa57806369009931146103bd57806374a258a9146103d05780637bea213d146103e357600080fd5b806352b06d981461035e578063569d92fc146103715780635d5b76e5146103845780636189b3e51461039757600080fd5b80633da609701161018757806341bd803c1161015657806341bd803c1461031257806343764c6b146103255780634af6721814610338578063526b011b1461034b57600080fd5b80633da60970146102b95780633e800f1e146102cc5780633eeb8618146102ec57806340cecd55146102ff57600080fd5b806322de984a116101c357806322de984a1461026d5780632720970f1461028057806338ab03a21461029357806339a86e8f146102a657600080fd5b8063042be595146101f557806306638f5e1461021d5780631dfab36914610245578063228e6a751461025a575b600080fd5b610208610203366004614067565b61048e565b60405190151581526020015b60405180910390f35b61023061022b366004614067565b6104de565b60405163ffffffff9091168152602001610214565b6102586102533660046140e1565b61052a565b005b610230610268366004614067565b61070e565b61025861027b366004614142565b610718565b61020861028e3660046141a7565b610a0c565b6102586102a13660046141da565b610b37565b6102586102b4366004614245565b610ceb565b6102586102c73660046141da565b610ead565b6102df6102da366004614067565b611068565b604051610214919061429b565b6102586102fa3660046141da565b6111c5565b61020861030d366004614067565b61137b565b6102586103203660046141da565b611385565b6102586103333660046140e1565b611533565b610230610346366004614067565b6116ad565b6102586103593660046140e1565b6116b7565b61020861036c366004614067565b611899565b61025861037f3660046141da565b6118a3565b6102586103923660046140e1565b611a51565b6102586103a5366004614245565b611c3a565b6102586103b8366004614245565b611e2e565b6102586103cb3660046140e1565b611ff7565b6102586103de366004614245565b612430565b6102586103f13660046140e1565b612603565b6102586104043660046142fc565b6127df565b610208610417366004614067565b612e76565b61025861042a3660046140e1565b612e80565b61020861043d366004614067565b613067565b610258610450366004614245565b613071565b610230610463366004614067565b61323e565b6102586104763660046141da565b613293565b610230610489366004614067565b61344c565b6000610498613456565b60008360048111156104ac576104ac614351565b60048111156104bd576104bd614351565b8152602081019190915260400160002054600160201b900460ff1692915050565b60006104e8613456565b60008360048111156104fc576104fc614351565b600481111561050d5761050d614351565b815260208101919091526040016000205463ffffffff1692915050565b610532613484565b600201546001600160a01b03168061055d576040516371724ffd60e01b815260040160405180910390fd5b806001600160a01b03811663d4a7db7f336040516001600160e01b031960e084901b1681526001600160a01b039091166004820152602401602060405180830381865afa1580156105b2573d6000803e3d6000fd5b505050506040513d601f19601f820116820180604052508101906105d69190614367565b6105f357604051631acd860160e31b815260040160405180910390fd5b6105fb613484565b6001015460405163251d88ed60e01b815263ffffffff851660048201526001600160a01b039091169063251d88ed9060240160006040518083038186803b15801561064557600080fd5b505afa158015610659573d6000803e3d6000fd5b5050505060005b848110156107065761069886868381811061067d5761067d614384565b90506020020160208101906106929190614067565b856134b2565b8363ffffffff168686838181106106b1576106b1614384565b90506020020160208101906106c69190614067565b60048111156106d7576106d7614351565b6040516000805160206147538339815191529060008051602061477383398151915290600090a4600101610660565b505050505050565b60006104e86136b0565b610720613484565b600201546001600160a01b03168061074b576040516371724ffd60e01b815260040160405180910390fd5b806001600160a01b03811663d4a7db7f336040516001600160e01b031960e084901b1681526001600160a01b039091166004820152602401602060405180830381865afa1580156107a0573d6000803e3d6000fd5b505050506040513d601f19601f820116820180604052508101906107c49190614367565b6107e157604051631acd860160e31b815260040160405180910390fd5b60005b8581101561098c5760006107f66136de565b905060005b8160008a8a8681811061081057610810614384565b90506020020160208101906108259190614067565b600481111561083657610836614351565b600481111561084757610847614351565b8152602081019190915260400160002054811015610982578563ffffffff168260008b8b8781811061087b5761087b614384565b90506020020160208101906108909190614067565b60048111156108a1576108a1614351565b60048111156108b2576108b2614351565b815260200190815260200160002082815481106108d1576108d1614384565b60009182526020909120015463ffffffff160361097a57868260008b8b878181106108fe576108fe614384565b90506020020160208101906109139190614067565b600481111561092457610924614351565b600481111561093557610935614351565b8152602001908152602001600020828154811061095457610954614384565b60009182526020909120018054911515600160201b0260ff60201b199092169190911790555b6001016107fb565b50506001016107e4565b5083156109ce5760008051602061475383398151915260008051602061473383398151915287876040516109c19291906143f6565b60405180910390a2610706565b60008051602061475383398151915260008051602061471383398151915287876040516109fc9291906143f6565b60405180910390a2505050505050565b600080610a176136de565b905060005b816000866004811115610a3157610a31614351565b6004811115610a4257610a42614351565b8152602081019190915260400160002054811015610b2a578363ffffffff16826000876004811115610a7657610a76614351565b6004811115610a8757610a87614351565b81526020019081526020016000208281548110610aa657610aa6614384565b60009182526020909120015463ffffffff1603610b2257816000866004811115610ad257610ad2614351565b6004811115610ae357610ae3614351565b81526020019081526020016000208181548110610b0257610b02614384565b600091825260209091200154600160201b900460ff169250610b31915050565b600101610a1c565b5060009150505b92915050565b610b3f613484565b600201546001600160a01b031680610b6a576040516371724ffd60e01b815260040160405180910390fd5b806001600160a01b03811663d4a7db7f336040516001600160e01b031960e084901b1681526001600160a01b039091166004820152602401602060405180830381865afa158015610bbf573d6000803e3d6000fd5b505050506040513d601f19601f82011682018060405250810190610be39190614367565b610c0057604051631acd860160e31b815260040160405180910390fd5b6000859003610c2257604051633f4ab26f60e21b815260040160405180910390fd5b848314610c415760405162514d8b60e31b815260040160405180910390fd5b610c4961370c565b60005b85811015610cb257610caa878783818110610c6957610c69614384565b9050602002016020810190610c7e9190614067565b868684818110610c9057610c90614384565b9050602002016020810190610ca59190614412565b613796565b600101610c4c565b5070544f4b454e5f4d494e5f54585f53495a4560781b600080516020614793833981519152878787876040516109fc949392919061442d565b610cf3613484565b600201546001600160a01b031680610d1e576040516371724ffd60e01b815260040160405180910390fd5b806001600160a01b03811663d4a7db7f336040516001600160e01b031960e084901b1681526001600160a01b039091166004820152602401602060405180830381865afa158015610d73573d6000803e3d6000fd5b505050506040513d601f19601f82011682018060405250810190610d979190614367565b610db457604051631acd860160e31b815260040160405180910390fd5b6000610dbe613456565b905060005b85811015610e4a5784826000898985818110610de157610de1614384565b9050602002016020810190610df69190614067565b6004811115610e0757610e07614351565b6004811115610e1857610e18614351565b815260208101919091526040016000208054911515600160201b0260ff60201b19909216919091179055600101610dc3565b508315610e7f576000805160206146f383398151915260008051602061473383398151915287876040516109c19291906143f6565b6000805160206146f383398151915260008051602061471383398151915287876040516109fc9291906143f6565b610eb5613484565b600201546001600160a01b031680610ee0576040516371724ffd60e01b815260040160405180910390fd5b806001600160a01b03811663d4a7db7f336040516001600160e01b031960e084901b1681526001600160a01b039091166004820152602401602060405180830381865afa158015610f35573d6000803e3d6000fd5b505050506040513d601f19601f82011682018060405250810190610f599190614367565b610f7657604051631acd860160e31b815260040160405180910390fd5b6000859003610f9857604051633f4ab26f60e21b815260040160405180910390fd5b848314610fb75760405162514d8b60e31b815260040160405180910390fd5b610fbf6138bc565b60005b8581101561102857611020878783818110610fdf57610fdf614384565b9050602002016020810190610ff49190614067565b86868481811061100657611006614384565b905060200201602081019061101b9190614412565b613942565b600101610fc2565b5077544f4b454e5f4d41585f54524144494e475f564f4c554d4560401b600080516020614793833981519152878787876040516109fc949392919061442d565b606060006110746136de565b90506000818185600481111561108c5761108c614351565b600481111561109d5761109d614351565b81526020810191909152604001600020546001600160401b038111156110c5576110c561448d565b6040519080825280602002602001820160405280156110ee578160200160208202803683370190505b50905060005b82600086600481111561110957611109614351565b600481111561111a5761111a614351565b81526020810191909152604001600020548110156111bd5782600086600481111561114757611147614351565b600481111561115857611158614351565b8152602001908152602001600020818154811061117757611177614384565b600091825260209091200154825163ffffffff909116908390839081106111a0576111a0614384565b63ffffffff909216602092830291909101909101526001016110f4565b509392505050565b6111cd613484565b600201546001600160a01b0316806111f8576040516371724ffd60e01b815260040160405180910390fd5b806001600160a01b03811663d4a7db7f336040516001600160e01b031960e084901b1681526001600160a01b039091166004820152602401602060405180830381865afa15801561124d573d6000803e3d6000fd5b505050506040513d601f19601f820116820180604052508101906112719190614367565b61128e57604051631acd860160e31b815260040160405180910390fd5b60008590036112b057604051633f4ab26f60e21b815260040160405180910390fd5b8483146112cf5760405162514d8b60e31b815260040160405180910390fd5b6112d76139b6565b60005b85811015611340576113388787838181106112f7576112f7614384565b905060200201602081019061130c9190614067565b86868481811061131e5761131e614384565b90506020020160208101906113339190614412565b613a40565b6001016112da565b5072544f4b454e5f4d494e5f484f4c445f54494d4560681b600080516020614793833981519152878787876040516109fc949392919061442d565b60006104986136b0565b61138d613484565b600201546001600160a01b0316806113b8576040516371724ffd60e01b815260040160405180910390fd5b806001600160a01b03811663d4a7db7f336040516001600160e01b031960e084901b1681526001600160a01b039091166004820152602401602060405180830381865afa15801561140d573d6000803e3d6000fd5b505050506040513d601f19601f820116820180604052508101906114319190614367565b61144e57604051631acd860160e31b815260040160405180910390fd5b600085900361147057604051633f4ab26f60e21b815260040160405180910390fd5b84831461148f5760405162514d8b60e31b815260040160405180910390fd5b611497613b0c565b60005b85811015611500576114f88787838181106114b7576114b7614384565b90506020020160208101906114cc9190614067565b8686848181106114de576114de614384565b90506020020160208101906114f39190614412565b6134b2565b60010161149a565b50600080516020614753833981519152600080516020614793833981519152878787876040516109fc949392919061442d565b61153b613484565b600201546001600160a01b031680611566576040516371724ffd60e01b815260040160405180910390fd5b806001600160a01b03811663d4a7db7f336040516001600160e01b031960e084901b1681526001600160a01b039091166004820152602401602060405180830381865afa1580156115bb573d6000803e3d6000fd5b505050506040513d601f19601f820116820180604052508101906115df9190614367565b6115fc57604051631acd860160e31b815260040160405180910390fd5b60005b848110156107065761163786868381811061161c5761161c614384565b90506020020160208101906116319190614067565b85613a40565b8363ffffffff1686868381811061165057611650614384565b90506020020160208101906116659190614067565b600481111561167657611676614351565b60405172544f4b454e5f4d494e5f484f4c445f54494d4560681b9060008051602061477383398151915290600090a46001016115ff565b60006104e8613b90565b6116bf613484565b600201546001600160a01b0316806116ea576040516371724ffd60e01b815260040160405180910390fd5b806001600160a01b03811663d4a7db7f336040516001600160e01b031960e084901b1681526001600160a01b039091166004820152602401602060405180830381865afa15801561173f573d6000803e3d6000fd5b505050506040513d601f19601f820116820180604052508101906117639190614367565b61178057604051631acd860160e31b815260040160405180910390fd5b611788613484565b6001015460405163c34593a360e01b815263ffffffff851660048201526001600160a01b039091169063c34593a39060240160006040518083038186803b1580156117d257600080fd5b505afa1580156117e6573d6000803e3d6000fd5b5050505060005b848110156107065761182586868381811061180a5761180a614384565b905060200201602081019061181f9190614067565b85613796565b8363ffffffff1686868381811061183e5761183e614384565b90506020020160208101906118539190614067565b600481111561186457611864614351565b60405170544f4b454e5f4d494e5f54585f53495a4560781b9060008051602061477383398151915290600090a46001016117ed565b6000610498613b90565b6118ab613484565b600201546001600160a01b0316806118d6576040516371724ffd60e01b815260040160405180910390fd5b806001600160a01b03811663d4a7db7f336040516001600160e01b031960e084901b1681526001600160a01b039091166004820152602401602060405180830381865afa15801561192b573d6000803e3d6000fd5b505050506040513d601f19601f8201168201806040525081019061194f9190614367565b61196c57604051631acd860160e31b815260040160405180910390fd5b600085900361198e57604051633f4ab26f60e21b815260040160405180910390fd5b8483146119ad5760405162514d8b60e31b815260040160405180910390fd5b6119b5613bbe565b60005b85811015611a1e57611a168787838181106119d5576119d5614384565b90506020020160208101906119ea9190614067565b8686848181106119fc576119fc614384565b9050602002016020810190611a119190614412565b613c44565b6001016119b8565b506000805160206146f3833981519152600080516020614793833981519152878787876040516109fc949392919061442d565b611a59613484565b600201546001600160a01b031680611a84576040516371724ffd60e01b815260040160405180910390fd5b806001600160a01b03811663d4a7db7f336040516001600160e01b031960e084901b1681526001600160a01b039091166004820152602401602060405180830381865afa158015611ad9573d6000803e3d6000fd5b505050506040513d601f19601f82011682018060405250810190611afd9190614367565b611b1a57604051631acd860160e31b815260040160405180910390fd5b611b22613484565b60010154604051636d40f01b60e01b815263ffffffff851660048201526001600160a01b0390911690636d40f01b9060240160006040518083038186803b158015611b6c57600080fd5b505afa158015611b80573d6000803e3d6000fd5b5050505060005b8481101561070657611bbf868683818110611ba457611ba4614384565b9050602002016020810190611bb99190614067565b85613942565b8363ffffffff16868683818110611bd857611bd8614384565b9050602002016020810190611bed9190614067565b6004811115611bfe57611bfe614351565b60405177544f4b454e5f4d41585f54524144494e475f564f4c554d4560401b9060008051602061477383398151915290600090a4600101611b87565b611c42613484565b600201546001600160a01b031680611c6d576040516371724ffd60e01b815260040160405180910390fd5b806001600160a01b03811663d4a7db7f336040516001600160e01b031960e084901b1681526001600160a01b039091166004820152602401602060405180830381865afa158015611cc2573d6000803e3d6000fd5b505050506040513d601f19601f82011682018060405250810190611ce69190614367565b611d0357604051631acd860160e31b815260040160405180910390fd5b60005b84811015611d945783611d17613cb8565b6000888885818110611d2b57611d2b614384565b9050602002016020810190611d409190614067565b6004811115611d5157611d51614351565b6004811115611d6257611d62614351565b815260208101919091526040016000208054911515600160201b0260ff60201b19909216919091179055600101611d06565b508215611de35777544f4b454e5f4d41585f54524144494e475f564f4c554d4560401b6000805160206147338339815191528686604051611dd69291906143f6565b60405180910390a2611e27565b77544f4b454e5f4d41585f54524144494e475f564f4c554d4560401b6000805160206147138339815191528686604051611e1e9291906143f6565b60405180910390a25b5050505050565b611e36613484565b600201546001600160a01b031680611e61576040516371724ffd60e01b815260040160405180910390fd5b806001600160a01b03811663d4a7db7f336040516001600160e01b031960e084901b1681526001600160a01b039091166004820152602401602060405180830381865afa158015611eb6573d6000803e3d6000fd5b505050506040513d601f19601f82011682018060405250810190611eda9190614367565b611ef757604051631acd860160e31b815260040160405180910390fd5b60005b84811015611f885783611f0b6136b0565b6000888885818110611f1f57611f1f614384565b9050602002016020810190611f349190614067565b6004811115611f4557611f45614351565b6004811115611f5657611f56614351565b815260208101919091526040016000208054911515600160201b0260ff60201b19909216919091179055600101611efa565b508215611fc35770544f4b454e5f4d494e5f54585f53495a4560781b6000805160206147338339815191528686604051611dd69291906143f6565b70544f4b454e5f4d494e5f54585f53495a4560781b6000805160206147138339815191528686604051611e1e9291906143f6565b611fff613484565b600201546001600160a01b03168061202a576040516371724ffd60e01b815260040160405180910390fd5b806001600160a01b03811663d4a7db7f336040516001600160e01b031960e084901b1681526001600160a01b039091166004820152602401602060405180830381865afa15801561207f573d6000803e3d6000fd5b505050506040513d601f19601f820116820180604052508101906120a39190614367565b6120c057604051631acd860160e31b815260040160405180910390fd5b60006120ca6136de565b905060005b858110156124275760008260008989858181106120ee576120ee614384565b90506020020160208101906121039190614067565b600481111561211457612114614351565b600481111561212557612125614351565b815260200190815260200160002060018460008b8b8781811061214a5761214a614384565b905060200201602081019061215f9190614067565b600481111561217057612170614351565b600481111561218157612181614351565b815260208101919091526040016000205461219c91906144b9565b815481106121ac576121ac614384565b60009182526020918290206040805180820190915291015463ffffffff808216808452600160201b90920460ff1615159383019390935290925090871614612395576000805b8460008b8b8781811061220757612207614384565b905060200201602081019061221c9190614067565b600481111561222d5761222d614351565b600481111561223e5761223e614351565b81526020810191909152604001600020548110156122ef578763ffffffff168560008c8c8881811061227257612272614384565b90506020020160208101906122879190614067565b600481111561229857612298614351565b60048111156122a9576122a9614351565b815260200190815260200160002082815481106122c8576122c8614384565b60009182526020909120015463ffffffff16036122e7578091506122ef565b6001016121f2565b50818460008b8b8781811061230657612306614384565b905060200201602081019061231b9190614067565b600481111561232c5761232c614351565b600481111561233d5761233d614351565b8152602001908152602001600020828154811061235c5761235c614384565b600091825260209182902083519101805493909201511515600160201b0264ffffffffff1990931663ffffffff90911617919091179055505b8260008989858181106123aa576123aa614384565b90506020020160208101906123bf9190614067565b60048111156123d0576123d0614351565b60048111156123e1576123e1614351565b81526020019081526020016000208054806123fe576123fe6144cc565b6000828152602090208101600019908101805464ffffffffff19169055019055506001016120cf565b50505050505050565b612438613484565b600201546001600160a01b031680612463576040516371724ffd60e01b815260040160405180910390fd5b806001600160a01b03811663d4a7db7f336040516001600160e01b031960e084901b1681526001600160a01b039091166004820152602401602060405180830381865afa1580156124b8573d6000803e3d6000fd5b505050506040513d601f19601f820116820180604052508101906124dc9190614367565b6124f957604051631acd860160e31b815260040160405180910390fd5b60005b8481101561258a578361250d613b90565b600088888581811061252157612521614384565b90506020020160208101906125369190614067565b600481111561254757612547614351565b600481111561255857612558614351565b815260208101919091526040016000208054911515600160201b0260ff60201b199092169190911790556001016124fc565b5082156125ca5775544f4b454e5f4d41585f4441494c595f54524144455360501b6000805160206147338339815191528686604051611dd69291906143f6565b75544f4b454e5f4d41585f4441494c595f54524144455360501b6000805160206147138339815191528686604051611e1e9291906143f6565b61260b613484565b600201546001600160a01b031680612636576040516371724ffd60e01b815260040160405180910390fd5b806001600160a01b03811663d4a7db7f336040516001600160e01b031960e084901b1681526001600160a01b039091166004820152602401602060405180830381865afa15801561268b573d6000803e3d6000fd5b505050506040513d601f19601f820116820180604052508101906126af9190614367565b6126cc57604051631acd860160e31b815260040160405180910390fd5b6126d4613484565b6001015460405163979cc76b60e01b815263ffffffff851660048201526001600160a01b039091169063979cc76b9060240160006040518083038186803b15801561271e57600080fd5b505afa158015612732573d6000803e3d6000fd5b5050505060005b848110156107065761277186868381811061275657612756614384565b905060200201602081019061276b9190614067565b85613c44565b8363ffffffff1686868381811061278a5761278a614384565b905060200201602081019061279f9190614067565b60048111156127b0576127b0614351565b6040516000805160206146f38339815191529060008051602061477383398151915290600090a4600101612739565b60006127e9613484565b905060006127f56136de565b60018301549091506001600160a01b031663b110cd298260008a600481111561282057612820614351565b600481111561283157612831614351565b8152602001908152602001600020876040518363ffffffff1660e01b815260040161285d9291906144e2565b60006040518083038186803b15801561287557600080fd5b505afa158015612889573d6000803e3d6000fd5b50505050612895613b90565b60008860048111156128a9576128a9614351565b60048111156128ba576128ba614351565b8152602081019190915260400160002054600160201b900460ff1615612a825760028201546003830154604051636640979d60e11b81526001600160a01b039182166004820152600092919091169063cc812f3a90602401600060405180830381865afa15801561292f573d6000803e3d6000fd5b505050506040513d6000823e601f3d908101601f191682016040526129579190810190614559565b90506000612963613b90565b60018501549091506001600160a01b031663bca9c7bc8260008c600481111561298e5761298e614351565b600481111561299f5761299f614351565b815260208082019290925260409081016000908120548a82526001870184528282205460028801909452908290205491516001600160e01b031960e086901b168152612a049363ffffffff9092169288916001600160401b0390911690600401614616565b602060405180830381865afa158015612a21573d6000803e3d6000fd5b505050506040513d601f19601f82011682018060405250810190612a459190614685565b600086815260018301602090815260408083209390935560029093019092529020805467ffffffffffffffff1916426001600160401b0316179055505b612a8a613cb8565b6000886004811115612a9e57612a9e614351565b6004811115612aaf57612aaf614351565b8152602081019190915260400160002054600160201b900460ff1615612c4d576000612ad9613cb8565b60018401549091506001600160a01b031663034ac11d8260008b6004811115612b0457612b04614351565b6004811115612b1557612b15614351565b815260200190815260200160002060000160009054906101000a900463ffffffff168360010154336001600160a01b03166318160ddd6040518163ffffffff1660e01b8152600401602060405180830381865afa158015612b7a573d6000803e3d6000fd5b505050506040513d601f19601f82011682018060405250810190612b9e9190614685565b600286015460405160e086901b6001600160e01b031916815263ffffffff909416600485015260248401929092526044830152606482018990526001600160401b0316608482015260a401602060405180830381865afa158015612c06573d6000803e3d6000fd5b505050506040513d601f19601f82011682018060405250810190612c2a9190614685565b6001820155600201805467ffffffffffffffff1916426001600160401b03161790555b612c55613456565b6000886004811115612c6957612c69614351565b6004811115612c7a57612c7a614351565b8152602081019190915260400160002054600160201b900460ff168015612cb957506001600160a01b0386161580612cb957506001600160a01b038516155b15612e6c576000612cc8613456565b60018401549091506001600160a01b031663758a4a3a8260008b6004811115612cf357612cf3614351565b6004811115612d0457612d04614351565b815260200190815260200160002060000160009054906101000a900463ffffffff1683600201548460030154336001600160a01b03166318160ddd6040518163ffffffff1660e01b8152600401602060405180830381865afa158015612d6e573d6000803e3d6000fd5b505050506040513d601f19601f82011682018060405250810190612d929190614685565b6001600160a01b038c1615612da7578a612db3565b612db38b60001961469e565b600188015460405160e088901b6001600160e01b031916815263ffffffff909616600487015260248601949094526044850192909252606484015260848301526001600160401b031660a482015260c4016040805180830381865afa158015612e20573d6000803e3d6000fd5b505050506040513d601f19601f82011682018060405250810190612e4491906146ce565b60038301556002820155600101805467ffffffffffffffff1916426001600160401b03161790555b6124278784613ce6565b6000610498613cb8565b612e88613484565b600201546001600160a01b031680612eb3576040516371724ffd60e01b815260040160405180910390fd5b806001600160a01b03811663d4a7db7f336040516001600160e01b031960e084901b1681526001600160a01b039091166004820152602401602060405180830381865afa158015612f08573d6000803e3d6000fd5b505050506040513d601f19601f82011682018060405250810190612f2c9190614367565b612f4957604051631acd860160e31b815260040160405180910390fd5b612f51613484565b600101546040516350ba6bb760e11b815263ffffffff851660048201526001600160a01b039091169063a174d76e9060240160006040518083038186803b158015612f9b57600080fd5b505afa158015612faf573d6000803e3d6000fd5b5050505060005b8481101561070657612fee868683818110612fd357612fd3614384565b9050602002016020810190612fe89190614067565b85613e18565b8363ffffffff1686868381811061300757613007614384565b905060200201602081019061301c9190614067565b600481111561302d5761302d614351565b60405175544f4b454e5f4d41585f4441494c595f54524144455360501b9060008051602061477383398151915290600090a4600101612fb6565b6000610498613e8c565b613079613484565b600201546001600160a01b0316806130a4576040516371724ffd60e01b815260040160405180910390fd5b806001600160a01b03811663d4a7db7f336040516001600160e01b031960e084901b1681526001600160a01b039091166004820152602401602060405180830381865afa1580156130f9573d6000803e3d6000fd5b505050506040513d601f19601f8201168201806040525081019061311d9190614367565b61313a57604051631acd860160e31b815260040160405180910390fd5b60005b848110156131cb578361314e613e8c565b600088888581811061316257613162614384565b90506020020160208101906131779190614067565b600481111561318857613188614351565b600481111561319957613199614351565b815260208101919091526040016000208054911515600160201b0260ff60201b1990921691909117905560010161313d565b5082156132085772544f4b454e5f4d494e5f484f4c445f54494d4560681b6000805160206147338339815191528686604051611dd69291906143f6565b72544f4b454e5f4d494e5f484f4c445f54494d4560681b6000805160206147138339815191528686604051611e1e9291906143f6565b6000613248613e8c565b600083600481111561325c5761325c614351565b600481111561326d5761326d614351565b815260208101919091526040016000205465010000000000900463ffffffff1692915050565b61329b613484565b600201546001600160a01b0316806132c6576040516371724ffd60e01b815260040160405180910390fd5b806001600160a01b03811663d4a7db7f336040516001600160e01b031960e084901b1681526001600160a01b039091166004820152602401602060405180830381865afa15801561331b573d6000803e3d6000fd5b505050506040513d601f19601f8201168201806040525081019061333f9190614367565b61335c57604051631acd860160e31b815260040160405180910390fd5b600085900361337e57604051633f4ab26f60e21b815260040160405180910390fd5b84831461339d5760405162514d8b60e31b815260040160405180910390fd5b6133a5613eba565b60005b8581101561340e576134068787838181106133c5576133c5614384565b90506020020160208101906133da9190614067565b8686848181106133ec576133ec614384565b90506020020160208101906134019190614412565b613e18565b6001016133a8565b5075544f4b454e5f4d41585f4441494c595f54524144455360501b600080516020614793833981519152878787876040516109fc949392919061442d565b60006104e8613cb8565b600080610b3160017f64796b3be01baa886cea07cf2fd07530b2c6f8878268ad7e65a3097a3fea99096144b9565b600080610b3160017f1c7e9355957c344e150b07462120dcb6c99b078e258444a7cd1841042fa7f14b6144b9565b6134ba613484565b6001015460405163251d88ed60e01b815263ffffffff831660048201526001600160a01b039091169063251d88ed9060240160006040518083038186803b15801561350457600080fd5b505afa158015613518573d6000803e3d6000fd5b5050505060006135266136de565b9050600a81600085600481111561353f5761353f614351565b600481111561355057613550614351565b81526020810191909152604001600020541061357f57604051634e4d8dd160e01b815260040160405180910390fd5b6040805180820190915263ffffffff83168152600160208201526000806135a68686613f40565b91509150801561363257828460008860048111156135c6576135c6614351565b60048111156135d7576135d7614351565b815260200190815260200160002083815481106135f6576135f6614384565b600091825260209182902083519101805493909201511515600160201b0264ffffffffff1990931663ffffffff90911617919091179055610706565b83600087600481111561364757613647614351565b600481111561365857613658614351565b81526020808201929092526040016000908120805460018101825590825290829020855191018054928601511515600160201b0264ffffffffff1990931663ffffffff90921691909117919091179055505050505050565b600080610b3160017f5a9cda40a1024916a94d03a0be6b3c39e1927dc802875d6a0ddec4db3b41404e6144b9565b600080610b3160017fa41060af1c613de6be71d20319662a5fd3e7bfcedd371c587702f30900ab141b6144b9565b60006137166136b0565b905060005b613723613484565b60030154600160a01b900460ff1681116137925781600082600481111561374c5761374c614351565b600481111561375d5761375d614351565b600481111561376e5761376e614351565b81526020810191909152604001600020805464ffffffffff1916905560010161371b565b5050565b61379e613484565b6001015460405163c34593a360e01b815263ffffffff831660048201526001600160a01b039091169063c34593a39060240160006040518083038186803b1580156137e857600080fd5b505afa1580156137fc573d6000803e3d6000fd5b50505050600061380a6136b0565b90508181600085600481111561382257613822614351565b600481111561383357613833614351565b815260200190815260200160002060000160006101000a81548163ffffffff021916908363ffffffff160217905550600181600001600085600481111561387c5761387c614351565b600481111561388d5761388d614351565b815260208101919091526040016000208054911515600160201b0260ff60201b19909216919091179055505050565b60006138c6613cb8565b905060005b6138d3613484565b60030154600160a01b900460ff168111613792578160008260048111156138fc576138fc614351565b600481111561390d5761390d614351565b600481111561391e5761391e614351565b81526020810191909152604001600020805464ffffffffff191690556001016138cb565b61394a613484565b60010154604051636d40f01b60e01b815263ffffffff831660048201526001600160a01b0390911690636d40f01b9060240160006040518083038186803b15801561399457600080fd5b505afa1580156139a8573d6000803e3d6000fd5b50505050600061380a613cb8565b60006139c0613e8c565b905060005b6139cd613484565b60030154600160a01b900460ff168111613792578160008260048111156139f6576139f6614351565b6004811115613a0757613a07614351565b6004811115613a1857613a18614351565b81526020810191909152604001600020805468ffffffffffffffffff191690556001016139c5565b8063ffffffff16600003613a6757604051631153c6f560e21b815260040160405180910390fd5b61ab3663ffffffff82161115613a905760405163771d7f9360e01b815260040160405180910390fd5b6000613a9a613e8c565b905081816000856004811115613ab257613ab2614351565b6004811115613ac357613ac3614351565b815260200190815260200160002060000160056101000a81548163ffffffff021916908363ffffffff160217905550600181600001600085600481111561387c5761387c614351565b6000613b166136de565b905060005b613b23613484565b60030154600160a01b900460ff16811161379257816000826004811115613b4c57613b4c614351565b6004811115613b5d57613b5d614351565b6004811115613b6e57613b6e614351565b81526020019081526020016000206000613b889190614011565b600101613b1b565b600080610b3160017faee367d4ef8db0f8b1fdee7d0bc4cdad2b8e161d65451524591671108222a4d46144b9565b6000613bc8613456565b905060005b613bd5613484565b60030154600160a01b900460ff16811161379257816000826004811115613bfe57613bfe614351565b6004811115613c0f57613c0f614351565b6004811115613c2057613c20614351565b81526020810191909152604001600020805464ffffffffff19169055600101613bcd565b613c4c613484565b6001015460405163979cc76b60e01b815263ffffffff831660048201526001600160a01b039091169063979cc76b9060240160006040518083038186803b158015613c9657600080fd5b505afa158015613caa573d6000803e3d6000fd5b50505050600061380a613456565b600080610b3160017fd493040c86275cfa6da6ff5ffd7a4346dc7ffcdc63616e4cf619d98a22f894736144b9565b6000613cf0613e8c565b9050806000846004811115613d0757613d07614351565b6004811115613d1857613d18614351565b8152602081019190915260400160002054600160201b900460ff168015613d4e5750600082815260018201602052604090205415155b15613e1357613d5b613484565b600101546001600160a01b0316631051b95b826000866004811115613d8257613d82614351565b6004811115613d9357613d93614351565b815260208082019290925260409081016000908120548782526001870190935281902054905160e084901b6001600160e01b03191681526501000000000090920463ffffffff166004830152602482015260440160006040518083038186803b158015613dff57600080fd5b505afa158015612427573d6000803e3d6000fd5b505050565b613e20613484565b600101546040516350ba6bb760e11b815263ffffffff831660048201526001600160a01b039091169063a174d76e9060240160006040518083038186803b158015613e6a57600080fd5b505afa158015613e7e573d6000803e3d6000fd5b50505050600061380a613b90565b600080610b3160017f2880716ddaeaa9864ac87aea73eba567e0bc7cd2fbdeca4464e86ba438b751896144b9565b6000613ec4613b90565b905060005b613ed1613484565b60030154600160a01b900460ff16811161379257816000826004811115613efa57613efa614351565b6004811115613f0b57613f0b614351565b6004811115613f1c57613f1c614351565b81526020810191909152604001600020805464ffffffffff19169055600101613ec9565b6000806000613f4d6136de565b905060005b816000876004811115613f6757613f67614351565b6004811115613f7857613f78614351565b81526020810191909152604001600020548110156140075763ffffffff8516826000886004811115613fac57613fac614351565b6004811115613fbd57613fbd614351565b81526020019081526020016000208281548110613fdc57613fdc614384565b60009182526020909120015463ffffffff1603613fff5780935060019250614007565b600101613f52565b50505b9250929050565b508054600082559060005260206000209081019061402f9190614032565b50565b5b8082111561404f57805464ffffffffff19168155600101614033565b5090565b80356005811061406257600080fd5b919050565b60006020828403121561407957600080fd5b61408282614053565b9392505050565b60008083601f84011261409b57600080fd5b5081356001600160401b038111156140b257600080fd5b6020830191508360208260051b850101111561400a57600080fd5b803563ffffffff8116811461406257600080fd5b6000806000604084860312156140f657600080fd5b83356001600160401b0381111561410c57600080fd5b61411886828701614089565b909450925061412b9050602085016140cd565b90509250925092565b801515811461402f57600080fd5b6000806000806060858703121561415857600080fd5b84356001600160401b0381111561416e57600080fd5b61417a87828801614089565b909550935050602085013561418e81614134565b915061419c604086016140cd565b905092959194509250565b600080604083850312156141ba57600080fd5b6141c383614053565b91506141d1602084016140cd565b90509250929050565b600080600080604085870312156141f057600080fd5b84356001600160401b038082111561420757600080fd5b61421388838901614089565b9096509450602087013591508082111561422c57600080fd5b5061423987828801614089565b95989497509550505050565b60008060006040848603121561425a57600080fd5b83356001600160401b0381111561427057600080fd5b61427c86828701614089565b909450925050602084013561429081614134565b809150509250925092565b6020808252825182820181905260009190848201906040850190845b818110156142d957835163ffffffff16835292840192918401916001016142b7565b50909695505050505050565b80356001600160a01b038116811461406257600080fd5b600080600080600060a0868803121561431457600080fd5b61431d86614053565b945061432b602087016142e5565b9350614339604087016142e5565b94979396509394606081013594506080013592915050565b634e487b7160e01b600052602160045260246000fd5b60006020828403121561437957600080fd5b815161408281614134565b634e487b7160e01b600052603260045260246000fd5b818352600060208085019450826000805b868110156143ea576143bc83614053565b600581106143d857634e487b7160e01b83526021600452602483fd5b885296830196918301916001016143ab565b50959695505050505050565b60208152600061440a60208301848661439a565b949350505050565b60006020828403121561442457600080fd5b614082826140cd565b60408152600061444160408301868861439a565b8281036020848101919091528482528591810160005b868110156144805763ffffffff61446d856140cd565b1682529282019290820190600101614457565b5098975050505050505050565b634e487b7160e01b600052604160045260246000fd5b634e487b7160e01b600052601160045260246000fd5b81810381811115610b3157610b316144a3565b634e487b7160e01b600052603160045260246000fd5b60006040808301604084528086548083526060860191508760005260209250602060002060005b8281101561453757815463ffffffff81168552851c60ff161515858501529285019260019182019101614509565b5050506001600160a01b03959095166020949094019390935250919392505050565b6000602080838503121561456c57600080fd5b82516001600160401b038082111561458357600080fd5b818501915085601f83011261459757600080fd5b8151818111156145a9576145a961448d565b8060051b604051601f19603f830116810181811085821117156145ce576145ce61448d565b6040529182528482019250838101850191888311156145ec57600080fd5b938501935b8285101561460a578451845293850193928501926145f1565b98975050505050505050565b60006080820163ffffffff8716835260208660208501526080604085015281865180845260a08601915060208801935060005b8181101561466557845183529383019391830191600101614649565b50508093505050506001600160401b038316606083015295945050505050565b60006020828403121561469757600080fd5b5051919050565b80820260008212600160ff1b841416156146ba576146ba6144a3565b8181058314821517610b3157610b316144a3565b600080604083850312156146e157600080fd5b50508051602090910151909290915056fe544f4b454e5f4d41585f535550504c595f564f4c4154494c4954590000000000e67b4c6b446d2563a2a39eb75b71127a3f908bcfcef4f7c89bd9e1b3ef39d15e4dfa26a794eb61a703a2beac482f06b4372aed0b7c0d6b4490db416146d8e32e4143434f554e545f415050524f56455f44454e595f4f5241434c4500000000004f87ac5c7868c692420a972d0f84fa7750afbf2b8a09848fefc355020bce707bfce5ba10ca670317c4ad6aaf14bfb5c4467bb4415ab89dafce1434471a227126a2646970667358221220d3103b6dbad279434c9d213f06baf0e229c61997b9ad3e2db5f69a984b73110864736f6c63430008180033","linkReferences":{}},"methodIdentifiers":{"activateAccountApproveDenyOracle(uint8[],bool,uint32)":"22de984a","activateMinTransactionSizeRule(uint8[],bool)":"68ecb274","activateTokenMaxDailyTrades(uint8[],bool)":"74a258a9","activateTokenMaxSupplyVolatility(uint8[],bool)":"39a86e8f","activateTokenMaxTradingVolume(uint8[],bool)":"6189b3e5","activateTokenMinHoldTime(uint8[],bool)":"dd385883","checkNonTaggedRules(uint8,address,address,uint256,uint256)":"9466093a","getAccountApproveDenyOracleIds(uint8)":"3e800f1e","getTokenMaxDailyTradesId(uint8)":"4af67218","getTokenMaxSupplyVolatilityId(uint8)":"06638f5e","getTokenMaxTradingVolumeId(uint8)":"f2af6b03","getTokenMinHoldTimePeriod(uint8)":"deefc86d","getTokenMinTxSizeId(uint8)":"228e6a75","isAccountApproveDenyOracleActive(uint8,uint32)":"2720970f","isTokenMaxDailyTradesActive(uint8)":"52b06d98","isTokenMaxSupplyVolatilityActive(uint8)":"042be595","isTokenMaxTradingVolumeActive(uint8)":"a7d70819","isTokenMinHoldTimeActive(uint8)":"d2205257","isTokenMinTxSizeActive(uint8)":"40cecd55","removeAccountApproveDenyOracle(uint8[],uint32)":"69009931","setAccountApproveDenyOracleId(uint8[],uint32)":"1dfab369","setAccountApproveDenyOracleIdFull(uint8[],uint32[])":"41bd803c","setTokenMaxDailyTradesId(uint8[],uint32)":"bdfd67b3","setTokenMaxDailyTradesIdFull(uint8[],uint32[])":"e8189606","setTokenMaxSupplyVolatilityId(uint8[],uint32)":"7bea213d","setTokenMaxSupplyVolatilityIdFull(uint8[],uint32[])":"569d92fc","setTokenMaxTradingVolumeId(uint8[],uint32)":"5d5b76e5","setTokenMaxTradingVolumeIdFull(uint8[],uint32[])":"3da60970","setTokenMinHoldTime(uint8[],uint32)":"43764c6b","setTokenMinHoldTimeFull(uint8[],uint32[])":"3eeb8618","setTokenMinTxSizeId(uint8[],uint32)":"526b011b","setTokenMinTxSizeIdFull(uint8[],uint32[])":"38ab03a2"},"id":172}