{"abi":[{"type":"function","name":"approve","inputs":[{"name":"to","type":"address","internalType":"address"},{"name":"tokenId","type":"uint256","internalType":"uint256"}],"outputs":[],"stateMutability":"nonpayable"},{"type":"function","name":"balanceOf","inputs":[{"name":"owner","type":"address","internalType":"address"}],"outputs":[{"name":"","type":"uint256","internalType":"uint256"}],"stateMutability":"view"},{"type":"function","name":"baseUri","inputs":[],"outputs":[{"name":"","type":"string","internalType":"string"}],"stateMutability":"view"},{"type":"function","name":"burn","inputs":[{"name":"tokenId","type":"uint256","internalType":"uint256"}],"outputs":[],"stateMutability":"nonpayable"},{"type":"function","name":"confirmAppManagerAddress","inputs":[],"outputs":[],"stateMutability":"nonpayable"},{"type":"function","name":"connectHandlerToToken","inputs":[{"name":"_deployedHandlerAddress","type":"address","internalType":"address"}],"outputs":[],"stateMutability":"nonpayable"},{"type":"function","name":"getAppManagerAddress","inputs":[],"outputs":[{"name":"","type":"address","internalType":"address"}],"stateMutability":"view"},{"type":"function","name":"getApproved","inputs":[{"name":"tokenId","type":"uint256","internalType":"uint256"}],"outputs":[{"name":"","type":"address","internalType":"address"}],"stateMutability":"view"},{"type":"function","name":"getHandlerAddress","inputs":[],"outputs":[{"name":"","type":"address","internalType":"address"}],"stateMutability":"view"},{"type":"function","name":"handlerAddress","inputs":[],"outputs":[{"name":"","type":"address","internalType":"address"}],"stateMutability":"view"},{"type":"function","name":"initialize","inputs":[{"name":"_name","type":"string","internalType":"string"},{"name":"_symbol","type":"string","internalType":"string"},{"name":"_appManagerAddress","type":"address","internalType":"address"}],"outputs":[],"stateMutability":"nonpayable"},{"type":"function","name":"isApprovedForAll","inputs":[{"name":"owner","type":"address","internalType":"address"},{"name":"operator","type":"address","internalType":"address"}],"outputs":[{"name":"","type":"bool","internalType":"bool"}],"stateMutability":"view"},{"type":"function","name":"name","inputs":[],"outputs":[{"name":"","type":"string","internalType":"string"}],"stateMutability":"view"},{"type":"function","name":"owner","inputs":[],"outputs":[{"name":"","type":"address","internalType":"address"}],"stateMutability":"view"},{"type":"function","name":"ownerOf","inputs":[{"name":"tokenId","type":"uint256","internalType":"uint256"}],"outputs":[{"name":"","type":"address","internalType":"address"}],"stateMutability":"view"},{"type":"function","name":"paused","inputs":[],"outputs":[{"name":"","type":"bool","internalType":"bool"}],"stateMutability":"view"},{"type":"function","name":"proposeAppManagerAddress","inputs":[{"name":"_newAppManagerAddress","type":"address","internalType":"address"}],"outputs":[],"stateMutability":"nonpayable"},{"type":"function","name":"proxiableUUID","inputs":[],"outputs":[{"name":"","type":"bytes32","internalType":"bytes32"}],"stateMutability":"view"},{"type":"function","name":"renounceOwnership","inputs":[],"outputs":[],"stateMutability":"nonpayable"},{"type":"function","name":"safeMint","inputs":[{"name":"to","type":"address","internalType":"address"}],"outputs":[],"stateMutability":"payable"},{"type":"function","name":"safeTransferFrom","inputs":[{"name":"from","type":"address","internalType":"address"},{"name":"to","type":"address","internalType":"address"},{"name":"tokenId","type":"uint256","internalType":"uint256"}],"outputs":[],"stateMutability":"nonpayable"},{"type":"function","name":"safeTransferFrom","inputs":[{"name":"from","type":"address","internalType":"address"},{"name":"to","type":"address","internalType":"address"},{"name":"tokenId","type":"uint256","internalType":"uint256"},{"name":"data","type":"bytes","internalType":"bytes"}],"outputs":[],"stateMutability":"nonpayable"},{"type":"function","name":"setApprovalForAll","inputs":[{"name":"operator","type":"address","internalType":"address"},{"name":"approved","type":"bool","internalType":"bool"}],"outputs":[],"stateMutability":"nonpayable"},{"type":"function","name":"setBaseURI","inputs":[{"name":"_baseUri","type":"string","internalType":"string"}],"outputs":[],"stateMutability":"nonpayable"},{"type":"function","name":"supportsInterface","inputs":[{"name":"interfaceId","type":"bytes4","internalType":"bytes4"}],"outputs":[{"name":"","type":"bool","internalType":"bool"}],"stateMutability":"view"},{"type":"function","name":"symbol","inputs":[],"outputs":[{"name":"","type":"string","internalType":"string"}],"stateMutability":"view"},{"type":"function","name":"tokenByIndex","inputs":[{"name":"index","type":"uint256","internalType":"uint256"}],"outputs":[{"name":"","type":"uint256","internalType":"uint256"}],"stateMutability":"view"},{"type":"function","name":"tokenOfOwnerByIndex","inputs":[{"name":"owner","type":"address","internalType":"address"},{"name":"index","type":"uint256","internalType":"uint256"}],"outputs":[{"name":"","type":"uint256","internalType":"uint256"}],"stateMutability":"view"},{"type":"function","name":"tokenURI","inputs":[{"name":"tokenId","type":"uint256","internalType":"uint256"}],"outputs":[{"name":"","type":"string","internalType":"string"}],"stateMutability":"view"},{"type":"function","name":"totalSupply","inputs":[],"outputs":[{"name":"","type":"uint256","internalType":"uint256"}],"stateMutability":"view"},{"type":"function","name":"transferFrom","inputs":[{"name":"from","type":"address","internalType":"address"},{"name":"to","type":"address","internalType":"address"},{"name":"tokenId","type":"uint256","internalType":"uint256"}],"outputs":[],"stateMutability":"nonpayable"},{"type":"function","name":"transferOwnership","inputs":[{"name":"newOwner","type":"address","internalType":"address"}],"outputs":[],"stateMutability":"nonpayable"},{"type":"function","name":"upgradeTo","inputs":[{"name":"newImplementation","type":"address","internalType":"address"}],"outputs":[],"stateMutability":"nonpayable"},{"type":"function","name":"upgradeToAndCall","inputs":[{"name":"newImplementation","type":"address","internalType":"address"},{"name":"data","type":"bytes","internalType":"bytes"}],"outputs":[],"stateMutability":"payable"},{"type":"function","name":"withdraw","inputs":[],"outputs":[],"stateMutability":"payable"},{"type":"event","name":"AD1467_AppManagerAddressSet","inputs":[{"name":"_address","type":"address","indexed":true,"internalType":"address"}],"anonymous":false},{"type":"event","name":"AD1467_CollectionPrice","inputs":[{"name":"collection","type":"address","indexed":true,"internalType":"address"},{"name":"price","type":"uint256","indexed":true,"internalType":"uint256"}],"anonymous":false},{"type":"event","name":"AD1467_FeeType","inputs":[{"name":"tag","type":"bytes32","indexed":true,"internalType":"bytes32"},{"name":"add","type":"bool","indexed":true,"internalType":"bool"},{"name":"minBalance","type":"uint256","indexed":false,"internalType":"uint256"},{"name":"maxBalance","type":"uint256","indexed":false,"internalType":"uint256"},{"name":"feePercentage","type":"int256","indexed":false,"internalType":"int256"},{"name":"targetAccount","type":"address","indexed":false,"internalType":"address"}],"anonymous":false},{"type":"event","name":"AD1467_HandlerConnected","inputs":[{"name":"handlerAddress","type":"address","indexed":true,"internalType":"address"},{"name":"assetAddress","type":"address","indexed":true,"internalType":"address"}],"anonymous":false},{"type":"event","name":"AD1467_NewNFTDeployed","inputs":[{"name":"appManagerAddress","type":"address","indexed":true,"internalType":"address"}],"anonymous":false},{"type":"event","name":"AD1467_NewTokenDeployed","inputs":[{"name":"appManagerAddress","type":"address","indexed":true,"internalType":"address"}],"anonymous":false},{"type":"event","name":"AD1467_SingleTokenPrice","inputs":[{"name":"collection","type":"address","indexed":true,"internalType":"address"},{"name":"tokenID","type":"uint256","indexed":true,"internalType":"uint256"},{"name":"price","type":"uint256","indexed":true,"internalType":"uint256"}],"anonymous":false},{"type":"event","name":"AD1467_TokenPrice","inputs":[{"name":"token","type":"address","indexed":true,"internalType":"address"},{"name":"price","type":"uint256","indexed":true,"internalType":"uint256"}],"anonymous":false},{"type":"event","name":"AdminChanged","inputs":[{"name":"previousAdmin","type":"address","indexed":false,"internalType":"address"},{"name":"newAdmin","type":"address","indexed":false,"internalType":"address"}],"anonymous":false},{"type":"event","name":"Approval","inputs":[{"name":"owner","type":"address","indexed":true,"internalType":"address"},{"name":"approved","type":"address","indexed":true,"internalType":"address"},{"name":"tokenId","type":"uint256","indexed":true,"internalType":"uint256"}],"anonymous":false},{"type":"event","name":"ApprovalForAll","inputs":[{"name":"owner","type":"address","indexed":true,"internalType":"address"},{"name":"operator","type":"address","indexed":true,"internalType":"address"},{"name":"approved","type":"bool","indexed":false,"internalType":"bool"}],"anonymous":false},{"type":"event","name":"BatchMetadataUpdate","inputs":[{"name":"_fromTokenId","type":"uint256","indexed":false,"internalType":"uint256"},{"name":"_toTokenId","type":"uint256","indexed":false,"internalType":"uint256"}],"anonymous":false},{"type":"event","name":"BeaconUpgraded","inputs":[{"name":"beacon","type":"address","indexed":true,"internalType":"address"}],"anonymous":false},{"type":"event","name":"Initialized","inputs":[{"name":"version","type":"uint8","indexed":false,"internalType":"uint8"}],"anonymous":false},{"type":"event","name":"MetadataUpdate","inputs":[{"name":"_tokenId","type":"uint256","indexed":false,"internalType":"uint256"}],"anonymous":false},{"type":"event","name":"OwnershipTransferred","inputs":[{"name":"previousOwner","type":"address","indexed":true,"internalType":"address"},{"name":"newOwner","type":"address","indexed":true,"internalType":"address"}],"anonymous":false},{"type":"event","name":"Paused","inputs":[{"name":"account","type":"address","indexed":false,"internalType":"address"}],"anonymous":false},{"type":"event","name":"Transfer","inputs":[{"name":"from","type":"address","indexed":true,"internalType":"address"},{"name":"to","type":"address","indexed":true,"internalType":"address"},{"name":"tokenId","type":"uint256","indexed":true,"internalType":"uint256"}],"anonymous":false},{"type":"event","name":"Unpaused","inputs":[{"name":"account","type":"address","indexed":false,"internalType":"address"}],"anonymous":false},{"type":"event","name":"Upgraded","inputs":[{"name":"implementation","type":"address","indexed":true,"internalType":"address"}],"anonymous":false},{"type":"error","name":"AppManagerNotConnected","inputs":[]},{"type":"error","name":"BelowMinAdminThreshold","inputs":[]},{"type":"error","name":"ConfirmerDoesNotMatchProposedAddress","inputs":[]},{"type":"error","name":"NoProposalHasBeenMade","inputs":[]},{"type":"error","name":"NotAppAdministrator","inputs":[]},{"type":"error","name":"NotAppAdministratorOrOwner","inputs":[]},{"type":"error","name":"NotRuleAdministrator","inputs":[]},{"type":"error","name":"NotSuperAdmin","inputs":[{"name":"","type":"address","internalType":"address"}]},{"type":"error","name":"ZeroAddress","inputs":[]}],"bytecode":{"object":"0x60a06040523060805234801561001457600080fd5b5060805161335961004c60003960008181610c2101528181610c6101528181610e8a01528181610eca0152610fec01526133596000f3fe6080604052600436106102045760003560e01c806352d1902d116101185780638da5cb5b116100a0578063b88d4fde1161006f578063b88d4fde14610599578063c87b56dd146105b9578063cdccb27a146105d9578063e985e9c5146105ee578063f2fde38b1461063757600080fd5b80638da5cb5b1461053057806395d89b411461054f5780639abc832014610564578063a22cb4651461057957600080fd5b80636f9c83b8116100e75780636f9c83b81461049b5780636fd7d970146104ba57806370a08231146104db578063715018a6146104fb57806371af85e01461051057600080fd5b806352d1902d1461042657806355f804b31461043b5780635c975abb1461045b5780636352211e1461047b57600080fd5b80632f745c591161019b57806342842e0e1161016a57806342842e0e1461039457806342966c68146103b45780634c330077146103d45780634f1ef286146103f35780634f6ccce71461040657600080fd5b80632f745c59146103395780633659cfe6146103595780633ccfd60b1461037957806340d097c31461038157600080fd5b8063095ea7b3116101d7578063095ea7b3146102ba57806311280cb5146102da57806318160ddd146102fa57806323b872dd1461031957600080fd5b806301ffc9a71461020957806306fdde031461023e578063077f224a14610260578063081812fc14610282575b600080fd5b34801561021557600080fd5b50610229610224366004612b05565b610657565b60405190151581526020015b60405180910390f35b34801561024a57600080fd5b50610253610668565b6040516102359190612b72565b34801561026c57600080fd5b5061028061027b366004612c44565b6106fa565b005b34801561028e57600080fd5b506102a261029d366004612cb8565b610906565b6040516001600160a01b039091168152602001610235565b3480156102c657600080fd5b506102806102d5366004612cd1565b61092d565b3480156102e657600080fd5b506102806102f5366004612cfb565b610a42565b34801561030657600080fd5b506099545b604051908152602001610235565b34801561032557600080fd5b50610280610334366004612d16565b610b4f565b34801561034557600080fd5b5061030b610354366004612cd1565b610b81565b34801561036557600080fd5b50610280610374366004612cfb565b610c17565b610280610cf6565b61028061038f366004612cfb565b610e0c565b3480156103a057600080fd5b506102806103af366004612d16565b610e37565b3480156103c057600080fd5b506102806103cf366004612cb8565b610e52565b3480156103e057600080fd5b506101c4546001600160a01b03166102a2565b610280610401366004612d52565b610e80565b34801561041257600080fd5b5061030b610421366004612cb8565b610f4c565b34801561043257600080fd5b5061030b610fdf565b34801561044757600080fd5b50610280610456366004612da0565b611092565b34801561046757600080fd5b506101c554600160a01b900460ff16610229565b34801561048757600080fd5b506102a2610496366004612cb8565b611166565b3480156104a757600080fd5b506101f7546001600160a01b03166102a2565b3480156104c657600080fd5b506101f7546102a2906001600160a01b031681565b3480156104e757600080fd5b5061030b6104f6366004612cfb565b6111c6565b34801561050757600080fd5b5061028061124c565b34801561051c57600080fd5b5061028061052b366004612cfb565b611260565b34801561053c57600080fd5b5061012d546001600160a01b03166102a2565b34801561055b57600080fd5b506102536113a5565b34801561057057600080fd5b506102536113b4565b34801561058557600080fd5b50610280610594366004612de3565b611443565b3480156105a557600080fd5b506102806105b4366004612e1a565b61144e565b3480156105c557600080fd5b506102536105d4366004612cb8565b611480565b3480156105e557600080fd5b5061028061148b565b3480156105fa57600080fd5b50610229610609366004612e82565b6001600160a01b039182166000908152606a6020908152604080832093909416825291909152205460ff1690565b34801561064357600080fd5b50610280610652366004612cfb565b611518565b60006106628261158e565b92915050565b60606065805461067790612eb5565b80601f01602080910402602001604051908101604052809291908181526020018280546106a390612eb5565b80156106f05780601f106106c5576101008083540402835291602001916106f0565b820191906000526020600020905b8154815290600101906020018083116106d357829003601f168201915b5050505050905090565b806001600160a01b038116610722576040516371724ffd60e01b815260040160405180910390fd5b806001600160a01b03811663c3c2ebbb336040516001600160e01b031960e084901b1681526001600160a01b039091166004820152602401602060405180830381865afa158015610777573d6000803e3d6000fd5b505050506040513d601f19601f8201168201806040525081019061079b9190612eef565b6107b85760405163ba80c9e560e01b815260040160405180910390fd5b600054610100900460ff16158080156107d85750600054600160ff909116105b806107f25750303b1580156107f2575060005460ff166001145b61085a5760405162461bcd60e51b815260206004820152602e60248201527f496e697469616c697a61626c653a20636f6e747261637420697320616c72656160448201526d191e481a5b9a5d1a585b1a5e995960921b60648201526084015b60405180910390fd5b6000805460ff19166001179055801561087d576000805461ff0019166101001790555b61088786866115b3565b61088f6115e4565b6108976115e4565b61089f61160b565b6108a76115e4565b6108af61163a565b6108b884611669565b80156108fe576000805461ff0019169055604051600181527f7f26b83ff96e1f2b6a682f133852f6798a09c465da95921460cefb38474024989060200160405180910390a15b505050505050565b600061091182611702565b506000908152606960205260409020546001600160a01b031690565b600061093882611166565b9050806001600160a01b0316836001600160a01b0316036109a55760405162461bcd60e51b815260206004820152602160248201527f4552433732313a20617070726f76616c20746f2063757272656e74206f776e656044820152603960f91b6064820152608401610851565b336001600160a01b03821614806109c157506109c18133610609565b610a335760405162461bcd60e51b815260206004820152603d60248201527f4552433732313a20617070726f76652063616c6c6572206973206e6f7420746f60448201527f6b656e206f776e6572206f7220617070726f76656420666f7220616c6c0000006064820152608401610851565b610a3d8383611761565b505050565b6101c4546001600160a01b031680610a6d576040516371724ffd60e01b815260040160405180910390fd5b806001600160a01b03811663c3c2ebbb336040516001600160e01b031960e084901b1681526001600160a01b039091166004820152602401602060405180830381865afa158015610ac2573d6000803e3d6000fd5b505050506040513d601f19601f82011682018060405250810190610ae69190612eef565b610b035760405163ba80c9e560e01b815260040160405180910390fd5b6001600160a01b038316610b2a5760405163d92e233d60e01b815260040160405180910390fd5b50506101c380546001600160a01b0319166001600160a01b0392909216919091179055565b610b5a335b826117cf565b610b765760405162461bcd60e51b815260040161085190612f0c565b610a3d83838361184e565b6000610b8c836111c6565b8210610bee5760405162461bcd60e51b815260206004820152602b60248201527f455243373231456e756d657261626c653a206f776e657220696e646578206f7560448201526a74206f6620626f756e647360a81b6064820152608401610851565b506001600160a01b03919091166000908152609760209081526040808320938352929052205490565b6001600160a01b037f0000000000000000000000000000000000000000000000000000000000000000163003610c5f5760405162461bcd60e51b815260040161085190612f59565b7f00000000000000000000000000000000000000000000000000000000000000006001600160a01b0316610ca86000805160206132dd833981519152546001600160a01b031690565b6001600160a01b031614610cce5760405162461bcd60e51b815260040161085190612fa5565b610cd7816119bf565b60408051600080825260208201909252610cf3918391906119c7565b50565b6101c4546001600160a01b031680610d21576040516371724ffd60e01b815260040160405180910390fd5b806001600160a01b03811663c3c2ebbb336040516001600160e01b031960e084901b1681526001600160a01b039091166004820152602401602060405180830381865afa158015610d76573d6000803e3d6000fd5b505050506040513d601f19601f82011682018060405250810190610d9a9190612eef565b610db75760405163ba80c9e560e01b815260040160405180910390fd5b604051600090339047908381818185875af1925050503d8060008114610df9576040519150601f19603f3d011682016040523d82523d6000602084013e610dfe565b606091505b5050905080610a3d57600080fd5b6000610e186101f95490565b9050610e296101f980546001019055565b610e338282611b32565b5050565b610a3d8383836040518060200160405280600081525061144e565b610e5b33610b54565b610e775760405162461bcd60e51b815260040161085190612f0c565b610cf381611b4c565b6001600160a01b037f0000000000000000000000000000000000000000000000000000000000000000163003610ec85760405162461bcd60e51b815260040161085190612f59565b7f00000000000000000000000000000000000000000000000000000000000000006001600160a01b0316610f116000805160206132dd833981519152546001600160a01b031690565b6001600160a01b031614610f375760405162461bcd60e51b815260040161085190612fa5565b610f40826119bf565b610e33828260016119c7565b6000610f5760995490565b8210610fba5760405162461bcd60e51b815260206004820152602c60248201527f455243373231456e756d657261626c653a20676c6f62616c20696e646578206f60448201526b7574206f6620626f756e647360a01b6064820152608401610851565b60998281548110610fcd57610fcd612ff1565b90600052602060002001549050919050565b6000306001600160a01b037f0000000000000000000000000000000000000000000000000000000000000000161461107f5760405162461bcd60e51b815260206004820152603860248201527f555550535570677261646561626c653a206d757374206e6f742062652063616c60448201527f6c6564207468726f7567682064656c656761746563616c6c00000000000000006064820152608401610851565b506000805160206132dd83398151915290565b6101c4546001600160a01b0316806110bd576040516371724ffd60e01b815260040160405180910390fd5b806001600160a01b03811663c3c2ebbb336040516001600160e01b031960e084901b1681526001600160a01b039091166004820152602401602060405180830381865afa158015611112573d6000803e3d6000fd5b505050506040513d601f19601f820116820180604052508101906111369190612eef565b6111535760405163ba80c9e560e01b815260040160405180910390fd5b6101fa611160848261304f565b50505050565b6000818152606760205260408120546001600160a01b0316806106625760405162461bcd60e51b8152602060048201526018602482015277115490cdcc8c4e881a5b9d985b1a59081d1bdad95b88125160421b6044820152606401610851565b60006001600160a01b0382166112305760405162461bcd60e51b815260206004820152602960248201527f4552433732313a2061646472657373207a65726f206973206e6f7420612076616044820152683634b21037bbb732b960b91b6064820152608401610851565b506001600160a01b031660009081526068602052604090205490565b611254611b55565b61125e6000611bb0565b565b6101c4546001600160a01b03168061128b576040516371724ffd60e01b815260040160405180910390fd5b806001600160a01b03811663c3c2ebbb336040516001600160e01b031960e084901b1681526001600160a01b039091166004820152602401602060405180830381865afa1580156112e0573d6000803e3d6000fd5b505050506040513d601f19601f820116820180604052508101906113049190612eef565b6113215760405163ba80c9e560e01b815260040160405180910390fd5b6001600160a01b0383166113485760405163d92e233d60e01b815260040160405180910390fd5b6101f780546001600160a01b0385166001600160a01b031991821681179092556101f88054909116821790556040513091907f9a2cdaf1a28a88ccd359d6abc6a27d4856d16459aafb0aae34c1296bab5b63fb90600090a3505050565b60606066805461067790612eb5565b6101fa80546113c290612eb5565b80601f01602080910402602001604051908101604052809291908181526020018280546113ee90612eb5565b801561143b5780601f106114105761010080835404028352916020019161143b565b820191906000526020600020905b81548152906001019060200180831161141e57829003601f168201915b505050505081565b610e33338383611c03565b61145833836117cf565b6114745760405162461bcd60e51b815260040161085190612f0c565b61116084848484611cd1565b606061066282611d04565b6101c3546001600160a01b03166114b55760405163821e0eeb60e01b815260040160405180910390fd5b6101c3546001600160a01b031633146114e157604051634128496760e01b815260040160405180910390fd5b6101c380546101c480546001600160a01b0383166001600160a01b031991821681179092556101c580548216909217909155169055565b611520611b55565b6001600160a01b0381166115855760405162461bcd60e51b815260206004820152602660248201527f4f776e61626c653a206e6577206f776e657220697320746865207a65726f206160448201526564647265737360d01b6064820152608401610851565b610cf381611bb0565b60006001600160e01b03198216632483248360e11b1480610662575061066282611dff565b600054610100900460ff166115da5760405162461bcd60e51b81526004016108519061310f565b610e338282611e24565b600054610100900460ff1661125e5760405162461bcd60e51b81526004016108519061310f565b600054610100900460ff166116325760405162461bcd60e51b81526004016108519061310f565b61125e611e64565b600054610100900460ff166116615760405162461bcd60e51b81526004016108519061310f565b61125e611e94565b600054610100900460ff166116905760405162461bcd60e51b81526004016108519061310f565b6001600160a01b0381166116b75760405163d92e233d60e01b815260040160405180910390fd5b6101c480546001600160a01b0319166001600160a01b0383169081179091556040517f72609421458389ee9c5f42d2ead41eecce3b39daf473d94de7f1ec1a9b593a0090600090a250565b6000818152606760205260409020546001600160a01b0316610cf35760405162461bcd60e51b8152602060048201526018602482015277115490cdcc8c4e881a5b9d985b1a59081d1bdad95b88125160421b6044820152606401610851565b600081815260696020526040902080546001600160a01b0319166001600160a01b038416908117909155819061179682611166565b6001600160a01b03167f8c5be1e5ebec7d5bd14f71427d1e84f3dd0314c0f7b2291e5b200ac8c7c3b92560405160405180910390a45050565b6000806117db83611166565b9050806001600160a01b0316846001600160a01b0316148061182257506001600160a01b038082166000908152606a602090815260408083209388168352929052205460ff165b806118465750836001600160a01b031661183b84610906565b6001600160a01b0316145b949350505050565b826001600160a01b031661186182611166565b6001600160a01b0316146118875760405162461bcd60e51b81526004016108519061315a565b6001600160a01b0382166118e95760405162461bcd60e51b8152602060048201526024808201527f4552433732313a207472616e7366657220746f20746865207a65726f206164646044820152637265737360e01b6064820152608401610851565b6118f68383836001611ecb565b826001600160a01b031661190982611166565b6001600160a01b03161461192f5760405162461bcd60e51b81526004016108519061315a565b600081815260696020908152604080832080546001600160a01b03199081169091556001600160a01b0387811680865260688552838620805460001901905590871680865283862080546001019055868652606790945282852080549092168417909155905184937fddf252ad1be2c89b69c2b068fc378daa952ba7f163c4a11628f55a4df523b3ef91a4505050565b610cf3611b55565b7f4910fdfa16fed3260ed0e7147f7cc6da11a60208b5b9406d12a635614ffd91435460ff16156119fa57610a3d83611fbf565b826001600160a01b03166352d1902d6040518163ffffffff1660e01b8152600401602060405180830381865afa925050508015611a54575060408051601f3d908101601f19168201909252611a519181019061319f565b60015b611ab75760405162461bcd60e51b815260206004820152602e60248201527f45524331393637557067726164653a206e657720696d706c656d656e7461746960448201526d6f6e206973206e6f74205555505360901b6064820152608401610851565b6000805160206132dd8339815191528114611b265760405162461bcd60e51b815260206004820152602960248201527f45524331393637557067726164653a20756e737570706f727465642070726f786044820152681a58589b195555525160ba1b6064820152608401610851565b50610a3d83838361205b565b610e33828260405180602001604052806000815250612080565b610cf3816120b3565b61012d546001600160a01b0316331461125e5760405162461bcd60e51b815260206004820181905260248201527f4f776e61626c653a2063616c6c6572206973206e6f7420746865206f776e65726044820152606401610851565b61012d80546001600160a01b038381166001600160a01b0319831681179093556040519116919082907f8be0079c531659141344cd1fd0a4f28419497f9722a3daafe3b4186f6b6457e090600090a35050565b816001600160a01b0316836001600160a01b031603611c645760405162461bcd60e51b815260206004820152601960248201527f4552433732313a20617070726f766520746f2063616c6c6572000000000000006044820152606401610851565b6001600160a01b038381166000818152606a6020908152604080832094871680845294825291829020805460ff191686151590811790915591519182527f17307eab39ab6107e8899845ad3d59bd9653f200f220920489ca2b5937696c31910160405180910390a3505050565b611cdc84848461184e565b611ce8848484846120f3565b6111605760405162461bcd60e51b8152600401610851906131b8565b6060611d0f82611702565b600082815260c9602052604081208054611d2890612eb5565b80601f0160208091040260200160405190810160405280929190818152602001828054611d5490612eb5565b8015611da15780601f10611d7657610100808354040283529160200191611da1565b820191906000526020600020905b815481529060010190602001808311611d8457829003601f168201915b505050505090506000611db26121f4565b90508051600003611dc4575092915050565b815115611df6578082604051602001611dde92919061320a565b60405160208183030381529060405292505050919050565b61184684612204565b60006001600160e01b0319821663780e9d6360e01b148061066257506106628261226b565b600054610100900460ff16611e4b5760405162461bcd60e51b81526004016108519061310f565b6065611e57838261304f565b506066610a3d828261304f565b600054610100900460ff16611e8b5760405162461bcd60e51b81526004016108519061310f565b61125e33611bb0565b600054610100900460ff16611ebb5760405162461bcd60e51b81526004016108519061310f565b6101c5805460ff60a01b19169055565b6101f8546001600160a01b039081169063e802b52390861615611ef657611ef1866111c6565b611ef9565b60005b6001600160a01b03861615611f1657611f11866111c6565b611f19565b60005b8787336040516001600160e01b031960e088901b168152600481019590955260248501939093526001600160a01b0391821660448501528116606484015216608482015260a4810185905260c4016020604051808303816000875af1158015611f86573d6000803e3d6000fd5b505050506040513d601f19601f82011682018060405250810190611faa9190612eef565b611fb357600080fd5b611160848484846122bb565b6001600160a01b0381163b61202c5760405162461bcd60e51b815260206004820152602d60248201527f455243313936373a206e657720696d706c656d656e746174696f6e206973206e60448201526c1bdd08184818dbdb9d1c9858dd609a1b6064820152608401610851565b6000805160206132dd83398151915280546001600160a01b0319166001600160a01b0392909216919091179055565b612064836123ef565b6000825111806120715750805b15610a3d57611160838361242f565b61208a8383612454565b61209760008484846120f3565b610a3d5760405162461bcd60e51b8152600401610851906131b8565b6120bc816125ed565b600081815260c96020526040902080546120d590612eb5565b159050610cf357600081815260c960205260408120610cf391612aa1565b60006001600160a01b0384163b156121e957604051630a85bd0160e11b81526001600160a01b0385169063150b7a0290612137903390899088908890600401613239565b6020604051808303816000875af1925050508015612172575060408051601f3d908101601f1916820190925261216f9181019061326c565b60015b6121cf573d8080156121a0576040519150601f19603f3d011682016040523d82523d6000602084013e6121a5565b606091505b5080516000036121c75760405162461bcd60e51b8152600401610851906131b8565b805181602001fd5b6001600160e01b031916630a85bd0160e11b149050611846565b506001949350505050565b60606101fa805461067790612eb5565b606061220f82611702565b60006122196121f4565b905060008151116122395760405180602001604052806000815250612264565b8061224384612690565b60405160200161225492919061320a565b6040516020818303038152906040525b9392505050565b60006001600160e01b031982166380ac58cd60e01b148061229c57506001600160e01b03198216635b5e139f60e01b145b8061066257506301ffc9a760e01b6001600160e01b0319831614610662565b600181111561232a5760405162461bcd60e51b815260206004820152603560248201527f455243373231456e756d657261626c653a20636f6e7365637574697665207472604482015274185b9cd9995c9cc81b9bdd081cdd5c1c1bdc9d1959605a1b6064820152608401610851565b816001600160a01b0385166123865761238181609980546000838152609a60205260408120829055600182018355919091527f72a152ddfb8e864297c917af52ea6c1c68aead0fee1a62673fcc7e0c94979d000155565b6123a9565b836001600160a01b0316856001600160a01b0316146123a9576123a98582612723565b6001600160a01b0384166123c5576123c0816127c0565b6123e8565b846001600160a01b0316846001600160a01b0316146123e8576123e8848261286f565b5050505050565b6123f881611fbf565b6040516001600160a01b038216907fbc7cd75a20ee27fd9adebab32041f755214dbc6bffa90cc0225b39da2e5c2d3b90600090a250565b606061226483836040518060600160405280602781526020016132fd602791396128b3565b6001600160a01b0382166124aa5760405162461bcd60e51b815260206004820181905260248201527f4552433732313a206d696e7420746f20746865207a65726f20616464726573736044820152606401610851565b6000818152606760205260409020546001600160a01b03161561250f5760405162461bcd60e51b815260206004820152601c60248201527f4552433732313a20746f6b656e20616c7265616479206d696e746564000000006044820152606401610851565b61251d600083836001611ecb565b6000818152606760205260409020546001600160a01b0316156125825760405162461bcd60e51b815260206004820152601c60248201527f4552433732313a20746f6b656e20616c7265616479206d696e746564000000006044820152606401610851565b6001600160a01b038216600081815260686020908152604080832080546001019055848352606790915280822080546001600160a01b0319168417905551839291907fddf252ad1be2c89b69c2b068fc378daa952ba7f163c4a11628f55a4df523b3ef908290a45050565b60006125f882611166565b9050612608816000846001611ecb565b61261182611166565b600083815260696020908152604080832080546001600160a01b03199081169091556001600160a01b0385168085526068845282852080546000190190558785526067909352818420805490911690555192935084927fddf252ad1be2c89b69c2b068fc378daa952ba7f163c4a11628f55a4df523b3ef908390a45050565b6060600061269d8361292b565b600101905060008167ffffffffffffffff8111156126bd576126bd612b85565b6040519080825280601f01601f1916602001820160405280156126e7576020820181803683370190505b5090508181016020015b600019016f181899199a1a9b1b9c1cb0b131b232b360811b600a86061a8153600a85049450846126f157509392505050565b60006001612730846111c6565b61273a9190613289565b60008381526098602052604090205490915080821461278d576001600160a01b03841660009081526097602090815260408083208584528252808320548484528184208190558352609890915290208190555b5060009182526098602090815260408084208490556001600160a01b039094168352609781528383209183525290812055565b6099546000906127d290600190613289565b6000838152609a6020526040812054609980549394509092849081106127fa576127fa612ff1565b90600052602060002001549050806099838154811061281b5761281b612ff1565b6000918252602080832090910192909255828152609a90915260408082208490558582528120556099805480612853576128536132aa565b6001900381819060005260206000200160009055905550505050565b600061287a836111c6565b6001600160a01b039093166000908152609760209081526040808320868452825280832085905593825260989052919091209190915550565b6060600080856001600160a01b0316856040516128d091906132c0565b600060405180830381855af49150503d806000811461290b576040519150601f19603f3d011682016040523d82523d6000602084013e612910565b606091505b509150915061292186838387612a03565b9695505050505050565b60008072184f03e93ff9f4daa797ed6e38ed64bf6a1f0160401b831061296a5772184f03e93ff9f4daa797ed6e38ed64bf6a1f0160401b830492506040015b6d04ee2d6d415b85acef81000000008310612996576d04ee2d6d415b85acef8100000000830492506020015b662386f26fc1000083106129b457662386f26fc10000830492506010015b6305f5e10083106129cc576305f5e100830492506008015b61271083106129e057612710830492506004015b606483106129f2576064830492506002015b600a83106106625760010192915050565b60608315612a72578251600003612a6b576001600160a01b0385163b612a6b5760405162461bcd60e51b815260206004820152601d60248201527f416464726573733a2063616c6c20746f206e6f6e2d636f6e74726163740000006044820152606401610851565b5081611846565b6118468383815115612a875781518083602001fd5b8060405162461bcd60e51b81526004016108519190612b72565b508054612aad90612eb5565b6000825580601f10612abd575050565b601f016020900490600052602060002090810190610cf391905b80821115612aeb5760008155600101612ad7565b5090565b6001600160e01b031981168114610cf357600080fd5b600060208284031215612b1757600080fd5b813561226481612aef565b60005b83811015612b3d578181015183820152602001612b25565b50506000910152565b60008151808452612b5e816020860160208601612b22565b601f01601f19169290920160200192915050565b6020815260006122646020830184612b46565b634e487b7160e01b600052604160045260246000fd5b600082601f830112612bac57600080fd5b813567ffffffffffffffff80821115612bc757612bc7612b85565b604051601f8301601f19908116603f01168101908282118183101715612bef57612bef612b85565b81604052838152866020858801011115612c0857600080fd5b836020870160208301376000602085830101528094505050505092915050565b80356001600160a01b0381168114612c3f57600080fd5b919050565b600080600060608486031215612c5957600080fd5b833567ffffffffffffffff80821115612c7157600080fd5b612c7d87838801612b9b565b94506020860135915080821115612c9357600080fd5b50612ca086828701612b9b565b925050612caf60408501612c28565b90509250925092565b600060208284031215612cca57600080fd5b5035919050565b60008060408385031215612ce457600080fd5b612ced83612c28565b946020939093013593505050565b600060208284031215612d0d57600080fd5b61226482612c28565b600080600060608486031215612d2b57600080fd5b612d3484612c28565b9250612d4260208501612c28565b9150604084013590509250925092565b60008060408385031215612d6557600080fd5b612d6e83612c28565b9150602083013567ffffffffffffffff811115612d8a57600080fd5b612d9685828601612b9b565b9150509250929050565b600060208284031215612db257600080fd5b813567ffffffffffffffff811115612dc957600080fd5b61184684828501612b9b565b8015158114610cf357600080fd5b60008060408385031215612df657600080fd5b612dff83612c28565b91506020830135612e0f81612dd5565b809150509250929050565b60008060008060808587031215612e3057600080fd5b612e3985612c28565b9350612e4760208601612c28565b925060408501359150606085013567ffffffffffffffff811115612e6a57600080fd5b612e7687828801612b9b565b91505092959194509250565b60008060408385031215612e9557600080fd5b612e9e83612c28565b9150612eac60208401612c28565b90509250929050565b600181811c90821680612ec957607f821691505b602082108103612ee957634e487b7160e01b600052602260045260246000fd5b50919050565b600060208284031215612f0157600080fd5b815161226481612dd5565b6020808252602d908201527f4552433732313a2063616c6c6572206973206e6f7420746f6b656e206f776e6560408201526c1c881bdc88185c1c1c9bdd9959609a1b606082015260800190565b6020808252602c908201527f46756e6374696f6e206d7573742062652063616c6c6564207468726f7567682060408201526b19195b1959d85d1958d85b1b60a21b606082015260800190565b6020808252602c908201527f46756e6374696f6e206d7573742062652063616c6c6564207468726f7567682060408201526b6163746976652070726f787960a01b606082015260800190565b634e487b7160e01b600052603260045260246000fd5b601f821115610a3d576000816000526020600020601f850160051c810160208610156130305750805b601f850160051c820191505b818110156108fe5782815560010161303c565b815167ffffffffffffffff81111561306957613069612b85565b61307d816130778454612eb5565b84613007565b602080601f8311600181146130b2576000841561309a5750858301515b600019600386901b1c1916600185901b1785556108fe565b600085815260208120601f198616915b828110156130e1578886015182559484019460019091019084016130c2565b50858210156130ff5787850151600019600388901b60f8161c191681555b5050505050600190811b01905550565b6020808252602b908201527f496e697469616c697a61626c653a20636f6e7472616374206973206e6f74206960408201526a6e697469616c697a696e6760a81b606082015260800190565b60208082526025908201527f4552433732313a207472616e736665722066726f6d20696e636f72726563742060408201526437bbb732b960d91b606082015260800190565b6000602082840312156131b157600080fd5b5051919050565b60208082526032908201527f4552433732313a207472616e7366657220746f206e6f6e20455243373231526560408201527131b2b4bb32b91034b6b83632b6b2b73a32b960711b606082015260800190565b6000835161321c818460208801612b22565b835190830190613230818360208801612b22565b01949350505050565b6001600160a01b038581168252841660208201526040810183905260806060820181905260009061292190830184612b46565b60006020828403121561327e57600080fd5b815161226481612aef565b8181038181111561066257634e487b7160e01b600052601160045260246000fd5b634e487b7160e01b600052603160045260246000fd5b600082516132d2818460208701612b22565b919091019291505056fe360894a13ba1a3210667c828492db98dca3e2076cc3735a920a3ca505d382bbc416464726573733a206c6f772d6c6576656c2064656c65676174652063616c6c206661696c6564a264697066735822122004462d0432a4dac7c4bd775f37b787ffdf6fd62f9afc5874f20b5dbae1331f2a64736f6c63430008180033","linkReferences":{}},"methodIdentifiers":{"approve(address,uint256)":"095ea7b3","balanceOf(address)":"70a08231","baseUri()":"9abc8320","burn(uint256)":"42966c68","confirmAppManagerAddress()":"cdccb27a","connectHandlerToToken(address)":"71af85e0","getAppManagerAddress()":"4c330077","getApproved(uint256)":"081812fc","getHandlerAddress()":"6f9c83b8","handlerAddress()":"6fd7d970","initialize(string,string,address)":"077f224a","isApprovedForAll(address,address)":"e985e9c5","name()":"06fdde03","owner()":"8da5cb5b","ownerOf(uint256)":"6352211e","paused()":"5c975abb","proposeAppManagerAddress(address)":"11280cb5","proxiableUUID()":"52d1902d","renounceOwnership()":"715018a6","safeMint(address)":"40d097c3","safeTransferFrom(address,address,uint256)":"42842e0e","safeTransferFrom(address,address,uint256,bytes)":"b88d4fde","setApprovalForAll(address,bool)":"a22cb465","setBaseURI(string)":"55f804b3","supportsInterface(bytes4)":"01ffc9a7","symbol()":"95d89b41","tokenByIndex(uint256)":"4f6ccce7","tokenOfOwnerByIndex(address,uint256)":"2f745c59","tokenURI(uint256)":"c87b56dd","totalSupply()":"18160ddd","transferFrom(address,address,uint256)":"23b872dd","transferOwnership(address)":"f2fde38b","upgradeTo(address)":"3659cfe6","upgradeToAndCall(address,bytes)":"4f1ef286","withdraw()":"3ccfd60b"},"id":329}