{"abi":[{"type":"function","name":"checkMinMaxAccountBalanceERC721","inputs":[{"name":"ruleId","type":"uint32","internalType":"uint32"},{"name":"balanceFrom","type":"uint256","internalType":"uint256"},{"name":"balanceTo","type":"uint256","internalType":"uint256"},{"name":"toTags","type":"bytes32[]","internalType":"bytes32[]"},{"name":"fromTags","type":"bytes32[]","internalType":"bytes32[]"}],"outputs":[],"stateMutability":"view"},{"type":"function","name":"checkTokenMaxDailyTrades","inputs":[{"name":"ruleId","type":"uint32","internalType":"uint32"},{"name":"transfersWithinPeriod","type":"uint256","internalType":"uint256"},{"name":"nftTags","type":"bytes32[]","internalType":"bytes32[]"},{"name":"lastTransferTime","type":"uint64","internalType":"uint64"}],"outputs":[{"name":"","type":"uint256","internalType":"uint256"}],"stateMutability":"view"},{"type":"function","name":"getAccountMinMaxTokenBalanceERC721","inputs":[{"name":"_index","type":"uint32","internalType":"uint32"},{"name":"_nftTag","type":"bytes32","internalType":"bytes32"}],"outputs":[{"name":"","type":"tuple","internalType":"struct ITaggedRules.AccountMinMaxTokenBalance","components":[{"name":"min","type":"uint256","internalType":"uint256"},{"name":"max","type":"uint256","internalType":"uint256"},{"name":"period","type":"uint16","internalType":"uint16"}]}],"stateMutability":"view"},{"type":"function","name":"getTokenMaxDailyTrades","inputs":[{"name":"_index","type":"uint32","internalType":"uint32"},{"name":"_nftType","type":"bytes32","internalType":"bytes32"}],"outputs":[{"name":"","type":"tuple","internalType":"struct ITaggedRules.TokenMaxDailyTrades","components":[{"name":"tradesAllowedPerDay","type":"uint8","internalType":"uint8"},{"name":"startTime","type":"uint64","internalType":"uint64"}]}],"stateMutability":"view"},{"type":"function","name":"getTotalAccountMinMaxTokenBalancesERC721","inputs":[],"outputs":[{"name":"","type":"uint32","internalType":"uint32"}],"stateMutability":"view"},{"type":"function","name":"getTotalTokenMaxDailyTrades","inputs":[],"outputs":[{"name":"","type":"uint32","internalType":"uint32"}],"stateMutability":"view"},{"type":"error","name":"CantMixPeriodicAndNonPeriodic","inputs":[]},{"type":"error","name":"IndexOutOfRange","inputs":[]},{"type":"error","name":"InputArraysMustHaveSameLength","inputs":[]},{"type":"error","name":"InputArraysSizesNotValid","inputs":[]},{"type":"error","name":"InvalidOracleType","inputs":[{"name":"_type","type":"uint8","internalType":"uint8"}]},{"type":"error","name":"InvalidRuleInput","inputs":[]},{"type":"error","name":"InvertedLimits","inputs":[]},{"type":"error","name":"MaxTagLimitReached","inputs":[]},{"type":"error","name":"MaxTagLimitReached","inputs":[]},{"type":"error","name":"NotEnoughBalance","inputs":[]},{"type":"error","name":"OverMaxBalance","inputs":[]},{"type":"error","name":"OverMaxDailyTrades","inputs":[]},{"type":"error","name":"OverMaxSellSize","inputs":[]},{"type":"error","name":"RuleDoesNotExist","inputs":[]},{"type":"error","name":"RuleDoesNotExist","inputs":[]},{"type":"error","name":"TxnInFreezeWindow","inputs":[]},{"type":"error","name":"UnderHoldPeriod","inputs":[]},{"type":"error","name":"UnderMinBalance","inputs":[]},{"type":"error","name":"ValueOutOfRange","inputs":[{"name":"_value","type":"uint256","internalType":"uint256"}]},{"type":"error","name":"WrongArrayOrder","inputs":[]},{"type":"error","name":"ZeroValueNotPermited","inputs":[]}],"bytecode":{"object":"0x608060405234801561001057600080fd5b50610944806100206000396000f3fe608060405234801561001057600080fd5b50600436106100625760003560e01c806343377141146100675780636d2a6bec1461007c57806392a0cf52146100bc578063bca9c7bc146100f5578063c93ebde014610116578063ee226bc414610133575b600080fd5b61007a61007536600461074e565b61013b565b005b61008f61008a3660046107d6565b6101c4565b60408051825160ff16815260209283015167ffffffffffffffff1692810192909252015b60405180910390f35b6100cf6100ca3660046107d6565b61024c565b6040805182518152602080840151908201529181015161ffff16908201526060016100b3565b610108610103366004610800565b610315565b6040519081526020016100b3565b61011e610446565b60405163ffffffff90911681526020016100b3565b61011e610461565b6101448161047c565b61014d8261047c565b600061015a86600061024c565b6020015111156101a757604080516001808252818301909252906020808301908036833701905050915060008260008151811061019957610199610872565b602090810291909101015250805b6101b28482876104a2565b6101bd838387610512565b5050505050565b604080518082019091526000808252602082015260006101e2610573565b90506101ff6101ef610461565b63ffffffff80871691906105a116565b63ffffffff841660009081526020918252604080822085835283529081902081518083019092525460ff81168252610100900467ffffffffffffffff169181019190915290505b92915050565b61027460405180606001604052806000815260200160008152602001600061ffff1681525090565b61028f61027f610446565b63ffffffff80861691906105a116565b60006102996105d1565b600281015490915063ffffffff908116908516106102ca57604051631390f2a160e01b815260040160405180910390fd5b63ffffffff84166000908152602091825260408082208583528352908190208151606081018352815481526001820154938101939093526002015461ffff1690820152905092915050565b60006103208361047c565b60008061032e8760006101c4565b6020015167ffffffffffffffff16111561038457604080516001808252818301909252906020808301908036833701905050935060008460008151811061037757610377610872565b6020026020010181815250505b60005b845181101561043c578481815181106103a2576103a2610872565b50506000915060006103cd888784815181106103c0576103c0610872565b60200260200101516101c4565b8051602082015191925060189160ff909116906103f59067ffffffffffffffff1683896105ff565b61040057600161040b565b61040b89600161089e565b94508085111561042e576040516309a92f2d60e01b815260040160405180910390fd5b836001019350505050610387565b5095945050505050565b6000806104516105d1565b6002015463ffffffff1692915050565b60008061046c610573565b6001015463ffffffff1692915050565b8051600a101561049f576040516351d7d97160e11b815260040160405180910390fd5b50565b60005b825181101561050c5760006104d3838584815181106104c6576104c6610872565b602002602001015161024c565b51905080158015906104e55750808511155b1561050357604051631f11bcbb60e11b815260040160405180910390fd5b506001016104a5565b50505050565b60005b825181101561050c576000610536838584815181106104c6576104c6610872565b60200151905060008111801561054c5750808510155b1561056a576040516307695a9160e21b815260040160405180910390fd5b50600101610515565b60008061024660017f5f3e73a83d0712e1b13444a98d0279e8921ea9760d8491b3bab0cf95044a4a4f6108b1565b8163ffffffff168163ffffffff16116105cd576040516325ef9da360e11b815260040160405180910390fd5b5050565b60008061024660017f57f022a955ea4a82d6829b2369e82ccc92e1e803cd0f0f5669038f7b6e994fc66108b1565b60008167ffffffffffffffff1660000361061b5750600061067a565b600061062984610e106108c4565b63ffffffff1661064367ffffffffffffffff8716426108b1565b61064d91906108ec565b61065790426108b1565b9050808367ffffffffffffffff161061067457600191505061067a565b60009150505b9392505050565b803563ffffffff8116811461069557600080fd5b919050565b634e487b7160e01b600052604160045260246000fd5b600082601f8301126106c157600080fd5b8135602067ffffffffffffffff808311156106de576106de61069a565b8260051b604051601f19603f830116810181811084821117156107035761070361069a565b604052938452602081870181019490810192508785111561072357600080fd5b6020870191505b848210156107435781358352918301919083019061072a565b979650505050505050565b600080600080600060a0868803121561076657600080fd5b61076f86610681565b94506020860135935060408601359250606086013567ffffffffffffffff8082111561079a57600080fd5b6107a689838a016106b0565b935060808801359150808211156107bc57600080fd5b506107c9888289016106b0565b9150509295509295909350565b600080604083850312156107e957600080fd5b6107f283610681565b946020939093013593505050565b6000806000806080858703121561081657600080fd5b61081f85610681565b935060208501359250604085013567ffffffffffffffff8082111561084357600080fd5b61084f888389016106b0565b935060608701359150808216821461086657600080fd5b50939692955090935050565b634e487b7160e01b600052603260045260246000fd5b634e487b7160e01b600052601160045260246000fd5b8082018082111561024657610246610888565b8181038181111561024657610246610888565b63ffffffff8181168382160280821691908281146108e4576108e4610888565b505092915050565b60008261090957634e487b7160e01b600052601260045260246000fd5b50069056fea26469706673582212209609bd596fbdc951aab6dfc1caec738902cd51910f292cc24d15325fcd855bb464736f6c63430008180033","linkReferences":{}},"methodIdentifiers":{"checkMinMaxAccountBalanceERC721(uint32,uint256,uint256,bytes32[],bytes32[])":"43377141","checkTokenMaxDailyTrades(uint32,uint256,bytes32[],uint64)":"bca9c7bc","getAccountMinMaxTokenBalanceERC721(uint32,bytes32)":"92a0cf52","getTokenMaxDailyTrades(uint32,bytes32)":"6d2a6bec","getTotalAccountMinMaxTokenBalancesERC721()":"c93ebde0","getTotalTokenMaxDailyTrades()":"ee226bc4"},"id":234}