{"abi":[{"type":"constructor","inputs":[{"name":"_actors","type":"address[]","internalType":"contract RuleStorageAccountMaxTxValueByRiskScoreActor[]"}],"stateMutability":"nonpayable"},{"type":"function","name":"addAccountMaxTxValueByRiskScore","inputs":[{"name":"_handlerIndex","type":"uint8","internalType":"uint8"},{"name":"_maxValue","type":"uint48","internalType":"uint48"},{"name":"_riskScore","type":"uint8","internalType":"uint8"},{"name":"_period","type":"uint16","internalType":"uint16"}],"outputs":[],"stateMutability":"nonpayable"},{"type":"function","name":"excludeArtifacts","inputs":[],"outputs":[{"name":"excludedArtifacts_","type":"string[]","internalType":"string[]"}],"stateMutability":"view"},{"type":"function","name":"excludeContracts","inputs":[],"outputs":[{"name":"excludedContracts_","type":"address[]","internalType":"address[]"}],"stateMutability":"view"},{"type":"function","name":"excludeSenders","inputs":[],"outputs":[{"name":"excludedSenders_","type":"address[]","internalType":"address[]"}],"stateMutability":"view"},{"type":"function","name":"failed","inputs":[],"outputs":[{"name":"","type":"bool","internalType":"bool"}],"stateMutability":"view"},{"type":"function","name":"targetArtifactSelectors","inputs":[],"outputs":[{"name":"targetedArtifactSelectors_","type":"tuple[]","internalType":"struct StdInvariant.FuzzSelector[]","components":[{"name":"addr","type":"address","internalType":"address"},{"name":"selectors","type":"bytes4[]","internalType":"bytes4[]"}]}],"stateMutability":"view"},{"type":"function","name":"targetArtifacts","inputs":[],"outputs":[{"name":"targetedArtifacts_","type":"string[]","internalType":"string[]"}],"stateMutability":"view"},{"type":"function","name":"targetContracts","inputs":[],"outputs":[{"name":"targetedContracts_","type":"address[]","internalType":"address[]"}],"stateMutability":"view"},{"type":"function","name":"targetInterfaces","inputs":[],"outputs":[{"name":"targetedInterfaces_","type":"tuple[]","internalType":"struct StdInvariant.FuzzInterface[]","components":[{"name":"addr","type":"address","internalType":"address"},{"name":"artifacts","type":"string[]","internalType":"string[]"}]}],"stateMutability":"view"},{"type":"function","name":"targetSelectors","inputs":[],"outputs":[{"name":"targetedSelectors_","type":"tuple[]","internalType":"struct StdInvariant.FuzzSelector[]","components":[{"name":"addr","type":"address","internalType":"address"},{"name":"selectors","type":"bytes4[]","internalType":"bytes4[]"}]}],"stateMutability":"view"},{"type":"function","name":"targetSenders","inputs":[],"outputs":[{"name":"targetedSenders_","type":"address[]","internalType":"address[]"}],"stateMutability":"view"},{"type":"event","name":"log","inputs":[{"name":"","type":"string","indexed":false,"internalType":"string"}],"anonymous":false},{"type":"event","name":"log_address","inputs":[{"name":"","type":"address","indexed":false,"internalType":"address"}],"anonymous":false},{"type":"event","name":"log_array","inputs":[{"name":"val","type":"uint256[]","indexed":false,"internalType":"uint256[]"}],"anonymous":false},{"type":"event","name":"log_array","inputs":[{"name":"val","type":"int256[]","indexed":false,"internalType":"int256[]"}],"anonymous":false},{"type":"event","name":"log_array","inputs":[{"name":"val","type":"address[]","indexed":false,"internalType":"address[]"}],"anonymous":false},{"type":"event","name":"log_bytes","inputs":[{"name":"","type":"bytes","indexed":false,"internalType":"bytes"}],"anonymous":false},{"type":"event","name":"log_bytes32","inputs":[{"name":"","type":"bytes32","indexed":false,"internalType":"bytes32"}],"anonymous":false},{"type":"event","name":"log_int","inputs":[{"name":"","type":"int256","indexed":false,"internalType":"int256"}],"anonymous":false},{"type":"event","name":"log_named_address","inputs":[{"name":"key","type":"string","indexed":false,"internalType":"string"},{"name":"val","type":"address","indexed":false,"internalType":"address"}],"anonymous":false},{"type":"event","name":"log_named_array","inputs":[{"name":"key","type":"string","indexed":false,"internalType":"string"},{"name":"val","type":"uint256[]","indexed":false,"internalType":"uint256[]"}],"anonymous":false},{"type":"event","name":"log_named_array","inputs":[{"name":"key","type":"string","indexed":false,"internalType":"string"},{"name":"val","type":"int256[]","indexed":false,"internalType":"int256[]"}],"anonymous":false},{"type":"event","name":"log_named_array","inputs":[{"name":"key","type":"string","indexed":false,"internalType":"string"},{"name":"val","type":"address[]","indexed":false,"internalType":"address[]"}],"anonymous":false},{"type":"event","name":"log_named_bytes","inputs":[{"name":"key","type":"string","indexed":false,"internalType":"string"},{"name":"val","type":"bytes","indexed":false,"internalType":"bytes"}],"anonymous":false},{"type":"event","name":"log_named_bytes32","inputs":[{"name":"key","type":"string","indexed":false,"internalType":"string"},{"name":"val","type":"bytes32","indexed":false,"internalType":"bytes32"}],"anonymous":false},{"type":"event","name":"log_named_decimal_int","inputs":[{"name":"key","type":"string","indexed":false,"internalType":"string"},{"name":"val","type":"int256","indexed":false,"internalType":"int256"},{"name":"decimals","type":"uint256","indexed":false,"internalType":"uint256"}],"anonymous":false},{"type":"event","name":"log_named_decimal_uint","inputs":[{"name":"key","type":"string","indexed":false,"internalType":"string"},{"name":"val","type":"uint256","indexed":false,"internalType":"uint256"},{"name":"decimals","type":"uint256","indexed":false,"internalType":"uint256"}],"anonymous":false},{"type":"event","name":"log_named_int","inputs":[{"name":"key","type":"string","indexed":false,"internalType":"string"},{"name":"val","type":"int256","indexed":false,"internalType":"int256"}],"anonymous":false},{"type":"event","name":"log_named_string","inputs":[{"name":"key","type":"string","indexed":false,"internalType":"string"},{"name":"val","type":"string","indexed":false,"internalType":"string"}],"anonymous":false},{"type":"event","name":"log_named_uint","inputs":[{"name":"key","type":"string","indexed":false,"internalType":"string"},{"name":"val","type":"uint256","indexed":false,"internalType":"uint256"}],"anonymous":false},{"type":"event","name":"log_string","inputs":[{"name":"","type":"string","indexed":false,"internalType":"string"}],"anonymous":false},{"type":"event","name":"log_uint","inputs":[{"name":"","type":"uint256","indexed":false,"internalType":"uint256"}],"anonymous":false},{"type":"event","name":"logs","inputs":[{"name":"","type":"bytes","indexed":false,"internalType":"bytes"}],"anonymous":false}],"bytecode":{"object":"0x6080604052600c805460ff19166001179055601e80546001600160a01b031990811662dabeef17909155601f8054821661dead179055602080548216610aaa17905560218054821661acdc178155602280548316610bbb179055602380548316610ccc179055602480548316610ddd9081179091556025805484169091179055602680548316610b0b179055602780548316600b17905560288054831660161790556029805483169091179055602a80548216602c908117909155602b80548316603790811790915581548316604217909155602d80548316604d178155602e805484166058179055602f8054841660631790556030805484166064179055603180548416606e17905560328054841660031790556033805484169091179055603480548316610313179055603580548316604b179055603680548316610a331790558054821662adde55179055603880549091166102221790553480156200016757600080fd5b5060405162001383380380620013838339810160408190526200018a916200025b565b80516200019f90603b906020840190620001a7565b50506200032d565b828054828255906000526020600020908101928215620001ff579160200282015b82811115620001ff57825182546001600160a01b0319166001600160a01b03909116178255602090920191600190910190620001c8565b506200020d92915062000211565b5090565b5b808211156200020d576000815560010162000212565b634e487b7160e01b600052604160045260246000fd5b80516001600160a01b03811681146200025657600080fd5b919050565b600060208083850312156200026f57600080fd5b82516001600160401b03808211156200028757600080fd5b818501915085601f8301126200029c57600080fd5b815181811115620002b157620002b162000228565b8060051b604051601f19603f83011681018181108582111715620002d957620002d962000228565b604052918252848201925083810185019188831115620002f857600080fd5b938501935b82851015620003215762000311856200023e565b84529385019392850192620002fd565b98975050505050505050565b611046806200033d6000396000f3fe608060405234801561001057600080fd5b50600436106100a95760003560e01c806385226c811161007157806385226c8114610106578063916a17c61461011b578063b5508aa914610123578063ba414fa61461012b578063d1fda47c14610143578063e20c9f711461015857600080fd5b80631ed7831c146100ae5780632ade3880146100cc5780633e5e3c23146100e15780633f7286f4146100e957806366d9a9a0146100f1575b600080fd5b6100b6610160565b6040516100c39190610c0f565b60405180910390f35b6100d46101c2565b6040516100c39190610ca2565b6100b6610304565b6100b6610364565b6100f96103c4565b6040516100c39190610d62565b61010e6104aa565b6040516100c39190610e17565b6100f961057a565b61010e610660565b610133610730565b60405190151581526020016100c3565b610156610151366004610e91565b6107d4565b005b6100b661092d565b606060168054806020026020016040519081016040528092919081815260200182805480156101b857602002820191906000526020600020905b81546001600160a01b0316815260019091019060200180831161019a575b5050505050905090565b6060601d805480602002602001604051908101604052809291908181526020016000905b828210156102fb57600084815260208082206040805180820182526002870290920180546001600160a01b03168352600181018054835181870281018701909452808452939591948681019491929084015b828210156102e457838290600052602060002001805461025790610efb565b80601f016020809104026020016040519081016040528092919081815260200182805461028390610efb565b80156102d05780601f106102a5576101008083540402835291602001916102d0565b820191906000526020600020905b8154815290600101906020018083116102b357829003601f168201915b505050505081526020019060010190610238565b5050505081525050815260200190600101906101e6565b50505050905090565b606060188054806020026020016040519081016040528092919081815260200182805480156101b8576020028201919060005260206000209081546001600160a01b0316815260019091019060200180831161019a575050505050905090565b606060178054806020026020016040519081016040528092919081815260200182805480156101b8576020028201919060005260206000209081546001600160a01b0316815260019091019060200180831161019a575050505050905090565b6060601b805480602002602001604051908101604052809291908181526020016000905b828210156102fb5760008481526020908190206040805180820182526002860290920180546001600160a01b0316835260018101805483518187028101870190945280845293949193858301939283018282801561049257602002820191906000526020600020906000905b82829054906101000a900460e01b6001600160e01b031916815260200190600401906020826003010492830192600103820291508084116104545790505b505050505081525050815260200190600101906103e8565b6060601a805480602002602001604051908101604052809291908181526020016000905b828210156102fb5783829060005260206000200180546104ed90610efb565b80601f016020809104026020016040519081016040528092919081815260200182805461051990610efb565b80156105665780601f1061053b57610100808354040283529160200191610566565b820191906000526020600020905b81548152906001019060200180831161054957829003601f168201915b5050505050815260200190600101906104ce565b6060601c805480602002602001604051908101604052809291908181526020016000905b828210156102fb5760008481526020908190206040805180820182526002860290920180546001600160a01b0316835260018101805483518187028101870190945280845293949193858301939283018282801561064857602002820191906000526020600020906000905b82829054906101000a900460e01b6001600160e01b0319168152602001906004019060208260030104928301926001038202915080841161060a5790505b5050505050815250508152602001906001019061059e565b60606019805480602002602001604051908101604052809291908181526020016000905b828210156102fb5783829060005260206000200180546106a390610efb565b80601f01602080910402602001604051908101604052809291908181526020018280546106cf90610efb565b801561071c5780601f106106f15761010080835404028352916020019161071c565b820191906000526020600020905b8154815290600101906020018083116106ff57829003601f168201915b505050505081526020019060010190610684565b60085460009060ff1615610748575060085460ff1690565b604051630667f9d760e41b8152737109709ecfa91a80626ff3989d68f67f5b1dd12d600482018190526519985a5b195960d21b602483015260009163667f9d7090604401602060405180830381865afa1580156107a9573d6000803e3d6000fd5b505050506040513d601f19601f820116820180604052508101906107cd9190610f35565b1415905090565b6107e48260ff166000606461098d565b91506108068460ff1660006001603b805490506108019190610f64565b61098d565b9350603b8460ff168154811061081e5761081e610f7d565b60009182526020909120015460405163129545cb60e31b815265ffffffffffff8516600482015260ff8416602482015261ffff831660448201526001600160a01b03909116906394aa2e58906064016020604051808303816000875af115801561088c573d6000803e3d6000fd5b505050506040513d601f19601f820116820180604052508101906108b09190610f93565b507f885cb69240a935d632d79c317109709ecfa91a80626ff3989d68f67f5b1dd12d60001c6001600160a01b03166390c5013b6040518163ffffffff1660e01b8152600401600060405180830381600087803b15801561090f57600080fd5b505af1158015610923573d6000803e3d6000fd5b5050505050505050565b606060158054806020026020016040519081016040528092919081815260200182805480156101b8576020028201919060005260206000209081546001600160a01b0316815260019091019060200180831161019a575050505050905090565b600061099a8484846109d1565b90506109ca6040518060400160405280600c81526020016b109bdd5b990814995cdd5b1d60a21b81525082610b99565b9392505050565b600081831115610a4d5760405162461bcd60e51b815260206004820152603e60248201527f5374645574696c7320626f756e642875696e743235362c75696e743235362c7560448201527f696e74323536293a204d6178206973206c657373207468616e206d696e2e0000606482015260840160405180910390fd5b828410158015610a5d5750818411155b15610a695750826109ca565b6000610a758484610f64565b610a80906001610fb9565b905060038511158015610a9257508481115b15610aa957610aa18585610fb9565b9150506109ca565b610ab66003600019610f64565b8510158015610acf5750610acc85600019610f64565b81115b15610aea57610ae085600019610f64565b610aa19084610f64565b82851115610b40576000610afe8487610f64565b90506000610b0c8383610fcc565b905080600003610b21578493505050506109ca565b6001610b2d8288610fb9565b610b379190610f64565b93505050610b91565b83851015610b91576000610b548686610f64565b90506000610b628383610fcc565b905080600003610b77578593505050506109ca565b610b818186610f64565b610b8c906001610fb9565b935050505b509392505050565b610bde8282604051602401610baf929190610fee565b60408051601f198184030181529190526020810180516001600160e01b0316632d839cb360e21b179052610be2565b5050565b610beb81610bee565b50565b80516a636f6e736f6c652e6c6f67602083016000808483855afa5050505050565b6020808252825182820181905260009190848201906040850190845b81811015610c505783516001600160a01b031683529284019291840191600101610c2b565b50909695505050505050565b6000815180845260005b81811015610c8257602081850181015186830182015201610c66565b506000602082860101526020601f19601f83011685010191505092915050565b602080825282518282018190526000919060409081850190600581811b8701840188860187805b85811015610d5257603f198b8503018752825180516001600160a01b031685528901518985018990528051898601819052908a0190606081881b870181019190870190855b81811015610d3c57605f19898503018352610d2a848651610c5c565b948e01949350918d0191600101610d0e565b505050978a019794505091880191600101610cc9565b50919a9950505050505050505050565b600060208083018184528085518083526040925060408601915060408160051b8701018488016000805b84811015610e0857898403603f19018652825180516001600160a01b03168552880151888501889052805188860181905290890190839060608701905b80831015610df35783516001600160e01b0319168252928b019260019290920191908b0190610dc9565b50978a01979550505091870191600101610d8c565b50919998505050505050505050565b600060208083016020845280855180835260408601915060408160051b87010192506020870160005b82811015610e6e57603f19888603018452610e5c858351610c5c565b94509285019290850190600101610e40565b5092979650505050505050565b803560ff81168114610e8c57600080fd5b919050565b60008060008060808587031215610ea757600080fd5b610eb085610e7b565b9350602085013565ffffffffffff81168114610ecb57600080fd5b9250610ed960408601610e7b565b9150606085013561ffff81168114610ef057600080fd5b939692955090935050565b600181811c90821680610f0f57607f821691505b602082108103610f2f57634e487b7160e01b600052602260045260246000fd5b50919050565b600060208284031215610f4757600080fd5b5051919050565b634e487b7160e01b600052601160045260246000fd5b81810381811115610f7757610f77610f4e565b92915050565b634e487b7160e01b600052603260045260246000fd5b600060208284031215610fa557600080fd5b815163ffffffff811681146109ca57600080fd5b80820180821115610f7757610f77610f4e565b600082610fe957634e487b7160e01b600052601260045260246000fd5b500690565b6040815260006110016040830185610c5c565b9050826020830152939250505056fea2646970667358221220ac0ed58e417e775da3e4b963fc93b2b58db00d6b1def12c278d68be39582b0fa64736f6c63430008180033","linkReferences":{}},"methodIdentifiers":{"addAccountMaxTxValueByRiskScore(uint8,uint48,uint8,uint16)":"d1fda47c","excludeArtifacts()":"b5508aa9","excludeContracts()":"e20c9f71","excludeSenders()":"1ed7831c","failed()":"ba414fa6","targetArtifactSelectors()":"66d9a9a0","targetArtifacts()":"85226c81","targetContracts()":"3f7286f4","targetInterfaces()":"2ade3880","targetSelectors()":"916a17c6","targetSenders()":"3e5e3c23"},"id":283}