{"abi":[{"type":"function","name":"activateAdminMinTokenBalance","inputs":[{"name":"_actions","type":"uint8[]","internalType":"enum ActionTypes[]"},{"name":"_on","type":"bool","internalType":"bool"}],"outputs":[],"stateMutability":"nonpayable"},{"type":"function","name":"checkAllRules","inputs":[{"name":"balanceFrom","type":"uint256","internalType":"uint256"},{"name":"balanceTo","type":"uint256","internalType":"uint256"},{"name":"_from","type":"address","internalType":"address"},{"name":"_to","type":"address","internalType":"address"},{"name":"_sender","type":"address","internalType":"address"},{"name":"_tokenId","type":"uint256","internalType":"uint256"}],"outputs":[{"name":"","type":"bool","internalType":"bool"}],"stateMutability":"nonpayable"},{"type":"function","name":"confirmAppManagerAddress","inputs":[],"outputs":[],"stateMutability":"nonpayable"},{"type":"function","name":"getAdminMinTokenBalanceId","inputs":[{"name":"_action","type":"uint8","internalType":"enum ActionTypes"}],"outputs":[{"name":"","type":"uint32","internalType":"uint32"}],"stateMutability":"view"},{"type":"function","name":"getNFTValuationLimit","inputs":[],"outputs":[{"name":"","type":"uint256","internalType":"uint256"}],"stateMutability":"view"},{"type":"function","name":"initialize","inputs":[{"name":"_ruleProcessorProxyAddress","type":"address","internalType":"address"},{"name":"_appManagerAddress","type":"address","internalType":"address"},{"name":"_assetAddress","type":"address","internalType":"address"}],"outputs":[],"stateMutability":"nonpayable"},{"type":"function","name":"isAdminMinTokenBalanceActive","inputs":[{"name":"_action","type":"uint8","internalType":"enum ActionTypes"}],"outputs":[{"name":"","type":"bool","internalType":"bool"}],"stateMutability":"view"},{"type":"function","name":"isAdminMinTokenBalanceActiveAndApplicable","inputs":[],"outputs":[{"name":"","type":"bool","internalType":"bool"}],"stateMutability":"view"},{"type":"function","name":"proposeAppManagerAddress","inputs":[{"name":"_newAppManagerAddress","type":"address","internalType":"address"}],"outputs":[],"stateMutability":"nonpayable"},{"type":"function","name":"setAdminMinTokenBalanceId","inputs":[{"name":"_actions","type":"uint8[]","internalType":"enum ActionTypes[]"},{"name":"_ruleId","type":"uint32","internalType":"uint32"}],"outputs":[],"stateMutability":"nonpayable"},{"type":"function","name":"setAdminMinTokenBalanceIdFull","inputs":[{"name":"_actions","type":"uint8[]","internalType":"enum ActionTypes[]"},{"name":"_ruleIds","type":"uint32[]","internalType":"uint32[]"}],"outputs":[],"stateMutability":"nonpayable"},{"type":"function","name":"setLastPossibleAction","inputs":[{"name":"_lastPossibleAction","type":"uint8","internalType":"uint8"}],"outputs":[],"stateMutability":"nonpayable"},{"type":"function","name":"setNFTValuationLimit","inputs":[{"name":"_newNFTValuationLimit","type":"uint16","internalType":"uint16"}],"outputs":[],"stateMutability":"nonpayable"},{"type":"event","name":"AD1467_AppManagerAddressProposed","inputs":[{"name":"_address","type":"address","indexed":true,"internalType":"address"}],"anonymous":false},{"type":"event","name":"AD1467_AppManagerAddressSet","inputs":[{"name":"_address","type":"address","indexed":true,"internalType":"address"}],"anonymous":false},{"type":"event","name":"AD1467_ApplicationHandlerActionActivated","inputs":[{"name":"ruleType","type":"bytes32","indexed":true,"internalType":"bytes32"},{"name":"actions","type":"uint8[]","indexed":false,"internalType":"enum ActionTypes[]"}],"anonymous":false},{"type":"event","name":"AD1467_ApplicationHandlerActionApplied","inputs":[{"name":"ruleType","type":"bytes32","indexed":true,"internalType":"bytes32"},{"name":"action","type":"uint8","indexed":true,"internalType":"enum ActionTypes"},{"name":"ruleId","type":"uint32","indexed":true,"internalType":"uint32"}],"anonymous":false},{"type":"event","name":"AD1467_ApplicationHandlerActionAppliedFull","inputs":[{"name":"ruleType","type":"bytes32","indexed":true,"internalType":"bytes32"},{"name":"actions","type":"uint8[]","indexed":false,"internalType":"enum ActionTypes[]"},{"name":"ruleIds","type":"uint32[]","indexed":false,"internalType":"uint32[]"}],"anonymous":false},{"type":"event","name":"AD1467_ApplicationHandlerActionDeactivated","inputs":[{"name":"ruleType","type":"bytes32","indexed":true,"internalType":"bytes32"},{"name":"actions","type":"uint8[]","indexed":false,"internalType":"enum ActionTypes[]"}],"anonymous":false},{"type":"event","name":"AD1467_ApplicationHandlerActivated","inputs":[{"name":"ruleType","type":"bytes32","indexed":true,"internalType":"bytes32"}],"anonymous":false},{"type":"event","name":"AD1467_ApplicationHandlerDeactivated","inputs":[{"name":"ruleType","type":"bytes32","indexed":true,"internalType":"bytes32"}],"anonymous":false},{"type":"event","name":"AD1467_ERC721AddressSet","inputs":[{"name":"_address","type":"address","indexed":true,"internalType":"address"}],"anonymous":false},{"type":"event","name":"AD1467_FeeActivationSet","inputs":[{"name":"_activation","type":"bool","indexed":true,"internalType":"bool"}],"anonymous":false},{"type":"event","name":"AD1467_NFTValuationLimitUpdated","inputs":[{"name":"nftValuationLimit","type":"uint256","indexed":true,"internalType":"uint256"}],"anonymous":false},{"type":"event","name":"AD1467_RulesBypassedViaRuleBypassAccount","inputs":[{"name":"ruleBypassAccount","type":"address","indexed":true,"internalType":"address"},{"name":"appManager","type":"address","indexed":true,"internalType":"address"}],"anonymous":false},{"type":"error","name":"AddressAlreadyRegistered","inputs":[]},{"type":"error","name":"AdminMinTokenBalanceisActive","inputs":[]},{"type":"error","name":"AlreadyInitialized","inputs":[]},{"type":"error","name":"AppManagerNotConnected","inputs":[]},{"type":"error","name":"BelowMinAdminThreshold","inputs":[]},{"type":"error","name":"CantMixPeriodicAndNonPeriodic","inputs":[]},{"type":"error","name":"ConfirmerDoesNotMatchProposedAddress","inputs":[]},{"type":"error","name":"IndexOutOfRange","inputs":[]},{"type":"error","name":"InputArraysMustHaveSameLength","inputs":[]},{"type":"error","name":"InputArraysSizesNotValid","inputs":[]},{"type":"error","name":"InvalidOracleType","inputs":[{"name":"_type","type":"uint8","internalType":"uint8"}]},{"type":"error","name":"InvalidRuleInput","inputs":[]},{"type":"error","name":"InvertedLimits","inputs":[]},{"type":"error","name":"NoAddressToRemove","inputs":[]},{"type":"error","name":"NoProposalHasBeenMade","inputs":[]},{"type":"error","name":"NotAUser","inputs":[{"name":"_address","type":"address","internalType":"address"}]},{"type":"error","name":"NotAccessLevelAdministrator","inputs":[{"name":"_address","type":"address","internalType":"address"}]},{"type":"error","name":"NotAppAdministrator","inputs":[]},{"type":"error","name":"NotAppAdministratorOrOwner","inputs":[]},{"type":"error","name":"NotRegisteredHandler","inputs":[{"name":"","type":"address","internalType":"address"}]},{"type":"error","name":"NotRiskAdmin","inputs":[{"name":"_address","type":"address","internalType":"address"}]},{"type":"error","name":"NotRuleAdministrator","inputs":[]},{"type":"error","name":"NotSuperAdmin","inputs":[{"name":"","type":"address","internalType":"address"}]},{"type":"error","name":"PricingModuleNotConfigured","inputs":[{"name":"_erc20PricingAddress","type":"address","internalType":"address"},{"name":"nftPricingAddress","type":"address","internalType":"address"}]},{"type":"error","name":"ValueOutOfRange","inputs":[{"name":"_value","type":"uint256","internalType":"uint256"}]},{"type":"error","name":"WrongArrayOrder","inputs":[]},{"type":"error","name":"ZeroAddress","inputs":[]},{"type":"error","name":"ZeroValueNotPermited","inputs":[]}],"bytecode":{"object":"0x608060405234801561001057600080fd5b50611eae806100206000396000f3fe608060405234801561001057600080fd5b50600436106100cf5760003560e01c8063c0c53b8b1161008c578063d6591f4911610066578063d6591f4914610198578063dcb0080f146101ab578063e20da9a1146101be578063e802b523146101d157600080fd5b8063c0c53b8b1461016a578063cdccb27a1461017d578063cf70d9481461018557600080fd5b806305476625146100d457806311280cb5146101015780632bba763414610116578063322f1a001461012957806366079f9f1461013c578063b1a7f82814610152575b600080fd5b6100e76100e2366004611929565b6101e4565b60405163ffffffff90911681526020015b60405180910390f35b61011461010f36600461195b565b610230565b005b610114610124366004611976565b6102c9565b6101146101373660046119e6565b610331565b61014461050d565b6040519081526020016100f8565b61015a610521565b60405190151581526020016100f8565b610114610178366004611a52565b610693565b610114610875565b610114610193366004611aa6565b61096d565b61015a6101a6366004611929565b610bac565b6101146101b9366004611b11565b610bfc565b6101146101cc366004611b5c565b610e29565b61015a6101df366004611b7f565b610e6f565b60006101ee611313565b600083600481111561020257610202611bde565b600481111561021357610213611bde565b815260208101919091526040016000205463ffffffff1692915050565b610238611347565b600201546001600160a01b031661024e81611375565b6001600160a01b0382166102755760405163d92e233d60e01b815260040160405180910390fd5b8161027e611347565b80546001600160a01b0319166001600160a01b03928316179055604051908316907fb55bb65ffb11767909d0a4c57dc84fe177b0bf1e1d6ecfc499e4d0ae950af3b990600090a25050565b6102d1611347565b600201546001600160a01b03166102e781611375565b816102f061146e565b805461ffff191661ffff928316179055604051908316907f72242ba1b422d7006e81de8caf29f2916cc96a1f96beb2b6757056252d3d9cb390600090a25050565b610339611347565b600201546001600160a01b031680610364576040516371724ffd60e01b815260040160405180910390fd5b806001600160a01b03811663d4a7db7f336040516001600160e01b031960e084901b1681526001600160a01b039091166004820152602401602060405180830381865afa1580156103b9573d6000803e3d6000fd5b505050506040513d601f19601f820116820180604052508101906103dd9190611bf4565b6103fa57604051631acd860160e31b815260040160405180910390fd5b600085900361041c57604051633f4ab26f60e21b815260040160405180910390fd5b84831461043b5760405162514d8b60e31b815260040160405180910390fd5b61044361149c565b60005b858110156104ac576104a487878381811061046357610463611c11565b90506020020160208101906104789190611929565b86868481811061048a5761048a611c11565b905060200201602081019061049f9190611c27565b611522565b600101610446565b507641444d494e5f4d494e5f544f4b454e5f42414c414e434560481b7ffce5ba10ca670317c4ad6aaf14bfb5c4467bb4415ab89dafce1434471a227126878787876040516104fd9493929190611c9b565b60405180910390a2505050505050565b600061051761146e565b5461ffff16919050565b6000808061052d611313565b90505b610538611347565b6003015460ff600160a01b90910481169083161161068a578060008360ff16600481111561056857610568611bde565b600481111561057957610579611bde565b600481111561058a5761058a611bde565b8152602081019190915260400160002054600160201b900460ff1615610678576105b2611347565b600101546001600160a01b0316635d74c45e82600060ff861660048111156105dc576105dc611bde565b60048111156105ed576105ed611bde565b60048111156105fe576105fe611bde565b81526020810191909152604090810160002054905160e083901b6001600160e01b031916815263ffffffff9091166004820152600160248201819052604482015260640160006040518083038186803b15801561065a57600080fd5b505afa92505050801561066b575060015b6106785760019250505090565b8161068281611d11565b925050610530565b60009250505090565b7f02dbc36a11ad69a7efd36e6fc5553942b2a3c7757978bf89807fea8d8cdf5a8b546001600160a01b031633146107005760405162461bcd60e51b815260206004820152600c60248201526b15539055551213d49256915160a21b60448201526064015b60405180910390fd5b600061070a611649565b805490915060ff161561072f5760405162dc149f60e41b815260040160405180910390fd5b6000610739611347565b90506001600160a01b038416158061075857506001600160a01b038516155b8061076a57506001600160a01b038316155b156107885760405163d92e233d60e01b815260040160405180910390fd5b6002810180546001600160a01b038087166001600160a01b0319928316179092556001830180548884169083161790556003830180549286169290911691909117905560646107d561146e565b805461ffff191661ffff929092169190911790556107fb631634ff0560e31b6001611677565b60038101805460ff60a01b1916600160a21b179055815460ff191660011782556040516001600160a01b038416602482015261086c9063f2fde38b60e01b9060440160408051601f198184030181529190526020810180516001600160e01b031663f2fde38b60e01b179052611709565b50505050505050565b600061087f611347565b80549091506001600160a01b03166108aa5760405163821e0eeb60e01b815260040160405180910390fd5b80546001600160a01b031633146108d457604051634128496760e01b815260040160405180910390fd5b80546002820180546001600160a01b0319166001600160a01b039092169190911790556108ff611347565b60029081015490820180546001600160a01b039092166001600160a01b03199283161790558154168155610931611347565b600201546040516001600160a01b03909116907f3ac7d74683e7037bbcca16efc7d8a868fef7ab1c486ed25e3658c626afd10fa990600090a250565b610975611347565b600201546001600160a01b0316806109a0576040516371724ffd60e01b815260040160405180910390fd5b806001600160a01b03811663d4a7db7f336040516001600160e01b031960e084901b1681526001600160a01b039091166004820152602401602060405180830381865afa1580156109f5573d6000803e3d6000fd5b505050506040513d601f19601f82011682018060405250810190610a199190611bf4565b610a3657604051631acd860160e31b815260040160405180910390fd5b82610a6157610a43610521565b15610a61576040516312e9e50760e21b815260040160405180910390fd5b6000610a6b611313565b905060005b85811015610af85784826000898985818110610a8e57610a8e611c11565b9050602002016020810190610aa39190611929565b6004811115610ab457610ab4611bde565b6004811115610ac557610ac5611bde565b815260208101919091526040016000208054911515600160201b0264ff0000000019909216919091179055600101610a70565b508315610b58577641444d494e5f4d494e5f544f4b454e5f42414c414e434560481b7f4dfa26a794eb61a703a2beac482f06b4372aed0b7c0d6b4490db416146d8e32e8787604051610b4b929190611d30565b60405180910390a2610ba4565b7641444d494e5f4d494e5f544f4b454e5f42414c414e434560481b7fe67b4c6b446d2563a2a39eb75b71127a3f908bcfcef4f7c89bd9e1b3ef39d15e87876040516104fd929190611d30565b505050505050565b6000610bb6611313565b6000836004811115610bca57610bca611bde565b6004811115610bdb57610bdb611bde565b8152602081019190915260400160002054600160201b900460ff1692915050565b610c04611347565b600201546001600160a01b031680610c2f576040516371724ffd60e01b815260040160405180910390fd5b806001600160a01b03811663d4a7db7f336040516001600160e01b031960e084901b1681526001600160a01b039091166004820152602401602060405180830381865afa158015610c84573d6000803e3d6000fd5b505050506040513d601f19601f82011682018060405250810190610ca89190611bf4565b610cc557604051631acd860160e31b815260040160405180910390fd5b610ccd611347565b6001015460405163f314bcb960e01b815263ffffffff851660048201526001600160a01b039091169063f314bcb99060240160006040518083038186803b158015610d1757600080fd5b505afa158015610d2b573d6000803e3d6000fd5b50505050610d376117ab565b15610d6257610d44610521565b15610d62576040516312e9e50760e21b815260040160405180910390fd5b60005b84811015610ba457610d9d868683818110610d8257610d82611c11565b9050602002016020810190610d979190611929565b85611522565b8363ffffffff16868683818110610db657610db6611c11565b9050602002016020810190610dcb9190611929565b6004811115610ddc57610ddc611bde565b6040517641444d494e5f4d494e5f544f4b454e5f42414c414e434560481b907f4f87ac5c7868c692420a972d0f84fa7750afbf2b8a09848fefc355020bce707b90600090a4600101610d65565b610e31611347565b600201546001600160a01b0316610e4781611375565b81610e50611347565b60030160146101000a81548160ff021916908360ff1602179055505050565b60007f02dbc36a11ad69a7efd36e6fc5553942b2a3c7757978bf89807fea8d8cdf5a8b546001600160a01b03163314610ed95760405162461bcd60e51b815260206004820152600c60248201526b15539055551213d49256915160a21b60448201526064016106f7565b6000610ee3611347565b6002810154604051637069e99f60e01b81526001600160a01b03898116600483015292935060009290911690637069e99f90602401602060405180830381865afa158015610f35573d6000803e3d6000fd5b505050506040513d601f19601f82011682018060405250810190610f599190611bf4565b6002830154604051637069e99f60e01b81526001600160a01b03898116600483015292935060009290911690637069e99f90602401602060405180830381865afa158015610fab573d6000803e3d6000fd5b505050506040513d601f19601f82011682018060405250810190610fcf9190611bf4565b90506000610fde89898961184f565b9050600183158015610fee575082155b156111ac5760028501546001600160a01b031663f142a46f338c8c8561101261146e565b546040516001600160e01b031960e088901b168152611043959493929161ffff16908f908b90600190600401611d4c565b600060405180830381600087803b15801561105d57600080fd5b505af1158015611071573d6000803e3d6000fd5b505050506110ca6336bd6ea760e01b8d8d8d8d868860405160240161109b96959493929190611db5565b60408051601f198184030181529190526020810180516001600160e01b03166336bd6ea760e01b179052611709565b505061111f639466093a60e01b838c8c858c6040516024016110f0959493929190611df9565b60408051601f198184030181529190526020810180516001600160e01b0316634a33049d60e11b179052611709565b50506111296118b9565b600083600481111561113d5761113d611bde565b600481111561114e5761114e611bde565b8152602081019190915260400160002054600160201b900460ff16806111855750600382600481111561118357611183611bde565b145b156111a757426111936118b9565b600089815260019190910160205260409020555b611301565b6111b4611313565b60008360048111156111c8576111c8611bde565b60048111156111d9576111d9611bde565b8152602081019190915260400160002054600160201b900460ff1680156111fd5750835b156113015761120a611347565b600101546001600160a01b0316635d74c45e611224611313565b600085600481111561123857611238611bde565b600481111561124957611249611bde565b8152602081019190915260409081016000205490516001600160e01b031960e084901b16815263ffffffff9091166004820152602481018f9052604481018a905260640160006040518083038186803b1580156112a557600080fd5b505afa1580156112b9573d6000803e3d6000fd5b505050506112c5611347565b600201546040516001600160a01b039091169033907fe99db0cf7d60f275b21533b3f618d16d949405d33c3970818d6631b3cb862ec090600090a35b5060019b9a5050505050505050505050565b60008061134160017ff5bd48fd0872ddd36ef3d33e5a5e9adb72fd2eac946092e3216254d49dfac80b611e36565b92915050565b60008061134160017f1c7e9355957c344e150b07462120dcb6c99b078e258444a7cd1841042fa7f14b611e36565b6001600160a01b03811661139c576040516371724ffd60e01b815260040160405180910390fd5b806001600160a01b03811663c3c2ebbb336040516001600160e01b031960e084901b1681526001600160a01b039091166004820152602401602060405180830381865afa1580156113f1573d6000803e3d6000fd5b505050506040513d601f19601f820116820180604052508101906114159190611bf4565b15801561144c57507f02dbc36a11ad69a7efd36e6fc5553942b2a3c7757978bf89807fea8d8cdf5a8b546001600160a01b03163314155b1561146a5760405163054f3a3160e31b815260040160405180910390fd5b5050565b60008061134160017fd9cbea5e99e1378c64d1bf3731964b7d6ee1d09c16ecc4580d9a629781cb4a01611e36565b60006114a6611313565b905060005b6114b3611347565b60030154600160a01b900460ff16811161146a578160008260048111156114dc576114dc611bde565b60048111156114ed576114ed611bde565b60048111156114fe576114fe611bde565b81526020810191909152604001600020805464ffffffffff191690556001016114ab565b61152a611347565b6001015460405163f314bcb960e01b815263ffffffff831660048201526001600160a01b039091169063f314bcb99060240160006040518083038186803b15801561157457600080fd5b505afa158015611588573d6000803e3d6000fd5b505050506000611596611313565b9050818160008560048111156115ae576115ae611bde565b60048111156115bf576115bf611bde565b815260200190815260200160002060000160006101000a81548163ffffffff021916908363ffffffff160217905550600181600001600085600481111561160857611608611bde565b600481111561161957611619611bde565b815260208101919091526040016000208054911515600160201b0264ff0000000019909216919091179055505050565b60008061134160017fe9b0251cee7e1bb8b178e56e954bef13496065e8dd664538ecbb99cf4ec347f3611e36565b6001600160e01b031980831690036116be5760405162461bcd60e51b815260206004820152600a602482015269125b9d985b1a5908125160b21b60448201526064016106f7565b6001600160e01b03199190911660009081527f8f7e2d929645ca415c0682921b343d96410da360ea90cf9706c3d0606a2b233260205260409020805460ff1916911515919091179055565b6000606060006117176118e7565b6001600160e01b03198616600090815260208290526040908190205490519192506001600160a01b031690819061174f908790611e49565b600060405180830381855af49150503d806000811461178a576040519150601f19603f3d011682016040523d82523d6000602084013e61178f565b606091505b509094509250836117a257825160208401fd5b50509250929050565b600080806117b7611313565b90505b6117c2611347565b6003015460ff600160a01b90910481169083161161068a578060008360ff1660048111156117f2576117f2611bde565b600481111561180357611803611bde565b600481111561181457611814611bde565b8152602081019190915260400160002054600160201b900460ff161561183d5760019250505090565b8161184781611d11565b9250506117ba565b60006001600160a01b038416611867575060036118b2565b6001600160a01b03831661187d575060046118b2565b836001600160a01b0316826001600160a01b03161461189e575060026118b2565b6001600160a01b0384163b156118b2575060015b9392505050565b60008061134160017f2880716ddaeaa9864ac87aea73eba567e0bc7cd2fbdeca4464e86ba438b75189611e36565b60008061134160017fbe498a3b14fd79a48c3c9af86ff14271ed497d09071013334028d28e7791db20611e36565b80356005811061192457600080fd5b919050565b60006020828403121561193b57600080fd5b6118b282611915565b80356001600160a01b038116811461192457600080fd5b60006020828403121561196d57600080fd5b6118b282611944565b60006020828403121561198857600080fd5b813561ffff811681146118b257600080fd5b60008083601f8401126119ac57600080fd5b50813567ffffffffffffffff8111156119c457600080fd5b6020830191508360208260051b85010111156119df57600080fd5b9250929050565b600080600080604085870312156119fc57600080fd5b843567ffffffffffffffff80821115611a1457600080fd5b611a208883890161199a565b90965094506020870135915080821115611a3957600080fd5b50611a468782880161199a565b95989497509550505050565b600080600060608486031215611a6757600080fd5b611a7084611944565b9250611a7e60208501611944565b9150611a8c60408501611944565b90509250925092565b8015158114611aa357600080fd5b50565b600080600060408486031215611abb57600080fd5b833567ffffffffffffffff811115611ad257600080fd5b611ade8682870161199a565b9094509250506020840135611af281611a95565b809150509250925092565b803563ffffffff8116811461192457600080fd5b600080600060408486031215611b2657600080fd5b833567ffffffffffffffff811115611b3d57600080fd5b611b498682870161199a565b9094509250611a8c905060208501611afd565b600060208284031215611b6e57600080fd5b813560ff811681146118b257600080fd5b60008060008060008060c08789031215611b9857600080fd5b8635955060208701359450611baf60408801611944565b9350611bbd60608801611944565b9250611bcb60808801611944565b915060a087013590509295509295509295565b634e487b7160e01b600052602160045260246000fd5b600060208284031215611c0657600080fd5b81516118b281611a95565b634e487b7160e01b600052603260045260246000fd5b600060208284031215611c3957600080fd5b6118b282611afd565b60058110611c5257611c52611bde565b9052565b8183526000602080850194508260005b85811015611c9057611c8087611c7b84611915565b611c42565b9582019590820190600101611c66565b509495945050505050565b604081526000611caf604083018688611c56565b8281036020848101919091528482528591810160005b86811015611cee5763ffffffff611cdb85611afd565b1682529282019290820190600101611cc5565b5098975050505050505050565b634e487b7160e01b600052601160045260246000fd5b600060ff821660ff8103611d2757611d27611cfb565b60010192915050565b602081526000611d44602083018486611c56565b949350505050565b6001600160a01b0389811682528881166020830152871660408201526060810186905261ffff8516608082015260a081018490526101008101611d9260c0830185611c42565b60028310611da257611da2611bde565b8260e08301529998505050505050505050565b868152602081018690526001600160a01b038581166040830152841660608201526080810183905260c08101611dee60a0830184611c42565b979650505050505050565b60a08101611e078288611c42565b6001600160a01b0395861660208301529390941660408501526060840191909152608090920191909152919050565b8181038181111561134157611341611cfb565b6000825160005b81811015611e6a5760208186018101518583015201611e50565b50600092019182525091905056fea2646970667358221220d9850dfcb424bfd92a9eb7df1a2e29519b17e0af560abf6a48bf40652487c2af64736f6c63430008180033","linkReferences":{}},"methodIdentifiers":{"activateAdminMinTokenBalance(uint8[],bool)":"cf70d948","checkAllRules(uint256,uint256,address,address,address,uint256)":"e802b523","confirmAppManagerAddress()":"cdccb27a","getAdminMinTokenBalanceId(uint8)":"05476625","getNFTValuationLimit()":"66079f9f","initialize(address,address,address)":"c0c53b8b","isAdminMinTokenBalanceActive(uint8)":"d6591f49","isAdminMinTokenBalanceActiveAndApplicable()":"b1a7f828","proposeAppManagerAddress(address)":"11280cb5","setAdminMinTokenBalanceId(uint8[],uint32)":"dcb0080f","setAdminMinTokenBalanceIdFull(uint8[],uint32[])":"322f1a00","setLastPossibleAction(uint8)":"e20da9a1","setNFTValuationLimit(uint16)":"2bba7634"},"id":171}