{"abi":[{"type":"function","name":"activateTokenMaxSellVolume","inputs":[{"name":"_on","type":"bool","internalType":"bool"}],"outputs":[],"stateMutability":"nonpayable"},{"type":"function","name":"getTokenMaxSellVolumeId","inputs":[],"outputs":[{"name":"","type":"uint32","internalType":"uint32"}],"stateMutability":"view"},{"type":"function","name":"isTokenMaxSellVolumeActive","inputs":[],"outputs":[{"name":"","type":"bool","internalType":"bool"}],"stateMutability":"view"},{"type":"function","name":"setTokenMaxSellVolumeId","inputs":[{"name":"_ruleId","type":"uint32","internalType":"uint32"}],"outputs":[],"stateMutability":"nonpayable"},{"type":"function","name":"setTokenMaxSellVolumeIdFull","inputs":[{"name":"_actions","type":"uint8[]","internalType":"enum ActionTypes[]"},{"name":"_ruleIds","type":"uint32[]","internalType":"uint32[]"}],"outputs":[],"stateMutability":"nonpayable"},{"type":"event","name":"AD1467_AppManagerAddressProposed","inputs":[{"name":"_address","type":"address","indexed":true,"internalType":"address"}],"anonymous":false},{"type":"event","name":"AD1467_AppManagerAddressSet","inputs":[{"name":"_address","type":"address","indexed":true,"internalType":"address"}],"anonymous":false},{"type":"event","name":"AD1467_ApplicationHandlerActionActivated","inputs":[{"name":"ruleType","type":"bytes32","indexed":true,"internalType":"bytes32"},{"name":"actions","type":"uint8[]","indexed":false,"internalType":"enum ActionTypes[]"}],"anonymous":false},{"type":"event","name":"AD1467_ApplicationHandlerActionApplied","inputs":[{"name":"ruleType","type":"bytes32","indexed":true,"internalType":"bytes32"},{"name":"action","type":"uint8","indexed":true,"internalType":"enum ActionTypes"},{"name":"ruleId","type":"uint32","indexed":true,"internalType":"uint32"}],"anonymous":false},{"type":"event","name":"AD1467_ApplicationHandlerActionAppliedFull","inputs":[{"name":"ruleType","type":"bytes32","indexed":true,"internalType":"bytes32"},{"name":"actions","type":"uint8[]","indexed":false,"internalType":"enum ActionTypes[]"},{"name":"ruleIds","type":"uint32[]","indexed":false,"internalType":"uint32[]"}],"anonymous":false},{"type":"event","name":"AD1467_ApplicationHandlerActionDeactivated","inputs":[{"name":"ruleType","type":"bytes32","indexed":true,"internalType":"bytes32"},{"name":"actions","type":"uint8[]","indexed":false,"internalType":"enum ActionTypes[]"}],"anonymous":false},{"type":"event","name":"AD1467_ERC721AddressSet","inputs":[{"name":"_address","type":"address","indexed":true,"internalType":"address"}],"anonymous":false},{"type":"event","name":"AD1467_FeeActivationSet","inputs":[{"name":"_activation","type":"bool","indexed":true,"internalType":"bool"}],"anonymous":false},{"type":"event","name":"AD1467_NFTValuationLimitUpdated","inputs":[{"name":"nftValuationLimit","type":"uint256","indexed":true,"internalType":"uint256"}],"anonymous":false},{"type":"error","name":"AccountApproveDenyOraclesPerAssetLimitReached","inputs":[]},{"type":"error","name":"AppManagerNotConnected","inputs":[]},{"type":"error","name":"BatchMintBurnNotSupported","inputs":[]},{"type":"error","name":"BelowMinAdminThreshold","inputs":[]},{"type":"error","name":"CannotTurnOffAccountDenyForNoAccessLevelWhileActive","inputs":[]},{"type":"error","name":"FeesAreGreaterThanTransactionAmount","inputs":[{"name":"","type":"address","internalType":"address"}]},{"type":"error","name":"InputArraysMustHaveSameLength","inputs":[]},{"type":"error","name":"InputArraysSizesNotValid","inputs":[]},{"type":"error","name":"InvalidAction","inputs":[]},{"type":"error","name":"NotAppAdministrator","inputs":[]},{"type":"error","name":"NotAppAdministratorOrOwner","inputs":[]},{"type":"error","name":"NotRuleAdministrator","inputs":[]},{"type":"error","name":"NotSuperAdmin","inputs":[{"name":"","type":"address","internalType":"address"}]},{"type":"error","name":"PeriodExceeds5Years","inputs":[]},{"type":"error","name":"ZeroValueNotPermited","inputs":[]},{"type":"error","name":"actionCheckFailed","inputs":[]}],"bytecode":{"object":"0x608060405234801561001057600080fd5b50610a60806100206000396000f3fe608060405234801561001057600080fd5b50600436106100575760003560e01c806364f197ea1461005c578063956813fc14610071578063acd95d8e14610084578063d48d6d0914610097578063dc014d00146100b4575b600080fd5b61006f61006a3660046107c2565b6100d1565b005b61006f61007f366004610847565b6102ab565b61006f61009236600461087a565b6103d0565b61009f6105d6565b60405190151581526020015b60405180910390f35b6100bc6105f1565b60405163ffffffff90911681526020016100ab565b6100d9610607565b600201546001600160a01b031680610104576040516371724ffd60e01b815260040160405180910390fd5b806001600160a01b03811663d4a7db7f336040516001600160e01b031960e084901b1681526001600160a01b039091166004820152602401602060405180830381865afa158015610159573d6000803e3d6000fd5b505050506040513d601f19601f8201168201806040525081019061017d9190610897565b61019a57604051631acd860160e31b815260040160405180910390fd5b60008590036101bc57604051633f4ab26f60e21b815260040160405180910390fd5b8483146101db5760405162514d8b60e31b815260040160405180910390fd5b6101e361063b565b60005b8581101561024c57610244878783818110610203576102036108b4565b905060200201602081019061021891906108d9565b86868481811061022a5761022a6108b4565b905060200201602081019061023f9190610847565b61067e565b6001016101e6565b5074544f4b454e5f4d41585f53454c4c5f564f4c554d4560581b7ffce5ba10ca670317c4ad6aaf14bfb5c4467bb4415ab89dafce1434471a2271268787878760405161029b9493929190610933565b60405180910390a2505050505050565b6102b3610607565b600201546001600160a01b0316806102de576040516371724ffd60e01b815260040160405180910390fd5b806001600160a01b03811663d4a7db7f336040516001600160e01b031960e084901b1681526001600160a01b039091166004820152602401602060405180830381865afa158015610333573d6000803e3d6000fd5b505050506040513d601f19601f820116820180604052508101906103579190610897565b61037457604051631acd860160e31b815260040160405180910390fd5b61037f60028461067e565b63ffffffff8316600260405174544f4b454e5f4d41585f53454c4c5f564f4c554d4560581b907f4f87ac5c7868c692420a972d0f84fa7750afbf2b8a09848fefc355020bce707b90600090a4505050565b6103d8610607565b600201546001600160a01b031680610403576040516371724ffd60e01b815260040160405180910390fd5b806001600160a01b03811663d4a7db7f336040516001600160e01b031960e084901b1681526001600160a01b039091166004820152602401602060405180830381865afa158015610458573d6000803e3d6000fd5b505050506040513d601f19601f8201168201806040525081019061047c9190610897565b61049957604051631acd860160e31b815260040160405180910390fd5b826104a2610748565b80549115156401000000000264ff0000000019909216919091179055604080516001808252818301909252600091602080830190803683370190505090506002816000815181106104f5576104f56108b4565b6020026020010190600481111561050e5761050e6108f4565b90816004811115610521576105216108f4565b905250831561057f5774544f4b454e5f4d41585f53454c4c5f564f4c554d4560581b7f4dfa26a794eb61a703a2beac482f06b4372aed0b7c0d6b4490db416146d8e32e8260405161057291906109c0565b60405180910390a26105d0565b74544f4b454e5f4d41585f53454c4c5f564f4c554d4560581b7fe67b4c6b446d2563a2a39eb75b71127a3f908bcfcef4f7c89bd9e1b3ef39d15e826040516105c791906109c0565b60405180910390a25b50505050565b60006105e0610748565b54640100000000900460ff16919050565b60006105fb610748565b5463ffffffff16919050565b60008061063560017f1c7e9355957c344e150b07462120dcb6c99b078e258444a7cd1841042fa7f14b610a09565b92915050565b6000610645610748565b905060005b610652610607565b60030154600160a01b900460ff16811161067a57815464ffffffffff1916825560010161064a565b5050565b6002826004811115610692576106926108f4565b146106b057604051634a7f394f60e01b815260040160405180910390fd5b6106b8610607565b6001015460405163f7ff835960e01b815263ffffffff831660048201526001600160a01b039091169063f7ff83599060240160006040518083038186803b15801561070257600080fd5b505afa158015610716573d6000803e3d6000fd5b505050506000610724610748565b805464ffffffffff191663ffffffff90931692909217640100000000179091555050565b60008061063560017ffd28c8a6678620794dc111e58d7a940894965f25ac93f7de2fea73d36b1b24a1610a09565b60008083601f84011261078857600080fd5b50813567ffffffffffffffff8111156107a057600080fd5b6020830191508360208260051b85010111156107bb57600080fd5b9250929050565b600080600080604085870312156107d857600080fd5b843567ffffffffffffffff808211156107f057600080fd5b6107fc88838901610776565b9096509450602087013591508082111561081557600080fd5b5061082287828801610776565b95989497509550505050565b803563ffffffff8116811461084257600080fd5b919050565b60006020828403121561085957600080fd5b6108628261082e565b9392505050565b801515811461087757600080fd5b50565b60006020828403121561088c57600080fd5b813561086281610869565b6000602082840312156108a957600080fd5b815161086281610869565b634e487b7160e01b600052603260045260246000fd5b80356005811061084257600080fd5b6000602082840312156108eb57600080fd5b610862826108ca565b634e487b7160e01b600052602160045260246000fd5b60006005821061092a57634e487b7160e01b600052602160045260246000fd5b50815260200190565b6040808252810184905260008560608301825b87811015610971576109608261095b856108ca565b61090a565b602093909301929150600101610946565b5083810360208581019190915285825291508590820160005b868110156109b35763ffffffff6109a08461082e565b168252918301919083019060010161098a565b5098975050505050505050565b6020808252825182820181905260009190848201906040850190845b818110156109fd576109ef83855161090a565b9385019392506001016109dc565b50909695505050505050565b8181038181111561063557634e487b7160e01b600052601160045260246000fdfea2646970667358221220f479e2da959fec46841def542d4c3cf2c863b7025cc52f36aeef9643da8f10df64736f6c63430008180033","linkReferences":{}},"methodIdentifiers":{"activateTokenMaxSellVolume(bool)":"acd95d8e","getTokenMaxSellVolumeId()":"dc014d00","isTokenMaxSellVolumeActive()":"d48d6d09","setTokenMaxSellVolumeId(uint32)":"956813fc","setTokenMaxSellVolumeIdFull(uint8[],uint32[])":"64f197ea"},"id":192}