{"abi":[{"type":"constructor","inputs":[{"name":"_dataModuleAppManagerAddress","type":"address","internalType":"address"}],"stateMutability":"nonpayable"},{"type":"function","name":"addMultipleRiskScores","inputs":[{"name":"_accounts","type":"address[]","internalType":"address[]"},{"name":"_scores","type":"uint8[]","internalType":"uint8[]"}],"outputs":[],"stateMutability":"nonpayable"},{"type":"function","name":"addRiskScoreToMultipleAccounts","inputs":[{"name":"_accounts","type":"address[]","internalType":"address[]"},{"name":"_score","type":"uint8","internalType":"uint8"}],"outputs":[],"stateMutability":"nonpayable"},{"type":"function","name":"addScore","inputs":[{"name":"_address","type":"address","internalType":"address"},{"name":"_score","type":"uint8","internalType":"uint8"}],"outputs":[],"stateMutability":"nonpayable"},{"type":"function","name":"confirmDataProvider","inputs":[{"name":"_providerType","type":"uint8","internalType":"enum IDataModule.ProviderType"}],"outputs":[],"stateMutability":"nonpayable"},{"type":"function","name":"confirmOwner","inputs":[],"outputs":[],"stateMutability":"nonpayable"},{"type":"function","name":"dataModuleAppManagerAddress","inputs":[],"outputs":[{"name":"","type":"address","internalType":"address"}],"stateMutability":"view"},{"type":"function","name":"getRiskScore","inputs":[{"name":"_account","type":"address","internalType":"address"}],"outputs":[{"name":"","type":"uint8","internalType":"uint8"}],"stateMutability":"view"},{"type":"function","name":"owner","inputs":[],"outputs":[{"name":"","type":"address","internalType":"address"}],"stateMutability":"view"},{"type":"function","name":"proposeOwner","inputs":[{"name":"_newOwner","type":"address","internalType":"address"}],"outputs":[],"stateMutability":"nonpayable"},{"type":"function","name":"removeScore","inputs":[{"name":"_account","type":"address","internalType":"address"}],"outputs":[],"stateMutability":"nonpayable"},{"type":"function","name":"renounceOwnership","inputs":[],"outputs":[],"stateMutability":"nonpayable"},{"type":"function","name":"scores","inputs":[{"name":"","type":"address","internalType":"address"}],"outputs":[{"name":"","type":"uint8","internalType":"uint8"}],"stateMutability":"view"},{"type":"function","name":"transferOwnership","inputs":[{"name":"newOwner","type":"address","internalType":"address"}],"outputs":[],"stateMutability":"nonpayable"},{"type":"function","name":"version","inputs":[],"outputs":[{"name":"","type":"string","internalType":"string"}],"stateMutability":"pure"},{"type":"event","name":"AD1467_AMMRegistered","inputs":[{"name":"_address","type":"address","indexed":true,"internalType":"address"}],"anonymous":false},{"type":"event","name":"AD1467_AccessLevelAdded","inputs":[{"name":"_address","type":"address","indexed":true,"internalType":"address"},{"name":"_level","type":"uint8","indexed":true,"internalType":"uint8"}],"anonymous":false},{"type":"event","name":"AD1467_AccessLevelAdmin","inputs":[{"name":"admin","type":"address","indexed":true,"internalType":"address"},{"name":"add","type":"bool","indexed":true,"internalType":"bool"}],"anonymous":false},{"type":"event","name":"AD1467_AccessLevelProviderSet","inputs":[{"name":"_address","type":"address","indexed":true,"internalType":"address"}],"anonymous":false},{"type":"event","name":"AD1467_AccessLevelRemoved","inputs":[{"name":"_address","type":"address","indexed":true,"internalType":"address"}],"anonymous":false},{"type":"event","name":"AD1467_AccountAdded","inputs":[{"name":"account","type":"address","indexed":true,"internalType":"address"}],"anonymous":false},{"type":"event","name":"AD1467_AccountProviderSet","inputs":[{"name":"_address","type":"address","indexed":true,"internalType":"address"}],"anonymous":false},{"type":"event","name":"AD1467_AccountRemoved","inputs":[{"name":"account","type":"address","indexed":true,"internalType":"address"}],"anonymous":false},{"type":"event","name":"AD1467_AppAdministrator","inputs":[{"name":"admin","type":"address","indexed":true,"internalType":"address"},{"name":"add","type":"bool","indexed":true,"internalType":"bool"}],"anonymous":false},{"type":"event","name":"AD1467_AppManagerDataUpgradeProposed","inputs":[{"name":"deployedAddress","type":"address","indexed":true,"internalType":"address"},{"name":"replacedAddress","type":"address","indexed":false,"internalType":"address"}],"anonymous":false},{"type":"event","name":"AD1467_AppManagerDeployed","inputs":[{"name":"superAndAppAdmin","type":"address","indexed":true,"internalType":"address"},{"name":"appName","type":"string","indexed":true,"internalType":"string"}],"anonymous":false},{"type":"event","name":"AD1467_AppManagerDeployedForUpgrade","inputs":[{"name":"superAndAppAdmin","type":"address","indexed":true,"internalType":"address"},{"name":"appName","type":"string","indexed":true,"internalType":"string"}],"anonymous":false},{"type":"event","name":"AD1467_AppNameChanged","inputs":[{"name":"appName","type":"string","indexed":true,"internalType":"string"}],"anonymous":false},{"type":"event","name":"AD1467_DataContractsMigrated","inputs":[{"name":"ownerAddress","type":"address","indexed":true,"internalType":"address"}],"anonymous":false},{"type":"event","name":"AD1467_PauseRuleEvent","inputs":[{"name":"pauseStart","type":"uint256","indexed":true,"internalType":"uint256"},{"name":"pauseStop","type":"uint256","indexed":true,"internalType":"uint256"},{"name":"add","type":"bool","indexed":true,"internalType":"bool"}],"anonymous":false},{"type":"event","name":"AD1467_PauseRuleProviderSet","inputs":[{"name":"_address","type":"address","indexed":true,"internalType":"address"}],"anonymous":false},{"type":"event","name":"AD1467_RemoveFromRegistry","inputs":[{"name":"contractName","type":"string","indexed":false,"internalType":"string"},{"name":"contractAddress","type":"address","indexed":false,"internalType":"address"}],"anonymous":false},{"type":"event","name":"AD1467_RiskAdmin","inputs":[{"name":"admin","type":"address","indexed":true,"internalType":"address"},{"name":"add","type":"bool","indexed":true,"internalType":"bool"}],"anonymous":false},{"type":"event","name":"AD1467_RiskProviderSet","inputs":[{"name":"_address","type":"address","indexed":true,"internalType":"address"}],"anonymous":false},{"type":"event","name":"AD1467_RiskScoreAdded","inputs":[{"name":"_address","type":"address","indexed":true,"internalType":"address"},{"name":"_score","type":"uint8","indexed":false,"internalType":"uint8"}],"anonymous":false},{"type":"event","name":"AD1467_RiskScoreRemoved","inputs":[{"name":"_address","type":"address","indexed":true,"internalType":"address"}],"anonymous":false},{"type":"event","name":"AD1467_RuleAdmin","inputs":[{"name":"admin","type":"address","indexed":true,"internalType":"address"},{"name":"add","type":"bool","indexed":true,"internalType":"bool"}],"anonymous":false},{"type":"event","name":"AD1467_RuleBypassAccount","inputs":[{"name":"bypassAccount","type":"address","indexed":true,"internalType":"address"},{"name":"add","type":"bool","indexed":true,"internalType":"bool"}],"anonymous":false},{"type":"event","name":"AD1467_SuperAdministrator","inputs":[{"name":"admin","type":"address","indexed":true,"internalType":"address"},{"name":"add","type":"bool","indexed":true,"internalType":"bool"}],"anonymous":false},{"type":"event","name":"AD1467_Tag","inputs":[{"name":"_address","type":"address","indexed":true,"internalType":"address"},{"name":"_tag","type":"bytes32","indexed":true,"internalType":"bytes32"},{"name":"add","type":"bool","indexed":true,"internalType":"bool"}],"anonymous":false},{"type":"event","name":"AD1467_TagAlreadyApplied","inputs":[{"name":"_address","type":"address","indexed":true,"internalType":"address"}],"anonymous":false},{"type":"event","name":"AD1467_TagProviderSet","inputs":[{"name":"_address","type":"address","indexed":true,"internalType":"address"}],"anonymous":false},{"type":"event","name":"AD1467_TokenNameUpdated","inputs":[{"name":"_token","type":"string","indexed":true,"internalType":"string"},{"name":"_address","type":"address","indexed":true,"internalType":"address"}],"anonymous":false},{"type":"event","name":"AD1467_TokenRegistered","inputs":[{"name":"_token","type":"string","indexed":true,"internalType":"string"},{"name":"_address","type":"address","indexed":true,"internalType":"address"}],"anonymous":false},{"type":"event","name":"AD1467_TradingRuleAddressAllowlist","inputs":[{"name":"_address","type":"address","indexed":true,"internalType":"address"},{"name":"isApproved","type":"bool","indexed":true,"internalType":"bool"}],"anonymous":false},{"type":"event","name":"AD1467_TreasuryRegistered","inputs":[{"name":"_address","type":"address","indexed":true,"internalType":"address"}],"anonymous":false},{"type":"event","name":"OwnershipTransferred","inputs":[{"name":"previousOwner","type":"address","indexed":true,"internalType":"address"},{"name":"newOwner","type":"address","indexed":true,"internalType":"address"}],"anonymous":false},{"type":"error","name":"AppManagerNotConnected","inputs":[]},{"type":"error","name":"CantMixPeriodicAndNonPeriodic","inputs":[]},{"type":"error","name":"ConfirmerDoesNotMatchProposedAddress","inputs":[]},{"type":"error","name":"IndexOutOfRange","inputs":[]},{"type":"error","name":"InputArraysMustHaveSameLength","inputs":[]},{"type":"error","name":"InputArraysSizesNotValid","inputs":[]},{"type":"error","name":"InvalidOracleType","inputs":[{"name":"_type","type":"uint8","internalType":"uint8"}]},{"type":"error","name":"InvalidRuleInput","inputs":[]},{"type":"error","name":"InvertedLimits","inputs":[]},{"type":"error","name":"NoProposalHasBeenMade","inputs":[]},{"type":"error","name":"NotAppAdministratorOrOwner","inputs":[]},{"type":"error","name":"RiskLevelCannotExceed99","inputs":[]},{"type":"error","name":"ValueOutOfRange","inputs":[{"name":"_value","type":"uint256","internalType":"uint256"}]},{"type":"error","name":"WrongArrayOrder","inputs":[]},{"type":"error","name":"ZeroAddress","inputs":[]},{"type":"error","name":"ZeroValueNotPermited","inputs":[]},{"type":"error","name":"riskScoreOutOfRange","inputs":[{"name":"riskScore","type":"uint8","internalType":"uint8"}]}],"bytecode":{"object":"0x60a060405234801561001057600080fd5b50604051610e0a380380610e0a83398101604081905261002f916100a4565b8061003933610054565b6001600160a01b031660805261004e81610054565b506100d4565b600080546001600160a01b038381166001600160a01b0319831681178455604051919092169283917f8be0079c531659141344cd1fd0a4f28419497f9722a3daafe3b4186f6b6457e09190a35050565b6000602082840312156100b657600080fd5b81516001600160a01b03811681146100cd57600080fd5b9392505050565b608051610cf861011260003960008181610202015281816102b6015281816102fd015281816103e10152818161069e01526106e50152610cf86000f3fe608060405234801561001057600080fd5b50600436106100ea5760003560e01c806390d5a92c1161008c578063bd9b6d8611610066578063bd9b6d86146101f5578063d3d24c9b146101fd578063dc08706d14610224578063f2fde38b1461025057600080fd5b806390d5a92c146101bc57806398575614146101cf578063b5ed298a146101e257600080fd5b806354fd4d50116100c857806354fd4d501461012a578063715018a61461015a57806376dd110f146101625780638da5cb5b1461019757600080fd5b80630daf978e146100ef5780631bf974f3146101045780634d98c79e14610117575b600080fd5b6101026100fd3660046109a4565b610263565b005b6101026101123660046109c6565b6102b4565b610102610125366004610ad9565b61044c565b60408051808201825260058152640312e312e360dc1b602082015290516101519190610b9b565b60405180910390f35b6101026104ca565b6101856101703660046109a4565b60036020526000908152604090205460ff1681565b60405160ff9091168152602001610151565b6000546001600160a01b03165b6040516001600160a01b039091168152602001610151565b6101026101ca366004610bea565b6104de565b6101026101dd366004610c38565b6105e3565b6101026101f03660046109a4565b61069c565b6101026107fc565b6101a47f000000000000000000000000000000000000000000000000000000000000000081565b6101856102323660046109a4565b6001600160a01b031660009081526003602052604090205460ff1690565b61010261025e3660046109a4565b610865565b61026b6108de565b6001600160a01b038116600081815260036020526040808220805460ff19169055517f21bb12bd10a218d68f0503025a9b700b4f3b7f84911a732adfe38e1c83b600439190a250565b7f00000000000000000000000000000000000000000000000000000000000000006001600160a01b03166102fb576040516371724ffd60e01b815260040160405180910390fd5b7f00000000000000000000000000000000000000000000000000000000000000006001600160a01b03811663c3c2ebbb336040516001600160e01b031960e084901b1681526001600160a01b039091166004820152602401602060405180830381865afa158015610370573d6000803e3d6000fd5b505050506040513d601f19601f820116820180604052508101906103949190610c62565b1580156103ac57506000546001600160a01b03163314155b156103ca5760405163054f3a3160e31b815260040160405180910390fd5b604051632b124b7960e01b81526001600160a01b037f00000000000000000000000000000000000000000000000000000000000000001690632b124b7990610416908590600401610c84565b600060405180830381600087803b15801561043057600080fd5b505af1158015610444573d6000803e3d6000fd5b505050505050565b6104546108de565b81518151146104755760405162514d8b60e31b815260040160405180910390fd5b60005b82518110156104c5576104bd83828151811061049657610496610cac565b60200260200101518383815181106104b0576104b0610cac565b60200260200101516105e3565b600101610478565b505050565b6104d26108de565b6104dc6000610938565b565b6104e66108de565b606460ff821611156105155760405163b3cbc6f360e01b815260ff821660048201526024015b60405180910390fd5b60005b82518110156104c557816003600085848151811061053857610538610cac565b60200260200101516001600160a01b03166001600160a01b0316815260200190815260200160002060006101000a81548160ff021916908360ff16021790555082818151811061058a5761058a610cac565b60200260200101516001600160a01b03167fd668a759494e00d1fde4393bb06c8012cfbbcc06aaf0522589c76c13eb23208f836040516105d3919060ff91909116815260200190565b60405180910390a2600101610518565b6105eb6108de565b606460ff821611156106155760405163b3cbc6f360e01b815260ff8216600482015260240161050c565b6001600160a01b03821661063c5760405163d92e233d60e01b815260040160405180910390fd5b6001600160a01b038216600081815260036020908152604091829020805460ff191660ff861690811790915591519182527fd668a759494e00d1fde4393bb06c8012cfbbcc06aaf0522589c76c13eb23208f910160405180910390a25050565b7f00000000000000000000000000000000000000000000000000000000000000006001600160a01b03166106e3576040516371724ffd60e01b815260040160405180910390fd5b7f00000000000000000000000000000000000000000000000000000000000000006001600160a01b03811663c3c2ebbb336040516001600160e01b031960e084901b1681526001600160a01b039091166004820152602401602060405180830381865afa158015610758573d6000803e3d6000fd5b505050506040513d601f19601f8201168201806040525081019061077c9190610c62565b15801561079457506000546001600160a01b03163314155b156107b25760405163054f3a3160e31b815260040160405180910390fd5b6001600160a01b0382166107d95760405163d92e233d60e01b815260040160405180910390fd5b50600180546001600160a01b0319166001600160a01b0392909216919091179055565b6001546001600160a01b03166108255760405163821e0eeb60e01b815260040160405180910390fd5b6001546001600160a01b0316331461085057604051634128496760e01b815260040160405180910390fd5b6001546104dc906001600160a01b0316610938565b61086d6108de565b6001600160a01b0381166108d25760405162461bcd60e51b815260206004820152602660248201527f4f776e61626c653a206e6577206f776e657220697320746865207a65726f206160448201526564647265737360d01b606482015260840161050c565b6108db81610938565b50565b6000546001600160a01b031633146104dc5760405162461bcd60e51b815260206004820181905260248201527f4f776e61626c653a2063616c6c6572206973206e6f7420746865206f776e6572604482015260640161050c565b600080546001600160a01b038381166001600160a01b0319831681178455604051919092169283917f8be0079c531659141344cd1fd0a4f28419497f9722a3daafe3b4186f6b6457e09190a35050565b80356001600160a01b038116811461099f57600080fd5b919050565b6000602082840312156109b657600080fd5b6109bf82610988565b9392505050565b6000602082840312156109d857600080fd5b8135600581106109bf57600080fd5b634e487b7160e01b600052604160045260246000fd5b604051601f8201601f1916810167ffffffffffffffff81118282101715610a2657610a266109e7565b604052919050565b600067ffffffffffffffff821115610a4857610a486109e7565b5060051b60200190565b600082601f830112610a6357600080fd5b81356020610a78610a7383610a2e565b6109fd565b8083825260208201915060208460051b870101935086841115610a9a57600080fd5b602086015b84811015610abd57610ab081610988565b8352918301918301610a9f565b509695505050505050565b803560ff8116811461099f57600080fd5b60008060408385031215610aec57600080fd5b823567ffffffffffffffff80821115610b0457600080fd5b610b1086838701610a52565b9350602091508185013581811115610b2757600080fd5b85019050601f81018613610b3a57600080fd5b8035610b48610a7382610a2e565b81815260059190911b82018301908381019088831115610b6757600080fd5b928401925b82841015610b8c57610b7d84610ac8565b82529284019290840190610b6c565b80955050505050509250929050565b60006020808352835180602085015260005b81811015610bc957858101830151858201604001528201610bad565b506000604082860101526040601f19601f8301168501019250505092915050565b60008060408385031215610bfd57600080fd5b823567ffffffffffffffff811115610c1457600080fd5b610c2085828601610a52565b925050610c2f60208401610ac8565b90509250929050565b60008060408385031215610c4b57600080fd5b610c5483610988565b9150610c2f60208401610ac8565b600060208284031215610c7457600080fd5b815180151581146109bf57600080fd5b6020810160058310610ca657634e487b7160e01b600052602160045260246000fd5b91905290565b634e487b7160e01b600052603260045260246000fdfea264697066735822122040fcd7946f1d44bd8868e16c1f1cca36af424063e759782436d971ffb647f4d164736f6c63430008180033","linkReferences":{}},"methodIdentifiers":{"addMultipleRiskScores(address[],uint8[])":"4d98c79e","addRiskScoreToMultipleAccounts(address[],uint8)":"90d5a92c","addScore(address,uint8)":"98575614","confirmDataProvider(uint8)":"1bf974f3","confirmOwner()":"bd9b6d86","dataModuleAppManagerAddress()":"d3d24c9b","getRiskScore(address)":"dc08706d","owner()":"8da5cb5b","proposeOwner(address)":"b5ed298a","removeScore(address)":"0daf978e","renounceOwnership()":"715018a6","scores(address)":"76dd110f","transferOwnership(address)":"f2fde38b","version()":"54fd4d50"},"id":145}