{"abi":[{"type":"constructor","inputs":[{"name":"_name","type":"string","internalType":"string"},{"name":"_symbol","type":"string","internalType":"string"},{"name":"_appManagerAddress","type":"address","internalType":"address"}],"stateMutability":"nonpayable"},{"type":"function","name":"allowance","inputs":[{"name":"owner","type":"address","internalType":"address"},{"name":"spender","type":"address","internalType":"address"}],"outputs":[{"name":"","type":"uint256","internalType":"uint256"}],"stateMutability":"view"},{"type":"function","name":"approve","inputs":[{"name":"spender","type":"address","internalType":"address"},{"name":"amount","type":"uint256","internalType":"uint256"}],"outputs":[{"name":"","type":"bool","internalType":"bool"}],"stateMutability":"nonpayable"},{"type":"function","name":"balanceOf","inputs":[{"name":"account","type":"address","internalType":"address"}],"outputs":[{"name":"","type":"uint256","internalType":"uint256"}],"stateMutability":"view"},{"type":"function","name":"burn","inputs":[{"name":"amount","type":"uint256","internalType":"uint256"}],"outputs":[],"stateMutability":"nonpayable"},{"type":"function","name":"burnFrom","inputs":[{"name":"account","type":"address","internalType":"address"},{"name":"amount","type":"uint256","internalType":"uint256"}],"outputs":[],"stateMutability":"nonpayable"},{"type":"function","name":"confirmAppManagerAddress","inputs":[],"outputs":[],"stateMutability":"nonpayable"},{"type":"function","name":"connectHandlerToToken","inputs":[{"name":"_handlerAddress","type":"address","internalType":"address"}],"outputs":[],"stateMutability":"nonpayable"},{"type":"function","name":"decimals","inputs":[],"outputs":[{"name":"","type":"uint8","internalType":"uint8"}],"stateMutability":"view"},{"type":"function","name":"decreaseAllowance","inputs":[{"name":"spender","type":"address","internalType":"address"},{"name":"subtractedValue","type":"uint256","internalType":"uint256"}],"outputs":[{"name":"","type":"bool","internalType":"bool"}],"stateMutability":"nonpayable"},{"type":"function","name":"getAppManagerAddress","inputs":[],"outputs":[{"name":"","type":"address","internalType":"address"}],"stateMutability":"view"},{"type":"function","name":"getHandlerAddress","inputs":[],"outputs":[{"name":"","type":"address","internalType":"address"}],"stateMutability":"view"},{"type":"function","name":"increaseAllowance","inputs":[{"name":"spender","type":"address","internalType":"address"},{"name":"addedValue","type":"uint256","internalType":"uint256"}],"outputs":[{"name":"","type":"bool","internalType":"bool"}],"stateMutability":"nonpayable"},{"type":"function","name":"mint","inputs":[{"name":"to","type":"address","internalType":"address"},{"name":"amount","type":"uint256","internalType":"uint256"}],"outputs":[],"stateMutability":"nonpayable"},{"type":"function","name":"name","inputs":[],"outputs":[{"name":"","type":"string","internalType":"string"}],"stateMutability":"view"},{"type":"function","name":"proposeAppManagerAddress","inputs":[{"name":"_newAppManagerAddress","type":"address","internalType":"address"}],"outputs":[],"stateMutability":"nonpayable"},{"type":"function","name":"symbol","inputs":[],"outputs":[{"name":"","type":"string","internalType":"string"}],"stateMutability":"view"},{"type":"function","name":"totalSupply","inputs":[],"outputs":[{"name":"","type":"uint256","internalType":"uint256"}],"stateMutability":"view"},{"type":"function","name":"transfer","inputs":[{"name":"to","type":"address","internalType":"address"},{"name":"amount","type":"uint256","internalType":"uint256"}],"outputs":[{"name":"","type":"bool","internalType":"bool"}],"stateMutability":"nonpayable"},{"type":"function","name":"transferFrom","inputs":[{"name":"from","type":"address","internalType":"address"},{"name":"to","type":"address","internalType":"address"},{"name":"amount","type":"uint256","internalType":"uint256"}],"outputs":[{"name":"","type":"bool","internalType":"bool"}],"stateMutability":"nonpayable"},{"type":"event","name":"AD1467_AppManagerAddressSet","inputs":[{"name":"_address","type":"address","indexed":true,"internalType":"address"}],"anonymous":false},{"type":"event","name":"AD1467_CollectionPrice","inputs":[{"name":"collection","type":"address","indexed":true,"internalType":"address"},{"name":"price","type":"uint256","indexed":true,"internalType":"uint256"}],"anonymous":false},{"type":"event","name":"AD1467_FeeType","inputs":[{"name":"tag","type":"bytes32","indexed":true,"internalType":"bytes32"},{"name":"add","type":"bool","indexed":true,"internalType":"bool"},{"name":"minBalance","type":"uint256","indexed":false,"internalType":"uint256"},{"name":"maxBalance","type":"uint256","indexed":false,"internalType":"uint256"},{"name":"feePercentage","type":"int256","indexed":false,"internalType":"int256"},{"name":"targetAccount","type":"address","indexed":false,"internalType":"address"}],"anonymous":false},{"type":"event","name":"AD1467_HandlerConnected","inputs":[{"name":"handlerAddress","type":"address","indexed":true,"internalType":"address"},{"name":"assetAddress","type":"address","indexed":true,"internalType":"address"}],"anonymous":false},{"type":"event","name":"AD1467_NewNFTDeployed","inputs":[{"name":"appManagerAddress","type":"address","indexed":true,"internalType":"address"}],"anonymous":false},{"type":"event","name":"AD1467_NewTokenDeployed","inputs":[{"name":"appManagerAddress","type":"address","indexed":true,"internalType":"address"}],"anonymous":false},{"type":"event","name":"AD1467_SingleTokenPrice","inputs":[{"name":"collection","type":"address","indexed":true,"internalType":"address"},{"name":"tokenID","type":"uint256","indexed":true,"internalType":"uint256"},{"name":"price","type":"uint256","indexed":true,"internalType":"uint256"}],"anonymous":false},{"type":"event","name":"AD1467_TokenPrice","inputs":[{"name":"token","type":"address","indexed":true,"internalType":"address"},{"name":"price","type":"uint256","indexed":true,"internalType":"uint256"}],"anonymous":false},{"type":"event","name":"Approval","inputs":[{"name":"owner","type":"address","indexed":true,"internalType":"address"},{"name":"spender","type":"address","indexed":true,"internalType":"address"},{"name":"value","type":"uint256","indexed":false,"internalType":"uint256"}],"anonymous":false},{"type":"event","name":"Transfer","inputs":[{"name":"from","type":"address","indexed":true,"internalType":"address"},{"name":"to","type":"address","indexed":true,"internalType":"address"},{"name":"value","type":"uint256","indexed":false,"internalType":"uint256"}],"anonymous":false},{"type":"error","name":"AppManagerNotConnected","inputs":[]},{"type":"error","name":"BelowMinAdminThreshold","inputs":[]},{"type":"error","name":"ConfirmerDoesNotMatchProposedAddress","inputs":[]},{"type":"error","name":"NoProposalHasBeenMade","inputs":[]},{"type":"error","name":"NotAppAdministrator","inputs":[]},{"type":"error","name":"NotAppAdministratorOrOwner","inputs":[]},{"type":"error","name":"NotRuleAdministrator","inputs":[]},{"type":"error","name":"NotSuperAdmin","inputs":[{"name":"","type":"address","internalType":"address"}]},{"type":"error","name":"ZeroAddress","inputs":[]}],"bytecode":{"object":"0x60806040523480156200001157600080fd5b50604051620013ef380380620013ef8339810160408190526200003491620001a2565b82826003620000448382620002c0565b506004620000538282620002c0565b5050506001600160a01b0381166200007e5760405163d92e233d60e01b815260040160405180910390fd5b600680546001600160a01b0383166001600160a01b0319918216811790925560078054909116821790556040517f190d181faa359c0408a05fed34ab1914753b07b5c54422b772d67a30206408ce90600090a25050506200038c565b634e487b7160e01b600052604160045260246000fd5b600082601f8301126200010257600080fd5b81516001600160401b03808211156200011f576200011f620000da565b604051601f8301601f19908116603f011681019082821181831017156200014a576200014a620000da565b81604052838152602092508660208588010111156200016857600080fd5b600091505b838210156200018c57858201830151818301840152908201906200016d565b6000602085830101528094505050505092915050565b600080600060608486031215620001b857600080fd5b83516001600160401b0380821115620001d057600080fd5b620001de87838801620000f0565b94506020860151915080821115620001f557600080fd5b506200020486828701620000f0565b604086015190935090506001600160a01b03811681146200022457600080fd5b809150509250925092565b600181811c908216806200024457607f821691505b6020821081036200026557634e487b7160e01b600052602260045260246000fd5b50919050565b601f821115620002bb576000816000526020600020601f850160051c81016020861015620002965750805b601f850160051c820191505b81811015620002b757828155600101620002a2565b5050505b505050565b81516001600160401b03811115620002dc57620002dc620000da565b620002f481620002ed84546200022f565b846200026b565b602080601f8311600181146200032c5760008415620003135750858301515b600019600386901b1c1916600185901b178555620002b7565b600085815260208120601f198616915b828110156200035d578886015182559484019460019091019084016200033c565b50858210156200037c5787850151600019600388901b60f8161c191681555b5050505050600190811b01905550565b611053806200039c6000396000f3fe608060405234801561001057600080fd5b50600436106101215760003560e01c80634c330077116100ad57806395d89b411161007157806395d89b411461026e578063a457c2d714610276578063a9059cbb14610289578063cdccb27a1461029c578063dd62ed3e146102a457600080fd5b80634c330077146101e95780636f9c83b81461020e57806370a082311461021f57806371af85e01461024857806379cc67901461025b57600080fd5b806323b872dd116100f457806323b872dd1461018e578063313ce567146101a157806339509351146101b057806340c10f19146101c357806342966c68146101d657600080fd5b806306fdde0314610126578063095ea7b31461014457806311280cb51461016757806318160ddd1461017c575b600080fd5b61012e6102b7565b60405161013b9190610e61565b60405180910390f35b610157610152366004610ecc565b610349565b604051901515815260200161013b565b61017a610175366004610ef6565b610363565b005b6002545b60405190815260200161013b565b61015761019c366004610f18565b61046e565b6040516012815260200161013b565b6101576101be366004610ecc565b610492565b61017a6101d1366004610ecc565b6104b4565b61017a6101e4366004610f54565b610584565b6006546001600160a01b03165b6040516001600160a01b03909116815260200161013b565b6008546001600160a01b03166101f6565b61018061022d366004610ef6565b6001600160a01b031660009081526020819052604090205490565b61017a610256366004610ef6565b610591565b61017a610269366004610ecc565b6106c7565b61012e6106e0565b610157610284366004610ecc565b6106ef565b610157610297366004610ecc565b61076f565b61017a61077d565b6101806102b2366004610f6d565b610805565b6060600380546102c690610fa0565b80601f01602080910402602001604051908101604052809291908181526020018280546102f290610fa0565b801561033f5780601f106103145761010080835404028352916020019161033f565b820191906000526020600020905b81548152906001019060200180831161032257829003601f168201915b5050505050905090565b600033610357818585610830565b60019150505b92915050565b6006546001600160a01b03168061038d576040516371724ffd60e01b815260040160405180910390fd5b806001600160a01b03811663c3c2ebbb336040516001600160e01b031960e084901b1681526001600160a01b039091166004820152602401602060405180830381865afa1580156103e2573d6000803e3d6000fd5b505050506040513d601f19601f820116820180604052508101906104069190610fda565b6104235760405163ba80c9e560e01b815260040160405180910390fd5b6001600160a01b03831661044a5760405163d92e233d60e01b815260040160405180910390fd5b5050600580546001600160a01b0319166001600160a01b0392909216919091179055565b60003361047c858285610955565b6104878585856109c9565b506001949350505050565b6000336103578185856104a58383610805565b6104af9190610ffc565b610830565b6006546001600160a01b0316806104de576040516371724ffd60e01b815260040160405180910390fd5b806001600160a01b03811663c3c2ebbb336040516001600160e01b031960e084901b1681526001600160a01b039091166004820152602401602060405180830381865afa158015610533573d6000803e3d6000fd5b505050506040513d601f19601f820116820180604052508101906105579190610fda565b6105745760405163ba80c9e560e01b815260040160405180910390fd5b61057e8484610b78565b50505050565b61058e3382610c43565b50565b6006546001600160a01b0316806105bb576040516371724ffd60e01b815260040160405180910390fd5b806001600160a01b03811663c3c2ebbb336040516001600160e01b031960e084901b1681526001600160a01b039091166004820152602401602060405180830381865afa158015610610573d6000803e3d6000fd5b505050506040513d601f19601f820116820180604052508101906106349190610fda565b6106515760405163ba80c9e560e01b815260040160405180910390fd5b6001600160a01b0383166106785760405163d92e233d60e01b815260040160405180910390fd5b600880546001600160a01b0319166001600160a01b0385169081179091556040513091907f9a2cdaf1a28a88ccd359d6abc6a27d4856d16459aafb0aae34c1296bab5b63fb90600090a3505050565b6106d2823383610955565b6106dc8282610c43565b5050565b6060600480546102c690610fa0565b600033816106fd8286610805565b9050838110156107625760405162461bcd60e51b815260206004820152602560248201527f45524332303a2064656372656173656420616c6c6f77616e63652062656c6f77604482015264207a65726f60d81b60648201526084015b60405180910390fd5b6104878286868403610830565b6000336103578185856109c9565b6005546001600160a01b03166107a65760405163821e0eeb60e01b815260040160405180910390fd5b6005546001600160a01b031633146107d157604051634128496760e01b815260040160405180910390fd5b60058054600680546001600160a01b0383166001600160a01b03199182168117909255600780548216909217909155169055565b6001600160a01b03918216600090815260016020908152604080832093909416825291909152205490565b6001600160a01b0383166108925760405162461bcd60e51b8152602060048201526024808201527f45524332303a20617070726f76652066726f6d20746865207a65726f206164646044820152637265737360e01b6064820152608401610759565b6001600160a01b0382166108f35760405162461bcd60e51b815260206004820152602260248201527f45524332303a20617070726f766520746f20746865207a65726f206164647265604482015261737360f01b6064820152608401610759565b6001600160a01b0383811660008181526001602090815260408083209487168084529482529182902085905590518481527f8c5be1e5ebec7d5bd14f71427d1e84f3dd0314c0f7b2291e5b200ac8c7c3b92591015b60405180910390a3505050565b60006109618484610805565b9050600019811461057e57818110156109bc5760405162461bcd60e51b815260206004820152601d60248201527f45524332303a20696e73756666696369656e7420616c6c6f77616e63650000006044820152606401610759565b61057e8484848403610830565b6001600160a01b038316610a2d5760405162461bcd60e51b815260206004820152602560248201527f45524332303a207472616e736665722066726f6d20746865207a65726f206164604482015264647265737360d81b6064820152608401610759565b6001600160a01b038216610a8f5760405162461bcd60e51b815260206004820152602360248201527f45524332303a207472616e7366657220746f20746865207a65726f206164647260448201526265737360e81b6064820152608401610759565b610a9a838383610d79565b6001600160a01b03831660009081526020819052604090205481811015610b125760405162461bcd60e51b815260206004820152602660248201527f45524332303a207472616e7366657220616d6f756e7420657863656564732062604482015265616c616e636560d01b6064820152608401610759565b6001600160a01b03848116600081815260208181526040808320878703905593871680835291849020805487019055925185815290927fddf252ad1be2c89b69c2b068fc378daa952ba7f163c4a11628f55a4df523b3ef910160405180910390a361057e565b6001600160a01b038216610bce5760405162461bcd60e51b815260206004820152601f60248201527f45524332303a206d696e7420746f20746865207a65726f2061646472657373006044820152606401610759565b610bda60008383610d79565b8060026000828254610bec9190610ffc565b90915550506001600160a01b038216600081815260208181526040808320805486019055518481527fddf252ad1be2c89b69c2b068fc378daa952ba7f163c4a11628f55a4df523b3ef910160405180910390a35050565b6001600160a01b038216610ca35760405162461bcd60e51b815260206004820152602160248201527f45524332303a206275726e2066726f6d20746865207a65726f206164647265736044820152607360f81b6064820152608401610759565b610caf82600083610d79565b6001600160a01b03821660009081526020819052604090205481811015610d235760405162461bcd60e51b815260206004820152602260248201527f45524332303a206275726e20616d6f756e7420657863656564732062616c616e604482015261636560f01b6064820152608401610759565b6001600160a01b0383166000818152602081815260408083208686039055600280548790039055518581529192917fddf252ad1be2c89b69c2b068fc378daa952ba7f163c4a11628f55a4df523b3ef9101610948565b6008546001600160a01b031663e802b523610da9856001600160a01b031660009081526020819052604090205490565b6001600160a01b0385166000908152602081905260409020548686336040516001600160e01b031960e088901b168152600481019590955260248501939093526001600160a01b0391821660448501528116606484015216608482015260a4810184905260c4016020604051808303816000875af1158015610e2f573d6000803e3d6000fd5b505050506040513d601f19601f82011682018060405250810190610e539190610fda565b610e5c57600080fd5b505050565b60006020808352835180602085015260005b81811015610e8f57858101830151858201604001528201610e73565b506000604082860101526040601f19601f8301168501019250505092915050565b80356001600160a01b0381168114610ec757600080fd5b919050565b60008060408385031215610edf57600080fd5b610ee883610eb0565b946020939093013593505050565b600060208284031215610f0857600080fd5b610f1182610eb0565b9392505050565b600080600060608486031215610f2d57600080fd5b610f3684610eb0565b9250610f4460208501610eb0565b9150604084013590509250925092565b600060208284031215610f6657600080fd5b5035919050565b60008060408385031215610f8057600080fd5b610f8983610eb0565b9150610f9760208401610eb0565b90509250929050565b600181811c90821680610fb457607f821691505b602082108103610fd457634e487b7160e01b600052602260045260246000fd5b50919050565b600060208284031215610fec57600080fd5b81518015158114610f1157600080fd5b8082018082111561035d57634e487b7160e01b600052601160045260246000fdfea26469706673582212202af68e8a840059b5938d1d70f1a86405bf8c255414bee7c98b46052befb78b6164736f6c63430008180033","linkReferences":{}},"methodIdentifiers":{"allowance(address,address)":"dd62ed3e","approve(address,uint256)":"095ea7b3","balanceOf(address)":"70a08231","burn(uint256)":"42966c68","burnFrom(address,uint256)":"79cc6790","confirmAppManagerAddress()":"cdccb27a","connectHandlerToToken(address)":"71af85e0","decimals()":"313ce567","decreaseAllowance(address,uint256)":"a457c2d7","getAppManagerAddress()":"4c330077","getHandlerAddress()":"6f9c83b8","increaseAllowance(address,uint256)":"39509351","mint(address,uint256)":"40c10f19","name()":"06fdde03","proposeAppManagerAddress(address)":"11280cb5","symbol()":"95d89b41","totalSupply()":"18160ddd","transfer(address,uint256)":"a9059cbb","transferFrom(address,address,uint256)":"23b872dd"},"id":327}