{"abi":[{"type":"function","name":"getTokenPrice","inputs":[{"name":"tokenContract","type":"address","internalType":"address"}],"outputs":[{"name":"price","type":"uint256","internalType":"uint256"}],"stateMutability":"view"},{"type":"function","name":"owner","inputs":[],"outputs":[{"name":"","type":"address","internalType":"address"}],"stateMutability":"view"},{"type":"function","name":"renounceOwnership","inputs":[],"outputs":[],"stateMutability":"nonpayable"},{"type":"function","name":"setSingleTokenPrice","inputs":[{"name":"tokenContract","type":"address","internalType":"address"},{"name":"price","type":"uint256","internalType":"uint256"}],"outputs":[],"stateMutability":"nonpayable"},{"type":"function","name":"tokenPrices","inputs":[{"name":"","type":"address","internalType":"address"}],"outputs":[{"name":"","type":"uint256","internalType":"uint256"}],"stateMutability":"view"},{"type":"function","name":"transferOwnership","inputs":[{"name":"newOwner","type":"address","internalType":"address"}],"outputs":[],"stateMutability":"nonpayable"},{"type":"function","name":"version","inputs":[],"outputs":[{"name":"","type":"string","internalType":"string"}],"stateMutability":"pure"},{"type":"event","name":"AD1467_AppManagerAddressSet","inputs":[{"name":"_address","type":"address","indexed":true,"internalType":"address"}],"anonymous":false},{"type":"event","name":"AD1467_CollectionPrice","inputs":[{"name":"collection","type":"address","indexed":true,"internalType":"address"},{"name":"price","type":"uint256","indexed":true,"internalType":"uint256"}],"anonymous":false},{"type":"event","name":"AD1467_FeeType","inputs":[{"name":"tag","type":"bytes32","indexed":true,"internalType":"bytes32"},{"name":"add","type":"bool","indexed":true,"internalType":"bool"},{"name":"minBalance","type":"uint256","indexed":false,"internalType":"uint256"},{"name":"maxBalance","type":"uint256","indexed":false,"internalType":"uint256"},{"name":"feePercentage","type":"int256","indexed":false,"internalType":"int256"},{"name":"targetAccount","type":"address","indexed":false,"internalType":"address"}],"anonymous":false},{"type":"event","name":"AD1467_HandlerConnected","inputs":[{"name":"handlerAddress","type":"address","indexed":true,"internalType":"address"},{"name":"assetAddress","type":"address","indexed":true,"internalType":"address"}],"anonymous":false},{"type":"event","name":"AD1467_NewNFTDeployed","inputs":[{"name":"appManagerAddress","type":"address","indexed":true,"internalType":"address"}],"anonymous":false},{"type":"event","name":"AD1467_NewTokenDeployed","inputs":[{"name":"appManagerAddress","type":"address","indexed":true,"internalType":"address"}],"anonymous":false},{"type":"event","name":"AD1467_SingleTokenPrice","inputs":[{"name":"collection","type":"address","indexed":true,"internalType":"address"},{"name":"tokenID","type":"uint256","indexed":true,"internalType":"uint256"},{"name":"price","type":"uint256","indexed":true,"internalType":"uint256"}],"anonymous":false},{"type":"event","name":"AD1467_TokenPrice","inputs":[{"name":"token","type":"address","indexed":true,"internalType":"address"},{"name":"price","type":"uint256","indexed":true,"internalType":"uint256"}],"anonymous":false},{"type":"event","name":"OwnershipTransferred","inputs":[{"name":"previousOwner","type":"address","indexed":true,"internalType":"address"},{"name":"newOwner","type":"address","indexed":true,"internalType":"address"}],"anonymous":false}],"bytecode":{"object":"0x608060405234801561001057600080fd5b5061001a3361001f565b61006f565b600080546001600160a01b038381166001600160a01b0319831681178455604051919092169283917f8be0079c531659141344cd1fd0a4f28419497f9722a3daafe3b4186f6b6457e09190a35050565b6103c88061007e6000396000f3fe608060405234801561001057600080fd5b506004361061007d5760003560e01c8063715018a61161005b578063715018a6146100f15780638da5cb5b146100f9578063d02641a014610114578063f2fde38b1461013d57600080fd5b8063204120bc146100825780632a9e4d1e146100b557806354fd4d50146100ca575b600080fd5b6100a26100903660046102f7565b60016020526000908152604090205481565b6040519081526020015b60405180910390f35b6100c86100c3366004610319565b610150565b005b60408051808201825260058152640312e312e360dc1b602082015290516100ac9190610343565b6100c861019f565b6000546040516001600160a01b0390911681526020016100ac565b6100a26101223660046102f7565b6001600160a01b031660009081526001602052604090205490565b6100c861014b3660046102f7565b6101b3565b610158610231565b6001600160a01b038216600081815260016020526040808220849055518392917f8ade12442f75008e56820ab24d14815e045a57d877b8bc72e1d4cfc0802bb46e91a35050565b6101a7610231565b6101b1600061028b565b565b6101bb610231565b6001600160a01b0381166102255760405162461bcd60e51b815260206004820152602660248201527f4f776e61626c653a206e6577206f776e657220697320746865207a65726f206160448201526564647265737360d01b60648201526084015b60405180910390fd5b61022e8161028b565b50565b6000546001600160a01b031633146101b15760405162461bcd60e51b815260206004820181905260248201527f4f776e61626c653a2063616c6c6572206973206e6f7420746865206f776e6572604482015260640161021c565b600080546001600160a01b038381166001600160a01b0319831681178455604051919092169283917f8be0079c531659141344cd1fd0a4f28419497f9722a3daafe3b4186f6b6457e09190a35050565b80356001600160a01b03811681146102f257600080fd5b919050565b60006020828403121561030957600080fd5b610312826102db565b9392505050565b6000806040838503121561032c57600080fd5b610335836102db565b946020939093013593505050565b60006020808352835180602085015260005b8181101561037157858101830151858201604001528201610355565b506000604082860101526040601f19601f830116850101925050509291505056fea264697066735822122098a3ead45daf1a1aa6f394db029d91a3db09c74f7f47ea7a7fc2cd1f87fa77fe64736f6c63430008180033","linkReferences":{}},"methodIdentifiers":{"getTokenPrice(address)":"d02641a0","owner()":"8da5cb5b","renounceOwnership()":"715018a6","setSingleTokenPrice(address,uint256)":"2a9e4d1e","tokenPrices(address)":"204120bc","transferOwnership(address)":"f2fde38b","version()":"54fd4d50"},"id":213}