{"abi":[{"type":"function","name":"activateMinTransactionSizeRule","inputs":[{"name":"_actions","type":"uint8[]","internalType":"enum ActionTypes[]"},{"name":"_on","type":"bool","internalType":"bool"}],"outputs":[],"stateMutability":"nonpayable"},{"type":"function","name":"getTokenMinTxSizeId","inputs":[{"name":"_action","type":"uint8","internalType":"enum ActionTypes"}],"outputs":[{"name":"","type":"uint32","internalType":"uint32"}],"stateMutability":"view"},{"type":"function","name":"isTokenMinTxSizeActive","inputs":[{"name":"_action","type":"uint8","internalType":"enum ActionTypes"}],"outputs":[{"name":"","type":"bool","internalType":"bool"}],"stateMutability":"view"},{"type":"function","name":"setTokenMinTxSizeId","inputs":[{"name":"_actions","type":"uint8[]","internalType":"enum ActionTypes[]"},{"name":"_ruleId","type":"uint32","internalType":"uint32"}],"outputs":[],"stateMutability":"nonpayable"},{"type":"function","name":"setTokenMinTxSizeIdFull","inputs":[{"name":"_actions","type":"uint8[]","internalType":"enum ActionTypes[]"},{"name":"_ruleIds","type":"uint32[]","internalType":"uint32[]"}],"outputs":[],"stateMutability":"nonpayable"},{"type":"event","name":"AD1467_AppManagerAddressProposed","inputs":[{"name":"_address","type":"address","indexed":true,"internalType":"address"}],"anonymous":false},{"type":"event","name":"AD1467_AppManagerAddressSet","inputs":[{"name":"_address","type":"address","indexed":true,"internalType":"address"}],"anonymous":false},{"type":"event","name":"AD1467_ApplicationHandlerActionActivated","inputs":[{"name":"ruleType","type":"bytes32","indexed":true,"internalType":"bytes32"},{"name":"actions","type":"uint8[]","indexed":false,"internalType":"enum ActionTypes[]"}],"anonymous":false},{"type":"event","name":"AD1467_ApplicationHandlerActionApplied","inputs":[{"name":"ruleType","type":"bytes32","indexed":true,"internalType":"bytes32"},{"name":"action","type":"uint8","indexed":true,"internalType":"enum ActionTypes"},{"name":"ruleId","type":"uint32","indexed":true,"internalType":"uint32"}],"anonymous":false},{"type":"event","name":"AD1467_ApplicationHandlerActionAppliedFull","inputs":[{"name":"ruleType","type":"bytes32","indexed":true,"internalType":"bytes32"},{"name":"actions","type":"uint8[]","indexed":false,"internalType":"enum ActionTypes[]"},{"name":"ruleIds","type":"uint32[]","indexed":false,"internalType":"uint32[]"}],"anonymous":false},{"type":"event","name":"AD1467_ApplicationHandlerActionDeactivated","inputs":[{"name":"ruleType","type":"bytes32","indexed":true,"internalType":"bytes32"},{"name":"actions","type":"uint8[]","indexed":false,"internalType":"enum ActionTypes[]"}],"anonymous":false},{"type":"event","name":"AD1467_ERC721AddressSet","inputs":[{"name":"_address","type":"address","indexed":true,"internalType":"address"}],"anonymous":false},{"type":"event","name":"AD1467_FeeActivationSet","inputs":[{"name":"_activation","type":"bool","indexed":true,"internalType":"bool"}],"anonymous":false},{"type":"event","name":"AD1467_NFTValuationLimitUpdated","inputs":[{"name":"nftValuationLimit","type":"uint256","indexed":true,"internalType":"uint256"}],"anonymous":false},{"type":"error","name":"AccountApproveDenyOraclesPerAssetLimitReached","inputs":[]},{"type":"error","name":"AppManagerNotConnected","inputs":[]},{"type":"error","name":"BatchMintBurnNotSupported","inputs":[]},{"type":"error","name":"BelowMinAdminThreshold","inputs":[]},{"type":"error","name":"CannotTurnOffAccountDenyForNoAccessLevelWhileActive","inputs":[]},{"type":"error","name":"FeesAreGreaterThanTransactionAmount","inputs":[{"name":"","type":"address","internalType":"address"}]},{"type":"error","name":"InputArraysMustHaveSameLength","inputs":[]},{"type":"error","name":"InputArraysSizesNotValid","inputs":[]},{"type":"error","name":"InvalidAction","inputs":[]},{"type":"error","name":"NotAppAdministrator","inputs":[]},{"type":"error","name":"NotAppAdministratorOrOwner","inputs":[]},{"type":"error","name":"NotRuleAdministrator","inputs":[]},{"type":"error","name":"NotSuperAdmin","inputs":[{"name":"","type":"address","internalType":"address"}]},{"type":"error","name":"PeriodExceeds5Years","inputs":[]},{"type":"error","name":"ZeroValueNotPermited","inputs":[]},{"type":"error","name":"actionCheckFailed","inputs":[]}],"bytecode":{"object":"0x608060405234801561001057600080fd5b50610cc7806100206000396000f3fe608060405234801561001057600080fd5b50600436106100575760003560e01c8063228e6a751461005c57806338ab03a21461008957806340cecd551461009e578063526b011b146100c157806368ecb274146100d4575b600080fd5b61006f61006a36600461098a565b6100e7565b60405163ffffffff90911681526020015b60405180910390f35b61009c6100973660046109f8565b610133565b005b6100b16100ac36600461098a565b610309565b6040519015158152602001610080565b61009c6100cf366004610a78565b61035a565b61009c6100e2366004610add565b610556565b60006100f1610762565b600083600481111561010557610105610b34565b600481111561011657610116610b34565b815260208101919091526040016000205463ffffffff1692915050565b61013b610796565b600201546001600160a01b031680610166576040516371724ffd60e01b815260040160405180910390fd5b806001600160a01b03811663d4a7db7f336040516001600160e01b031960e084901b1681526001600160a01b039091166004820152602401602060405180830381865afa1580156101bb573d6000803e3d6000fd5b505050506040513d601f19601f820116820180604052508101906101df9190610b4a565b6101fc57604051631acd860160e31b815260040160405180910390fd5b600085900361021e57604051633f4ab26f60e21b815260040160405180910390fd5b84831461023d5760405162514d8b60e31b815260040160405180910390fd5b6102456107c4565b60005b858110156102ae576102a687878381811061026557610265610b67565b905060200201602081019061027a919061098a565b86868481811061028c5761028c610b67565b90506020020160208101906102a19190610b7d565b61084e565b600101610248565b5070544f4b454e5f4d494e5f54585f53495a4560781b7ffce5ba10ca670317c4ad6aaf14bfb5c4467bb4415ab89dafce1434471a227126878787876040516102f99493929190610bf4565b60405180910390a2505050505050565b6000610313610762565b600083600481111561032757610327610b34565b600481111561033857610338610b34565b8152602081019190915260400160002054640100000000900460ff1692915050565b610362610796565b600201546001600160a01b03168061038d576040516371724ffd60e01b815260040160405180910390fd5b806001600160a01b03811663d4a7db7f336040516001600160e01b031960e084901b1681526001600160a01b039091166004820152602401602060405180830381865afa1580156103e2573d6000803e3d6000fd5b505050506040513d601f19601f820116820180604052508101906104069190610b4a565b61042357604051631acd860160e31b815260040160405180910390fd5b61042b610796565b6001015460405163c34593a360e01b815263ffffffff851660048201526001600160a01b039091169063c34593a39060240160006040518083038186803b15801561047557600080fd5b505afa158015610489573d6000803e3d6000fd5b5050505060005b8481101561054e576104c88686838181106104ad576104ad610b67565b90506020020160208101906104c2919061098a565b8561084e565b8363ffffffff168686838181106104e1576104e1610b67565b90506020020160208101906104f6919061098a565b600481111561050757610507610b34565b60405170544f4b454e5f4d494e5f54585f53495a4560781b907f4f87ac5c7868c692420a972d0f84fa7750afbf2b8a09848fefc355020bce707b90600090a4600101610490565b505050505050565b61055e610796565b600201546001600160a01b031680610589576040516371724ffd60e01b815260040160405180910390fd5b806001600160a01b03811663d4a7db7f336040516001600160e01b031960e084901b1681526001600160a01b039091166004820152602401602060405180830381865afa1580156105de573d6000803e3d6000fd5b505050506040513d601f19601f820116820180604052508101906106029190610b4a565b61061f57604051631acd860160e31b815260040160405180910390fd5b60005b848110156106b25783610633610762565b600088888581811061064757610647610b67565b905060200201602081019061065c919061098a565b600481111561066d5761066d610b34565b600481111561067e5761067e610b34565b8152602081019190915260400160002080549115156401000000000264ff0000000019909216919091179055600101610622565b50821561070c5770544f4b454e5f4d494e5f54585f53495a4560781b7f4dfa26a794eb61a703a2beac482f06b4372aed0b7c0d6b4490db416146d8e32e86866040516106ff929190610c54565b60405180910390a261075b565b70544f4b454e5f4d494e5f54585f53495a4560781b7fe67b4c6b446d2563a2a39eb75b71127a3f908bcfcef4f7c89bd9e1b3ef39d15e8686604051610752929190610c54565b60405180910390a25b5050505050565b60008061079060017f5a9cda40a1024916a94d03a0be6b3c39e1927dc802875d6a0ddec4db3b41404e610c70565b92915050565b60008061079060017f1c7e9355957c344e150b07462120dcb6c99b078e258444a7cd1841042fa7f14b610c70565b60006107ce610762565b905060005b6107db610796565b60030154600160a01b900460ff16811161084a5781600082600481111561080457610804610b34565b600481111561081557610815610b34565b600481111561082657610826610b34565b81526020810191909152604001600020805464ffffffffff191690556001016107d3565b5050565b610856610796565b6001015460405163c34593a360e01b815263ffffffff831660048201526001600160a01b039091169063c34593a39060240160006040518083038186803b1580156108a057600080fd5b505afa1580156108b4573d6000803e3d6000fd5b5050505060006108c2610762565b9050818160008560048111156108da576108da610b34565b60048111156108eb576108eb610b34565b815260200190815260200160002060000160006101000a81548163ffffffff021916908363ffffffff160217905550600181600001600085600481111561093457610934610b34565b600481111561094557610945610b34565b8152602081019190915260400160002080549115156401000000000264ff0000000019909216919091179055505050565b80356005811061098557600080fd5b919050565b60006020828403121561099c57600080fd5b6109a582610976565b9392505050565b60008083601f8401126109be57600080fd5b50813567ffffffffffffffff8111156109d657600080fd5b6020830191508360208260051b85010111156109f157600080fd5b9250929050565b60008060008060408587031215610a0e57600080fd5b843567ffffffffffffffff80821115610a2657600080fd5b610a32888389016109ac565b90965094506020870135915080821115610a4b57600080fd5b50610a58878288016109ac565b95989497509550505050565b803563ffffffff8116811461098557600080fd5b600080600060408486031215610a8d57600080fd5b833567ffffffffffffffff811115610aa457600080fd5b610ab0868287016109ac565b9094509250610ac3905060208501610a64565b90509250925092565b8015158114610ada57600080fd5b50565b600080600060408486031215610af257600080fd5b833567ffffffffffffffff811115610b0957600080fd5b610b15868287016109ac565b9094509250506020840135610b2981610acc565b809150509250925092565b634e487b7160e01b600052602160045260246000fd5b600060208284031215610b5c57600080fd5b81516109a581610acc565b634e487b7160e01b600052603260045260246000fd5b600060208284031215610b8f57600080fd5b6109a582610a64565b818352600060208085019450826000805b86811015610be857610bba83610976565b60058110610bd657634e487b7160e01b83526021600452602483fd5b88529683019691830191600101610ba9565b50959695505050505050565b604081526000610c08604083018688610b98565b8281036020848101919091528482528591810160005b86811015610c475763ffffffff610c3485610a64565b1682529282019290820190600101610c1e565b5098975050505050505050565b602081526000610c68602083018486610b98565b949350505050565b8181038181111561079057634e487b7160e01b600052601160045260246000fdfea2646970667358221220101df2fa923609af4ebf762902b6296892cb8a845686e32c15a635327999ee1364736f6c63430008180033","linkReferences":{}},"methodIdentifiers":{"activateMinTransactionSizeRule(uint8[],bool)":"68ecb274","getTokenMinTxSizeId(uint8)":"228e6a75","isTokenMinTxSizeActive(uint8)":"40cecd55","setTokenMinTxSizeId(uint8[],uint32)":"526b011b","setTokenMinTxSizeIdFull(uint8[],uint32[])":"38ab03a2"},"id":196}