{"abi":[{"type":"function","name":"ACCESS_LEVEL_ADMIN_ROLE","inputs":[],"outputs":[{"name":"","type":"bytes32","internalType":"bytes32"}],"stateMutability":"view"},{"type":"function","name":"APP_ADMIN_ROLE","inputs":[],"outputs":[{"name":"","type":"bytes32","internalType":"bytes32"}],"stateMutability":"view"},{"type":"function","name":"MAX_ACTION_TYPES","inputs":[],"outputs":[{"name":"","type":"uint8","internalType":"uint8"}],"stateMutability":"view"},{"type":"function","name":"PROPOSED_SUPER_ADMIN_ROLE","inputs":[],"outputs":[{"name":"","type":"bytes32","internalType":"bytes32"}],"stateMutability":"view"},{"type":"function","name":"RISK_ADMIN_ROLE","inputs":[],"outputs":[{"name":"","type":"bytes32","internalType":"bytes32"}],"stateMutability":"view"},{"type":"function","name":"RULE_BYPASS_ACCOUNT","inputs":[],"outputs":[{"name":"","type":"bytes32","internalType":"bytes32"}],"stateMutability":"view"},{"type":"function","name":"SUPER_ADMIN_ROLE","inputs":[],"outputs":[{"name":"","type":"bytes32","internalType":"bytes32"}],"stateMutability":"view"},{"type":"function","name":"_addNativeFacetsToFacetCut","inputs":[],"outputs":[],"stateMutability":"nonpayable"},{"type":"function","name":"_addProcessingFacetsToFacetCut","inputs":[],"outputs":[],"stateMutability":"nonpayable"},{"type":"function","name":"_addStorageFacetsToFacetCut","inputs":[],"outputs":[],"stateMutability":"nonpayable"},{"type":"function","name":"_createActionsArray","inputs":[],"outputs":[{"name":"","type":"uint8[]","internalType":"enum ActionTypes[]"}],"stateMutability":"pure"},{"type":"function","name":"_createAppHandler","inputs":[{"name":"_ruleProcessor","type":"address","internalType":"contract RuleProcessorDiamond"},{"name":"_appManager","type":"address","internalType":"contract ApplicationAppManager"}],"outputs":[{"name":"_applicationHandler","type":"address","internalType":"contract ApplicationHandler"}],"stateMutability":"nonpayable"},{"type":"function","name":"_createAppManager","inputs":[],"outputs":[{"name":"_appManager","type":"address","internalType":"contract ApplicationAppManager"}],"stateMutability":"nonpayable"},{"type":"function","name":"_createERC20","inputs":[{"name":"_name","type":"string","internalType":"string"},{"name":"_symbol","type":"string","internalType":"string"},{"name":"_appManager","type":"address","internalType":"contract ApplicationAppManager"}],"outputs":[{"name":"_token","type":"address","internalType":"contract ApplicationERC20"}],"stateMutability":"nonpayable"},{"type":"function","name":"_createERC20HandlerDiamond","inputs":[],"outputs":[{"name":"diamond","type":"address","internalType":"contract HandlerDiamond"}],"stateMutability":"nonpayable"},{"type":"function","name":"_createERC20HandlerSpecialized","inputs":[{"name":"_ruleProcessor","type":"address","internalType":"contract RuleProcessorDiamond"},{"name":"_appManager","type":"address","internalType":"contract ApplicationAppManager"},{"name":"_token","type":"address","internalType":"contract ApplicationERC20"},{"name":"_appAdmin","type":"address","internalType":"address"}],"outputs":[{"name":"handler","type":"address","internalType":"contract HandlerDiamond"}],"stateMutability":"nonpayable"},{"type":"function","name":"_createERC20Min","inputs":[{"name":"_name","type":"string","internalType":"string"},{"name":"_symbol","type":"string","internalType":"string"},{"name":"_appManager","type":"address","internalType":"contract ApplicationAppManager"}],"outputs":[{"name":"_token","type":"address","internalType":"contract MinimalERC20"}],"stateMutability":"nonpayable"},{"type":"function","name":"_createERC20Pricing","inputs":[],"outputs":[{"name":"_pricer","type":"address","internalType":"contract ApplicationERC20Pricing"}],"stateMutability":"nonpayable"},{"type":"function","name":"_createERC721","inputs":[{"name":"_name","type":"string","internalType":"string"},{"name":"_symbol","type":"string","internalType":"string"},{"name":"_appManager","type":"address","internalType":"contract ApplicationAppManager"}],"outputs":[{"name":"_token","type":"address","internalType":"contract ApplicationERC721AdminOrOwnerMint"}],"stateMutability":"nonpayable"},{"type":"function","name":"_createERC721HandlerDiamond","inputs":[],"outputs":[{"name":"diamond","type":"address","internalType":"contract HandlerDiamond"}],"stateMutability":"nonpayable"},{"type":"function","name":"_createERC721Min","inputs":[{"name":"_name","type":"string","internalType":"string"},{"name":"_symbol","type":"string","internalType":"string"},{"name":"_appManager","type":"address","internalType":"contract ApplicationAppManager"}],"outputs":[{"name":"_token","type":"address","internalType":"contract MinimalERC721"}],"stateMutability":"nonpayable"},{"type":"function","name":"_createERC721Pricing","inputs":[],"outputs":[{"name":"_pricer","type":"address","internalType":"contract ApplicationERC721Pricing"}],"stateMutability":"nonpayable"},{"type":"function","name":"_createERC721Upgradeable","inputs":[],"outputs":[{"name":"_token","type":"address","internalType":"contract ApplicationERC721UpgAdminMint"}],"stateMutability":"nonpayable"},{"type":"function","name":"_createERC721UpgradeableProxy","inputs":[{"name":"_applicationNFTU","type":"address","internalType":"address"},{"name":"_proxyOwner","type":"address","internalType":"address"}],"outputs":[{"name":"_proxy","type":"address","internalType":"contract ApplicationERC721UProxy"}],"stateMutability":"nonpayable"},{"type":"function","name":"_createOracleApproved","inputs":[],"outputs":[{"name":"_oracleAllowed","type":"address","internalType":"contract OracleApproved"}],"stateMutability":"nonpayable"},{"type":"function","name":"_createOracleDenied","inputs":[],"outputs":[{"name":"_oracleDenied","type":"address","internalType":"contract OracleDenied"}],"stateMutability":"nonpayable"},{"type":"function","name":"_createRulesProcessorDiamond","inputs":[],"outputs":[{"name":"diamond","type":"address","internalType":"contract RuleProcessorDiamond"}],"stateMutability":"nonpayable"},{"type":"function","name":"_createSelectorArray","inputs":[{"name":"_facet","type":"string","internalType":"string"}],"outputs":[{"name":"_selectors","type":"bytes4[]","internalType":"bytes4[]"}],"stateMutability":"nonpayable"},{"type":"function","name":"applicationAppManager","inputs":[],"outputs":[{"name":"","type":"address","internalType":"contract ApplicationAppManager"}],"stateMutability":"view"},{"type":"function","name":"applicationAppManager2","inputs":[],"outputs":[{"name":"","type":"address","internalType":"contract ApplicationAppManager"}],"stateMutability":"view"},{"type":"function","name":"applicationCoin","inputs":[],"outputs":[{"name":"","type":"address","internalType":"contract ApplicationERC20"}],"stateMutability":"view"},{"type":"function","name":"applicationCoin2","inputs":[],"outputs":[{"name":"","type":"address","internalType":"contract ApplicationERC20"}],"stateMutability":"view"},{"type":"function","name":"applicationCoinHandler","inputs":[],"outputs":[{"name":"","type":"address","internalType":"contract HandlerDiamond"}],"stateMutability":"view"},{"type":"function","name":"applicationCoinHandler2","inputs":[],"outputs":[{"name":"","type":"address","internalType":"contract HandlerDiamond"}],"stateMutability":"view"},{"type":"function","name":"applicationCoinHandlerSpecialOwner","inputs":[],"outputs":[{"name":"","type":"address","internalType":"contract HandlerDiamond"}],"stateMutability":"view"},{"type":"function","name":"applicationHandler","inputs":[],"outputs":[{"name":"","type":"address","internalType":"contract ApplicationHandler"}],"stateMutability":"view"},{"type":"function","name":"applicationHandler2","inputs":[],"outputs":[{"name":"","type":"address","internalType":"contract ApplicationHandler"}],"stateMutability":"view"},{"type":"function","name":"applicationNFT","inputs":[],"outputs":[{"name":"","type":"address","internalType":"contract ApplicationERC721AdminOrOwnerMint"}],"stateMutability":"view"},{"type":"function","name":"applicationNFT2","inputs":[],"outputs":[{"name":"","type":"address","internalType":"contract ApplicationERC721UpgAdminMint"}],"stateMutability":"view"},{"type":"function","name":"applicationNFTExtra","inputs":[],"outputs":[{"name":"","type":"address","internalType":"contract ApplicationERC721UExtra"}],"stateMutability":"view"},{"type":"function","name":"applicationNFTExtra2","inputs":[],"outputs":[{"name":"","type":"address","internalType":"contract ApplicationERC721UExtra2"}],"stateMutability":"view"},{"type":"function","name":"applicationNFTHandler","inputs":[],"outputs":[{"name":"","type":"address","internalType":"contract HandlerDiamond"}],"stateMutability":"view"},{"type":"function","name":"applicationNFTHandler2","inputs":[],"outputs":[{"name":"","type":"address","internalType":"contract HandlerDiamond"}],"stateMutability":"view"},{"type":"function","name":"applicationNFTHandlerv2","inputs":[],"outputs":[{"name":"","type":"address","internalType":"contract HandlerDiamond"}],"stateMutability":"view"},{"type":"function","name":"applicationNFTProxy","inputs":[],"outputs":[{"name":"","type":"address","internalType":"contract ApplicationERC721UProxy"}],"stateMutability":"view"},{"type":"function","name":"applicationNFTU","inputs":[],"outputs":[{"name":"","type":"address","internalType":"contract ApplicationERC721UpgAdminMint"}],"stateMutability":"view"},{"type":"function","name":"applicationNFTv2","inputs":[],"outputs":[{"name":"","type":"address","internalType":"contract ApplicationERC721AdminOrOwnerMint"}],"stateMutability":"view"},{"type":"function","name":"boredReptileHandler","inputs":[],"outputs":[{"name":"","type":"address","internalType":"contract HandlerDiamond"}],"stateMutability":"view"},{"type":"function","name":"boredReptilianNFT","inputs":[],"outputs":[{"name":"","type":"address","internalType":"contract ApplicationERC721AdminOrOwnerMint"}],"stateMutability":"view"},{"type":"function","name":"boredWhaleHandler","inputs":[],"outputs":[{"name":"","type":"address","internalType":"contract HandlerDiamond"}],"stateMutability":"view"},{"type":"function","name":"boredWhaleNFT","inputs":[],"outputs":[{"name":"","type":"address","internalType":"contract ApplicationERC721AdminOrOwnerMint"}],"stateMutability":"view"},{"type":"function","name":"createActionTypeArray","inputs":[{"name":"arg1","type":"uint8","internalType":"enum ActionTypes"},{"name":"arg2","type":"uint8","internalType":"enum ActionTypes"},{"name":"arg3","type":"uint8","internalType":"enum ActionTypes"},{"name":"arg4","type":"uint8","internalType":"enum ActionTypes"}],"outputs":[{"name":"array","type":"uint8[]","internalType":"enum ActionTypes[]"}],"stateMutability":"pure"},{"type":"function","name":"createActionTypeArray","inputs":[{"name":"arg1","type":"uint8","internalType":"enum ActionTypes"},{"name":"arg2","type":"uint8","internalType":"enum ActionTypes"},{"name":"arg3","type":"uint8","internalType":"enum ActionTypes"}],"outputs":[{"name":"array","type":"uint8[]","internalType":"enum ActionTypes[]"}],"stateMutability":"pure"},{"type":"function","name":"createActionTypeArray","inputs":[{"name":"arg1","type":"uint8","internalType":"enum ActionTypes"},{"name":"arg2","type":"uint8","internalType":"enum ActionTypes"},{"name":"arg3","type":"uint8","internalType":"enum ActionTypes"},{"name":"arg4","type":"uint8","internalType":"enum ActionTypes"},{"name":"arg5","type":"uint8","internalType":"enum ActionTypes"}],"outputs":[{"name":"array","type":"uint8[]","internalType":"enum ActionTypes[]"}],"stateMutability":"pure"},{"type":"function","name":"createActionTypeArray","inputs":[{"name":"arg1","type":"uint8","internalType":"enum ActionTypes"},{"name":"arg2","type":"uint8","internalType":"enum ActionTypes"}],"outputs":[{"name":"array","type":"uint8[]","internalType":"enum ActionTypes[]"}],"stateMutability":"pure"},{"type":"function","name":"createActionTypeArray","inputs":[{"name":"arg1","type":"uint8","internalType":"enum ActionTypes"}],"outputs":[{"name":"array","type":"uint8[]","internalType":"enum ActionTypes[]"}],"stateMutability":"pure"},{"type":"function","name":"createAddressArray","inputs":[{"name":"arg1","type":"address","internalType":"address"},{"name":"arg2","type":"address","internalType":"address"},{"name":"arg3","type":"address","internalType":"address"}],"outputs":[{"name":"array","type":"address[]","internalType":"address[]"}],"stateMutability":"pure"},{"type":"function","name":"createAddressArray","inputs":[{"name":"arg1","type":"address","internalType":"address"}],"outputs":[{"name":"array","type":"address[]","internalType":"address[]"}],"stateMutability":"pure"},{"type":"function","name":"createAddressArray","inputs":[{"name":"arg1","type":"address","internalType":"address"},{"name":"arg2","type":"address","internalType":"address"}],"outputs":[{"name":"array","type":"address[]","internalType":"address[]"}],"stateMutability":"pure"},{"type":"function","name":"createAppManager","inputs":[{"name":"_ruleProcessor","type":"address","internalType":"contract RuleProcessorDiamond"}],"outputs":[{"name":"_appManager","type":"address","internalType":"contract ApplicationAppManager"}],"stateMutability":"nonpayable"},{"type":"function","name":"createBytes32Array","inputs":[{"name":"arg1","type":"bytes32","internalType":"bytes32"}],"outputs":[{"name":"array","type":"bytes32[]","internalType":"bytes32[]"}],"stateMutability":"pure"},{"type":"function","name":"createBytes32Array","inputs":[{"name":"arg1","type":"bytes32","internalType":"bytes32"},{"name":"arg2","type":"bytes32","internalType":"bytes32"}],"outputs":[{"name":"array","type":"bytes32[]","internalType":"bytes32[]"}],"stateMutability":"pure"},{"type":"function","name":"createBytes32Array","inputs":[{"name":"arg1","type":"bytes32","internalType":"bytes32"},{"name":"arg2","type":"bytes32","internalType":"bytes32"},{"name":"arg3","type":"bytes32","internalType":"bytes32"}],"outputs":[{"name":"array","type":"bytes32[]","internalType":"bytes32[]"}],"stateMutability":"pure"},{"type":"function","name":"createBytes32Array","inputs":[{"name":"arg1","type":"bytes32","internalType":"bytes32"},{"name":"arg2","type":"bytes32","internalType":"bytes32"},{"name":"arg3","type":"bytes32","internalType":"bytes32"},{"name":"arg4","type":"bytes32","internalType":"bytes32"},{"name":"arg5","type":"bytes32","internalType":"bytes32"},{"name":"arg6","type":"bytes32","internalType":"bytes32"},{"name":"arg7","type":"bytes32","internalType":"bytes32"},{"name":"arg8","type":"bytes32","internalType":"bytes32"}],"outputs":[{"name":"array","type":"bytes32[]","internalType":"bytes32[]"}],"stateMutability":"pure"},{"type":"function","name":"createRulesProcessorDiamond","inputs":[],"outputs":[{"name":"diamond","type":"address","internalType":"contract RuleProcessorDiamond"}],"stateMutability":"nonpayable"},{"type":"function","name":"createUint16Array","inputs":[{"name":"arg1","type":"uint16","internalType":"uint16"},{"name":"arg2","type":"uint16","internalType":"uint16"}],"outputs":[{"name":"array","type":"uint16[]","internalType":"uint16[]"}],"stateMutability":"pure"},{"type":"function","name":"createUint16Array","inputs":[{"name":"arg1","type":"uint16","internalType":"uint16"}],"outputs":[{"name":"array","type":"uint16[]","internalType":"uint16[]"}],"stateMutability":"pure"},{"type":"function","name":"createUint16Array","inputs":[{"name":"arg1","type":"uint16","internalType":"uint16"},{"name":"arg2","type":"uint16","internalType":"uint16"},{"name":"arg3","type":"uint16","internalType":"uint16"}],"outputs":[{"name":"array","type":"uint16[]","internalType":"uint16[]"}],"stateMutability":"pure"},{"type":"function","name":"createUint192Array","inputs":[{"name":"arg1","type":"uint192","internalType":"uint192"},{"name":"arg2","type":"uint192","internalType":"uint192"}],"outputs":[{"name":"array","type":"uint192[]","internalType":"uint192[]"}],"stateMutability":"pure"},{"type":"function","name":"createUint192Array","inputs":[{"name":"arg1","type":"uint192","internalType":"uint192"}],"outputs":[{"name":"array","type":"uint192[]","internalType":"uint192[]"}],"stateMutability":"pure"},{"type":"function","name":"createUint192Array","inputs":[{"name":"arg1","type":"uint192","internalType":"uint192"},{"name":"arg2","type":"uint192","internalType":"uint192"},{"name":"arg3","type":"uint192","internalType":"uint192"}],"outputs":[{"name":"array","type":"uint192[]","internalType":"uint192[]"}],"stateMutability":"pure"},{"type":"function","name":"createUint256Array","inputs":[{"name":"arg1","type":"uint256","internalType":"uint256"},{"name":"arg2","type":"uint256","internalType":"uint256"},{"name":"arg3","type":"uint256","internalType":"uint256"}],"outputs":[{"name":"array","type":"uint256[]","internalType":"uint256[]"}],"stateMutability":"pure"},{"type":"function","name":"createUint256Array","inputs":[{"name":"arg1","type":"uint256","internalType":"uint256"},{"name":"arg2","type":"uint256","internalType":"uint256"}],"outputs":[{"name":"array","type":"uint256[]","internalType":"uint256[]"}],"stateMutability":"pure"},{"type":"function","name":"createUint256Array","inputs":[{"name":"arg1","type":"uint256","internalType":"uint256"}],"outputs":[{"name":"array","type":"uint256[]","internalType":"uint256[]"}],"stateMutability":"pure"},{"type":"function","name":"createUint48Array","inputs":[{"name":"arg1","type":"uint48","internalType":"uint48"},{"name":"arg2","type":"uint48","internalType":"uint48"},{"name":"arg3","type":"uint48","internalType":"uint48"}],"outputs":[{"name":"array","type":"uint48[]","internalType":"uint48[]"}],"stateMutability":"pure"},{"type":"function","name":"createUint48Array","inputs":[{"name":"arg1","type":"uint48","internalType":"uint48"},{"name":"arg2","type":"uint48","internalType":"uint48"},{"name":"arg3","type":"uint48","internalType":"uint48"},{"name":"arg4","type":"uint48","internalType":"uint48"}],"outputs":[{"name":"array","type":"uint48[]","internalType":"uint48[]"}],"stateMutability":"pure"},{"type":"function","name":"createUint48Array","inputs":[{"name":"arg1","type":"uint48","internalType":"uint48"},{"name":"arg2","type":"uint48","internalType":"uint48"}],"outputs":[{"name":"array","type":"uint48[]","internalType":"uint48[]"}],"stateMutability":"pure"},{"type":"function","name":"createUint48Array","inputs":[{"name":"arg1","type":"uint48","internalType":"uint48"}],"outputs":[{"name":"array","type":"uint48[]","internalType":"uint48[]"}],"stateMutability":"pure"},{"type":"function","name":"createUint48Array","inputs":[{"name":"arg1","type":"uint48","internalType":"uint48"},{"name":"arg2","type":"uint48","internalType":"uint48"},{"name":"arg3","type":"uint48","internalType":"uint48"},{"name":"arg4","type":"uint48","internalType":"uint48"},{"name":"arg5","type":"uint48","internalType":"uint48"}],"outputs":[{"name":"array","type":"uint48[]","internalType":"uint48[]"}],"stateMutability":"pure"},{"type":"function","name":"createUint64Array","inputs":[{"name":"arg1","type":"uint64","internalType":"uint64"}],"outputs":[{"name":"array","type":"uint64[]","internalType":"uint64[]"}],"stateMutability":"pure"},{"type":"function","name":"createUint64Array","inputs":[{"name":"arg1","type":"uint64","internalType":"uint64"},{"name":"arg2","type":"uint64","internalType":"uint64"},{"name":"arg3","type":"uint64","internalType":"uint64"},{"name":"arg4","type":"uint64","internalType":"uint64"}],"outputs":[{"name":"array","type":"uint64[]","internalType":"uint64[]"}],"stateMutability":"pure"},{"type":"function","name":"createUint64Array","inputs":[{"name":"arg1","type":"uint64","internalType":"uint64"},{"name":"arg2","type":"uint64","internalType":"uint64"}],"outputs":[{"name":"array","type":"uint64[]","internalType":"uint64[]"}],"stateMutability":"pure"},{"type":"function","name":"createUint64Array","inputs":[{"name":"arg1","type":"uint64","internalType":"uint64"},{"name":"arg2","type":"uint64","internalType":"uint64"},{"name":"arg3","type":"uint64","internalType":"uint64"}],"outputs":[{"name":"array","type":"uint64[]","internalType":"uint64[]"}],"stateMutability":"pure"},{"type":"function","name":"createUint64Array","inputs":[{"name":"arg1","type":"uint64","internalType":"uint64"},{"name":"arg2","type":"uint64","internalType":"uint64"},{"name":"arg3","type":"uint64","internalType":"uint64"},{"name":"arg4","type":"uint64","internalType":"uint64"},{"name":"arg5","type":"uint64","internalType":"uint64"}],"outputs":[{"name":"array","type":"uint64[]","internalType":"uint64[]"}],"stateMutability":"pure"},{"type":"function","name":"createUint8Array","inputs":[{"name":"arg1","type":"uint8","internalType":"uint8"},{"name":"arg2","type":"uint8","internalType":"uint8"},{"name":"arg3","type":"uint8","internalType":"uint8"}],"outputs":[{"name":"array","type":"uint8[]","internalType":"uint8[]"}],"stateMutability":"pure"},{"type":"function","name":"createUint8Array","inputs":[{"name":"arg1","type":"uint8","internalType":"uint8"},{"name":"arg2","type":"uint8","internalType":"uint8"},{"name":"arg3","type":"uint8","internalType":"uint8"},{"name":"arg4","type":"uint8","internalType":"uint8"}],"outputs":[{"name":"array","type":"uint8[]","internalType":"uint8[]"}],"stateMutability":"pure"},{"type":"function","name":"createUint8Array","inputs":[{"name":"arg1","type":"uint8","internalType":"uint8"},{"name":"arg2","type":"uint8","internalType":"uint8"},{"name":"arg3","type":"uint8","internalType":"uint8"},{"name":"arg4","type":"uint8","internalType":"uint8"},{"name":"arg5","type":"uint8","internalType":"uint8"}],"outputs":[{"name":"array","type":"uint8[]","internalType":"uint8[]"}],"stateMutability":"pure"},{"type":"function","name":"createUint8Array","inputs":[{"name":"arg1","type":"uint8","internalType":"uint8"}],"outputs":[{"name":"array","type":"uint8[]","internalType":"uint8[]"}],"stateMutability":"pure"},{"type":"function","name":"createUint8Array","inputs":[{"name":"arg1","type":"uint8","internalType":"uint8"},{"name":"arg2","type":"uint8","internalType":"uint8"}],"outputs":[{"name":"array","type":"uint8[]","internalType":"uint8[]"}],"stateMutability":"pure"},{"type":"function","name":"erc20Pricer","inputs":[],"outputs":[{"name":"","type":"address","internalType":"contract ApplicationERC20Pricing"}],"stateMutability":"view"},{"type":"function","name":"erc721Pricer","inputs":[],"outputs":[{"name":"","type":"address","internalType":"contract ApplicationERC721Pricing"}],"stateMutability":"view"},{"type":"function","name":"excludeArtifacts","inputs":[],"outputs":[{"name":"excludedArtifacts_","type":"string[]","internalType":"string[]"}],"stateMutability":"view"},{"type":"function","name":"excludeContracts","inputs":[],"outputs":[{"name":"excludedContracts_","type":"address[]","internalType":"address[]"}],"stateMutability":"view"},{"type":"function","name":"excludeSenders","inputs":[],"outputs":[{"name":"excludedSenders_","type":"address[]","internalType":"address[]"}],"stateMutability":"view"},{"type":"function","name":"exists","inputs":[{"name":"_address","type":"address","internalType":"address"},{"name":"_addressList","type":"address[]","internalType":"address[]"}],"outputs":[{"name":"","type":"bool","internalType":"bool"}],"stateMutability":"pure"},{"type":"function","name":"failed","inputs":[],"outputs":[{"name":"","type":"bool","internalType":"bool"}],"stateMutability":"view"},{"type":"function","name":"getUniqueAddresses","inputs":[{"name":"_seed","type":"uint256","internalType":"uint256"},{"name":"_number","type":"uint8","internalType":"uint8"}],"outputs":[{"name":"_addressList","type":"address[]","internalType":"address[]"}],"stateMutability":"view"},{"type":"function","name":"invariant_ApproveAddressToTradingListAlreadyApproved","inputs":[],"outputs":[],"stateMutability":"nonpayable"},{"type":"function","name":"invariant_ApproveAddressToTradingListEmitsEvent","inputs":[],"outputs":[],"stateMutability":"nonpayable"},{"type":"function","name":"invariant_ApproveAddressToTradingListNotPreviouslyRegistered","inputs":[],"outputs":[],"stateMutability":"nonpayable"},{"type":"function","name":"invariant_ApproveAddressToTradingListOnlyAppAdmin","inputs":[],"outputs":[],"stateMutability":"nonpayable"},{"type":"function","name":"invariant_CheckApplicationRulesOnlyRegisteredHandler","inputs":[],"outputs":[],"stateMutability":"nonpayable"},{"type":"function","name":"invariant_ConfirmAppManagerAppAdminOnly","inputs":[],"outputs":[],"stateMutability":"nonpayable"},{"type":"function","name":"invariant_ConfirmDataContractMigrationAppAdminOnly","inputs":[],"outputs":[],"stateMutability":"nonpayable"},{"type":"function","name":"invariant_ConfirmDataContractMigrationEmitsEvent","inputs":[],"outputs":[],"stateMutability":"nonpayable"},{"type":"function","name":"invariant_ConfirmNewDataProviderEmitsEventAccessLevel","inputs":[],"outputs":[],"stateMutability":"nonpayable"},{"type":"function","name":"invariant_ConfirmNewDataProviderEmitsEventAccount","inputs":[],"outputs":[],"stateMutability":"nonpayable"},{"type":"function","name":"invariant_ConfirmNewDataProviderEmitsEventPauseRule","inputs":[],"outputs":[],"stateMutability":"nonpayable"},{"type":"function","name":"invariant_ConfirmNewDataProviderEmitsEventRiskScore","inputs":[],"outputs":[],"stateMutability":"nonpayable"},{"type":"function","name":"invariant_ConfirmNewDataProviderEmitsEventTag","inputs":[],"outputs":[],"stateMutability":"nonpayable"},{"type":"function","name":"invariant_DeRegisterAMMOnlyAppAdmin","inputs":[],"outputs":[],"stateMutability":"nonpayable"},{"type":"function","name":"invariant_DeRegisterAMMPreviouslyRegistered","inputs":[],"outputs":[],"stateMutability":"nonpayable"},{"type":"function","name":"invariant_DeRegisterTokenAlwaysEmitsEvent","inputs":[],"outputs":[],"stateMutability":"nonpayable"},{"type":"function","name":"invariant_DeRegisterTokenOnlyAppAdmin","inputs":[],"outputs":[],"stateMutability":"nonpayable"},{"type":"function","name":"invariant_DeRegisterTokenPreviouslyRegistered","inputs":[],"outputs":[],"stateMutability":"nonpayable"},{"type":"function","name":"invariant_DeRegisterTreasuryOnlyAppAdmin","inputs":[],"outputs":[],"stateMutability":"nonpayable"},{"type":"function","name":"invariant_DeRegisterTreasuryPreviouslyRegistered","inputs":[],"outputs":[],"stateMutability":"nonpayable"},{"type":"function","name":"invariant_NewApplicationHandlerAddressEmitsEvent","inputs":[],"outputs":[],"stateMutability":"nonpayable"},{"type":"function","name":"invariant_NewApplicationHandlerAddressOnlyAppAdmin","inputs":[],"outputs":[],"stateMutability":"nonpayable"},{"type":"function","name":"invariant_NewApplicationHandlerAddressZeroAddressNotAllowed","inputs":[],"outputs":[],"stateMutability":"nonpayable"},{"type":"function","name":"invariant_ProposeDataContractMigrationEmitsEvent","inputs":[],"outputs":[],"stateMutability":"nonpayable"},{"type":"function","name":"invariant_ProposeDataContractMigrationOnlyAppAdmin","inputs":[],"outputs":[],"stateMutability":"nonpayable"},{"type":"function","name":"invariant_RegisterAMMOnlyAppAdmin","inputs":[],"outputs":[],"stateMutability":"nonpayable"},{"type":"function","name":"invariant_RegisterAMMZeroAddressNotAllowed","inputs":[],"outputs":[],"stateMutability":"nonpayable"},{"type":"function","name":"invariant_RegisterTokenOnlyAppAdmin","inputs":[],"outputs":[],"stateMutability":"nonpayable"},{"type":"function","name":"invariant_RegisterTokenZeroAddressNotAllowed","inputs":[],"outputs":[],"stateMutability":"nonpayable"},{"type":"function","name":"invariant_RegisterTreasuryEmitsEvent","inputs":[],"outputs":[],"stateMutability":"nonpayable"},{"type":"function","name":"invariant_RegisterTreasuryOnlyAppAdmin","inputs":[],"outputs":[],"stateMutability":"nonpayable"},{"type":"function","name":"invariant_SetAppNameOnlyAppAdmin","inputs":[],"outputs":[],"stateMutability":"nonpayable"},{"type":"function","name":"minimalCoin","inputs":[],"outputs":[{"name":"","type":"address","internalType":"contract MinimalERC20"}],"stateMutability":"view"},{"type":"function","name":"minimalNFT","inputs":[],"outputs":[{"name":"","type":"address","internalType":"contract MinimalERC721"}],"stateMutability":"view"},{"type":"function","name":"openOcean","inputs":[],"outputs":[{"name":"","type":"address","internalType":"contract ApplicationERC721Pricing"}],"stateMutability":"view"},{"type":"function","name":"oracleApproved","inputs":[],"outputs":[{"name":"","type":"address","internalType":"contract OracleApproved"}],"stateMutability":"view"},{"type":"function","name":"oracleDenied","inputs":[],"outputs":[{"name":"","type":"address","internalType":"contract OracleDenied"}],"stateMutability":"view"},{"type":"function","name":"ruleProcessor","inputs":[],"outputs":[{"name":"","type":"address","internalType":"contract RuleProcessorDiamond"}],"stateMutability":"view"},{"type":"function","name":"setUp","inputs":[],"outputs":[],"stateMutability":"nonpayable"},{"type":"function","name":"setUpProcotolAndCreateERC20AndDiamondHandler","inputs":[],"outputs":[],"stateMutability":"nonpayable"},{"type":"function","name":"setUpProcotolAndCreateERC20AndHandlerSpecialOwner","inputs":[],"outputs":[],"stateMutability":"nonpayable"},{"type":"function","name":"setUpProcotolAndCreateERC20MinAndDiamondHandler","inputs":[],"outputs":[],"stateMutability":"nonpayable"},{"type":"function","name":"setUpProcotolAndCreateERC721MinAndDiamondHandler","inputs":[],"outputs":[],"stateMutability":"nonpayable"},{"type":"function","name":"setUpProtocol","inputs":[],"outputs":[],"stateMutability":"nonpayable"},{"type":"function","name":"setUpProtocolAndAppManager","inputs":[],"outputs":[],"stateMutability":"nonpayable"},{"type":"function","name":"setUpProtocolAndAppManagerAndPricingAndTokens","inputs":[],"outputs":[],"stateMutability":"nonpayable"},{"type":"function","name":"setUpProtocolAndAppManagerAndTokensUpgradeable","inputs":[],"outputs":[],"stateMutability":"nonpayable"},{"type":"function","name":"setUpProtocolAndAppManagerAndTokensWithERC721HandlerDiamond","inputs":[],"outputs":[],"stateMutability":"nonpayable"},{"type":"function","name":"switchToAccessLevelAdmin","inputs":[],"outputs":[],"stateMutability":"nonpayable"},{"type":"function","name":"switchToAppAdministrator","inputs":[],"outputs":[],"stateMutability":"nonpayable"},{"type":"function","name":"switchToNewAdmin","inputs":[],"outputs":[],"stateMutability":"nonpayable"},{"type":"function","name":"switchToRiskAdmin","inputs":[],"outputs":[],"stateMutability":"nonpayable"},{"type":"function","name":"switchToRuleAdmin","inputs":[],"outputs":[],"stateMutability":"nonpayable"},{"type":"function","name":"switchToRuleBypassAccount","inputs":[],"outputs":[],"stateMutability":"nonpayable"},{"type":"function","name":"switchToSuperAdmin","inputs":[],"outputs":[],"stateMutability":"nonpayable"},{"type":"function","name":"switchToUser","inputs":[],"outputs":[],"stateMutability":"nonpayable"},{"type":"function","name":"targetArtifactSelectors","inputs":[],"outputs":[{"name":"targetedArtifactSelectors_","type":"tuple[]","internalType":"struct StdInvariant.FuzzSelector[]","components":[{"name":"addr","type":"address","internalType":"address"},{"name":"selectors","type":"bytes4[]","internalType":"bytes4[]"}]}],"stateMutability":"view"},{"type":"function","name":"targetArtifacts","inputs":[],"outputs":[{"name":"targetedArtifacts_","type":"string[]","internalType":"string[]"}],"stateMutability":"view"},{"type":"function","name":"targetContracts","inputs":[],"outputs":[{"name":"targetedContracts_","type":"address[]","internalType":"address[]"}],"stateMutability":"view"},{"type":"function","name":"targetInterfaces","inputs":[],"outputs":[{"name":"targetedInterfaces_","type":"tuple[]","internalType":"struct StdInvariant.FuzzInterface[]","components":[{"name":"addr","type":"address","internalType":"address"},{"name":"artifacts","type":"string[]","internalType":"string[]"}]}],"stateMutability":"view"},{"type":"function","name":"targetSelectors","inputs":[],"outputs":[{"name":"targetedSelectors_","type":"tuple[]","internalType":"struct StdInvariant.FuzzSelector[]","components":[{"name":"addr","type":"address","internalType":"address"},{"name":"selectors","type":"bytes4[]","internalType":"bytes4[]"}]}],"stateMutability":"view"},{"type":"function","name":"targetSenders","inputs":[],"outputs":[{"name":"targetedSenders_","type":"address[]","internalType":"address[]"}],"stateMutability":"view"},{"type":"function","name":"testDeployments","inputs":[],"outputs":[{"name":"","type":"bool","internalType":"bool"}],"stateMutability":"view"},{"type":"event","name":"AD1467_AMMRegistered","inputs":[{"name":"_address","type":"address","indexed":true,"internalType":"address"}],"anonymous":false},{"type":"event","name":"AD1467_AccessLevelAdded","inputs":[{"name":"_address","type":"address","indexed":true,"internalType":"address"},{"name":"_level","type":"uint8","indexed":true,"internalType":"uint8"}],"anonymous":false},{"type":"event","name":"AD1467_AccessLevelAdmin","inputs":[{"name":"admin","type":"address","indexed":true,"internalType":"address"},{"name":"add","type":"bool","indexed":true,"internalType":"bool"}],"anonymous":false},{"type":"event","name":"AD1467_AccessLevelProviderSet","inputs":[{"name":"_address","type":"address","indexed":true,"internalType":"address"}],"anonymous":false},{"type":"event","name":"AD1467_AccessLevelRemoved","inputs":[{"name":"_address","type":"address","indexed":true,"internalType":"address"}],"anonymous":false},{"type":"event","name":"AD1467_AccountAdded","inputs":[{"name":"account","type":"address","indexed":true,"internalType":"address"}],"anonymous":false},{"type":"event","name":"AD1467_AccountProviderSet","inputs":[{"name":"_address","type":"address","indexed":true,"internalType":"address"}],"anonymous":false},{"type":"event","name":"AD1467_AccountRemoved","inputs":[{"name":"account","type":"address","indexed":true,"internalType":"address"}],"anonymous":false},{"type":"event","name":"AD1467_AppAdministrator","inputs":[{"name":"admin","type":"address","indexed":true,"internalType":"address"},{"name":"add","type":"bool","indexed":true,"internalType":"bool"}],"anonymous":false},{"type":"event","name":"AD1467_AppManagerAddressProposed","inputs":[{"name":"_address","type":"address","indexed":true,"internalType":"address"}],"anonymous":false},{"type":"event","name":"AD1467_AppManagerAddressSet","inputs":[{"name":"_address","type":"address","indexed":true,"internalType":"address"}],"anonymous":false},{"type":"event","name":"AD1467_AppManagerDataUpgradeProposed","inputs":[{"name":"deployedAddress","type":"address","indexed":true,"internalType":"address"},{"name":"replacedAddress","type":"address","indexed":false,"internalType":"address"}],"anonymous":false},{"type":"event","name":"AD1467_AppManagerDeployed","inputs":[{"name":"superAndAppAdmin","type":"address","indexed":true,"internalType":"address"},{"name":"appName","type":"string","indexed":true,"internalType":"string"}],"anonymous":false},{"type":"event","name":"AD1467_AppManagerDeployedForUpgrade","inputs":[{"name":"superAndAppAdmin","type":"address","indexed":true,"internalType":"address"},{"name":"appName","type":"string","indexed":true,"internalType":"string"}],"anonymous":false},{"type":"event","name":"AD1467_AppNameChanged","inputs":[{"name":"appName","type":"string","indexed":true,"internalType":"string"}],"anonymous":false},{"type":"event","name":"AD1467_ApplicationHandlerActionActivated","inputs":[{"name":"ruleType","type":"bytes32","indexed":true,"internalType":"bytes32"},{"name":"actions","type":"uint8[]","indexed":false,"internalType":"enum ActionTypes[]"}],"anonymous":false},{"type":"event","name":"AD1467_ApplicationHandlerActionApplied","inputs":[{"name":"ruleType","type":"bytes32","indexed":true,"internalType":"bytes32"},{"name":"action","type":"uint8","indexed":true,"internalType":"enum ActionTypes"},{"name":"ruleId","type":"uint32","indexed":true,"internalType":"uint32"}],"anonymous":false},{"type":"event","name":"AD1467_ApplicationHandlerActionAppliedFull","inputs":[{"name":"ruleType","type":"bytes32","indexed":true,"internalType":"bytes32"},{"name":"actions","type":"uint8[]","indexed":false,"internalType":"enum ActionTypes[]"},{"name":"ruleIds","type":"uint32[]","indexed":false,"internalType":"uint32[]"}],"anonymous":false},{"type":"event","name":"AD1467_ApplicationHandlerActionDeactivated","inputs":[{"name":"ruleType","type":"bytes32","indexed":true,"internalType":"bytes32"},{"name":"actions","type":"uint8[]","indexed":false,"internalType":"enum ActionTypes[]"}],"anonymous":false},{"type":"event","name":"AD1467_ApplicationHandlerActivated","inputs":[{"name":"ruleType","type":"bytes32","indexed":true,"internalType":"bytes32"}],"anonymous":false},{"type":"event","name":"AD1467_ApplicationHandlerDeactivated","inputs":[{"name":"ruleType","type":"bytes32","indexed":true,"internalType":"bytes32"}],"anonymous":false},{"type":"event","name":"AD1467_ApplicationHandlerDeployed","inputs":[{"name":"appManager","type":"address","indexed":true,"internalType":"address"}],"anonymous":false},{"type":"event","name":"AD1467_ApplicationRuleApplied","inputs":[{"name":"ruleType","type":"bytes32","indexed":true,"internalType":"bytes32"},{"name":"ruleId","type":"uint32","indexed":true,"internalType":"uint32"}],"anonymous":false},{"type":"event","name":"AD1467_ApproveListOracleDeployed","inputs":[],"anonymous":false},{"type":"event","name":"AD1467_ApprovedAddress","inputs":[{"name":"addr","type":"address","indexed":true,"internalType":"address"}],"anonymous":false},{"type":"event","name":"AD1467_CollectionPrice","inputs":[{"name":"collection","type":"address","indexed":true,"internalType":"address"},{"name":"price","type":"uint256","indexed":true,"internalType":"uint256"}],"anonymous":false},{"type":"event","name":"AD1467_DataContractsMigrated","inputs":[{"name":"ownerAddress","type":"address","indexed":true,"internalType":"address"}],"anonymous":false},{"type":"event","name":"AD1467_DeniedAddress","inputs":[{"name":"addr","type":"address","indexed":true,"internalType":"address"}],"anonymous":false},{"type":"event","name":"AD1467_DeniedListOracleDeployed","inputs":[],"anonymous":false},{"type":"event","name":"AD1467_ERC20PricingAddressSet","inputs":[{"name":"_address","type":"address","indexed":true,"internalType":"address"}],"anonymous":false},{"type":"event","name":"AD1467_ERC721AddressSet","inputs":[{"name":"_address","type":"address","indexed":true,"internalType":"address"}],"anonymous":false},{"type":"event","name":"AD1467_ERC721PricingAddressSet","inputs":[{"name":"_address","type":"address","indexed":true,"internalType":"address"}],"anonymous":false},{"type":"event","name":"AD1467_FeeActivationSet","inputs":[{"name":"_activation","type":"bool","indexed":true,"internalType":"bool"}],"anonymous":false},{"type":"event","name":"AD1467_FeeType","inputs":[{"name":"tag","type":"bytes32","indexed":true,"internalType":"bytes32"},{"name":"add","type":"bool","indexed":true,"internalType":"bool"},{"name":"minBalance","type":"uint256","indexed":false,"internalType":"uint256"},{"name":"maxBalance","type":"uint256","indexed":false,"internalType":"uint256"},{"name":"feePercentage","type":"int256","indexed":false,"internalType":"int256"},{"name":"targetAccount","type":"address","indexed":false,"internalType":"address"}],"anonymous":false},{"type":"event","name":"AD1467_HandlerConnected","inputs":[{"name":"handlerAddress","type":"address","indexed":true,"internalType":"address"},{"name":"assetAddress","type":"address","indexed":true,"internalType":"address"}],"anonymous":false},{"type":"event","name":"AD1467_HandlerDeployed","inputs":[],"anonymous":false},{"type":"event","name":"AD1467_NFTValuationLimitUpdated","inputs":[{"name":"nftValuationLimit","type":"uint256","indexed":true,"internalType":"uint256"}],"anonymous":false},{"type":"event","name":"AD1467_NewNFTDeployed","inputs":[{"name":"appManagerAddress","type":"address","indexed":true,"internalType":"address"}],"anonymous":false},{"type":"event","name":"AD1467_NewTokenDeployed","inputs":[{"name":"appManagerAddress","type":"address","indexed":true,"internalType":"address"}],"anonymous":false},{"type":"event","name":"AD1467_NonDeniedAddress","inputs":[{"name":"addr","type":"address","indexed":true,"internalType":"address"}],"anonymous":false},{"type":"event","name":"AD1467_NotApprovedAddress","inputs":[{"name":"addr","type":"address","indexed":true,"internalType":"address"}],"anonymous":false},{"type":"event","name":"AD1467_OracleListChanged","inputs":[{"name":"add","type":"bool","indexed":true,"internalType":"bool"},{"name":"addresses","type":"address[]","indexed":false,"internalType":"address[]"}],"anonymous":false},{"type":"event","name":"AD1467_PauseRuleEvent","inputs":[{"name":"pauseStart","type":"uint256","indexed":true,"internalType":"uint256"},{"name":"pauseStop","type":"uint256","indexed":true,"internalType":"uint256"},{"name":"add","type":"bool","indexed":true,"internalType":"bool"}],"anonymous":false},{"type":"event","name":"AD1467_PauseRuleProviderSet","inputs":[{"name":"_address","type":"address","indexed":true,"internalType":"address"}],"anonymous":false},{"type":"event","name":"AD1467_ProtocolRuleCreated","inputs":[{"name":"ruleType","type":"bytes32","indexed":true,"internalType":"bytes32"},{"name":"ruleId","type":"uint32","indexed":true,"internalType":"uint32"},{"name":"extraTags","type":"bytes32[]","indexed":false,"internalType":"bytes32[]"}],"anonymous":false},{"type":"event","name":"AD1467_RemoveFromRegistry","inputs":[{"name":"contractName","type":"string","indexed":false,"internalType":"string"},{"name":"contractAddress","type":"address","indexed":false,"internalType":"address"}],"anonymous":false},{"type":"event","name":"AD1467_RiskAdmin","inputs":[{"name":"admin","type":"address","indexed":true,"internalType":"address"},{"name":"add","type":"bool","indexed":true,"internalType":"bool"}],"anonymous":false},{"type":"event","name":"AD1467_RiskProviderSet","inputs":[{"name":"_address","type":"address","indexed":true,"internalType":"address"}],"anonymous":false},{"type":"event","name":"AD1467_RiskScoreAdded","inputs":[{"name":"_address","type":"address","indexed":true,"internalType":"address"},{"name":"_score","type":"uint8","indexed":false,"internalType":"uint8"}],"anonymous":false},{"type":"event","name":"AD1467_RiskScoreRemoved","inputs":[{"name":"_address","type":"address","indexed":true,"internalType":"address"}],"anonymous":false},{"type":"event","name":"AD1467_RuleAdmin","inputs":[{"name":"admin","type":"address","indexed":true,"internalType":"address"},{"name":"add","type":"bool","indexed":true,"internalType":"bool"}],"anonymous":false},{"type":"event","name":"AD1467_RuleBypassAccount","inputs":[{"name":"bypassAccount","type":"address","indexed":true,"internalType":"address"},{"name":"add","type":"bool","indexed":true,"internalType":"bool"}],"anonymous":false},{"type":"event","name":"AD1467_RuleProcessorDiamondDeployed","inputs":[],"anonymous":false},{"type":"event","name":"AD1467_RulesBypassedViaRuleBypassAccount","inputs":[{"name":"ruleBypassAccount","type":"address","indexed":true,"internalType":"address"},{"name":"appManager","type":"address","indexed":true,"internalType":"address"}],"anonymous":false},{"type":"event","name":"AD1467_SingleTokenPrice","inputs":[{"name":"collection","type":"address","indexed":true,"internalType":"address"},{"name":"tokenID","type":"uint256","indexed":true,"internalType":"uint256"},{"name":"price","type":"uint256","indexed":true,"internalType":"uint256"}],"anonymous":false},{"type":"event","name":"AD1467_SuperAdministrator","inputs":[{"name":"admin","type":"address","indexed":true,"internalType":"address"},{"name":"add","type":"bool","indexed":true,"internalType":"bool"}],"anonymous":false},{"type":"event","name":"AD1467_Tag","inputs":[{"name":"_address","type":"address","indexed":true,"internalType":"address"},{"name":"_tag","type":"bytes32","indexed":true,"internalType":"bytes32"},{"name":"add","type":"bool","indexed":true,"internalType":"bool"}],"anonymous":false},{"type":"event","name":"AD1467_TagAlreadyApplied","inputs":[{"name":"_address","type":"address","indexed":true,"internalType":"address"}],"anonymous":false},{"type":"event","name":"AD1467_TagProviderSet","inputs":[{"name":"_address","type":"address","indexed":true,"internalType":"address"}],"anonymous":false},{"type":"event","name":"AD1467_TokenNameUpdated","inputs":[{"name":"_token","type":"string","indexed":true,"internalType":"string"},{"name":"_address","type":"address","indexed":true,"internalType":"address"}],"anonymous":false},{"type":"event","name":"AD1467_TokenPrice","inputs":[{"name":"token","type":"address","indexed":true,"internalType":"address"},{"name":"price","type":"uint256","indexed":true,"internalType":"uint256"}],"anonymous":false},{"type":"event","name":"AD1467_TokenRegistered","inputs":[{"name":"_token","type":"string","indexed":true,"internalType":"string"},{"name":"_address","type":"address","indexed":true,"internalType":"address"}],"anonymous":false},{"type":"event","name":"AD1467_TradingRuleAddressAllowlist","inputs":[{"name":"_address","type":"address","indexed":true,"internalType":"address"},{"name":"isApproved","type":"bool","indexed":true,"internalType":"bool"}],"anonymous":false},{"type":"event","name":"AD1467_TreasuryRegistered","inputs":[{"name":"_address","type":"address","indexed":true,"internalType":"address"}],"anonymous":false},{"type":"event","name":"log","inputs":[{"name":"","type":"string","indexed":false,"internalType":"string"}],"anonymous":false},{"type":"event","name":"log_address","inputs":[{"name":"","type":"address","indexed":false,"internalType":"address"}],"anonymous":false},{"type":"event","name":"log_array","inputs":[{"name":"val","type":"uint256[]","indexed":false,"internalType":"uint256[]"}],"anonymous":false},{"type":"event","name":"log_array","inputs":[{"name":"val","type":"int256[]","indexed":false,"internalType":"int256[]"}],"anonymous":false},{"type":"event","name":"log_array","inputs":[{"name":"val","type":"address[]","indexed":false,"internalType":"address[]"}],"anonymous":false},{"type":"event","name":"log_bytes","inputs":[{"name":"","type":"bytes","indexed":false,"internalType":"bytes"}],"anonymous":false},{"type":"event","name":"log_bytes32","inputs":[{"name":"","type":"bytes32","indexed":false,"internalType":"bytes32"}],"anonymous":false},{"type":"event","name":"log_int","inputs":[{"name":"","type":"int256","indexed":false,"internalType":"int256"}],"anonymous":false},{"type":"event","name":"log_named_address","inputs":[{"name":"key","type":"string","indexed":false,"internalType":"string"},{"name":"val","type":"address","indexed":false,"internalType":"address"}],"anonymous":false},{"type":"event","name":"log_named_array","inputs":[{"name":"key","type":"string","indexed":false,"internalType":"string"},{"name":"val","type":"uint256[]","indexed":false,"internalType":"uint256[]"}],"anonymous":false},{"type":"event","name":"log_named_array","inputs":[{"name":"key","type":"string","indexed":false,"internalType":"string"},{"name":"val","type":"int256[]","indexed":false,"internalType":"int256[]"}],"anonymous":false},{"type":"event","name":"log_named_array","inputs":[{"name":"key","type":"string","indexed":false,"internalType":"string"},{"name":"val","type":"address[]","indexed":false,"internalType":"address[]"}],"anonymous":false},{"type":"event","name":"log_named_bytes","inputs":[{"name":"key","type":"string","indexed":false,"internalType":"string"},{"name":"val","type":"bytes","indexed":false,"internalType":"bytes"}],"anonymous":false},{"type":"event","name":"log_named_bytes32","inputs":[{"name":"key","type":"string","indexed":false,"internalType":"string"},{"name":"val","type":"bytes32","indexed":false,"internalType":"bytes32"}],"anonymous":false},{"type":"event","name":"log_named_decimal_int","inputs":[{"name":"key","type":"string","indexed":false,"internalType":"string"},{"name":"val","type":"int256","indexed":false,"internalType":"int256"},{"name":"decimals","type":"uint256","indexed":false,"internalType":"uint256"}],"anonymous":false},{"type":"event","name":"log_named_decimal_uint","inputs":[{"name":"key","type":"string","indexed":false,"internalType":"string"},{"name":"val","type":"uint256","indexed":false,"internalType":"uint256"},{"name":"decimals","type":"uint256","indexed":false,"internalType":"uint256"}],"anonymous":false},{"type":"event","name":"log_named_int","inputs":[{"name":"key","type":"string","indexed":false,"internalType":"string"},{"name":"val","type":"int256","indexed":false,"internalType":"int256"}],"anonymous":false},{"type":"event","name":"log_named_string","inputs":[{"name":"key","type":"string","indexed":false,"internalType":"string"},{"name":"val","type":"string","indexed":false,"internalType":"string"}],"anonymous":false},{"type":"event","name":"log_named_uint","inputs":[{"name":"key","type":"string","indexed":false,"internalType":"string"},{"name":"val","type":"uint256","indexed":false,"internalType":"uint256"}],"anonymous":false},{"type":"event","name":"log_string","inputs":[{"name":"","type":"string","indexed":false,"internalType":"string"}],"anonymous":false},{"type":"event","name":"log_uint","inputs":[{"name":"","type":"uint256","indexed":false,"internalType":"uint256"}],"anonymous":false},{"type":"event","name":"logs","inputs":[{"name":"","type":"bytes","indexed":false,"internalType":"bytes"}],"anonymous":false}],"bytecode":{"object":"0x600c805460ff19166001178155601e80546001600160a01b031990811662dabeef17909155601f8054821661dead179055602080548216610aaa17905560218054821661acdc178155602280548316610bbb179055602380548316610ccc179055602480548316610ddd9081179091556025805484169091179055602680548316610b0b179055602780548316600b17905560288054831660161790556029805483169091179055602a80548216602c908117909155602b80548316603790811790915581548316604217909155602d80548316604d178155602e805484166058179055602f8054841660631790556030805484166064179055603180548416606e17905560328054841660031790556033805484169091179055603480548316610313179055603580548316604b179055603680548316610a331790558054821662adde5517905560388054909116610222179055605a805464697ee8c00160a01b600160a01b600160e81b0319909116179055605b805463ffffffff1916909117905564174876e800605c55610180604052610ff16080908152610ff260a052610ff360c052610ff460e052610ff561010052610ff661012052610ff761014052610ff861016052620001d990605d906008620001ee565b50348015620001e757600080fd5b506200026f565b82805482825590600052602060002090810192821562000246579160200282015b828111156200024657825182546001600160a01b0319166001600160a01b039091161782556020909201916001909101906200020f565b506200025492915062000258565b5090565b5b8082111562000254576000815560010162000259565b62044a6080620002806000396000f3fe60806040523480156200001157600080fd5b5060043610620009af5760003560e01c80637017c48411620004f1578063bff7f8d61162000295578063dde97b0c116200016d578063ed356d3011620000df578063f487d401116200009e578063f487d40114620014be578063f4d63fed14620014c8578063fd5610c914620014df578063fe1d742214620014f3578063fe2fa9e6146200150757600080fd5b8063ed356d301462001472578063ee0d93e11462001489578063eeb4745c1462001493578063f0e695b4146200149d578063f181ca4e14620014a757600080fd5b8063e42d2dc2116200012c578063e42d2dc2146200141c578063e4cfc50c1462001430578063e9b2331c146200143a578063eade366d1462001444578063ebb03539146200145b57600080fd5b8063dde97b0c14620013d6578063df34f93414620013e0578063dfcdb11514620013f4578063e188e3191462001408578063e20c9f71146200141257600080fd5b8063d09de6761162000207578063d64fce0111620001c6578063d64fce011462001380578063d9fa63b81462001394578063dccb059d146200139e578063dd48b7e014620013a8578063ddaaedbe14620013bf57600080fd5b8063d09de676146200131d578063d2321ba51462001334578063d2dcf398146200134b578063d35c2681146200135f578063d4722d85146200136957600080fd5b8063c72b49561162000254578063c72b495614620012d1578063c76f455414620012db578063cde3813014620012f2578063ce4864331462001309578063cf1ff78c146200131357600080fd5b8063bff7f8d61462001285578063c2a933aa146200128f578063c394b8fb14620012a6578063c40c378714620012b0578063c534554014620012ba57600080fd5b8063916a17c611620003c9578063b255811f116200033b578063b6d61d2d11620002fa578063b6d61d2d1462001239578063b8fda8b51462001243578063ba414fa6146200125a578063bc4cf1171462001264578063bd6b2dcb146200126e57600080fd5b8063b255811f14620011f0578063b2f897f714620011fa578063b32286771462001211578063b5508aa9146200121b578063b61fc2da146200122557600080fd5b8063a13481dc1162000388578063a13481dc146200119a578063a6c2165714620011a4578063a8b17a2d14620011bb578063aa27906614620011c5578063b130191514620011d957600080fd5b8063916a17c6146200113a57806392fb9db214620011445780639f6bffeb1462000ae6578063a0304cf9146200116c578063a127696b146200118357600080fd5b80637da033b011620004635780638996c90811620004225780638996c9081462000ff15780638c98c03114620010e05780638cf68e1b14620010ea5780638e6f367614620010fe57806390068f73146200111257600080fd5b80637da033b0146200108d5780637fee3e6914620010975780638046a73b1462000c71578063807d09f414620010bd57806385226c8114620010c757600080fd5b806372573b8911620004b057806372573b89146200104457806377998788146200105b5780637873dae6146200106f5780637887f9cc14620010795780637be4d8ff146200108357600080fd5b80637017c484146200100857806370303a10146200101257806370a04485146200101c57806370cde59e1462001030578063716d5b01146200103a57600080fd5b80633800a612116200075957806350775f921162000631578063643adc2e11620005a357806367ca11a6116200056257806367ca11a61462000faf57806367e9f3251462000fb95780636b6f2e1c1462000fd05780636bba5c641462000fe75780636dbf31561462000ff157600080fd5b8063643adc2e1462000f455780636471c2ed1462000f4f57806364a204191462000f5957806365bd85a21462000f7f57806366d9a9a01462000f9657600080fd5b806358707ce011620005f057806358707ce01462000eff5780635b17decc1462000f095780635e0de4701462000f13578063617ab3dd1462000f27578063635f443f1462000f3b57600080fd5b806350775f921462000e8e5780635094a1a41462000e98578063532247761462000eac578063550adcfc1462000ec057806357b244ca1462000ed757600080fd5b806344ee7bef11620006cb5780634b5b1bd6116200068a5780634b5b1bd61462000e2a5780634bd72efb1462000e3e5780634c015e9e1462000e525780634cee68731462000e5c5780634f16b4251462000e6657600080fd5b806344ee7bef1462000dda57806345ecd3d71462000de457806346f0ea201462000df857806349b159621462000e0c5780634ad91cf91462000e1657600080fd5b80634304b33411620007185780634304b3341462000d3b578063433175fa1462000d615780634364c1881462000d875780634460bdd61462000d9e57806344ede7da1462000dc657600080fd5b80633800a6121462000cf2578063384ef6641462000d095780633b36776d1462000d135780633e5e3c231462000d275780633f7286f41462000d3157600080fd5b80631ef0bb40116200088d5780632ade388011620007ff5780632dbda82511620007be5780632dbda8251462000c715780632e9f142e1462000c885780632fa572111462000c9c578063318b2a031462000cb057806332ecf38f1462000cd657600080fd5b80632ade38801462000bf65780632bb755081462000c0f5780632bf883eb1462000c465780632cb366bf1462000c505780632d6246d91462000c6757600080fd5b806327a59949116200084c57806327a599491462000ba057806327ec859a1462000bb7578063295048041462000bce5780632a5b832d1462000bd85780632a8be8a91462000be257600080fd5b80631ef0bb401462000b485780631f6e4a091462000b6e578063203d24491462000b78578063240b80c91462000b825780632673f7681462000b9657600080fd5b80630ecc5aa8116200092757806312a1029b11620008e657806312a1029b1462000b0c578063158f5caf1462000b165780631a6e6aba1462000b205780631bd688d31462000b345780631ed7831c1462000b3e57600080fd5b80630ecc5aa81462000a9a5780630f8950f31462000aae578063108cf90d1462000ac557806311b472781462000adc5780631253b9681462000ae657600080fd5b80630a9254e411620009745780630a9254e41462000a685780630b29adfc1462000a725780630c128aa11462000a7c5780630cb7eb621462000a865780630db1b2621462000a9057600080fd5b80620e723214620009b4578062bd449614620009c057806301db52ce14620009ef5780630393fe571462000a1c57806306d22ff11462000a42575b600080fd5b620009be62001511565b005b620009d7620009d13660046200b9f7565b62001715565b604051620009e691906200ba49565b60405180910390f35b60465462000a03906001600160a01b031681565b6040516001600160a01b039091168152602001620009e6565b62000a3362000a2d3660046200bab4565b620017e3565b604051620009e691906200bafe565b62000a5962000a533660046200bb58565b620018ab565b604051620009e691906200bb76565b620009be62001909565b620009be62001f88565b620009be62002038565b620009be620024d7565b620009be620026e2565b60485462000a03906001600160a01b031681565b62000a0362000abf3660046200bbb9565b620027f6565b62000a5962000ad63660046200bbf7565b620028f3565b620009be620029fa565b62000afd62000af73660046200bc54565b62002aa1565b604051620009e691906200bc6e565b620009be62002aeb565b62000a0362002cfe565b604c5462000a03906001600160a01b031681565b620009be62002d31565b620009d762002ebb565b62000b5f62000b593660046200bd77565b62002f1f565b604051620009e691906200be05565b620009be620030ae565b620009be62003178565b604a5462000a03906001600160a01b031681565b620009be62003351565b62000a0362000bb13660046200be1a565b62003436565b620009d762000bc83660046200be7f565b6200351a565b62000a0362003578565b620009be6200367e565b60505462000a03906001600160a01b031681565b62000c0062003857565b604051620009e691906200bf51565b62000c377f2104bd22bc71f1a868806c22aa1905dad25555696bbf4456c5b464b8d55f733581565b604051908152602001620009e6565b620009be620039a5565b620009d762000c613660046200bfe6565b62003d0d565b62000a0362003ebe565b62000afd62000c823660046200c015565b62003f6f565b60595462000a03906001600160a01b031681565b60425462000a03906001600160a01b031681565b62000cc762000cc13660046200c046565b62003fdb565b604051620009e691906200c0c9565b62000cdf600481565b60405160ff9091168152602001620009e6565b62000a3362000d033660046200c10e565b62004139565b62000a0362004238565b60585462000a03906001600160a01b031681565b620009d762004248565b620009d7620042aa565b62000d5262000d4c3660046200c173565b6200430c565b604051620009e691906200c1a2565b605a5462000d7690600160a01b900460ff1681565b6040519015158152602001620009e6565b62000cc762000d983660046200c1e0565b6200438c565b62000c377f7613a25ecc738585a232ad50a301178f12b3ba8887d13e138b523c4269c4768981565b604d5462000a03906001600160a01b031681565b620009be6200449b565b60475462000a03906001600160a01b031681565b603e5462000a03906001600160a01b031681565b620009be6200466e565b603c5462000a03906001600160a01b031681565b60415462000a03906001600160a01b031681565b60535462000a03906001600160a01b031681565b620009be62004715565b620009be620047c2565b62000c377f870ee5500b98ca09b5fcd7de4a95293916740021c92172d268dad85baec3c85f81565b620009be620048a7565b603d5462000a03906001600160a01b031681565b604f5462000a03906001600160a01b031681565b62000a5962000ed13660046200c227565b62004dce565b62000c377f5cb9147a971eae9c63c04beb424326d7db091a71473987979b49bb1e189f345781565b620009be62004e62565b620009be62004f09565b60525462000a03906001600160a01b031681565b60545462000a03906001600160a01b031681565b62000a0362005093565b620009be6200520b565b620009be620052eb565b62000f7062000f6a3660046200c26e565b62005538565b604051620009e691906200c29d565b62000a3362000f903660046200c2e0565b620055cc565b62000fa06200565c565b604051620009e691906200c30f565b620009be62005746565b62000a3362000fca3660046200c384565b6200591f565b62000a0362000fe13660046200c3a2565b6200597b565b620009be62005a70565b62000afd620010023660046200c417565b62005b84565b62000cc762005c16565b620009be62005c8e565b605a5462000a03906001600160a01b031681565b620009be62005d69565b620009be62005ee4565b62000a03620010553660046200bbb9565b6200606e565b60405462000a03906001600160a01b031681565b620009be620060ac565b620009be620061ff565b620009be620067cc565b620009be62006956565b620010ae620010a83660046200c444565b62006a26565b604051620009e691906200c485565b620009be62006ad0565b620010d162006caf565b604051620009e691906200c4c2565b620009be62006d89565b60565462000a03906001600160a01b031681565b60575462000a03906001600160a01b031681565b62000c377f16c600d7bfbb199b1bbbaaec72d225e1b669f7d0c812d7cafcf00672fb42b30d81565b62000fa062007209565b62000c377f371a0078bf8859908953848339bea5f1d5775487f6c2f50fd279fcc2cafd8c6081565b62000f706200117d3660046200c4d7565b620072f3565b62000a03620011943660046200c3a2565b62007351565b62000a0362007410565b620010ae620011b53660046200c4f5565b62007794565b620009be6200786b565b60435462000a03906001600160a01b031681565b62000afd620011ea3660046200c547565b620078f3565b62000a0362007a3c565b62000d766200120b3660046200c5c3565b62007ac3565b620009be62007b25565b620010d162007d70565b60515462000a03906001600160a01b031681565b620009be62007e4a565b62000a03620012543660046200c3a2565b62008119565b62000d76620081e6565b620009be6200829b565b62000a036200127f3660046200be7f565b62008471565b620009be6200856f565b62000a03620012a03660046200c3a2565b62008683565b620009be62008742565b620009be6200888a565b62000a59620012cb3660046200c67e565b62008a65565b620009be62008b33565b620010ae620012ec3660046200c6bf565b62008c03565b62000d52620013033660046200c72f565b62008d06565b620009be62008d5a565b620009be62008ea5565b62000a596200132e3660046200c74d565b6200902e565b62000d52620013453660046200c7b1565b6200916d565b60555462000a03906001600160a01b031681565b62000a036200921d565b62000cc76200137a3660046200c7f2565b620092ce565b60445462000a03906001600160a01b031681565b62000a036200947a565b620009be6200948a565b620009d7620013b93660046200bbb9565b6200959e565b62000f70620013d03660046200c86e565b62009632565b620009be62009700565b603f5462000a03906001600160a01b031681565b60495462000a03906001600160a01b031681565b620009be620098dc565b620009d7620099a6565b604e5462000a03906001600160a01b031681565b620009be62009a08565b62000a0362009cff565b62000a33620014553660046200c8af565b6200a021565b62000cc76200146c3660046200c913565b6200a156565b62000cc7620014833660046200c946565b6200a215565b620009be6200a24e565b620009be6200ab8e565b620009be6200ac59565b620010ae620014b83660046200c966565b6200ad48565b620009be6200ad9a565b620010ae620014d93660046200c984565b6200af73565b60455462000a03906001600160a01b031681565b604b5462000a03906001600160a01b031681565b620009be6200afef565b600080516020620449e783398151915260001c6001600160a01b0316634ad0bac96040518163ffffffff1660e01b81526004016060604051808303816000875af115801562001564573d6000803e3d6000fd5b505050506040513d601f19601f820116820180604052508101906200158a91906200c9b3565b50605e80546001600160a01b0319166001600160a01b03928316908117909155603d5460405163c3c2ebbb60e01b81526004810192909252909116915063c3c2ebbb90602401602060405180830381865afa158015620015ee573d6000803e3d6000fd5b505050506040513d601f19601f820116820180604052508101906200161491906200c9fc565b620016e357600080516020620449e783398151915260001c6001600160a01b031663f48448146040518163ffffffff1660e01b8152600401600060405180830381600087803b1580156200166757600080fd5b505af11580156200167c573d6000803e3d6000fd5b5050603d54604051631f2b29f560e21b81526001600160a01b03909116600482018190529250637caca7d491506024015b600060405180830381600087803b158015620016c857600080fd5b505af1158015620016dd573d6000803e3d6000fd5b50505050565b603d54604051631f2b29f560e21b81526001600160a01b039091166004820181905290637caca7d490602401620016ad565b6040805160038082526080820190925260609160208201838036833701905050905083816000815181106200174e576200174e6200ca20565b60200260200101906001600160a01b031690816001600160a01b03168152505082816001815181106200178557620017856200ca20565b60200260200101906001600160a01b031690816001600160a01b0316815250508181600281518110620017bc57620017bc6200ca20565b60200260200101906001600160a01b031690816001600160a01b0316815250509392505050565b6040805160038082526080820190925260609160208201838036833701905050905083816000815181106200181c576200181c6200ca20565b602002602001019065ffffffffffff16908165ffffffffffff168152505082816001815181106200185157620018516200ca20565b602002602001019065ffffffffffff16908165ffffffffffff168152505081816002815181106200188657620018866200ca20565b602002602001019065ffffffffffff16908165ffffffffffff16815250509392505050565b604080516001808252818301909252606091602080830190803683370190505090508181600081518110620018e457620018e46200ca20565b60200260200101906001600160401b031690816001600160401b031681525050919050565b620019136200888a565b6200191d62005d69565b603d546022546040516320f5d33760e21b81526001600160a01b0391821660048201529116906383d74cdc90602401600060405180830381600087803b1580156200196757600080fd5b505af11580156200197c573d6000803e3d6000fd5b5050603d546023546040516316e6a53960e21b81526001600160a01b03918216600482015291169250635b9a94e49150602401600060405180830381600087803b158015620019ca57600080fd5b505af1158015620019df573d6000803e3d6000fd5b5050603d54602154604051636e8bac5160e01b81526001600160a01b03918216600482015291169250636e8bac519150602401600060405180830381600087803b15801562001a2d57600080fd5b505af115801562001a42573d6000803e3d6000fd5b5050603d5460205460405163388ff0c160e01b81526001600160a01b0391821660048201529116925063388ff0c19150602401600060405180830381600087803b15801562001a9057600080fd5b505af115801562001aa5573d6000803e3d6000fd5b5050603d5460365460405163da517b6760e01b81526001600160a01b0391821660048201529116925063da517b679150602401600060405180830381600087803b15801562001af357600080fd5b505af115801562001b08573d6000803e3d6000fd5b5050603d54603754604051633c4ec3d160e11b81526001600160a01b0391821660048201529116925063789d87a29150602401600060405180830381600087803b15801562001b5657600080fd5b505af115801562001b6b573d6000803e3d6000fd5b5050603d546038546040516312f6bea560e11b81526001600160a01b03918216600482015260016024820152911692506325ed7d4a9150604401600060405180830381600087803b15801562001bc057600080fd5b505af115801562001bd5573d6000803e3d6000fd5b5050505062001be3620029fa565b601e546040516001600160a01b039091169060009062001c03906200b72d565b6001600160a01b039092168252606060208301819052600490830152634461746160e01b60808301521515604082015260a001604051809103906000f08015801562001c53573d6000803e3d6000fd5b50606080546001600160a01b0319166001600160a01b03928316179055601e5460405191169060009062001c87906200b73b565b62001c949291906200ca36565b604051809103906000f08015801562001cb1573d6000803e3d6000fd5b50605f80546001600160a01b0319166001600160a01b03928316908117909155601f5460405163296dcf9f60e21b8152921660048301529063a5b73e7c90602401600060405180830381600087803b15801562001d0d57600080fd5b505af115801562001d22573d6000803e3d6000fd5b5050606054601f5460405163296dcf9f60e21b81526001600160a01b0391821660048201529116925063a5b73e7c9150602401600060405180830381600087803b15801562001d7057600080fd5b505af115801562001d85573d6000803e3d6000fd5b5050505062001d9362005d69565b603d54606054604051631f2b29f560e21b81526001600160a01b039182166004820152911690637caca7d490602401600060405180830381600087803b15801562001ddd57600080fd5b505af115801562001df2573d6000803e3d6000fd5b5050604b54605f546040516311280cb560e01b81526001600160a01b039182166004820152911692506311280cb59150602401600060405180830381600087803b15801562001e4057600080fd5b505af115801562001e55573d6000803e3d6000fd5b50505050600080516020620449e783398151915260001c6001600160a01b03166390c5013b6040518163ffffffff1660e01b8152600401600060405180830381600087803b15801562001ea757600080fd5b505af115801562001ebc573d6000803e3d6000fd5b505060225462001ed892506001600160a01b031690506200b1dc565b601f5462001eef906001600160a01b03166200b1dc565b60235462001f06906001600160a01b03166200b1dc565b60215462001f1d906001600160a01b03166200b1dc565b60205462001f34906001600160a01b03166200b1dc565b603d54601780546001810182556000919091527fc624b66cc0138b8fabc209247f72d758e1cf3343756d543badbf24212bed8c150180546001600160a01b0319166001600160a01b03909216919091179055565b62001f9262005d69565b600080516020620449e783398151915260001c6001600160a01b031663f48448146040518163ffffffff1660e01b8152600401600060405180830381600087803b15801562001fe057600080fd5b505af115801562001ff5573d6000803e3d6000fd5b5050603d546040516312f6bea560e11b8152660dabbadabbad006004820152600060248201526001600160a01b0390911692506325ed7d4a9150604401620016ad565b620020426200829b565b62002086604051806040016040528060058152602001644652414e4b60d81b8152506040518060400160405280600381526020016246524b60e81b8152506200b22e565b604480546001600160a01b039283166001600160a01b03199182161790915560418054939092169216919091179055604080518082018252600c81526b30b8383634b1b0ba34b7b71960a11b6020808301919091528251808401909352600483526323a6a19960e11b90830152620020fe916200b470565b604580546001600160a01b039283166001600160a01b031991821617909155604380549390921692169190911790556200213762005d69565b620021416200947a565b604980546001600160a01b0319166001600160a01b0392831690811790915560415460405163154f268f60e11b81529192632a9e4d1e92620021949290911690670de0b6b3a7640000906004016200ca74565b600060405180830381600087803b158015620021af57600080fd5b505af1158015620021c4573d6000803e3d6000fd5b50505050620022136040518060400160405280600c81526020016b232920a725a2a729aa22a4a760a11b8152506040518060400160405280600381526020016246524b60e81b8152506200b6d1565b604680546001600160a01b039283166001600160a01b031991821617909155604b8054939092169216919091179055604080518082018252600c81526b546f756768547572746c657360a01b602080830191909152825180840190935260048352632a242a2960e11b908301526200228b916200b6d1565b604880546001600160a01b039283166001600160a01b031991821617909155604c8054939092169216919091179055620022c462005d69565b620022ce62004238565b604e80546001600160a01b0319166001600160a01b03928316908117909155604b546040516379ddcfd360e11b8152919263f3bb9fa692620023219290911690670de0b6b3a7640000906004016200ca74565b600060405180830381600087803b1580156200233c57600080fd5b505af115801562002351573d6000803e3d6000fd5b505050506200235f6200856f565b603e54604e54604051632917387960e21b81526001600160a01b03918216600482015291169063a45ce1e490602401600060405180830381600087803b158015620023a957600080fd5b505af1158015620023be573d6000803e3d6000fd5b5050603e54604954604051630d32ecfb60e01b81526001600160a01b03918216600482015291169250630d32ecfb9150602401600060405180830381600087803b1580156200240c57600080fd5b505af115801562002421573d6000803e3d6000fd5b505050506200242f62005d69565b620024396200921d565b605480546001600160a01b0319166001600160a01b03929092169190911790556200246362003ebe565b605560006101000a8154816001600160a01b0302191690836001600160a01b03160217905550600080516020620449e783398151915260001c6001600160a01b03166390c5013b6040518163ffffffff1660e01b8152600401600060405180830381600087803b158015620016c857600080fd5b600080516020620449e783398151915260001c6001600160a01b0316634ad0bac96040518163ffffffff1660e01b81526004016060604051808303816000875af11580156200252a573d6000803e3d6000fd5b505050506040513d601f19601f820116820180604052508101906200255091906200c9b3565b50605e80546001600160a01b0319166001600160a01b03928316908117909155603d5460405163c3c2ebbb60e01b81526004810192909252909116915063c3c2ebbb90602401602060405180830381865afa158015620025b4573d6000803e3d6000fd5b505050506040513d601f19601f82011682018060405250810190620025da91906200c9fc565b6200269457600080516020620449e783398151915260001c6001600160a01b031663f48448146040518163ffffffff1660e01b8152600401600060405180830381600087803b1580156200262d57600080fd5b505af115801562002642573d6000803e3d6000fd5b5050603d5460405163f84ed61d60e01b815260206004820152600c60248201526b4e657720417070204e616d6560a01b60448201526001600160a01b03909116925063f84ed61d9150606401620016ad565b603d5460405163f84ed61d60e01b815260206004820152600c60248201526b4e657720417070204e616d6560a01b60448201526001600160a01b039091169063f84ed61d90606401620016ad565b620026ec62005d69565b603d546022546040516320f5d33760e21b81526001600160a01b0391821660048201529116906383d74cdc90602401600060405180830381600087803b1580156200273657600080fd5b505af11580156200274b573d6000803e3d6000fd5b50505050600080516020620449e783398151915260001c6001600160a01b03166390c5013b6040518163ffffffff1660e01b8152600401600060405180830381600087803b1580156200279d57600080fd5b505af1158015620027b2573d6000803e3d6000fd5b50506022546040516303223eab60e11b81526001600160a01b039091166004820152600080516020620449c783398151915292506306447d569150602401620016ad565b60405163248e63e160e11b815260016004820152600060248201819052604482018190526064820181905290600080516020620449c78339815191529063491cc7c290608401600060405180830381600087803b1580156200285757600080fd5b505af11580156200286c573d6000803e3d6000fd5b50506040516001600160a01b03851692507fd9d32d40998e72ec09851d13136a1ad3540169ed55383f684732ec00c981a6589150600090a28282604051620028b4906200b749565b6001600160a01b039283168152911660208201526040015b604051809103906000f080158015620028e9573d6000803e3d6000fd5b5090505b92915050565b60408051600480825260a082019092526060916020820160808036833701905050905084816000815181106200292d576200292d6200ca20565b60200260200101906001600160401b031690816001600160401b03168152505083816001815181106200296457620029646200ca20565b60200260200101906001600160401b031690816001600160401b03168152505082816002815181106200299b576200299b6200ca20565b60200260200101906001600160401b031690816001600160401b0316815250508181600381518110620029d257620029d26200ca20565b60200260200101906001600160401b031690816001600160401b031681525050949350505050565b600080516020620449e783398151915260001c6001600160a01b03166390c5013b6040518163ffffffff1660e01b8152600401600060405180830381600087803b15801562002a4857600080fd5b505af115801562002a5d573d6000803e3d6000fd5b5050601e546040516303223eab60e11b81526001600160a01b039091166004820152600080516020620449c783398151915292506306447d569150602401620016ad565b60408051600180825281830190925260609160208083019080368337019050509050818160008151811062002ada5762002ada6200ca20565b602002602001018181525050919050565b62002af562005d69565b604b54604080516306fdde0360e01b815290516000926001600160a01b0316916306fdde0391600480830192869291908290030181865afa15801562002b3f573d6000803e3d6000fd5b505050506040513d6000823e601f3d908101601f1916820160405262002b6991908101906200cac3565b9050600080516020620449e783398151915260001c6001600160a01b031663440ed10d6040518163ffffffff1660e01b8152600401600060405180830381600087803b15801562002bb957600080fd5b505af115801562002bce573d6000803e3d6000fd5b505050507f6b1a0b0c9aad447ed1b708afc912723ce244eb0da95496520cd69d04034df8ce604b60009054906101000a90046001600160a01b03166001600160a01b03166306fdde036040518163ffffffff1660e01b8152600401600060405180830381865afa15801562002c47573d6000803e3d6000fd5b505050506040513d6000823e601f3d908101601f1916820160405262002c7191908101906200cac3565b604b5460405162002c8d92916001600160a01b0316906200cb10565b60405180910390a1603d54604051637bdc8bbf60e01b81526001600160a01b0390911690637bdc8bbf9062002cc79084906004016200cb3c565b600060405180830381600087803b15801562002ce257600080fd5b505af115801562002cf7573d6000803e3d6000fd5b5050505050565b600060405162002d0e906200b757565b604051809103906000f08015801562002d2b573d6000803e3d6000fd5b50905090565b62002d3b62005d69565b603d546040516000916001600160a01b03169062002d59906200b765565b6001600160a01b039091168152602001604051809103906000f08015801562002d86573d6000803e3d6000fd5b50603d5460405163cf1c6f6560e01b81526001600160a01b03808416600483015292935091169063cf1c6f6590602401600060405180830381600087803b15801562002dd157600080fd5b505af115801562002de6573d6000803e3d6000fd5b5050603d546040516386b9620d60e01b81526001600160a01b039091166004820152600080516020620449c783398151915292506386b9620d9150602401600060405180830381600087803b15801562002e3f57600080fd5b505af115801562002e54573d6000803e3d6000fd5b50506040516001600160a01b03841692507faf4bcd945b877396cadc6e900fdac9b90c12b8a4f0228d943abbc9131fdd043f9150600090a2604051631bf974f360e01b81526001600160a01b03821690631bf974f39062002cc7906001906004016200cb51565b6060601680548060200260200160405190810160405280929190818152602001828054801562002f1557602002820191906000526020600020905b81546001600160a01b0316815260019091019060200180831162002ef6575b5050505050905090565b6040805160038082526080820190925260609160009190816020015b606081526020019060019003908162002f3b57905050905060405180604001604052806007815260200166707974686f6e3360c81b8152508160008151811062002f895762002f896200ca20565b60200260200101819052506040518060400160405280601e81526020017f7363726970742f707974686f6e2f6765745f73656c6563746f72732e707900008152508160018151811062002fe05762002fe06200ca20565b602002602001018190525082816002815181106200300257620030026200ca20565b6020908102919091010152604051638916046760e01b8152600090600080516020620449c783398151915290638916046790620030449085906004016200c4c2565b6000604051808303816000875af115801562003064573d6000803e3d6000fd5b505050506040513d6000823e601f3d908101601f191682016040526200308e91908101906200cac3565b905080806020019051810190620030a691906200cb66565b949350505050565b620030b862005d69565b6040805160048082526024820183526020820180516001600160e01b031663d92e233d60e01b179052915163f28dceb360e01b8152600080516020620449c78339815191529263f28dceb39262003112929091016200cb3c565b600060405180830381600087803b1580156200312d57600080fd5b505af115801562003142573d6000803e3d6000fd5b5050603d5460405163da517b6760e01b8152600060048201526001600160a01b03909116925063da517b679150602401620016ad565b600080516020620449e783398151915260001c6001600160a01b0316634ad0bac96040518163ffffffff1660e01b81526004016060604051808303816000875af1158015620031cb573d6000803e3d6000fd5b505050506040513d601f19601f82011682018060405250810190620031f191906200c9b3565b50605e80546001600160a01b0319166001600160a01b03928316908117909155603d5460405163c3c2ebbb60e01b81526004810192909252909116915063c3c2ebbb90602401602060405180830381865afa15801562003255573d6000803e3d6000fd5b505050506040513d601f19601f820116820180604052508101906200327b91906200c9fc565b6200331c57600080516020620449e783398151915260001c6001600160a01b031663f48448146040518163ffffffff1660e01b8152600401600060405180830381600087803b158015620032ce57600080fd5b505af1158015620032e3573d6000803e3d6000fd5b5050605f54604b546040516303e548a360e61b81526001600160a01b0391821660048201529116925063f95228c09150602401620016ad565b605f54604b546040516303e548a360e61b81526001600160a01b03918216600482015291169063f95228c090602401620016ad565b6200335b62005d69565b600080516020620449e783398151915260001c6001600160a01b031663440ed10d6040518163ffffffff1660e01b8152600401600060405180830381600087803b158015620033a957600080fd5b505af1158015620033be573d6000803e3d6000fd5b5050603d546040516001600160a01b0390911680825292507ff0e9a6b66a12fa7aa5cadb32dd73c2a90017b99ce1c58c25488d18f42c59f2ac915060200160405180910390a2603d54604051631f2b29f560e21b81526001600160a01b039091166004820181905290637caca7d490602401620016ad565b60006200344262009cff565b60405163c0c53b8b60e01b81529091506001600160a01b0382169063c0c53b8b9062003477908890889087906004016200cc17565b600060405180830381600087803b1580156200349257600080fd5b505af1158015620034a7573d6000803e3d6000fd5b50505050620034b562005d69565b60405163038d7c2f60e51b81526001600160a01b0382811660048301528416906371af85e090602401600060405180830381600087803b158015620034f957600080fd5b505af11580156200350e573d6000803e3d6000fd5b50505050949350505050565b6040805160018082528183019092526060916020808301908036833701905050905081816000815181106200355357620035536200ca20565b60200260200101906001600160a01b031690816001600160a01b031681525050919050565b60405163248e63e160e11b815260016004820181905260248201526000604482018190526064820181905290600080516020620449c78339815191529063491cc7c290608401600060405180830381600087803b158015620035d957600080fd5b505af1158015620035ee573d6000803e3d6000fd5b5050505060405162003611906a436173746c6576616e696160a81b8152600b0190565b604051908190038120601e5490916001600160a01b03909116907f1e61c3dd5791558bf488a7c35e8966a12a825d329d5ea515b1991b217483cee190600090a3601e546040516001600160a01b039091169060009062003671906200b73b565b62002d0e9291906200ca36565b600080516020620449e783398151915260001c6001600160a01b0316634ad0bac96040518163ffffffff1660e01b81526004016060604051808303816000875af1158015620036d1573d6000803e3d6000fd5b505050506040513d601f19601f82011682018060405250810190620036f791906200c9b3565b50605e80546001600160a01b0319166001600160a01b03928316908117909155603d5460405163c3c2ebbb60e01b81526004810192909252909116915063c3c2ebbb90602401602060405180830381865afa1580156200375b573d6000803e3d6000fd5b505050506040513d601f19601f820116820180604052508101906200378191906200c9fc565b6200382257600080516020620449e783398151915260001c6001600160a01b031663f48448146040518163ffffffff1660e01b8152600401600060405180830381600087803b158015620037d457600080fd5b505af1158015620037e9573d6000803e3d6000fd5b5050603d5460375460405163564f9db360e01b81526001600160a01b0391821660048201529116925063564f9db39150602401620016ad565b603d5460375460405163564f9db360e01b81526001600160a01b03918216600482015291169063564f9db390602401620016ad565b6060601d805480602002602001604051908101604052809291908181526020016000905b828210156200399c57600084815260208082206040805180820182526002870290920180546001600160a01b03168352600181018054835181870281018701909452808452939591948681019491929084015b8282101562003984578382906000526020600020018054620038f0906200cc3a565b80601f01602080910402602001604051908101604052809291908181526020018280546200391e906200cc3a565b80156200396f5780601f1062003943576101008083540402835291602001916200396f565b820191906000526020600020905b8154815290600101906020018083116200395157829003601f168201915b505050505081526020019060010190620038ce565b5050505081525050815260200190600101906200387b565b50505050905090565b6000604051620039b5906200b773565b604051809103906000f080158015620039d2573d6000803e3d6000fd5b5090506000604051620039e5906200b781565b604051809103906000f08015801562003a02573d6000803e3d6000fd5b509050600060405162003a15906200b78f565b604051809103906000f08015801562003a32573d6000803e3d6000fd5b509050603b6040518060600160405280856001600160a01b031681526020016000600281111562003a675762003a676200c0a0565b815260200162003a9c6040518060400160405280600d81526020016c149d5b1951185d18519858d95d609a1b81525062002f1f565b9052815460018101835560009283526020928390208251600292830290910180546001600160a01b039092166001600160a01b031983168117825594840151939490939284926001600160a81b03191690911790600160a01b90849081111562003b0a5762003b0a6200c0a0565b02179055506040820151805162003b2c9160018401916020909101906200b79d565b505060408051606081019091526001600160a01b0383168152603b9150602081016000815260200162003b876040518060400160405280601081526020016f105c1c149d5b1951185d18519858d95d60821b81525062002f1f565b9052815460018101835560009283526020928390208251600292830290910180546001600160a01b039092166001600160a01b031983168117825594840151939490939284926001600160a81b03191690911790600160a01b90849081111562003bf55762003bf56200c0a0565b02179055506040820151805162003c179160018401916020909101906200b79d565b505060408051606081019091526001600160a01b0384168152603b9150602081016000815260200162003c7560405180604001604052806013815260200172151859d9d959149d5b1951185d18519858d95d606a1b81525062002f1f565b9052815460018101835560009283526020928390208251600292830290910180546001600160a01b039092166001600160a01b031983168117825594840151939490939284926001600160a81b03191690911790600160a01b90849081111562003ce35762003ce36200c0a0565b02179055506040820151805162003d059160018401916020909101906200b79d565b505050505050565b605d546060906001600160401b0381111562003d2d5762003d2d6200bca8565b60405190808252806020026020018201604052801562003d57578160200160208202803683370190505b509050605d838154811062003d705762003d706200ca20565b600091825260208220015482516001600160a01b0390911691839162003d9a5762003d9a6200ca20565b60200260200101906001600160a01b031690816001600160a01b031681525050600060018360ff16111562003eb75760015b8360ff1681101562003eb5578491505b8162003de8816200cc76565b605d549093508303905062003dfc57600091505b62003e32605d838154811062003e165762003e166200ca20565b6000918252602090912001546001600160a01b03168462007ac3565b62003ea657605d828154811062003e4d5762003e4d6200ca20565b9060005260206000200160009054906101000a90046001600160a01b031683828151811062003e805762003e806200ca20565b60200260200101906001600160a01b031690816001600160a01b03168152505062003eac565b62003ddc565b60010162003dcc565b505b5092915050565b60405163248e63e160e11b815260006004820181905260248201819052604482018190526064820181905290600080516020620449c78339815191529063491cc7c290608401600060405180830381600087803b15801562003f1f57600080fd5b505af115801562003f34573d6000803e3d6000fd5b50506040517fa4046c0fb355112e748dbb5a617d2269cb4077a1e3aca42ac6548de84d53293a925060009150a160405162002d0e906200b850565b6040805160028082526060808301845292602083019080368337019050509050828160008151811062003fa65762003fa66200ca20565b602002602001018181525050818160018151811062003fc95762003fc96200ca20565b60200260200101818152505092915050565b60408051600480825260a082019092526060916020820160808036833701905050905084816000815181106200401557620040156200ca20565b602002602001019060048111156200403157620040316200c0a0565b908160048111156200404757620040476200c0a0565b8152505083816001815181106200406257620040626200ca20565b602002602001019060048111156200407e576200407e6200c0a0565b908160048111156200409457620040946200c0a0565b815250508281600281518110620040af57620040af6200ca20565b60200260200101906004811115620040cb57620040cb6200c0a0565b90816004811115620040e157620040e16200c0a0565b815250508181600381518110620040fc57620040fc6200ca20565b602002602001019060048111156200411857620041186200c0a0565b908160048111156200412e576200412e6200c0a0565b905250949350505050565b60408051600480825260a082019092526060916020820160808036833701905050905084816000815181106200417357620041736200ca20565b602002602001019065ffffffffffff16908165ffffffffffff16815250508381600181518110620041a857620041a86200ca20565b602002602001019065ffffffffffff16908165ffffffffffff16815250508281600281518110620041dd57620041dd6200ca20565b602002602001019065ffffffffffff16908165ffffffffffff168152505081816003815181106200421257620042126200ca20565b602002602001019065ffffffffffff16908165ffffffffffff1681525050949350505050565b600060405162002d0e906200b85e565b6060601880548060200260200160405190810160405280929190818152602001828054801562002f15576020028201919060005260206000209081546001600160a01b0316815260019091019060200180831162002ef6575050505050905090565b6060601780548060200260200160405190810160405280929190818152602001828054801562002f15576020028201919060005260206000209081546001600160a01b0316815260019091019060200180831162002ef6575050505050905090565b604080516002808252606080830184529260208301908036833701905050905082816000815181106200434357620043436200ca20565b602002602001019061ffff16908161ffff168152505081816001815181106200437057620043706200ca20565b602002602001019061ffff16908161ffff168152505092915050565b604080516003808252608082019092526060916020820183803683370190505090508381600081518110620043c557620043c56200ca20565b60200260200101906004811115620043e157620043e16200c0a0565b90816004811115620043f757620043f76200c0a0565b8152505082816001815181106200441257620044126200ca20565b602002602001019060048111156200442e576200442e6200c0a0565b908160048111156200444457620044446200c0a0565b8152505081816002815181106200445f576200445f6200ca20565b602002602001019060048111156200447b576200447b6200c0a0565b908160048111156200449157620044916200c0a0565b9052509392505050565b600080516020620449e783398151915260001c6001600160a01b0316634ad0bac96040518163ffffffff1660e01b81526004016060604051808303816000875af1158015620044ee573d6000803e3d6000fd5b505050506040513d601f19601f820116820180604052508101906200451491906200c9b3565b50605e80546001600160a01b0319166001600160a01b03928316908117909155603d5460405163c3c2ebbb60e01b81526004810192909252909116915063c3c2ebbb90602401602060405180830381865afa15801562004578573d6000803e3d6000fd5b505050506040513d601f19601f820116820180604052508101906200459e91906200c9fc565b6200463c57600080516020620449e783398151915260001c6001600160a01b031663f48448146040518163ffffffff1660e01b8152600401600060405180830381600087803b158015620045f157600080fd5b505af115801562004606573d6000803e3d6000fd5b5050603d5460405163da517b6760e01b8152602160048201526001600160a01b03909116925063da517b679150602401620016ad565b603d5460405163da517b6760e01b8152602160048201526001600160a01b039091169063da517b6790602401620016ad565b600080516020620449e783398151915260001c6001600160a01b03166390c5013b6040518163ffffffff1660e01b8152600401600060405180830381600087803b158015620046bc57600080fd5b505af1158015620046d1573d6000803e3d6000fd5b50506025546040516303223eab60e11b81526001600160a01b039091166004820152600080516020620449c783398151915292506306447d569150602401620016ad565b6200471f62005d69565b600080516020620449e783398151915260001c6001600160a01b031663f48448146040518163ffffffff1660e01b8152600401600060405180830381600087803b1580156200476d57600080fd5b505af115801562004782573d6000803e3d6000fd5b5050603d546038546040516312f6bea560e11b81526001600160a01b03918216600482015260016024820152911692506325ed7d4a9150604401620016ad565b620047cc62005d69565b600080516020620449e783398151915260001c6001600160a01b031663440ed10d6040518163ffffffff1660e01b8152600401600060405180830381600087803b1580156200481a57600080fd5b505af11580156200482f573d6000803e3d6000fd5b505060405160019250660dabbadabbad0091507f6564da707a5df09bfa9aed4a8c9acc37e2df9021b0dfe89c445c84ca3313768190600090a3603d546040516312f6bea560e11b8152660dabbadabbad006004820152600160248201526001600160a01b03909116906325ed7d4a90604401620016ad565b620048b16200829b565b620048f5604051806040016040528060058152602001644652414e4b60d81b8152506040518060400160405280600381526020016246524b60e81b8152506200b470565b604480546001600160a01b039283166001600160a01b031991821617909155604280549390921692169190911790556200492e62005d69565b620049386200947a565b604980546001600160a01b0319166001600160a01b0392831690811790915560425460405163154f268f60e11b81529192632a9e4d1e926200498b9290911690670de0b6b3a7640000906004016200ca74565b600060405180830381600087803b158015620049a657600080fd5b505af1158015620049bb573d6000803e3d6000fd5b5050505062004a0a6040518060400160405280600c81526020016b232920a725a2a729aa22a4a760a11b8152506040518060400160405280600381526020016246524b60e81b8152506200b6d1565b604680546001600160a01b039283166001600160a01b031991821617909155604b805493909216921691909117905562004a4362005d69565b62004a4d62002cfe565b604f80546001600160a01b0319166001600160a01b0392831690811790915560345462004a7b92166200606e565b605380546001600160a01b0319166001600160a01b03928316908117909155603d5460405163e6a0706360e01b81526080600480830191909152600d60848301526c44726163756c61205072696d6560981b60a483015260c0602483015260c4820152634452414360e01b60e4820152921660448301526101006064830152600c6101048301526b64756d6d792e7572692e696f60a01b6101248301529063e6a070639061014401600060405180830381600087803b15801562004b3e57600080fd5b505af115801562004b53573d6000803e3d6000fd5b5050505062004b6162007410565b604680546001600160a01b0319166001600160a01b03928316908117909155603c54603d5460535460405163c0c53b8b60e01b8152939463c0c53b8b9462004bb694821693821692909116906004016200cc17565b600060405180830381600087803b15801562004bd157600080fd5b505af115801562004be6573d6000803e3d6000fd5b5050505062004bf462005d69565b60535460465460405163038d7c2f60e51b81526001600160a01b0391821660048201529116906371af85e090602401600060405180830381600087803b15801562004c3e57600080fd5b505af115801562004c53573d6000803e3d6000fd5b5050603d54605354604080516369f667ed60e01b81526004808201929092526044810191909152635448524b60e01b60648201526001600160a01b039182166024820152911692506369f667ed9150608401600060405180830381600087803b15801562004cc057600080fd5b505af115801562004cd5573d6000803e3d6000fd5b5050505060405162004ce7906200b85e565b604051809103906000f08015801562004d04573d6000803e3d6000fd5b50604e80546001600160a01b0319166001600160a01b039290921691909117905560405162004d33906200b86c565b604051809103906000f08015801562004d50573d6000803e3d6000fd5b50604980546001600160a01b0319166001600160a01b039290921691909117905562004d7b62004238565b604e80546001600160a01b0319166001600160a01b03928316908117909155604f546040516379ddcfd360e11b8152919263f3bb9fa692620023219290911690670de0b6b3a7640000906004016200ca74565b6040805160028082526060808301845292602083019080368337019050509050828160008151811062004e055762004e056200ca20565b60200260200101906001600160401b031690816001600160401b031681525050818160018151811062004e3c5762004e3c6200ca20565b60200260200101906001600160401b031690816001600160401b03168152505092915050565b600080516020620449e783398151915260001c6001600160a01b03166390c5013b6040518163ffffffff1660e01b8152600401600060405180830381600087803b15801562004eb057600080fd5b505af115801562004ec5573d6000803e3d6000fd5b50506035546040516303223eab60e11b81526001600160a01b039091166004820152600080516020620449c783398151915292506306447d569150602401620016ad565b62004f1362005d69565b603d546040516000916001600160a01b03169062004f31906200b87a565b6001600160a01b039091168152602001604051809103906000f08015801562004f5e573d6000803e3d6000fd5b50603d54604051630df98e7760e11b81526001600160a01b038084166004830152929350911690631bf31cee90602401600060405180830381600087803b15801562004fa957600080fd5b505af115801562004fbe573d6000803e3d6000fd5b5050603d546040516386b9620d60e01b81526001600160a01b039091166004820152600080516020620449c783398151915292506386b9620d9150602401600060405180830381600087803b1580156200501757600080fd5b505af11580156200502c573d6000803e3d6000fd5b50506040516001600160a01b03841692507f4be1b4039acf68e615f56a238b31cf9a61b58ba466df3b449d426be362c267099150600090a2604051631bf974f360e01b81526001600160a01b03821690631bf974f39062002cc7906002906004016200cb51565b600080604051620050a4906200b888565b604051809103906000f080158015620050c1573d6000803e3d6000fd5b509050620050ce62007e4a565b620050d8620039a5565b620050e26200a24e565b6040805180820182526001600160a01b038316815281516370e39c9560e11b602082810191909152600093908301910160408051808303601f1901815291815291525163248e63e160e11b815260006004820181905260248201819052604482018190526064820152909150600080516020620449c78339815191529063491cc7c290608401600060405180830381600087803b1580156200518357600080fd5b505af115801562005198573d6000803e3d6000fd5b50506040517fffa7618250617b12228f3cf015717e41c905e849df41a7ecb6628e07cc7e72e7925060009150a16000603b82604051620051d8906200b896565b620051e59291906200ccde565b604051809103906000f08015801562005202573d6000803e3d6000fd5b50949350505050565b6200521562005d69565b6040805160048082526024820183526020820180516001600160e01b0316637de8c17d60e01b179052915163f28dceb360e01b8152600080516020620449c78339815191529263f28dceb3926200526f929091016200cb3c565b600060405180830381600087803b1580156200528a57600080fd5b505af11580156200529f573d6000803e3d6000fd5b5050603d54604051637bdc8bbf60e01b81526001600160a01b039091169250637bdc8bbf9150620016ad90600401602080825260049082015263151154d560e21b604082015260600190565b600080516020620449e783398151915260001c6001600160a01b0316634ad0bac96040518163ffffffff1660e01b81526004016060604051808303816000875af11580156200533e573d6000803e3d6000fd5b505050506040513d601f19601f820116820180604052508101906200536491906200c9b3565b50605e80546001600160a01b0319166001600160a01b03928316179055603d5460408051630df3907760e31b81529051600094509190921691636f9c83b89160048083019260209291908290030181865afa158015620053c8573d6000803e3d6000fd5b505050506040513d601f19601f82011682018060405250810190620053ee91906200cfb7565b603d54605e5460405163c3c2ebbb60e01b81526001600160a01b039182166004820152929350169063c3c2ebbb90602401602060405180830381865afa1580156200543d573d6000803e3d6000fd5b505050506040513d601f19601f820116820180604052508101906200546391906200c9fc565b6200550257600080516020620449e783398151915260001c6001600160a01b031663f48448146040518163ffffffff1660e01b8152600401600060405180830381600087803b158015620054b657600080fd5b505af1158015620054cb573d6000803e3d6000fd5b5050603d54604051636f85322360e11b81526001600160a01b038581166004830152909116925063df0a6446915060240162002cc7565b603d54604051636f85322360e11b81526001600160a01b0383811660048301529091169063df0a64469060240162002cc7565b50565b604080516002808252606080830184529260208301908036833701905050905082816000815181106200556f576200556f6200ca20565b60200260200101906001600160c01b031690816001600160c01b0316815250508181600181518110620055a657620055a66200ca20565b60200260200101906001600160c01b031690816001600160c01b03168152505092915050565b604080516002808252606080830184529260208301908036833701905050905082816000815181106200560357620056036200ca20565b602002602001019065ffffffffffff16908165ffffffffffff168152505081816001815181106200563857620056386200ca20565b602002602001019065ffffffffffff16908165ffffffffffff168152505092915050565b6060601b805480602002602001604051908101604052809291908181526020016000905b828210156200399c5760008481526020908190206040805180820182526002860290920180546001600160a01b031683526001810180548351818702810187019094528084529394919385830193928301828280156200572d57602002820191906000526020600020906000905b82829054906101000a900460e01b6001600160e01b03191681526020019060040190602082600301049283019260010382029150808411620056ee5790505b5050505050815250508152602001906001019062005680565b600080516020620449e783398151915260001c6001600160a01b0316634ad0bac96040518163ffffffff1660e01b81526004016060604051808303816000875af115801562005799573d6000803e3d6000fd5b505050506040513d601f19601f82011682018060405250810190620057bf91906200c9b3565b50605e80546001600160a01b0319166001600160a01b03928316908117909155603d5460405163c3c2ebbb60e01b81526004810192909252909116915063c3c2ebbb90602401602060405180830381865afa15801562005823573d6000803e3d6000fd5b505050506040513d601f19601f820116820180604052508101906200584991906200c9fc565b620058ea57600080516020620449e783398151915260001c6001600160a01b031663f48448146040518163ffffffff1660e01b8152600401600060405180830381600087803b1580156200589c57600080fd5b505af1158015620058b1573d6000803e3d6000fd5b5050603d5460365460405163da517b6760e01b81526001600160a01b0391821660048201529116925063da517b679150602401620016ad565b603d5460365460405163da517b6760e01b81526001600160a01b03918216600482015291169063da517b6790602401620016ad565b6040805160018082528183019092526060916020808301908036833701905050905081816000815181106200595857620059586200ca20565b602002602001019065ffffffffffff16908165ffffffffffff1681525050919050565b60405163248e63e160e11b815260016004820152600060248201819052604482018190526064820181905290600080516020620449c78339815191529063491cc7c290608401600060405180830381600087803b158015620059dc57600080fd5b505af1158015620059f1573d6000803e3d6000fd5b50506040516001600160a01b03851692507f72609421458389ee9c5f42d2ead41eecce3b39daf473d94de7f1ec1a9b593a009150600090a283838360405162005a3a906200b8a4565b62005a48939291906200cfd7565b604051809103906000f08015801562005a65573d6000803e3d6000fd5b5090505b9392505050565b62005a7a62005d69565b603d5460205460405163388ff0c160e01b81526001600160a01b03918216600482015291169063388ff0c190602401600060405180830381600087803b15801562005ac457600080fd5b505af115801562005ad9573d6000803e3d6000fd5b50505050600080516020620449e783398151915260001c6001600160a01b03166390c5013b6040518163ffffffff1660e01b8152600401600060405180830381600087803b15801562005b2b57600080fd5b505af115801562005b40573d6000803e3d6000fd5b50506020546040516303223eab60e11b81526001600160a01b039091166004820152600080516020620449c783398151915292506306447d569150602401620016ad565b60408051600380825260808201909252606091602082018380368337019050509050838160008151811062005bbd5762005bbd6200ca20565b602002602001018181525050828160018151811062005be05762005be06200ca20565b602002602001018181525050818160028151811062005c035762005c036200ca20565b6020026020010181815250509392505050565b604080516001808252818301909252606091600091906020808301908036833701905050905060008160008151811062005c545762005c546200ca20565b6020026020010190600481111562005c705762005c706200c0a0565b9081600481111562005c865762005c866200c0a0565b905250919050565b62005c9862005d69565b600080516020620449e783398151915260001c6001600160a01b031663440ed10d6040518163ffffffff1660e01b8152600401600060405180830381600087803b15801562005ce657600080fd5b505af115801562005cfb573d6000803e3d6000fd5b5050604051660dabbadabbad0092507f271d7b4dec404f020f40446305b9de8a359b98348131e4c15987e7383f4281539150600090a2603d54604051633c4ec3d160e11b8152660dabbadabbad0060048201526001600160a01b039091169063789d87a290602401620016ad565b600080516020620449e783398151915260001c6001600160a01b03166390c5013b6040518163ffffffff1660e01b8152600401600060405180830381600087803b15801562005db757600080fd5b505af115801562005dcc573d6000803e3d6000fd5b5050505062005dda620029fa565b603d54601f5460405163296dcf9f60e21b81526001600160a01b03918216600482015291169063a5b73e7c90602401600060405180830381600087803b15801562005e2457600080fd5b505af115801562005e39573d6000803e3d6000fd5b50505050600080516020620449e783398151915260001c6001600160a01b03166390c5013b6040518163ffffffff1660e01b8152600401600060405180830381600087803b15801562005e8b57600080fd5b505af115801562005ea0573d6000803e3d6000fd5b5050601f546040516303223eab60e11b81526001600160a01b039091166004820152600080516020620449c783398151915292506306447d569150602401620016ad565b62005eee62005d69565b603d546040516000916001600160a01b03169062005f0c906200b8b2565b6001600160a01b039091168152602001604051809103906000f08015801562005f39573d6000803e3d6000fd5b50603d5460405163395a3f2b60e01b81526001600160a01b03808416600483015292935091169063395a3f2b90602401600060405180830381600087803b15801562005f8457600080fd5b505af115801562005f99573d6000803e3d6000fd5b5050603d546040516386b9620d60e01b81526001600160a01b039091166004820152600080516020620449c783398151915292506386b9620d9150602401600060405180830381600087803b15801562005ff257600080fd5b505af115801562006007573d6000803e3d6000fd5b50506040516001600160a01b03841692507f3706317055c3080f585c6aa4c6095608f211a98b012075e1ad071337d48611809150600090a2604051631bf974f360e01b81526001600160a01b03821690631bf974f39062002cc7906003906004016200cb51565b6000828260405162006080906200b8c0565b6001600160a01b03928316815291166020820152606060408201819052600090820152608001620028cc565b620060b662005d69565b603d5460408051630df3907760e31b815290516000926001600160a01b031691636f9c83b89160048083019260209291908290030181865afa15801562006101573d6000803e3d6000fd5b505050506040513d601f19601f820116820180604052508101906200612791906200cfb7565b9050600080516020620449e783398151915260001c6001600160a01b031663440ed10d6040518163ffffffff1660e01b8152600401600060405180830381600087803b1580156200617757600080fd5b505af11580156200618c573d6000803e3d6000fd5b5050603d546040516001600160a01b03918216935090841691507f9a2cdaf1a28a88ccd359d6abc6a27d4856d16459aafb0aae34c1296bab5b63fb90600090a3603d54604051636f85322360e11b81526001600160a01b0383811660048301529091169063df0a64469060240162002cc7565b620062096200829b565b6200625b60405180604001604052806011815260200170233930b735b2b739ba32b4b71021b7b4b760791b815250604051806040016040528060058152602001644652414e4b60d81b8152506200b470565b604480546001600160a01b039283166001600160a01b03199182161790915560428054939092169216919091179055604080518082018252600c81526b30b8383634b1b0ba34b7b71960a11b6020808301919091528251808401909352600483526323a6a19960e11b90830152620062d3916200b470565b604580546001600160a01b039283166001600160a01b031991821617909155604380549390921692169190911790556200630c62005d69565b620063166200947a565b604980546001600160a01b0319166001600160a01b0392831690811790915560425460405163154f268f60e11b81529192632a9e4d1e92620063699290911690670de0b6b3a7640000906004016200ca74565b600060405180830381600087803b1580156200638457600080fd5b505af115801562006399573d6000803e3d6000fd5b50505050620063e660405180604001604052806005815260200164436c79646560d81b81525060405180604001604052806008815260200167434c59444550494360c01b8152506200b6d1565b604680546001600160a01b039283166001600160a01b031991821617909155604b8054939092169216919091179055604080518082018252600c81526b546f756768547572746c657360a01b602080830191909152825180840190935260048352632a242a2960e11b908301526200645e916200b6d1565b604880546001600160a01b039283166001600160a01b031991821617909155604c80549390921692169190911790556200649762005d69565b620064a162004238565b604e80546001600160a01b0319166001600160a01b03928316908117909155604b546040516379ddcfd360e11b8152919263f3bb9fa692620064f49290911690670de0b6b3a7640000906004016200ca74565b600060405180830381600087803b1580156200650f57600080fd5b505af115801562006524573d6000803e3d6000fd5b50505050620065326200856f565b60405163248e63e160e11b815260016004820152600060248201819052604482018190526064820152600080516020620449c78339815191529063491cc7c290608401600060405180830381600087803b1580156200659057600080fd5b505af1158015620065a5573d6000803e3d6000fd5b5050604e546040516001600160a01b0390911692507f9e243519850d05d4f0733b1b77b5b0d2d05dc0276827798a1755ecc9c659b2319150600090a2603e54604e54604051632917387960e21b81526001600160a01b03918216600482015291169063a45ce1e490602401600060405180830381600087803b1580156200662b57600080fd5b505af115801562006640573d6000803e3d6000fd5b505060405163248e63e160e11b815260016004820152600060248201819052604482018190526064820152600080516020620449c7833981519152925063491cc7c29150608401600060405180830381600087803b158015620066a257600080fd5b505af1158015620066b7573d6000803e3d6000fd5b50506049546040516001600160a01b0390911692507f88da69b89525943a04b87e31ed06ced91c8251583fc2e63a2f6e24f157b5a3079150600090a2603e54604954604051630d32ecfb60e01b81526001600160a01b039182166004820152911690630d32ecfb90602401600060405180830381600087803b1580156200673d57600080fd5b505af115801562006752573d6000803e3d6000fd5b505050506200676062005d69565b603d5460248054604051633c4ec3d160e11b81526001600160a01b03918216600482015292169163789d87a29101600060405180830381600087803b158015620067a957600080fd5b505af1158015620067be573d6000803e3d6000fd5b50505050620024396200921d565b620067d662005d69565b603d546040516000916001600160a01b031690620067f4906200b8ce565b6001600160a01b039091168152602001604051809103906000f08015801562006821573d6000803e3d6000fd5b50603d54604051637e8b874960e01b81526001600160a01b038084166004830152929350911690637e8b874990602401600060405180830381600087803b1580156200686c57600080fd5b505af115801562006881573d6000803e3d6000fd5b5050603d546040516386b9620d60e01b81526001600160a01b039091166004820152600080516020620449c783398151915292506386b9620d9150602401600060405180830381600087803b158015620068da57600080fd5b505af1158015620068ef573d6000803e3d6000fd5b50506040516001600160a01b03841692507fef260b3c47355ea5edcad1fe50621a44e1e972b474e0a9778247b5bb063661bf9150600090a2604051631bf974f360e01b81526001600160a01b03821690631bf974f39062002cc7906000906004016200cb51565b6200696062005d69565b6040805160048082526024820183526020820180516001600160e01b0316637de8c17d60e01b179052915163f28dceb360e01b8152600080516020620449c78339815191529263f28dceb392620069ba929091016200cb3c565b600060405180830381600087803b158015620069d557600080fd5b505af1158015620069ea573d6000803e3d6000fd5b5050603d5460405163564f9db360e01b8152660dabbadabbad0060048201526001600160a01b03909116925063564f9db39150602401620016ad565b60408051600380825260808201909252606091602082018380368337019050509050838160008151811062006a5f5762006a5f6200ca20565b602002602001019060ff16908160ff1681525050828160018151811062006a8a5762006a8a6200ca20565b602002602001019060ff16908160ff1681525050818160028151811062006ab55762006ab56200ca20565b602002602001019060ff16908160ff16815250509392505050565b600080516020620449e783398151915260001c6001600160a01b0316634ad0bac96040518163ffffffff1660e01b81526004016060604051808303816000875af115801562006b23573d6000803e3d6000fd5b505050506040513d601f19601f8201168201806040525081019062006b4991906200c9b3565b50605e80546001600160a01b0319166001600160a01b03928316908117909155603d5460405163c3c2ebbb60e01b81526004810192909252909116915063c3c2ebbb90602401602060405180830381865afa15801562006bad573d6000803e3d6000fd5b505050506040513d601f19601f8201168201806040525081019062006bd391906200c9fc565b62006c7757600080516020620449e783398151915260001c6001600160a01b031663f48448146040518163ffffffff1660e01b8152600401600060405180830381600087803b15801562006c2657600080fd5b505af115801562006c3b573d6000803e3d6000fd5b5050603d54604051633c4ec3d160e11b8152660dabbadabbad0060048201526001600160a01b03909116925063789d87a29150602401620016ad565b603d54604051633c4ec3d160e11b8152660dabbadabbad0060048201526001600160a01b039091169063789d87a290602401620016ad565b6060601a805480602002602001604051908101604052809291908181526020016000905b828210156200399c57838290600052602060002001805462006cf5906200cc3a565b80601f016020809104026020016040519081016040528092919081815260200182805462006d23906200cc3a565b801562006d745780601f1062006d485761010080835404028352916020019162006d74565b820191906000526020600020905b81548152906001019060200180831162006d5657829003601f168201915b50505050508152602001906001019062006cd3565b62006d936200829b565b62006d9d62005d69565b60408051808201825260058152644652414e4b60d81b6020808301919091528251808401909352600383526246524b60e81b90830152603d5462006deb92906001600160a01b031662008119565b604280546001600160a01b0319166001600160a01b039290921691909117905562006e1562009cff565b604a80546001600160a01b0319166001600160a01b03929092169182179055604051637240f9af60e01b8152637240f9af9062006e55906004016200d04b565b600060405180830381600087803b15801562006e7057600080fd5b505af115801562006e85573d6000803e3d6000fd5b5050604a54603c54603d5460425460405163c0c53b8b60e01b81526001600160a01b03948516965063c0c53b8b955062006ece949384169392831692909116906004016200cc17565b600060405180830381600087803b15801562006ee957600080fd5b505af115801562006efe573d6000803e3d6000fd5b5050505062006f0c62005d69565b604254604a5460405163038d7c2f60e51b81526001600160a01b0391821660048201529116906371af85e090602401600060405180830381600087803b15801562006f5657600080fd5b505af115801562006f6b573d6000803e3d6000fd5b5050603d54604254604080516369f667ed60e01b81526004810191909152600c60448201526b30b8383634b1b0ba34b7b71960a11b60648201526001600160a01b039182166024820152911692506369f667ed9150608401600060405180830381600087803b15801562006fde57600080fd5b505af115801562006ff3573d6000803e3d6000fd5b5050603d54604254604080516369f667ed60e01b8152600481019190915260056044820152644652414e4b60d81b60648201526001600160a01b039182166024820152911692506369f667ed9150608401600060405180830381600087803b1580156200705f57600080fd5b505af115801562007074573d6000803e3d6000fd5b50505050620070826200947a565b604980546001600160a01b0319166001600160a01b0392831690811790915560425460405163154f268f60e11b81529192632a9e4d1e92620070d59290911690670de0b6b3a7640000906004016200ca74565b600060405180830381600087803b158015620070f057600080fd5b505af115801562007105573d6000803e3d6000fd5b5050604080518082018252600c81526b232920a725a2a729aa22a4a760a11b6020808301919091528251808401909352600383526246524b60e81b90830152603d546200715f94509092506001600160a01b03166200597b565b604b60006101000a8154816001600160a01b0302191690836001600160a01b03160217905550620071d06040518060400160405280600c81526020016b232920a725a2a729aa22a4a760a11b8152506040518060400160405280600381526020016246524b60e81b8152506200b6d1565b604680546001600160a01b039283166001600160a01b031991821617909155604b8054939092169216919091179055620022c462005d69565b6060601c805480602002602001604051908101604052809291908181526020016000905b828210156200399c5760008481526020908190206040805180820182526002860290920180546001600160a01b03168352600181018054835181870281018701909452808452939491938583019392830182828015620072da57602002820191906000526020600020906000905b82829054906101000a900460e01b6001600160e01b031916815260200190600401906020826003010492830192600103820291508084116200729b5790505b505050505081525050815260200190600101906200722d565b6040805160018082528183019092526060916020808301908036833701905050905081816000815181106200732c576200732c6200ca20565b60200260200101906001600160c01b031690816001600160c01b031681525050919050565b60405163248e63e160e11b815260016004820152600060248201819052604482018190526064820181905290600080516020620449c78339815191529063491cc7c290608401600060405180830381600087803b158015620073b257600080fd5b505af1158015620073c7573d6000803e3d6000fd5b50506040516001600160a01b03851692507f190d181faa359c0408a05fed34ab1914753b07b5c54422b772d67a30206408ce9150600090a283838360405162005a3a906200b8dc565b6040805160078082526101008201909252600091829190816020015b604080516060808201835260008083526020830152918101919091528152602001906001900390816200742c57905050905060006040516200746e906200b888565b604051809103906000f0801580156200748b573d6000803e3d6000fd5b506040805161012081018252600c60e082019081526b15995c9cda5bdb919858d95d60a21b6101008301528152815180830183526013815272141c9bdd1bd8dbdb13985d1a5d99519858d95d606a1b602082810191909152808301919091528251808401845260108082526f141c9bdd1bd8dbdb14985dd19858d95d60821b8284015283850191909152835180850185526016815275115490cdcc8c52185b991b195c93585a5b919858d95d60521b818401526060840152835180850185526015815274115490cdcc8c551859d9d959149d5b19519858d95d605a1b81840152608084015283518085018552601881527f4552433732314e6f6e54616767656452756c65466163657400000000000000008184015260a0840152835180850190945283526f151c98591a5b99d49d5b19519858d95d60821b9083015260c081019190915290915060005b600781101562007711576000828260078110620075f657620075f66200ca20565b602002015190506000600080516020620449e783398151915260001c6001600160a01b0316638d1cc925836040516020016200763391906200d06a565b6040516020818303038152906040526040518263ffffffff1660e01b81526004016200766091906200cb3c565b600060405180830381865afa1580156200767e573d6000803e3d6000fd5b505050506040513d6000823e601f3d908101601f19168201604052620076a891908101906200cac3565b905060008151602083016000f0604080516060810182526001600160a01b0383168152600060208201529192508101620076e28562002f1f565b815250878581518110620076fa57620076fa6200ca20565b6020908102919091010152505050600101620075d5565b506040805180820182526001600160a01b038416815281516370e39c9560e11b60208083019190915283518083038201815291840184528201529051600090859083906200775f906200b8ea565b6200776c9291906200d094565b604051809103906000f08015801562007789573d6000803e3d6000fd5b509695505050505050565b60408051600480825260a08201909252606091602082016080803683370190505090508481600081518110620077ce57620077ce6200ca20565b602002602001019060ff16908160ff16815250508381600181518110620077f957620077f96200ca20565b602002602001019060ff16908160ff168152505082816002815181106200782457620078246200ca20565b602002602001019060ff16908160ff168152505081816003815181106200784f576200784f6200ca20565b602002602001019060ff16908160ff1681525050949350505050565b62007875620029fa565b6200787f62005093565b603c60006101000a8154816001600160a01b0302191690836001600160a01b03160217905550600080516020620449e783398151915260001c6001600160a01b03166390c5013b6040518163ffffffff1660e01b8152600401600060405180830381600087803b158015620016c857600080fd5b6040805160088082526101208201909252606091602082016101008036833701905050905088816000815181106200792f576200792f6200ca20565b60200260200101818152505087816001815181106200795257620079526200ca20565b60200260200101818152505086816002815181106200797557620079756200ca20565b60200260200101818152505085816003815181106200799857620079986200ca20565b6020026020010181815250508481600481518110620079bb57620079bb6200ca20565b6020026020010181815250508381600581518110620079de57620079de6200ca20565b602002602001018181525050828160068151811062007a015762007a016200ca20565b602002602001018181525050818160078151811062007a245762007a246200ca20565b60200260200101818152505098975050505050505050565b600062007a48620029fa565b600062007a5462005093565b9050600080516020620449e783398151915260001c6001600160a01b03166390c5013b6040518163ffffffff1660e01b8152600401600060405180830381600087803b15801562007aa457600080fd5b505af115801562007ab9573d6000803e3d6000fd5b5092949350505050565b6000805b825181101562007b1b5782818151811062007ae65762007ae66200ca20565b60200260200101516001600160a01b0316846001600160a01b03160362007b12576001915050620028ed565b60010162007ac7565b5060009392505050565b600080516020620449e783398151915260001c6001600160a01b0316634ad0bac96040518163ffffffff1660e01b81526004016060604051808303816000875af115801562007b78573d6000803e3d6000fd5b505050506040513d601f19601f8201168201806040525081019062007b9e91906200c9b3565b50605e80546001600160a01b0319166001600160a01b03928316179055604b54604080516306fdde0360e01b815290516000945091909216916306fdde0391600480830192869291908290030181865afa15801562007c01573d6000803e3d6000fd5b505050506040513d6000823e601f3d908101601f1916820160405262007c2b91908101906200cac3565b603d54605e5460405163c3c2ebbb60e01b81526001600160a01b039182166004820152929350169063c3c2ebbb90602401602060405180830381865afa15801562007c7a573d6000803e3d6000fd5b505050506040513d601f19601f8201168201806040525081019062007ca091906200c9fc565b62007d3e57600080516020620449e783398151915260001c6001600160a01b031663f48448146040518163ffffffff1660e01b8152600401600060405180830381600087803b15801562007cf357600080fd5b505af115801562007d08573d6000803e3d6000fd5b5050603d54604051637bdc8bbf60e01b81526001600160a01b039091169250637bdc8bbf915062002cc79084906004016200cb3c565b603d54604051637bdc8bbf60e01b81526001600160a01b0390911690637bdc8bbf9062002cc79084906004016200cb3c565b60606019805480602002602001604051908101604052809291908181526020016000905b828210156200399c57838290600052602060002001805462007db6906200cc3a565b80601f016020809104026020016040519081016040528092919081815260200182805462007de4906200cc3a565b801562007e355780601f1062007e095761010080835404028352916020019162007e35565b820191906000526020600020905b81548152906001019060200180831162007e1757829003601f168201915b50505050508152602001906001019062007d94565b600060405162007e5a906200b8f8565b604051809103906000f08015801562007e77573d6000803e3d6000fd5b509050600060405162007e8a906200b906565b604051809103906000f08015801562007ea7573d6000803e3d6000fd5b509050600060405162007eba906200b914565b604051809103906000f08015801562007ed7573d6000803e3d6000fd5b509050603b6040518060600160405280856001600160a01b031681526020016000600281111562007f0c5762007f0c6200c0a0565b815260200162007f4760405180604001604052806013815260200172141c9bdd1bd8dbdb13985d1a5d99519858d95d606a1b81525062002f1f565b9052815460018101835560009283526020928390208251600292830290910180546001600160a01b039092166001600160a01b031983168117825594840151939490939284926001600160a81b03191690911790600160a01b90849081111562007fb55762007fb56200c0a0565b02179055506040820151805162007fd79160018401916020909101906200b79d565b505060408051606081019091526001600160a01b0384168152603b91506020810160008152602001620080326040518060400160405280601081526020016f141c9bdd1bd8dbdb14985dd19858d95d60821b81525062002f1f565b9052815460018101835560009283526020928390208251600292830290910180546001600160a01b039092166001600160a01b031983168117825594840151939490939284926001600160a81b03191690911790600160a01b908490811115620080a057620080a06200c0a0565b021790555060408201518051620080c29160018401916020909101906200b79d565b505060408051606081019091526001600160a01b0383168152603b9150602081016000815260200162003c756040518060400160405280600c81526020016b15995c9cda5bdb919858d95d60a21b81525062002f1f565b60405163248e63e160e11b815260016004820152600060248201819052604482018190526064820181905290600080516020620449c78339815191529063491cc7c290608401600060405180830381600087803b1580156200817a57600080fd5b505af11580156200818f573d6000803e3d6000fd5b50506040516001600160a01b03851692507f190d181faa359c0408a05fed34ab1914753b07b5c54422b772d67a30206408ce9150600090a2838383604051620081d8906200b922565b62005a48939291906200d141565b60085460009060ff1615620081ff575060085460ff1690565b604051630667f9d760e41b8152600090600080516020620449c78339815191529063667f9d70906200825090600080516020620449e7833981519152906519985a5b195960d21b906004016200ca74565b602060405180830381865afa1580156200826e573d6000803e3d6000fd5b505050506040513d601f19601f820116820180604052508101906200829491906200d183565b1415905090565b620082a5620029fa565b620082af62005093565b603c80546001600160a01b0319166001600160a01b0392909216919091179055620082d962003578565b603d80546001600160a01b0319166001600160a01b03929092169190911790556200830362005d69565b603d54603c546001600160a01b039182169163df0a64469162008328911683620027f6565b6040516001600160e01b031960e084901b1681526001600160a01b039091166004820152602401600060405180830381600087803b1580156200836a57600080fd5b505af11580156200837f573d6000803e3d6000fd5b50505050603d60009054906101000a90046001600160a01b03166001600160a01b0316636f9c83b86040518163ffffffff1660e01b8152600401602060405180830381865afa158015620083d7573d6000803e3d6000fd5b505050506040513d601f19601f82011682018060405250810190620083fd91906200cfb7565b603e60006101000a8154816001600160a01b0302191690836001600160a01b03160217905550600080516020620449e783398151915260001c6001600160a01b03166390c5013b6040518163ffffffff1660e01b8152600401600060405180830381600087803b158015620016c857600080fd5b60006200847d620029fa565b60006200848962003578565b9050806001600160a01b031663df0a6446620084a68584620027f6565b6040516001600160e01b031960e084901b1681526001600160a01b039091166004820152602401600060405180830381600087803b158015620084e857600080fd5b505af1158015620084fd573d6000803e3d6000fd5b50505050600080516020620449e783398151915260001c6001600160a01b03166390c5013b6040518163ffffffff1660e01b8152600401600060405180830381600087803b1580156200854f57600080fd5b505af115801562008564573d6000803e3d6000fd5b509295945050505050565b6200857962005d69565b603d54602154604051636e8bac5160e01b81526001600160a01b039182166004820152911690636e8bac5190602401600060405180830381600087803b158015620085c357600080fd5b505af1158015620085d8573d6000803e3d6000fd5b50505050600080516020620449e783398151915260001c6001600160a01b03166390c5013b6040518163ffffffff1660e01b8152600401600060405180830381600087803b1580156200862a57600080fd5b505af11580156200863f573d6000803e3d6000fd5b50506021546040516303223eab60e11b81526001600160a01b039091166004820152600080516020620449c783398151915292506306447d569150602401620016ad565b60405163248e63e160e11b815260016004820152600060248201819052604482018190526064820181905290600080516020620449c78339815191529063491cc7c290608401600060405180830381600087803b158015620086e457600080fd5b505af1158015620086f9573d6000803e3d6000fd5b50506040516001600160a01b03851692507f190d181faa359c0408a05fed34ab1914753b07b5c54422b772d67a30206408ce9150600090a2838383604051620081d8906200b930565b6200874c62005d69565b603d54606054604051631f2b29f560e21b81526001600160a01b039182166004820152911690637caca7d490602401600060405180830381600087803b1580156200879657600080fd5b505af1158015620087ab573d6000803e3d6000fd5b50506060546040516386b9620d60e01b81526001600160a01b039091166004820152600080516020620449c783398151915292506386b9620d9150602401600060405180830381600087803b1580156200880457600080fd5b505af115801562008819573d6000803e3d6000fd5b50506060546040516001600160a01b0390911692507f384369ca21e2a2a4427714f269a076982af5550d768f613d72e133f4ec8f24339150600090a2606054603d5460405163676b757360e11b81526001600160a01b03918216600482015291169063ced6eae690602401620016ad565b620088946200829b565b620088d8604051806040016040528060058152602001644652414e4b60d81b8152506040518060400160405280600381526020016246524b60e81b8152506200b470565b604480546001600160a01b039283166001600160a01b03199182161790915560428054939092169216919091179055604080518082018252600c81526b546f756768547572746c657360a01b602080830191909152825180840190935260048352632a242a2960e11b9083015262008950916200b6d1565b604880546001600160a01b039283166001600160a01b031991821617909155604c80549390921692169190911790556200898962005d69565b620089936200947a565b604980546001600160a01b0319166001600160a01b0392831690811790915560425460405163154f268f60e11b81529192632a9e4d1e92620089e69290911690670de0b6b3a7640000906004016200ca74565b600060405180830381600087803b15801562008a0157600080fd5b505af115801562008a16573d6000803e3d6000fd5b50505050620071d06040518060400160405280600c81526020016b232920a725a2a729aa22a4a760a11b8152506040518060400160405280600381526020016246524b60e81b8152506200b6d1565b60408051600380825260808201909252606091602082018380368337019050509050838160008151811062008a9e5762008a9e6200ca20565b60200260200101906001600160401b031690816001600160401b031681525050828160018151811062008ad55762008ad56200ca20565b60200260200101906001600160401b031690816001600160401b031681525050818160028151811062008b0c5762008b0c6200ca20565b60200260200101906001600160401b031690816001600160401b0316815250509392505050565b62008b3d62005d69565b6040805160048082526024820183526020820180516001600160e01b0316637de8c17d60e01b179052915163f28dceb360e01b8152600080516020620449c78339815191529263f28dceb39262008b97929091016200cb3c565b600060405180830381600087803b15801562008bb257600080fd5b505af115801562008bc7573d6000803e3d6000fd5b5050603d54604051636db4a9c960e01b8152660dabbadabbad0060048201526001600160a01b039091169250636db4a9c99150602401620016ad565b60408051600580825260c082019092526060916020820160a080368337019050509050858160008151811062008c3d5762008c3d6200ca20565b602002602001019060ff16908160ff1681525050848160018151811062008c685762008c686200ca20565b602002602001019060ff16908160ff1681525050838160028151811062008c935762008c936200ca20565b602002602001019060ff16908160ff1681525050828160038151811062008cbe5762008cbe6200ca20565b602002602001019060ff16908160ff1681525050818160048151811062008ce95762008ce96200ca20565b602002602001019060ff16908160ff168152505095945050505050565b60408051600180825281830190925260609160208083019080368337019050509050818160008151811062008d3f5762008d3f6200ca20565b602002602001019061ffff16908161ffff1681525050919050565b62008d646200829b565b62008dc16040518060400160405280601781526020017f426f726564205768616c652049736c616e6420436c7562000000000000000000815250604051806040016040528060048152602001634257594360e01b8152506200b6d1565b605780546001600160a01b039283166001600160a01b03199182161790915560568054939092169216919091179055604080518082018252601e81527f426f6172642052657074696c69616e2053706163657368697020436c75620000602080830191909152825180840190935260048352634252534360e01b9083015262008e4a916200b6d1565b605980546001600160a01b039283166001600160a01b0319918216179091556058805493909216921691909117905562008e8362004238565b605a80546001600160a01b0319166001600160a01b0392909216919091179055565b62008eaf62005d69565b603d546040516000916001600160a01b03169062008ecd906200b93e565b6001600160a01b039091168152602001604051809103906000f08015801562008efa573d6000803e3d6000fd5b50603d5460405163dfc4834d60e01b81526001600160a01b03808416600483015292935091169063dfc4834d90602401600060405180830381600087803b15801562008f4557600080fd5b505af115801562008f5a573d6000803e3d6000fd5b5050603d546040516386b9620d60e01b81526001600160a01b039091166004820152600080516020620449c783398151915292506386b9620d9150602401600060405180830381600087803b15801562008fb357600080fd5b505af115801562008fc8573d6000803e3d6000fd5b50506040516001600160a01b03841692507f8c9bae10e815bbd30975e9f63e0cac6bf479d7834dee22b8ab5b3cce4569be719150600090a2604051631bf974f360e01b81526001600160a01b03821690631bf974f39062002cc79060049081016200cb51565b60408051600580825260c082019092526060916020820160a08036833701905050905085816000815181106200906857620090686200ca20565b60200260200101906001600160401b031690816001600160401b03168152505084816001815181106200909f576200909f6200ca20565b60200260200101906001600160401b031690816001600160401b0316815250508381600281518110620090d657620090d66200ca20565b60200260200101906001600160401b031690816001600160401b03168152505082816003815181106200910d576200910d6200ca20565b60200260200101906001600160401b031690816001600160401b03168152505081816004815181106200914457620091446200ca20565b60200260200101906001600160401b031690816001600160401b03168152505095945050505050565b604080516003808252608082019092526060916020820183803683370190505090508381600081518110620091a657620091a66200ca20565b602002602001019061ffff16908161ffff16815250508281600181518110620091d357620091d36200ca20565b602002602001019061ffff16908161ffff168152505081816002815181106200920057620092006200ca20565b602002602001019061ffff16908161ffff16815250509392505050565b60405163248e63e160e11b815260006004820181905260248201819052604482018190526064820181905290600080516020620449c78339815191529063491cc7c290608401600060405180830381600087803b1580156200927e57600080fd5b505af115801562009293573d6000803e3d6000fd5b50506040517fea65e47f8f470c915856407568b15d1780147b7d65ec6675bd26df1be6c33f3f925060009150a160405162002d0e906200b94c565b60408051600580825260c082019092526060916020820160a08036833701905050905085816000815181106200930857620093086200ca20565b602002602001019060048111156200932457620093246200c0a0565b908160048111156200933a576200933a6200c0a0565b8152505084816001815181106200935557620093556200ca20565b602002602001019060048111156200937157620093716200c0a0565b908160048111156200938757620093876200c0a0565b815250508381600281518110620093a257620093a26200ca20565b60200260200101906004811115620093be57620093be6200c0a0565b90816004811115620093d457620093d46200c0a0565b815250508281600381518110620093ef57620093ef6200ca20565b602002602001019060048111156200940b576200940b6200c0a0565b908160048111156200942157620094216200c0a0565b8152505081816004815181106200943c576200943c6200ca20565b602002602001019060048111156200945857620094586200c0a0565b908160048111156200946e576200946e6200c0a0565b90525095945050505050565b600060405162002d0e906200b86c565b6200949462005d69565b603d546023546040516316e6a53960e21b81526001600160a01b039182166004820152911690635b9a94e490602401600060405180830381600087803b158015620094de57600080fd5b505af1158015620094f3573d6000803e3d6000fd5b50505050600080516020620449e783398151915260001c6001600160a01b03166390c5013b6040518163ffffffff1660e01b8152600401600060405180830381600087803b1580156200954557600080fd5b505af11580156200955a573d6000803e3d6000fd5b50506023546040516303223eab60e11b81526001600160a01b039091166004820152600080516020620449c783398151915292506306447d569150602401620016ad565b60408051600280825260608083018452926020830190803683370190505090508281600081518110620095d557620095d56200ca20565b60200260200101906001600160a01b031690816001600160a01b03168152505081816001815181106200960c576200960c6200ca20565b60200260200101906001600160a01b031690816001600160a01b03168152505092915050565b6040805160038082526080820190925260609160208201838036833701905050905083816000815181106200966b576200966b6200ca20565b60200260200101906001600160c01b031690816001600160c01b0316815250508281600181518110620096a257620096a26200ca20565b60200260200101906001600160c01b031690816001600160c01b0316815250508181600281518110620096d957620096d96200ca20565b60200260200101906001600160c01b031690816001600160c01b0316815250509392505050565b600080516020620449e783398151915260001c6001600160a01b0316634ad0bac96040518163ffffffff1660e01b81526004016060604051808303816000875af115801562009753573d6000803e3d6000fd5b505050506040513d601f19601f820116820180604052508101906200977991906200c9b3565b50605e80546001600160a01b0319166001600160a01b03928316908117909155603d5460405163c3c2ebbb60e01b81526004810192909252909116915063c3c2ebbb90602401602060405180830381865afa158015620097dd573d6000803e3d6000fd5b505050506040513d601f19601f820116820180604052508101906200980391906200c9fc565b620098a657600080516020620449e783398151915260001c6001600160a01b031663f48448146040518163ffffffff1660e01b8152600401600060405180830381600087803b1580156200985657600080fd5b505af11580156200986b573d6000803e3d6000fd5b5050603d54604b546040516369f667ed60e01b81526001600160a01b0392831694506369f667ed9350620016ad92909116906004016200d19d565b603d54604b546040516369f667ed60e01b81526001600160a01b03928316926369f667ed92620016ad929116906004016200d19d565b620098e662005d69565b6040805160048082526024820183526020820180516001600160e01b031663d92e233d60e01b179052915163f28dceb360e01b8152600080516020620449c78339815191529263f28dceb39262009940929091016200cb3c565b600060405180830381600087803b1580156200995b57600080fd5b505af115801562009970573d6000803e3d6000fd5b5050603d54604051636f85322360e11b8152600060048201526001600160a01b03909116925063df0a64469150602401620016ad565b6060601580548060200260200160405190810160405280929190818152602001828054801562002f15576020028201919060005260206000209081546001600160a01b0316815260019091019060200180831162002ef6575050505050905090565b62009a126200829b565b62009a6460405180604001604052806011815260200170233930b735b2b739ba32b4b71021b7b4b760791b815250604051806040016040528060058152602001644652414e4b60d81b8152506200b470565b604480546001600160a01b039283166001600160a01b03199182161790915560428054939092169216919091179055604080518082018252600c81526b30b8383634b1b0ba34b7b71960a11b6020808301919091528251808401909352600483526323a6a19960e11b9083015262009adc916200b470565b604580546001600160a01b039283166001600160a01b0319918216179091556043805493909216921691909117905562009b1562005d69565b62009b1f6200947a565b604980546001600160a01b0319166001600160a01b0392831690811790915560425460405163154f268f60e11b81529192632a9e4d1e9262009b729290911690670de0b6b3a7640000906004016200ca74565b600060405180830381600087803b15801562009b8d57600080fd5b505af115801562009ba2573d6000803e3d6000fd5b5050505062009bf16040518060400160405280600c81526020016b232920a725a2a729aa22a4a760a11b8152506040518060400160405280600381526020016246524b60e81b8152506200b705565b604680546001600160a01b039283166001600160a01b031991821617909155604d8054939092169216919091179055604080518082018252600c81526b546f756768547572746c657360a01b602080830191909152825180840190935260048352632a242a2960e11b9083015262009c69916200b6d1565b604880546001600160a01b039283166001600160a01b031991821617909155604c805493909216921691909117905562009ca262005d69565b62009cac62004238565b604e80546001600160a01b0319166001600160a01b03928316908117909155604d546040516379ddcfd360e11b8152919263f3bb9fa692620023219290911690670de0b6b3a7640000906004016200ca74565b6040805160088082526101208201909252600091829190816020015b6040805160608082018352600080835260208301529181019190915281526020019060019003908162009d1b579050509050600060405162009d5d906200b888565b604051809103906000f08015801562009d7a573d6000803e3d6000fd5b506040805161014081018252600c61010082019081526b15995c9cda5bdb919858d95d60a21b6101208301528152815180830183526013815272141c9bdd1bd8dbdb13985d1a5d99519858d95d606a1b602082810191909152808301919091528251808401845260108082526f141c9bdd1bd8dbdb14985dd19858d95d60821b8284015283850191909152835180850185526015815274115490cc8c12185b991b195c93585a5b919858d95d605a1b818401526060840152835180850185526014815273115490cc8c151859d9d959149d5b19519858d95d60621b81840152608084015283518085018552601781527f45524332304e6f6e54616767656452756c6546616365740000000000000000008184015260a0840152835180850185529081526f151c98591a5b99d49d5b19519858d95d60821b8183015260c0830152825180840190935260098352681199595cd19858d95d60ba1b9083015260e081019190915290915060005b60088110156200771157600082826008811062009f065762009f066200ca20565b602002015190506000600080516020620449e783398151915260001c6001600160a01b0316638d1cc9258360405160200162009f4391906200d06a565b6040516020818303038152906040526040518263ffffffff1660e01b815260040162009f7091906200cb3c565b600060405180830381865afa15801562009f8e573d6000803e3d6000fd5b505050506040513d6000823e601f3d908101601f1916820160405262009fb891908101906200cac3565b905060008151602083016000f0604080516060810182526001600160a01b038316815260006020820152919250810162009ff28562002f1f565b8152508785815181106200a00a576200a00a6200ca20565b602090810291909101015250505060010162009ee5565b60408051600580825260c082019092526060916020820160a08036833701905050905085816000815181106200a05b576200a05b6200ca20565b602002602001019065ffffffffffff16908165ffffffffffff168152505084816001815181106200a090576200a0906200ca20565b602002602001019065ffffffffffff16908165ffffffffffff168152505083816002815181106200a0c5576200a0c56200ca20565b602002602001019065ffffffffffff16908165ffffffffffff168152505082816003815181106200a0fa576200a0fa6200ca20565b602002602001019065ffffffffffff16908165ffffffffffff168152505081816004815181106200a12f576200a12f6200ca20565b602002602001019065ffffffffffff16908165ffffffffffff168152505095945050505050565b604080516002808252606080830184529260208301908036833701905050905082816000815181106200a18d576200a18d6200ca20565b602002602001019060048111156200a1a9576200a1a96200c0a0565b908160048111156200a1bf576200a1bf6200c0a0565b8152505081816001815181106200a1da576200a1da6200ca20565b602002602001019060048111156200a1f6576200a1f66200c0a0565b908160048111156200a20c576200a20c6200c0a0565b90525092915050565b60408051600180825281830190925260609160208083019080368337019050509050818160008151811062005c545762005c546200ca20565b60006040516200a25e906200b95a565b604051809103906000f0801580156200a27b573d6000803e3d6000fd5b50905060006040516200a28e906200b968565b604051809103906000f0801580156200a2ab573d6000803e3d6000fd5b50905060006040516200a2be906200b976565b604051809103906000f0801580156200a2db573d6000803e3d6000fd5b50905060006040516200a2ee906200b984565b604051809103906000f0801580156200a30b573d6000803e3d6000fd5b50905060006040516200a31e906200b992565b604051809103906000f0801580156200a33b573d6000803e3d6000fd5b50905060006040516200a34e906200b9a0565b604051809103906000f0801580156200a36b573d6000803e3d6000fd5b50905060006040516200a37e906200b9ae565b604051809103906000f0801580156200a39b573d6000803e3d6000fd5b50905060006040516200a3ae906200b9bc565b604051809103906000f0801580156200a3cb573d6000803e3d6000fd5b509050603b60405180606001604052808a6001600160a01b03168152602001600060028111156200a400576200a4006200c0a0565b81526020016200a4456040518060400160405280601781526020017f455243323052756c6550726f636573736f72466163657400000000000000000081525062002f1f565b9052815460018101835560009283526020928390208251600292830290910180546001600160a01b039092166001600160a01b031983168117825594840151939490939284926001600160a81b03191690911790600160a01b9084908111156200a4b3576200a4b36200c0a0565b0217905550604082015180516200a4d59160018401916020909101906200b79d565b505060408051606081019091526001600160a01b0389168152603b915060208101600081526020016200a53d6040518060400160405280601881526020017f45524337323152756c6550726f636573736f724661636574000000000000000081525062002f1f565b9052815460018101835560009283526020928390208251600292830290910180546001600160a01b039092166001600160a01b031983168117825594840151939490939284926001600160a81b03191690911790600160a01b9084908111156200a5ab576200a5ab6200c0a0565b0217905550604082015180516200a5cd9160018401916020909101906200b79d565b505060408051606081019091526001600160a01b0388168152603b915060208101600081526020016200a6356040518060400160405280601d81526020017f4170706c69636174696f6e5269736b50726f636573736f72466163657400000081525062002f1f565b9052815460018101835560009283526020928390208251600292830290910180546001600160a01b039092166001600160a01b031983168117825594840151939490939284926001600160a81b03191690911790600160a01b9084908111156200a6a3576200a6a36200c0a0565b0217905550604082015180516200a6c59160018401916020909101906200b79d565b505060408051606081019091526001600160a01b0387168152603b915060208101600081526020016200a71160405180606001604052806024815260200162044a076024913962002f1f565b9052815460018101835560009283526020928390208251600292830290910180546001600160a01b039092166001600160a01b031983168117825594840151939490939284926001600160a81b03191690911790600160a01b9084908111156200a77f576200a77f6200c0a0565b0217905550604082015180516200a7a19160018401916020909101906200b79d565b505060408051606081019091526001600160a01b0386168152603b915060208101600081526020016200a8096040518060400160405280601e81526020017f4170706c69636174696f6e506175736550726f636573736f724661636574000081525062002f1f565b9052815460018101835560009283526020928390208251600292830290910180546001600160a01b039092166001600160a01b031983168117825594840151939490939284926001600160a81b03191690911790600160a01b9084908111156200a877576200a8776200c0a0565b0217905550604082015180516200a8999160018401916020909101906200b79d565b505060408051606081019091526001600160a01b0383168152603b915060208101600081526020016200a9016040518060400160405280601d81526020017f455243323054616767656452756c6550726f636573736f72466163657400000081525062002f1f565b9052815460018101835560009283526020928390208251600292830290910180546001600160a01b039092166001600160a01b031983168117825594840151939490939284926001600160a81b03191690911790600160a01b9084908111156200a96f576200a96f6200c0a0565b0217905550604082015180516200a9919160018401916020909101906200b79d565b505060408051606081019091526001600160a01b0384168152603b915060208101600081526020016200a9f96040518060400160405280601e81526020017f45524337323154616767656452756c6550726f636573736f724661636574000081525062002f1f565b9052815460018101835560009283526020928390208251600292830290910180546001600160a01b039092166001600160a01b031983168117825594840151939490939284926001600160a81b03191690911790600160a01b9084908111156200aa67576200aa676200c0a0565b0217905550604082015180516200aa899160018401916020909101906200b79d565b505060408051606081019091526001600160a01b0385168152603b915060208101600081526020016200aaf16040518060400160405280601e81526020017f52756c654170706c69636174696f6e56616c69646174696f6e4661636574000081525062002f1f565b9052815460018101835560009283526020928390208251600292830290910180546001600160a01b039092166001600160a01b031983168117825594840151939490939284926001600160a81b03191690911790600160a01b9084908111156200ab5f576200ab5f6200c0a0565b0217905550604082015180516200ab819160018401916020909101906200b79d565b5050505050505050505050565b6200ab9862005d69565b6040805160048082526024820183526020820180516001600160e01b031663d92e233d60e01b179052915163f28dceb360e01b8152600080516020620449c78339815191529263f28dceb3926200abf2929091016200cb3c565b600060405180830381600087803b1580156200ac0d57600080fd5b505af11580156200ac22573d6000803e3d6000fd5b5050603d546040516369f667ed60e01b81526001600160a01b0390911692506369f667ed9150620016ad906000906004016200d19d565b604051306024820152600080516020620449c78339815191529063f28dceb39060440160408051601f198184030181529181526020820180516001600160e01b031663e8ada65f60e01b1790525160e083901b6001600160e01b03191681526200acc791906004016200cb3c565b600060405180830381600087803b1580156200ace257600080fd5b505af11580156200acf7573d6000803e3d6000fd5b5050603d54605e5460255460405163f142a46f60e01b81526001600160a01b03938416955063f142a46f9450620016ad9392831692909116908190600190600f90600090600490849082016200d1cd565b6040805160018082528183019092526060916020808301908036833701905050905081816000815181106200ad81576200ad816200ca20565b602002602001019060ff16908160ff1681525050919050565b600080516020620449e783398151915260001c6001600160a01b0316634ad0bac96040518163ffffffff1660e01b81526004016060604051808303816000875af11580156200aded573d6000803e3d6000fd5b505050506040513d601f19601f820116820180604052508101906200ae1391906200c9b3565b50605e80546001600160a01b0319166001600160a01b03928316908117909155603d5460405163c3c2ebbb60e01b81526004810192909252909116915063c3c2ebbb90602401602060405180830381865afa1580156200ae77573d6000803e3d6000fd5b505050506040513d601f19601f820116820180604052508101906200ae9d91906200c9fc565b6200af3e57600080516020620449e783398151915260001c6001600160a01b031663f48448146040518163ffffffff1660e01b8152600401600060405180830381600087803b1580156200aef057600080fd5b505af11580156200af05573d6000803e3d6000fd5b5050605f54603d5460405163676b757360e11b81526001600160a01b0391821660048201529116925063ced6eae69150602401620016ad565b605f54603d5460405163676b757360e11b81526001600160a01b03918216600482015291169063ced6eae690602401620016ad565b604080516002808252606080830184529260208301908036833701905050905082816000815181106200afaa576200afaa6200ca20565b602002602001019060ff16908160ff168152505081816001815181106200afd5576200afd56200ca20565b602002602001019060ff16908160ff168152505092915050565b600080516020620449e783398151915260001c6001600160a01b0316634ad0bac96040518163ffffffff1660e01b81526004016060604051808303816000875af11580156200b042573d6000803e3d6000fd5b505050506040513d601f19601f820116820180604052508101906200b06891906200c9b3565b50605e80546001600160a01b0319166001600160a01b03928316908117909155603d5460405163c3c2ebbb60e01b81526004810192909252909116915063c3c2ebbb90602401602060405180830381865afa1580156200b0cc573d6000803e3d6000fd5b505050506040513d601f19601f820116820180604052508101906200b0f291906200c9fc565b6200b19d57600080516020620449e783398151915260001c6001600160a01b031663f48448146040518163ffffffff1660e01b8152600401600060405180830381600087803b1580156200b14557600080fd5b505af11580156200b15a573d6000803e3d6000fd5b5050603d546040516312f6bea560e11b8152660dabbadabbad006004820152600160248201526001600160a01b0390911692506325ed7d4a9150604401620016ad565b603d546040516312f6bea560e11b8152660dabbadabbad006004820152600160248201526001600160a01b03909116906325ed7d4a90604401620016ad565b601880546001810182556000919091527fb13d2d76d1f4b7be834882e410b3e3a8afaf69f83600ae24db354391d2378d2e0180546001600160a01b0319166001600160a01b0392909216919091179055565b6000806200b23b620029fa565b603d546200b25690859085906001600160a01b031662008683565b91506200b26262009cff565b604051637240f9af60e01b81529091506001600160a01b03821690637240f9af906200b291906004016200d04b565b600060405180830381600087803b1580156200b2ac57600080fd5b505af11580156200b2c1573d6000803e3d6000fd5b5050603c54603d5460405163c0c53b8b60e01b81526001600160a01b03808716955063c0c53b8b94506200b2ff93811692169087906004016200cc17565b600060405180830381600087803b1580156200b31a57600080fd5b505af11580156200b32f573d6000803e3d6000fd5b505050506200b33d62005d69565b60405163038d7c2f60e51b81526001600160a01b0382811660048301528316906371af85e090602401600060405180830381600087803b1580156200b38157600080fd5b505af11580156200b396573d6000803e3d6000fd5b5050603d546040516369f667ed60e01b81526001600160a01b0390911692506369f667ed91506200b3ce90879086906004016200cb10565b600060405180830381600087803b1580156200b3e957600080fd5b505af11580156200b3fe573d6000803e3d6000fd5b50505050600080516020620449e783398151915260001c6001600160a01b03166390c5013b6040518163ffffffff1660e01b8152600401600060405180830381600087803b1580156200b45057600080fd5b505af11580156200b465573d6000803e3d6000fd5b505050509250929050565b6000806200b47d620029fa565b603d546200b49890859085906001600160a01b031662008119565b91506200b4a462009cff565b604051637240f9af60e01b81529091506001600160a01b03821690637240f9af906200b4d3906004016200d04b565b600060405180830381600087803b1580156200b4ee57600080fd5b505af11580156200b503573d6000803e3d6000fd5b5050603c54603d5460405163c0c53b8b60e01b81526001600160a01b03808716955063c0c53b8b94506200b54193811692169087906004016200cc17565b600060405180830381600087803b1580156200b55c57600080fd5b505af11580156200b571573d6000803e3d6000fd5b505050506200b57f62005d69565b60405163038d7c2f60e51b81526001600160a01b0382811660048301528316906371af85e090602401600060405180830381600087803b1580156200b5c357600080fd5b505af11580156200b5d8573d6000803e3d6000fd5b505060405163248e63e160e11b815260016004820181905260248201526000604482018190526064820152600080516020620449c7833981519152925063491cc7c29150608401600060405180830381600087803b1580156200b63a57600080fd5b505af11580156200b64f573d6000803e3d6000fd5b50505050816001600160a01b0316846040516200b66d91906200d23d565b604051908190038120907f1eac45aa053bf10c5dda3373ed6d94963b4297609498c40eed446f340319b87e90600090a3603d546040516369f667ed60e01b81526001600160a01b03909116906369f667ed906200b3ce90879086906004016200cb10565b6000806200b6de620029fa565b603d546200b6f990859085906001600160a01b03166200597b565b91506200b26262007410565b6000806200b712620029fa565b603d546200b6f990859085906001600160a01b031662007351565b619ff5806200d25c83390190565b619ffb806201725183390190565b6133ac806202124c83390190565b6135d880620245f883390190565b61099c8062027bd083390190565b611a2a806202856c83390190565b61174f8062029f9683390190565b611536806202b6e583390190565b828054828255906000526020600020906007016008900481019282156200b83e5791602002820160005b838211156200b80a57835183826101000a81548163ffffffff021916908360e01c021790555092602001926004016020816003010492830192600103026200b7c7565b80156200b83c5782816101000a81549063ffffffff02191690556004016020816003010492830192600103026200b80a565b505b506200b84c9291506200b9ca565b5090565b61082e806202cc1b83390190565b61071d806202d44983390190565b610446806202db6683390190565b6112e9806202dfac83390190565b6101a1806202f29583390190565b61100b806202f43683390190565b613014806203044183390190565b610e69806203345583390190565b610f0d80620342be83390190565b610deb80620351cb83390190565b6125538062035fb683390190565b61100b806203850983390190565b611789806203951483390190565b61027d806203ac9d83390190565b610471806203af1a83390190565b611f61806203b38b83390190565b6113ef806203d2ec83390190565b610e0a806203e6db83390190565b610831806203f4e583390190565b61128a806203fd1683390190565b61016c8062040fa083390190565b610b7c806204110c83390190565b6104d58062041c8883390190565b61036c806204215d83390190565b61098980620424c983390190565b6109648062042e5283390190565b61121180620437b683390190565b5b808211156200b84c57600081556001016200b9cb565b6001600160a01b03811681146200553557600080fd5b6000806000606084860312156200ba0d57600080fd5b83356200ba1a816200b9e1565b925060208401356200ba2c816200b9e1565b915060408401356200ba3e816200b9e1565b809150509250925092565b6020808252825182820181905260009190848201906040850190845b818110156200ba8c5783516001600160a01b0316835292840192918401916001016200ba65565b50909695505050505050565b803565ffffffffffff811681146200baaf57600080fd5b919050565b6000806000606084860312156200baca57600080fd5b6200bad5846200ba98565b92506200bae5602085016200ba98565b91506200baf5604085016200ba98565b90509250925092565b6020808252825182820181905260009190848201906040850190845b818110156200ba8c57835165ffffffffffff16835292840192918401916001016200bb1a565b80356001600160401b03811681146200baaf57600080fd5b6000602082840312156200bb6b57600080fd5b62005a69826200bb40565b6020808252825182820181905260009190848201906040850190845b818110156200ba8c5783516001600160401b0316835292840192918401916001016200bb92565b600080604083850312156200bbcd57600080fd5b82356200bbda816200b9e1565b915060208301356200bbec816200b9e1565b809150509250929050565b600080600080608085870312156200bc0e57600080fd5b6200bc19856200bb40565b93506200bc29602086016200bb40565b92506200bc39604086016200bb40565b91506200bc49606086016200bb40565b905092959194509250565b6000602082840312156200bc6757600080fd5b5035919050565b6020808252825182820181905260009190848201906040850190845b818110156200ba8c578351835292840192918401916001016200bc8a565b634e487b7160e01b600052604160045260246000fd5b604051601f8201601f191681016001600160401b03811182821017156200bce9576200bce96200bca8565b604052919050565b60006001600160401b038211156200bd0d576200bd0d6200bca8565b50601f01601f191660200190565b600082601f8301126200bd2d57600080fd5b81356200bd446200bd3e826200bcf1565b6200bcbe565b8181528460208386010111156200bd5a57600080fd5b816020850160208301376000918101602001919091529392505050565b6000602082840312156200bd8a57600080fd5b81356001600160401b038111156200bda157600080fd5b620030a6848285016200bd1b565b6001600160e01b0319169052565b60008151808452602080850194506020840160005b838110156200bdfa5781516001600160e01b031916875295820195908201906001016200bdd2565b509495945050505050565b60208152600062005a6960208301846200bdbd565b600080600080608085870312156200be3157600080fd5b84356200be3e816200b9e1565b935060208501356200be50816200b9e1565b925060408501356200be62816200b9e1565b915060608501356200be74816200b9e1565b939692955090935050565b6000602082840312156200be9257600080fd5b813562005a69816200b9e1565b60005b838110156200bebc5781810151838201526020016200bea2565b50506000910152565b600081518084526200bedf8160208601602086016200be9f565b601f01601f19169290920160200192915050565b60008282518085526020808601955060208260051b8401016020860160005b848110156200bf4457601f198684030189526200bf318383516200bec5565b988401989250908301906001016200bf12565b5090979650505050505050565b600060208083018184528085518083526040925060408601915060408160051b87010184880160005b838110156200bfc657888303603f19018552815180516001600160a01b031684528701518784018790526200bfb2878501826200bef3565b95880195935050908601906001016200bf7a565b509098975050505050505050565b803560ff811681146200baaf57600080fd5b600080604083850312156200bffa57600080fd5b823591506200c00c602084016200bfd4565b90509250929050565b600080604083850312156200c02957600080fd5b50508035926020909101359150565b600581106200553557600080fd5b600080600080608085870312156200c05d57600080fd5b84356200c06a816200c038565b935060208501356200c07c816200c038565b925060408501356200c08e816200c038565b915060608501356200be74816200c038565b634e487b7160e01b600052602160045260246000fd5b600581106200553557620055356200c0a0565b6020808252825182820181905260009190848201906040850190845b818110156200ba8c5783516200c0fb816200c0b6565b835292840192918401916001016200c0e5565b600080600080608085870312156200c12557600080fd5b6200c130856200ba98565b93506200c140602086016200ba98565b92506200c150604086016200ba98565b91506200bc49606086016200ba98565b803561ffff811681146200baaf57600080fd5b600080604083850312156200c18757600080fd5b6200c192836200c160565b91506200c00c602084016200c160565b6020808252825182820181905260009190848201906040850190845b818110156200ba8c57835161ffff16835292840192918401916001016200c1be565b6000806000606084860312156200c1f657600080fd5b83356200c203816200c038565b925060208401356200c215816200c038565b915060408401356200ba3e816200c038565b600080604083850312156200c23b57600080fd5b6200c246836200bb40565b91506200c00c602084016200bb40565b80356001600160c01b03811681146200baaf57600080fd5b600080604083850312156200c28257600080fd5b6200c28d836200c256565b91506200c00c602084016200c256565b6020808252825182820181905260009190848201906040850190845b818110156200ba8c5783516001600160c01b0316835292840192918401916001016200c2b9565b600080604083850312156200c2f457600080fd5b6200c2ff836200ba98565b91506200c00c602084016200ba98565b600060208083018184528085518083526040925060408601915060408160051b87010184880160005b838110156200bfc657888303603f19018552815180516001600160a01b031684528701518784018790526200c370878501826200bdbd565b95880195935050908601906001016200c338565b6000602082840312156200c39757600080fd5b62005a69826200ba98565b6000806000606084860312156200c3b857600080fd5b83356001600160401b03808211156200c3d057600080fd5b6200c3de878388016200bd1b565b945060208601359150808211156200c3f557600080fd5b506200c404868287016200bd1b565b92505060408401356200ba3e816200b9e1565b6000806000606084860312156200c42d57600080fd5b505081359360208301359350604090920135919050565b6000806000606084860312156200c45a57600080fd5b6200c465846200bfd4565b92506200c475602085016200bfd4565b91506200baf5604085016200bfd4565b6020808252825182820181905260009190848201906040850190845b818110156200ba8c57835160ff16835292840192918401916001016200c4a1565b60208152600062005a6960208301846200bef3565b6000602082840312156200c4ea57600080fd5b62005a69826200c256565b600080600080608085870312156200c50c57600080fd5b6200c517856200bfd4565b93506200c527602086016200bfd4565b92506200c537604086016200bfd4565b91506200bc49606086016200bfd4565b600080600080600080600080610100898b0312156200c56557600080fd5b505086359860208801359850604088013597606081013597506080810135965060a0810135955060c0810135945060e0013592509050565b60006001600160401b038211156200c5b9576200c5b96200bca8565b5060051b60200190565b600080604083850312156200c5d757600080fd5b82356200c5e4816200b9e1565b91506020838101356001600160401b038111156200c60157600080fd5b8401601f810186136200c61357600080fd5b80356200c6246200bd3e826200c59d565b81815260059190911b820183019083810190888311156200c64457600080fd5b928401925b828410156200c66f5783356200c65f816200b9e1565b825292840192908401906200c649565b80955050505050509250929050565b6000806000606084860312156200c69457600080fd5b6200c69f846200bb40565b92506200c6af602085016200bb40565b91506200baf5604085016200bb40565b600080600080600060a086880312156200c6d857600080fd5b6200c6e3866200bfd4565b94506200c6f3602087016200bfd4565b93506200c703604087016200bfd4565b92506200c713606087016200bfd4565b91506200c723608087016200bfd4565b90509295509295909350565b6000602082840312156200c74257600080fd5b62005a69826200c160565b600080600080600060a086880312156200c76657600080fd5b6200c771866200bb40565b94506200c781602087016200bb40565b93506200c791604087016200bb40565b92506200c7a1606087016200bb40565b91506200c723608087016200bb40565b6000806000606084860312156200c7c757600080fd5b6200c7d2846200c160565b92506200c7e2602085016200c160565b91506200baf5604085016200c160565b600080600080600060a086880312156200c80b57600080fd5b85356200c818816200c038565b945060208601356200c82a816200c038565b935060408601356200c83c816200c038565b925060608601356200c84e816200c038565b915060808601356200c860816200c038565b809150509295509295909350565b6000806000606084860312156200c88457600080fd5b6200c88f846200c256565b92506200c89f602085016200c256565b91506200baf5604085016200c256565b600080600080600060a086880312156200c8c857600080fd5b6200c8d3866200ba98565b94506200c8e3602087016200ba98565b93506200c8f3604087016200ba98565b92506200c903606087016200ba98565b91506200c723608087016200ba98565b600080604083850312156200c92757600080fd5b82356200c934816200c038565b915060208301356200bbec816200c038565b6000602082840312156200c95957600080fd5b813562005a69816200c038565b6000602082840312156200c97957600080fd5b62005a69826200bfd4565b600080604083850312156200c99857600080fd5b6200c9a3836200bfd4565b91506200c00c602084016200bfd4565b6000806000606084860312156200c9c957600080fd5b83516200c9d6816200c038565b60208501519093506200c9e9816200b9e1565b60408501519092506200ba3e816200b9e1565b6000602082840312156200ca0f57600080fd5b8151801515811462005a6957600080fd5b634e487b7160e01b600052603260045260246000fd5b6001600160a01b03929092168252606060208301819052600b908301526a436173746c6576616e696160a81b60808301521515604082015260a00190565b6001600160a01b03929092168252602082015260400190565b60006200ca9e6200bd3e846200bcf1565b90508281528383830111156200cab357600080fd5b62005a698360208301846200be9f565b6000602082840312156200cad657600080fd5b81516001600160401b038111156200caed57600080fd5b8201601f810184136200caff57600080fd5b620030a6848251602084016200ca8d565b6040815260006200cb2560408301856200bec5565b905060018060a01b03831660208301529392505050565b60208152600062005a6960208301846200bec5565b602081016200cb60836200c0b6565b91905290565b600060208083850312156200cb7a57600080fd5b82516001600160401b038111156200cb9157600080fd5b8301601f810185136200cba357600080fd5b80516200cbb46200bd3e826200c59d565b81815260059190911b820183019083810190878311156200cbd457600080fd5b928401925b828410156200cc0c5783516001600160e01b0319811681146200cbfc5760008081fd5b825292840192908401906200cbd9565b979650505050505050565b6001600160a01b0393841681529183166020830152909116604082015260600190565b600181811c908216806200cc4f57607f821691505b6020821081036200cc7057634e487b7160e01b600052602260045260246000fd5b50919050565b6000600182016200cc9757634e487b7160e01b600052601160045260246000fd5b5060010190565b600381106200ccb1576200ccb16200c0a0565b9052565b60018060a01b0381511682526000602082015160406020850152620030a660408501826200bec5565b6000604082016040835280855480835260608501915060608160051b86010192508660005260208060002060005b838110156200cf9657878603605f1901855281546001600160a01b038116875260608701906200cd4685890160a083901c60ff166200cc9e565b506060604088015260018381018054808452600091825260208083209401905b806007840110156200ce2e5784546200cd83838260e01b6200bdaf565b6001600160e01b03196200cda0848b0160c084901b83166200bdaf565b6200cdb460408501828460a01b166200bdaf565b6200cdc860608501828460801b166200bdaf565b6200cddc60808501828460601b166200bdaf565b6200cdf060a08501828460401b166200bdaf565b6200ce0360c0850182848d1b166200bdaf565b6200ce1460e085018284166200bdaf565b50506101008201915083850194506008830192506200cd66565b935493808310156200ce52576200ce49828660e01b6200bdaf565b91830191908701905b808310156200ce7e576200ce758260c087901b6001600160e01b0319166200bdaf565b91830191908701905b808310156200ceaa576200cea18260a087901b6001600160e01b0319166200bdaf565b91830191908701905b808310156200ced6576200cecd82608087901b6001600160e01b0319166200bdaf565b91830191908701905b808310156200cf02576200cef982606087901b6001600160e01b0319166200bdaf565b91830191908701905b808310156200cf2e576200cf2582604087901b6001600160e01b0319166200bdaf565b91830191908701905b808310156200cf58576200cf4f82868a1b6001600160e01b0319166200bdaf565b91830191908701905b808310156200cf7c576200cf77826001600160e01b031987166200bdaf565b908701905b50985050509483019450600291909101906001016200cd0c565b5050858403818701525050506200cfae81856200ccb5565b95945050505050565b6000602082840312156200cfca57600080fd5b815162005a69816200b9e1565b6080815260006200cfec60808301866200bec5565b82810360208401526200d00081866200bec5565b6001600160a01b03949094166040848101919091528385036060909401939093525050601482527368747470733a2f2f53616d706c654170702e696f60601b60208301520192915050565b6020808252600590820152640312e312e360dc1b604082015260600190565b600082516200d07e8184602087016200be9f565b630b9cdbdb60e21b920191825250600401919050565b60006040808301604084528086518083526060925060608601915060608160051b8701016020808a0160005b848110156200d11f57898403605f19018652815180516001600160a01b03168552838101516200d0f3858701826200cc9e565b508801518489018890526200d10b858901826200bdbd565b96840196945050908201906001016200d0c0565b5050878203908801526200d13481896200ccb5565b9998505050505050505050565b6060815260006200d15660608301866200bec5565b82810360208401526200d16a81866200bec5565b91505060018060a01b0383166040830152949350505050565b6000602082840312156200d19657600080fd5b5051919050565b6040808252600590820152643a37b5b2b760d91b60608201526001600160a01b0391909116602082015260800190565b6001600160a01b0389811682528881166020830152871660408201526060810186905261ffff8516608082015260a0810184905261010081016200d211846200c0b6565b8360c0830152600283106200d22a576200d22a6200c0a0565b8260e08301529998505050505050505050565b600082516200d2518184602087016200be9f565b919091019291505056fe60806040523480156200001157600080fd5b5060405162009ff538038062009ff583398101604081905262000034916200069d565b60016002556200005460008051602062009fd583398151915284620002a5565b6200007e60008051602062009fb583398151915260008051602062009fd5833981519152620002d0565b620000b97f2104bd22bc71f1a868806c22aa1905dad25555696bbf4456c5b464b8d55f733560008051602062009fb5833981519152620002d0565b620000f47f870ee5500b98ca09b5fcd7de4a95293916740021c92172d268dad85baec3c85f60008051602062009fb5833981519152620002d0565b6200012f7f5ff038c4899bb7fbbc7cf40ef4accece5ebd324c2da5ab7db2c3b81e845e2a7a60008051602062009fb5833981519152620002d0565b6200016a7f5cb9147a971eae9c63c04beb424326d7db091a71473987979b49bb1e189f345760008051602062009fb5833981519152620002d0565b620001a560008051602062009fd58339815191527f16c600d7bfbb199b1bbbaaec72d225e1b669f7d0c812d7cafcf00672fb42b30d620002d0565b620001e07f16c600d7bfbb199b1bbbaaec72d225e1b669f7d0c812d7cafcf00672fb42b30d60008051602062009fd5833981519152620002d0565b600d620001ee83826200081a565b50806200025057620001ff6200031b565b816040516200020f9190620008e6565b604051908190038120906001600160a01b038516907f1e61c3dd5791558bf488a7c35e8966a12a825d329d5ea515b1991b217483cee190600090a36200029c565b81604051620002609190620008e6565b604051908190038120906001600160a01b038516907f0f2d99fca0368b79392cf96793d9fc61fc0861e5a3b6c9f84843e408ffbdefb890600090a35b50505062000904565b620002b18282620004f2565b6000828152600160205260409020620002cb908262000593565b505050565b600082815260208190526040808220600101805490849055905190918391839186917fbd79b86ffe0ab8e8776151514217cd7cacd52c909f66475c3af44e129f0b00ff9190a4505050565b306040516200032a9062000605565b6001600160a01b039091168152602001604051809103906000f08015801562000357573d6000803e3d6000fd5b50600380546001600160a01b0319166001600160a01b03929092169190911790556040513090620003889062000613565b6001600160a01b039091168152602001604051809103906000f080158015620003b5573d6000803e3d6000fd5b50600480546001600160a01b0319166001600160a01b03929092169190911790556040513090620003e69062000621565b6001600160a01b039091168152602001604051809103906000f08015801562000413573d6000803e3d6000fd5b50600580546001600160a01b0319166001600160a01b0392909216919091179055604051309062000444906200062f565b6001600160a01b039091168152602001604051809103906000f08015801562000471573d6000803e3d6000fd5b50600680546001600160a01b0319166001600160a01b03929092169190911790556040513090620004a2906200063d565b6001600160a01b039091168152602001604051809103906000f080158015620004cf573d6000803e3d6000fd5b50600780546001600160a01b0319166001600160a01b0392909216919091179055565b6000828152602081815260408083206001600160a01b038516845290915290205460ff166200058f576000828152602081815260408083206001600160a01b03851684529091529020805460ff191660011790556200054e3390565b6001600160a01b0316816001600160a01b0316837f2f8788117e7eff1d82e926ec794901d17c78024a50270940304540a733656f0d60405160405180910390a45b5050565b6000620005aa836001600160a01b038416620005b3565b90505b92915050565b6000818152600183016020526040812054620005fc57508154600181810184556000848152602080822090930184905584548482528286019093526040902091909155620005ad565b506000620005ad565b61099c80620058d283390190565b610deb806200626e83390190565b610e0a806200705983390190565b6112e98062007e6383390190565b610e69806200914c83390190565b634e487b7160e01b600052604160045260246000fd5b60005b838110156200067e57818101518382015260200162000664565b50506000910152565b805180151581146200069857600080fd5b919050565b600080600060608486031215620006b357600080fd5b83516001600160a01b0381168114620006cb57600080fd5b60208501519093506001600160401b0380821115620006e957600080fd5b818601915086601f830112620006fe57600080fd5b8151818111156200071357620007136200064b565b604051601f8201601f19908116603f011681019083821181831017156200073e576200073e6200064b565b816040528281528960208487010111156200075857600080fd5b6200076b83602083016020880162000661565b8096505050505050620007816040850162000687565b90509250925092565b600181811c908216806200079f57607f821691505b602082108103620007c057634e487b7160e01b600052602260045260246000fd5b50919050565b601f821115620002cb576000816000526020600020601f850160051c81016020861015620007f15750805b601f850160051c820191505b818110156200081257828155600101620007fd565b505050505050565b81516001600160401b038111156200083657620008366200064b565b6200084e816200084784546200078a565b84620007c6565b602080601f8311600181146200088657600084156200086d5750858301515b600019600386901b1c1916600185901b17855562000812565b600085815260208120601f198616915b82811015620008b75788860151825594840194600190910190840162000896565b5085821015620008d65787850151600019600388901b60f8161c191681555b5050505050600190811b01905550565b60008251620008fa81846020870162000661565b9190910192915050565b614fbe80620009146000396000f3fe608060405234801561001057600080fd5b50600436106105045760003560e01c80637069e99f11610299578063ca15c87311610167578063da517b67116100d9578063dfc4834d11610092578063dfc4834d14610bad578063e4a5a46514610bc0578063f142a46f14610bc8578063f84ed61d14610bdb578063f95228c014610bee578063f987b1481461072557600080fd5b8063da517b6714610b4e578063db6fb32514610568578063dc08706d14610b61578063ddbd94a914610b74578063df0a644614610b87578063df7f453b14610b9a57600080fd5b8063d019577a1161012b578063d019577a14610aed578063d37373ba14610b00578063d4a7db7f14610b13578063d4f9387014610b26578063d547741f14610b3b578063d881be2f1461092c57600080fd5b8063ca15c87314610a81578063ca3f1ede14610a94578063cc812f3a14610aa7578063ced6eae614610ac7578063cf1c6f6514610ada57600080fd5b8063964700c81161020b578063b1b65c35116101c4578063b1b65c3514610890578063b315cb3a14610a09578063b8396f5e14610a1c578063be4eb0c714610a2f578063c3c2ebbb14610a5b578063c409123614610a6e57600080fd5b8063964700c8146109895780639a4e34ba1461099c5780639fe3cd2a146109c8578063a217fddf146109db578063a5b73e7c146109e3578063aa62f1a4146109f657600080fd5b80637e8b87491161025d5780637e8b87491461091957806382654fe91461092c57806383d74cdc1461093d5780639010d07c1461095057806390d5a92c1461096357806391d148541461097657600080fd5b80637069e99f146108c557806375c5512a146108d8578063789d87a2146108e05780637bdc8bbf146108f35780637caca7d41461090657600080fd5b8063451babd8116103d65780635b9a94e41161034857806369f667ed1161030157806369f667ed146108575780636aa806a71461086a5780636db4a9c91461087d5780636dbda16a146108905780636e8bac51146108a15780636f9c83b8146108b457600080fd5b80635b9a94e4146107d35780635bc008a0146107e65780635eafd1081461080b57806361c698611461081e57806363f8071c14610831578063674b5e4d1461084457600080fd5b80634f3e59591161039a5780634f3e595914610725578063516f0a1b1461073657806354c615071461076257806354fd4d501461078e5780635548064f146107b8578063564f9db3146107c057600080fd5b8063451babd8146106dc57806345467e2d146106ef57806346f0ea20146106f75780634d98c79e1461070a5780634eec274c1461071d57600080fd5b806326a119291161047a578063388ff0c111610433578063388ff0c11461066a578063395a3f2b1461067d5780633ec7d69814610690578063417b0dd9146106a357806341b77fff146106b657806342456e77146106c957600080fd5b806326a11929146105f6578063273cbaa0146106095780632b124b791461061e5780632f2ff15d1461063157806336568abe1461064457806336f543751461065757600080fd5b806319d1c21d116104cc57806319d1c21d146105685780631b945a5d146105795780631bf31cee1461058c578063248a9ca31461059f57806325ed7d4a146105d057806325f4671c146105e357600080fd5b806301ffc9a714610509578063046e42a4146105315780630c631214146105565780630f7b66b61461053157806312be410014610560575b600080fd5b61051c6105173660046140a1565b610c01565b60405190151581526020015b60405180910390f35b6006546001600160a01b03165b6040516001600160a01b039091168152602001610528565b61055e610c2c565b005b61055e610c73565b6005546001600160a01b031661053e565b61055e6105873660046141e9565b610cdd565b61055e61059a366004614225565b610d30565b6105c26105ad366004614242565b60009081526020819052604090206001015490565b604051908152602001610528565b61055e6105de366004614269565b610d92565b61055e6105f1366004614225565b610e82565b61055e6106043660046142a2565b610f05565b610611610f86565b60405161052891906143a1565b61055e61062c3660046143c1565b610fe8565b61055e61063f3660046143de565b611408565b61055e6106523660046143de565b611449565b61055e6106653660046141e9565b611481565b61055e610678366004614225565b6114cf565b61055e61068b366004614225565b611561565b61055e61069e366004614403565b6115c3565b61055e6106b136600461442f565b61163f565b61051c6106c4366004614225565b611688565b61055e6106d73660046144f8565b6116a2565b61055e6106ea366004614526565b611759565b61055e6117ac565b600e5461053e906001600160a01b031681565b61055e61071836600461442f565b6117f3565b61055e61183d565b6007546001600160a01b031661053e565b61051c610744366004614225565b6001600160a01b03166000908152601b602052604090205460ff1690565b61051c610770366004614225565b6001600160a01b031660009081526012602052604090205460ff1690565b6040805180820190915260058152640312e312e360dc1b60208201525b6040516105289190614578565b61055e611950565b61055e6107ce366004614225565b611997565b61055e6107e1366004614225565b6119f7565b6107f96107f4366004614225565b611a89565b60405160ff9091168152602001610528565b61055e6108193660046145ab565b611afe565b61055e61082c366004614225565b611b4f565b6107ab61083f366004614225565b611b99565b61051c610852366004614225565b611c45565b61055e61086536600461461f565b611c5f565b61055e610878366004614225565b611e63565b61055e61088b366004614225565b611eaf565b6004546001600160a01b031661053e565b61055e6108af366004614225565b611f0f565b600f546001600160a01b031661053e565b61051c6108d3366004614225565b611fa1565b61055e611fbb565b61055e6108ee366004614225565b612002565b61055e610901366004614675565b6120c2565b61055e610914366004614225565b612261565b61055e610927366004614225565b6124a7565b6003546001600160a01b031661053e565b61055e61094b366004614225565b612509565b61053e61095e3660046146b6565b61259b565b61055e6109713660046146d8565b6125ba565b61051c6109843660046143de565b612604565b61055e6109973660046146d8565b61262d565b61051c6109aa366004614225565b6001600160a01b031660009081526018602052604090205460ff1690565b61055e6109d63660046141e9565b612676565b6105c2600081565b61055e6109f1366004614225565b6126c4565b61055e610a04366004614526565b612756565b61055e610a1736600461471e565b6127ab565b61055e610a2a3660046141e9565b6127f5565b61051c610a3d366004614225565b6001600160a01b03166000908152601d602052604090205460ff1690565b61051c610a69366004614225565b612843565b61053e610a7c366004614675565b61285d565b6105c2610a8f366004614242565b612892565b61055e610aa23660046141e9565b6128a9565b610aba610ab5366004614225565b6128f7565b6040516105289190614793565b61055e610ad5366004614225565b61296a565b61055e610ae8366004614225565b612e41565b61051c610afb3660046145ab565b612ea3565b61055e610b0e3660046145ab565b612f19565b61051c610b21366004614225565b612f6a565b610b2e612f84565b60405161052891906147a6565b61055e610b493660046143de565b612ffb565b61055e610b5c366004614225565b613062565b6107f9610b6f366004614225565b613122565b61055e610b823660046144f8565b613155565b61055e610b95366004614225565b613288565b61051c610ba8366004614225565b613321565b61055e610bbb366004614225565b61333b565b61055e61339d565b61055e610bd6366004614802565b6133fe565b61055e610be9366004614675565b61351d565b61055e610bfc366004614225565b613587565b60006001600160e01b03198216635a05180f60e01b1480610c265750610c26826135da565b92915050565b610c44600080516020614ec983398151915233611449565b60405160009033907f58b0c912034dc4fc969d456493cbf9da4f109b79865daf74321cf73ab2f7040c908390a3565b600760009054906101000a90046001600160a01b03166001600160a01b03166312be41006040518163ffffffff1660e01b8152600401600060405180830381600087803b158015610cc357600080fd5b505af1158015610cd7573d6000803e3d6000fd5b50505050565b600080516020614ec9833981519152610cf58161360f565b60005b8251811015610d2b57610d23838281518110610d1657610d166148a4565b6020026020010151611f0f565b600101610cf8565b505050565b600080516020614ec9833981519152610d488161360f565b6001600160a01b038216610d6f5760405163d92e233d60e01b815260040160405180910390fd5b50600a80546001600160a01b0319166001600160a01b0392909216919091179055565b600080516020614ec9833981519152610daa8161360f565b81610dfc576001600160a01b0383166000908152601d602052604090205460ff16610de857604051637de8c17d60e01b815260040160405180910390fd5b610df7601c601e601d86613619565b610e45565b6001600160a01b0383166000908152601d602052604090205460ff1615610e36576040516316a163b960e11b815260040160405180910390fd5b610e45601c601e601d86613722565b604051821515906001600160a01b038516907f6564da707a5df09bfa9aed4a8c9acc37e2df9021b0dfe89c445c84ca3313768190600090a3505050565b600080516020614f49833981519152610e9a8161360f565b6001600160a01b038216610ec15760405163d92e233d60e01b815260040160405180910390fd5b6000610eda600080516020614f69833981519152612892565b1115610eed57610ee982613779565b5050565b610ee9600080516020614f69833981519152836137c1565b600080516020614ec9833981519152610f1d8161360f565b6006546040516326a1192960e01b81526001600160a01b03909116906326a1192990610f4f90869086906004016148ba565b600060405180830381600087803b158015610f6957600080fd5b505af1158015610f7d573d6000803e3d6000fd5b50505050505050565b60606013805480602002602001604051908101604052809291908181526020018280548015610fde57602002820191906000526020600020905b81546001600160a01b03168152600190910190602001808311610fc0575b5050505050905090565b6002816004811115610ffc57610ffc6148e8565b036110bb57600a546001600160a01b031661102a5760405163821e0eeb60e01b815260040160405180910390fd5b600a546001600160a01b0316336001600160a01b03161461105e57604051634128496760e01b815260040160405180910390fd5b600a54600680546001600160a01b0319166001600160a01b0390921691821790556040517f4be1b4039acf68e615f56a238b31cf9a61b58ba466df3b449d426be362c2670990600090a2600a80546001600160a01b031916905550565b60048160048111156110cf576110cf6148e8565b0361118e57600c546001600160a01b03166110fd5760405163821e0eeb60e01b815260040160405180910390fd5b600c546001600160a01b0316336001600160a01b03161461113157604051634128496760e01b815260040160405180910390fd5b600c54600580546001600160a01b0319166001600160a01b0390921691821790556040517f8c9bae10e815bbd30975e9f63e0cac6bf479d7834dee22b8ab5b3cce4569be7190600090a2600c80546001600160a01b031916905550565b60008160048111156111a2576111a26148e8565b03611261576008546001600160a01b03166111d05760405163821e0eeb60e01b815260040160405180910390fd5b6008546001600160a01b0316336001600160a01b03161461120457604051634128496760e01b815260040160405180910390fd5b600854600480546001600160a01b0319166001600160a01b0390921691821790556040517fef260b3c47355ea5edcad1fe50621a44e1e972b474e0a9778247b5bb063661bf90600090a2600880546001600160a01b031916905550565b6001816004811115611275576112756148e8565b03611334576009546001600160a01b03166112a35760405163821e0eeb60e01b815260040160405180910390fd5b6009546001600160a01b0316336001600160a01b0316146112d757604051634128496760e01b815260040160405180910390fd5b600954600380546001600160a01b0319166001600160a01b0390921691821790556040517faf4bcd945b877396cadc6e900fdac9b90c12b8a4f0228d943abbc9131fdd043f90600090a2600980546001600160a01b031916905550565b6003816004811115611348576113486148e8565b0361140557600b546001600160a01b03166113765760405163821e0eeb60e01b815260040160405180910390fd5b600b546001600160a01b0316336001600160a01b0316146113aa57604051634128496760e01b815260040160405180910390fd5b600b54600780546001600160a01b0319166001600160a01b0390921691821790556040517f3706317055c3080f585c6aa4c6095608f211a98b012075e1ad071337d486118090600090a2600b80546001600160a01b03191690555b50565b60405162461bcd60e51b8152602060048201526011602482015270119d5b98dd1a5bdb88191a5cd8589b1959607a1b60448201526064015b60405180910390fd5b600080516020614f49833981519152820361147757604051637f8e121f60e01b815260040160405180910390fd5b610ee982826137e6565b600080516020614f498339815191526114998161360f565b60005b8251811015610d2b576114c78382815181106114ba576114ba6148a4565b60200260200101516126c4565b60010161149c565b600080516020614ec98339815191526114e78161360f565b6001600160a01b03821661150e5760405163d92e233d60e01b815260040160405180910390fd5b611526600080516020614f29833981519152836137c1565b6040516001906001600160a01b038416907f15d1c680f4b2a74b5102c95a572221eec3e2d26f31234941d7db01f938ad7de490600090a35050565b600080516020614ec98339815191526115798161360f565b6001600160a01b0382166115a05760405163d92e233d60e01b815260040160405180910390fd5b50600b80546001600160a01b0319166001600160a01b0392909216919091179055565b600080516020614f098339815191526115db8161360f565b600e54604051630d91cbed60e11b815283151560048201526001600160a01b0390911690631b2397da906024015b600060405180830381600087803b15801561162357600080fd5b505af1158015611637573d6000803e3d6000fd5b505050505050565b600080516020614ee98339815191526116578161360f565b6004805460405163417b0dd960e01b81526001600160a01b039091169163417b0dd991610f4f9187918791016148fe565b6000610c26600080516020614ee983398151915283612604565b600080516020614f098339815191526116ba8161360f565b6007546040516342456e7760e01b81526001600160401b038086166004830152841660248201526001600160a01b03909116906342456e7790604401600060405180830381600087803b15801561171057600080fd5b505af1158015611724573d6000803e3d6000fd5b5050600e54604051630d91cbed60e11b8152600160048201526001600160a01b039091169250631b2397da9150602401610f4f565b600080516020614ea98339815191526117718161360f565b600554604051632615d58560e21b81526001600160a01b03858116600483015260ff8516602483015290911690639857561490604401610f4f565b6117c4600080516020614ee983398151915233611449565b60405160009033907fbf803419fc50c5a21ddcbfc938fc9bf43727f407b44dbbc6b56bc6c7042c6b8e908390a3565b600080516020614ea983398151915261180b8161360f565b6005546040516326cc63cf60e11b81526001600160a01b0390911690634d98c79e90610f4f90869086906004016148fe565b6000611858600080516020614f69833981519152600061259b565b9050336001600160a01b0382161461188357604051634128496760e01b815260040160405180910390fd5b600061189e600080516020614f49833981519152600061259b565b90506118b8600080516020614f49833981519152836137c1565b6118d0600080516020614f4983398151915282613860565b6118e8600080516020614f6983398151915233611449565b60405160019033907f41d243a983aaf9e2054e60b69289f0ed282b05ae3ae82db0bcebc8e3f28b8a2e90600090a36040516000906001600160a01b038316907f41d243a983aaf9e2054e60b69289f0ed282b05ae3ae82db0bcebc8e3f28b8a2e908390a35050565b611968600080516020614f0983398151915233611449565b60405160009033907f828ea24d0e91f82bccc87ff9f81c062af014ff350e54c47880f958eaea62d0a1908390a3565b600080516020614ec98339815191526119af8161360f565b6001600160a01b0382166000908152601b602052604090205460ff166119e857604051637de8c17d60e01b815260040160405180910390fd5b610ee96019601a601b85613619565b600080516020614ec9833981519152611a0f8161360f565b6001600160a01b038216611a365760405163d92e233d60e01b815260040160405180910390fd5b611a4e600080516020614ea9833981519152836137c1565b6040516001906001600160a01b038416907f0861f0f338b525820e29873d34688cbb1a2b6a0a3d3086cb7ff72f720ad202c890600090a35050565b600480546040516302de004560e51b81526001600160a01b038481169382019390935260009290911690635bc008a0906024015b602060405180830381865afa158015611ada573d6000803e3d6000fd5b505050506040513d601f19601f82011682018060405250810190610c269190614958565b600080516020614ec9833981519152611b168161360f565b600654604051630bd5fa2160e31b81526001600160a01b0385811660048301526024820185905290911690635eafd10890604401610f4f565b600080516020614ea9833981519152611b678161360f565b6005546040516306d7cbc760e11b81526001600160a01b03848116600483015290911690630daf978e90602401611609565b6001600160a01b0381166000908152601160205260409020805460609190611bc090614975565b80601f0160208091040260200160405190810160405280929190818152602001828054611bec90614975565b8015611c395780601f10611c0e57610100808354040283529160200191611c39565b820191906000526020600020905b815481529060010190602001808311611c1c57829003601f168201915b50505050509050919050565b6000610c26600080516020614ea983398151915283612604565b600080516020614ec9833981519152611c778161360f565b6001600160a01b038216611c9e5760405163d92e233d60e01b815260040160405180910390fd5b8160108585604051611cb19291906149af565b908152604080516020928190038301902080546001600160a01b0319166001600160a01b039485161790559184166000908152601190915220611cf5848683614a07565b506001600160a01b03821660009081526015602052604090205460ff16611e1357611d2560136014601585613722565b600160126000846001600160a01b0316636f9c83b86040518163ffffffff1660e01b8152600401602060405180830381865afa158015611d69573d6000803e3d6000fd5b505050506040513d601f19601f82011682018060405250810190611d8d9190614ac7565b6001600160a01b03166001600160a01b0316815260200190815260200160002060006101000a81548160ff021916908315150217905550816001600160a01b03168484604051611dde9291906149af565b604051908190038120907f1eac45aa053bf10c5dda3373ed6d94963b4297609498c40eed446f340319b87e90600090a3610cd7565b816001600160a01b03168484604051611e2d9291906149af565b604051908190038120907f15ee7f3b39acf25c3ea254232d6c3351dc6eb1d11303dee73eddb6d8ed9ee0d090600090a350505050565b600080516020614ee9833981519152611e7b8161360f565b60048054604051636aa806a760e01b81526001600160a01b0385811693820193909352911690636aa806a790602401611609565b600080516020614ec9833981519152611ec78161360f565b6001600160a01b03821660009081526018602052604090205460ff16611f0057604051637de8c17d60e01b815260040160405180910390fd5b610ee960166017601885613619565b600080516020614ec9833981519152611f278161360f565b6001600160a01b038216611f4e5760405163d92e233d60e01b815260040160405180910390fd5b611f66600080516020614f09833981519152836137c1565b6040516001906001600160a01b038416907f828ea24d0e91f82bccc87ff9f81c062af014ff350e54c47880f958eaea62d0a190600090a35050565b6000610c26600080516020614f2983398151915283612604565b611fd3600080516020614ea983398151915233611449565b60405160009033907f0861f0f338b525820e29873d34688cbb1a2b6a0a3d3086cb7ff72f720ad202c8908390a3565b600080516020614ec983398151915261201a8161360f565b6001600160a01b0382166120415760405163d92e233d60e01b815260040160405180910390fd5b6001600160a01b0382166000908152601b602052604090205460ff161561207b576040516316a163b960e11b815260040160405180910390fd5b61208a6019601a601b85613722565b6040516001600160a01b038316907f271d7b4dec404f020f40446305b9de8a359b98348131e4c15987e7383f42815390600090a25050565b600080516020614ec98339815191526120da8161360f565b6000601084846040516120ee9291906149af565b9081526040805160209281900383019020546001600160a01b03166000818152601590935291205490915060ff1661213957604051637de8c17d60e01b815260040160405180910390fd5b61214860136014601584613619565b6010848460405161215a9291906149af565b908152604080516020928190038301902080546001600160a01b03191690556001600160a01b03831660009081526011909252812061219891614053565b60126000826001600160a01b0316636f9c83b86040518163ffffffff1660e01b8152600401602060405180830381865afa1580156121da573d6000803e3d6000fd5b505050506040513d601f19601f820116820180604052508101906121fe9190614ac7565b6001600160a01b0316815260208101919091526040908101600020805460ff19169055517f6b1a0b0c9aad447ed1b708afc912723ce244eb0da95496520cd69d04034df8ce9061225390869086908590614ae4565b60405180910390a150505050565b612269613885565b600080516020614ec98339815191526122818161360f565b600354604051635af694c560e11b81526001600160a01b0384811660048301529091169063b5ed298a90602401600060405180830381600087803b1580156122c857600080fd5b505af11580156122dc573d6000803e3d6000fd5b505060048054604051635af694c560e11b81526001600160a01b03878116938201939093529116925063b5ed298a9150602401600060405180830381600087803b15801561232957600080fd5b505af115801561233d573d6000803e3d6000fd5b5050600554604051635af694c560e11b81526001600160a01b038681166004830152909116925063b5ed298a9150602401600060405180830381600087803b15801561238857600080fd5b505af115801561239c573d6000803e3d6000fd5b5050600654604051635af694c560e11b81526001600160a01b038681166004830152909116925063b5ed298a9150602401600060405180830381600087803b1580156123e757600080fd5b505af11580156123fb573d6000803e3d6000fd5b5050600754604051635af694c560e11b81526001600160a01b038681166004830152909116925063b5ed298a9150602401600060405180830381600087803b15801561244657600080fd5b505af115801561245a573d6000803e3d6000fd5b50506040513081526001600160a01b03851692507ff0e9a6b66a12fa7aa5cadb32dd73c2a90017b99ce1c58c25488d18f42c59f2ac915060200160405180910390a2506114056001600255565b600080516020614ec98339815191526124bf8161360f565b6001600160a01b0382166124e65760405163d92e233d60e01b815260040160405180910390fd5b50600880546001600160a01b0319166001600160a01b0392909216919091179055565b600080516020614ec98339815191526125218161360f565b6001600160a01b0382166125485760405163d92e233d60e01b815260040160405180910390fd5b612560600080516020614ee9833981519152836137c1565b6040516001906001600160a01b038416907fbf803419fc50c5a21ddcbfc938fc9bf43727f407b44dbbc6b56bc6c7042c6b8e90600090a35050565b60008281526001602052604081206125b390836138dc565b9392505050565b600080516020614ea98339815191526125d28161360f565b6005546040516324356a4b60e21b81526001600160a01b03909116906390d5a92c90610f4f9086908690600401614b25565b6000918252602082815260408084206001600160a01b0393909316845291905290205460ff1690565b600080516020614ee98339815191526126458161360f565b600480546040516312c8e01960e31b81526001600160a01b039091169163964700c891610f4f918791879101614b25565b600080516020614ec983398151915261268e8161360f565b60005b8251811015610d2b576126bc8382815181106126af576126af6148a4565b6020026020010151612509565b600101612691565b600080516020614f498339815191526126dc8161360f565b6001600160a01b0382166127035760405163d92e233d60e01b815260040160405180910390fd5b61271b600080516020614ec9833981519152836137c1565b6040516001906001600160a01b038416907f58b0c912034dc4fc969d456493cbf9da4f109b79865daf74321cf73ab2f7040c90600090a35050565b600080516020614ee983398151915261276e8161360f565b6004805460405163aa0c8a7b60e01b81526001600160a01b038681169382019390935260ff8516602482015291169063aa0c8a7b90604401610f4f565b600080516020614ec98339815191526127c38161360f565b60065460405163598ae59d60e11b81526001600160a01b039091169063b315cb3a90610f4f9086908690600401614b4a565b600080516020614ec983398151915261280d8161360f565b60005b8251811015610d2b5761283b83828151811061282e5761282e6148a4565b60200260200101516119f7565b600101612810565b6000610c26600080516020614ec983398151915283612604565b6000601083836040516128719291906149af565b908152604051908190036020019020546001600160a01b0316905092915050565b6000818152600160205260408120610c26906138e8565b600080516020614ec98339815191526128c18161360f565b60005b8251811015610d2b576128ef8382815181106128e2576128e26148a4565b60200260200101516114cf565b6001016128c4565b600654604051636640979d60e11b81526001600160a01b038381166004830152606092169063cc812f3a90602401600060405180830381865afa158015612942573d6000803e3d6000fd5b505050506040513d6000823e601f3d908101601f19168201604052610c269190810190614b6c565b612972613885565b600080516020614ec983398151915261298a8161360f565b6000829050806001600160a01b03166382654fe96040518163ffffffff1660e01b8152600401602060405180830381865afa1580156129cd573d6000803e3d6000fd5b505050506040513d601f19601f820116820180604052508101906129f19190614ac7565b600360006101000a8154816001600160a01b0302191690836001600160a01b03160217905550806001600160a01b0316636dbda16a6040518163ffffffff1660e01b8152600401602060405180830381865afa158015612a55573d6000803e3d6000fd5b505050506040513d601f19601f82011682018060405250810190612a799190614ac7565b600480546001600160a01b0319166001600160a01b03928316178155604080516319d1c21d60e01b81529051928416926319d1c21d928281019260209291908290030181865afa158015612ad1573d6000803e3d6000fd5b505050506040513d601f19601f82011682018060405250810190612af59190614ac7565b600560006101000a8154816001600160a01b0302191690836001600160a01b03160217905550806001600160a01b0316630f7b66b66040518163ffffffff1660e01b8152600401602060405180830381865afa158015612b59573d6000803e3d6000fd5b505050506040513d601f19601f82011682018060405250810190612b7d9190614ac7565b600660006101000a8154816001600160a01b0302191690836001600160a01b03160217905550806001600160a01b0316634f3e59596040518163ffffffff1660e01b8152600401602060405180830381865afa158015612be1573d6000803e3d6000fd5b505050506040513d601f19601f82011682018060405250810190612c059190614ac7565b600780546001600160a01b0319166001600160a01b0392831617905560035460408051635ecdb6c360e11b81529051919092169163bd9b6d8691600480830192600092919082900301818387803b158015612c5f57600080fd5b505af1158015612c73573d6000803e3d6000fd5b50506004805460408051635ecdb6c360e11b815290516001600160a01b03909216945063bd9b6d869350808301926000929182900301818387803b158015612cba57600080fd5b505af1158015612cce573d6000803e3d6000fd5b50505050600560009054906101000a90046001600160a01b03166001600160a01b031663bd9b6d866040518163ffffffff1660e01b8152600401600060405180830381600087803b158015612d2257600080fd5b505af1158015612d36573d6000803e3d6000fd5b50505050600660009054906101000a90046001600160a01b03166001600160a01b031663bd9b6d866040518163ffffffff1660e01b8152600401600060405180830381600087803b158015612d8a57600080fd5b505af1158015612d9e573d6000803e3d6000fd5b50505050600760009054906101000a90046001600160a01b03166001600160a01b031663bd9b6d866040518163ffffffff1660e01b8152600401600060405180830381600087803b158015612df257600080fd5b505af1158015612e06573d6000803e3d6000fd5b50506040513092507f384369ca21e2a2a4427714f269a076982af5550d768f613d72e133f4ec8f24339150600090a250506114056001600255565b600080516020614ec9833981519152612e598161360f565b6001600160a01b038216612e805760405163d92e233d60e01b815260040160405180910390fd5b50600980546001600160a01b0319166001600160a01b0392909216919091179055565b60065460405163680cabbd60e11b81526001600160a01b03848116600483015260248201849052600092169063d019577a90604401602060405180830381865afa158015612ef5573d6000803e3d6000fd5b505050506040513d601f19601f820116820180604052508101906125b39190614bf1565b600080516020614ec9833981519152612f318161360f565b6006546040516369b9b9dd60e11b81526001600160a01b038581166004830152602482018590529091169063d37373ba90604401610f4f565b6000610c26600080516020614f0983398151915283612604565b60075460408051630d4f938760e41b815290516060926001600160a01b03169163d4f938709160048083019260009291908290030181865afa158015612fce573d6000803e3d6000fd5b505050506040513d6000823e601f3d908101601f19168201604052612ff69190810190614c0e565b905090565b613003613885565b600080516020614f49833981519152820361303157604051637f8e121f60e01b815260040160405180910390fd5b600080516020614f29833981519152820361304e5761304e6138f2565b6130588282613860565b610ee96001600255565b600080516020614ec983398151915261307a8161360f565b6001600160a01b0382166130a15760405163d92e233d60e01b815260040160405180910390fd5b6001600160a01b03821660009081526018602052604090205460ff16156130db576040516316a163b960e11b815260040160405180910390fd5b6130ea60166017601885613722565b6040516001600160a01b038316907f496205a90586f696165a3313d5f361ba3a822160b0badbd1b5ce39f2c9a4978790600090a25050565b60055460405163dc08706d60e01b81526001600160a01b038381166004830152600092169063dc08706d90602401611abd565b600080516020614f0983398151915261316d8161360f565b60075460405163ddbd94a960e01b81526001600160401b038086166004830152841660248201526001600160a01b039091169063ddbd94a990604401600060405180830381600087803b1580156131c357600080fd5b505af11580156131d7573d6000803e3d6000fd5b50505050600760009054906101000a90046001600160a01b03166001600160a01b0316632d59e38b6040518163ffffffff1660e01b8152600401602060405180830381865afa15801561322e573d6000803e3d6000fd5b505050506040513d601f19601f820116820180604052508101906132529190614bf1565b15610d2b57600e54604051630d91cbed60e11b8152600060048201526001600160a01b0390911690631b2397da90602401610f4f565b600080516020614ec98339815191526132a08161360f565b6001600160a01b0382166132c75760405163d92e233d60e01b815260040160405180910390fd5b600e80546001600160a01b0384166001600160a01b03199182168117909255600f8054909116821790556040513091907f9a2cdaf1a28a88ccd359d6abc6a27d4856d16459aafb0aae34c1296bab5b63fb90600090a35050565b6000610c26600080516020614f4983398151915283612604565b600080516020614ec98339815191526133538161360f565b6001600160a01b03821661337a5760405163d92e233d60e01b815260040160405180910390fd5b50600c80546001600160a01b0319166001600160a01b0392909216919091179055565b6133a5613885565b6133ad6138f2565b6133c5600080516020614f2983398151915233611449565b60405160009033907f15d1c680f4b2a74b5102c95a572221eec3e2d26f31234941d7db01f938ad7de4908390a36133fc6001600255565b565b61340733610770565b6134265760405163e8ada65f60e01b8152336004820152602401611440565b600e60009054906101000a90046001600160a01b03166001600160a01b031663064ce8746040518163ffffffff1660e01b8152600401602060405180830381865afa158015613479573d6000803e3d6000fd5b505050506040513d601f19601f8201168201806040525081019061349d9190614bf1565b1561351357600e5460405163f142a46f60e01b81526001600160a01b039091169063f142a46f906134e0908b908b908b908b908b908b908b908b90600401614ccb565b600060405180830381600087803b1580156134fa57600080fd5b505af115801561350e573d6000803e3d6000fd5b505050505b5050505050505050565b600080516020614ec98339815191526135358161360f565b600d613542838583614a07565b50600d6040516135529190614d3d565b604051908190038120907f7e8c34daa9b7437d087d896bd7a956c11cac46d79c5d7c75fb538845f480be8390600090a2505050565b600080516020614ec983398151915261359f8161360f565b816001600160a01b031663cdccb27a6040518163ffffffff1660e01b8152600401600060405180830381600087803b15801561162357600080fd5b60006001600160e01b03198216637965db0b60e01b1480610c2657506301ffc9a760e01b6001600160e01b0319831614610c26565b6114058133613ab2565b8354600090859061362c90600190614dc9565b8154811061363c5761363c6148a4565b6000918252602090912001546001600160a01b039081169150821681146136c3576001600160a01b0382166000908152602085905260409020548554829087908390811061368c5761368c6148a4565b600091825260208083209190910180546001600160a01b0319166001600160a01b0394851617905591841681529086905260409020555b848054806136d3576136d3614ddc565b60008281526020808220830160001990810180546001600160a01b03191690559092019092556001600160a01b03939093168152928252506040808320805460ff191690559290529081205550565b83546001600160a01b0390911660008181526020948552604080822093909355928452908220805460ff191660019081179091558454908101855593825291902090910180546001600160a01b0319169091179055565b600080516020614f498339815191526137918161360f565b610eed600080516020614f698339815191526137bc600080516020614f69833981519152600061259b565b613860565b6000828152602081905260409020600101546137dc8161360f565b610d2b8383613b0b565b6001600160a01b03811633146138565760405162461bcd60e51b815260206004820152602f60248201527f416363657373436f6e74726f6c3a2063616e206f6e6c792072656e6f756e636560448201526e103937b632b9903337b91039b2b63360891b6064820152608401611440565b610ee98282613b2d565b60008281526020819052604090206001015461387b8161360f565b610d2b8383613b2d565b60028054036138d65760405162461bcd60e51b815260206004820152601f60248201527f5265656e7472616e637947756172643a207265656e7472616e742063616c6c006044820152606401611440565b60028055565b60006125b38383613b4f565b6000610c26825490565b60135460005b81811015610ee95761399f631634ff0560e31b6013838154811061391e5761391e6148a4565b6000918252602091829020015460408051630df3907760e31b815290516001600160a01b0390921692636f9c83b8926004808401938290030181865afa15801561396c573d6000803e3d6000fd5b505050506040513d601f19601f820116820180604052508101906139909190614ac7565b6001600160a01b031690613b79565b15613aaa57601381815481106139b7576139b76148a4565b6000918252602091829020015460408051630df3907760e31b815290516001600160a01b0390921692636f9c83b8926004808401938290030181865afa158015613a05573d6000803e3d6000fd5b505050506040513d601f19601f82011682018060405250810190613a299190614ac7565b6001600160a01b031663b1a7f8286040518163ffffffff1660e01b81526004016020604051808303816000875af1158015613a68573d6000803e3d6000fd5b505050506040513d601f19601f82011682018060405250810190613a8c9190614bf1565b15613aaa576040516312e9e50760e21b815260040160405180910390fd5b6001016138f8565b613abc8282612604565b610ee957613ac981613b95565b613ad4836020613ba7565b604051602001613ae5929190614df2565b60408051601f198184030181529082905262461bcd60e51b825261144091600401614578565b613b158282613d42565b6000828152600160205260409020610d2b9082613dc6565b613b378282613ddb565b6000828152600160205260409020610d2b9082613e40565b6000826000018281548110613b6657613b666148a4565b9060005260206000200154905092915050565b6000613b8483613e55565b80156125b357506125b38383613e88565b6060610c266001600160a01b03831660145b60606000613bb6836002614e67565b613bc1906002614e7e565b6001600160401b03811115613bd857613bd86140cb565b6040519080825280601f01601f191660200182016040528015613c02576020820181803683370190505b509050600360fc1b81600081518110613c1d57613c1d6148a4565b60200101906001600160f81b031916908160001a905350600f60fb1b81600181518110613c4c57613c4c6148a4565b60200101906001600160f81b031916908160001a9053506000613c70846002614e67565b613c7b906001614e7e565b90505b6001811115613cf3576f181899199a1a9b1b9c1cb0b131b232b360811b85600f1660108110613caf57613caf6148a4565b1a60f81b828281518110613cc557613cc56148a4565b60200101906001600160f81b031916908160001a90535060049490941c93613cec81614e91565b9050613c7e565b5083156125b35760405162461bcd60e51b815260206004820181905260248201527f537472696e67733a20686578206c656e67746820696e73756666696369656e746044820152606401611440565b613d4c8282612604565b610ee9576000828152602081815260408083206001600160a01b03851684529091529020805460ff19166001179055613d823390565b6001600160a01b0316816001600160a01b0316837f2f8788117e7eff1d82e926ec794901d17c78024a50270940304540a733656f0d60405160405180910390a45050565b60006125b3836001600160a01b038416613f11565b613de58282612604565b15610ee9576000828152602081815260408083206001600160a01b0385168085529252808320805460ff1916905551339285917ff6391f5c32d9c69d2a47ea670b442974b53935d1edc7fd64eb21e047a839171b9190a45050565b60006125b3836001600160a01b038416613f60565b6000613e68826301ffc9a760e01b613e88565b8015610c265750613e81826001600160e01b0319613e88565b1592915050565b604080516001600160e01b03198316602480830191909152825180830390910181526044909101909152602080820180516001600160e01b03166301ffc9a760e01b178152825160009392849283928392918391908a617530fa92503d91506000519050828015613efa575060208210155b8015613f065750600081115b979650505050505050565b6000818152600183016020526040812054613f5857508154600181810184556000848152602080822090930184905584548482528286019093526040902091909155610c26565b506000610c26565b60008181526001830160205260408120548015614049576000613f84600183614dc9565b8554909150600090613f9890600190614dc9565b9050818114613ffd576000866000018281548110613fb857613fb86148a4565b9060005260206000200154905080876000018481548110613fdb57613fdb6148a4565b6000918252602080832090910192909255918252600188019052604090208390555b855486908061400e5761400e614ddc565b600190038181906000526020600020016000905590558560010160008681526020019081526020016000206000905560019350505050610c26565b6000915050610c26565b50805461405f90614975565b6000825580601f1061406f575050565b601f01602090049060005260206000209081019061140591905b8082111561409d5760008155600101614089565b5090565b6000602082840312156140b357600080fd5b81356001600160e01b0319811681146125b357600080fd5b634e487b7160e01b600052604160045260246000fd5b604080519081016001600160401b0381118282101715614103576141036140cb565b60405290565b604051601f8201601f191681016001600160401b0381118282101715614131576141316140cb565b604052919050565b60006001600160401b03821115614152576141526140cb565b5060051b60200190565b6001600160a01b038116811461140557600080fd5b600082601f83011261418257600080fd5b8135602061419761419283614139565b614109565b8083825260208201915060208460051b8701019350868411156141b957600080fd5b602086015b848110156141de5780356141d18161415c565b83529183019183016141be565b509695505050505050565b6000602082840312156141fb57600080fd5b81356001600160401b0381111561421157600080fd5b61421d84828501614171565b949350505050565b60006020828403121561423757600080fd5b81356125b38161415c565b60006020828403121561425457600080fd5b5035919050565b801515811461140557600080fd5b6000806040838503121561427c57600080fd5b82356142878161415c565b915060208301356142978161425b565b809150509250929050565b600080604083850312156142b557600080fd5b82356001600160401b03808211156142cc57600080fd5b6142d886838701614171565b93506020915081850135818111156142ef57600080fd5b85019050601f8101861361430257600080fd5b803561431061419282614139565b81815260059190911b8201830190838101908883111561432f57600080fd5b928401925b8284101561434d57833582529284019290840190614334565b80955050505050509250929050565b60008151808452602080850194506020840160005b838110156143965781516001600160a01b031687529582019590820190600101614371565b509495945050505050565b6020815260006125b3602083018461435c565b6005811061140557600080fd5b6000602082840312156143d357600080fd5b81356125b3816143b4565b600080604083850312156143f157600080fd5b8235915060208301356142978161415c565b60006020828403121561441557600080fd5b81356125b38161425b565b60ff8116811461140557600080fd5b6000806040838503121561444257600080fd5b82356001600160401b038082111561445957600080fd5b61446586838701614171565b935060209150818501358181111561447c57600080fd5b85019050601f8101861361448f57600080fd5b803561449d61419282614139565b81815260059190911b820183019083810190888311156144bc57600080fd5b928401925b8284101561434d5783356144d481614420565b825292840192908401906144c1565b6001600160401b038116811461140557600080fd5b6000806040838503121561450b57600080fd5b8235614516816144e3565b91506020830135614297816144e3565b6000806040838503121561453957600080fd5b82356145448161415c565b9150602083013561429781614420565b60005b8381101561456f578181015183820152602001614557565b50506000910152565b6020815260008251806020840152614597816040850160208701614554565b601f01601f19169190910160400192915050565b600080604083850312156145be57600080fd5b82356145c98161415c565b946020939093013593505050565b60008083601f8401126145e957600080fd5b5081356001600160401b0381111561460057600080fd5b60208301915083602082850101111561461857600080fd5b9250929050565b60008060006040848603121561463457600080fd5b83356001600160401b0381111561464a57600080fd5b614656868287016145d7565b909450925050602084013561466a8161415c565b809150509250925092565b6000806020838503121561468857600080fd5b82356001600160401b0381111561469e57600080fd5b6146aa858286016145d7565b90969095509350505050565b600080604083850312156146c957600080fd5b50508035926020909101359150565b600080604083850312156146eb57600080fd5b82356001600160401b0381111561470157600080fd5b61470d85828601614171565b925050602083013561429781614420565b6000806040838503121561473157600080fd5b82356001600160401b0381111561474757600080fd5b61475385828601614171565b95602094909401359450505050565b60008151808452602080850194506020840160005b8381101561439657815187529582019590820190600101614777565b6020815260006125b36020830184614762565b602080825282518282018190526000919060409081850190868401855b828110156147f557815180516001600160401b03908116865290870151168685015292840192908501906001016147c3565b5091979650505050505050565b600080600080600080600080610100898b03121561481f57600080fd5b883561482a8161415c565b9750602089013561483a8161415c565b9650604089013561484a8161415c565b955060608901359450608089013561ffff8116811461486857600080fd5b935060a0890135925060c089013561487f816143b4565b915060e08901356002811061489357600080fd5b809150509295985092959890939650565b634e487b7160e01b600052603260045260246000fd5b6040815260006148cd604083018561435c565b82810360208401526148df8185614762565b95945050505050565b634e487b7160e01b600052602160045260246000fd5b604081526000614911604083018561435c565b82810360208481019190915284518083528582019282019060005b8181101561494b57845160ff168352938301939183019160010161492c565b5090979650505050505050565b60006020828403121561496a57600080fd5b81516125b381614420565b600181811c9082168061498957607f821691505b6020821081036149a957634e487b7160e01b600052602260045260246000fd5b50919050565b8183823760009101908152919050565b601f821115610d2b576000816000526020600020601f850160051c810160208610156149e85750805b601f850160051c820191505b81811015611637578281556001016149f4565b6001600160401b03831115614a1e57614a1e6140cb565b614a3283614a2c8354614975565b836149bf565b6000601f841160018114614a665760008515614a4e5750838201355b600019600387901b1c1916600186901b178355614ac0565b600083815260209020601f19861690835b82811015614a975786850135825560209485019460019092019101614a77565b5086821015614ab45760001960f88860031b161c19848701351681555b505060018560011b0183555b5050505050565b600060208284031215614ad957600080fd5b81516125b38161415c565b6040815282604082015282846060830137600060608483018101919091526001600160a01b03929092166020820152601f909201601f191690910101919050565b604081526000614b38604083018561435c565b905060ff831660208301529392505050565b604081526000614b5d604083018561435c565b90508260208301529392505050565b60006020808385031215614b7f57600080fd5b82516001600160401b03811115614b9557600080fd5b8301601f81018513614ba657600080fd5b8051614bb461419282614139565b81815260059190911b82018301908381019087831115614bd357600080fd5b928401925b82841015613f0657835182529284019290840190614bd8565b600060208284031215614c0357600080fd5b81516125b38161425b565b60006020808385031215614c2157600080fd5b82516001600160401b03811115614c3757600080fd5b8301601f81018513614c4857600080fd5b8051614c5661419282614139565b81815260069190911b82018301908381019087831115614c7557600080fd5b928401925b82841015613f065760408489031215614c935760008081fd5b614c9b6140e1565b8451614ca6816144e3565b815284860151614cb5816144e3565b8187015282526040939093019290840190614c7a565b6001600160a01b0389811682528881166020830152871660408201526060810186905261ffff8516608082015260a08101849052610100810160058410614d1457614d146148e8565b8360c083015260028310614d2a57614d2a6148e8565b8260e08301529998505050505050505050565b6000808354614d4b81614975565b60018281168015614d635760018114614d7857614da7565b60ff1984168752821515830287019450614da7565b8760005260208060002060005b85811015614d9e5781548a820152908401908201614d85565b50505082870194505b50929695505050505050565b634e487b7160e01b600052601160045260246000fd5b81810381811115610c2657610c26614db3565b634e487b7160e01b600052603160045260246000fd5b7f416363657373436f6e74726f6c3a206163636f756e7420000000000000000000815260008351614e2a816017850160208801614554565b7001034b99036b4b9b9b4b733903937b6329607d1b6017918401918201528351614e5b816028840160208801614554565b01602801949350505050565b8082028115828204841417610c2657610c26614db3565b80820180821115610c2657610c26614db3565b600081614ea057614ea0614db3565b50600019019056fe870ee5500b98ca09b5fcd7de4a95293916740021c92172d268dad85baec3c85f371a0078bf8859908953848339bea5f1d5775487f6c2f50fd279fcc2cafd8c602104bd22bc71f1a868806c22aa1905dad25555696bbf4456c5b464b8d55f73355ff038c4899bb7fbbc7cf40ef4accece5ebd324c2da5ab7db2c3b81e845e2a7a5cb9147a971eae9c63c04beb424326d7db091a71473987979b49bb1e189f34577613a25ecc738585a232ad50a301178f12b3ba8887d13e138b523c4269c4768916c600d7bfbb199b1bbbaaec72d225e1b669f7d0c812d7cafcf00672fb42b30da264697066735822122025701d3314643e3561718226750fbf0b48ef840ecd9ea599d034642a6892e6dd64736f6c6343000818003360a060405234801561001057600080fd5b5060405161099c38038061099c83398101604081905261002f916100a4565b8061003933610054565b6001600160a01b031660805261004e81610054565b506100d4565b600080546001600160a01b038381166001600160a01b0319831681178455604051919092169283917f8be0079c531659141344cd1fd0a4f28419497f9722a3daafe3b4186f6b6457e09190a35050565b6000602082840312156100b657600080fd5b81516001600160a01b03811681146100cd57600080fd5b9392505050565b60805161088a610112600039600081816101b9015281816102030152818161024a0152818161032e015281816103af01526103f6015261088a6000f3fe608060405234801561001057600080fd5b50600436106100b45760003560e01c8063b5ed298a11610071578063b5ed298a14610186578063bd9b6d8614610199578063c4740a95146101a1578063d3d24c9b146101b4578063e89b0e1e146101db578063f2fde38b146101ee57600080fd5b806311b09110146100b95780631bf974f3146100fa57806354fd4d501461010f5780635e5c06e214610136578063715018a6146101595780638da5cb5b14610161575b600080fd5b6100e56100c736600461076a565b6001600160a01b031660009081526003602052604090205460ff1690565b60405190151581526020015b60405180910390f35b61010d61010836600461079a565b610201565b005b60408051808201825260058152640312e312e360dc1b602082015290516100f191906107bb565b6100e561014436600461076a565b60036020526000908152604090205460ff1681565b61010d610399565b6000546001600160a01b03165b6040516001600160a01b0390911681526020016100f1565b61010d61019436600461076a565b6103ad565b61010d61050d565b61010d6101af36600461076a565b610576565b61016e7f000000000000000000000000000000000000000000000000000000000000000081565b61010d6101e936600461076a565b6105c7565b61010d6101fc36600461076a565b610642565b7f00000000000000000000000000000000000000000000000000000000000000006001600160a01b0316610248576040516371724ffd60e01b815260040160405180910390fd5b7f00000000000000000000000000000000000000000000000000000000000000006001600160a01b03811663c3c2ebbb336040516001600160e01b031960e084901b1681526001600160a01b039091166004820152602401602060405180830381865afa1580156102bd573d6000803e3d6000fd5b505050506040513d601f19601f820116820180604052508101906102e1919061080a565b1580156102f957506000546001600160a01b03163314155b156103175760405163054f3a3160e31b815260040160405180910390fd5b604051632b124b7960e01b81526001600160a01b037f00000000000000000000000000000000000000000000000000000000000000001690632b124b799061036390859060040161082c565b600060405180830381600087803b15801561037d57600080fd5b505af1158015610391573d6000803e3d6000fd5b505050505050565b6103a16106c0565b6103ab600061071a565b565b7f00000000000000000000000000000000000000000000000000000000000000006001600160a01b03166103f4576040516371724ffd60e01b815260040160405180910390fd5b7f00000000000000000000000000000000000000000000000000000000000000006001600160a01b03811663c3c2ebbb336040516001600160e01b031960e084901b1681526001600160a01b039091166004820152602401602060405180830381865afa158015610469573d6000803e3d6000fd5b505050506040513d601f19601f8201168201806040525081019061048d919061080a565b1580156104a557506000546001600160a01b03163314155b156104c35760405163054f3a3160e31b815260040160405180910390fd5b6001600160a01b0382166104ea5760405163d92e233d60e01b815260040160405180910390fd5b50600180546001600160a01b0319166001600160a01b0392909216919091179055565b6001546001600160a01b03166105365760405163821e0eeb60e01b815260040160405180910390fd5b6001546001600160a01b0316331461056157604051634128496760e01b815260040160405180910390fd5b6001546103ab906001600160a01b031661071a565b61057e6106c0565b6001600160a01b038116600081815260036020526040808220805460ff19169055517fe1e79c30f72a026a8b527caea6eee0683d44301c24cde238b9f7ad9e4b7aa31f9190a250565b6105cf6106c0565b6001600160a01b0381166105f65760405163d92e233d60e01b815260040160405180910390fd5b6001600160a01b038116600081815260036020526040808220805460ff19166001179055517f5e75b6966f794371ba173593326b3afdd7c9ee18c1421f495f3120dd8532d5b09190a250565b61064a6106c0565b6001600160a01b0381166106b45760405162461bcd60e51b815260206004820152602660248201527f4f776e61626c653a206e6577206f776e657220697320746865207a65726f206160448201526564647265737360d01b60648201526084015b60405180910390fd5b6106bd8161071a565b50565b6000546001600160a01b031633146103ab5760405162461bcd60e51b815260206004820181905260248201527f4f776e61626c653a2063616c6c6572206973206e6f7420746865206f776e657260448201526064016106ab565b600080546001600160a01b038381166001600160a01b0319831681178455604051919092169283917f8be0079c531659141344cd1fd0a4f28419497f9722a3daafe3b4186f6b6457e09190a35050565b60006020828403121561077c57600080fd5b81356001600160a01b038116811461079357600080fd5b9392505050565b6000602082840312156107ac57600080fd5b81356005811061079357600080fd5b60006020808352835180602085015260005b818110156107e9578581018301518582016040015282016107cd565b506000604082860101526040601f19601f8301168501019250505092915050565b60006020828403121561081c57600080fd5b8151801515811461079357600080fd5b602081016005831061084e57634e487b7160e01b600052602160045260246000fd5b9190529056fea26469706673582212208d8a7b73255eb5cc2f434666a29aac1ff64130b609d4365b4c4df8488360484b64736f6c6343000818003360a060405234801561001057600080fd5b50604051610deb380380610deb83398101604081905261002f916100a4565b8061003933610054565b6001600160a01b031660805261004e81610054565b506100d4565b600080546001600160a01b038381166001600160a01b0319831681178455604051919092169283917f8be0079c531659141344cd1fd0a4f28419497f9722a3daafe3b4186f6b6457e09190a35050565b6000602082840312156100b657600080fd5b81516001600160a01b03811681146100cd57600080fd5b9392505050565b608051610cd96101126000396000818161022a01528181610261015281816102a80152818161038c0152818161067f01526106c60152610cd96000f3fe608060405234801561001057600080fd5b50600436106100ea5760003560e01c80638da5cb5b1161008c578063b5ed298a11610066578063b5ed298a1461020a578063bd9b6d861461021d578063d3d24c9b14610225578063f2fde38b1461024c57600080fd5b80638da5cb5b146101bf578063964700c8146101e4578063aa0c8a7b146101f757600080fd5b806354fd4d50116100c857806354fd4d50146101515780635bc008a0146101785780636aa806a7146101a4578063715018a6146101b757600080fd5b80631bf974f3146100ef578063417b0dd91461010457806347082db314610117575b600080fd5b6101026100fd366004610969565b61025f565b005b610102610112366004610a9f565b6103f7565b61013a610125366004610b61565b60036020526000908152604090205460ff1681565b60405160ff90911681526020015b60405180910390f35b60408051808201825260058152640312e312e360dc1b602082015290516101489190610b7c565b61013a610186366004610b61565b6001600160a01b031660009081526003602052604090205460ff1690565b6101026101b2366004610b61565b610475565b6101026104c6565b6000546001600160a01b03165b6040516001600160a01b039091168152602001610148565b6101026101f2366004610bcb565b6104da565b610102610205366004610c19565b6105cf565b610102610218366004610b61565b61067d565b6101026107dd565b6101cc7f000000000000000000000000000000000000000000000000000000000000000081565b61010261025a366004610b61565b610846565b7f00000000000000000000000000000000000000000000000000000000000000006001600160a01b03166102a6576040516371724ffd60e01b815260040160405180910390fd5b7f00000000000000000000000000000000000000000000000000000000000000006001600160a01b03811663c3c2ebbb336040516001600160e01b031960e084901b1681526001600160a01b039091166004820152602401602060405180830381865afa15801561031b573d6000803e3d6000fd5b505050506040513d601f19601f8201168201806040525081019061033f9190610c43565b15801561035757506000546001600160a01b03163314155b156103755760405163054f3a3160e31b815260040160405180910390fd5b604051632b124b7960e01b81526001600160a01b037f00000000000000000000000000000000000000000000000000000000000000001690632b124b79906103c1908590600401610c65565b600060405180830381600087803b1580156103db57600080fd5b505af11580156103ef573d6000803e3d6000fd5b505050505050565b6103ff6108bf565b81518151146104205760405162514d8b60e31b815260040160405180910390fd5b60005b82518110156104705761046883828151811061044157610441610c8d565b602002602001015183838151811061045b5761045b610c8d565b60200260200101516105cf565b600101610423565b505050565b61047d6108bf565b6001600160a01b038116600081815260036020526040808220805460ff19169055517f276cf99114a46d5939685dde45049a35ff9b38ba6159453582924455c249a58b9190a250565b6104ce6108bf565b6104d86000610919565b565b6104e26108bf565b60048160ff1611156105115760405163fd12da9160e01b815260ff821660048201526024015b60405180910390fd5b60005b825181101561047057816003600085848151811061053457610534610c8d565b60200260200101516001600160a01b03166001600160a01b0316815260200190815260200160002060006101000a81548160ff021916908360ff1602179055508160ff1683828151811061058a5761058a610c8d565b60200260200101516001600160a01b03167f6925839d9987ab8377392e05897fdc086a53f88d84befbec65e10629628e547960405160405180910390a3600101610514565b6105d76108bf565b60048160ff1611156106015760405163fd12da9160e01b815260ff82166004820152602401610508565b6001600160a01b0382166106285760405163d92e233d60e01b815260040160405180910390fd5b6001600160a01b038216600081815260036020526040808220805460ff191660ff861690811790915590519092917f6925839d9987ab8377392e05897fdc086a53f88d84befbec65e10629628e547991a35050565b7f00000000000000000000000000000000000000000000000000000000000000006001600160a01b03166106c4576040516371724ffd60e01b815260040160405180910390fd5b7f00000000000000000000000000000000000000000000000000000000000000006001600160a01b03811663c3c2ebbb336040516001600160e01b031960e084901b1681526001600160a01b039091166004820152602401602060405180830381865afa158015610739573d6000803e3d6000fd5b505050506040513d601f19601f8201168201806040525081019061075d9190610c43565b15801561077557506000546001600160a01b03163314155b156107935760405163054f3a3160e31b815260040160405180910390fd5b6001600160a01b0382166107ba5760405163d92e233d60e01b815260040160405180910390fd5b50600180546001600160a01b0319166001600160a01b0392909216919091179055565b6001546001600160a01b03166108065760405163821e0eeb60e01b815260040160405180910390fd5b6001546001600160a01b0316331461083157604051634128496760e01b815260040160405180910390fd5b6001546104d8906001600160a01b0316610919565b61084e6108bf565b6001600160a01b0381166108b35760405162461bcd60e51b815260206004820152602660248201527f4f776e61626c653a206e6577206f776e657220697320746865207a65726f206160448201526564647265737360d01b6064820152608401610508565b6108bc81610919565b50565b6000546001600160a01b031633146104d85760405162461bcd60e51b815260206004820181905260248201527f4f776e61626c653a2063616c6c6572206973206e6f7420746865206f776e65726044820152606401610508565b600080546001600160a01b038381166001600160a01b0319831681178455604051919092169283917f8be0079c531659141344cd1fd0a4f28419497f9722a3daafe3b4186f6b6457e09190a35050565b60006020828403121561097b57600080fd5b81356005811061098a57600080fd5b9392505050565b634e487b7160e01b600052604160045260246000fd5b604051601f8201601f1916810167ffffffffffffffff811182821017156109d0576109d0610991565b604052919050565b600067ffffffffffffffff8211156109f2576109f2610991565b5060051b60200190565b80356001600160a01b0381168114610a1357600080fd5b919050565b600082601f830112610a2957600080fd5b81356020610a3e610a39836109d8565b6109a7565b8083825260208201915060208460051b870101935086841115610a6057600080fd5b602086015b84811015610a8357610a76816109fc565b8352918301918301610a65565b509695505050505050565b803560ff81168114610a1357600080fd5b60008060408385031215610ab257600080fd5b823567ffffffffffffffff80821115610aca57600080fd5b610ad686838701610a18565b9350602091508185013581811115610aed57600080fd5b85019050601f81018613610b0057600080fd5b8035610b0e610a39826109d8565b81815260059190911b82018301908381019088831115610b2d57600080fd5b928401925b82841015610b5257610b4384610a8e565b82529284019290840190610b32565b80955050505050509250929050565b600060208284031215610b7357600080fd5b61098a826109fc565b60006020808352835180602085015260005b81811015610baa57858101830151858201604001528201610b8e565b506000604082860101526040601f19601f8301168501019250505092915050565b60008060408385031215610bde57600080fd5b823567ffffffffffffffff811115610bf557600080fd5b610c0185828601610a18565b925050610c1060208401610a8e565b90509250929050565b60008060408385031215610c2c57600080fd5b610c35836109fc565b9150610c1060208401610a8e565b600060208284031215610c5557600080fd5b8151801515811461098a57600080fd5b6020810160058310610c8757634e487b7160e01b600052602160045260246000fd5b91905290565b634e487b7160e01b600052603260045260246000fdfea2646970667358221220a3c4649319866c4070619bc3388f2faefcabff16a3b71e0a3901143fbf77585864736f6c6343000818003360a060405234801561001057600080fd5b50604051610e0a380380610e0a83398101604081905261002f916100a4565b8061003933610054565b6001600160a01b031660805261004e81610054565b506100d4565b600080546001600160a01b038381166001600160a01b0319831681178455604051919092169283917f8be0079c531659141344cd1fd0a4f28419497f9722a3daafe3b4186f6b6457e09190a35050565b6000602082840312156100b657600080fd5b81516001600160a01b03811681146100cd57600080fd5b9392505050565b608051610cf861011260003960008181610202015281816102b6015281816102fd015281816103e10152818161069e01526106e50152610cf86000f3fe608060405234801561001057600080fd5b50600436106100ea5760003560e01c806390d5a92c1161008c578063bd9b6d8611610066578063bd9b6d86146101f5578063d3d24c9b146101fd578063dc08706d14610224578063f2fde38b1461025057600080fd5b806390d5a92c146101bc57806398575614146101cf578063b5ed298a146101e257600080fd5b806354fd4d50116100c857806354fd4d501461012a578063715018a61461015a57806376dd110f146101625780638da5cb5b1461019757600080fd5b80630daf978e146100ef5780631bf974f3146101045780634d98c79e14610117575b600080fd5b6101026100fd3660046109a4565b610263565b005b6101026101123660046109c6565b6102b4565b610102610125366004610ad9565b61044c565b60408051808201825260058152640312e312e360dc1b602082015290516101519190610b9b565b60405180910390f35b6101026104ca565b6101856101703660046109a4565b60036020526000908152604090205460ff1681565b60405160ff9091168152602001610151565b6000546001600160a01b03165b6040516001600160a01b039091168152602001610151565b6101026101ca366004610bea565b6104de565b6101026101dd366004610c38565b6105e3565b6101026101f03660046109a4565b61069c565b6101026107fc565b6101a47f000000000000000000000000000000000000000000000000000000000000000081565b6101856102323660046109a4565b6001600160a01b031660009081526003602052604090205460ff1690565b61010261025e3660046109a4565b610865565b61026b6108de565b6001600160a01b038116600081815260036020526040808220805460ff19169055517f21bb12bd10a218d68f0503025a9b700b4f3b7f84911a732adfe38e1c83b600439190a250565b7f00000000000000000000000000000000000000000000000000000000000000006001600160a01b03166102fb576040516371724ffd60e01b815260040160405180910390fd5b7f00000000000000000000000000000000000000000000000000000000000000006001600160a01b03811663c3c2ebbb336040516001600160e01b031960e084901b1681526001600160a01b039091166004820152602401602060405180830381865afa158015610370573d6000803e3d6000fd5b505050506040513d601f19601f820116820180604052508101906103949190610c62565b1580156103ac57506000546001600160a01b03163314155b156103ca5760405163054f3a3160e31b815260040160405180910390fd5b604051632b124b7960e01b81526001600160a01b037f00000000000000000000000000000000000000000000000000000000000000001690632b124b7990610416908590600401610c84565b600060405180830381600087803b15801561043057600080fd5b505af1158015610444573d6000803e3d6000fd5b505050505050565b6104546108de565b81518151146104755760405162514d8b60e31b815260040160405180910390fd5b60005b82518110156104c5576104bd83828151811061049657610496610cac565b60200260200101518383815181106104b0576104b0610cac565b60200260200101516105e3565b600101610478565b505050565b6104d26108de565b6104dc6000610938565b565b6104e66108de565b606460ff821611156105155760405163b3cbc6f360e01b815260ff821660048201526024015b60405180910390fd5b60005b82518110156104c557816003600085848151811061053857610538610cac565b60200260200101516001600160a01b03166001600160a01b0316815260200190815260200160002060006101000a81548160ff021916908360ff16021790555082818151811061058a5761058a610cac565b60200260200101516001600160a01b03167fd668a759494e00d1fde4393bb06c8012cfbbcc06aaf0522589c76c13eb23208f836040516105d3919060ff91909116815260200190565b60405180910390a2600101610518565b6105eb6108de565b606460ff821611156106155760405163b3cbc6f360e01b815260ff8216600482015260240161050c565b6001600160a01b03821661063c5760405163d92e233d60e01b815260040160405180910390fd5b6001600160a01b038216600081815260036020908152604091829020805460ff191660ff861690811790915591519182527fd668a759494e00d1fde4393bb06c8012cfbbcc06aaf0522589c76c13eb23208f910160405180910390a25050565b7f00000000000000000000000000000000000000000000000000000000000000006001600160a01b03166106e3576040516371724ffd60e01b815260040160405180910390fd5b7f00000000000000000000000000000000000000000000000000000000000000006001600160a01b03811663c3c2ebbb336040516001600160e01b031960e084901b1681526001600160a01b039091166004820152602401602060405180830381865afa158015610758573d6000803e3d6000fd5b505050506040513d601f19601f8201168201806040525081019061077c9190610c62565b15801561079457506000546001600160a01b03163314155b156107b25760405163054f3a3160e31b815260040160405180910390fd5b6001600160a01b0382166107d95760405163d92e233d60e01b815260040160405180910390fd5b50600180546001600160a01b0319166001600160a01b0392909216919091179055565b6001546001600160a01b03166108255760405163821e0eeb60e01b815260040160405180910390fd5b6001546001600160a01b0316331461085057604051634128496760e01b815260040160405180910390fd5b6001546104dc906001600160a01b0316610938565b61086d6108de565b6001600160a01b0381166108d25760405162461bcd60e51b815260206004820152602660248201527f4f776e61626c653a206e6577206f776e657220697320746865207a65726f206160448201526564647265737360d01b606482015260840161050c565b6108db81610938565b50565b6000546001600160a01b031633146104dc5760405162461bcd60e51b815260206004820181905260248201527f4f776e61626c653a2063616c6c6572206973206e6f7420746865206f776e6572604482015260640161050c565b600080546001600160a01b038381166001600160a01b0319831681178455604051919092169283917f8be0079c531659141344cd1fd0a4f28419497f9722a3daafe3b4186f6b6457e09190a35050565b80356001600160a01b038116811461099f57600080fd5b919050565b6000602082840312156109b657600080fd5b6109bf82610988565b9392505050565b6000602082840312156109d857600080fd5b8135600581106109bf57600080fd5b634e487b7160e01b600052604160045260246000fd5b604051601f8201601f1916810167ffffffffffffffff81118282101715610a2657610a266109e7565b604052919050565b600067ffffffffffffffff821115610a4857610a486109e7565b5060051b60200190565b600082601f830112610a6357600080fd5b81356020610a78610a7383610a2e565b6109fd565b8083825260208201915060208460051b870101935086841115610a9a57600080fd5b602086015b84811015610abd57610ab081610988565b8352918301918301610a9f565b509695505050505050565b803560ff8116811461099f57600080fd5b60008060408385031215610aec57600080fd5b823567ffffffffffffffff80821115610b0457600080fd5b610b1086838701610a52565b9350602091508185013581811115610b2757600080fd5b85019050601f81018613610b3a57600080fd5b8035610b48610a7382610a2e565b81815260059190911b82018301908381019088831115610b6757600080fd5b928401925b82841015610b8c57610b7d84610ac8565b82529284019290840190610b6c565b80955050505050509250929050565b60006020808352835180602085015260005b81811015610bc957858101830151858201604001528201610bad565b506000604082860101526040601f19601f8301168501019250505092915050565b60008060408385031215610bfd57600080fd5b823567ffffffffffffffff811115610c1457600080fd5b610c2085828601610a52565b925050610c2f60208401610ac8565b90509250929050565b60008060408385031215610c4b57600080fd5b610c5483610988565b9150610c2f60208401610ac8565b600060208284031215610c7457600080fd5b815180151581146109bf57600080fd5b6020810160058310610ca657634e487b7160e01b600052602160045260246000fd5b91905290565b634e487b7160e01b600052603260045260246000fdfea264697066735822122040fcd7946f1d44bd8868e16c1f1cca36af424063e759782436d971ffb647f4d164736f6c6343000818003360a060405234801561001057600080fd5b506040516112e93803806112e983398101604081905261002f916100a4565b8061003933610054565b6001600160a01b031660805261004e81610054565b506100d4565b600080546001600160a01b038381166001600160a01b0319831681178455604051919092169283917f8be0079c531659141344cd1fd0a4f28419497f9722a3daafe3b4186f6b6457e09190a35050565b6000602082840312156100b657600080fd5b81516001600160a01b03811681146100cd57600080fd5b9392505050565b6080516111d76101126000396000818161023c01528181610273015281816102ba0152818161039e015281816108eb015261093201526111d76000f3fe608060405234801561001057600080fd5b50600436106100f55760003560e01c8063b315cb3a11610097578063d019577a11610066578063d019577a14610201578063d37373ba14610224578063d3d24c9b14610237578063f2fde38b1461025e57600080fd5b8063b315cb3a146101b3578063b5ed298a146101c6578063bd9b6d86146101d9578063cc812f3a146101e157600080fd5b80635eafd108116100d35780635eafd10814610152578063715018a6146101655780638da5cb5b1461016d578063a81790581461019257600080fd5b80631bf974f3146100fa57806326a119291461010f57806354fd4d5014610122575b600080fd5b61010d610108366004610e0d565b610271565b005b61010d61011d366004610f32565b610409565b60408051808201825260058152640312e312e360dc1b602082015290516101499190610fed565b60405180910390f35b61010d61016036600461103c565b610487565b61010d6105e3565b6000546001600160a01b03165b6040516001600160a01b039091168152602001610149565b6101a56101a036600461103c565b6105f7565b604051908152602001610149565b61010d6101c1366004611066565b610628565b61010d6101d43660046110ab565b6108e9565b61010d610a49565b6101f46101ef3660046110ab565b610ab2565b60405161014991906110c6565b61021461020f36600461103c565b610b1e565b6040519015158152602001610149565b61010d61023236600461103c565b610b4c565b61017a7f000000000000000000000000000000000000000000000000000000000000000081565b61010d61026c3660046110ab565b610ce5565b7f00000000000000000000000000000000000000000000000000000000000000006001600160a01b03166102b8576040516371724ffd60e01b815260040160405180910390fd5b7f00000000000000000000000000000000000000000000000000000000000000006001600160a01b03811663c3c2ebbb336040516001600160e01b031960e084901b1681526001600160a01b039091166004820152602401602060405180830381865afa15801561032d573d6000803e3d6000fd5b505050506040513d601f19601f82011682018060405250810190610351919061110a565b15801561036957506000546001600160a01b03163314155b156103875760405163054f3a3160e31b815260040160405180910390fd5b604051632b124b7960e01b81526001600160a01b037f00000000000000000000000000000000000000000000000000000000000000001690632b124b79906103d390859060040161112c565b600060405180830381600087803b1580156103ed57600080fd5b505af1158015610401573d6000803e3d6000fd5b505050505050565b610411610d63565b80518251146104325760405162514d8b60e31b815260040160405180910390fd5b60005b82518110156104825761047a83828151811061045357610453611154565b602002602001015183838151811061046d5761046d611154565b6020026020010151610487565b600101610435565b505050565b61048f610d63565b806000036104b05760405163d7be2be360e01b815260040160405180910390fd5b6001600160a01b0382166104d75760405163d92e233d60e01b815260040160405180910390fd5b6104e18282610b1e565b1561051e576040516001600160a01b038316907f33a66df9ee2fd21e38fe3deee3babfebcde277451a9acc49ed0ae93c16e3e17290600090a25050565b6001600160a01b038216600090815260036020526040902054600a11610557576040516351d7d97160e11b815260040160405180910390fd5b6001600160a01b03821660008181526003602090815260408083208054600484528285208786528452828520819055600180820183559185528385200186905584845260058352818420868552909252808320805460ff191683179055519092849290917ffff458da2d09c8be67a97dc8c3f8f316c0f1afb907fc6de8d8c191f6bb8ebb0f9190a45050565b6105eb610d63565b6105f56000610dbd565b565b6003602052816000526040600020818154811061061357600080fd5b90600052602060002001600091509150505481565b610630610d63565b806000036106515760405163d7be2be360e01b815260040160405180910390fd5b60005b82518110156104825761068083828151811061067257610672611154565b602002602001015183610b1e565b156106d95782818151811061069757610697611154565b60200260200101516001600160a01b03167f33a66df9ee2fd21e38fe3deee3babfebcde277451a9acc49ed0ae93c16e3e17260405160405180910390a26108e1565b600a60ff16600360008584815181106106f4576106f4611154565b60200260200101516001600160a01b03166001600160a01b03168152602001908152602001600020805490501061073e576040516351d7d97160e11b815260040160405180910390fd5b6003600084838151811061075457610754611154565b60200260200101516001600160a01b03166001600160a01b03168152602001908152602001600020805490506004600085848151811061079657610796611154565b60200260200101516001600160a01b03166001600160a01b03168152602001908152602001600020600084815260200190815260200160002081905550600360008483815181106107e9576107e9611154565b6020908102919091018101516001600160a01b0316825281810192909252604001600090812080546001818101835591835292822090920184905584516005919086908590811061083c5761083c611154565b60200260200101516001600160a01b03166001600160a01b03168152602001908152602001600020600084815260200190815260200160002060006101000a81548160ff02191690831515021790555060011515828483815181106108a3576108a3611154565b60200260200101516001600160a01b03167ffff458da2d09c8be67a97dc8c3f8f316c0f1afb907fc6de8d8c191f6bb8ebb0f60405160405180910390a45b600101610654565b7f00000000000000000000000000000000000000000000000000000000000000006001600160a01b0316610930576040516371724ffd60e01b815260040160405180910390fd5b7f00000000000000000000000000000000000000000000000000000000000000006001600160a01b03811663c3c2ebbb336040516001600160e01b031960e084901b1681526001600160a01b039091166004820152602401602060405180830381865afa1580156109a5573d6000803e3d6000fd5b505050506040513d601f19601f820116820180604052508101906109c9919061110a565b1580156109e157506000546001600160a01b03163314155b156109ff5760405163054f3a3160e31b815260040160405180910390fd5b6001600160a01b038216610a265760405163d92e233d60e01b815260040160405180910390fd5b50600180546001600160a01b0319166001600160a01b0392909216919091179055565b6001546001600160a01b0316610a725760405163821e0eeb60e01b815260040160405180910390fd5b6001546001600160a01b03163314610a9d57604051634128496760e01b815260040160405180910390fd5b6001546105f5906001600160a01b0316610dbd565b6001600160a01b038116600090815260036020908152604091829020805483518184028101840190945280845260609392830182828015610b1257602002820191906000526020600020905b815481526020019060010190808311610afe575b50505050509050919050565b6001600160a01b038216600090815260056020908152604080832084845290915290205460ff165b92915050565b610b54610d63565b610b5e8282610b1e565b15610ccc576001600160a01b03821660009081526003602052604081208054610b899060019061116a565b81548110610b9957610b99611154565b90600052602060002001549050818114610c1f576001600160a01b038316600081815260046020908152604080832086845282528083205493835260039091529020805483919083908110610bf057610bf0611154565b60009182526020808320909101929092556001600160a01b038616815260048252604080822085835290925220555b6001600160a01b0383166000908152600360205260409020805480610c4657610c4661118b565b6000828152602080822083016000199081018390559092019092556001600160a01b0385168083526005825260408084208685528352808420805460ff191690558184526004835280842086855290925281832083905590518491907ffff458da2d09c8be67a97dc8c3f8f316c0f1afb907fc6de8d8c191f6bb8ebb0f908490a4505050565b604051637de8c17d60e01b815260040160405180910390fd5b610ced610d63565b6001600160a01b038116610d575760405162461bcd60e51b815260206004820152602660248201527f4f776e61626c653a206e6577206f776e657220697320746865207a65726f206160448201526564647265737360d01b60648201526084015b60405180910390fd5b610d6081610dbd565b50565b6000546001600160a01b031633146105f55760405162461bcd60e51b815260206004820181905260248201527f4f776e61626c653a2063616c6c6572206973206e6f7420746865206f776e65726044820152606401610d4e565b600080546001600160a01b038381166001600160a01b0319831681178455604051919092169283917f8be0079c531659141344cd1fd0a4f28419497f9722a3daafe3b4186f6b6457e09190a35050565b600060208284031215610e1f57600080fd5b813560058110610e2e57600080fd5b9392505050565b634e487b7160e01b600052604160045260246000fd5b604051601f8201601f1916810167ffffffffffffffff81118282101715610e7457610e74610e35565b604052919050565b600067ffffffffffffffff821115610e9657610e96610e35565b5060051b60200190565b80356001600160a01b0381168114610eb757600080fd5b919050565b600082601f830112610ecd57600080fd5b81356020610ee2610edd83610e7c565b610e4b565b8083825260208201915060208460051b870101935086841115610f0457600080fd5b602086015b84811015610f2757610f1a81610ea0565b8352918301918301610f09565b509695505050505050565b60008060408385031215610f4557600080fd5b823567ffffffffffffffff80821115610f5d57600080fd5b610f6986838701610ebc565b9350602091508185013581811115610f8057600080fd5b85019050601f81018613610f9357600080fd5b8035610fa1610edd82610e7c565b81815260059190911b82018301908381019088831115610fc057600080fd5b928401925b82841015610fde57833582529284019290840190610fc5565b80955050505050509250929050565b60006020808352835180602085015260005b8181101561101b57858101830151858201604001528201610fff565b506000604082860101526040601f19601f8301168501019250505092915050565b6000806040838503121561104f57600080fd5b61105883610ea0565b946020939093013593505050565b6000806040838503121561107957600080fd5b823567ffffffffffffffff81111561109057600080fd5b61109c85828601610ebc565b95602094909401359450505050565b6000602082840312156110bd57600080fd5b610e2e82610ea0565b6020808252825182820181905260009190848201906040850190845b818110156110fe578351835292840192918401916001016110e2565b50909695505050505050565b60006020828403121561111c57600080fd5b81518015158114610e2e57600080fd5b602081016005831061114e57634e487b7160e01b600052602160045260246000fd5b91905290565b634e487b7160e01b600052603260045260246000fd5b81810381811115610b4657634e487b7160e01b600052601160045260246000fd5b634e487b7160e01b600052603160045260246000fdfea264697066735822122020f7363d1abbb45dbdaadd82af123d3cd26d59311a5f9a28c53d3527540aaba764736f6c6343000818003360a060405234801561001057600080fd5b50604051610e69380380610e6983398101604081905261002f916100a4565b8061003933610054565b6001600160a01b031660805261004e81610054565b506100d4565b600080546001600160a01b038381166001600160a01b0319831681178455604051919092169283917f8be0079c531659141344cd1fd0a4f28419497f9722a3daafe3b4186f6b6457e09190a35050565b6000602082840312156100b657600080fd5b81516001600160a01b03811681146100cd57600080fd5b9392505050565b608051610d576101126000396000818161019501528181610300015281816103470152818161042b015281816105fe01526106450152610d576000f3fe608060405234801561001057600080fd5b50600436106100cf5760003560e01c80638da5cb5b1161008c578063d3d24c9b11610066578063d3d24c9b14610190578063d4f93870146101b7578063ddbd94a9146101cc578063f2fde38b146101df57600080fd5b80638da5cb5b14610150578063b5ed298a14610175578063bd9b6d861461018857600080fd5b806312be4100146100d45780631bf974f3146100de5780632d59e38b146100f157806342456e771461010e57806354fd4d5014610121578063715018a614610148575b600080fd5b6100dc6101f2565b005b6100dc6100ec366004610b39565b6102fe565b6100f9610496565b60405190151581526020015b60405180910390f35b6100dc61011c366004610b7d565b6104a8565b60408051808201825260058152640312e312e360dc1b602082015290516101059190610bb0565b6100dc6105e8565b6000546001600160a01b03165b6040516001600160a01b039091168152602001610105565b6100dc610183366004610bff565b6105fc565b6100dc61075c565b61015d7f000000000000000000000000000000000000000000000000000000000000000081565b6101bf6107c5565b6040516101059190610c28565b6100dc6101da366004610b7d565b610843565b6100dc6101ed366004610bff565b610957565b60005b6003548110156102fb575b60035415801590610212575060035481105b801561024c5750426003828154811061022d5761022d610c84565b600091825260209091200154600160401b90046001600160401b031611155b156102f357600015156003828154811061026857610268610c84565b9060005260206000200160000160089054906101000a90046001600160401b03166001600160401b0316600383815481106102a5576102a5610c84565b60009182526020822001546040516001600160401b03909116917fc59968cc6328a09c380b64d3606420afabed418dd4248c157679cbaaa395909891a46102ee8160ff166109cd565b610200565b6001016101f5565b50565b7f00000000000000000000000000000000000000000000000000000000000000006001600160a01b0316610345576040516371724ffd60e01b815260040160405180910390fd5b7f00000000000000000000000000000000000000000000000000000000000000006001600160a01b03811663c3c2ebbb336040516001600160e01b031960e084901b1681526001600160a01b039091166004820152602401602060405180830381865afa1580156103ba573d6000803e3d6000fd5b505050506040513d601f19601f820116820180604052508101906103de9190610c9a565b1580156103f657506000546001600160a01b03163314155b156104145760405163054f3a3160e31b815260040160405180910390fd5b604051632b124b7960e01b81526001600160a01b037f00000000000000000000000000000000000000000000000000000000000000001690632b124b7990610460908590600401610cbc565b600060405180830381600087803b15801561047a57600080fd5b505af115801561048e573d6000803e3d6000fd5b505050505050565b60006104a0610a8f565b506003541590565b6104b0610a8f565b600354600f116104d35760405163d30bd9c560e01b815260040160405180910390fd5b6104db6101f2565b816001600160401b0316816001600160401b0316111580610505575042826001600160401b031611155b1561053b576040516338121a1360e11b81526001600160401b038084166004830152821660248201526044015b60405180910390fd5b6040805180820182526001600160401b03808516808352848216602084018181526003805460018181018355600092835287517fc2575a0e9e593c00f959f8c92f12db2869c3395a3b0502d05e2516446f71f85b909201805494518816600160401b026001600160801b0319909516929097169190911792909217909455945193949390927fc59968cc6328a09c380b64d3606420afabed418dd4248c157679cbaaa395909891a4505050565b6105f0610a8f565b6105fa6000610ae9565b565b7f00000000000000000000000000000000000000000000000000000000000000006001600160a01b0316610643576040516371724ffd60e01b815260040160405180910390fd5b7f00000000000000000000000000000000000000000000000000000000000000006001600160a01b03811663c3c2ebbb336040516001600160e01b031960e084901b1681526001600160a01b039091166004820152602401602060405180830381865afa1580156106b8573d6000803e3d6000fd5b505050506040513d601f19601f820116820180604052508101906106dc9190610c9a565b1580156106f457506000546001600160a01b03163314155b156107125760405163054f3a3160e31b815260040160405180910390fd5b6001600160a01b0382166107395760405163d92e233d60e01b815260040160405180910390fd5b50600180546001600160a01b0319166001600160a01b0392909216919091179055565b6001546001600160a01b03166107855760405163821e0eeb60e01b815260040160405180910390fd5b6001546001600160a01b031633146107b057604051634128496760e01b815260040160405180910390fd5b6001546105fa906001600160a01b0316610ae9565b60606107cf610a8f565b6003805480602002602001604051908101604052809291908181526020016000905b8282101561083a57600084815260209081902060408051808201909152908401546001600160401b038082168352600160401b90910416818301528252600190920191016107f1565b50505050905090565b61084b610a8f565b60005b6003548110156109525760005b6003541580159061086d575060035482105b8015610877575080155b156109495760006003838154811061089157610891610c84565b6000918252602091829020604080518082019091529101546001600160401b03808216808452600160401b9092048116938301939093529092509086161480156108f05750836001600160401b031681602001516001600160401b0316145b1561093e576108fe836109cd565b6040516000906001600160401b0380871691908816907fc59968cc6328a09c380b64d3606420afabed418dd4248c157679cbaaa3959098908490a4610943565b600191505b5061085b565b5060010161084e565b505050565b61095f610a8f565b6001600160a01b0381166109c45760405162461bcd60e51b815260206004820152602660248201527f4f776e61626c653a206e6577206f776e657220697320746865207a65726f206160448201526564647265737360d01b6064820152608401610532565b6102fb81610ae9565b60038054906109dd600183610ce4565b815481106109ed576109ed610c84565b9060005260206000200160038381548110610a0a57610a0a610c84565b600091825260209091208254910180546001600160401b0392831667ffffffffffffffff1982168117835593546001600160801b0319909116909317600160401b938490049092169092021790556003805480610a6957610a69610d0b565b600082815260209020810160001990810180546001600160801b03191690550190555050565b6000546001600160a01b031633146105fa5760405162461bcd60e51b815260206004820181905260248201527f4f776e61626c653a2063616c6c6572206973206e6f7420746865206f776e65726044820152606401610532565b600080546001600160a01b038381166001600160a01b0319831681178455604051919092169283917f8be0079c531659141344cd1fd0a4f28419497f9722a3daafe3b4186f6b6457e09190a35050565b600060208284031215610b4b57600080fd5b813560058110610b5a57600080fd5b9392505050565b80356001600160401b0381168114610b7857600080fd5b919050565b60008060408385031215610b9057600080fd5b610b9983610b61565b9150610ba760208401610b61565b90509250929050565b60006020808352835180602085015260005b81811015610bde57858101830151858201604001528201610bc2565b506000604082860101526040601f19601f8301168501019250505092915050565b600060208284031215610c1157600080fd5b81356001600160a01b0381168114610b5a57600080fd5b602080825282518282018190526000919060409081850190868401855b82811015610c7757815180516001600160401b0390811686529087015116868501529284019290850190600101610c45565b5091979650505050505050565b634e487b7160e01b600052603260045260246000fd5b600060208284031215610cac57600080fd5b81518015158114610b5a57600080fd5b6020810160058310610cde57634e487b7160e01b600052602160045260246000fd5b91905290565b81810381811115610d0557634e487b7160e01b600052601160045260246000fd5b92915050565b634e487b7160e01b600052603160045260246000fdfea2646970667358221220f8037e7e39cb99ec3a78369504217b092f439ee3c6e0626cb6b3b28d84ca07ae64736f6c63430008180033371a0078bf8859908953848339bea5f1d5775487f6c2f50fd279fcc2cafd8c607613a25ecc738585a232ad50a301178f12b3ba8887d13e138b523c4269c4768960806040523480156200001157600080fd5b5060405162009ffb38038062009ffb8339810160408190526200003491620006a3565b60016002558282826200005760008051602062009fdb83398151915284620002ab565b6200008160008051602062009fbb83398151915260008051602062009fdb833981519152620002d6565b620000bc7f2104bd22bc71f1a868806c22aa1905dad25555696bbf4456c5b464b8d55f733560008051602062009fbb833981519152620002d6565b620000f77f870ee5500b98ca09b5fcd7de4a95293916740021c92172d268dad85baec3c85f60008051602062009fbb833981519152620002d6565b620001327f5ff038c4899bb7fbbc7cf40ef4accece5ebd324c2da5ab7db2c3b81e845e2a7a60008051602062009fbb833981519152620002d6565b6200016d7f5cb9147a971eae9c63c04beb424326d7db091a71473987979b49bb1e189f345760008051602062009fbb833981519152620002d6565b620001a860008051602062009fdb8339815191527f16c600d7bfbb199b1bbbaaec72d225e1b669f7d0c812d7cafcf00672fb42b30d620002d6565b620001e37f16c600d7bfbb199b1bbbaaec72d225e1b669f7d0c812d7cafcf00672fb42b30d60008051602062009fdb833981519152620002d6565b600d620001f1838262000820565b508062000253576200020262000321565b81604051620002129190620008ec565b604051908190038120906001600160a01b038516907f1e61c3dd5791558bf488a7c35e8966a12a825d329d5ea515b1991b217483cee190600090a36200029f565b81604051620002639190620008ec565b604051908190038120906001600160a01b038516907f0f2d99fca0368b79392cf96793d9fc61fc0861e5a3b6c9f84843e408ffbdefb890600090a35b5050505050506200090a565b620002b78282620004f8565b6000828152600160205260409020620002d1908262000599565b505050565b600082815260208190526040808220600101805490849055905190918391839186917fbd79b86ffe0ab8e8776151514217cd7cacd52c909f66475c3af44e129f0b00ff9190a4505050565b3060405162000330906200060b565b6001600160a01b039091168152602001604051809103906000f0801580156200035d573d6000803e3d6000fd5b50600380546001600160a01b0319166001600160a01b039290921691909117905560405130906200038e9062000619565b6001600160a01b039091168152602001604051809103906000f080158015620003bb573d6000803e3d6000fd5b50600480546001600160a01b0319166001600160a01b03929092169190911790556040513090620003ec9062000627565b6001600160a01b039091168152602001604051809103906000f08015801562000419573d6000803e3d6000fd5b50600580546001600160a01b0319166001600160a01b039290921691909117905560405130906200044a9062000635565b6001600160a01b039091168152602001604051809103906000f08015801562000477573d6000803e3d6000fd5b50600680546001600160a01b0319166001600160a01b03929092169190911790556040513090620004a89062000643565b6001600160a01b039091168152602001604051809103906000f080158015620004d5573d6000803e3d6000fd5b50600780546001600160a01b0319166001600160a01b0392909216919091179055565b6000828152602081815260408083206001600160a01b038516845290915290205460ff1662000595576000828152602081815260408083206001600160a01b03851684529091529020805460ff19166001179055620005543390565b6001600160a01b0316816001600160a01b0316837f2f8788117e7eff1d82e926ec794901d17c78024a50270940304540a733656f0d60405160405180910390a45b5050565b6000620005b0836001600160a01b038416620005b9565b90505b92915050565b60008181526001830160205260408120546200060257508154600181810184556000848152602080822090930184905584548482528286019093526040902091909155620005b3565b506000620005b3565b61099c80620058d883390190565b610deb806200627483390190565b610e0a806200705f83390190565b6112e98062007e6983390190565b610e69806200915283390190565b634e487b7160e01b600052604160045260246000fd5b60005b83811015620006845781810151838201526020016200066a565b50506000910152565b805180151581146200069e57600080fd5b919050565b600080600060608486031215620006b957600080fd5b83516001600160a01b0381168114620006d157600080fd5b60208501519093506001600160401b0380821115620006ef57600080fd5b818601915086601f8301126200070457600080fd5b81518181111562000719576200071962000651565b604051601f8201601f19908116603f0116810190838211818310171562000744576200074462000651565b816040528281528960208487010111156200075e57600080fd5b6200077183602083016020880162000667565b809650505050505062000787604085016200068d565b90509250925092565b600181811c90821680620007a557607f821691505b602082108103620007c657634e487b7160e01b600052602260045260246000fd5b50919050565b601f821115620002d1576000816000526020600020601f850160051c81016020861015620007f75750805b601f850160051c820191505b81811015620008185782815560010162000803565b505050505050565b81516001600160401b038111156200083c576200083c62000651565b62000854816200084d845462000790565b84620007cc565b602080601f8311600181146200088c5760008415620008735750858301515b600019600386901b1c1916600185901b17855562000818565b600085815260208120601f198616915b82811015620008bd578886015182559484019460019091019084016200089c565b5085821015620008dc5787850151600019600388901b60f8161c191681555b5050505050600190811b01905550565b600082516200090081846020870162000667565b9190910192915050565b614fbe806200091a6000396000f3fe608060405234801561001057600080fd5b50600436106105045760003560e01c80637069e99f11610299578063ca15c87311610167578063da517b67116100d9578063dfc4834d11610092578063dfc4834d14610bad578063e4a5a46514610bc0578063f142a46f14610bc8578063f84ed61d14610bdb578063f95228c014610bee578063f987b1481461072557600080fd5b8063da517b6714610b4e578063db6fb32514610568578063dc08706d14610b61578063ddbd94a914610b74578063df0a644614610b87578063df7f453b14610b9a57600080fd5b8063d019577a1161012b578063d019577a14610aed578063d37373ba14610b00578063d4a7db7f14610b13578063d4f9387014610b26578063d547741f14610b3b578063d881be2f1461092c57600080fd5b8063ca15c87314610a81578063ca3f1ede14610a94578063cc812f3a14610aa7578063ced6eae614610ac7578063cf1c6f6514610ada57600080fd5b8063964700c81161020b578063b1b65c35116101c4578063b1b65c3514610890578063b315cb3a14610a09578063b8396f5e14610a1c578063be4eb0c714610a2f578063c3c2ebbb14610a5b578063c409123614610a6e57600080fd5b8063964700c8146109895780639a4e34ba1461099c5780639fe3cd2a146109c8578063a217fddf146109db578063a5b73e7c146109e3578063aa62f1a4146109f657600080fd5b80637e8b87491161025d5780637e8b87491461091957806382654fe91461092c57806383d74cdc1461093d5780639010d07c1461095057806390d5a92c1461096357806391d148541461097657600080fd5b80637069e99f146108c557806375c5512a146108d8578063789d87a2146108e05780637bdc8bbf146108f35780637caca7d41461090657600080fd5b8063451babd8116103d65780635b9a94e41161034857806369f667ed1161030157806369f667ed146108575780636aa806a71461086a5780636db4a9c91461087d5780636dbda16a146108905780636e8bac51146108a15780636f9c83b8146108b457600080fd5b80635b9a94e4146107d35780635bc008a0146107e65780635eafd1081461080b57806361c698611461081e57806363f8071c14610831578063674b5e4d1461084457600080fd5b80634f3e59591161039a5780634f3e595914610725578063516f0a1b1461073657806354c615071461076257806354fd4d501461078e5780635548064f146107b8578063564f9db3146107c057600080fd5b8063451babd8146106dc57806345467e2d146106ef57806346f0ea20146106f75780634d98c79e1461070a5780634eec274c1461071d57600080fd5b806326a119291161047a578063388ff0c111610433578063388ff0c11461066a578063395a3f2b1461067d5780633ec7d69814610690578063417b0dd9146106a357806341b77fff146106b657806342456e77146106c957600080fd5b806326a11929146105f6578063273cbaa0146106095780632b124b791461061e5780632f2ff15d1461063157806336568abe1461064457806336f543751461065757600080fd5b806319d1c21d116104cc57806319d1c21d146105685780631b945a5d146105795780631bf31cee1461058c578063248a9ca31461059f57806325ed7d4a146105d057806325f4671c146105e357600080fd5b806301ffc9a714610509578063046e42a4146105315780630c631214146105565780630f7b66b61461053157806312be410014610560575b600080fd5b61051c6105173660046140a1565b610c01565b60405190151581526020015b60405180910390f35b6006546001600160a01b03165b6040516001600160a01b039091168152602001610528565b61055e610c2c565b005b61055e610c73565b6005546001600160a01b031661053e565b61055e6105873660046141e9565b610cdd565b61055e61059a366004614225565b610d30565b6105c26105ad366004614242565b60009081526020819052604090206001015490565b604051908152602001610528565b61055e6105de366004614269565b610d92565b61055e6105f1366004614225565b610e82565b61055e6106043660046142a2565b610f05565b610611610f86565b60405161052891906143a1565b61055e61062c3660046143c1565b610fe8565b61055e61063f3660046143de565b611408565b61055e6106523660046143de565b611449565b61055e6106653660046141e9565b611481565b61055e610678366004614225565b6114cf565b61055e61068b366004614225565b611561565b61055e61069e366004614403565b6115c3565b61055e6106b136600461442f565b61163f565b61051c6106c4366004614225565b611688565b61055e6106d73660046144f8565b6116a2565b61055e6106ea366004614526565b611759565b61055e6117ac565b600e5461053e906001600160a01b031681565b61055e61071836600461442f565b6117f3565b61055e61183d565b6007546001600160a01b031661053e565b61051c610744366004614225565b6001600160a01b03166000908152601b602052604090205460ff1690565b61051c610770366004614225565b6001600160a01b031660009081526012602052604090205460ff1690565b6040805180820190915260058152640312e312e360dc1b60208201525b6040516105289190614578565b61055e611950565b61055e6107ce366004614225565b611997565b61055e6107e1366004614225565b6119f7565b6107f96107f4366004614225565b611a89565b60405160ff9091168152602001610528565b61055e6108193660046145ab565b611afe565b61055e61082c366004614225565b611b4f565b6107ab61083f366004614225565b611b99565b61051c610852366004614225565b611c45565b61055e61086536600461461f565b611c5f565b61055e610878366004614225565b611e63565b61055e61088b366004614225565b611eaf565b6004546001600160a01b031661053e565b61055e6108af366004614225565b611f0f565b600f546001600160a01b031661053e565b61051c6108d3366004614225565b611fa1565b61055e611fbb565b61055e6108ee366004614225565b612002565b61055e610901366004614675565b6120c2565b61055e610914366004614225565b612261565b61055e610927366004614225565b6124a7565b6003546001600160a01b031661053e565b61055e61094b366004614225565b612509565b61053e61095e3660046146b6565b61259b565b61055e6109713660046146d8565b6125ba565b61051c6109843660046143de565b612604565b61055e6109973660046146d8565b61262d565b61051c6109aa366004614225565b6001600160a01b031660009081526018602052604090205460ff1690565b61055e6109d63660046141e9565b612676565b6105c2600081565b61055e6109f1366004614225565b6126c4565b61055e610a04366004614526565b612756565b61055e610a1736600461471e565b6127ab565b61055e610a2a3660046141e9565b6127f5565b61051c610a3d366004614225565b6001600160a01b03166000908152601d602052604090205460ff1690565b61051c610a69366004614225565b612843565b61053e610a7c366004614675565b61285d565b6105c2610a8f366004614242565b612892565b61055e610aa23660046141e9565b6128a9565b610aba610ab5366004614225565b6128f7565b6040516105289190614793565b61055e610ad5366004614225565b61296a565b61055e610ae8366004614225565b612e41565b61051c610afb3660046145ab565b612ea3565b61055e610b0e3660046145ab565b612f19565b61051c610b21366004614225565b612f6a565b610b2e612f84565b60405161052891906147a6565b61055e610b493660046143de565b612ffb565b61055e610b5c366004614225565b613062565b6107f9610b6f366004614225565b613122565b61055e610b823660046144f8565b613155565b61055e610b95366004614225565b613288565b61051c610ba8366004614225565b613321565b61055e610bbb366004614225565b61333b565b61055e61339d565b61055e610bd6366004614802565b6133fe565b61055e610be9366004614675565b61351d565b61055e610bfc366004614225565b613587565b60006001600160e01b03198216635a05180f60e01b1480610c265750610c26826135da565b92915050565b610c44600080516020614ec983398151915233611449565b60405160009033907f58b0c912034dc4fc969d456493cbf9da4f109b79865daf74321cf73ab2f7040c908390a3565b600760009054906101000a90046001600160a01b03166001600160a01b03166312be41006040518163ffffffff1660e01b8152600401600060405180830381600087803b158015610cc357600080fd5b505af1158015610cd7573d6000803e3d6000fd5b50505050565b600080516020614ec9833981519152610cf58161360f565b60005b8251811015610d2b57610d23838281518110610d1657610d166148a4565b6020026020010151611f0f565b600101610cf8565b505050565b600080516020614ec9833981519152610d488161360f565b6001600160a01b038216610d6f5760405163d92e233d60e01b815260040160405180910390fd5b50600a80546001600160a01b0319166001600160a01b0392909216919091179055565b600080516020614ec9833981519152610daa8161360f565b81610dfc576001600160a01b0383166000908152601d602052604090205460ff16610de857604051637de8c17d60e01b815260040160405180910390fd5b610df7601c601e601d86613619565b610e45565b6001600160a01b0383166000908152601d602052604090205460ff1615610e36576040516316a163b960e11b815260040160405180910390fd5b610e45601c601e601d86613722565b604051821515906001600160a01b038516907f6564da707a5df09bfa9aed4a8c9acc37e2df9021b0dfe89c445c84ca3313768190600090a3505050565b600080516020614f49833981519152610e9a8161360f565b6001600160a01b038216610ec15760405163d92e233d60e01b815260040160405180910390fd5b6000610eda600080516020614f69833981519152612892565b1115610eed57610ee982613779565b5050565b610ee9600080516020614f69833981519152836137c1565b600080516020614ec9833981519152610f1d8161360f565b6006546040516326a1192960e01b81526001600160a01b03909116906326a1192990610f4f90869086906004016148ba565b600060405180830381600087803b158015610f6957600080fd5b505af1158015610f7d573d6000803e3d6000fd5b50505050505050565b60606013805480602002602001604051908101604052809291908181526020018280548015610fde57602002820191906000526020600020905b81546001600160a01b03168152600190910190602001808311610fc0575b5050505050905090565b6002816004811115610ffc57610ffc6148e8565b036110bb57600a546001600160a01b031661102a5760405163821e0eeb60e01b815260040160405180910390fd5b600a546001600160a01b0316336001600160a01b03161461105e57604051634128496760e01b815260040160405180910390fd5b600a54600680546001600160a01b0319166001600160a01b0390921691821790556040517f4be1b4039acf68e615f56a238b31cf9a61b58ba466df3b449d426be362c2670990600090a2600a80546001600160a01b031916905550565b60048160048111156110cf576110cf6148e8565b0361118e57600c546001600160a01b03166110fd5760405163821e0eeb60e01b815260040160405180910390fd5b600c546001600160a01b0316336001600160a01b03161461113157604051634128496760e01b815260040160405180910390fd5b600c54600580546001600160a01b0319166001600160a01b0390921691821790556040517f8c9bae10e815bbd30975e9f63e0cac6bf479d7834dee22b8ab5b3cce4569be7190600090a2600c80546001600160a01b031916905550565b60008160048111156111a2576111a26148e8565b03611261576008546001600160a01b03166111d05760405163821e0eeb60e01b815260040160405180910390fd5b6008546001600160a01b0316336001600160a01b03161461120457604051634128496760e01b815260040160405180910390fd5b600854600480546001600160a01b0319166001600160a01b0390921691821790556040517fef260b3c47355ea5edcad1fe50621a44e1e972b474e0a9778247b5bb063661bf90600090a2600880546001600160a01b031916905550565b6001816004811115611275576112756148e8565b03611334576009546001600160a01b03166112a35760405163821e0eeb60e01b815260040160405180910390fd5b6009546001600160a01b0316336001600160a01b0316146112d757604051634128496760e01b815260040160405180910390fd5b600954600380546001600160a01b0319166001600160a01b0390921691821790556040517faf4bcd945b877396cadc6e900fdac9b90c12b8a4f0228d943abbc9131fdd043f90600090a2600980546001600160a01b031916905550565b6003816004811115611348576113486148e8565b0361140557600b546001600160a01b03166113765760405163821e0eeb60e01b815260040160405180910390fd5b600b546001600160a01b0316336001600160a01b0316146113aa57604051634128496760e01b815260040160405180910390fd5b600b54600780546001600160a01b0319166001600160a01b0390921691821790556040517f3706317055c3080f585c6aa4c6095608f211a98b012075e1ad071337d486118090600090a2600b80546001600160a01b03191690555b50565b60405162461bcd60e51b8152602060048201526011602482015270119d5b98dd1a5bdb88191a5cd8589b1959607a1b60448201526064015b60405180910390fd5b600080516020614f49833981519152820361147757604051637f8e121f60e01b815260040160405180910390fd5b610ee982826137e6565b600080516020614f498339815191526114998161360f565b60005b8251811015610d2b576114c78382815181106114ba576114ba6148a4565b60200260200101516126c4565b60010161149c565b600080516020614ec98339815191526114e78161360f565b6001600160a01b03821661150e5760405163d92e233d60e01b815260040160405180910390fd5b611526600080516020614f29833981519152836137c1565b6040516001906001600160a01b038416907f15d1c680f4b2a74b5102c95a572221eec3e2d26f31234941d7db01f938ad7de490600090a35050565b600080516020614ec98339815191526115798161360f565b6001600160a01b0382166115a05760405163d92e233d60e01b815260040160405180910390fd5b50600b80546001600160a01b0319166001600160a01b0392909216919091179055565b600080516020614f098339815191526115db8161360f565b600e54604051630d91cbed60e11b815283151560048201526001600160a01b0390911690631b2397da906024015b600060405180830381600087803b15801561162357600080fd5b505af1158015611637573d6000803e3d6000fd5b505050505050565b600080516020614ee98339815191526116578161360f565b6004805460405163417b0dd960e01b81526001600160a01b039091169163417b0dd991610f4f9187918791016148fe565b6000610c26600080516020614ee983398151915283612604565b600080516020614f098339815191526116ba8161360f565b6007546040516342456e7760e01b81526001600160401b038086166004830152841660248201526001600160a01b03909116906342456e7790604401600060405180830381600087803b15801561171057600080fd5b505af1158015611724573d6000803e3d6000fd5b5050600e54604051630d91cbed60e11b8152600160048201526001600160a01b039091169250631b2397da9150602401610f4f565b600080516020614ea98339815191526117718161360f565b600554604051632615d58560e21b81526001600160a01b03858116600483015260ff8516602483015290911690639857561490604401610f4f565b6117c4600080516020614ee983398151915233611449565b60405160009033907fbf803419fc50c5a21ddcbfc938fc9bf43727f407b44dbbc6b56bc6c7042c6b8e908390a3565b600080516020614ea983398151915261180b8161360f565b6005546040516326cc63cf60e11b81526001600160a01b0390911690634d98c79e90610f4f90869086906004016148fe565b6000611858600080516020614f69833981519152600061259b565b9050336001600160a01b0382161461188357604051634128496760e01b815260040160405180910390fd5b600061189e600080516020614f49833981519152600061259b565b90506118b8600080516020614f49833981519152836137c1565b6118d0600080516020614f4983398151915282613860565b6118e8600080516020614f6983398151915233611449565b60405160019033907f41d243a983aaf9e2054e60b69289f0ed282b05ae3ae82db0bcebc8e3f28b8a2e90600090a36040516000906001600160a01b038316907f41d243a983aaf9e2054e60b69289f0ed282b05ae3ae82db0bcebc8e3f28b8a2e908390a35050565b611968600080516020614f0983398151915233611449565b60405160009033907f828ea24d0e91f82bccc87ff9f81c062af014ff350e54c47880f958eaea62d0a1908390a3565b600080516020614ec98339815191526119af8161360f565b6001600160a01b0382166000908152601b602052604090205460ff166119e857604051637de8c17d60e01b815260040160405180910390fd5b610ee96019601a601b85613619565b600080516020614ec9833981519152611a0f8161360f565b6001600160a01b038216611a365760405163d92e233d60e01b815260040160405180910390fd5b611a4e600080516020614ea9833981519152836137c1565b6040516001906001600160a01b038416907f0861f0f338b525820e29873d34688cbb1a2b6a0a3d3086cb7ff72f720ad202c890600090a35050565b600480546040516302de004560e51b81526001600160a01b038481169382019390935260009290911690635bc008a0906024015b602060405180830381865afa158015611ada573d6000803e3d6000fd5b505050506040513d601f19601f82011682018060405250810190610c269190614958565b600080516020614ec9833981519152611b168161360f565b600654604051630bd5fa2160e31b81526001600160a01b0385811660048301526024820185905290911690635eafd10890604401610f4f565b600080516020614ea9833981519152611b678161360f565b6005546040516306d7cbc760e11b81526001600160a01b03848116600483015290911690630daf978e90602401611609565b6001600160a01b0381166000908152601160205260409020805460609190611bc090614975565b80601f0160208091040260200160405190810160405280929190818152602001828054611bec90614975565b8015611c395780601f10611c0e57610100808354040283529160200191611c39565b820191906000526020600020905b815481529060010190602001808311611c1c57829003601f168201915b50505050509050919050565b6000610c26600080516020614ea983398151915283612604565b600080516020614ec9833981519152611c778161360f565b6001600160a01b038216611c9e5760405163d92e233d60e01b815260040160405180910390fd5b8160108585604051611cb19291906149af565b908152604080516020928190038301902080546001600160a01b0319166001600160a01b039485161790559184166000908152601190915220611cf5848683614a07565b506001600160a01b03821660009081526015602052604090205460ff16611e1357611d2560136014601585613722565b600160126000846001600160a01b0316636f9c83b86040518163ffffffff1660e01b8152600401602060405180830381865afa158015611d69573d6000803e3d6000fd5b505050506040513d601f19601f82011682018060405250810190611d8d9190614ac7565b6001600160a01b03166001600160a01b0316815260200190815260200160002060006101000a81548160ff021916908315150217905550816001600160a01b03168484604051611dde9291906149af565b604051908190038120907f1eac45aa053bf10c5dda3373ed6d94963b4297609498c40eed446f340319b87e90600090a3610cd7565b816001600160a01b03168484604051611e2d9291906149af565b604051908190038120907f15ee7f3b39acf25c3ea254232d6c3351dc6eb1d11303dee73eddb6d8ed9ee0d090600090a350505050565b600080516020614ee9833981519152611e7b8161360f565b60048054604051636aa806a760e01b81526001600160a01b0385811693820193909352911690636aa806a790602401611609565b600080516020614ec9833981519152611ec78161360f565b6001600160a01b03821660009081526018602052604090205460ff16611f0057604051637de8c17d60e01b815260040160405180910390fd5b610ee960166017601885613619565b600080516020614ec9833981519152611f278161360f565b6001600160a01b038216611f4e5760405163d92e233d60e01b815260040160405180910390fd5b611f66600080516020614f09833981519152836137c1565b6040516001906001600160a01b038416907f828ea24d0e91f82bccc87ff9f81c062af014ff350e54c47880f958eaea62d0a190600090a35050565b6000610c26600080516020614f2983398151915283612604565b611fd3600080516020614ea983398151915233611449565b60405160009033907f0861f0f338b525820e29873d34688cbb1a2b6a0a3d3086cb7ff72f720ad202c8908390a3565b600080516020614ec983398151915261201a8161360f565b6001600160a01b0382166120415760405163d92e233d60e01b815260040160405180910390fd5b6001600160a01b0382166000908152601b602052604090205460ff161561207b576040516316a163b960e11b815260040160405180910390fd5b61208a6019601a601b85613722565b6040516001600160a01b038316907f271d7b4dec404f020f40446305b9de8a359b98348131e4c15987e7383f42815390600090a25050565b600080516020614ec98339815191526120da8161360f565b6000601084846040516120ee9291906149af565b9081526040805160209281900383019020546001600160a01b03166000818152601590935291205490915060ff1661213957604051637de8c17d60e01b815260040160405180910390fd5b61214860136014601584613619565b6010848460405161215a9291906149af565b908152604080516020928190038301902080546001600160a01b03191690556001600160a01b03831660009081526011909252812061219891614053565b60126000826001600160a01b0316636f9c83b86040518163ffffffff1660e01b8152600401602060405180830381865afa1580156121da573d6000803e3d6000fd5b505050506040513d601f19601f820116820180604052508101906121fe9190614ac7565b6001600160a01b0316815260208101919091526040908101600020805460ff19169055517f6b1a0b0c9aad447ed1b708afc912723ce244eb0da95496520cd69d04034df8ce9061225390869086908590614ae4565b60405180910390a150505050565b612269613885565b600080516020614ec98339815191526122818161360f565b600354604051635af694c560e11b81526001600160a01b0384811660048301529091169063b5ed298a90602401600060405180830381600087803b1580156122c857600080fd5b505af11580156122dc573d6000803e3d6000fd5b505060048054604051635af694c560e11b81526001600160a01b03878116938201939093529116925063b5ed298a9150602401600060405180830381600087803b15801561232957600080fd5b505af115801561233d573d6000803e3d6000fd5b5050600554604051635af694c560e11b81526001600160a01b038681166004830152909116925063b5ed298a9150602401600060405180830381600087803b15801561238857600080fd5b505af115801561239c573d6000803e3d6000fd5b5050600654604051635af694c560e11b81526001600160a01b038681166004830152909116925063b5ed298a9150602401600060405180830381600087803b1580156123e757600080fd5b505af11580156123fb573d6000803e3d6000fd5b5050600754604051635af694c560e11b81526001600160a01b038681166004830152909116925063b5ed298a9150602401600060405180830381600087803b15801561244657600080fd5b505af115801561245a573d6000803e3d6000fd5b50506040513081526001600160a01b03851692507ff0e9a6b66a12fa7aa5cadb32dd73c2a90017b99ce1c58c25488d18f42c59f2ac915060200160405180910390a2506114056001600255565b600080516020614ec98339815191526124bf8161360f565b6001600160a01b0382166124e65760405163d92e233d60e01b815260040160405180910390fd5b50600880546001600160a01b0319166001600160a01b0392909216919091179055565b600080516020614ec98339815191526125218161360f565b6001600160a01b0382166125485760405163d92e233d60e01b815260040160405180910390fd5b612560600080516020614ee9833981519152836137c1565b6040516001906001600160a01b038416907fbf803419fc50c5a21ddcbfc938fc9bf43727f407b44dbbc6b56bc6c7042c6b8e90600090a35050565b60008281526001602052604081206125b390836138dc565b9392505050565b600080516020614ea98339815191526125d28161360f565b6005546040516324356a4b60e21b81526001600160a01b03909116906390d5a92c90610f4f9086908690600401614b25565b6000918252602082815260408084206001600160a01b0393909316845291905290205460ff1690565b600080516020614ee98339815191526126458161360f565b600480546040516312c8e01960e31b81526001600160a01b039091169163964700c891610f4f918791879101614b25565b600080516020614ec983398151915261268e8161360f565b60005b8251811015610d2b576126bc8382815181106126af576126af6148a4565b6020026020010151612509565b600101612691565b600080516020614f498339815191526126dc8161360f565b6001600160a01b0382166127035760405163d92e233d60e01b815260040160405180910390fd5b61271b600080516020614ec9833981519152836137c1565b6040516001906001600160a01b038416907f58b0c912034dc4fc969d456493cbf9da4f109b79865daf74321cf73ab2f7040c90600090a35050565b600080516020614ee983398151915261276e8161360f565b6004805460405163aa0c8a7b60e01b81526001600160a01b038681169382019390935260ff8516602482015291169063aa0c8a7b90604401610f4f565b600080516020614ec98339815191526127c38161360f565b60065460405163598ae59d60e11b81526001600160a01b039091169063b315cb3a90610f4f9086908690600401614b4a565b600080516020614ec983398151915261280d8161360f565b60005b8251811015610d2b5761283b83828151811061282e5761282e6148a4565b60200260200101516119f7565b600101612810565b6000610c26600080516020614ec983398151915283612604565b6000601083836040516128719291906149af565b908152604051908190036020019020546001600160a01b0316905092915050565b6000818152600160205260408120610c26906138e8565b600080516020614ec98339815191526128c18161360f565b60005b8251811015610d2b576128ef8382815181106128e2576128e26148a4565b60200260200101516114cf565b6001016128c4565b600654604051636640979d60e11b81526001600160a01b038381166004830152606092169063cc812f3a90602401600060405180830381865afa158015612942573d6000803e3d6000fd5b505050506040513d6000823e601f3d908101601f19168201604052610c269190810190614b6c565b612972613885565b600080516020614ec983398151915261298a8161360f565b6000829050806001600160a01b03166382654fe96040518163ffffffff1660e01b8152600401602060405180830381865afa1580156129cd573d6000803e3d6000fd5b505050506040513d601f19601f820116820180604052508101906129f19190614ac7565b600360006101000a8154816001600160a01b0302191690836001600160a01b03160217905550806001600160a01b0316636dbda16a6040518163ffffffff1660e01b8152600401602060405180830381865afa158015612a55573d6000803e3d6000fd5b505050506040513d601f19601f82011682018060405250810190612a799190614ac7565b600480546001600160a01b0319166001600160a01b03928316178155604080516319d1c21d60e01b81529051928416926319d1c21d928281019260209291908290030181865afa158015612ad1573d6000803e3d6000fd5b505050506040513d601f19601f82011682018060405250810190612af59190614ac7565b600560006101000a8154816001600160a01b0302191690836001600160a01b03160217905550806001600160a01b0316630f7b66b66040518163ffffffff1660e01b8152600401602060405180830381865afa158015612b59573d6000803e3d6000fd5b505050506040513d601f19601f82011682018060405250810190612b7d9190614ac7565b600660006101000a8154816001600160a01b0302191690836001600160a01b03160217905550806001600160a01b0316634f3e59596040518163ffffffff1660e01b8152600401602060405180830381865afa158015612be1573d6000803e3d6000fd5b505050506040513d601f19601f82011682018060405250810190612c059190614ac7565b600780546001600160a01b0319166001600160a01b0392831617905560035460408051635ecdb6c360e11b81529051919092169163bd9b6d8691600480830192600092919082900301818387803b158015612c5f57600080fd5b505af1158015612c73573d6000803e3d6000fd5b50506004805460408051635ecdb6c360e11b815290516001600160a01b03909216945063bd9b6d869350808301926000929182900301818387803b158015612cba57600080fd5b505af1158015612cce573d6000803e3d6000fd5b50505050600560009054906101000a90046001600160a01b03166001600160a01b031663bd9b6d866040518163ffffffff1660e01b8152600401600060405180830381600087803b158015612d2257600080fd5b505af1158015612d36573d6000803e3d6000fd5b50505050600660009054906101000a90046001600160a01b03166001600160a01b031663bd9b6d866040518163ffffffff1660e01b8152600401600060405180830381600087803b158015612d8a57600080fd5b505af1158015612d9e573d6000803e3d6000fd5b50505050600760009054906101000a90046001600160a01b03166001600160a01b031663bd9b6d866040518163ffffffff1660e01b8152600401600060405180830381600087803b158015612df257600080fd5b505af1158015612e06573d6000803e3d6000fd5b50506040513092507f384369ca21e2a2a4427714f269a076982af5550d768f613d72e133f4ec8f24339150600090a250506114056001600255565b600080516020614ec9833981519152612e598161360f565b6001600160a01b038216612e805760405163d92e233d60e01b815260040160405180910390fd5b50600980546001600160a01b0319166001600160a01b0392909216919091179055565b60065460405163680cabbd60e11b81526001600160a01b03848116600483015260248201849052600092169063d019577a90604401602060405180830381865afa158015612ef5573d6000803e3d6000fd5b505050506040513d601f19601f820116820180604052508101906125b39190614bf1565b600080516020614ec9833981519152612f318161360f565b6006546040516369b9b9dd60e11b81526001600160a01b038581166004830152602482018590529091169063d37373ba90604401610f4f565b6000610c26600080516020614f0983398151915283612604565b60075460408051630d4f938760e41b815290516060926001600160a01b03169163d4f938709160048083019260009291908290030181865afa158015612fce573d6000803e3d6000fd5b505050506040513d6000823e601f3d908101601f19168201604052612ff69190810190614c0e565b905090565b613003613885565b600080516020614f49833981519152820361303157604051637f8e121f60e01b815260040160405180910390fd5b600080516020614f29833981519152820361304e5761304e6138f2565b6130588282613860565b610ee96001600255565b600080516020614ec983398151915261307a8161360f565b6001600160a01b0382166130a15760405163d92e233d60e01b815260040160405180910390fd5b6001600160a01b03821660009081526018602052604090205460ff16156130db576040516316a163b960e11b815260040160405180910390fd5b6130ea60166017601885613722565b6040516001600160a01b038316907f496205a90586f696165a3313d5f361ba3a822160b0badbd1b5ce39f2c9a4978790600090a25050565b60055460405163dc08706d60e01b81526001600160a01b038381166004830152600092169063dc08706d90602401611abd565b600080516020614f0983398151915261316d8161360f565b60075460405163ddbd94a960e01b81526001600160401b038086166004830152841660248201526001600160a01b039091169063ddbd94a990604401600060405180830381600087803b1580156131c357600080fd5b505af11580156131d7573d6000803e3d6000fd5b50505050600760009054906101000a90046001600160a01b03166001600160a01b0316632d59e38b6040518163ffffffff1660e01b8152600401602060405180830381865afa15801561322e573d6000803e3d6000fd5b505050506040513d601f19601f820116820180604052508101906132529190614bf1565b15610d2b57600e54604051630d91cbed60e11b8152600060048201526001600160a01b0390911690631b2397da90602401610f4f565b600080516020614ec98339815191526132a08161360f565b6001600160a01b0382166132c75760405163d92e233d60e01b815260040160405180910390fd5b600e80546001600160a01b0384166001600160a01b03199182168117909255600f8054909116821790556040513091907f9a2cdaf1a28a88ccd359d6abc6a27d4856d16459aafb0aae34c1296bab5b63fb90600090a35050565b6000610c26600080516020614f4983398151915283612604565b600080516020614ec98339815191526133538161360f565b6001600160a01b03821661337a5760405163d92e233d60e01b815260040160405180910390fd5b50600c80546001600160a01b0319166001600160a01b0392909216919091179055565b6133a5613885565b6133ad6138f2565b6133c5600080516020614f2983398151915233611449565b60405160009033907f15d1c680f4b2a74b5102c95a572221eec3e2d26f31234941d7db01f938ad7de4908390a36133fc6001600255565b565b61340733610770565b6134265760405163e8ada65f60e01b8152336004820152602401611440565b600e60009054906101000a90046001600160a01b03166001600160a01b031663064ce8746040518163ffffffff1660e01b8152600401602060405180830381865afa158015613479573d6000803e3d6000fd5b505050506040513d601f19601f8201168201806040525081019061349d9190614bf1565b1561351357600e5460405163f142a46f60e01b81526001600160a01b039091169063f142a46f906134e0908b908b908b908b908b908b908b908b90600401614ccb565b600060405180830381600087803b1580156134fa57600080fd5b505af115801561350e573d6000803e3d6000fd5b505050505b5050505050505050565b600080516020614ec98339815191526135358161360f565b600d613542838583614a07565b50600d6040516135529190614d3d565b604051908190038120907f7e8c34daa9b7437d087d896bd7a956c11cac46d79c5d7c75fb538845f480be8390600090a2505050565b600080516020614ec983398151915261359f8161360f565b816001600160a01b031663cdccb27a6040518163ffffffff1660e01b8152600401600060405180830381600087803b15801561162357600080fd5b60006001600160e01b03198216637965db0b60e01b1480610c2657506301ffc9a760e01b6001600160e01b0319831614610c26565b6114058133613ab2565b8354600090859061362c90600190614dc9565b8154811061363c5761363c6148a4565b6000918252602090912001546001600160a01b039081169150821681146136c3576001600160a01b0382166000908152602085905260409020548554829087908390811061368c5761368c6148a4565b600091825260208083209190910180546001600160a01b0319166001600160a01b0394851617905591841681529086905260409020555b848054806136d3576136d3614ddc565b60008281526020808220830160001990810180546001600160a01b03191690559092019092556001600160a01b03939093168152928252506040808320805460ff191690559290529081205550565b83546001600160a01b0390911660008181526020948552604080822093909355928452908220805460ff191660019081179091558454908101855593825291902090910180546001600160a01b0319169091179055565b600080516020614f498339815191526137918161360f565b610eed600080516020614f698339815191526137bc600080516020614f69833981519152600061259b565b613860565b6000828152602081905260409020600101546137dc8161360f565b610d2b8383613b0b565b6001600160a01b03811633146138565760405162461bcd60e51b815260206004820152602f60248201527f416363657373436f6e74726f6c3a2063616e206f6e6c792072656e6f756e636560448201526e103937b632b9903337b91039b2b63360891b6064820152608401611440565b610ee98282613b2d565b60008281526020819052604090206001015461387b8161360f565b610d2b8383613b2d565b60028054036138d65760405162461bcd60e51b815260206004820152601f60248201527f5265656e7472616e637947756172643a207265656e7472616e742063616c6c006044820152606401611440565b60028055565b60006125b38383613b4f565b6000610c26825490565b60135460005b81811015610ee95761399f631634ff0560e31b6013838154811061391e5761391e6148a4565b6000918252602091829020015460408051630df3907760e31b815290516001600160a01b0390921692636f9c83b8926004808401938290030181865afa15801561396c573d6000803e3d6000fd5b505050506040513d601f19601f820116820180604052508101906139909190614ac7565b6001600160a01b031690613b79565b15613aaa57601381815481106139b7576139b76148a4565b6000918252602091829020015460408051630df3907760e31b815290516001600160a01b0390921692636f9c83b8926004808401938290030181865afa158015613a05573d6000803e3d6000fd5b505050506040513d601f19601f82011682018060405250810190613a299190614ac7565b6001600160a01b031663b1a7f8286040518163ffffffff1660e01b81526004016020604051808303816000875af1158015613a68573d6000803e3d6000fd5b505050506040513d601f19601f82011682018060405250810190613a8c9190614bf1565b15613aaa576040516312e9e50760e21b815260040160405180910390fd5b6001016138f8565b613abc8282612604565b610ee957613ac981613b95565b613ad4836020613ba7565b604051602001613ae5929190614df2565b60408051601f198184030181529082905262461bcd60e51b825261144091600401614578565b613b158282613d42565b6000828152600160205260409020610d2b9082613dc6565b613b378282613ddb565b6000828152600160205260409020610d2b9082613e40565b6000826000018281548110613b6657613b666148a4565b9060005260206000200154905092915050565b6000613b8483613e55565b80156125b357506125b38383613e88565b6060610c266001600160a01b03831660145b60606000613bb6836002614e67565b613bc1906002614e7e565b6001600160401b03811115613bd857613bd86140cb565b6040519080825280601f01601f191660200182016040528015613c02576020820181803683370190505b509050600360fc1b81600081518110613c1d57613c1d6148a4565b60200101906001600160f81b031916908160001a905350600f60fb1b81600181518110613c4c57613c4c6148a4565b60200101906001600160f81b031916908160001a9053506000613c70846002614e67565b613c7b906001614e7e565b90505b6001811115613cf3576f181899199a1a9b1b9c1cb0b131b232b360811b85600f1660108110613caf57613caf6148a4565b1a60f81b828281518110613cc557613cc56148a4565b60200101906001600160f81b031916908160001a90535060049490941c93613cec81614e91565b9050613c7e565b5083156125b35760405162461bcd60e51b815260206004820181905260248201527f537472696e67733a20686578206c656e67746820696e73756666696369656e746044820152606401611440565b613d4c8282612604565b610ee9576000828152602081815260408083206001600160a01b03851684529091529020805460ff19166001179055613d823390565b6001600160a01b0316816001600160a01b0316837f2f8788117e7eff1d82e926ec794901d17c78024a50270940304540a733656f0d60405160405180910390a45050565b60006125b3836001600160a01b038416613f11565b613de58282612604565b15610ee9576000828152602081815260408083206001600160a01b0385168085529252808320805460ff1916905551339285917ff6391f5c32d9c69d2a47ea670b442974b53935d1edc7fd64eb21e047a839171b9190a45050565b60006125b3836001600160a01b038416613f60565b6000613e68826301ffc9a760e01b613e88565b8015610c265750613e81826001600160e01b0319613e88565b1592915050565b604080516001600160e01b03198316602480830191909152825180830390910181526044909101909152602080820180516001600160e01b03166301ffc9a760e01b178152825160009392849283928392918391908a617530fa92503d91506000519050828015613efa575060208210155b8015613f065750600081115b979650505050505050565b6000818152600183016020526040812054613f5857508154600181810184556000848152602080822090930184905584548482528286019093526040902091909155610c26565b506000610c26565b60008181526001830160205260408120548015614049576000613f84600183614dc9565b8554909150600090613f9890600190614dc9565b9050818114613ffd576000866000018281548110613fb857613fb86148a4565b9060005260206000200154905080876000018481548110613fdb57613fdb6148a4565b6000918252602080832090910192909255918252600188019052604090208390555b855486908061400e5761400e614ddc565b600190038181906000526020600020016000905590558560010160008681526020019081526020016000206000905560019350505050610c26565b6000915050610c26565b50805461405f90614975565b6000825580601f1061406f575050565b601f01602090049060005260206000209081019061140591905b8082111561409d5760008155600101614089565b5090565b6000602082840312156140b357600080fd5b81356001600160e01b0319811681146125b357600080fd5b634e487b7160e01b600052604160045260246000fd5b604080519081016001600160401b0381118282101715614103576141036140cb565b60405290565b604051601f8201601f191681016001600160401b0381118282101715614131576141316140cb565b604052919050565b60006001600160401b03821115614152576141526140cb565b5060051b60200190565b6001600160a01b038116811461140557600080fd5b600082601f83011261418257600080fd5b8135602061419761419283614139565b614109565b8083825260208201915060208460051b8701019350868411156141b957600080fd5b602086015b848110156141de5780356141d18161415c565b83529183019183016141be565b509695505050505050565b6000602082840312156141fb57600080fd5b81356001600160401b0381111561421157600080fd5b61421d84828501614171565b949350505050565b60006020828403121561423757600080fd5b81356125b38161415c565b60006020828403121561425457600080fd5b5035919050565b801515811461140557600080fd5b6000806040838503121561427c57600080fd5b82356142878161415c565b915060208301356142978161425b565b809150509250929050565b600080604083850312156142b557600080fd5b82356001600160401b03808211156142cc57600080fd5b6142d886838701614171565b93506020915081850135818111156142ef57600080fd5b85019050601f8101861361430257600080fd5b803561431061419282614139565b81815260059190911b8201830190838101908883111561432f57600080fd5b928401925b8284101561434d57833582529284019290840190614334565b80955050505050509250929050565b60008151808452602080850194506020840160005b838110156143965781516001600160a01b031687529582019590820190600101614371565b509495945050505050565b6020815260006125b3602083018461435c565b6005811061140557600080fd5b6000602082840312156143d357600080fd5b81356125b3816143b4565b600080604083850312156143f157600080fd5b8235915060208301356142978161415c565b60006020828403121561441557600080fd5b81356125b38161425b565b60ff8116811461140557600080fd5b6000806040838503121561444257600080fd5b82356001600160401b038082111561445957600080fd5b61446586838701614171565b935060209150818501358181111561447c57600080fd5b85019050601f8101861361448f57600080fd5b803561449d61419282614139565b81815260059190911b820183019083810190888311156144bc57600080fd5b928401925b8284101561434d5783356144d481614420565b825292840192908401906144c1565b6001600160401b038116811461140557600080fd5b6000806040838503121561450b57600080fd5b8235614516816144e3565b91506020830135614297816144e3565b6000806040838503121561453957600080fd5b82356145448161415c565b9150602083013561429781614420565b60005b8381101561456f578181015183820152602001614557565b50506000910152565b6020815260008251806020840152614597816040850160208701614554565b601f01601f19169190910160400192915050565b600080604083850312156145be57600080fd5b82356145c98161415c565b946020939093013593505050565b60008083601f8401126145e957600080fd5b5081356001600160401b0381111561460057600080fd5b60208301915083602082850101111561461857600080fd5b9250929050565b60008060006040848603121561463457600080fd5b83356001600160401b0381111561464a57600080fd5b614656868287016145d7565b909450925050602084013561466a8161415c565b809150509250925092565b6000806020838503121561468857600080fd5b82356001600160401b0381111561469e57600080fd5b6146aa858286016145d7565b90969095509350505050565b600080604083850312156146c957600080fd5b50508035926020909101359150565b600080604083850312156146eb57600080fd5b82356001600160401b0381111561470157600080fd5b61470d85828601614171565b925050602083013561429781614420565b6000806040838503121561473157600080fd5b82356001600160401b0381111561474757600080fd5b61475385828601614171565b95602094909401359450505050565b60008151808452602080850194506020840160005b8381101561439657815187529582019590820190600101614777565b6020815260006125b36020830184614762565b602080825282518282018190526000919060409081850190868401855b828110156147f557815180516001600160401b03908116865290870151168685015292840192908501906001016147c3565b5091979650505050505050565b600080600080600080600080610100898b03121561481f57600080fd5b883561482a8161415c565b9750602089013561483a8161415c565b9650604089013561484a8161415c565b955060608901359450608089013561ffff8116811461486857600080fd5b935060a0890135925060c089013561487f816143b4565b915060e08901356002811061489357600080fd5b809150509295985092959890939650565b634e487b7160e01b600052603260045260246000fd5b6040815260006148cd604083018561435c565b82810360208401526148df8185614762565b95945050505050565b634e487b7160e01b600052602160045260246000fd5b604081526000614911604083018561435c565b82810360208481019190915284518083528582019282019060005b8181101561494b57845160ff168352938301939183019160010161492c565b5090979650505050505050565b60006020828403121561496a57600080fd5b81516125b381614420565b600181811c9082168061498957607f821691505b6020821081036149a957634e487b7160e01b600052602260045260246000fd5b50919050565b8183823760009101908152919050565b601f821115610d2b576000816000526020600020601f850160051c810160208610156149e85750805b601f850160051c820191505b81811015611637578281556001016149f4565b6001600160401b03831115614a1e57614a1e6140cb565b614a3283614a2c8354614975565b836149bf565b6000601f841160018114614a665760008515614a4e5750838201355b600019600387901b1c1916600186901b178355614ac0565b600083815260209020601f19861690835b82811015614a975786850135825560209485019460019092019101614a77565b5086821015614ab45760001960f88860031b161c19848701351681555b505060018560011b0183555b5050505050565b600060208284031215614ad957600080fd5b81516125b38161415c565b6040815282604082015282846060830137600060608483018101919091526001600160a01b03929092166020820152601f909201601f191690910101919050565b604081526000614b38604083018561435c565b905060ff831660208301529392505050565b604081526000614b5d604083018561435c565b90508260208301529392505050565b60006020808385031215614b7f57600080fd5b82516001600160401b03811115614b9557600080fd5b8301601f81018513614ba657600080fd5b8051614bb461419282614139565b81815260059190911b82018301908381019087831115614bd357600080fd5b928401925b82841015613f0657835182529284019290840190614bd8565b600060208284031215614c0357600080fd5b81516125b38161425b565b60006020808385031215614c2157600080fd5b82516001600160401b03811115614c3757600080fd5b8301601f81018513614c4857600080fd5b8051614c5661419282614139565b81815260069190911b82018301908381019087831115614c7557600080fd5b928401925b82841015613f065760408489031215614c935760008081fd5b614c9b6140e1565b8451614ca6816144e3565b815284860151614cb5816144e3565b8187015282526040939093019290840190614c7a565b6001600160a01b0389811682528881166020830152871660408201526060810186905261ffff8516608082015260a08101849052610100810160058410614d1457614d146148e8565b8360c083015260028310614d2a57614d2a6148e8565b8260e08301529998505050505050505050565b6000808354614d4b81614975565b60018281168015614d635760018114614d7857614da7565b60ff1984168752821515830287019450614da7565b8760005260208060002060005b85811015614d9e5781548a820152908401908201614d85565b50505082870194505b50929695505050505050565b634e487b7160e01b600052601160045260246000fd5b81810381811115610c2657610c26614db3565b634e487b7160e01b600052603160045260246000fd5b7f416363657373436f6e74726f6c3a206163636f756e7420000000000000000000815260008351614e2a816017850160208801614554565b7001034b99036b4b9b9b4b733903937b6329607d1b6017918401918201528351614e5b816028840160208801614554565b01602801949350505050565b8082028115828204841417610c2657610c26614db3565b80820180821115610c2657610c26614db3565b600081614ea057614ea0614db3565b50600019019056fe870ee5500b98ca09b5fcd7de4a95293916740021c92172d268dad85baec3c85f371a0078bf8859908953848339bea5f1d5775487f6c2f50fd279fcc2cafd8c602104bd22bc71f1a868806c22aa1905dad25555696bbf4456c5b464b8d55f73355ff038c4899bb7fbbc7cf40ef4accece5ebd324c2da5ab7db2c3b81e845e2a7a5cb9147a971eae9c63c04beb424326d7db091a71473987979b49bb1e189f34577613a25ecc738585a232ad50a301178f12b3ba8887d13e138b523c4269c4768916c600d7bfbb199b1bbbaaec72d225e1b669f7d0c812d7cafcf00672fb42b30da264697066735822122020595692c80f4ea06fbab6a4ab6c48aed91973f7c945dfe2cf25e57334f0e6af64736f6c6343000818003360a060405234801561001057600080fd5b5060405161099c38038061099c83398101604081905261002f916100a4565b8061003933610054565b6001600160a01b031660805261004e81610054565b506100d4565b600080546001600160a01b038381166001600160a01b0319831681178455604051919092169283917f8be0079c531659141344cd1fd0a4f28419497f9722a3daafe3b4186f6b6457e09190a35050565b6000602082840312156100b657600080fd5b81516001600160a01b03811681146100cd57600080fd5b9392505050565b60805161088a610112600039600081816101b9015281816102030152818161024a0152818161032e015281816103af01526103f6015261088a6000f3fe608060405234801561001057600080fd5b50600436106100b45760003560e01c8063b5ed298a11610071578063b5ed298a14610186578063bd9b6d8614610199578063c4740a95146101a1578063d3d24c9b146101b4578063e89b0e1e146101db578063f2fde38b146101ee57600080fd5b806311b09110146100b95780631bf974f3146100fa57806354fd4d501461010f5780635e5c06e214610136578063715018a6146101595780638da5cb5b14610161575b600080fd5b6100e56100c736600461076a565b6001600160a01b031660009081526003602052604090205460ff1690565b60405190151581526020015b60405180910390f35b61010d61010836600461079a565b610201565b005b60408051808201825260058152640312e312e360dc1b602082015290516100f191906107bb565b6100e561014436600461076a565b60036020526000908152604090205460ff1681565b61010d610399565b6000546001600160a01b03165b6040516001600160a01b0390911681526020016100f1565b61010d61019436600461076a565b6103ad565b61010d61050d565b61010d6101af36600461076a565b610576565b61016e7f000000000000000000000000000000000000000000000000000000000000000081565b61010d6101e936600461076a565b6105c7565b61010d6101fc36600461076a565b610642565b7f00000000000000000000000000000000000000000000000000000000000000006001600160a01b0316610248576040516371724ffd60e01b815260040160405180910390fd5b7f00000000000000000000000000000000000000000000000000000000000000006001600160a01b03811663c3c2ebbb336040516001600160e01b031960e084901b1681526001600160a01b039091166004820152602401602060405180830381865afa1580156102bd573d6000803e3d6000fd5b505050506040513d601f19601f820116820180604052508101906102e1919061080a565b1580156102f957506000546001600160a01b03163314155b156103175760405163054f3a3160e31b815260040160405180910390fd5b604051632b124b7960e01b81526001600160a01b037f00000000000000000000000000000000000000000000000000000000000000001690632b124b799061036390859060040161082c565b600060405180830381600087803b15801561037d57600080fd5b505af1158015610391573d6000803e3d6000fd5b505050505050565b6103a16106c0565b6103ab600061071a565b565b7f00000000000000000000000000000000000000000000000000000000000000006001600160a01b03166103f4576040516371724ffd60e01b815260040160405180910390fd5b7f00000000000000000000000000000000000000000000000000000000000000006001600160a01b03811663c3c2ebbb336040516001600160e01b031960e084901b1681526001600160a01b039091166004820152602401602060405180830381865afa158015610469573d6000803e3d6000fd5b505050506040513d601f19601f8201168201806040525081019061048d919061080a565b1580156104a557506000546001600160a01b03163314155b156104c35760405163054f3a3160e31b815260040160405180910390fd5b6001600160a01b0382166104ea5760405163d92e233d60e01b815260040160405180910390fd5b50600180546001600160a01b0319166001600160a01b0392909216919091179055565b6001546001600160a01b03166105365760405163821e0eeb60e01b815260040160405180910390fd5b6001546001600160a01b0316331461056157604051634128496760e01b815260040160405180910390fd5b6001546103ab906001600160a01b031661071a565b61057e6106c0565b6001600160a01b038116600081815260036020526040808220805460ff19169055517fe1e79c30f72a026a8b527caea6eee0683d44301c24cde238b9f7ad9e4b7aa31f9190a250565b6105cf6106c0565b6001600160a01b0381166105f65760405163d92e233d60e01b815260040160405180910390fd5b6001600160a01b038116600081815260036020526040808220805460ff19166001179055517f5e75b6966f794371ba173593326b3afdd7c9ee18c1421f495f3120dd8532d5b09190a250565b61064a6106c0565b6001600160a01b0381166106b45760405162461bcd60e51b815260206004820152602660248201527f4f776e61626c653a206e6577206f776e657220697320746865207a65726f206160448201526564647265737360d01b60648201526084015b60405180910390fd5b6106bd8161071a565b50565b6000546001600160a01b031633146103ab5760405162461bcd60e51b815260206004820181905260248201527f4f776e61626c653a2063616c6c6572206973206e6f7420746865206f776e657260448201526064016106ab565b600080546001600160a01b038381166001600160a01b0319831681178455604051919092169283917f8be0079c531659141344cd1fd0a4f28419497f9722a3daafe3b4186f6b6457e09190a35050565b60006020828403121561077c57600080fd5b81356001600160a01b038116811461079357600080fd5b9392505050565b6000602082840312156107ac57600080fd5b81356005811061079357600080fd5b60006020808352835180602085015260005b818110156107e9578581018301518582016040015282016107cd565b506000604082860101526040601f19601f8301168501019250505092915050565b60006020828403121561081c57600080fd5b8151801515811461079357600080fd5b602081016005831061084e57634e487b7160e01b600052602160045260246000fd5b9190529056fea26469706673582212208d8a7b73255eb5cc2f434666a29aac1ff64130b609d4365b4c4df8488360484b64736f6c6343000818003360a060405234801561001057600080fd5b50604051610deb380380610deb83398101604081905261002f916100a4565b8061003933610054565b6001600160a01b031660805261004e81610054565b506100d4565b600080546001600160a01b038381166001600160a01b0319831681178455604051919092169283917f8be0079c531659141344cd1fd0a4f28419497f9722a3daafe3b4186f6b6457e09190a35050565b6000602082840312156100b657600080fd5b81516001600160a01b03811681146100cd57600080fd5b9392505050565b608051610cd96101126000396000818161022a01528181610261015281816102a80152818161038c0152818161067f01526106c60152610cd96000f3fe608060405234801561001057600080fd5b50600436106100ea5760003560e01c80638da5cb5b1161008c578063b5ed298a11610066578063b5ed298a1461020a578063bd9b6d861461021d578063d3d24c9b14610225578063f2fde38b1461024c57600080fd5b80638da5cb5b146101bf578063964700c8146101e4578063aa0c8a7b146101f757600080fd5b806354fd4d50116100c857806354fd4d50146101515780635bc008a0146101785780636aa806a7146101a4578063715018a6146101b757600080fd5b80631bf974f3146100ef578063417b0dd91461010457806347082db314610117575b600080fd5b6101026100fd366004610969565b61025f565b005b610102610112366004610a9f565b6103f7565b61013a610125366004610b61565b60036020526000908152604090205460ff1681565b60405160ff90911681526020015b60405180910390f35b60408051808201825260058152640312e312e360dc1b602082015290516101489190610b7c565b61013a610186366004610b61565b6001600160a01b031660009081526003602052604090205460ff1690565b6101026101b2366004610b61565b610475565b6101026104c6565b6000546001600160a01b03165b6040516001600160a01b039091168152602001610148565b6101026101f2366004610bcb565b6104da565b610102610205366004610c19565b6105cf565b610102610218366004610b61565b61067d565b6101026107dd565b6101cc7f000000000000000000000000000000000000000000000000000000000000000081565b61010261025a366004610b61565b610846565b7f00000000000000000000000000000000000000000000000000000000000000006001600160a01b03166102a6576040516371724ffd60e01b815260040160405180910390fd5b7f00000000000000000000000000000000000000000000000000000000000000006001600160a01b03811663c3c2ebbb336040516001600160e01b031960e084901b1681526001600160a01b039091166004820152602401602060405180830381865afa15801561031b573d6000803e3d6000fd5b505050506040513d601f19601f8201168201806040525081019061033f9190610c43565b15801561035757506000546001600160a01b03163314155b156103755760405163054f3a3160e31b815260040160405180910390fd5b604051632b124b7960e01b81526001600160a01b037f00000000000000000000000000000000000000000000000000000000000000001690632b124b79906103c1908590600401610c65565b600060405180830381600087803b1580156103db57600080fd5b505af11580156103ef573d6000803e3d6000fd5b505050505050565b6103ff6108bf565b81518151146104205760405162514d8b60e31b815260040160405180910390fd5b60005b82518110156104705761046883828151811061044157610441610c8d565b602002602001015183838151811061045b5761045b610c8d565b60200260200101516105cf565b600101610423565b505050565b61047d6108bf565b6001600160a01b038116600081815260036020526040808220805460ff19169055517f276cf99114a46d5939685dde45049a35ff9b38ba6159453582924455c249a58b9190a250565b6104ce6108bf565b6104d86000610919565b565b6104e26108bf565b60048160ff1611156105115760405163fd12da9160e01b815260ff821660048201526024015b60405180910390fd5b60005b825181101561047057816003600085848151811061053457610534610c8d565b60200260200101516001600160a01b03166001600160a01b0316815260200190815260200160002060006101000a81548160ff021916908360ff1602179055508160ff1683828151811061058a5761058a610c8d565b60200260200101516001600160a01b03167f6925839d9987ab8377392e05897fdc086a53f88d84befbec65e10629628e547960405160405180910390a3600101610514565b6105d76108bf565b60048160ff1611156106015760405163fd12da9160e01b815260ff82166004820152602401610508565b6001600160a01b0382166106285760405163d92e233d60e01b815260040160405180910390fd5b6001600160a01b038216600081815260036020526040808220805460ff191660ff861690811790915590519092917f6925839d9987ab8377392e05897fdc086a53f88d84befbec65e10629628e547991a35050565b7f00000000000000000000000000000000000000000000000000000000000000006001600160a01b03166106c4576040516371724ffd60e01b815260040160405180910390fd5b7f00000000000000000000000000000000000000000000000000000000000000006001600160a01b03811663c3c2ebbb336040516001600160e01b031960e084901b1681526001600160a01b039091166004820152602401602060405180830381865afa158015610739573d6000803e3d6000fd5b505050506040513d601f19601f8201168201806040525081019061075d9190610c43565b15801561077557506000546001600160a01b03163314155b156107935760405163054f3a3160e31b815260040160405180910390fd5b6001600160a01b0382166107ba5760405163d92e233d60e01b815260040160405180910390fd5b50600180546001600160a01b0319166001600160a01b0392909216919091179055565b6001546001600160a01b03166108065760405163821e0eeb60e01b815260040160405180910390fd5b6001546001600160a01b0316331461083157604051634128496760e01b815260040160405180910390fd5b6001546104d8906001600160a01b0316610919565b61084e6108bf565b6001600160a01b0381166108b35760405162461bcd60e51b815260206004820152602660248201527f4f776e61626c653a206e6577206f776e657220697320746865207a65726f206160448201526564647265737360d01b6064820152608401610508565b6108bc81610919565b50565b6000546001600160a01b031633146104d85760405162461bcd60e51b815260206004820181905260248201527f4f776e61626c653a2063616c6c6572206973206e6f7420746865206f776e65726044820152606401610508565b600080546001600160a01b038381166001600160a01b0319831681178455604051919092169283917f8be0079c531659141344cd1fd0a4f28419497f9722a3daafe3b4186f6b6457e09190a35050565b60006020828403121561097b57600080fd5b81356005811061098a57600080fd5b9392505050565b634e487b7160e01b600052604160045260246000fd5b604051601f8201601f1916810167ffffffffffffffff811182821017156109d0576109d0610991565b604052919050565b600067ffffffffffffffff8211156109f2576109f2610991565b5060051b60200190565b80356001600160a01b0381168114610a1357600080fd5b919050565b600082601f830112610a2957600080fd5b81356020610a3e610a39836109d8565b6109a7565b8083825260208201915060208460051b870101935086841115610a6057600080fd5b602086015b84811015610a8357610a76816109fc565b8352918301918301610a65565b509695505050505050565b803560ff81168114610a1357600080fd5b60008060408385031215610ab257600080fd5b823567ffffffffffffffff80821115610aca57600080fd5b610ad686838701610a18565b9350602091508185013581811115610aed57600080fd5b85019050601f81018613610b0057600080fd5b8035610b0e610a39826109d8565b81815260059190911b82018301908381019088831115610b2d57600080fd5b928401925b82841015610b5257610b4384610a8e565b82529284019290840190610b32565b80955050505050509250929050565b600060208284031215610b7357600080fd5b61098a826109fc565b60006020808352835180602085015260005b81811015610baa57858101830151858201604001528201610b8e565b506000604082860101526040601f19601f8301168501019250505092915050565b60008060408385031215610bde57600080fd5b823567ffffffffffffffff811115610bf557600080fd5b610c0185828601610a18565b925050610c1060208401610a8e565b90509250929050565b60008060408385031215610c2c57600080fd5b610c35836109fc565b9150610c1060208401610a8e565b600060208284031215610c5557600080fd5b8151801515811461098a57600080fd5b6020810160058310610c8757634e487b7160e01b600052602160045260246000fd5b91905290565b634e487b7160e01b600052603260045260246000fdfea2646970667358221220a3c4649319866c4070619bc3388f2faefcabff16a3b71e0a3901143fbf77585864736f6c6343000818003360a060405234801561001057600080fd5b50604051610e0a380380610e0a83398101604081905261002f916100a4565b8061003933610054565b6001600160a01b031660805261004e81610054565b506100d4565b600080546001600160a01b038381166001600160a01b0319831681178455604051919092169283917f8be0079c531659141344cd1fd0a4f28419497f9722a3daafe3b4186f6b6457e09190a35050565b6000602082840312156100b657600080fd5b81516001600160a01b03811681146100cd57600080fd5b9392505050565b608051610cf861011260003960008181610202015281816102b6015281816102fd015281816103e10152818161069e01526106e50152610cf86000f3fe608060405234801561001057600080fd5b50600436106100ea5760003560e01c806390d5a92c1161008c578063bd9b6d8611610066578063bd9b6d86146101f5578063d3d24c9b146101fd578063dc08706d14610224578063f2fde38b1461025057600080fd5b806390d5a92c146101bc57806398575614146101cf578063b5ed298a146101e257600080fd5b806354fd4d50116100c857806354fd4d501461012a578063715018a61461015a57806376dd110f146101625780638da5cb5b1461019757600080fd5b80630daf978e146100ef5780631bf974f3146101045780634d98c79e14610117575b600080fd5b6101026100fd3660046109a4565b610263565b005b6101026101123660046109c6565b6102b4565b610102610125366004610ad9565b61044c565b60408051808201825260058152640312e312e360dc1b602082015290516101519190610b9b565b60405180910390f35b6101026104ca565b6101856101703660046109a4565b60036020526000908152604090205460ff1681565b60405160ff9091168152602001610151565b6000546001600160a01b03165b6040516001600160a01b039091168152602001610151565b6101026101ca366004610bea565b6104de565b6101026101dd366004610c38565b6105e3565b6101026101f03660046109a4565b61069c565b6101026107fc565b6101a47f000000000000000000000000000000000000000000000000000000000000000081565b6101856102323660046109a4565b6001600160a01b031660009081526003602052604090205460ff1690565b61010261025e3660046109a4565b610865565b61026b6108de565b6001600160a01b038116600081815260036020526040808220805460ff19169055517f21bb12bd10a218d68f0503025a9b700b4f3b7f84911a732adfe38e1c83b600439190a250565b7f00000000000000000000000000000000000000000000000000000000000000006001600160a01b03166102fb576040516371724ffd60e01b815260040160405180910390fd5b7f00000000000000000000000000000000000000000000000000000000000000006001600160a01b03811663c3c2ebbb336040516001600160e01b031960e084901b1681526001600160a01b039091166004820152602401602060405180830381865afa158015610370573d6000803e3d6000fd5b505050506040513d601f19601f820116820180604052508101906103949190610c62565b1580156103ac57506000546001600160a01b03163314155b156103ca5760405163054f3a3160e31b815260040160405180910390fd5b604051632b124b7960e01b81526001600160a01b037f00000000000000000000000000000000000000000000000000000000000000001690632b124b7990610416908590600401610c84565b600060405180830381600087803b15801561043057600080fd5b505af1158015610444573d6000803e3d6000fd5b505050505050565b6104546108de565b81518151146104755760405162514d8b60e31b815260040160405180910390fd5b60005b82518110156104c5576104bd83828151811061049657610496610cac565b60200260200101518383815181106104b0576104b0610cac565b60200260200101516105e3565b600101610478565b505050565b6104d26108de565b6104dc6000610938565b565b6104e66108de565b606460ff821611156105155760405163b3cbc6f360e01b815260ff821660048201526024015b60405180910390fd5b60005b82518110156104c557816003600085848151811061053857610538610cac565b60200260200101516001600160a01b03166001600160a01b0316815260200190815260200160002060006101000a81548160ff021916908360ff16021790555082818151811061058a5761058a610cac565b60200260200101516001600160a01b03167fd668a759494e00d1fde4393bb06c8012cfbbcc06aaf0522589c76c13eb23208f836040516105d3919060ff91909116815260200190565b60405180910390a2600101610518565b6105eb6108de565b606460ff821611156106155760405163b3cbc6f360e01b815260ff8216600482015260240161050c565b6001600160a01b03821661063c5760405163d92e233d60e01b815260040160405180910390fd5b6001600160a01b038216600081815260036020908152604091829020805460ff191660ff861690811790915591519182527fd668a759494e00d1fde4393bb06c8012cfbbcc06aaf0522589c76c13eb23208f910160405180910390a25050565b7f00000000000000000000000000000000000000000000000000000000000000006001600160a01b03166106e3576040516371724ffd60e01b815260040160405180910390fd5b7f00000000000000000000000000000000000000000000000000000000000000006001600160a01b03811663c3c2ebbb336040516001600160e01b031960e084901b1681526001600160a01b039091166004820152602401602060405180830381865afa158015610758573d6000803e3d6000fd5b505050506040513d601f19601f8201168201806040525081019061077c9190610c62565b15801561079457506000546001600160a01b03163314155b156107b25760405163054f3a3160e31b815260040160405180910390fd5b6001600160a01b0382166107d95760405163d92e233d60e01b815260040160405180910390fd5b50600180546001600160a01b0319166001600160a01b0392909216919091179055565b6001546001600160a01b03166108255760405163821e0eeb60e01b815260040160405180910390fd5b6001546001600160a01b0316331461085057604051634128496760e01b815260040160405180910390fd5b6001546104dc906001600160a01b0316610938565b61086d6108de565b6001600160a01b0381166108d25760405162461bcd60e51b815260206004820152602660248201527f4f776e61626c653a206e6577206f776e657220697320746865207a65726f206160448201526564647265737360d01b606482015260840161050c565b6108db81610938565b50565b6000546001600160a01b031633146104dc5760405162461bcd60e51b815260206004820181905260248201527f4f776e61626c653a2063616c6c6572206973206e6f7420746865206f776e6572604482015260640161050c565b600080546001600160a01b038381166001600160a01b0319831681178455604051919092169283917f8be0079c531659141344cd1fd0a4f28419497f9722a3daafe3b4186f6b6457e09190a35050565b80356001600160a01b038116811461099f57600080fd5b919050565b6000602082840312156109b657600080fd5b6109bf82610988565b9392505050565b6000602082840312156109d857600080fd5b8135600581106109bf57600080fd5b634e487b7160e01b600052604160045260246000fd5b604051601f8201601f1916810167ffffffffffffffff81118282101715610a2657610a266109e7565b604052919050565b600067ffffffffffffffff821115610a4857610a486109e7565b5060051b60200190565b600082601f830112610a6357600080fd5b81356020610a78610a7383610a2e565b6109fd565b8083825260208201915060208460051b870101935086841115610a9a57600080fd5b602086015b84811015610abd57610ab081610988565b8352918301918301610a9f565b509695505050505050565b803560ff8116811461099f57600080fd5b60008060408385031215610aec57600080fd5b823567ffffffffffffffff80821115610b0457600080fd5b610b1086838701610a52565b9350602091508185013581811115610b2757600080fd5b85019050601f81018613610b3a57600080fd5b8035610b48610a7382610a2e565b81815260059190911b82018301908381019088831115610b6757600080fd5b928401925b82841015610b8c57610b7d84610ac8565b82529284019290840190610b6c565b80955050505050509250929050565b60006020808352835180602085015260005b81811015610bc957858101830151858201604001528201610bad565b506000604082860101526040601f19601f8301168501019250505092915050565b60008060408385031215610bfd57600080fd5b823567ffffffffffffffff811115610c1457600080fd5b610c2085828601610a52565b925050610c2f60208401610ac8565b90509250929050565b60008060408385031215610c4b57600080fd5b610c5483610988565b9150610c2f60208401610ac8565b600060208284031215610c7457600080fd5b815180151581146109bf57600080fd5b6020810160058310610ca657634e487b7160e01b600052602160045260246000fd5b91905290565b634e487b7160e01b600052603260045260246000fdfea264697066735822122040fcd7946f1d44bd8868e16c1f1cca36af424063e759782436d971ffb647f4d164736f6c6343000818003360a060405234801561001057600080fd5b506040516112e93803806112e983398101604081905261002f916100a4565b8061003933610054565b6001600160a01b031660805261004e81610054565b506100d4565b600080546001600160a01b038381166001600160a01b0319831681178455604051919092169283917f8be0079c531659141344cd1fd0a4f28419497f9722a3daafe3b4186f6b6457e09190a35050565b6000602082840312156100b657600080fd5b81516001600160a01b03811681146100cd57600080fd5b9392505050565b6080516111d76101126000396000818161023c01528181610273015281816102ba0152818161039e015281816108eb015261093201526111d76000f3fe608060405234801561001057600080fd5b50600436106100f55760003560e01c8063b315cb3a11610097578063d019577a11610066578063d019577a14610201578063d37373ba14610224578063d3d24c9b14610237578063f2fde38b1461025e57600080fd5b8063b315cb3a146101b3578063b5ed298a146101c6578063bd9b6d86146101d9578063cc812f3a146101e157600080fd5b80635eafd108116100d35780635eafd10814610152578063715018a6146101655780638da5cb5b1461016d578063a81790581461019257600080fd5b80631bf974f3146100fa57806326a119291461010f57806354fd4d5014610122575b600080fd5b61010d610108366004610e0d565b610271565b005b61010d61011d366004610f32565b610409565b60408051808201825260058152640312e312e360dc1b602082015290516101499190610fed565b60405180910390f35b61010d61016036600461103c565b610487565b61010d6105e3565b6000546001600160a01b03165b6040516001600160a01b039091168152602001610149565b6101a56101a036600461103c565b6105f7565b604051908152602001610149565b61010d6101c1366004611066565b610628565b61010d6101d43660046110ab565b6108e9565b61010d610a49565b6101f46101ef3660046110ab565b610ab2565b60405161014991906110c6565b61021461020f36600461103c565b610b1e565b6040519015158152602001610149565b61010d61023236600461103c565b610b4c565b61017a7f000000000000000000000000000000000000000000000000000000000000000081565b61010d61026c3660046110ab565b610ce5565b7f00000000000000000000000000000000000000000000000000000000000000006001600160a01b03166102b8576040516371724ffd60e01b815260040160405180910390fd5b7f00000000000000000000000000000000000000000000000000000000000000006001600160a01b03811663c3c2ebbb336040516001600160e01b031960e084901b1681526001600160a01b039091166004820152602401602060405180830381865afa15801561032d573d6000803e3d6000fd5b505050506040513d601f19601f82011682018060405250810190610351919061110a565b15801561036957506000546001600160a01b03163314155b156103875760405163054f3a3160e31b815260040160405180910390fd5b604051632b124b7960e01b81526001600160a01b037f00000000000000000000000000000000000000000000000000000000000000001690632b124b79906103d390859060040161112c565b600060405180830381600087803b1580156103ed57600080fd5b505af1158015610401573d6000803e3d6000fd5b505050505050565b610411610d63565b80518251146104325760405162514d8b60e31b815260040160405180910390fd5b60005b82518110156104825761047a83828151811061045357610453611154565b602002602001015183838151811061046d5761046d611154565b6020026020010151610487565b600101610435565b505050565b61048f610d63565b806000036104b05760405163d7be2be360e01b815260040160405180910390fd5b6001600160a01b0382166104d75760405163d92e233d60e01b815260040160405180910390fd5b6104e18282610b1e565b1561051e576040516001600160a01b038316907f33a66df9ee2fd21e38fe3deee3babfebcde277451a9acc49ed0ae93c16e3e17290600090a25050565b6001600160a01b038216600090815260036020526040902054600a11610557576040516351d7d97160e11b815260040160405180910390fd5b6001600160a01b03821660008181526003602090815260408083208054600484528285208786528452828520819055600180820183559185528385200186905584845260058352818420868552909252808320805460ff191683179055519092849290917ffff458da2d09c8be67a97dc8c3f8f316c0f1afb907fc6de8d8c191f6bb8ebb0f9190a45050565b6105eb610d63565b6105f56000610dbd565b565b6003602052816000526040600020818154811061061357600080fd5b90600052602060002001600091509150505481565b610630610d63565b806000036106515760405163d7be2be360e01b815260040160405180910390fd5b60005b82518110156104825761068083828151811061067257610672611154565b602002602001015183610b1e565b156106d95782818151811061069757610697611154565b60200260200101516001600160a01b03167f33a66df9ee2fd21e38fe3deee3babfebcde277451a9acc49ed0ae93c16e3e17260405160405180910390a26108e1565b600a60ff16600360008584815181106106f4576106f4611154565b60200260200101516001600160a01b03166001600160a01b03168152602001908152602001600020805490501061073e576040516351d7d97160e11b815260040160405180910390fd5b6003600084838151811061075457610754611154565b60200260200101516001600160a01b03166001600160a01b03168152602001908152602001600020805490506004600085848151811061079657610796611154565b60200260200101516001600160a01b03166001600160a01b03168152602001908152602001600020600084815260200190815260200160002081905550600360008483815181106107e9576107e9611154565b6020908102919091018101516001600160a01b0316825281810192909252604001600090812080546001818101835591835292822090920184905584516005919086908590811061083c5761083c611154565b60200260200101516001600160a01b03166001600160a01b03168152602001908152602001600020600084815260200190815260200160002060006101000a81548160ff02191690831515021790555060011515828483815181106108a3576108a3611154565b60200260200101516001600160a01b03167ffff458da2d09c8be67a97dc8c3f8f316c0f1afb907fc6de8d8c191f6bb8ebb0f60405160405180910390a45b600101610654565b7f00000000000000000000000000000000000000000000000000000000000000006001600160a01b0316610930576040516371724ffd60e01b815260040160405180910390fd5b7f00000000000000000000000000000000000000000000000000000000000000006001600160a01b03811663c3c2ebbb336040516001600160e01b031960e084901b1681526001600160a01b039091166004820152602401602060405180830381865afa1580156109a5573d6000803e3d6000fd5b505050506040513d601f19601f820116820180604052508101906109c9919061110a565b1580156109e157506000546001600160a01b03163314155b156109ff5760405163054f3a3160e31b815260040160405180910390fd5b6001600160a01b038216610a265760405163d92e233d60e01b815260040160405180910390fd5b50600180546001600160a01b0319166001600160a01b0392909216919091179055565b6001546001600160a01b0316610a725760405163821e0eeb60e01b815260040160405180910390fd5b6001546001600160a01b03163314610a9d57604051634128496760e01b815260040160405180910390fd5b6001546105f5906001600160a01b0316610dbd565b6001600160a01b038116600090815260036020908152604091829020805483518184028101840190945280845260609392830182828015610b1257602002820191906000526020600020905b815481526020019060010190808311610afe575b50505050509050919050565b6001600160a01b038216600090815260056020908152604080832084845290915290205460ff165b92915050565b610b54610d63565b610b5e8282610b1e565b15610ccc576001600160a01b03821660009081526003602052604081208054610b899060019061116a565b81548110610b9957610b99611154565b90600052602060002001549050818114610c1f576001600160a01b038316600081815260046020908152604080832086845282528083205493835260039091529020805483919083908110610bf057610bf0611154565b60009182526020808320909101929092556001600160a01b038616815260048252604080822085835290925220555b6001600160a01b0383166000908152600360205260409020805480610c4657610c4661118b565b6000828152602080822083016000199081018390559092019092556001600160a01b0385168083526005825260408084208685528352808420805460ff191690558184526004835280842086855290925281832083905590518491907ffff458da2d09c8be67a97dc8c3f8f316c0f1afb907fc6de8d8c191f6bb8ebb0f908490a4505050565b604051637de8c17d60e01b815260040160405180910390fd5b610ced610d63565b6001600160a01b038116610d575760405162461bcd60e51b815260206004820152602660248201527f4f776e61626c653a206e6577206f776e657220697320746865207a65726f206160448201526564647265737360d01b60648201526084015b60405180910390fd5b610d6081610dbd565b50565b6000546001600160a01b031633146105f55760405162461bcd60e51b815260206004820181905260248201527f4f776e61626c653a2063616c6c6572206973206e6f7420746865206f776e65726044820152606401610d4e565b600080546001600160a01b038381166001600160a01b0319831681178455604051919092169283917f8be0079c531659141344cd1fd0a4f28419497f9722a3daafe3b4186f6b6457e09190a35050565b600060208284031215610e1f57600080fd5b813560058110610e2e57600080fd5b9392505050565b634e487b7160e01b600052604160045260246000fd5b604051601f8201601f1916810167ffffffffffffffff81118282101715610e7457610e74610e35565b604052919050565b600067ffffffffffffffff821115610e9657610e96610e35565b5060051b60200190565b80356001600160a01b0381168114610eb757600080fd5b919050565b600082601f830112610ecd57600080fd5b81356020610ee2610edd83610e7c565b610e4b565b8083825260208201915060208460051b870101935086841115610f0457600080fd5b602086015b84811015610f2757610f1a81610ea0565b8352918301918301610f09565b509695505050505050565b60008060408385031215610f4557600080fd5b823567ffffffffffffffff80821115610f5d57600080fd5b610f6986838701610ebc565b9350602091508185013581811115610f8057600080fd5b85019050601f81018613610f9357600080fd5b8035610fa1610edd82610e7c565b81815260059190911b82018301908381019088831115610fc057600080fd5b928401925b82841015610fde57833582529284019290840190610fc5565b80955050505050509250929050565b60006020808352835180602085015260005b8181101561101b57858101830151858201604001528201610fff565b506000604082860101526040601f19601f8301168501019250505092915050565b6000806040838503121561104f57600080fd5b61105883610ea0565b946020939093013593505050565b6000806040838503121561107957600080fd5b823567ffffffffffffffff81111561109057600080fd5b61109c85828601610ebc565b95602094909401359450505050565b6000602082840312156110bd57600080fd5b610e2e82610ea0565b6020808252825182820181905260009190848201906040850190845b818110156110fe578351835292840192918401916001016110e2565b50909695505050505050565b60006020828403121561111c57600080fd5b81518015158114610e2e57600080fd5b602081016005831061114e57634e487b7160e01b600052602160045260246000fd5b91905290565b634e487b7160e01b600052603260045260246000fd5b81810381811115610b4657634e487b7160e01b600052601160045260246000fd5b634e487b7160e01b600052603160045260246000fdfea264697066735822122020f7363d1abbb45dbdaadd82af123d3cd26d59311a5f9a28c53d3527540aaba764736f6c6343000818003360a060405234801561001057600080fd5b50604051610e69380380610e6983398101604081905261002f916100a4565b8061003933610054565b6001600160a01b031660805261004e81610054565b506100d4565b600080546001600160a01b038381166001600160a01b0319831681178455604051919092169283917f8be0079c531659141344cd1fd0a4f28419497f9722a3daafe3b4186f6b6457e09190a35050565b6000602082840312156100b657600080fd5b81516001600160a01b03811681146100cd57600080fd5b9392505050565b608051610d576101126000396000818161019501528181610300015281816103470152818161042b015281816105fe01526106450152610d576000f3fe608060405234801561001057600080fd5b50600436106100cf5760003560e01c80638da5cb5b1161008c578063d3d24c9b11610066578063d3d24c9b14610190578063d4f93870146101b7578063ddbd94a9146101cc578063f2fde38b146101df57600080fd5b80638da5cb5b14610150578063b5ed298a14610175578063bd9b6d861461018857600080fd5b806312be4100146100d45780631bf974f3146100de5780632d59e38b146100f157806342456e771461010e57806354fd4d5014610121578063715018a614610148575b600080fd5b6100dc6101f2565b005b6100dc6100ec366004610b39565b6102fe565b6100f9610496565b60405190151581526020015b60405180910390f35b6100dc61011c366004610b7d565b6104a8565b60408051808201825260058152640312e312e360dc1b602082015290516101059190610bb0565b6100dc6105e8565b6000546001600160a01b03165b6040516001600160a01b039091168152602001610105565b6100dc610183366004610bff565b6105fc565b6100dc61075c565b61015d7f000000000000000000000000000000000000000000000000000000000000000081565b6101bf6107c5565b6040516101059190610c28565b6100dc6101da366004610b7d565b610843565b6100dc6101ed366004610bff565b610957565b60005b6003548110156102fb575b60035415801590610212575060035481105b801561024c5750426003828154811061022d5761022d610c84565b600091825260209091200154600160401b90046001600160401b031611155b156102f357600015156003828154811061026857610268610c84565b9060005260206000200160000160089054906101000a90046001600160401b03166001600160401b0316600383815481106102a5576102a5610c84565b60009182526020822001546040516001600160401b03909116917fc59968cc6328a09c380b64d3606420afabed418dd4248c157679cbaaa395909891a46102ee8160ff166109cd565b610200565b6001016101f5565b50565b7f00000000000000000000000000000000000000000000000000000000000000006001600160a01b0316610345576040516371724ffd60e01b815260040160405180910390fd5b7f00000000000000000000000000000000000000000000000000000000000000006001600160a01b03811663c3c2ebbb336040516001600160e01b031960e084901b1681526001600160a01b039091166004820152602401602060405180830381865afa1580156103ba573d6000803e3d6000fd5b505050506040513d601f19601f820116820180604052508101906103de9190610c9a565b1580156103f657506000546001600160a01b03163314155b156104145760405163054f3a3160e31b815260040160405180910390fd5b604051632b124b7960e01b81526001600160a01b037f00000000000000000000000000000000000000000000000000000000000000001690632b124b7990610460908590600401610cbc565b600060405180830381600087803b15801561047a57600080fd5b505af115801561048e573d6000803e3d6000fd5b505050505050565b60006104a0610a8f565b506003541590565b6104b0610a8f565b600354600f116104d35760405163d30bd9c560e01b815260040160405180910390fd5b6104db6101f2565b816001600160401b0316816001600160401b0316111580610505575042826001600160401b031611155b1561053b576040516338121a1360e11b81526001600160401b038084166004830152821660248201526044015b60405180910390fd5b6040805180820182526001600160401b03808516808352848216602084018181526003805460018181018355600092835287517fc2575a0e9e593c00f959f8c92f12db2869c3395a3b0502d05e2516446f71f85b909201805494518816600160401b026001600160801b0319909516929097169190911792909217909455945193949390927fc59968cc6328a09c380b64d3606420afabed418dd4248c157679cbaaa395909891a4505050565b6105f0610a8f565b6105fa6000610ae9565b565b7f00000000000000000000000000000000000000000000000000000000000000006001600160a01b0316610643576040516371724ffd60e01b815260040160405180910390fd5b7f00000000000000000000000000000000000000000000000000000000000000006001600160a01b03811663c3c2ebbb336040516001600160e01b031960e084901b1681526001600160a01b039091166004820152602401602060405180830381865afa1580156106b8573d6000803e3d6000fd5b505050506040513d601f19601f820116820180604052508101906106dc9190610c9a565b1580156106f457506000546001600160a01b03163314155b156107125760405163054f3a3160e31b815260040160405180910390fd5b6001600160a01b0382166107395760405163d92e233d60e01b815260040160405180910390fd5b50600180546001600160a01b0319166001600160a01b0392909216919091179055565b6001546001600160a01b03166107855760405163821e0eeb60e01b815260040160405180910390fd5b6001546001600160a01b031633146107b057604051634128496760e01b815260040160405180910390fd5b6001546105fa906001600160a01b0316610ae9565b60606107cf610a8f565b6003805480602002602001604051908101604052809291908181526020016000905b8282101561083a57600084815260209081902060408051808201909152908401546001600160401b038082168352600160401b90910416818301528252600190920191016107f1565b50505050905090565b61084b610a8f565b60005b6003548110156109525760005b6003541580159061086d575060035482105b8015610877575080155b156109495760006003838154811061089157610891610c84565b6000918252602091829020604080518082019091529101546001600160401b03808216808452600160401b9092048116938301939093529092509086161480156108f05750836001600160401b031681602001516001600160401b0316145b1561093e576108fe836109cd565b6040516000906001600160401b0380871691908816907fc59968cc6328a09c380b64d3606420afabed418dd4248c157679cbaaa3959098908490a4610943565b600191505b5061085b565b5060010161084e565b505050565b61095f610a8f565b6001600160a01b0381166109c45760405162461bcd60e51b815260206004820152602660248201527f4f776e61626c653a206e6577206f776e657220697320746865207a65726f206160448201526564647265737360d01b6064820152608401610532565b6102fb81610ae9565b60038054906109dd600183610ce4565b815481106109ed576109ed610c84565b9060005260206000200160038381548110610a0a57610a0a610c84565b600091825260209091208254910180546001600160401b0392831667ffffffffffffffff1982168117835593546001600160801b0319909116909317600160401b938490049092169092021790556003805480610a6957610a69610d0b565b600082815260209020810160001990810180546001600160801b03191690550190555050565b6000546001600160a01b031633146105fa5760405162461bcd60e51b815260206004820181905260248201527f4f776e61626c653a2063616c6c6572206973206e6f7420746865206f776e65726044820152606401610532565b600080546001600160a01b038381166001600160a01b0319831681178455604051919092169283917f8be0079c531659141344cd1fd0a4f28419497f9722a3daafe3b4186f6b6457e09190a35050565b600060208284031215610b4b57600080fd5b813560058110610b5a57600080fd5b9392505050565b80356001600160401b0381168114610b7857600080fd5b919050565b60008060408385031215610b9057600080fd5b610b9983610b61565b9150610ba760208401610b61565b90509250929050565b60006020808352835180602085015260005b81811015610bde57858101830151858201604001528201610bc2565b506000604082860101526040601f19601f8301168501019250505092915050565b600060208284031215610c1157600080fd5b81356001600160a01b0381168114610b5a57600080fd5b602080825282518282018190526000919060409081850190868401855b82811015610c7757815180516001600160401b0390811686529087015116868501529284019290850190600101610c45565b5091979650505050505050565b634e487b7160e01b600052603260045260246000fd5b600060208284031215610cac57600080fd5b81518015158114610b5a57600080fd5b6020810160058310610cde57634e487b7160e01b600052602160045260246000fd5b91905290565b81810381811115610d0557634e487b7160e01b600052601160045260246000fd5b92915050565b634e487b7160e01b600052603160045260246000fdfea2646970667358221220f8037e7e39cb99ec3a78369504217b092f439ee3c6e0626cb6b3b28d84ca07ae64736f6c63430008180033371a0078bf8859908953848339bea5f1d5775487f6c2f50fd279fcc2cafd8c607613a25ecc738585a232ad50a301178f12b3ba8887d13e138b523c4269c4768960e06040523480156200001157600080fd5b50604051620033ac380380620033ac83398101604081905262000034916200022d565b81816200004133620000df565b6001600160a01b03821615806200005f57506001600160a01b038116155b156200007e5760405163d92e233d60e01b815260040160405180910390fd5b6001600160a01b0380821660a0819052608052821660c052620000a1816200012f565b6040516001600160a01b038216907fd9d32d40998e72ec09851d13136a1ad3540169ed55383f684732ec00c981a65890600090a25050505062000265565b600080546001600160a01b038381166001600160a01b0319831681178455604051919092169283917f8be0079c531659141344cd1fd0a4f28419497f9722a3daafe3b4186f6b6457e09190a35050565b62000139620001b2565b6001600160a01b038116620001a45760405162461bcd60e51b815260206004820152602660248201527f4f776e61626c653a206e6577206f776e657220697320746865207a65726f206160448201526564647265737360d01b60648201526084015b60405180910390fd5b620001af81620000df565b50565b6000546001600160a01b031633146200020e5760405162461bcd60e51b815260206004820181905260248201527f4f776e61626c653a2063616c6c6572206973206e6f7420746865206f776e657260448201526064016200019b565b565b80516001600160a01b03811681146200022857600080fd5b919050565b600080604083850312156200024157600080fd5b6200024c8362000210565b91506200025c6020840162000210565b90509250929050565b60805160a05160c05161304c6200036060003960008181610b09015281816113b50152818161184f0152818161197b01528181611d190152818161230001528181612434015281816124fc015281816125d201528181612805015281816128a801526129ea0152600081816103c00152818161052a015281816106a60152818161089001528181610a1201528181610fe00152818161113d015281816112be0152818161147c015281816115dc01528181611758015281816119530152611c22015260008181610bf801528181612143015281816121d501528181612276015281816123960152818161269e0152612730015261304c6000f3fe608060405234801561001057600080fd5b50600436106101f05760003560e01c80639e046ae51161010f578063c7eb9329116100a2578063f142a46f11610071578063f142a46f14610464578063f2fde38b14610477578063fc8107d71461048a578063fcd6a74b1461049d57600080fd5b8063c7eb93291461041d578063cc97d48c14610430578063dd3abd7714610443578063e259a5071461045157600080fd5b8063b9b508d1116100de578063b9b508d1146103bb578063c3eaadd9146103e2578063c3fcc14b146103f5578063c710b2481461040857600080fd5b80639e046ae51461036e578063a45ce1e414610380578063b5772fe614610393578063b5a9e8d0146103a557600080fd5b806354fd4d50116101875780637f806985116101565780637f8069851461030357806386770470146103295780638da5cb5b1461034a5780639c9a2b9d1461035b57600080fd5b806354fd4d5014610296578063636bc698146102bd578063715018a6146102d057806376904701146102d857600080fd5b806313afc340116101c357806313afc3401461024c5780631b2397da1461025e57806327847698146102715780633c266a1a1461028357600080fd5b8063064ce874146101f557806308ba23fb146102125780630a78b202146102245780630d32ecfb14610239575b600080fd5b6101fd6104af565b60405190151581526020015b60405180910390f35b600154600160501b900460ff166101fd565b610237610232366004612af4565b610528565b005b610237610247366004612b26565b6106a4565b600054600160e01b900460ff166101fd565b61023761026c366004612af4565b610811565b600054600160e81b900460ff166101fd565b610237610291366004612af4565b61088e565b60408051808201825260058152640312e312e360dc1b602082015290516102099190612b43565b6102376102cb366004612b92565b610a10565b610237610bdf565b6004546102eb906001600160a01b031681565b6040516001600160a01b039091168152602001610209565b600054600160c01b900463ffffffff165b60405163ffffffff9091168152602001610209565b61033c610337366004612bb8565b610bf3565b604051908152602001610209565b6000546001600160a01b03166102eb565b6003546102eb906001600160a01b031681565b600154600160581b900460ff166101fd565b61023761038e366004612b26565b610fde565b600154600160481b900460ff166101fd565b600154640100000000900463ffffffff16610314565b6102eb7f000000000000000000000000000000000000000000000000000000000000000081565b6102376103f0366004612af4565b61113b565b610237610403366004612b92565b6112bc565b600054600160a01b900463ffffffff16610314565b61023761042b366004612af4565b61147a565b61023761043e366004612af4565b6115da565b60015463ffffffff16610314565b61023761045f366004612b92565b611756565b610237610472366004612be4565b61191a565b610237610485366004612b26565b611ba5565b610237610498366004612b92565b611c20565b600154600160401b900460ff166101fd565b600154600090600160581b900460ff16806104d35750600054600160e01b900460ff165b806104e75750600054600160e81b900460ff165b806104fb5750600154600160401b900460ff165b8061050f5750600154600160501b900460ff165b806105235750600154600160481b900460ff165b905090565b7f00000000000000000000000000000000000000000000000000000000000000006001600160a01b038116610570576040516371724ffd60e01b815260040160405180910390fd5b806001600160a01b03811663d4a7db7f336040516001600160e01b031960e084901b1681526001600160a01b039091166004820152602401602060405180830381865afa1580156105c5573d6000803e3d6000fd5b505050506040513d601f19601f820116820180604052508101906105e99190612c8a565b61060657604051631acd860160e31b815260040160405180910390fd5b6001805484158015600160501b0260ff60501b1990921691909117909155610666576040517f4143435f4d41585f56414c55455f4f55545f4143434553535f4c4556454c000090600080516020612fd783398151915290600090a2505050565b6040517f4143435f4d41585f56414c55455f4f55545f4143434553535f4c4556454c000090600080516020612ff783398151915290600090a2505050565b7f00000000000000000000000000000000000000000000000000000000000000006001600160a01b0381166106ec576040516371724ffd60e01b815260040160405180910390fd5b806001600160a01b03811663d4a7db7f336040516001600160e01b031960e084901b1681526001600160a01b039091166004820152602401602060405180830381865afa158015610741573d6000803e3d6000fd5b505050506040513d601f19601f820116820180604052508101906107659190612c8a565b61078257604051631acd860160e31b815260040160405180910390fd5b6001600160a01b0383166107a95760405163d92e233d60e01b815260040160405180910390fd5b600380546001600160a01b0319166001600160a01b038516908117909155600180546bffffffffffffffffffffffff16600160601b83021790556040517f88da69b89525943a04b87e31ed06ced91c8251583fc2e63a2f6e24f157b5a30790600090a2505050565b610819611df5565b6001805482158015600160581b0260ff60581b1990921691909117909155610864576040516950415553455f52554c4560b01b90600080516020612fd783398151915290600090a250565b6040516950415553455f52554c4560b01b90600080516020612ff783398151915290600090a25b50565b7f00000000000000000000000000000000000000000000000000000000000000006001600160a01b0381166108d6576040516371724ffd60e01b815260040160405180910390fd5b806001600160a01b03811663d4a7db7f336040516001600160e01b031960e084901b1681526001600160a01b039091166004820152602401602060405180830381865afa15801561092b573d6000803e3d6000fd5b505050506040513d601f19601f8201168201806040525081019061094f9190612c8a565b61096c57604051631acd860160e31b815260040160405180910390fd5b6001805484158015600160481b0269ff00000000000000000019909216919091179091556109d2576040517f4143434f554e545f44454e595f464f525f4e4f5f4143434553535f4c4556454c90600080516020612fd783398151915290600090a2505050565b6040517f4143434f554e545f44454e595f464f525f4e4f5f4143434553535f4c4556454c90600080516020612ff783398151915290600090a2505050565b7f00000000000000000000000000000000000000000000000000000000000000006001600160a01b038116610a58576040516371724ffd60e01b815260040160405180910390fd5b806001600160a01b03811663d4a7db7f336040516001600160e01b031960e084901b1681526001600160a01b039091166004820152602401602060405180830381865afa158015610aad573d6000803e3d6000fd5b505050506040513d601f19601f82011682018060405250810190610ad19190612c8a565b610aee57604051631acd860160e31b815260040160405180910390fd5b60405163edc3189d60e01b815263ffffffff841660048201527f00000000000000000000000000000000000000000000000000000000000000006001600160a01b03169063edc3189d9060240160006040518083038186803b158015610b5357600080fd5b505afa158015610b67573d6000803e3d6000fd5b50506000805460ff60e81b1963ffffffff8816600160c01b81029190911665ff00ffffffff60c01b1990921691909117600160e81b1782556040519093507f4143435f4d41585f54585f56414c55455f42595f5249534b5f53434f524500009250600080516020612fb78339815191529190a3505050565b610be7611df5565b610bf16000611e4f565b565b6000807f00000000000000000000000000000000000000000000000000000000000000006001600160a01b031663273cbaa06040518163ffffffff1660e01b8152600401600060405180830381865afa158015610c54573d6000803e3d6000fd5b505050506040513d6000823e601f3d908101601f19168201604052610c7c9190810190612cc8565b905060006001600160a01b038516610c95575050610fd8565b60005b8251811015610fd457828181518110610cb357610cb3612d8d565b60209081029190910101516040516370a0823160e01b81526001600160a01b038881166004830152909116906370a0823190602401602060405180830381865afa158015610d05573d6000803e3d6000fd5b505050506040513d601f19601f82011682018060405250810190610d299190612da3565b91508115610fcc57828181518110610d4357610d43612d8d565b60209081029190910101516040516301ffc9a760e01b81526380ac58cd60e01b60048201526001600160a01b03909116906301ffc9a790602401602060405180830381865afa925050508015610db6575060408051601f3d908101601f19168201909252610db391810190612c8a565b60015b610e8d576000838281518110610dce57610dce612d8d565b60200260200101516001600160a01b031663313ce5676040518163ffffffff1660e01b8152600401602060405180830381865afa158015610e13573d6000803e3d6000fd5b505050506040513d601f19601f82011682018060405250810190610e379190612dbc565b9050610e4481600a612ed9565b83610e67868581518110610e5a57610e5a612d8d565b6020026020010151611e9f565b610e719190612ee8565b610e7b9190612eff565b610e859086612f21565b945050610fcc565b808015610e9a5750858310155b15610ed357610ec2848381518110610eb457610eb4612d8d565b602002602001015184611f65565b610ecc9086612f21565b9450610fca565b808015610edf57508583105b15610f0857610ec2848381518110610ef957610ef9612d8d565b60200260200101518885611ff8565b6000848381518110610f1c57610f1c612d8d565b60200260200101516001600160a01b031663313ce5676040518163ffffffff1660e01b8152600401602060405180830381865afa158015610f61573d6000803e3d6000fd5b505050506040513d601f19601f82011682018060405250810190610f859190612dbc565b9050610f9281600a612ed9565b84610fa8878681518110610e5a57610e5a612d8d565b610fb29190612ee8565b610fbc9190612eff565b610fc69087612f21565b9550505b505b600101610c98565b5050505b92915050565b7f00000000000000000000000000000000000000000000000000000000000000006001600160a01b038116611026576040516371724ffd60e01b815260040160405180910390fd5b806001600160a01b03811663d4a7db7f336040516001600160e01b031960e084901b1681526001600160a01b039091166004820152602401602060405180830381865afa15801561107b573d6000803e3d6000fd5b505050506040513d601f19601f8201168201806040525081019061109f9190612c8a565b6110bc57604051631acd860160e31b815260040160405180910390fd5b6001600160a01b0383166110e35760405163d92e233d60e01b815260040160405180910390fd5b600480546001600160a01b0385166001600160a01b0319918216811790925560028054909116821790556040517f9e243519850d05d4f0733b1b77b5b0d2d05dc0276827798a1755ecc9c659b23190600090a2505050565b7f00000000000000000000000000000000000000000000000000000000000000006001600160a01b038116611183576040516371724ffd60e01b815260040160405180910390fd5b806001600160a01b03811663d4a7db7f336040516001600160e01b031960e084901b1681526001600160a01b039091166004820152602401602060405180830381865afa1580156111d8573d6000803e3d6000fd5b505050506040513d601f19601f820116820180604052508101906111fc9190612c8a565b61121957604051631acd860160e31b815260040160405180910390fd5b6001805484158015600160401b0268ff0000000000000000199092169190911790915561127e576040517f4143435f4d41585f56414c55455f42595f4143434553535f4c4556454c00000090600080516020612fd783398151915290600090a2505050565b6040517f4143435f4d41585f56414c55455f42595f4143434553535f4c4556454c00000090600080516020612ff783398151915290600090a2505050565b7f00000000000000000000000000000000000000000000000000000000000000006001600160a01b038116611304576040516371724ffd60e01b815260040160405180910390fd5b806001600160a01b03811663d4a7db7f336040516001600160e01b031960e084901b1681526001600160a01b039091166004820152602401602060405180830381865afa158015611359573d6000803e3d6000fd5b505050506040513d601f19601f8201168201806040525081019061137d9190612c8a565b61139a57604051631acd860160e31b815260040160405180910390fd5b604051631896c37360e31b815263ffffffff841660048201527f00000000000000000000000000000000000000000000000000000000000000006001600160a01b03169063c4b61b989060240160006040518083038186803b1580156113ff57600080fd5b505afa158015611413573d6000803e3d6000fd5b50506001805468ff00000000ffffffff191663ffffffff8716908117600160401b179091556040519092507f4143435f4d41585f56414c55455f42595f4143434553535f4c4556454c0000009150600080516020612fb783398151915290600090a3505050565b7f00000000000000000000000000000000000000000000000000000000000000006001600160a01b0381166114c2576040516371724ffd60e01b815260040160405180910390fd5b806001600160a01b03811663d4a7db7f336040516001600160e01b031960e084901b1681526001600160a01b039091166004820152602401602060405180830381865afa158015611517573d6000803e3d6000fd5b505050506040513d601f19601f8201168201806040525081019061153b9190612c8a565b61155857604051631acd860160e31b815260040160405180910390fd5b6000805484158015600160e01b0260ff60e01b19909216919091179091556115aa576040516e42414c414e43455f42595f5249534b60881b90600080516020612fd783398151915290600090a2505050565b6040516e42414c414e43455f42595f5249534b60881b90600080516020612ff783398151915290600090a2505050565b7f00000000000000000000000000000000000000000000000000000000000000006001600160a01b038116611622576040516371724ffd60e01b815260040160405180910390fd5b806001600160a01b03811663d4a7db7f336040516001600160e01b031960e084901b1681526001600160a01b039091166004820152602401602060405180830381865afa158015611677573d6000803e3d6000fd5b505050506040513d601f19601f8201168201806040525081019061169b9190612c8a565b6116b857604051631acd860160e31b815260040160405180910390fd5b6000805484158015600160e81b0260ff60e81b1990921691909117909155611718576040517f4143435f4d41585f54585f56414c55455f42595f5249534b5f53434f5245000090600080516020612fd783398151915290600090a2505050565b6040517f4143435f4d41585f54585f56414c55455f42595f5249534b5f53434f5245000090600080516020612ff783398151915290600090a2505050565b7f00000000000000000000000000000000000000000000000000000000000000006001600160a01b03811661179e576040516371724ffd60e01b815260040160405180910390fd5b806001600160a01b03811663d4a7db7f336040516001600160e01b031960e084901b1681526001600160a01b039091166004820152602401602060405180830381865afa1580156117f3573d6000803e3d6000fd5b505050506040513d601f19601f820116820180604052508101906118179190612c8a565b61183457604051631acd860160e31b815260040160405180910390fd5b6040516306e0841960e11b815263ffffffff841660048201527f00000000000000000000000000000000000000000000000000000000000000006001600160a01b031690630dc108329060240160006040518083038186803b15801561189957600080fd5b505afa1580156118ad573d6000803e3d6000fd5b50506000805460ff60e01b1963ffffffff8816600160a01b81029190911668ff00000000ffffffff60a01b1990921691909117600160e01b1782556040519093506e42414c414e43455f42595f5249534b60881b9250600080516020612fb78339815191529190a3505050565b611922611df5565b60008060006001600b9054906101000a900460ff16156119d65760405163c42e62f560e01b81526001600160a01b037f0000000000000000000000000000000000000000000000000000000000000000811660048301527f0000000000000000000000000000000000000000000000000000000000000000169063c42e62f59060240160006040518083038186803b1580156119bd57600080fd5b505afa1580156119d1573d6000803e3d6000fd5b505050505b60008460018111156119ea576119ea612f34565b03611a98576119fa896000610bf3565b9250611a058b611e9f565b91508a6001600160a01b031663313ce5676040518163ffffffff1660e01b8152600401602060405180830381865afa158015611a45573d6000803e3d6000fd5b505050506040513d601f19601f82011682018060405250810190611a699190612dbc565b611a7490600a612ed9565b611a87896001600160801b038516612ee8565b611a919190612eff565b9050611b20565b611aa6898861ffff16610bf3565b60025460405163bc24179360e01b81526001600160a01b038e81166004830152602482018a905292955091169063bc24179390604401602060405180830381865afa158015611af9573d6000803e3d6000fd5b505050506040513d601f19601f82011682018060405250810190611b1d9190612da3565b90505b600154600160401b900460ff1680611b415750600154600160481b900460ff165b80611b555750600154600160501b900460ff165b15611b6657611b668a8a8584612121565b600054600160e01b900460ff1680611b875750600054600160e81b900460ff165b15611b9857611b988a8a858461267c565b5050505050505050505050565b611bad611df5565b6001600160a01b038116611c175760405162461bcd60e51b815260206004820152602660248201527f4f776e61626c653a206e6577206f776e657220697320746865207a65726f206160448201526564647265737360d01b60648201526084015b60405180910390fd5b61088b81611e4f565b7f00000000000000000000000000000000000000000000000000000000000000006001600160a01b038116611c68576040516371724ffd60e01b815260040160405180910390fd5b806001600160a01b03811663d4a7db7f336040516001600160e01b031960e084901b1681526001600160a01b039091166004820152602401602060405180830381865afa158015611cbd573d6000803e3d6000fd5b505050506040513d601f19601f82011682018060405250810190611ce19190612c8a565b611cfe57604051631acd860160e31b815260040160405180910390fd5b6040516331804e7160e11b815263ffffffff841660048201527f00000000000000000000000000000000000000000000000000000000000000006001600160a01b0316906363009ce29060240160006040518083038186803b158015611d6357600080fd5b505afa158015611d77573d6000803e3d6000fd5b50506001805460ff60501b1963ffffffff88166401000000008102919091166aff0000ffffffff000000001990921691909117600160501b179091556040519092507f4143435f4d41585f56414c55455f4f55545f4143434553535f4c4556454c00009150600080516020612fb783398151915290600090a3505050565b6000546001600160a01b03163314610bf15760405162461bcd60e51b815260206004820181905260248201527f4f776e61626c653a2063616c6c6572206973206e6f7420746865206f776e65726044820152606401611c0e565b600080546001600160a01b038381166001600160a01b0319831681178455604051919092169283917f8be0079c531659141344cd1fd0a4f28419497f9722a3daafe3b4186f6b6457e09190a35050565b6003546000906001600160a01b031615611f2957600154604051630681320d60e51b81526001600160a01b038481166004830152600160601b9092049091169063d02641a090602401602060405180830381865afa158015611f05573d6000803e3d6000fd5b505050506040513d601f19601f82011682018060405250810190610fd89190612da3565b60035460048054604051633bba1f2560e11b81526001600160a01b0393841692810192909252919091166024820152604401611c0e565b919050565b6004546000906001600160a01b031615611f29576002546040516305586d1560e41b81526001600160a01b03858116600483015290911690635586d15090602401602060405180830381865afa158015611fc3573d6000803e3d6000fd5b505050506040513d601f19601f82011682018060405250810190611fe79190612da3565b611ff19083612ee8565b9050610fd8565b6004546000906001600160a01b031615611f295760005b8281101561211857600254604051632f745c5960e01b81526001600160a01b038681166004830152602482018490529182169163bc241793918891821690632f745c5990604401602060405180830381865afa158015612073573d6000803e3d6000fd5b505050506040513d601f19601f820116820180604052508101906120979190612da3565b6040516001600160e01b031960e085901b1681526001600160a01b0390921660048301526024820152604401602060405180830381865afa1580156120e0573d6000803e3d6000fd5b505050506040513d601f19601f820116820180604052508101906121049190612da3565b61210e9083612f21565b915060010161200f565b505b9392505050565b6040516302de004560e51b81526001600160a01b0384811660048301526000917f000000000000000000000000000000000000000000000000000000000000000090911690635bc008a090602401602060405180830381865afa15801561218c573d6000803e3d6000fd5b505050506040513d601f19601f820116820180604052508101906121b09190612dbc565b6040516302de004560e51b81526001600160a01b0387811660048301529192506000917f00000000000000000000000000000000000000000000000000000000000000001690635bc008a090602401602060405180830381865afa15801561221c573d6000803e3d6000fd5b505050506040513d601f19601f820116820180604052508101906122409190612dbc565b600154909150600160481b900460ff1680156122e35750604051634d271a5d60e11b81526001600160a01b0387811660048301527f00000000000000000000000000000000000000000000000000000000000000001690639a4e34ba90602401602060405180830381865afa1580156122bd573d6000803e3d6000fd5b505050506040513d601f19601f820116820180604052508101906122e19190612c8a565b155b156123635760405163f5c2ce5960e01b815260ff821660048201527f00000000000000000000000000000000000000000000000000000000000000006001600160a01b03169063f5c2ce599060240160006040518083038186803b15801561234a57600080fd5b505afa15801561235e573d6000803e3d6000fd5b505050505b600154600160481b900460ff1680156124035750604051634d271a5d60e11b81526001600160a01b0386811660048301527f00000000000000000000000000000000000000000000000000000000000000001690639a4e34ba90602401602060405180830381865afa1580156123dd573d6000803e3d6000fd5b505050506040513d601f19601f820116820180604052508101906124019190612c8a565b155b801561241757506001600160a01b03851615155b156124975760405163f5c2ce5960e01b815260ff831660048201527f00000000000000000000000000000000000000000000000000000000000000006001600160a01b03169063f5c2ce599060240160006040518083038186803b15801561247e57600080fd5b505afa158015612492573d6000803e3d6000fd5b505050505b600154600160401b900460ff1680156124b857506001600160a01b03851615155b1561255f57600154604051630b89c48560e11b815263ffffffff909116600482015260ff831660248201526001600160801b038086166044830152841660648201527f00000000000000000000000000000000000000000000000000000000000000006001600160a01b031690631713890a9060840160006040518083038186803b15801561254657600080fd5b505afa15801561255a573d6000803e3d6000fd5b505050505b600154600160501b900460ff1615612674576001546001600160a01b038781166000908152600760205260409081902054905163bc8bace760e01b815264010000000090930463ffffffff16600484015260ff841660248401526001600160801b039081166044840152851660648301527f0000000000000000000000000000000000000000000000000000000000000000169063bc8bace790608401602060405180830381865afa158015612619573d6000803e3d6000fd5b505050506040513d601f19601f8201168201806040525081019061263d9190612f4a565b6001600160a01b038716600090815260076020526040902080546001600160801b0319166001600160801b03929092169190911790555b505050505050565b60405163dc08706d60e01b81526001600160a01b0384811660048301526000917f00000000000000000000000000000000000000000000000000000000000000009091169063dc08706d90602401602060405180830381865afa1580156126e7573d6000803e3d6000fd5b505050506040513d601f19601f8201168201806040525081019061270b9190612dbc565b60405163dc08706d60e01b81526001600160a01b0387811660048301529192506000917f0000000000000000000000000000000000000000000000000000000000000000169063dc08706d90602401602060405180830381865afa158015612777573d6000803e3d6000fd5b505050506040513d601f19601f8201168201806040525081019061279b9190612dbc565b600054909150600160e01b900460ff1615612860576000546040516308d8c47360e41b8152600160a01b90910463ffffffff1660048201526001600160a01b03868116602483015260ff841660448301526001600160801b038087166064840152851660848301527f00000000000000000000000000000000000000000000000000000000000000001690638d8c47309060a40160006040518083038186803b15801561284757600080fd5b505afa15801561285b573d6000803e3d6000fd5b505050505b600054600160e81b900460ff161561267457600080546001600160a01b03888116835260056020908152604080852054600690925293849020549351630369b6b160e51b81527f000000000000000000000000000000000000000000000000000000000000000090921693636d36d6209361290793600160c01b90910463ffffffff16926001600160801b031691899167ffffffffffffffff909116908890600401612f73565b602060405180830381865afa158015612924573d6000803e3d6000fd5b505050506040513d601f19601f820116820180604052508101906129489190612f4a565b6001600160a01b03878116600090815260056020526040902080546001600160801b0319166001600160801b039390931692909217909155851615612674576001600160a01b038681166000908152600660208181526040808420805467ffffffffffffffff19164267ffffffffffffffff9081169190911790915584548b8716865260058452828620549490935293819020549051630369b6b160e51b81527f000000000000000000000000000000000000000000000000000000000000000090951694636d36d62094612a3f94600160c01b90940463ffffffff16936001600160801b0316928a929116908990600401612f73565b602060405180830381865afa158015612a5c573d6000803e3d6000fd5b505050506040513d601f19601f82011682018060405250810190612a809190612f4a565b6001600160a01b038616600090815260056020908152604080832080546001600160801b03959095166001600160801b0319909516949094179093556006905220805467ffffffffffffffff421667ffffffffffffffff19909116179055505050505050565b801515811461088b57600080fd5b600060208284031215612b0657600080fd5b813561211a81612ae6565b6001600160a01b038116811461088b57600080fd5b600060208284031215612b3857600080fd5b813561211a81612b11565b60006020808352835180602085015260005b81811015612b7157858101830151858201604001528201612b55565b506000604082860101526040601f19601f8301168501019250505092915050565b600060208284031215612ba457600080fd5b813563ffffffff8116811461211a57600080fd5b60008060408385031215612bcb57600080fd5b8235612bd681612b11565b946020939093013593505050565b600080600080600080600080610100898b031215612c0157600080fd5b8835612c0c81612b11565b97506020890135612c1c81612b11565b96506040890135612c2c81612b11565b955060608901359450608089013561ffff81168114612c4a57600080fd5b935060a0890135925060c089013560058110612c6557600080fd5b915060e089013560028110612c7957600080fd5b809150509295985092959890939650565b600060208284031215612c9c57600080fd5b815161211a81612ae6565b634e487b7160e01b600052604160045260246000fd5b8051611f6081612b11565b60006020808385031215612cdb57600080fd5b825167ffffffffffffffff80821115612cf357600080fd5b818501915085601f830112612d0757600080fd5b815181811115612d1957612d19612ca7565b8060051b604051601f19603f83011681018181108582111715612d3e57612d3e612ca7565b604052918252848201925083810185019188831115612d5c57600080fd5b938501935b82851015612d8157612d7285612cbd565b84529385019392850192612d61565b98975050505050505050565b634e487b7160e01b600052603260045260246000fd5b600060208284031215612db557600080fd5b5051919050565b600060208284031215612dce57600080fd5b815160ff8116811461211a57600080fd5b634e487b7160e01b600052601160045260246000fd5b600181815b80851115612e30578160001904821115612e1657612e16612ddf565b80851615612e2357918102915b93841c9390800290612dfa565b509250929050565b600082612e4757506001610fd8565b81612e5457506000610fd8565b8160018114612e6a5760028114612e7457612e90565b6001915050610fd8565b60ff841115612e8557612e85612ddf565b50506001821b610fd8565b5060208310610133831016604e8410600b8410161715612eb3575081810a610fd8565b612ebd8383612df5565b8060001904821115612ed157612ed1612ddf565b029392505050565b600061211a60ff841683612e38565b8082028115828204841417610fd857610fd8612ddf565b600082612f1c57634e487b7160e01b600052601260045260246000fd5b500490565b80820180821115610fd857610fd8612ddf565b634e487b7160e01b600052602160045260246000fd5b600060208284031215612f5c57600080fd5b81516001600160801b038116811461211a57600080fd5b63ffffffff9590951685526001600160801b03938416602086015291909216604084015267ffffffffffffffff909116606083015260ff16608082015260a0019056fe4ce72d630297d64667efee2bbe9f25b92457ce9d55c34d790f65ecd80e834748cfc1921488a9473064606a90c937016f295e3cbdd06b7b0e92e981defb07be8105dc8955d9240629199d833c1086e83005ac2433304d0d51e8f65a248c6c6c24a2646970667358221220c19393202d96b9f7ee4f7e30bb089fd053cbe722b10cd32196dd662e20ef09f164736f6c6343000818003360a0604052306080523480156200001557600080fd5b5060016101f755620000266200002c565b620000ed565b600054610100900460ff1615620000995760405162461bcd60e51b815260206004820152602760248201527f496e697469616c697a61626c653a20636f6e747261637420697320696e697469604482015266616c697a696e6760c81b606482015260840160405180910390fd5b60005460ff90811614620000eb576000805460ff191660ff9081179091556040519081527f7f26b83ff96e1f2b6a682f133852f6798a09c465da95921460cefb38474024989060200160405180910390a15b565b6080516134b36200012560003960008181610a1a01528181610a5a01528181610d4601528181610d860152610eac01526134b36000f3fe6080604052600436106102045760003560e01c806355f804b31161011857806395d89b41116100a0578063c87b56dd1161006f578063c87b56dd14610599578063cdccb27a146105b9578063e6a07063146105ce578063e985e9c5146105ee578063f2fde38b1461063757600080fd5b806395d89b411461052f5780639abc832014610544578063a22cb46514610559578063b88d4fde1461057957600080fd5b80636fd7d970116100e75780636fd7d9701461049a57806370a08231146104bb578063715018a6146104db57806371af85e0146104f05780638da5cb5b1461051057600080fd5b806355f804b31461041b5780635c975abb1461043b5780636352211e1461045b5780636f9c83b81461047b57600080fd5b80633659cfe61161019b57806342966c681161016a57806342966c68146103945780634c330077146103b45780634f1ef286146103d35780634f6ccce7146103e657806352d1902d1461040657600080fd5b80633659cfe6146103395780633ccfd60b1461035957806340d097c31461036157806342842e0e1461037457600080fd5b806311280cb5116101d757806311280cb5146102ba57806318160ddd146102da57806323b872dd146102f95780632f745c591461031957600080fd5b806301ffc9a71461020957806306fdde031461023e578063081812fc14610260578063095ea7b314610298575b600080fd5b34801561021557600080fd5b50610229610224366004612c3e565b610657565b60405190151581526020015b60405180910390f35b34801561024a57600080fd5b50610253610668565b6040516102359190612cab565b34801561026c57600080fd5b5061028061027b366004612cbe565b6106fa565b6040516001600160a01b039091168152602001610235565b3480156102a457600080fd5b506102b86102b3366004612cf3565b610721565b005b3480156102c657600080fd5b506102b86102d5366004612d1d565b61083b565b3480156102e657600080fd5b506099545b604051908152602001610235565b34801561030557600080fd5b506102b8610314366004612d38565b610948565b34801561032557600080fd5b506102eb610334366004612cf3565b61097a565b34801561034557600080fd5b506102b8610354366004612d1d565b610a10565b6102b8610aef565b6102b861036f366004612d1d565b610c05565b34801561038057600080fd5b506102b861038f366004612d38565b610cf3565b3480156103a057600080fd5b506102b86103af366004612cbe565b610d0e565b3480156103c057600080fd5b506101c4546001600160a01b0316610280565b6102b86103e1366004612e17565b610d3c565b3480156103f257600080fd5b506102eb610401366004612cbe565b610e0c565b34801561041257600080fd5b506102eb610e9f565b34801561042757600080fd5b506102b8610436366004612e65565b610f52565b34801561044757600080fd5b506101c554600160a01b900460ff16610229565b34801561046757600080fd5b50610280610476366004612cbe565b611020565b34801561048757600080fd5b506101f8546001600160a01b0316610280565b3480156104a657600080fd5b506101f854610280906001600160a01b031681565b3480156104c757600080fd5b506102eb6104d6366004612d1d565b611080565b3480156104e757600080fd5b506102b8611106565b3480156104fc57600080fd5b506102b861050b366004612d1d565b61111a565b34801561051c57600080fd5b5061012d546001600160a01b0316610280565b34801561053b57600080fd5b5061025361125f565b34801561055057600080fd5b5061025361126e565b34801561056557600080fd5b506102b8610574366004612ea8565b6112fd565b34801561058557600080fd5b506102b8610594366004612edf565b611308565b3480156105a557600080fd5b506102536105b4366004612cbe565b61133a565b3480156105c557600080fd5b506102b8611345565b3480156105da57600080fd5b506102b86105e9366004612f47565b6113d2565b3480156105fa57600080fd5b50610229610609366004612fd4565b6001600160a01b039182166000908152606a6020908152604080832093909416825291909152205460ff1690565b34801561064357600080fd5b506102b8610652366004612d1d565b6115e3565b600061066282611659565b92915050565b60606065805461067790613007565b80601f01602080910402602001604051908101604052809291908181526020018280546106a390613007565b80156106f05780601f106106c5576101008083540402835291602001916106f0565b820191906000526020600020905b8154815290600101906020018083116106d357829003601f168201915b5050505050905090565b60006107058261167e565b506000908152606960205260409020546001600160a01b031690565b600061072c82611020565b9050806001600160a01b0316836001600160a01b03160361079e5760405162461bcd60e51b815260206004820152602160248201527f4552433732313a20617070726f76616c20746f2063757272656e74206f776e656044820152603960f91b60648201526084015b60405180910390fd5b336001600160a01b03821614806107ba57506107ba8133610609565b61082c5760405162461bcd60e51b815260206004820152603d60248201527f4552433732313a20617070726f76652063616c6c6572206973206e6f7420746f60448201527f6b656e206f776e6572206f7220617070726f76656420666f7220616c6c0000006064820152608401610795565b61083683836116dd565b505050565b6101c4546001600160a01b031680610866576040516371724ffd60e01b815260040160405180910390fd5b806001600160a01b03811663c3c2ebbb336040516001600160e01b031960e084901b1681526001600160a01b039091166004820152602401602060405180830381865afa1580156108bb573d6000803e3d6000fd5b505050506040513d601f19601f820116820180604052508101906108df9190613041565b6108fc5760405163ba80c9e560e01b815260040160405180910390fd5b6001600160a01b0383166109235760405163d92e233d60e01b815260040160405180910390fd5b50506101c380546001600160a01b0319166001600160a01b0392909216919091179055565b610953335b8261174b565b61096f5760405162461bcd60e51b81526004016107959061305e565b6108368383836117ca565b600061098583611080565b82106109e75760405162461bcd60e51b815260206004820152602b60248201527f455243373231456e756d657261626c653a206f776e657220696e646578206f7560448201526a74206f6620626f756e647360a81b6064820152608401610795565b506001600160a01b03919091166000908152609760209081526040808320938352929052205490565b6001600160a01b037f0000000000000000000000000000000000000000000000000000000000000000163003610a585760405162461bcd60e51b8152600401610795906130ab565b7f00000000000000000000000000000000000000000000000000000000000000006001600160a01b0316610aa1600080516020613437833981519152546001600160a01b031690565b6001600160a01b031614610ac75760405162461bcd60e51b8152600401610795906130f7565b610ad08161193b565b60408051600080825260208201909252610aec91839190611943565b50565b6101c4546001600160a01b031680610b1a576040516371724ffd60e01b815260040160405180910390fd5b806001600160a01b03811663c3c2ebbb336040516001600160e01b031960e084901b1681526001600160a01b039091166004820152602401602060405180830381865afa158015610b6f573d6000803e3d6000fd5b505050506040513d601f19601f82011682018060405250810190610b939190613041565b610bb05760405163ba80c9e560e01b815260040160405180910390fd5b604051600090339047908381818185875af1925050503d8060008114610bf2576040519150601f19603f3d011682016040523d82523d6000602084013e610bf7565b606091505b505090508061083657600080fd5b6101c4546001600160a01b031680610c30576040516371724ffd60e01b815260040160405180910390fd5b806001600160a01b03811663c3c2ebbb336040516001600160e01b031960e084901b1681526001600160a01b039091166004820152602401602060405180830381865afa158015610c85573d6000803e3d6000fd5b505050506040513d601f19601f82011682018060405250810190610ca99190613041565b610cc65760405163ba80c9e560e01b815260040160405180910390fd5b6000610cd26101fa5490565b9050610ce36101fa80546001019055565b610ced8482611aae565b50505050565b61083683838360405180602001604052806000815250611308565b610d173361094d565b610d335760405162461bcd60e51b81526004016107959061305e565b610aec81611ac8565b6001600160a01b037f0000000000000000000000000000000000000000000000000000000000000000163003610d845760405162461bcd60e51b8152600401610795906130ab565b7f00000000000000000000000000000000000000000000000000000000000000006001600160a01b0316610dcd600080516020613437833981519152546001600160a01b031690565b6001600160a01b031614610df35760405162461bcd60e51b8152600401610795906130f7565b610dfc8261193b565b610e0882826001611943565b5050565b6000610e1760995490565b8210610e7a5760405162461bcd60e51b815260206004820152602c60248201527f455243373231456e756d657261626c653a20676c6f62616c20696e646578206f60448201526b7574206f6620626f756e647360a01b6064820152608401610795565b60998281548110610e8d57610e8d613143565b90600052602060002001549050919050565b6000306001600160a01b037f00000000000000000000000000000000000000000000000000000000000000001614610f3f5760405162461bcd60e51b815260206004820152603860248201527f555550535570677261646561626c653a206d757374206e6f742062652063616c60448201527f6c6564207468726f7567682064656c656761746563616c6c00000000000000006064820152608401610795565b5060008051602061343783398151915290565b6101c4546001600160a01b031680610f7d576040516371724ffd60e01b815260040160405180910390fd5b806001600160a01b03811663c3c2ebbb336040516001600160e01b031960e084901b1681526001600160a01b039091166004820152602401602060405180830381865afa158015610fd2573d6000803e3d6000fd5b505050506040513d601f19601f82011682018060405250810190610ff69190613041565b6110135760405163ba80c9e560e01b815260040160405180910390fd5b6101fb610ced84826131a9565b6000818152606760205260408120546001600160a01b0316806106625760405162461bcd60e51b8152602060048201526018602482015277115490cdcc8c4e881a5b9d985b1a59081d1bdad95b88125160421b6044820152606401610795565b60006001600160a01b0382166110ea5760405162461bcd60e51b815260206004820152602960248201527f4552433732313a2061646472657373207a65726f206973206e6f7420612076616044820152683634b21037bbb732b960b91b6064820152608401610795565b506001600160a01b031660009081526068602052604090205490565b61110e611ad1565b6111186000611b2c565b565b6101c4546001600160a01b031680611145576040516371724ffd60e01b815260040160405180910390fd5b806001600160a01b03811663c3c2ebbb336040516001600160e01b031960e084901b1681526001600160a01b039091166004820152602401602060405180830381865afa15801561119a573d6000803e3d6000fd5b505050506040513d601f19601f820116820180604052508101906111be9190613041565b6111db5760405163ba80c9e560e01b815260040160405180910390fd5b6001600160a01b0383166112025760405163d92e233d60e01b815260040160405180910390fd5b6101f880546001600160a01b0385166001600160a01b031991821681179092556101f98054909116821790556040513091907f9a2cdaf1a28a88ccd359d6abc6a27d4856d16459aafb0aae34c1296bab5b63fb90600090a3505050565b60606066805461067790613007565b6101fb805461127c90613007565b80601f01602080910402602001604051908101604052809291908181526020018280546112a890613007565b80156112f55780601f106112ca576101008083540402835291602001916112f5565b820191906000526020600020905b8154815290600101906020018083116112d857829003601f168201915b505050505081565b610e08338383611b7f565b611312338361174b565b61132e5760405162461bcd60e51b81526004016107959061305e565b610ced84848484611c4d565b606061066282611c80565b6101c3546001600160a01b031661136f5760405163821e0eeb60e01b815260040160405180910390fd5b6101c3546001600160a01b0316331461139b57604051634128496760e01b815260040160405180910390fd5b6101c380546101c480546001600160a01b0383166001600160a01b031991821681179092556101c580548216909217909155169055565b816001600160a01b0381166113fa576040516371724ffd60e01b815260040160405180910390fd5b806001600160a01b03811663c3c2ebbb336040516001600160e01b031960e084901b1681526001600160a01b039091166004820152602401602060405180830381865afa15801561144f573d6000803e3d6000fd5b505050506040513d601f19601f820116820180604052508101906114739190613041565b6114905760405163ba80c9e560e01b815260040160405180910390fd5b600054610100900460ff16158080156114b05750600054600160ff909116105b806114ca5750303b1580156114ca575060005460ff166001145b61152d5760405162461bcd60e51b815260206004820152602e60248201527f496e697469616c697a61626c653a20636f6e747261637420697320616c72656160448201526d191e481a5b9a5d1a585b1a5e995960921b6064820152608401610795565b6000805460ff191660011790558015611550576000805461ff0019166101001790555b61155a8787611d7b565b611562611dac565b61156a611dac565b611572611dd3565b61157a611dac565b611582611e02565b61158b85611e31565b61159484610f52565b80156115da576000805461ff0019169055604051600181527f7f26b83ff96e1f2b6a682f133852f6798a09c465da95921460cefb38474024989060200160405180910390a15b50505050505050565b6115eb611ad1565b6001600160a01b0381166116505760405162461bcd60e51b815260206004820152602660248201527f4f776e61626c653a206e6577206f776e657220697320746865207a65726f206160448201526564647265737360d01b6064820152608401610795565b610aec81611b2c565b60006001600160e01b03198216632483248360e11b1480610662575061066282611eca565b6000818152606760205260409020546001600160a01b0316610aec5760405162461bcd60e51b8152602060048201526018602482015277115490cdcc8c4e881a5b9d985b1a59081d1bdad95b88125160421b6044820152606401610795565b600081815260696020526040902080546001600160a01b0319166001600160a01b038416908117909155819061171282611020565b6001600160a01b03167f8c5be1e5ebec7d5bd14f71427d1e84f3dd0314c0f7b2291e5b200ac8c7c3b92560405160405180910390a45050565b60008061175783611020565b9050806001600160a01b0316846001600160a01b0316148061179e57506001600160a01b038082166000908152606a602090815260408083209388168352929052205460ff165b806117c25750836001600160a01b03166117b7846106fa565b6001600160a01b0316145b949350505050565b826001600160a01b03166117dd82611020565b6001600160a01b0316146118035760405162461bcd60e51b815260040161079590613269565b6001600160a01b0382166118655760405162461bcd60e51b8152602060048201526024808201527f4552433732313a207472616e7366657220746f20746865207a65726f206164646044820152637265737360e01b6064820152608401610795565b6118728383836001611eef565b826001600160a01b031661188582611020565b6001600160a01b0316146118ab5760405162461bcd60e51b815260040161079590613269565b600081815260696020908152604080832080546001600160a01b03199081169091556001600160a01b0387811680865260688552838620805460001901905590871680865283862080546001019055868652606790945282852080549092168417909155905184937fddf252ad1be2c89b69c2b068fc378daa952ba7f163c4a11628f55a4df523b3ef91a4505050565b610aec611ad1565b7f4910fdfa16fed3260ed0e7147f7cc6da11a60208b5b9406d12a635614ffd91435460ff16156119765761083683611ff6565b826001600160a01b03166352d1902d6040518163ffffffff1660e01b8152600401602060405180830381865afa9250505080156119d0575060408051601f3d908101601f191682019092526119cd918101906132ae565b60015b611a335760405162461bcd60e51b815260206004820152602e60248201527f45524331393637557067726164653a206e657720696d706c656d656e7461746960448201526d6f6e206973206e6f74205555505360901b6064820152608401610795565b6000805160206134378339815191528114611aa25760405162461bcd60e51b815260206004820152602960248201527f45524331393637557067726164653a20756e737570706f727465642070726f786044820152681a58589b195555525160ba1b6064820152608401610795565b50610836838383612092565b610e088282604051806020016040528060008152506120b7565b610aec816120ea565b61012d546001600160a01b031633146111185760405162461bcd60e51b815260206004820181905260248201527f4f776e61626c653a2063616c6c6572206973206e6f7420746865206f776e65726044820152606401610795565b61012d80546001600160a01b038381166001600160a01b0319831681179093556040519116919082907f8be0079c531659141344cd1fd0a4f28419497f9722a3daafe3b4186f6b6457e090600090a35050565b816001600160a01b0316836001600160a01b031603611be05760405162461bcd60e51b815260206004820152601960248201527f4552433732313a20617070726f766520746f2063616c6c6572000000000000006044820152606401610795565b6001600160a01b038381166000818152606a6020908152604080832094871680845294825291829020805460ff191686151590811790915591519182527f17307eab39ab6107e8899845ad3d59bd9653f200f220920489ca2b5937696c31910160405180910390a3505050565b611c588484846117ca565b611c648484848461212a565b610ced5760405162461bcd60e51b8152600401610795906132c7565b6060611c8b8261167e565b600082815260c9602052604081208054611ca490613007565b80601f0160208091040260200160405190810160405280929190818152602001828054611cd090613007565b8015611d1d5780601f10611cf257610100808354040283529160200191611d1d565b820191906000526020600020905b815481529060010190602001808311611d0057829003601f168201915b505050505090506000611d2e61222b565b90508051600003611d40575092915050565b815115611d72578082604051602001611d5a929190613319565b60405160208183030381529060405292505050919050565b6117c28461223b565b600054610100900460ff16611da25760405162461bcd60e51b815260040161079590613348565b610e0882826122a2565b600054610100900460ff166111185760405162461bcd60e51b815260040161079590613348565b600054610100900460ff16611dfa5760405162461bcd60e51b815260040161079590613348565b6111186122e2565b600054610100900460ff16611e295760405162461bcd60e51b815260040161079590613348565b611118612312565b600054610100900460ff16611e585760405162461bcd60e51b815260040161079590613348565b6001600160a01b038116611e7f5760405163d92e233d60e01b815260040160405180910390fd5b6101c480546001600160a01b0319166001600160a01b0383169081179091556040517f72609421458389ee9c5f42d2ead41eecce3b39daf473d94de7f1ec1a9b593a0090600090a250565b60006001600160e01b0319821663780e9d6360e01b1480610662575061066282612349565b611ef7612399565b6101f9546001600160a01b039081169063e802b52390861615611f2257611f1d86611080565b611f25565b60005b6001600160a01b03861615611f4257611f3d86611080565b611f45565b60005b8787336040516001600160e01b031960e088901b168152600481019590955260248501939093526001600160a01b0391821660448501528116606484015216608482015260a4810185905260c4016020604051808303816000875af1158015611fb2573d6000803e3d6000fd5b505050506040513d601f19601f82011682018060405250810190611fd69190613041565b611fdf57600080fd5b611feb848484846123f4565b610ced60016101f755565b6001600160a01b0381163b6120635760405162461bcd60e51b815260206004820152602d60248201527f455243313936373a206e657720696d706c656d656e746174696f6e206973206e60448201526c1bdd08184818dbdb9d1c9858dd609a1b6064820152608401610795565b60008051602061343783398151915280546001600160a01b0319166001600160a01b0392909216919091179055565b61209b83612528565b6000825111806120a85750805b1561083657610ced8383612568565b6120c1838361258d565b6120ce600084848461212a565b6108365760405162461bcd60e51b8152600401610795906132c7565b6120f381612726565b600081815260c960205260409020805461210c90613007565b159050610aec57600081815260c960205260408120610aec91612bda565b60006001600160a01b0384163b1561222057604051630a85bd0160e11b81526001600160a01b0385169063150b7a029061216e903390899088908890600401613393565b6020604051808303816000875af19250505080156121a9575060408051601f3d908101601f191682019092526121a6918101906133c6565b60015b612206573d8080156121d7576040519150601f19603f3d011682016040523d82523d6000602084013e6121dc565b606091505b5080516000036121fe5760405162461bcd60e51b8152600401610795906132c7565b805181602001fd5b6001600160e01b031916630a85bd0160e11b1490506117c2565b506001949350505050565b60606101fb805461067790613007565b60606122468261167e565b600061225061222b565b90506000815111612270576040518060200160405280600081525061229b565b8061227a846127c9565b60405160200161228b929190613319565b6040516020818303038152906040525b9392505050565b600054610100900460ff166122c95760405162461bcd60e51b815260040161079590613348565b60656122d583826131a9565b50606661083682826131a9565b600054610100900460ff166123095760405162461bcd60e51b815260040161079590613348565b61111833611b2c565b600054610100900460ff166123395760405162461bcd60e51b815260040161079590613348565b6101c5805460ff60a01b19169055565b60006001600160e01b031982166380ac58cd60e01b148061237a57506001600160e01b03198216635b5e139f60e01b145b8061066257506301ffc9a760e01b6001600160e01b0319831614610662565b60026101f754036123ec5760405162461bcd60e51b815260206004820152601f60248201527f5265656e7472616e637947756172643a207265656e7472616e742063616c6c006044820152606401610795565b60026101f755565b60018111156124635760405162461bcd60e51b815260206004820152603560248201527f455243373231456e756d657261626c653a20636f6e7365637574697665207472604482015274185b9cd9995c9cc81b9bdd081cdd5c1c1bdc9d1959605a1b6064820152608401610795565b816001600160a01b0385166124bf576124ba81609980546000838152609a60205260408120829055600182018355919091527f72a152ddfb8e864297c917af52ea6c1c68aead0fee1a62673fcc7e0c94979d000155565b6124e2565b836001600160a01b0316856001600160a01b0316146124e2576124e2858261285c565b6001600160a01b0384166124fe576124f9816128f9565b612521565b846001600160a01b0316846001600160a01b0316146125215761252184826129a8565b5050505050565b61253181611ff6565b6040516001600160a01b038216907fbc7cd75a20ee27fd9adebab32041f755214dbc6bffa90cc0225b39da2e5c2d3b90600090a250565b606061229b8383604051806060016040528060278152602001613457602791396129ec565b6001600160a01b0382166125e35760405162461bcd60e51b815260206004820181905260248201527f4552433732313a206d696e7420746f20746865207a65726f20616464726573736044820152606401610795565b6000818152606760205260409020546001600160a01b0316156126485760405162461bcd60e51b815260206004820152601c60248201527f4552433732313a20746f6b656e20616c7265616479206d696e746564000000006044820152606401610795565b612656600083836001611eef565b6000818152606760205260409020546001600160a01b0316156126bb5760405162461bcd60e51b815260206004820152601c60248201527f4552433732313a20746f6b656e20616c7265616479206d696e746564000000006044820152606401610795565b6001600160a01b038216600081815260686020908152604080832080546001019055848352606790915280822080546001600160a01b0319168417905551839291907fddf252ad1be2c89b69c2b068fc378daa952ba7f163c4a11628f55a4df523b3ef908290a45050565b600061273182611020565b9050612741816000846001611eef565b61274a82611020565b600083815260696020908152604080832080546001600160a01b03199081169091556001600160a01b0385168085526068845282852080546000190190558785526067909352818420805490911690555192935084927fddf252ad1be2c89b69c2b068fc378daa952ba7f163c4a11628f55a4df523b3ef908390a45050565b606060006127d683612a64565b600101905060008167ffffffffffffffff8111156127f6576127f6612d74565b6040519080825280601f01601f191660200182016040528015612820576020820181803683370190505b5090508181016020015b600019016f181899199a1a9b1b9c1cb0b131b232b360811b600a86061a8153600a850494508461282a57509392505050565b6000600161286984611080565b61287391906133e3565b6000838152609860205260409020549091508082146128c6576001600160a01b03841660009081526097602090815260408083208584528252808320548484528184208190558352609890915290208190555b5060009182526098602090815260408084208490556001600160a01b039094168352609781528383209183525290812055565b60995460009061290b906001906133e3565b6000838152609a60205260408120546099805493945090928490811061293357612933613143565b90600052602060002001549050806099838154811061295457612954613143565b6000918252602080832090910192909255828152609a9091526040808220849055858252812055609980548061298c5761298c613404565b6001900381819060005260206000200160009055905550505050565b60006129b383611080565b6001600160a01b039093166000908152609760209081526040808320868452825280832085905593825260989052919091209190915550565b6060600080856001600160a01b031685604051612a09919061341a565b600060405180830381855af49150503d8060008114612a44576040519150601f19603f3d011682016040523d82523d6000602084013e612a49565b606091505b5091509150612a5a86838387612b3c565b9695505050505050565b60008072184f03e93ff9f4daa797ed6e38ed64bf6a1f0160401b8310612aa35772184f03e93ff9f4daa797ed6e38ed64bf6a1f0160401b830492506040015b6d04ee2d6d415b85acef81000000008310612acf576d04ee2d6d415b85acef8100000000830492506020015b662386f26fc100008310612aed57662386f26fc10000830492506010015b6305f5e1008310612b05576305f5e100830492506008015b6127108310612b1957612710830492506004015b60648310612b2b576064830492506002015b600a83106106625760010192915050565b60608315612bab578251600003612ba4576001600160a01b0385163b612ba45760405162461bcd60e51b815260206004820152601d60248201527f416464726573733a2063616c6c20746f206e6f6e2d636f6e74726163740000006044820152606401610795565b50816117c2565b6117c28383815115612bc05781518083602001fd5b8060405162461bcd60e51b81526004016107959190612cab565b508054612be690613007565b6000825580601f10612bf6575050565b601f016020900490600052602060002090810190610aec91905b80821115612c245760008155600101612c10565b5090565b6001600160e01b031981168114610aec57600080fd5b600060208284031215612c5057600080fd5b813561229b81612c28565b60005b83811015612c76578181015183820152602001612c5e565b50506000910152565b60008151808452612c97816020860160208601612c5b565b601f01601f19169290920160200192915050565b60208152600061229b6020830184612c7f565b600060208284031215612cd057600080fd5b5035919050565b80356001600160a01b0381168114612cee57600080fd5b919050565b60008060408385031215612d0657600080fd5b612d0f83612cd7565b946020939093013593505050565b600060208284031215612d2f57600080fd5b61229b82612cd7565b600080600060608486031215612d4d57600080fd5b612d5684612cd7565b9250612d6460208501612cd7565b9150604084013590509250925092565b634e487b7160e01b600052604160045260246000fd5b600082601f830112612d9b57600080fd5b813567ffffffffffffffff80821115612db657612db6612d74565b604051601f8301601f19908116603f01168101908282118183101715612dde57612dde612d74565b81604052838152866020858801011115612df757600080fd5b836020870160208301376000602085830101528094505050505092915050565b60008060408385031215612e2a57600080fd5b612e3383612cd7565b9150602083013567ffffffffffffffff811115612e4f57600080fd5b612e5b85828601612d8a565b9150509250929050565b600060208284031215612e7757600080fd5b813567ffffffffffffffff811115612e8e57600080fd5b6117c284828501612d8a565b8015158114610aec57600080fd5b60008060408385031215612ebb57600080fd5b612ec483612cd7565b91506020830135612ed481612e9a565b809150509250929050565b60008060008060808587031215612ef557600080fd5b612efe85612cd7565b9350612f0c60208601612cd7565b925060408501359150606085013567ffffffffffffffff811115612f2f57600080fd5b612f3b87828801612d8a565b91505092959194509250565b60008060008060808587031215612f5d57600080fd5b843567ffffffffffffffff80821115612f7557600080fd5b612f8188838901612d8a565b95506020870135915080821115612f9757600080fd5b612fa388838901612d8a565b9450612fb160408801612cd7565b93506060870135915080821115612fc757600080fd5b50612f3b87828801612d8a565b60008060408385031215612fe757600080fd5b612ff083612cd7565b9150612ffe60208401612cd7565b90509250929050565b600181811c9082168061301b57607f821691505b60208210810361303b57634e487b7160e01b600052602260045260246000fd5b50919050565b60006020828403121561305357600080fd5b815161229b81612e9a565b6020808252602d908201527f4552433732313a2063616c6c6572206973206e6f7420746f6b656e206f776e6560408201526c1c881bdc88185c1c1c9bdd9959609a1b606082015260800190565b6020808252602c908201527f46756e6374696f6e206d7573742062652063616c6c6564207468726f7567682060408201526b19195b1959d85d1958d85b1b60a21b606082015260800190565b6020808252602c908201527f46756e6374696f6e206d7573742062652063616c6c6564207468726f7567682060408201526b6163746976652070726f787960a01b606082015260800190565b634e487b7160e01b600052603260045260246000fd5b601f821115610836576000816000526020600020601f850160051c810160208610156131825750805b601f850160051c820191505b818110156131a15782815560010161318e565b505050505050565b815167ffffffffffffffff8111156131c3576131c3612d74565b6131d7816131d18454613007565b84613159565b602080601f83116001811461320c57600084156131f45750858301515b600019600386901b1c1916600185901b1785556131a1565b600085815260208120601f198616915b8281101561323b5788860151825594840194600190910190840161321c565b50858210156132595787850151600019600388901b60f8161c191681555b5050505050600190811b01905550565b60208082526025908201527f4552433732313a207472616e736665722066726f6d20696e636f72726563742060408201526437bbb732b960d91b606082015260800190565b6000602082840312156132c057600080fd5b5051919050565b60208082526032908201527f4552433732313a207472616e7366657220746f206e6f6e20455243373231526560408201527131b2b4bb32b91034b6b83632b6b2b73a32b960711b606082015260800190565b6000835161332b818460208801612c5b565b83519083019061333f818360208801612c5b565b01949350505050565b6020808252602b908201527f496e697469616c697a61626c653a20636f6e7472616374206973206e6f74206960408201526a6e697469616c697a696e6760a81b606082015260800190565b6001600160a01b0385811682528416602082015260408101839052608060608201819052600090612a5a90830184612c7f565b6000602082840312156133d857600080fd5b815161229b81612c28565b8181038181111561066257634e487b7160e01b600052601160045260246000fd5b634e487b7160e01b600052603160045260246000fd5b6000825161342c818460208701612c5b565b919091019291505056fe360894a13ba1a3210667c828492db98dca3e2076cc3735a920a3ca505d382bbc416464726573733a206c6f772d6c6576656c2064656c65676174652063616c6c206661696c6564a2646970667358221220ecd37768af5ebcc9f34e20d2e0ad743f7237de636f0e8588c8a8b6aff5f7bfd364736f6c6343000818003360a060405234801561001057600080fd5b5060405161099c38038061099c83398101604081905261002f916100a4565b8061003933610054565b6001600160a01b031660805261004e81610054565b506100d4565b600080546001600160a01b038381166001600160a01b0319831681178455604051919092169283917f8be0079c531659141344cd1fd0a4f28419497f9722a3daafe3b4186f6b6457e09190a35050565b6000602082840312156100b657600080fd5b81516001600160a01b03811681146100cd57600080fd5b9392505050565b60805161088a610112600039600081816101b9015281816102030152818161024a0152818161032e015281816103af01526103f6015261088a6000f3fe608060405234801561001057600080fd5b50600436106100b45760003560e01c8063b5ed298a11610071578063b5ed298a14610186578063bd9b6d8614610199578063c4740a95146101a1578063d3d24c9b146101b4578063e89b0e1e146101db578063f2fde38b146101ee57600080fd5b806311b09110146100b95780631bf974f3146100fa57806354fd4d501461010f5780635e5c06e214610136578063715018a6146101595780638da5cb5b14610161575b600080fd5b6100e56100c736600461076a565b6001600160a01b031660009081526003602052604090205460ff1690565b60405190151581526020015b60405180910390f35b61010d61010836600461079a565b610201565b005b60408051808201825260058152640312e312e360dc1b602082015290516100f191906107bb565b6100e561014436600461076a565b60036020526000908152604090205460ff1681565b61010d610399565b6000546001600160a01b03165b6040516001600160a01b0390911681526020016100f1565b61010d61019436600461076a565b6103ad565b61010d61050d565b61010d6101af36600461076a565b610576565b61016e7f000000000000000000000000000000000000000000000000000000000000000081565b61010d6101e936600461076a565b6105c7565b61010d6101fc36600461076a565b610642565b7f00000000000000000000000000000000000000000000000000000000000000006001600160a01b0316610248576040516371724ffd60e01b815260040160405180910390fd5b7f00000000000000000000000000000000000000000000000000000000000000006001600160a01b03811663c3c2ebbb336040516001600160e01b031960e084901b1681526001600160a01b039091166004820152602401602060405180830381865afa1580156102bd573d6000803e3d6000fd5b505050506040513d601f19601f820116820180604052508101906102e1919061080a565b1580156102f957506000546001600160a01b03163314155b156103175760405163054f3a3160e31b815260040160405180910390fd5b604051632b124b7960e01b81526001600160a01b037f00000000000000000000000000000000000000000000000000000000000000001690632b124b799061036390859060040161082c565b600060405180830381600087803b15801561037d57600080fd5b505af1158015610391573d6000803e3d6000fd5b505050505050565b6103a16106c0565b6103ab600061071a565b565b7f00000000000000000000000000000000000000000000000000000000000000006001600160a01b03166103f4576040516371724ffd60e01b815260040160405180910390fd5b7f00000000000000000000000000000000000000000000000000000000000000006001600160a01b03811663c3c2ebbb336040516001600160e01b031960e084901b1681526001600160a01b039091166004820152602401602060405180830381865afa158015610469573d6000803e3d6000fd5b505050506040513d601f19601f8201168201806040525081019061048d919061080a565b1580156104a557506000546001600160a01b03163314155b156104c35760405163054f3a3160e31b815260040160405180910390fd5b6001600160a01b0382166104ea5760405163d92e233d60e01b815260040160405180910390fd5b50600180546001600160a01b0319166001600160a01b0392909216919091179055565b6001546001600160a01b03166105365760405163821e0eeb60e01b815260040160405180910390fd5b6001546001600160a01b0316331461056157604051634128496760e01b815260040160405180910390fd5b6001546103ab906001600160a01b031661071a565b61057e6106c0565b6001600160a01b038116600081815260036020526040808220805460ff19169055517fe1e79c30f72a026a8b527caea6eee0683d44301c24cde238b9f7ad9e4b7aa31f9190a250565b6105cf6106c0565b6001600160a01b0381166105f65760405163d92e233d60e01b815260040160405180910390fd5b6001600160a01b038116600081815260036020526040808220805460ff19166001179055517f5e75b6966f794371ba173593326b3afdd7c9ee18c1421f495f3120dd8532d5b09190a250565b61064a6106c0565b6001600160a01b0381166106b45760405162461bcd60e51b815260206004820152602660248201527f4f776e61626c653a206e6577206f776e657220697320746865207a65726f206160448201526564647265737360d01b60648201526084015b60405180910390fd5b6106bd8161071a565b50565b6000546001600160a01b031633146103ab5760405162461bcd60e51b815260206004820181905260248201527f4f776e61626c653a2063616c6c6572206973206e6f7420746865206f776e657260448201526064016106ab565b600080546001600160a01b038381166001600160a01b0319831681178455604051919092169283917f8be0079c531659141344cd1fd0a4f28419497f9722a3daafe3b4186f6b6457e09190a35050565b60006020828403121561077c57600080fd5b81356001600160a01b038116811461079357600080fd5b9392505050565b6000602082840312156107ac57600080fd5b81356005811061079357600080fd5b60006020808352835180602085015260005b818110156107e9578581018301518582016040015282016107cd565b506000604082860101526040601f19601f8301168501019250505092915050565b60006020828403121561081c57600080fd5b8151801515811461079357600080fd5b602081016005831061084e57634e487b7160e01b600052602160045260246000fd5b9190529056fea26469706673582212208d8a7b73255eb5cc2f434666a29aac1ff64130b609d4365b4c4df8488360484b64736f6c63430008180033608060405234801561001057600080fd5b50611a0a806100206000396000f3fe608060405234801561001057600080fd5b50600436106100b45760003560e01c806370f247dc1161007157806370f247dc1461013a578063722042141461014d5780638bd537ed1461017f578063e323230f14610192578063f4cb4f39146101a5578063fa3a1c8d146101f357600080fd5b806303d4e11b146100b95780630e469abe146100db578063133510fa146100ee578063564ff334146101015780635f65ba0114610114578063632e195d14610127575b600080fd5b6100c16101fb565b60405163ffffffff90911681526020015b60405180910390f35b6100c16100e93660046116b2565b610216565b6100c16100fc366004611727565b610479565b6100c161010f36600461178d565b610743565b6100c16101223660046117d8565b61092b565b6100c1610135366004611807565b610b15565b6100c1610148366004611807565b610dc5565b61016061015b366004611865565b610ff3565b604080518251815260209283015161ffff1692810192909252016100d2565b6100c161018d366004611892565b611066565b6100c16101a03660046118bc565b61122f565b6101b86101b3366004611865565b6113f7565b60408051825161ffff9081168252602080850151821690830152838301511691810191909152606091820151918101919091526080016100d2565b6100c161148b565b600080610206611496565b6001015463ffffffff1692915050565b6000836001600160a01b038116610240576040516371724ffd60e01b815260040160405180910390fd5b806001600160a01b03811663d4a7db7f336040516001600160e01b031960e084901b1681526001600160a01b039091166004820152602401602060405180830381865afa158015610295573d6000803e3d6000fd5b505050506040513d601f19601f820116820180604052508101906102b991906118ef565b6102d657604051631acd860160e31b815260040160405180910390fd5b6001600160a01b0386166102fd5760405163d92e233d60e01b815260040160405180910390fd5b6001600160a01b0384166103245760405163d92e233d60e01b815260040160405180910390fd5b60018560ff16111561035357604051636a7d5e3560e01b815260ff861660048201526024015b60405180910390fd5b600061035d6114ca565b60408051808201825260ff808a1682526001600160a01b03808a166020808501918252600187015463ffffffff16600081815291889052958120855181549351909416610100026001600160a81b03199093169390941692909217179091559293509181907f4143434f554e545f415050524f56455f44454e595f4f5241434c450000000000906000805160206119b5833981519152905b60405190808252806020026020018201604052801561041e578160200160208202803683370190505b5060405161042c9190611911565b60405180910390a360018301805460009061044c9063ffffffff1661196b565b91906101000a81548163ffffffff021916908363ffffffff16021790555080955050505050509392505050565b6000856001600160a01b0381166104a3576040516371724ffd60e01b815260040160405180910390fd5b806001600160a01b03811663d4a7db7f336040516001600160e01b031960e084901b1681526001600160a01b039091166004820152602401602060405180830381865afa1580156104f8573d6000803e3d6000fd5b505050506040513d601f19601f8201168201806040525081019061051c91906118ef565b61053957604051631acd860160e31b815260040160405180910390fd5b6001600160a01b0388166105605760405163d92e233d60e01b815260040160405180910390fd5b620186a062ffffff8816111561059057604051630ade80db60e11b815262ffffff8816600482015260240161034a565b62ffffff871615806105a4575061ffff8616155b156105c257604051631153c6f560e21b815260040160405180910390fd5b6105d58567ffffffffffffffff166114f8565b60006105df611552565b6040805160808101825262ffffff808c16825261ffff808c16602080850191825267ffffffffffffffff808e16868801908152606087018e81526001808b015463ffffffff166000818152958c9052998520895181549751945190951665010000000000026cffffffffffffffff0000000000199490981663010000000264ffffffffff1990971694909816939093179490941716939093178455905192909101919091559293509181907f544f4b454e5f4d41585f54524144494e475f564f4c554d450000000000000000906000805160206119b5833981519152905b6040519080825280602002602001820160405280156106e6578160200160208202803683370190505b506040516106f49190611911565b60405180910390a36001830180546000906107149063ffffffff1661196b565b91906101000a81548163ffffffff021916908363ffffffff160217905550809550505050505095945050505050565b6000856001600160a01b03811661076d576040516371724ffd60e01b815260040160405180910390fd5b806001600160a01b03811663d4a7db7f336040516001600160e01b031960e084901b1681526001600160a01b039091166004820152602401602060405180830381865afa1580156107c2573d6000803e3d6000fd5b505050506040513d601f19601f820116820180604052508101906107e691906118ef565b61080357604051631acd860160e31b815260040160405180910390fd5b6001600160a01b03881661082a5760405163d92e233d60e01b815260040160405180910390fd5b61ffff8716158061083d575061ffff8616155b8061084a575061ffff8516155b1561086857604051631153c6f560e21b815260040160405180910390fd5b6000610872611580565b6040805160808101825261ffff808c1682528a811660208084019182528b8316848601908152606085018c815260018089015463ffffffff166000818152948a9052978420875181549651945188166401000000000265ffff0000000019958916620100000263ffffffff1990981691909816179590951792909216949094178355925191909201559293509181906f544f4b454e5f564f4c4154494c49545960801b906000805160206119b5833981519152906106bd565b6000856001600160a01b038116610955576040516371724ffd60e01b815260040160405180910390fd5b806001600160a01b03811663d4a7db7f336040516001600160e01b031960e084901b1681526001600160a01b039091166004820152602401602060405180830381865afa1580156109aa573d6000803e3d6000fd5b505050506040513d601f19601f820116820180604052508101906109ce91906118ef565b6109eb57604051631acd860160e31b815260040160405180910390fd5b61ffff871615806109fe575061ffff8616155b15610a1c57604051631153c6f560e21b815260040160405180910390fd5b610a2f8567ffffffffffffffff166114f8565b6000610a396115ae565b6040805160808101825261ffff808c1682528a8116602080840191825267ffffffffffffffff808d16858701908152606086018d81526001808a015463ffffffff166000818152958b90529885208851815497519451909516640100000000026bffffffffffffffff0000000019948916620100000263ffffffff1990981695909816949094179590951791909116949094178155925192909101919091559293509181907f544f4b454e5f4d41585f535550504c595f564f4c4154494c4954590000000000906000805160206119b5833981519152906106bd565b6000856001600160a01b038116610b3f576040516371724ffd60e01b815260040160405180910390fd5b806001600160a01b03811663d4a7db7f336040516001600160e01b031960e084901b1681526001600160a01b039091166004820152602401602060405180830381865afa158015610b94573d6000803e3d6000fd5b505050506040513d601f19601f82011682018060405250810190610bb891906118ef565b610bd557604051631acd860160e31b815260040160405180910390fd5b6001600160a01b038816610bfc5760405163d92e233d60e01b815260040160405180910390fd5b61270f61ffff88161115610c2957604051630ade80db60e11b815261ffff8816600482015260240161034a565b61ffff86161580610c3c575061ffff8716155b15610c5a57604051631153c6f560e21b815260040160405180910390fd5b610c6d8467ffffffffffffffff166114f8565b6000610c776115dc565b6001808201546040805160808101825261ffff808e1682528c811660208084019182528385018e815267ffffffffffffffff808f166060870190815263ffffffff9098166000818152938b90529683208651815495518716620100000263ffffffff1990961696169590951793909317845551968301969096559351600290910180549190941667ffffffffffffffff199091161790925592935090829074544f4b454e5f4d41585f53454c4c5f564f4c554d4560581b906000805160206119b583398151915290604051908082528060200260200182016040528015610d68578160200160208202803683370190505b50604051610d769190611911565b60405180910390a3600183018054600090610d969063ffffffff1661196b565b91906101000a81548163ffffffff021916908363ffffffff160217905550819550505050505095945050505050565b6000856001600160a01b038116610def576040516371724ffd60e01b815260040160405180910390fd5b806001600160a01b03811663d4a7db7f336040516001600160e01b031960e084901b1681526001600160a01b039091166004820152602401602060405180830381865afa158015610e44573d6000803e3d6000fd5b505050506040513d601f19601f82011682018060405250810190610e6891906118ef565b610e8557604051631acd860160e31b815260040160405180910390fd5b6001600160a01b038816610eac5760405163d92e233d60e01b815260040160405180910390fd5b61270f61ffff88161115610ed957604051630ade80db60e11b815261ffff8816600482015260240161034a565b61ffff86161580610eec575061ffff8716155b15610f0a57604051631153c6f560e21b815260040160405180910390fd5b610f1d8467ffffffffffffffff166114f8565b6000610f2761160a565b6040805160808101825261ffff808c1682528a811660208084019182528385018c815267ffffffffffffffff808d16606087019081526001808a015463ffffffff166000818152958b90529885208851815497518916620100000263ffffffff1990981698169790971795909517865591519385019390935551600290930180549390921667ffffffffffffffff1990931692909217905592935091819073544f4b454e5f4d41585f4255595f564f4c554d4560601b906000805160206119b5833981519152906106bd565b60408051808201909152600080825260208201526110226110126101fb565b63ffffffff808516919061163816565b600061102c611496565b63ffffffff909316600090815260209384526040908190208151808301909252805482526001015461ffff16938101939093525090919050565b6000826001600160a01b038116611090576040516371724ffd60e01b815260040160405180910390fd5b806001600160a01b03811663d4a7db7f336040516001600160e01b031960e084901b1681526001600160a01b039091166004820152602401602060405180830381865afa1580156110e5573d6000803e3d6000fd5b505050506040513d601f19601f8201168201806040525081019061110991906118ef565b61112657604051631acd860160e31b815260040160405180910390fd5b6001600160a01b03851661114d5760405163d92e233d60e01b815260040160405180910390fd5b8360000361116e57604051631153c6f560e21b815260040160405180910390fd5b6000611178611668565b6040805160208082018352888252600184015463ffffffff16600081815285835284812084519055845190815291820193849052939450909291829170544f4b454e5f4d494e5f54585f53495a4560781b916000805160206119b5833981519152916111e391611911565b60405180910390a36001830180546000906112039063ffffffff1661196b565b91906101000a81548163ffffffff021916908363ffffffff160217905550809550505050505092915050565b6000836001600160a01b038116611259576040516371724ffd60e01b815260040160405180910390fd5b806001600160a01b03811663d4a7db7f336040516001600160e01b031960e084901b1681526001600160a01b039091166004820152602401602060405180830381865afa1580156112ae573d6000803e3d6000fd5b505050506040513d601f19601f820116820180604052508101906112d291906118ef565b6112ef57604051631acd860160e31b815260040160405180910390fd5b6001600160a01b0386166113165760405163d92e233d60e01b815260040160405180910390fd5b841580611325575061ffff8416155b1561134357604051631153c6f560e21b815260040160405180910390fd5b61271061ffff8516111561137057604051630ade80db60e11b815261ffff8516600482015260240161034a565b600061137a611496565b60408051808201825288815261ffff888116602080840191825260018681015463ffffffff166000818152928890529582208551815592519201805461ffff19169290931691909117909155929350918190704255595f4645455f42595f564f4c554d4560781b906000805160206119b5833981519152906103f5565b60408051608081018252600080825260208201819052918101829052606081019190915261142661101261148b565b6000611430611580565b63ffffffff909316600090815260209384526040908190208151608081018352815461ffff80821683526201000082048116978301979097526401000000009004909516918501919091526001015460608401525090919050565b600080610206611580565b6000806114c460017f226ceb21dfcac639e4009f1c19fb67c8e9e0c6c637eb862a0f2921973f16ea4061198e565b92915050565b6000806114c460017f393520d3a7ae2d5ebb865efe7c253600ffe7f63536515bbd509b4936416fc46c61198e565b67ffffffffffffffff811615806115255750611518426301dfe2006119a1565b8167ffffffffffffffff16115b1561154f57604051634275ae3b60e01b815267ffffffffffffffff8216600482015260240161034a565b50565b6000806114c460017f7ec0480b9860da71df40eeba9d55d11a6e64e9befe36fdfcdb7f8f7bb7dae19c61198e565b6000806114c460017fb76f41a74bf49284233f04293712da3b797b7ee4d348322d4d20083f7b3b809961198e565b6000806114c460017fe933e4fa004729344ad93dde4bd94d0b881b307b0cca199749c0ad3af242919961198e565b6000806114c460017f36a6b5e1dcad62c6cb5da92222f5f227370563aad6447813d73230d0fad88f7461198e565b6000806114c460017f25a585c2e8f7fa7b14633f4226915cea53b2c82875c542bdc3e0d9112ee62c0861198e565b8163ffffffff168163ffffffff1611611664576040516325ef9da360e11b815260040160405180910390fd5b5050565b6000806114c460017fdc15be84837e6adc6cb93c079465be8e43c2ac54b75e2a73d79900c1c9f9c9c561198e565b80356001600160a01b03811681146116ad57600080fd5b919050565b6000806000606084860312156116c757600080fd5b6116d084611696565b9250602084013560ff811681146116e657600080fd5b91506116f460408501611696565b90509250925092565b803561ffff811681146116ad57600080fd5b803567ffffffffffffffff811681146116ad57600080fd5b600080600080600060a0868803121561173f57600080fd5b61174886611696565b9450602086013562ffffff8116811461176057600080fd5b935061176e604087016116fd565b925061177c6060870161170f565b949793965091946080013592915050565b600080600080600060a086880312156117a557600080fd5b6117ae86611696565b94506117bc602087016116fd565b93506117ca604087016116fd565b925061177c606087016116fd565b600080600080600060a086880312156117f057600080fd5b6117f986611696565b9450611760602087016116fd565b600080600080600060a0868803121561181f57600080fd5b61182886611696565b9450611836602087016116fd565b9350611844604087016116fd565b9250606086013591506118596080870161170f565b90509295509295909350565b60006020828403121561187757600080fd5b813563ffffffff8116811461188b57600080fd5b9392505050565b600080604083850312156118a557600080fd5b6118ae83611696565b946020939093013593505050565b6000806000606084860312156118d157600080fd5b6118da84611696565b9250602084013591506116f4604085016116fd565b60006020828403121561190157600080fd5b8151801515811461188b57600080fd5b6020808252825182820181905260009190848201906040850190845b818110156119495783518352928401929184019160010161192d565b50909695505050505050565b634e487b7160e01b600052601160045260246000fd5b600063ffffffff80831681810361198457611984611955565b6001019392505050565b818103818111156114c4576114c4611955565b808201808211156114c4576114c461195556fec8c31d1b3fae743175dd37c3ed86aca4d193c9fcd5732cc172fbd4e9bc170e8aa2646970667358221220fcb90a01aa065e4024362b1b80ce68fe0b8a3168d23f09736507ba5c92ed287064736f6c63430008180033608060405234801561001057600080fd5b5061172f806100206000396000f3fe608060405234801561001057600080fd5b50600436106100575760003560e01c80632f96d4d41461005c578063402c73b0146100885780636dec90641461009b578063abe04422146100ae578063d3f35808146100c1575b600080fd5b61006f61006a3660046112ee565b6100d4565b60405163ffffffff909116815260200160405180910390f35b61006f6100963660046113a8565b61020a565b61006f6100a93660046112ee565b610380565b61006f6100bc36600461148c565b6104ce565b61006f6100cf3660046114bf565b6106b6565b6000886001600160a01b0381166100fe576040516371724ffd60e01b815260040160405180910390fd5b806001600160a01b03811663d4a7db7f336040516001600160e01b031960e084901b1681526001600160a01b039091166004820152602401602060405180830381865afa158015610153573d6000803e3d6000fd5b505050506040513d601f19601f82011682018060405250810190610177919061154e565b61019457604051631acd860160e31b815260040160405180910390fd5b88871415806101a35750888514155b156101c05760405162514d8b60e31b815260040160405180910390fd5b60008990036101e2576040516357a7068b60e01b815260040160405180910390fd5b6101ec8a8a610824565b6101fb8a8a8a8a8a8a8a61087f565b9b9a5050505050505050505050565b60008a6001600160a01b038116610234576040516371724ffd60e01b815260040160405180910390fd5b806001600160a01b03811663d4a7db7f336040516001600160e01b031960e084901b1681526001600160a01b039091166004820152602401602060405180830381865afa158015610289573d6000803e3d6000fd5b505050506040513d601f19601f820116820180604052508101906102ad919061154e565b6102ca57604051631acd860160e31b815260040160405180910390fd5b6001600160a01b038d166102f15760405163d92e233d60e01b815260040160405180910390fd5b8a8914158061030057508a8714155b806103155750841580159061031557508a8514155b156103325760405162514d8b60e31b815260040160405180910390fd5b60008b9003610354576040516357a7068b60e01b815260040160405180910390fd5b61035e8c8c610824565b61036f8c8c8c8c8c8c8c8c8c610a98565b9d9c50505050505050505050505050565b6000886001600160a01b0381166103aa576040516371724ffd60e01b815260040160405180910390fd5b806001600160a01b03811663d4a7db7f336040516001600160e01b031960e084901b1681526001600160a01b039091166004820152602401602060405180830381865afa1580156103ff573d6000803e3d6000fd5b505050506040513d601f19601f82011682018060405250810190610423919061154e565b61044057604051631acd860160e31b815260040160405180910390fd5b6001600160a01b038b166104675760405163d92e233d60e01b815260040160405180910390fd5b88871415806104765750888514155b156104935760405162514d8b60e31b815260040160405180910390fd5b60008990036104b5576040516357a7068b60e01b815260040160405180910390fd5b6104bf8a8a610824565b6101fb8a8a8a8a8a8a8a610dac565b6000836001600160a01b0381166104f8576040516371724ffd60e01b815260040160405180910390fd5b806001600160a01b03811663d4a7db7f336040516001600160e01b031960e084901b1681526001600160a01b039091166004820152602401602060405180830381865afa15801561054d573d6000803e3d6000fd5b505050506040513d601f19601f82011682018060405250810190610571919061154e565b61058e57604051631acd860160e31b815260040160405180910390fd5b6000610598610fa4565b9050856000036105bb57604051631153c6f560e21b815260040160405180910390fd5b4285116105e3576040516301c0893960e31b8152600481018690526024015b60405180910390fd5b60018181015460408051808201825289815260208082018a815263ffffffff909416600081815287835284812084518155955195909601949094558251948552840191829052919283917f41444d494e5f4d494e5f544f4b454e5f42414c414e4345000000000000000000916000805160206116da833981519152916106699190611577565b60405180910390a36001830180546000906106899063ffffffff166115d1565b91906101000a81548163ffffffff021916908363ffffffff16021790555081955050505050509392505050565b6000866001600160a01b0381166106e0576040516371724ffd60e01b815260040160405180910390fd5b806001600160a01b03811663d4a7db7f336040516001600160e01b031960e084901b1681526001600160a01b039091166004820152602401602060405180830381865afa158015610735573d6000803e3d6000fd5b505050506040513d601f19601f82011682018060405250810190610759919061154e565b61077657604051631acd860160e31b815260040160405180910390fd5b6001600160a01b03891661079d5760405163d92e233d60e01b815260040160405180910390fd5b8615806107b157506001600160401b038416155b156107cf57604051631153c6f560e21b815260040160405180910390fd5b8685146107ee5760405162514d8b60e31b815260040160405180910390fd5b610800846001600160401b0316610fd8565b61080a8888610824565b610817888888888861102f565b9998505050505050505050565b600181111561087b5760005b8181101561087957600083838381811061084c5761084c6115f4565b905060200201350361087157604051636bb35a9960e01b815260040160405180910390fd5b600101610830565b505b5050565b60008061088a6111b8565b600281015490915063ffffffff166108aa6001600160401b038516610fd8565b60005b898110156109df578888828181106108c7576108c76115f4565b905060200201356000148061090457508686828181106108e9576108e96115f4565b90506020020160208101906108fe919061160a565b61ffff16155b1561092257604051631153c6f560e21b815260040160405180910390fd5b60405180604001604052808a8a8481811061093f5761093f6115f4565b90506020020135815260200188888481811061095d5761095d6115f4565b9050602002016020810190610972919061160a565b61ffff16905263ffffffff83166000908152602085905260408120908d8d858181106109a0576109a06115f4565b6020908102929092013583525081810192909252604001600020825181559101516001918201805461ffff191661ffff909216919091179055016108ad565b5063ffffffff8116600081815260018401602052604090819020805467ffffffffffffffff19166001600160401b03881617905551734143434f554e545f4d41585f4255595f53495a4560601b906000805160206116da83398151915290610a4a908e908e9061162e565b60405180910390a3600282018054600090610a6a9063ffffffff166115d1565b91906101000a81548163ffffffff021916908363ffffffff1602179055508092505050979650505050505050565b600080610aa36111e6565b600281015490915063ffffffff166001600160401b038416600003610ac6574293505b60005b8b811015610cce578a8a82818110610ae357610ae36115f4565b9050602002013560001480610b105750888882818110610b0557610b056115f4565b905060200201356000145b15610b2e57604051631153c6f560e21b815260040160405180910390fd5b888882818110610b4057610b406115f4565b905060200201358b8b83818110610b5957610b596115f4565b905060200201351115610b7f5760405163eeb9d4f760e01b815260040160405180910390fd5b8515801590610bb65750868682818110610b9b57610b9b6115f4565b9050602002016020810190610bb0919061160a565b61ffff16155b15610bd457604051632dd4652960e21b815260040160405180910390fd5b60405180606001604052808c8c84818110610bf157610bf16115f4565b9050602002013581526020018a8a84818110610c0f57610c0f6115f4565b60209081029290920135835250018715610c4f57888884818110610c3557610c356115f4565b9050602002016020810190610c4a919061160a565b610c52565b60005b61ffff16905263ffffffff83166000908152602085905260408120908f8f85818110610c8057610c806115f4565b6020908102929092013583525081810192909252604090810160002083518155918301516001808401919091559201516002909101805461ffff191661ffff90921691909117905501610ac9565b50838260010160008363ffffffff1663ffffffff16815260200190815260200160002060006101000a8154816001600160401b0302191690836001600160401b031602179055508063ffffffff167f4143434f554e545f4d494e5f4d41585f544f4b454e5f42414c414e43450000006000805160206116da8339815191528e8e604051610d5c92919061162e565b60405180910390a3600282018054600090610d7c9063ffffffff166115d1565b91906101000a81548163ffffffff021916908363ffffffff16021790555080925050509998505050505050505050565b600080610db7611214565b600281015490915063ffffffff16610dd76001600160401b038516610fd8565b60005b89811015610f3857888882818110610df457610df46115f4565b9050602002016020810190610e099190611667565b6001600160c01b03161580610e465750868682818110610e2b57610e2b6115f4565b9050602002016020810190610e40919061160a565b61ffff16155b15610e6457604051631153c6f560e21b815260040160405180910390fd5b60405180604001604052808a8a84818110610e8157610e816115f4565b9050602002016020810190610e969190611667565b6001600160c01b03168152602001888884818110610eb657610eb66115f4565b9050602002016020810190610ecb919061160a565b61ffff16905263ffffffff83166000908152602085905260408120908d8d85818110610ef957610ef96115f4565b6020908102929092013583525081810192909252604001600020825181559101516001918201805461ffff191661ffff90921691909117905501610dda565b5063ffffffff8116600081815260018401602052604090819020805467ffffffffffffffff19166001600160401b03881617905551744143434f554e545f4d41585f53454c4c5f53495a4560581b906000805160206116da83398151915290610a4a908e908e9061162e565b600080610fd260017f5387434b2d3be7a91940ea8e6fee24226ef10692fcf63e7e5c04ec47fd7f9d79611690565b92915050565b6001600160401b03811615806110035750610ff7426301dfe2006116a3565b816001600160401b0316115b1561102c57604051634275ae3b60e01b81526001600160401b03821660048201526024016105da565b50565b60008061103a611242565b600181015490915063ffffffff1660005b8781101561111e5760006040518060400160405280898985818110611072576110726115f4565b905060200201602081019061108791906116b6565b60ff1681526001600160401b03881660209182015263ffffffff8516600090815290869052604081209192508291908c8c868181106110c8576110c86115f4565b60209081029290920135835250818101929092526040016000208251815493909201516001600160401b03166101000268ffffffffffffffffff1990931660ff909216919091179190911790555060010161104b565b506040805160008152602081019182905263ffffffff83169175544f4b454e5f4d41585f4441494c595f54524144455360501b916000805160206116da8339815191529161116c9190611577565b60405180910390a360018201805460009061118c9063ffffffff166115d1565b91906101000a81548163ffffffff021916908363ffffffff160217905550809250505095945050505050565b600080610fd260017fb55fad9ae18bf1512bc017f51e2b8984d659cd3a8848cbaa71ef7c0999db6bd0611690565b600080610fd260017f57f022a955ea4a82d6829b2369e82ccc92e1e803cd0f0f5669038f7b6e994fc6611690565b600080610fd260017f1162e821763e1a90b75e60ad1e076d131a2344e0b7a0b39fe6e1691100701615611690565b600080610fd260017f5f3e73a83d0712e1b13444a98d0279e8921ea9760d8491b3bab0cf95044a4a4f611690565b80356001600160a01b038116811461128757600080fd5b919050565b60008083601f84011261129e57600080fd5b5081356001600160401b038111156112b557600080fd5b6020830191508360208260051b85010111156112d057600080fd5b9250929050565b80356001600160401b038116811461128757600080fd5b60008060008060008060008060a0898b03121561130a57600080fd5b61131389611270565b975060208901356001600160401b038082111561132f57600080fd5b61133b8c838d0161128c565b909950975060408b013591508082111561135457600080fd5b6113608c838d0161128c565b909750955060608b013591508082111561137957600080fd5b506113868b828c0161128c565b9094509250611399905060808a016112d7565b90509295985092959890939650565b60008060008060008060008060008060c08b8d0312156113c757600080fd5b6113d08b611270565b995060208b01356001600160401b03808211156113ec57600080fd5b6113f88e838f0161128c565b909b50995060408d013591508082111561141157600080fd5b61141d8e838f0161128c565b909950975060608d013591508082111561143657600080fd5b6114428e838f0161128c565b909750955060808d013591508082111561145b57600080fd5b506114688d828e0161128c565b909450925061147b905060a08c016112d7565b90509295989b9194979a5092959850565b6000806000606084860312156114a157600080fd5b6114aa84611270565b95602085013595506040909401359392505050565b600080600080600080608087890312156114d857600080fd5b6114e187611270565b955060208701356001600160401b03808211156114fd57600080fd5b6115098a838b0161128c565b9097509550604089013591508082111561152257600080fd5b5061152f89828a0161128c565b90945092506115429050606088016112d7565b90509295509295509295565b60006020828403121561156057600080fd5b8151801515811461157057600080fd5b9392505050565b6020808252825182820181905260009190848201906040850190845b818110156115af57835183529284019291840191600101611593565b50909695505050505050565b634e487b7160e01b600052601160045260246000fd5b600063ffffffff8083168181036115ea576115ea6115bb565b6001019392505050565b634e487b7160e01b600052603260045260246000fd5b60006020828403121561161c57600080fd5b813561ffff8116811461157057600080fd5b6020808252810182905260006001600160fb1b0383111561164e57600080fd5b8260051b80856040850137919091016040019392505050565b60006020828403121561167957600080fd5b81356001600160c01b038116811461157057600080fd5b81810381811115610fd257610fd26115bb565b80820180821115610fd257610fd26115bb565b6000602082840312156116c857600080fd5b813560ff8116811461157057600080fdfec8c31d1b3fae743175dd37c3ed86aca4d193c9fcd5732cc172fbd4e9bc170e8aa264697066735822122009a08859fa3dea1f4d6bebc91f99d7d92f631fe689819004251866a1521628b864736f6c63430008180033608060405234801561001057600080fd5b50611516806100206000396000f3fe608060405234801561001057600080fd5b506004361061004c5760003560e01c806315f7748814610051578063517048c61461007d578063b25e90f614610090578063f16c0ae0146100a3575b600080fd5b61006461005f3660046111f6565b6100b6565b60405163ffffffff909116815260200160405180910390f35b61006461008b366004611248565b6103a2565b61006461009e3660046112c8565b61063c565b6100646100b13660046111f6565b610ae4565b6000836001600160a01b0381166100e0576040516371724ffd60e01b815260040160405180910390fd5b806001600160a01b03811663d4a7db7f336040516001600160e01b031960e084901b1681526001600160a01b039091166004820152602401602060405180830381865afa158015610135573d6000803e3d6000fd5b505050506040513d601f19601f82011682018060405250810190610159919061137d565b61017657604051631acd860160e31b815260040160405180910390fd5b6000610180610d81565b600181015490915063ffffffff16600586146101b957604051636f65fbb760e01b815260ff871660048201526024015b60405180910390fd5b60015b868110156102535787876101d16001846113bc565b8181106101e0576101e06113cf565b90506020020160208101906101f591906113e5565b65ffffffffffff1688888381811061020f5761020f6113cf565b905060200201602081019061022491906113e5565b65ffffffffffff16101561024b57604051631e5b8f7b60e11b815260040160405180910390fd5b6001016101bc565b5060005b60ff81168711156102d15787878260ff16818110610277576102776113cf565b905060200201602081019061028c91906113e5565b63ffffffff831660009081526020858152604080832060ff861684529091529020805465ffffffffffff191665ffffffffffff92909216919091179055600101610257565b506001820180546000906102ea9063ffffffff1661140d565b91906101000a81548163ffffffff021916908363ffffffff1602179055508063ffffffff167f4143435f4d41585f56414c55455f42595f4143434553535f4c4556454c0000006000805160206114c183398151915260006001600160401b0381111561035857610358611430565b604051908082528060200260200182016040528015610381578160200160208202803683370190505b5060405161038f9190611446565b60405180910390a3979650505050505050565b6000856001600160a01b0381166103cc576040516371724ffd60e01b815260040160405180910390fd5b806001600160a01b03811663d4a7db7f336040516001600160e01b031960e084901b1681526001600160a01b039091166004820152602401602060405180830381865afa158015610421573d6000803e3d6000fd5b505050506040513d601f19601f82011682018060405250810190610445919061137d565b61046257604051631acd860160e31b815260040160405180910390fd5b83861461048257604051633f4ab26f60e21b815260040160405180910390fd5b60008490036104a4576040516357a7068b60e01b815260040160405180910390fd5b606387876104b36001826113bc565b8181106104c2576104c26113cf565b90506020020160208101906104d7919061148a565b60ff1611156104f957604051630fe5d10960e41b815260040160405180910390fd5b60015b868110156105885787876105116001846113bc565b818110610520576105206113cf565b9050602002016020810190610535919061148a565b60ff1688888381811061054a5761054a6113cf565b905060200201602081019061055f919061148a565b60ff161161058057604051631e5b8f7b60e11b815260040160405180910390fd5b6001016104fc565b5060015b848110156106235785856105a16001846113bc565b8181106105b0576105b06113cf565b90506020020160208101906105c591906113e5565b65ffffffffffff168686838181106105df576105df6113cf565b90506020020160208101906105f491906113e5565b65ffffffffffff16111561061b57604051631e5b8f7b60e11b815260040160405180910390fd5b60010161058c565b5061063087878787610db5565b98975050505050505050565b6000876001600160a01b038116610666576040516371724ffd60e01b815260040160405180910390fd5b806001600160a01b03811663d4a7db7f336040516001600160e01b031960e084901b1681526001600160a01b039091166004820152602401602060405180830381865afa1580156106bb573d6000803e3d6000fd5b505050506040513d601f19601f820116820180604052508101906106df919061137d565b6106fc57604051631acd860160e31b815260040160405180910390fd5b87861461071c57604051633f4ab26f60e21b815260040160405180910390fd5b600088900361073e576040516357a7068b60e01b815260040160405180910390fd5b6063878761074d6001826113bc565b81811061075c5761075c6113cf565b9050602002016020810190610771919061148a565b60ff16111561079357604051630fe5d10960e41b815260040160405180910390fd5b60015b868110156108225787876107ab6001846113bc565b8181106107ba576107ba6113cf565b90506020020160208101906107cf919061148a565b60ff168888838181106107e4576107e46113cf565b90506020020160208101906107f9919061148a565b60ff161161081a57604051631e5b8f7b60e11b815260040160405180910390fd5b600101610796565b5060015b888110156108bd57898961083b6001846113bc565b81811061084a5761084a6113cf565b905060200201602081019061085f91906113e5565b65ffffffffffff168a8a83818110610879576108796113cf565b905060200201602081019061088e91906113e5565b65ffffffffffff1611156108b557604051631e5b8f7b60e11b815260040160405180910390fd5b600101610826565b506108d0846001600160401b0316610f50565b60006108da610fa7565b905060008160010160009054906101000a900463ffffffff169050600060405180608001604052808d8d808060200260200160405190810160405280939291908181526020018383602002808284376000920191909152505050908252506040805160208d810282810182019093528d82529283019290918e918e918291850190849080828437600092018290525093855250505061ffff8b166020808401919091526001600160401b038b1660409384015263ffffffff8616825286815291902082518051939450849391926109b692849290910190611031565b5060208281015180516109cf92600185019201906110e6565b506040820151600290910180546060909301516001600160401b0316620100000269ffffffffffffffffffff1990931661ffff90921691909117919091179055600183018054600090610a279063ffffffff1661140d565b91906101000a81548163ffffffff021916908363ffffffff1602179055508163ffffffff167f4143435f4d41585f54585f56414c55455f42595f5249534b5f53434f524500006000805160206114c183398151915260006001600160401b03811115610a9557610a95611430565b604051908082528060200260200182016040528015610abe578160200160208202803683370190505b50604051610acc9190611446565b60405180910390a3509b9a5050505050505050505050565b6000836001600160a01b038116610b0e576040516371724ffd60e01b815260040160405180910390fd5b806001600160a01b03811663d4a7db7f336040516001600160e01b031960e084901b1681526001600160a01b039091166004820152602401602060405180830381865afa158015610b63573d6000803e3d6000fd5b505050506040513d601f19601f82011682018060405250810190610b87919061137d565b610ba457604051631acd860160e31b815260040160405180910390fd5b6000610bae610fd5565b600181015490915063ffffffff1660058614610be257604051631f28659f60e31b815260ff871660048201526024016101b0565b60015b86811015610c7c578787610bfa6001846113bc565b818110610c0957610c096113cf565b9050602002016020810190610c1e91906113e5565b65ffffffffffff16888883818110610c3857610c386113cf565b9050602002016020810190610c4d91906113e5565b65ffffffffffff161015610c7457604051631e5b8f7b60e11b815260040160405180910390fd5b600101610be5565b5060005b60ff8116871115610cfa5787878260ff16818110610ca057610ca06113cf565b9050602002016020810190610cb591906113e5565b63ffffffff831660009081526020858152604080832060ff861684529091529020805465ffffffffffff191665ffffffffffff92909216919091179055600101610c80565b50600182018054600090610d139063ffffffff1661140d565b91906101000a81548163ffffffff021916908363ffffffff1602179055508063ffffffff167f4143435f4d41585f56414c55455f4f55545f4143434553535f4c4556454c00006000805160206114c183398151915260006001600160401b0381111561035857610358611430565b600080610daf60017f4815e3fa667405e725c432fd6db2286588ecce84f997ea5bdb96e5e764a28d486113bc565b92915050565b600080610dc0611003565b600181015460408051606060208a02808301820184529282018a815294955063ffffffff90931693600093919283928c918c9182919086019084908082843760009201919091525050509082525060408051602089810282810182019093528982529283019290918a918a918291850190849080828437600092018290525093909452505063ffffffff8516815260208681526040909120835180519495508594919350610e729284929101906110e6565b506020828101518051610e8b9260018501920190611031565b505050600183018054600090610ea69063ffffffff1661140d565b91906101000a81548163ffffffff021916908363ffffffff1602179055508163ffffffff166e42414c414e43455f42595f5249534b60881b6000805160206114c183398151915260006001600160401b03811115610f0657610f06611430565b604051908082528060200260200182016040528015610f2f578160200160208202803683370190505b50604051610f3d9190611446565b60405180910390a3509695505050505050565b6001600160401b0381161580610f7b5750610f6f426301dfe2006114ad565b816001600160401b0316115b15610fa457604051634275ae3b60e01b81526001600160401b03821660048201526024016101b0565b50565b600080610daf60017f83267efb4f531fecf2aed040d8a6b66e44808d12f27a568b82ac7d35297d9fad6113bc565b600080610daf60017fcd576fc088c5eb040f665f257428613253482a372b228b4e0451df92d88b2b2d6113bc565b600080610daf60017f4ad28c94cb815a5bc8c4c7a6826bafcf87389a6ca864ba468204d2b980cfcd5f6113bc565b828054828255906000526020600020906004016005900481019282156110d65791602002820160005b838211156110a257835183826101000a81548165ffffffffffff021916908365ffffffffffff160217905550926020019260060160208160050104928301926001030261105a565b80156110d45782816101000a81549065ffffffffffff02191690556006016020816005010492830192600103026110a2565b505b506110e292915061117a565b5090565b82805482825590600052602060002090601f016020900481019282156110d65791602002820160005b8382111561114d57835183826101000a81548160ff021916908360ff160217905550926020019260010160208160000104928301926001030261110f565b80156110d45782816101000a81549060ff021916905560010160208160000104928301926001030261114d565b5b808211156110e2576000815560010161117b565b80356001600160a01b03811681146111a657600080fd5b919050565b60008083601f8401126111bd57600080fd5b5081356001600160401b038111156111d457600080fd5b6020830191508360208260051b85010111156111ef57600080fd5b9250929050565b60008060006040848603121561120b57600080fd5b6112148461118f565b925060208401356001600160401b0381111561122f57600080fd5b61123b868287016111ab565b9497909650939450505050565b60008060008060006060868803121561126057600080fd5b6112698661118f565b945060208601356001600160401b038082111561128557600080fd5b61129189838a016111ab565b909650945060408801359150808211156112aa57600080fd5b506112b7888289016111ab565b969995985093965092949392505050565b600080600080600080600060a0888a0312156112e357600080fd5b6112ec8861118f565b965060208801356001600160401b038082111561130857600080fd5b6113148b838c016111ab565b909850965060408a013591508082111561132d57600080fd5b6113398b838c016111ab565b909650945060608a0135915061ffff8216821461135557600080fd5b909250608089013590808216821461136c57600080fd5b508091505092959891949750929550565b60006020828403121561138f57600080fd5b8151801515811461139f57600080fd5b9392505050565b634e487b7160e01b600052601160045260246000fd5b81810381811115610daf57610daf6113a6565b634e487b7160e01b600052603260045260246000fd5b6000602082840312156113f757600080fd5b813565ffffffffffff8116811461139f57600080fd5b600063ffffffff808316818103611426576114266113a6565b6001019392505050565b634e487b7160e01b600052604160045260246000fd5b6020808252825182820181905260009190848201906040850190845b8181101561147e57835183529284019291840191600101611462565b50909695505050505050565b60006020828403121561149c57600080fd5b813560ff8116811461139f57600080fd5b80820180821115610daf57610daf6113a656fec8c31d1b3fae743175dd37c3ed86aca4d193c9fcd5732cc172fbd4e9bc170e8aa2646970667358221220ab9f9ca06f7fb07ad56ac1b8411f9fd148c8e8c204aad5600da1b96dad5ffaf964736f6c63430008180033608060405234801561001057600080fd5b5061001a33610048565b6040517fa4046c0fb355112e748dbb5a617d2269cb4077a1e3aca42ac6548de84d53293a90600090a1610098565b600080546001600160a01b038381166001600160a01b0319831681178455604051919092169283917f8be0079c531659141344cd1fd0a4f28419497f9722a3daafe3b4186f6b6457e09190a35050565b610787806100a76000396000f3fe608060405234801561001057600080fd5b50600436106100935760003560e01c8063715018a611610066578063715018a6146100f15780638da5cb5b146100f9578063b6e1418e14610114578063e838dfbb14610137578063f2fde38b1461016357600080fd5b806306fdde031461009857806309560725146100b65780633a9b8afa146100cb5780634fcacc4e146100de575b600080fd5b6100a0610176565b6040516100ad9190610569565b60405180910390f35b6100c96100c43660046105e5565b610196565b005b6100c96100d93660046106aa565b61023b565b6100c96100ec3660046105e5565b6102f6565b6100c961038f565b6000546040516001600160a01b0390911681526020016100ad565b6101276101223660046106aa565b6103a3565b60405190151581526020016100ad565b6101276101453660046106aa565b6001600160a01b031660009081526001602052604090205460ff1690565b6100c96101713660046106aa565b610441565b606060405180606001604052806022815260200161073060229139905090565b61019e6104bf565b60005b81518110156101fc576000600160008484815181106101c2576101c26106cc565b6020908102919091018101516001600160a01b03168252810191909152604001600020805460ff19169115159190911790556001016101a1565b50600015157f4d94b8b2cb01ce2763a1f00ce532761cdfbd25a165c8d48ef747954e08225aa78260405161023091906106e2565b60405180910390a250565b6102436104bf565b6001600160a01b0381166000908152600160208181526040808420805460ff1916841790558051838152808201909152919082810190803683370190505090508181600081518110610297576102976106cc565b60200260200101906001600160a01b031690816001600160a01b031681525050600115157f4d94b8b2cb01ce2763a1f00ce532761cdfbd25a165c8d48ef747954e08225aa7826040516102ea91906106e2565b60405180910390a25050565b6102fe6104bf565b60005b815181101561035b576001806000848481518110610321576103216106cc565b6020908102919091018101516001600160a01b03168252810191909152604001600020805460ff1916911515919091179055600101610301565b50600115157f4d94b8b2cb01ce2763a1f00ce532761cdfbd25a165c8d48ef747954e08225aa78260405161023091906106e2565b6103976104bf565b6103a16000610519565b565b6001600160a01b03811660009081526001602052604081205460ff1615610400576040516001600160a01b038316907fa89c2529b831869b2402fc90ad56668ac8e7d82a31a5aa2d2590f8bfa64959af90600090a2506001919050565b6040516001600160a01b038316907f0e5e851f0aa1fbc9d7198329f35c7fa285ed2644419609d9a7c7a9b89620f3da90600090a2506000919050565b919050565b6104496104bf565b6001600160a01b0381166104b35760405162461bcd60e51b815260206004820152602660248201527f4f776e61626c653a206e6577206f776e657220697320746865207a65726f206160448201526564647265737360d01b60648201526084015b60405180910390fd5b6104bc81610519565b50565b6000546001600160a01b031633146103a15760405162461bcd60e51b815260206004820181905260248201527f4f776e61626c653a2063616c6c6572206973206e6f7420746865206f776e657260448201526064016104aa565b600080546001600160a01b038381166001600160a01b0319831681178455604051919092169283917f8be0079c531659141344cd1fd0a4f28419497f9722a3daafe3b4186f6b6457e09190a35050565b60006020808352835180602085015260005b818110156105975785810183015185820160400152820161057b565b506000604082860101526040601f19601f8301168501019250505092915050565b634e487b7160e01b600052604160045260246000fd5b80356001600160a01b038116811461043c57600080fd5b600060208083850312156105f857600080fd5b823567ffffffffffffffff8082111561061057600080fd5b818501915085601f83011261062457600080fd5b813581811115610636576106366105b8565b8060051b604051601f19603f8301168101818110858211171561065b5761065b6105b8565b60405291825284820192508381018501918883111561067957600080fd5b938501935b8285101561069e5761068f856105ce565b8452938501939285019261067e565b98975050505050505050565b6000602082840312156106bc57600080fd5b6106c5826105ce565b9392505050565b634e487b7160e01b600052603260045260246000fd5b6020808252825182820181905260009190848201906040850190845b818110156107235783516001600160a01b0316835292840192918401916001016106fe565b5090969550505050505056fe4578616d706c652064656e696564206f7261636c652844656e696564204c69737429a264697066735822122009a252b652d66c99ae2ed2722c8a360b726d023efc16ae55ce5212e67d74eb5f64736f6c63430008180033608060405234801561001057600080fd5b5061001a3361001f565b61006f565b600080546001600160a01b038381166001600160a01b0319831681178455604051919092169283917f8be0079c531659141344cd1fd0a4f28419497f9722a3daafe3b4186f6b6457e09190a35050565b61069f8061007e6000396000f3fe608060405234801561001057600080fd5b506004361061009e5760003560e01c80638da5cb5b116100665780638da5cb5b14610152578063bc2417931461016d578063e61b6a1614610180578063f2fde38b146101a0578063f3bb9fa6146101b357600080fd5b806354fd4d50146100a35780635586d150146100d35780636a8838761461010a578063715018a61461011f57806385ed8d4b14610127575b600080fd5b60408051808201825260058152640312e312e360dc1b602082015290516100ca9190610586565b60405180910390f35b6100fc6100e13660046105f1565b6001600160a01b031660009081526002602052604090205490565b6040519081526020016100ca565b61011d61011836600461060c565b6101c6565b005b61011d61027e565b6100fc61013536600461063f565b600160209081526000928352604080842090915290825290205481565b6000546040516001600160a01b0390911681526020016100ca565b6100fc61017b36600461063f565b610292565b6100fc61018e3660046105f1565b60026020526000908152604090205481565b61011d6101ae3660046105f1565b6102e6565b61011d6101c136600461063f565b61035f565b6101ce610404565b6101e86001600160a01b0384166380ac58cd60e01b61045e565b15610218576001600160a01b03831660009081526001602090815260408083208584529091529020819055610241565b60405163930bba6160e01b81526001600160a01b03841660048201526024015b60405180910390fd5b8082846001600160a01b03167f88a0337617143a16c1f4be178d1d97921625679e5f011391a4750448702571a460405160405180910390a4505050565b610286610404565b610290600061047a565b565b6001600160a01b03821660009081526001602090815260408083208484529091528120548082036102dd5750506001600160a01b0382166000908152600260205260409020546102e0565b90505b92915050565b6102ee610404565b6001600160a01b0381166103535760405162461bcd60e51b815260206004820152602660248201527f4f776e61626c653a206e6577206f776e657220697320746865207a65726f206160448201526564647265737360d01b6064820152608401610238565b61035c8161047a565b50565b610367610404565b6103816001600160a01b0383166380ac58cd60e01b61045e565b156103a6576001600160a01b03821660009081526002602052604090208190556103ca565b60405163930bba6160e01b81526001600160a01b0383166004820152602401610238565b60405181906001600160a01b038416907f4f64c7b8ad2e7dbb24ccb441fc295b758278067f4ae85efa45c5eacb2a6494a990600090a35050565b6000546001600160a01b031633146102905760405162461bcd60e51b815260206004820181905260248201527f4f776e61626c653a2063616c6c6572206973206e6f7420746865206f776e65726044820152606401610238565b6000610469836104ca565b80156102dd57506102dd83836104fd565b600080546001600160a01b038381166001600160a01b0319831681178455604051919092169283917f8be0079c531659141344cd1fd0a4f28419497f9722a3daafe3b4186f6b6457e09190a35050565b60006104dd826301ffc9a760e01b6104fd565b80156102e057506104f6826001600160e01b03196104fd565b1592915050565b604080516001600160e01b03198316602480830191909152825180830390910181526044909101909152602080820180516001600160e01b03166301ffc9a760e01b178152825160009392849283928392918391908a617530fa92503d9150600051905082801561056f575060208210155b801561057b5750600081115b979650505050505050565b60006020808352835180602085015260005b818110156105b457858101830151858201604001528201610598565b506000604082860101526040601f19601f8301168501019250505092915050565b80356001600160a01b03811681146105ec57600080fd5b919050565b60006020828403121561060357600080fd5b6102dd826105d5565b60008060006060848603121561062157600080fd5b61062a846105d5565b95602085013595506040909401359392505050565b6000806040838503121561065257600080fd5b61065b836105d5565b94602093909301359350505056fea2646970667358221220ba7089bc14f493b5d942f2043cf1e017cd6e376ada990f51ecc7d63377f21f6d64736f6c63430008180033608060405234801561001057600080fd5b5061001a3361001f565b61006f565b600080546001600160a01b038381166001600160a01b0319831681178455604051919092169283917f8be0079c531659141344cd1fd0a4f28419497f9722a3daafe3b4186f6b6457e09190a35050565b6103c88061007e6000396000f3fe608060405234801561001057600080fd5b506004361061007d5760003560e01c8063715018a61161005b578063715018a6146100f15780638da5cb5b146100f9578063d02641a014610114578063f2fde38b1461013d57600080fd5b8063204120bc146100825780632a9e4d1e146100b557806354fd4d50146100ca575b600080fd5b6100a26100903660046102f7565b60016020526000908152604090205481565b6040519081526020015b60405180910390f35b6100c86100c3366004610319565b610150565b005b60408051808201825260058152640312e312e360dc1b602082015290516100ac9190610343565b6100c861019f565b6000546040516001600160a01b0390911681526020016100ac565b6100a26101223660046102f7565b6001600160a01b031660009081526001602052604090205490565b6100c861014b3660046102f7565b6101b3565b610158610231565b6001600160a01b038216600081815260016020526040808220849055518392917f8ade12442f75008e56820ab24d14815e045a57d877b8bc72e1d4cfc0802bb46e91a35050565b6101a7610231565b6101b1600061028b565b565b6101bb610231565b6001600160a01b0381166102255760405162461bcd60e51b815260206004820152602660248201527f4f776e61626c653a206e6577206f776e657220697320746865207a65726f206160448201526564647265737360d01b60648201526084015b60405180910390fd5b61022e8161028b565b50565b6000546001600160a01b031633146101b15760405162461bcd60e51b815260206004820181905260248201527f4f776e61626c653a2063616c6c6572206973206e6f7420746865206f776e6572604482015260640161021c565b600080546001600160a01b038381166001600160a01b0319831681178455604051919092169283917f8be0079c531659141344cd1fd0a4f28419497f9722a3daafe3b4186f6b6457e09190a35050565b80356001600160a01b03811681146102f257600080fd5b919050565b60006020828403121561030957600080fd5b610312826102db565b9392505050565b6000806040838503121561032c57600080fd5b610335836102db565b946020939093013593505050565b60006020808352835180602085015260005b8181101561037157858101830151858201604001528201610355565b506000604082860101526040601f19601f830116850101925050509291505056fea264697066735822122098a3ead45daf1a1aa6f394db029d91a3db09c74f7f47ea7a7fc2cd1f87fa77fe64736f6c6343000818003360a060405234801561001057600080fd5b506040516112e93803806112e983398101604081905261002f916100a4565b8061003933610054565b6001600160a01b031660805261004e81610054565b506100d4565b600080546001600160a01b038381166001600160a01b0319831681178455604051919092169283917f8be0079c531659141344cd1fd0a4f28419497f9722a3daafe3b4186f6b6457e09190a35050565b6000602082840312156100b657600080fd5b81516001600160a01b03811681146100cd57600080fd5b9392505050565b6080516111d76101126000396000818161023c01528181610273015281816102ba0152818161039e015281816108eb015261093201526111d76000f3fe608060405234801561001057600080fd5b50600436106100f55760003560e01c8063b315cb3a11610097578063d019577a11610066578063d019577a14610201578063d37373ba14610224578063d3d24c9b14610237578063f2fde38b1461025e57600080fd5b8063b315cb3a146101b3578063b5ed298a146101c6578063bd9b6d86146101d9578063cc812f3a146101e157600080fd5b80635eafd108116100d35780635eafd10814610152578063715018a6146101655780638da5cb5b1461016d578063a81790581461019257600080fd5b80631bf974f3146100fa57806326a119291461010f57806354fd4d5014610122575b600080fd5b61010d610108366004610e0d565b610271565b005b61010d61011d366004610f32565b610409565b60408051808201825260058152640312e312e360dc1b602082015290516101499190610fed565b60405180910390f35b61010d61016036600461103c565b610487565b61010d6105e3565b6000546001600160a01b03165b6040516001600160a01b039091168152602001610149565b6101a56101a036600461103c565b6105f7565b604051908152602001610149565b61010d6101c1366004611066565b610628565b61010d6101d43660046110ab565b6108e9565b61010d610a49565b6101f46101ef3660046110ab565b610ab2565b60405161014991906110c6565b61021461020f36600461103c565b610b1e565b6040519015158152602001610149565b61010d61023236600461103c565b610b4c565b61017a7f000000000000000000000000000000000000000000000000000000000000000081565b61010d61026c3660046110ab565b610ce5565b7f00000000000000000000000000000000000000000000000000000000000000006001600160a01b03166102b8576040516371724ffd60e01b815260040160405180910390fd5b7f00000000000000000000000000000000000000000000000000000000000000006001600160a01b03811663c3c2ebbb336040516001600160e01b031960e084901b1681526001600160a01b039091166004820152602401602060405180830381865afa15801561032d573d6000803e3d6000fd5b505050506040513d601f19601f82011682018060405250810190610351919061110a565b15801561036957506000546001600160a01b03163314155b156103875760405163054f3a3160e31b815260040160405180910390fd5b604051632b124b7960e01b81526001600160a01b037f00000000000000000000000000000000000000000000000000000000000000001690632b124b79906103d390859060040161112c565b600060405180830381600087803b1580156103ed57600080fd5b505af1158015610401573d6000803e3d6000fd5b505050505050565b610411610d63565b80518251146104325760405162514d8b60e31b815260040160405180910390fd5b60005b82518110156104825761047a83828151811061045357610453611154565b602002602001015183838151811061046d5761046d611154565b6020026020010151610487565b600101610435565b505050565b61048f610d63565b806000036104b05760405163d7be2be360e01b815260040160405180910390fd5b6001600160a01b0382166104d75760405163d92e233d60e01b815260040160405180910390fd5b6104e18282610b1e565b1561051e576040516001600160a01b038316907f33a66df9ee2fd21e38fe3deee3babfebcde277451a9acc49ed0ae93c16e3e17290600090a25050565b6001600160a01b038216600090815260036020526040902054600a11610557576040516351d7d97160e11b815260040160405180910390fd5b6001600160a01b03821660008181526003602090815260408083208054600484528285208786528452828520819055600180820183559185528385200186905584845260058352818420868552909252808320805460ff191683179055519092849290917ffff458da2d09c8be67a97dc8c3f8f316c0f1afb907fc6de8d8c191f6bb8ebb0f9190a45050565b6105eb610d63565b6105f56000610dbd565b565b6003602052816000526040600020818154811061061357600080fd5b90600052602060002001600091509150505481565b610630610d63565b806000036106515760405163d7be2be360e01b815260040160405180910390fd5b60005b82518110156104825761068083828151811061067257610672611154565b602002602001015183610b1e565b156106d95782818151811061069757610697611154565b60200260200101516001600160a01b03167f33a66df9ee2fd21e38fe3deee3babfebcde277451a9acc49ed0ae93c16e3e17260405160405180910390a26108e1565b600a60ff16600360008584815181106106f4576106f4611154565b60200260200101516001600160a01b03166001600160a01b03168152602001908152602001600020805490501061073e576040516351d7d97160e11b815260040160405180910390fd5b6003600084838151811061075457610754611154565b60200260200101516001600160a01b03166001600160a01b03168152602001908152602001600020805490506004600085848151811061079657610796611154565b60200260200101516001600160a01b03166001600160a01b03168152602001908152602001600020600084815260200190815260200160002081905550600360008483815181106107e9576107e9611154565b6020908102919091018101516001600160a01b0316825281810192909252604001600090812080546001818101835591835292822090920184905584516005919086908590811061083c5761083c611154565b60200260200101516001600160a01b03166001600160a01b03168152602001908152602001600020600084815260200190815260200160002060006101000a81548160ff02191690831515021790555060011515828483815181106108a3576108a3611154565b60200260200101516001600160a01b03167ffff458da2d09c8be67a97dc8c3f8f316c0f1afb907fc6de8d8c191f6bb8ebb0f60405160405180910390a45b600101610654565b7f00000000000000000000000000000000000000000000000000000000000000006001600160a01b0316610930576040516371724ffd60e01b815260040160405180910390fd5b7f00000000000000000000000000000000000000000000000000000000000000006001600160a01b03811663c3c2ebbb336040516001600160e01b031960e084901b1681526001600160a01b039091166004820152602401602060405180830381865afa1580156109a5573d6000803e3d6000fd5b505050506040513d601f19601f820116820180604052508101906109c9919061110a565b1580156109e157506000546001600160a01b03163314155b156109ff5760405163054f3a3160e31b815260040160405180910390fd5b6001600160a01b038216610a265760405163d92e233d60e01b815260040160405180910390fd5b50600180546001600160a01b0319166001600160a01b0392909216919091179055565b6001546001600160a01b0316610a725760405163821e0eeb60e01b815260040160405180910390fd5b6001546001600160a01b03163314610a9d57604051634128496760e01b815260040160405180910390fd5b6001546105f5906001600160a01b0316610dbd565b6001600160a01b038116600090815260036020908152604091829020805483518184028101840190945280845260609392830182828015610b1257602002820191906000526020600020905b815481526020019060010190808311610afe575b50505050509050919050565b6001600160a01b038216600090815260056020908152604080832084845290915290205460ff165b92915050565b610b54610d63565b610b5e8282610b1e565b15610ccc576001600160a01b03821660009081526003602052604081208054610b899060019061116a565b81548110610b9957610b99611154565b90600052602060002001549050818114610c1f576001600160a01b038316600081815260046020908152604080832086845282528083205493835260039091529020805483919083908110610bf057610bf0611154565b60009182526020808320909101929092556001600160a01b038616815260048252604080822085835290925220555b6001600160a01b0383166000908152600360205260409020805480610c4657610c4661118b565b6000828152602080822083016000199081018390559092019092556001600160a01b0385168083526005825260408084208685528352808420805460ff191690558184526004835280842086855290925281832083905590518491907ffff458da2d09c8be67a97dc8c3f8f316c0f1afb907fc6de8d8c191f6bb8ebb0f908490a4505050565b604051637de8c17d60e01b815260040160405180910390fd5b610ced610d63565b6001600160a01b038116610d575760405162461bcd60e51b815260206004820152602660248201527f4f776e61626c653a206e6577206f776e657220697320746865207a65726f206160448201526564647265737360d01b60648201526084015b60405180910390fd5b610d6081610dbd565b50565b6000546001600160a01b031633146105f55760405162461bcd60e51b815260206004820181905260248201527f4f776e61626c653a2063616c6c6572206973206e6f7420746865206f776e65726044820152606401610d4e565b600080546001600160a01b038381166001600160a01b0319831681178455604051919092169283917f8be0079c531659141344cd1fd0a4f28419497f9722a3daafe3b4186f6b6457e09190a35050565b600060208284031215610e1f57600080fd5b813560058110610e2e57600080fd5b9392505050565b634e487b7160e01b600052604160045260246000fd5b604051601f8201601f1916810167ffffffffffffffff81118282101715610e7457610e74610e35565b604052919050565b600067ffffffffffffffff821115610e9657610e96610e35565b5060051b60200190565b80356001600160a01b0381168114610eb757600080fd5b919050565b600082601f830112610ecd57600080fd5b81356020610ee2610edd83610e7c565b610e4b565b8083825260208201915060208460051b870101935086841115610f0457600080fd5b602086015b84811015610f2757610f1a81610ea0565b8352918301918301610f09565b509695505050505050565b60008060408385031215610f4557600080fd5b823567ffffffffffffffff80821115610f5d57600080fd5b610f6986838701610ebc565b9350602091508185013581811115610f8057600080fd5b85019050601f81018613610f9357600080fd5b8035610fa1610edd82610e7c565b81815260059190911b82018301908381019088831115610fc057600080fd5b928401925b82841015610fde57833582529284019290840190610fc5565b80955050505050509250929050565b60006020808352835180602085015260005b8181101561101b57858101830151858201604001528201610fff565b506000604082860101526040601f19601f8301168501019250505092915050565b6000806040838503121561104f57600080fd5b61105883610ea0565b946020939093013593505050565b6000806040838503121561107957600080fd5b823567ffffffffffffffff81111561109057600080fd5b61109c85828601610ebc565b95602094909401359450505050565b6000602082840312156110bd57600080fd5b610e2e82610ea0565b6020808252825182820181905260009190848201906040850190845b818110156110fe578351835292840192918401916001016110e2565b50909695505050505050565b60006020828403121561111c57600080fd5b81518015158114610e2e57600080fd5b602081016005831061114e57634e487b7160e01b600052602160045260246000fd5b91905290565b634e487b7160e01b600052603260045260246000fd5b81810381811115610b4657634e487b7160e01b600052601160045260246000fd5b634e487b7160e01b600052603160045260246000fdfea264697066735822122020f7363d1abbb45dbdaadd82af123d3cd26d59311a5f9a28c53d3527540aaba764736f6c63430008180033608060405234801561001057600080fd5b50610181806100206000396000f3fe608060405234801561001057600080fd5b506004361061002b5760003560e01c8063e1c7392a14610030575b600080fd5b61003861003a565b005b61004c6301ffc9a760e01b60016100b5565b61005e6307f5828d60e41b60016100b5565b6100706307e4c70760e21b60016100b5565b6100826348e2b09360e01b60016100b5565b7f02dbc36a11ad69a7efd36e6fc5553942b2a3c7757978bf89807fea8d8cdf5a8b80546001600160a01b03191633179055565b6001600160e01b031980831690036101005760405162461bcd60e51b815260206004820152600a602482015269125b9d985b1a5908125160b21b604482015260640160405180910390fd5b6001600160e01b03199190911660009081527f8f7e2d929645ca415c0682921b343d96410da360ea90cf9706c3d0606a2b233260205260409020805460ff191691151591909117905556fea26469706673582212208ab215254633f2e0c3dac4b6ee5919b00ec1b5031e57219bec7e211da9e02cbf64736f6c63430008180033608060405260405161100b38038061100b83398101604081905261002291610a69565b80516020820151610034918491610064565b6040517fffa7618250617b12228f3cf015717e41c905e849df41a7ecb6628e07cc7e72e790600090a15050610e4b565b60005b83518110156101c657600084828151811061008457610084610c0a565b602002602001015160400151905060008583815181106100a6576100a6610c0a565b602002602001015160000151905081516000036100e65760405163e767f91f60e01b81526001600160a01b03821660048201526024015b60405180910390fd5b60008684815181106100fa576100fa610c0a565b60200260200101516020015190506000600281111561011b5761011b610c20565b81600281111561012d5761012d610c20565b036101415761013c8284610211565b6101b8565b600181600281111561015557610155610c20565b036101645761013c82846103af565b600281600281111561017857610178610c20565b036101875761013c8284610535565b80600281111561019957610199610c20565b604051633ff4d20f60e11b815260ff90911660048201526024016100dd565b836001019350505050610067565b507f8faa70878671ccd212d20771b795c50af8fd3ff6cf27f4bde57e5d4de0aeb6738383836040516101fa93929190610ca8565b60405180910390a161020c82826107a6565b505050565b6001600160a01b03821661023a57806040516302b8da0760e21b81526004016100dd9190610d72565b600061024461086c565b905060008160010180549050905061027484604051806060016040528060248152602001610fbf602491396108a0565b60005b83518110156103a857600084828151811061029457610294610c0a565b6020908102919091018101516001600160e01b031981166000908152918690526040909120549091506001600160a01b031680156102f15760405163ebbf5d0760e01b81526001600160e01b0319831660048201526024016100dd565b6040805180820182526001600160a01b03808a16825261ffff80881660208085019182526001600160e01b0319881660009081528b8252958620945185549251909316600160a01b026001600160b01b0319909216929093169190911717909155600180880180549182018155835291206008820401805460e085901c60046007909416939093026101000a92830263ffffffff909302191691909117905561039984610da2565b93508260010192505050610277565b5050505050565b60006103b961086c565b90506001600160a01b0383166103e4578160405163cd98a96f60e01b81526004016100dd9190610d72565b61040683604051806060016040528060288152602001610fe3602891396108a0565b60005b825181101561052f57600083828151811061042657610426610c0a565b6020908102919091018101516001600160e01b031981166000908152918590526040909120549091506001600160a01b031630810361048457604051632901806d60e11b81526001600160e01b0319831660048201526024016100dd565b856001600160a01b0316816001600160a01b0316036104c257604051631ac6ce8d60e11b81526001600160e01b0319831660048201526024016100dd565b6001600160a01b0381166104f557604051637479f93960e01b81526001600160e01b0319831660048201526024016100dd565b506001600160e01b031916600090815260208390526040902080546001600160a01b0319166001600160a01b038616179055600101610409565b50505050565b600061053f61086c565b60018101549091506001600160a01b0384161561057a5760405163d091bc8160e01b81526001600160a01b03851660048201526024016100dd565b60005b83518110156103a857600084828151811061059a5761059a610c0a565b6020908102919091018101516001600160e01b0319811660009081528683526040908190208151808301909252546001600160a01b038116808352600160a01b90910461ffff16938201939093529092509061061557604051637a08a22d60e01b81526001600160e01b0319831660048201526024016100dd565b8051306001600160a01b039091160361064d57604051630df5fd6160e31b81526001600160e01b0319831660048201526024016100dd565b8361065781610dc3565b94505083816020015161ffff161461073557600085600101858154811061068057610680610c0a565b90600052602060002090600891828204019190066004029054906101000a900460e01b90508086600101836020015161ffff16815481106106c3576106c3610c0a565b600091825260208083206008830401805463ffffffff60079094166004026101000a938402191660e09590951c92909202939093179055838201516001600160e01b03199390931681529087905260409020805461ffff60a01b1916600160a01b61ffff909316929092029190911790555b8460010180548061074857610748610dda565b60008281526020808220600860001990940193840401805463ffffffff600460078716026101000a0219169055919092556001600160e01b0319909316815291859052506040902080546001600160b01b031916905560010161057d565b6001600160a01b0382166107b8575050565b6107da82604051806060016040528060278152602001610f98602791396108a0565b600080836001600160a01b0316836040516107f59190610df0565b600060405180830381855af49150503d8060008114610830576040519150601f19603f3d011682016040523d82523d6000602084013e610835565b606091505b50915091508161052f5780511561084f5780518082602001fd5b838360405163192105d760e01b81526004016100dd929190610e0c565b60008061089a60017fbe498a3b14fd79a48c3c9af86ff14271ed497d09071013334028d28e7791db20610e38565b92915050565b813b600081900361020c57828260405163919834b960e01b81526004016100dd929190610e0c565b634e487b7160e01b600052604160045260246000fd5b604080519081016001600160401b0381118282101715610900576109006108c8565b60405290565b604051606081016001600160401b0381118282101715610900576109006108c8565b604051601f8201601f191681016001600160401b0381118282101715610950576109506108c8565b604052919050565b60006001600160401b03821115610971576109716108c8565b5060051b60200190565b80516001600160a01b038116811461099257600080fd5b919050565b60005b838110156109b257818101518382015260200161099a565b50506000910152565b6000604082840312156109cd57600080fd5b6109d56108de565b90506109e08261097b565b81526020828101516001600160401b03808211156109fd57600080fd5b818501915085601f830112610a1157600080fd5b815181811115610a2357610a236108c8565b610a35601f8201601f19168501610928565b91508082528684828501011115610a4b57600080fd5b610a5a81858401868601610997565b50808385015250505092915050565b60008060408385031215610a7c57600080fd5b82516001600160401b0380821115610a9357600080fd5b818501915085601f830112610aa757600080fd5b81516020610abc610ab783610958565b610928565b82815260059290921b84018101918181019089841115610adb57600080fd5b8286015b84811015610bd957805186811115610af657600080fd5b87016060818d03601f19011215610b0c57600080fd5b610b14610906565b610b1f86830161097b565b8152604082015160038110610b3357600080fd5b81870152606082015188811115610b4957600080fd5b8083019250508c603f830112610b5e57600080fd5b85820151610b6e610ab782610958565b81815260059190911b830160400190878101908f831115610b8e57600080fd5b6040850194505b82851015610bc45784516001600160e01b031981168114610bb557600080fd5b82529388019390880190610b95565b60408401525050845250918301918301610adf565b5091880151919650909350505080821115610bf357600080fd5b50610c00858286016109bb565b9150509250929050565b634e487b7160e01b600052603260045260246000fd5b634e487b7160e01b600052602160045260246000fd5b60008151808452602080850194506020840160005b83811015610c715781516001600160e01b03191687529582019590820190600101610c4b565b509495945050505050565b60008151808452610c94816020860160208601610997565b601f01601f19169290920160200192915050565b600060608083016060845280875180835260808601915060808160051b87010192506020808a016000805b84811015610d4257898703607f19018652825180516001600160a01b031688528481015160038110610d1357634e487b7160e01b84526021600452602484fd5b88860152604090810151908801899052610d2f89890182610c36565b9750509483019491830191600101610cd3565b5050506001600160a01b0389169087015250508381036040850152610d678186610c7c565b979650505050505050565b602081526000610d856020830184610c36565b9392505050565b634e487b7160e01b600052601160045260246000fd5b600061ffff808316818103610db957610db9610d8c565b6001019392505050565b600081610dd257610dd2610d8c565b506000190190565b634e487b7160e01b600052603160045260246000fd5b60008251610e02818460208701610997565b9190910192915050565b6001600160a01b0383168152604060208201819052600090610e3090830184610c7c565b949350505050565b8181038181111561089a5761089a610d8c565b61013e80610e5a6000396000f3fe60806040523661000b57005b60008061003960017fbe498a3b14fd79a48c3c9af86ff14271ed497d09071013334028d28e7791db206100e1565b600080356001600160e01b0319168152602082905260409020549092508291506001600160a01b03168061009257604051630a82dd7360e31b81526001600160e01b031960003516600482015260240160405180910390fd5b806001600160a01b03163b6000036100bd57604051638454099560e01b815260040160405180910390fd5b3660008037600080366000845af43d6000803e8080156100dc573d6000f35b3d6000fd5b8181038181111561010257634e487b7160e01b600052601160045260246000fd5b9291505056fea264697066735822122001360d63fe2248cdc1575bcc86364fd8407f730817a6a24fcaecdbca6abedbbd64736f6c634300081800334469616d6f6e644375744c69623a20696e6974206164647265737320686173206e6f20636f64654469616d6f6e644375744c69623a2041646420666163657420686173206e6f20636f64654469616d6f6e644375744c69623a205265706c61636520666163657420686173206e6f20636f646560806040523480156200001157600080fd5b506040516200301438038062003014833981016040819052620000349162000346565b838383838383600062000048838262000489565b50600162000057828262000489565b5050600b805460ff19169055506200006f3362000114565b6001600f556001600160a01b0382166200009c5760405163d92e233d60e01b815260040160405180910390fd5b600d80546001600160a01b0384166001600160a01b03199182168117909255600e80549091169091179055620000d2816200016e565b6040516001600160a01b038316907f72609421458389ee9c5f42d2ead41eecce3b39daf473d94de7f1ec1a9b593a0090600090a2505050505050505062000580565b600b80546001600160a01b03838116610100818102610100600160a81b031985161790945560405193909204169182907f8be0079c531659141344cd1fd0a4f28419497f9722a3daafe3b4186f6b6457e090600090a35050565b600d546001600160a01b0316620001858162000198565b601362000193838262000489565b505050565b6001600160a01b038116620001c0576040516371724ffd60e01b815260040160405180910390fd5b806001600160a01b03811663c3c2ebbb336040516001600160e01b031960e084901b1681526001600160a01b039091166004820152602401602060405180830381865afa15801562000216573d6000803e3d6000fd5b505050506040513d601f19601f820116820180604052508101906200023c919062000555565b1580156200025b5750600b546001600160a01b03610100909104163314155b156200027a5760405163054f3a3160e31b815260040160405180910390fd5b5050565b634e487b7160e01b600052604160045260246000fd5b600082601f830112620002a657600080fd5b81516001600160401b0380821115620002c357620002c36200027e565b604051601f8301601f19908116603f01168101908282118183101715620002ee57620002ee6200027e565b81604052838152602092508660208588010111156200030c57600080fd5b600091505b8382101562000330578582018301518183018401529082019062000311565b6000602085830101528094505050505092915050565b600080600080608085870312156200035d57600080fd5b84516001600160401b03808211156200037557600080fd5b620003838883890162000294565b955060208701519150808211156200039a57600080fd5b620003a88883890162000294565b604088015190955091506001600160a01b0382168214620003c857600080fd5b606087015191935080821115620003de57600080fd5b50620003ed8782880162000294565b91505092959194509250565b600181811c908216806200040e57607f821691505b6020821081036200042f57634e487b7160e01b600052602260045260246000fd5b50919050565b601f82111562000193576000816000526020600020601f850160051c81016020861015620004605750805b601f850160051c820191505b8181101562000481578281556001016200046c565b505050505050565b81516001600160401b03811115620004a557620004a56200027e565b620004bd81620004b68454620003f9565b8462000435565b602080601f831160018114620004f55760008415620004dc5750858301515b600019600386901b1c1916600185901b17855562000481565b600085815260208120601f198616915b82811015620005265788860151825594840194600190910190840162000505565b5085821015620005455787850151600019600388901b60f8161c191681555b5050505050600190811b01905550565b6000602082840312156200056857600080fd5b815180151581146200057957600080fd5b9392505050565b612a8480620005906000396000f3fe6080604052600436106101ee5760003560e01c80635c975abb1161010d5780638da5cb5b116100a0578063b88d4fde1161006f578063b88d4fde1461053e578063c87b56dd1461055e578063cdccb27a1461057e578063e985e9c514610593578063f2fde38b146105dc57600080fd5b80638da5cb5b146104d157806395d89b41146104f45780639abc832014610509578063a22cb4651461051e57600080fd5b806370a08231116100dc57806370a0823114610467578063715018a61461048757806371af85e01461049c5780638456cb59146104bc57600080fd5b80635c975abb146103f15780636352211e146104095780636f9c83b8146104295780636fd7d9701461044757600080fd5b80633ccfd60b1161018557806342966c681161015457806342966c68146103735780634c330077146103935780634f6ccce7146103b157806355f804b3146103d157600080fd5b80633ccfd60b146103235780633f4ba83a1461032b57806340d097c31461034057806342842e0e1461035357600080fd5b806311280cb5116101c157806311280cb5146102a457806318160ddd146102c457806323b872dd146102e35780632f745c591461030357600080fd5b806301ffc9a7146101f357806306fdde0314610228578063081812fc1461024a578063095ea7b314610282575b600080fd5b3480156101ff57600080fd5b5061021361020e36600461242e565b6105fc565b60405190151581526020015b60405180910390f35b34801561023457600080fd5b5061023d61062b565b60405161021f919061249b565b34801561025657600080fd5b5061026a6102653660046124ae565b6106bd565b6040516001600160a01b03909116815260200161021f565b34801561028e57600080fd5b506102a261029d3660046124e3565b6106e4565b005b3480156102b057600080fd5b506102a26102bf36600461250d565b6107fe565b3480156102d057600080fd5b506009545b60405190815260200161021f565b3480156102ef57600080fd5b506102a26102fe366004612528565b610909565b34801561030f57600080fd5b506102d561031e3660046124e3565b61093b565b6102a26109d1565b34801561033757600080fd5b506102a2610ae6565b6102a261034e36600461250d565b610bb2565b34801561035f57600080fd5b506102a261036e366004612528565b610bf4565b34801561037f57600080fd5b506102a261038e3660046124ae565b610c0f565b34801561039f57600080fd5b50600d546001600160a01b031661026a565b3480156103bd57600080fd5b506102d56103cc3660046124ae565b610c40565b3480156103dd57600080fd5b506102a26103ec3660046125f0565b610cd3565b3480156103fd57600080fd5b50600b5460ff16610213565b34801561041557600080fd5b5061026a6104243660046124ae565b610cf4565b34801561043557600080fd5b506010546001600160a01b031661026a565b34801561045357600080fd5b5060105461026a906001600160a01b031681565b34801561047357600080fd5b506102d561048236600461250d565b610d54565b34801561049357600080fd5b506102a2610dda565b3480156104a857600080fd5b506102a26104b736600461250d565b610dee565b3480156104c857600080fd5b506102a2610f30565b3480156104dd57600080fd5b50600b5461010090046001600160a01b031661026a565b34801561050057600080fd5b5061023d610ff8565b34801561051557600080fd5b5061023d611007565b34801561052a57600080fd5b506102a2610539366004612647565b611095565b34801561054a57600080fd5b506102a261055936600461267e565b6110a0565b34801561056a57600080fd5b5061023d6105793660046124ae565b6110d8565b34801561058a57600080fd5b506102a26110e3565b34801561059f57600080fd5b506102136105ae3660046126fa565b6001600160a01b03918216600090815260056020908152604080832093909416825291909152205460ff1690565b3480156105e857600080fd5b506102a26105f736600461250d565b61116b565b6000610607826111e1565b80610616575061061682611202565b806106255750610625826111e1565b92915050565b60606000805461063a9061272d565b80601f01602080910402602001604051908101604052809291908181526020018280546106669061272d565b80156106b35780601f10610688576101008083540402835291602001916106b3565b820191906000526020600020905b81548152906001019060200180831161069657829003601f168201915b5050505050905090565b60006106c882611227565b506000908152600460205260409020546001600160a01b031690565b60006106ef82610cf4565b9050806001600160a01b0316836001600160a01b0316036107615760405162461bcd60e51b815260206004820152602160248201527f4552433732313a20617070726f76616c20746f2063757272656e74206f776e656044820152603960f91b60648201526084015b60405180910390fd5b336001600160a01b038216148061077d575061077d81336105ae565b6107ef5760405162461bcd60e51b815260206004820152603d60248201527f4552433732313a20617070726f76652063616c6c6572206973206e6f7420746f60448201527f6b656e206f776e6572206f7220617070726f76656420666f7220616c6c0000006064820152608401610758565b6107f98383611286565b505050565b600d546001600160a01b031680610828576040516371724ffd60e01b815260040160405180910390fd5b806001600160a01b03811663c3c2ebbb336040516001600160e01b031960e084901b1681526001600160a01b039091166004820152602401602060405180830381865afa15801561087d573d6000803e3d6000fd5b505050506040513d601f19601f820116820180604052508101906108a19190612767565b6108be5760405163ba80c9e560e01b815260040160405180910390fd5b6001600160a01b0383166108e55760405163d92e233d60e01b815260040160405180910390fd5b5050600c80546001600160a01b0319166001600160a01b0392909216919091179055565b610914335b826112f4565b6109305760405162461bcd60e51b815260040161075890612784565b6107f9838383611373565b600061094683610d54565b82106109a85760405162461bcd60e51b815260206004820152602b60248201527f455243373231456e756d657261626c653a206f776e657220696e646578206f7560448201526a74206f6620626f756e647360a81b6064820152608401610758565b506001600160a01b03919091166000908152600760209081526040808320938352929052205490565b600d546001600160a01b0316806109fb576040516371724ffd60e01b815260040160405180910390fd5b806001600160a01b03811663c3c2ebbb336040516001600160e01b031960e084901b1681526001600160a01b039091166004820152602401602060405180830381865afa158015610a50573d6000803e3d6000fd5b505050506040513d601f19601f82011682018060405250810190610a749190612767565b610a915760405163ba80c9e560e01b815260040160405180910390fd5b604051600090339047908381818185875af1925050503d8060008114610ad3576040519150601f19603f3d011682016040523d82523d6000602084013e610ad8565b606091505b50509050806107f957600080fd5b600d546001600160a01b031680610b10576040516371724ffd60e01b815260040160405180910390fd5b806001600160a01b03811663c3c2ebbb336040516001600160e01b031960e084901b1681526001600160a01b039091166004820152602401602060405180830381865afa158015610b65573d6000803e3d6000fd5b505050506040513d601f19601f82011682018060405250810190610b899190612767565b610ba65760405163ba80c9e560e01b815260040160405180910390fd5b610bae6114e4565b5050565b610bba611536565b600d546001600160a01b0316610bcf8161157c565b6000610bda60125490565b9050610bea601280546001019055565b6107f98382611658565b6107f9838383604051806020016040528060008152506110a0565b610c183361090e565b610c345760405162461bcd60e51b815260040161075890612784565b610c3d81611672565b50565b6000610c4b60095490565b8210610cae5760405162461bcd60e51b815260206004820152602c60248201527f455243373231456e756d657261626c653a20676c6f62616c20696e646578206f60448201526b7574206f6620626f756e647360a01b6064820152608401610758565b60098281548110610cc157610cc16127d1565b90600052602060002001549050919050565b600d546001600160a01b0316610ce88161157c565b60136107f98382612837565b6000818152600260205260408120546001600160a01b0316806106255760405162461bcd60e51b8152602060048201526018602482015277115490cdcc8c4e881a5b9d985b1a59081d1bdad95b88125160421b6044820152606401610758565b60006001600160a01b038216610dbe5760405162461bcd60e51b815260206004820152602960248201527f4552433732313a2061646472657373207a65726f206973206e6f7420612076616044820152683634b21037bbb732b960b91b6064820152608401610758565b506001600160a01b031660009081526003602052604090205490565b610de2611683565b610dec60006116e3565b565b600d546001600160a01b031680610e18576040516371724ffd60e01b815260040160405180910390fd5b806001600160a01b03811663c3c2ebbb336040516001600160e01b031960e084901b1681526001600160a01b039091166004820152602401602060405180830381865afa158015610e6d573d6000803e3d6000fd5b505050506040513d601f19601f82011682018060405250810190610e919190612767565b610eae5760405163ba80c9e560e01b815260040160405180910390fd5b6001600160a01b038316610ed55760405163d92e233d60e01b815260040160405180910390fd5b601080546001600160a01b0385166001600160a01b0319918216811790925560118054909116821790556040513091907f9a2cdaf1a28a88ccd359d6abc6a27d4856d16459aafb0aae34c1296bab5b63fb90600090a3505050565b600d546001600160a01b031680610f5a576040516371724ffd60e01b815260040160405180910390fd5b806001600160a01b03811663c3c2ebbb336040516001600160e01b031960e084901b1681526001600160a01b039091166004820152602401602060405180830381865afa158015610faf573d6000803e3d6000fd5b505050506040513d601f19601f82011682018060405250810190610fd39190612767565b610ff05760405163ba80c9e560e01b815260040160405180910390fd5b610bae61173d565b60606001805461063a9061272d565b601380546110149061272d565b80601f01602080910402602001604051908101604052809291908181526020018280546110409061272d565b801561108d5780601f106110625761010080835404028352916020019161108d565b820191906000526020600020905b81548152906001019060200180831161107057829003601f168201915b505050505081565b610bae33838361177a565b6110aa33836112f4565b6110c65760405162461bcd60e51b815260040161075890612784565b6110d284848484611848565b50505050565b60606106258261187b565b600c546001600160a01b031661110c5760405163821e0eeb60e01b815260040160405180910390fd5b600c546001600160a01b0316331461113757604051634128496760e01b815260040160405180910390fd5b600c8054600d80546001600160a01b0383166001600160a01b03199182168117909255600e80548216909217909155169055565b611173611683565b6001600160a01b0381166111d85760405162461bcd60e51b815260206004820152602660248201527f4f776e61626c653a206e6577206f776e657220697320746865207a65726f206160448201526564647265737360d01b6064820152608401610758565b610c3d816116e3565b60006001600160e01b0319821663780e9d6360e01b14806106255750610625825b60006001600160e01b03198216632483248360e11b1480610625575061062582611976565b6000818152600260205260409020546001600160a01b0316610c3d5760405162461bcd60e51b8152602060048201526018602482015277115490cdcc8c4e881a5b9d985b1a59081d1bdad95b88125160421b6044820152606401610758565b600081815260046020526040902080546001600160a01b0319166001600160a01b03841690811790915581906112bb82610cf4565b6001600160a01b03167f8c5be1e5ebec7d5bd14f71427d1e84f3dd0314c0f7b2291e5b200ac8c7c3b92560405160405180910390a45050565b60008061130083610cf4565b9050806001600160a01b0316846001600160a01b0316148061134757506001600160a01b0380821660009081526005602090815260408083209388168352929052205460ff165b8061136b5750836001600160a01b0316611360846106bd565b6001600160a01b0316145b949350505050565b826001600160a01b031661138682610cf4565b6001600160a01b0316146113ac5760405162461bcd60e51b8152600401610758906128f7565b6001600160a01b03821661140e5760405162461bcd60e51b8152602060048201526024808201527f4552433732313a207472616e7366657220746f20746865207a65726f206164646044820152637265737360e01b6064820152608401610758565b61141b83838360016119c6565b826001600160a01b031661142e82610cf4565b6001600160a01b0316146114545760405162461bcd60e51b8152600401610758906128f7565b600081815260046020908152604080832080546001600160a01b03199081169091556001600160a01b0387811680865260038552838620805460001901905590871680865283862080546001019055868652600290945282852080549092168417909155905184937fddf252ad1be2c89b69c2b068fc378daa952ba7f163c4a11628f55a4df523b3ef91a4505050565b6114ec611ad3565b600b805460ff191690557f5db9ee0a495bf2e6ff9c91a7834c1ba4fdd244a5e8aa4e537bd38aeae4b073aa335b6040516001600160a01b03909116815260200160405180910390a1565b600b5460ff1615610dec5760405162461bcd60e51b815260206004820152601060248201526f14185d5cd8589b194e881c185d5cd95960821b6044820152606401610758565b6001600160a01b0381166115a3576040516371724ffd60e01b815260040160405180910390fd5b806001600160a01b03811663c3c2ebbb336040516001600160e01b031960e084901b1681526001600160a01b039091166004820152602401602060405180830381865afa1580156115f8573d6000803e3d6000fd5b505050506040513d601f19601f8201168201806040525081019061161c9190612767565b15801561163a5750600b546001600160a01b03610100909104163314155b15610bae5760405163054f3a3160e31b815260040160405180910390fd5b610bae828260405180602001604052806000815250611b1c565b61167a611536565b610c3d81611b4f565b600b546001600160a01b03610100909104163314610dec5760405162461bcd60e51b815260206004820181905260248201527f4f776e61626c653a2063616c6c6572206973206e6f7420746865206f776e65726044820152606401610758565b600b80546001600160a01b03838116610100818102610100600160a81b031985161790945560405193909204169182907f8be0079c531659141344cd1fd0a4f28419497f9722a3daafe3b4186f6b6457e090600090a35050565b611745611536565b600b805460ff191660011790557f62e78cea01bee320cd4e420270b5ea74000d11b0c9f74754ebdbfc544b05a2586115193390565b816001600160a01b0316836001600160a01b0316036117db5760405162461bcd60e51b815260206004820152601960248201527f4552433732313a20617070726f766520746f2063616c6c6572000000000000006044820152606401610758565b6001600160a01b03838116600081815260056020908152604080832094871680845294825291829020805460ff191686151590811790915591519182527f17307eab39ab6107e8899845ad3d59bd9653f200f220920489ca2b5937696c31910160405180910390a3505050565b611853848484611373565b61185f84848484611b8f565b6110d25760405162461bcd60e51b81526004016107589061293c565b606061188682611227565b6000828152600660205260408120805461189f9061272d565b80601f01602080910402602001604051908101604052809291908181526020018280546118cb9061272d565b80156119185780601f106118ed57610100808354040283529160200191611918565b820191906000526020600020905b8154815290600101906020018083116118fb57829003601f168201915b505050505090506000611929611c90565b9050805160000361193b575092915050565b81511561196d57808260405160200161195592919061298e565b60405160208183030381529060405292505050919050565b61136b84611c9f565b60006001600160e01b031982166380ac58cd60e01b14806119a757506001600160e01b03198216635b5e139f60e01b145b8061062557506301ffc9a760e01b6001600160e01b0319831614610625565b6119ce611d06565b6119d6611536565b6011546001600160a01b039081169063e802b52390861615611a00576119fb86610d54565b611a03565b60005b6001600160a01b03861615611a2057611a1b86610d54565b611a23565b60005b8787336040516001600160e01b031960e088901b168152600481019590955260248501939093526001600160a01b0391821660448501528116606484015216608482015260a4810185905260c4016020604051808303816000875af1158015611a90573d6000803e3d6000fd5b505050506040513d601f19601f82011682018060405250810190611ab49190612767565b611abd57600080fd5b611ac984848484611d5f565b6110d26001600f55565b600b5460ff16610dec5760405162461bcd60e51b815260206004820152601460248201527314185d5cd8589b194e881b9bdd081c185d5cd95960621b6044820152606401610758565b611b268383611e93565b611b336000848484611b8f565b6107f95760405162461bcd60e51b81526004016107589061293c565b611b588161202c565b60008181526006602052604090208054611b719061272d565b159050610c3d576000818152600660205260408120610c3d916123ca565b60006001600160a01b0384163b15611c8557604051630a85bd0160e11b81526001600160a01b0385169063150b7a0290611bd39033908990889088906004016129bd565b6020604051808303816000875af1925050508015611c0e575060408051601f3d908101601f19168201909252611c0b918101906129fa565b60015b611c6b573d808015611c3c576040519150601f19603f3d011682016040523d82523d6000602084013e611c41565b606091505b508051600003611c635760405162461bcd60e51b81526004016107589061293c565b805181602001fd5b6001600160e01b031916630a85bd0160e11b14905061136b565b506001949350505050565b60606013805461063a9061272d565b6060611caa82611227565b6000611cb4611c90565b90506000815111611cd45760405180602001604052806000815250611cff565b80611cde846120cf565b604051602001611cef92919061298e565b6040516020818303038152906040525b9392505050565b6002600f5403611d585760405162461bcd60e51b815260206004820152601f60248201527f5265656e7472616e637947756172643a207265656e7472616e742063616c6c006044820152606401610758565b6002600f55565b6001811115611dce5760405162461bcd60e51b815260206004820152603560248201527f455243373231456e756d657261626c653a20636f6e7365637574697665207472604482015274185b9cd9995c9cc81b9bdd081cdd5c1c1bdc9d1959605a1b6064820152608401610758565b816001600160a01b038516611e2a57611e2581600980546000838152600a60205260408120829055600182018355919091527f6e1540171b6c0c960b71a7020d9f60077f6af931a8bbf590da0223dacf75c7af0155565b611e4d565b836001600160a01b0316856001600160a01b031614611e4d57611e4d8582612162565b6001600160a01b038416611e6957611e64816121ff565b611e8c565b846001600160a01b0316846001600160a01b031614611e8c57611e8c84826122ae565b5050505050565b6001600160a01b038216611ee95760405162461bcd60e51b815260206004820181905260248201527f4552433732313a206d696e7420746f20746865207a65726f20616464726573736044820152606401610758565b6000818152600260205260409020546001600160a01b031615611f4e5760405162461bcd60e51b815260206004820152601c60248201527f4552433732313a20746f6b656e20616c7265616479206d696e746564000000006044820152606401610758565b611f5c6000838360016119c6565b6000818152600260205260409020546001600160a01b031615611fc15760405162461bcd60e51b815260206004820152601c60248201527f4552433732313a20746f6b656e20616c7265616479206d696e746564000000006044820152606401610758565b6001600160a01b038216600081815260036020908152604080832080546001019055848352600290915280822080546001600160a01b0319168417905551839291907fddf252ad1be2c89b69c2b068fc378daa952ba7f163c4a11628f55a4df523b3ef908290a45050565b600061203782610cf4565b90506120478160008460016119c6565b61205082610cf4565b600083815260046020908152604080832080546001600160a01b03199081169091556001600160a01b0385168085526003845282852080546000190190558785526002909352818420805490911690555192935084927fddf252ad1be2c89b69c2b068fc378daa952ba7f163c4a11628f55a4df523b3ef908390a45050565b606060006120dc836122f2565b600101905060008167ffffffffffffffff8111156120fc576120fc612564565b6040519080825280601f01601f191660200182016040528015612126576020820181803683370190505b5090508181016020015b600019016f181899199a1a9b1b9c1cb0b131b232b360811b600a86061a8153600a850494508461213057509392505050565b6000600161216f84610d54565b6121799190612a17565b6000838152600860205260409020549091508082146121cc576001600160a01b03841660009081526007602090815260408083208584528252808320548484528184208190558352600890915290208190555b5060009182526008602090815260408084208490556001600160a01b039094168352600781528383209183525290812055565b60095460009061221190600190612a17565b6000838152600a602052604081205460098054939450909284908110612239576122396127d1565b90600052602060002001549050806009838154811061225a5761225a6127d1565b6000918252602080832090910192909255828152600a9091526040808220849055858252812055600980548061229257612292612a38565b6001900381819060005260206000200160009055905550505050565b60006122b983610d54565b6001600160a01b039093166000908152600760209081526040808320868452825280832085905593825260089052919091209190915550565b60008072184f03e93ff9f4daa797ed6e38ed64bf6a1f0160401b83106123315772184f03e93ff9f4daa797ed6e38ed64bf6a1f0160401b830492506040015b6d04ee2d6d415b85acef8100000000831061235d576d04ee2d6d415b85acef8100000000830492506020015b662386f26fc10000831061237b57662386f26fc10000830492506010015b6305f5e1008310612393576305f5e100830492506008015b61271083106123a757612710830492506004015b606483106123b9576064830492506002015b600a83106106255760010192915050565b5080546123d69061272d565b6000825580601f106123e6575050565b601f016020900490600052602060002090810190610c3d91905b808211156124145760008155600101612400565b5090565b6001600160e01b031981168114610c3d57600080fd5b60006020828403121561244057600080fd5b8135611cff81612418565b60005b8381101561246657818101518382015260200161244e565b50506000910152565b6000815180845261248781602086016020860161244b565b601f01601f19169290920160200192915050565b602081526000611cff602083018461246f565b6000602082840312156124c057600080fd5b5035919050565b80356001600160a01b03811681146124de57600080fd5b919050565b600080604083850312156124f657600080fd5b6124ff836124c7565b946020939093013593505050565b60006020828403121561251f57600080fd5b611cff826124c7565b60008060006060848603121561253d57600080fd5b612546846124c7565b9250612554602085016124c7565b9150604084013590509250925092565b634e487b7160e01b600052604160045260246000fd5b600067ffffffffffffffff8084111561259557612595612564565b604051601f8501601f19908116603f011681019082821181831017156125bd576125bd612564565b816040528093508581528686860111156125d657600080fd5b858560208301376000602087830101525050509392505050565b60006020828403121561260257600080fd5b813567ffffffffffffffff81111561261957600080fd5b8201601f8101841361262a57600080fd5b61136b8482356020840161257a565b8015158114610c3d57600080fd5b6000806040838503121561265a57600080fd5b612663836124c7565b9150602083013561267381612639565b809150509250929050565b6000806000806080858703121561269457600080fd5b61269d856124c7565b93506126ab602086016124c7565b925060408501359150606085013567ffffffffffffffff8111156126ce57600080fd5b8501601f810187136126df57600080fd5b6126ee8782356020840161257a565b91505092959194509250565b6000806040838503121561270d57600080fd5b612716836124c7565b9150612724602084016124c7565b90509250929050565b600181811c9082168061274157607f821691505b60208210810361276157634e487b7160e01b600052602260045260246000fd5b50919050565b60006020828403121561277957600080fd5b8151611cff81612639565b6020808252602d908201527f4552433732313a2063616c6c6572206973206e6f7420746f6b656e206f776e6560408201526c1c881bdc88185c1c1c9bdd9959609a1b606082015260800190565b634e487b7160e01b600052603260045260246000fd5b601f8211156107f9576000816000526020600020601f850160051c810160208610156128105750805b601f850160051c820191505b8181101561282f5782815560010161281c565b505050505050565b815167ffffffffffffffff81111561285157612851612564565b6128658161285f845461272d565b846127e7565b602080601f83116001811461289a57600084156128825750858301515b600019600386901b1c1916600185901b17855561282f565b600085815260208120601f198616915b828110156128c9578886015182559484019460019091019084016128aa565b50858210156128e75787850151600019600388901b60f8161c191681555b5050505050600190811b01905550565b60208082526025908201527f4552433732313a207472616e736665722066726f6d20696e636f72726563742060408201526437bbb732b960d91b606082015260800190565b60208082526032908201527f4552433732313a207472616e7366657220746f206e6f6e20455243373231526560408201527131b2b4bb32b91034b6b83632b6b2b73a32b960711b606082015260800190565b600083516129a081846020880161244b565b8351908301906129b481836020880161244b565b01949350505050565b6001600160a01b03858116825284166020820152604081018390526080606082018190526000906129f09083018461246f565b9695505050505050565b600060208284031215612a0c57600080fd5b8151611cff81612418565b8181038181111561062557634e487b7160e01b600052601160045260246000fd5b634e487b7160e01b600052603160045260246000fdfea2646970667358221220a36d6f8d8f978bdebc74d6719c68759863d92785f3820c4b7255fe53d0d6f2d864736f6c6343000818003360a060405234801561001057600080fd5b50604051610e69380380610e6983398101604081905261002f916100a4565b8061003933610054565b6001600160a01b031660805261004e81610054565b506100d4565b600080546001600160a01b038381166001600160a01b0319831681178455604051919092169283917f8be0079c531659141344cd1fd0a4f28419497f9722a3daafe3b4186f6b6457e09190a35050565b6000602082840312156100b657600080fd5b81516001600160a01b03811681146100cd57600080fd5b9392505050565b608051610d576101126000396000818161019501528181610300015281816103470152818161042b015281816105fe01526106450152610d576000f3fe608060405234801561001057600080fd5b50600436106100cf5760003560e01c80638da5cb5b1161008c578063d3d24c9b11610066578063d3d24c9b14610190578063d4f93870146101b7578063ddbd94a9146101cc578063f2fde38b146101df57600080fd5b80638da5cb5b14610150578063b5ed298a14610175578063bd9b6d861461018857600080fd5b806312be4100146100d45780631bf974f3146100de5780632d59e38b146100f157806342456e771461010e57806354fd4d5014610121578063715018a614610148575b600080fd5b6100dc6101f2565b005b6100dc6100ec366004610b39565b6102fe565b6100f9610496565b60405190151581526020015b60405180910390f35b6100dc61011c366004610b7d565b6104a8565b60408051808201825260058152640312e312e360dc1b602082015290516101059190610bb0565b6100dc6105e8565b6000546001600160a01b03165b6040516001600160a01b039091168152602001610105565b6100dc610183366004610bff565b6105fc565b6100dc61075c565b61015d7f000000000000000000000000000000000000000000000000000000000000000081565b6101bf6107c5565b6040516101059190610c28565b6100dc6101da366004610b7d565b610843565b6100dc6101ed366004610bff565b610957565b60005b6003548110156102fb575b60035415801590610212575060035481105b801561024c5750426003828154811061022d5761022d610c84565b600091825260209091200154600160401b90046001600160401b031611155b156102f357600015156003828154811061026857610268610c84565b9060005260206000200160000160089054906101000a90046001600160401b03166001600160401b0316600383815481106102a5576102a5610c84565b60009182526020822001546040516001600160401b03909116917fc59968cc6328a09c380b64d3606420afabed418dd4248c157679cbaaa395909891a46102ee8160ff166109cd565b610200565b6001016101f5565b50565b7f00000000000000000000000000000000000000000000000000000000000000006001600160a01b0316610345576040516371724ffd60e01b815260040160405180910390fd5b7f00000000000000000000000000000000000000000000000000000000000000006001600160a01b03811663c3c2ebbb336040516001600160e01b031960e084901b1681526001600160a01b039091166004820152602401602060405180830381865afa1580156103ba573d6000803e3d6000fd5b505050506040513d601f19601f820116820180604052508101906103de9190610c9a565b1580156103f657506000546001600160a01b03163314155b156104145760405163054f3a3160e31b815260040160405180910390fd5b604051632b124b7960e01b81526001600160a01b037f00000000000000000000000000000000000000000000000000000000000000001690632b124b7990610460908590600401610cbc565b600060405180830381600087803b15801561047a57600080fd5b505af115801561048e573d6000803e3d6000fd5b505050505050565b60006104a0610a8f565b506003541590565b6104b0610a8f565b600354600f116104d35760405163d30bd9c560e01b815260040160405180910390fd5b6104db6101f2565b816001600160401b0316816001600160401b0316111580610505575042826001600160401b031611155b1561053b576040516338121a1360e11b81526001600160401b038084166004830152821660248201526044015b60405180910390fd5b6040805180820182526001600160401b03808516808352848216602084018181526003805460018181018355600092835287517fc2575a0e9e593c00f959f8c92f12db2869c3395a3b0502d05e2516446f71f85b909201805494518816600160401b026001600160801b0319909516929097169190911792909217909455945193949390927fc59968cc6328a09c380b64d3606420afabed418dd4248c157679cbaaa395909891a4505050565b6105f0610a8f565b6105fa6000610ae9565b565b7f00000000000000000000000000000000000000000000000000000000000000006001600160a01b0316610643576040516371724ffd60e01b815260040160405180910390fd5b7f00000000000000000000000000000000000000000000000000000000000000006001600160a01b03811663c3c2ebbb336040516001600160e01b031960e084901b1681526001600160a01b039091166004820152602401602060405180830381865afa1580156106b8573d6000803e3d6000fd5b505050506040513d601f19601f820116820180604052508101906106dc9190610c9a565b1580156106f457506000546001600160a01b03163314155b156107125760405163054f3a3160e31b815260040160405180910390fd5b6001600160a01b0382166107395760405163d92e233d60e01b815260040160405180910390fd5b50600180546001600160a01b0319166001600160a01b0392909216919091179055565b6001546001600160a01b03166107855760405163821e0eeb60e01b815260040160405180910390fd5b6001546001600160a01b031633146107b057604051634128496760e01b815260040160405180910390fd5b6001546105fa906001600160a01b0316610ae9565b60606107cf610a8f565b6003805480602002602001604051908101604052809291908181526020016000905b8282101561083a57600084815260209081902060408051808201909152908401546001600160401b038082168352600160401b90910416818301528252600190920191016107f1565b50505050905090565b61084b610a8f565b60005b6003548110156109525760005b6003541580159061086d575060035482105b8015610877575080155b156109495760006003838154811061089157610891610c84565b6000918252602091829020604080518082019091529101546001600160401b03808216808452600160401b9092048116938301939093529092509086161480156108f05750836001600160401b031681602001516001600160401b0316145b1561093e576108fe836109cd565b6040516000906001600160401b0380871691908816907fc59968cc6328a09c380b64d3606420afabed418dd4248c157679cbaaa3959098908490a4610943565b600191505b5061085b565b5060010161084e565b505050565b61095f610a8f565b6001600160a01b0381166109c45760405162461bcd60e51b815260206004820152602660248201527f4f776e61626c653a206e6577206f776e657220697320746865207a65726f206160448201526564647265737360d01b6064820152608401610532565b6102fb81610ae9565b60038054906109dd600183610ce4565b815481106109ed576109ed610c84565b9060005260206000200160038381548110610a0a57610a0a610c84565b600091825260209091208254910180546001600160401b0392831667ffffffffffffffff1982168117835593546001600160801b0319909116909317600160401b938490049092169092021790556003805480610a6957610a69610d0b565b600082815260209020810160001990810180546001600160801b03191690550190555050565b6000546001600160a01b031633146105fa5760405162461bcd60e51b815260206004820181905260248201527f4f776e61626c653a2063616c6c6572206973206e6f7420746865206f776e65726044820152606401610532565b600080546001600160a01b038381166001600160a01b0319831681178455604051919092169283917f8be0079c531659141344cd1fd0a4f28419497f9722a3daafe3b4186f6b6457e09190a35050565b600060208284031215610b4b57600080fd5b813560058110610b5a57600080fd5b9392505050565b80356001600160401b0381168114610b7857600080fd5b919050565b60008060408385031215610b9057600080fd5b610b9983610b61565b9150610ba760208401610b61565b90509250929050565b60006020808352835180602085015260005b81811015610bde57858101830151858201604001528201610bc2565b506000604082860101526040601f19601f8301168501019250505092915050565b600060208284031215610c1157600080fd5b81356001600160a01b0381168114610b5a57600080fd5b602080825282518282018190526000919060409081850190868401855b82811015610c7757815180516001600160401b0390811686529087015116868501529284019290850190600101610c45565b5091979650505050505050565b634e487b7160e01b600052603260045260246000fd5b600060208284031215610cac57600080fd5b81518015158114610b5a57600080fd5b6020810160058310610cde57634e487b7160e01b600052602160045260246000fd5b91905290565b81810381811115610d0557634e487b7160e01b600052601160045260246000fd5b92915050565b634e487b7160e01b600052603160045260246000fdfea2646970667358221220f8037e7e39cb99ec3a78369504217b092f439ee3c6e0626cb6b3b28d84ca07ae64736f6c63430008180033608060405260405162000f0d38038062000f0d833981016040819052620000269162000473565b828162000036828260006200009a565b5062000066905060017fb53127684a568b3173ae13b9f8a6016e243e63b6e8ee1178d6a717850b5d610462000553565b60008051602062000ec68339815191521462000086576200008662000575565b6200009182620000cc565b505050620005de565b620000a5836200013e565b600082511180620000b35750805b15620000c757620000c5838362000180565b505b505050565b7f7e644d79422f17c01e4894b5f4f588d331ebfa28653d42ae832dc59e38c9798f6200010e60008051602062000ec6833981519152546001600160a01b031690565b604080516001600160a01b03928316815291841660208301520160405180910390a16200013b81620001b1565b50565b62000149816200024f565b6040516001600160a01b038216907fbc7cd75a20ee27fd9adebab32041f755214dbc6bffa90cc0225b39da2e5c2d3b90600090a250565b6060620001a8838360405180606001604052806027815260200162000ee660279139620002e6565b90505b92915050565b6001600160a01b0381166200021c5760405162461bcd60e51b815260206004820152602660248201527f455243313936373a206e65772061646d696e20697320746865207a65726f206160448201526564647265737360d01b60648201526084015b60405180910390fd5b8060008051602062000ec68339815191525b80546001600160a01b0319166001600160a01b039290921691909117905550565b6001600160a01b0381163b620002be5760405162461bcd60e51b815260206004820152602d60248201527f455243313936373a206e657720696d706c656d656e746174696f6e206973206e60448201526c1bdd08184818dbdb9d1c9858dd609a1b606482015260840162000213565b807f360894a13ba1a3210667c828492db98dca3e2076cc3735a920a3ca505d382bbc6200022e565b6060600080856001600160a01b0316856040516200030591906200058b565b600060405180830381855af49150503d806000811462000342576040519150601f19603f3d011682016040523d82523d6000602084013e62000347565b606091505b5090925090506200035b8683838762000365565b9695505050505050565b60608315620003d9578251600003620003d1576001600160a01b0385163b620003d15760405162461bcd60e51b815260206004820152601d60248201527f416464726573733a2063616c6c20746f206e6f6e2d636f6e7472616374000000604482015260640162000213565b5081620003e5565b620003e58383620003ed565b949350505050565b815115620003fe5781518083602001fd5b8060405162461bcd60e51b8152600401620002139190620005a9565b80516001600160a01b03811681146200043257600080fd5b919050565b634e487b7160e01b600052604160045260246000fd5b60005b838110156200046a57818101518382015260200162000450565b50506000910152565b6000806000606084860312156200048957600080fd5b62000494846200041a565b9250620004a4602085016200041a565b60408501519092506001600160401b0380821115620004c257600080fd5b818601915086601f830112620004d757600080fd5b815181811115620004ec57620004ec62000437565b604051601f8201601f19908116603f0116810190838211818310171562000517576200051762000437565b816040528281528960208487010111156200053157600080fd5b620005448360208301602088016200044d565b80955050505050509250925092565b81810381811115620001ab57634e487b7160e01b600052601160045260246000fd5b634e487b7160e01b600052600160045260246000fd5b600082516200059f8184602087016200044d565b9190910192915050565b6020815260008251806020840152620005ca8160408501602087016200044d565b601f01601f19169190910160400192915050565b6108d880620005ee6000396000f3fe60806040526004361061004e5760003560e01c80633659cfe6146100655780634f1ef286146100855780635c60da1b146100985780638f283970146100c9578063f851a440146100e95761005d565b3661005d5761005b6100fe565b005b61005b6100fe565b34801561007157600080fd5b5061005b610080366004610741565b610118565b61005b61009336600461075c565b610177565b3480156100a457600080fd5b506100ad6101f7565b6040516001600160a01b03909116815260200160405180910390f35b3480156100d557600080fd5b5061005b6100e4366004610741565b61023e565b3480156100f557600080fd5b506100ad61027f565b6101066102c1565b610116610111610351565b61035b565b565b61012061037f565b6001600160a01b0316336001600160a01b0316146101595760405162461bcd60e51b8152600401610150906107df565b60405180910390fd5b610174816040518060200160405280600081525060006103b2565b50565b61017f61037f565b6001600160a01b0316336001600160a01b0316146101af5760405162461bcd60e51b8152600401610150906107df565b6101f28383838080601f016020809104026020016040519081016040528093929190818152602001838380828437600092019190915250600192506103b2915050565b505050565b600061020161037f565b6001600160a01b0316336001600160a01b0316146102315760405162461bcd60e51b8152600401610150906107df565b610239610351565b905090565b61024661037f565b6001600160a01b0316336001600160a01b0316146102765760405162461bcd60e51b8152600401610150906107df565b610174816103dd565b600061028961037f565b6001600160a01b0316336001600160a01b0316146102b95760405162461bcd60e51b8152600401610150906107df565b61023961037f565b6102c961037f565b6001600160a01b031633036101165760405162461bcd60e51b815260206004820152604260248201527f5472616e73706172656e745570677261646561626c6550726f78793a2061646d60448201527f696e2063616e6e6f742066616c6c6261636b20746f2070726f78792074617267606482015261195d60f21b608482015260a401610150565b6000610239610431565b3660008037600080366000845af43d6000803e80801561037a573d6000f35b3d6000fd5b60007fb53127684a568b3173ae13b9f8a6016e243e63b6e8ee1178d6a717850b5d61035b546001600160a01b0316919050565b6103bb83610459565b6000825111806103c85750805b156101f2576103d78383610499565b50505050565b7f7e644d79422f17c01e4894b5f4f588d331ebfa28653d42ae832dc59e38c9798f61040661037f565b604080516001600160a01b03928316815291841660208301520160405180910390a1610174816104c5565b60007f360894a13ba1a3210667c828492db98dca3e2076cc3735a920a3ca505d382bbc6103a3565b6104628161056e565b6040516001600160a01b038216907fbc7cd75a20ee27fd9adebab32041f755214dbc6bffa90cc0225b39da2e5c2d3b90600090a250565b60606104be838360405180606001604052806027815260200161087c60279139610602565b9392505050565b6001600160a01b03811661052a5760405162461bcd60e51b815260206004820152602660248201527f455243313936373a206e65772061646d696e20697320746865207a65726f206160448201526564647265737360d01b6064820152608401610150565b807fb53127684a568b3173ae13b9f8a6016e243e63b6e8ee1178d6a717850b5d61035b80546001600160a01b0319166001600160a01b039290921691909117905550565b6001600160a01b0381163b6105db5760405162461bcd60e51b815260206004820152602d60248201527f455243313936373a206e657720696d706c656d656e746174696f6e206973206e60448201526c1bdd08184818dbdb9d1c9858dd609a1b6064820152608401610150565b807f360894a13ba1a3210667c828492db98dca3e2076cc3735a920a3ca505d382bbc61054d565b6060600080856001600160a01b03168560405161061f919061082c565b600060405180830381855af49150503d806000811461065a576040519150601f19603f3d011682016040523d82523d6000602084013e61065f565b606091505b50915091506106708683838761067a565b9695505050505050565b606083156106e95782516000036106e2576001600160a01b0385163b6106e25760405162461bcd60e51b815260206004820152601d60248201527f416464726573733a2063616c6c20746f206e6f6e2d636f6e74726163740000006044820152606401610150565b50816106f3565b6106f383836106fb565b949350505050565b81511561070b5781518083602001fd5b8060405162461bcd60e51b81526004016101509190610848565b80356001600160a01b038116811461073c57600080fd5b919050565b60006020828403121561075357600080fd5b6104be82610725565b60008060006040848603121561077157600080fd5b61077a84610725565b9250602084013567ffffffffffffffff8082111561079757600080fd5b818601915086601f8301126107ab57600080fd5b8135818111156107ba57600080fd5b8760208285010111156107cc57600080fd5b6020830194508093505050509250925092565b6020808252600f908201526e2737ba1020baba3437b934bd32b21760891b604082015260600190565b60005b8381101561082357818101518382015260200161080b565b50506000910152565b6000825161083e818460208701610808565b9190910192915050565b6020815260008251806020840152610867816040850160208701610808565b601f01601f1916919091016040019291505056fe416464726573733a206c6f772d6c6576656c2064656c65676174652063616c6c206661696c6564a264697066735822122011dae1a323c6ecfda9f71a42dee54c7b722f31d06970bf355d0f76e48a8e427964736f6c63430008180033b53127684a568b3173ae13b9f8a6016e243e63b6e8ee1178d6a717850b5d6103416464726573733a206c6f772d6c6576656c2064656c65676174652063616c6c206661696c656460a060405234801561001057600080fd5b50604051610deb380380610deb83398101604081905261002f916100a4565b8061003933610054565b6001600160a01b031660805261004e81610054565b506100d4565b600080546001600160a01b038381166001600160a01b0319831681178455604051919092169283917f8be0079c531659141344cd1fd0a4f28419497f9722a3daafe3b4186f6b6457e09190a35050565b6000602082840312156100b657600080fd5b81516001600160a01b03811681146100cd57600080fd5b9392505050565b608051610cd96101126000396000818161022a01528181610261015281816102a80152818161038c0152818161067f01526106c60152610cd96000f3fe608060405234801561001057600080fd5b50600436106100ea5760003560e01c80638da5cb5b1161008c578063b5ed298a11610066578063b5ed298a1461020a578063bd9b6d861461021d578063d3d24c9b14610225578063f2fde38b1461024c57600080fd5b80638da5cb5b146101bf578063964700c8146101e4578063aa0c8a7b146101f757600080fd5b806354fd4d50116100c857806354fd4d50146101515780635bc008a0146101785780636aa806a7146101a4578063715018a6146101b757600080fd5b80631bf974f3146100ef578063417b0dd91461010457806347082db314610117575b600080fd5b6101026100fd366004610969565b61025f565b005b610102610112366004610a9f565b6103f7565b61013a610125366004610b61565b60036020526000908152604090205460ff1681565b60405160ff90911681526020015b60405180910390f35b60408051808201825260058152640312e312e360dc1b602082015290516101489190610b7c565b61013a610186366004610b61565b6001600160a01b031660009081526003602052604090205460ff1690565b6101026101b2366004610b61565b610475565b6101026104c6565b6000546001600160a01b03165b6040516001600160a01b039091168152602001610148565b6101026101f2366004610bcb565b6104da565b610102610205366004610c19565b6105cf565b610102610218366004610b61565b61067d565b6101026107dd565b6101cc7f000000000000000000000000000000000000000000000000000000000000000081565b61010261025a366004610b61565b610846565b7f00000000000000000000000000000000000000000000000000000000000000006001600160a01b03166102a6576040516371724ffd60e01b815260040160405180910390fd5b7f00000000000000000000000000000000000000000000000000000000000000006001600160a01b03811663c3c2ebbb336040516001600160e01b031960e084901b1681526001600160a01b039091166004820152602401602060405180830381865afa15801561031b573d6000803e3d6000fd5b505050506040513d601f19601f8201168201806040525081019061033f9190610c43565b15801561035757506000546001600160a01b03163314155b156103755760405163054f3a3160e31b815260040160405180910390fd5b604051632b124b7960e01b81526001600160a01b037f00000000000000000000000000000000000000000000000000000000000000001690632b124b79906103c1908590600401610c65565b600060405180830381600087803b1580156103db57600080fd5b505af11580156103ef573d6000803e3d6000fd5b505050505050565b6103ff6108bf565b81518151146104205760405162514d8b60e31b815260040160405180910390fd5b60005b82518110156104705761046883828151811061044157610441610c8d565b602002602001015183838151811061045b5761045b610c8d565b60200260200101516105cf565b600101610423565b505050565b61047d6108bf565b6001600160a01b038116600081815260036020526040808220805460ff19169055517f276cf99114a46d5939685dde45049a35ff9b38ba6159453582924455c249a58b9190a250565b6104ce6108bf565b6104d86000610919565b565b6104e26108bf565b60048160ff1611156105115760405163fd12da9160e01b815260ff821660048201526024015b60405180910390fd5b60005b825181101561047057816003600085848151811061053457610534610c8d565b60200260200101516001600160a01b03166001600160a01b0316815260200190815260200160002060006101000a81548160ff021916908360ff1602179055508160ff1683828151811061058a5761058a610c8d565b60200260200101516001600160a01b03167f6925839d9987ab8377392e05897fdc086a53f88d84befbec65e10629628e547960405160405180910390a3600101610514565b6105d76108bf565b60048160ff1611156106015760405163fd12da9160e01b815260ff82166004820152602401610508565b6001600160a01b0382166106285760405163d92e233d60e01b815260040160405180910390fd5b6001600160a01b038216600081815260036020526040808220805460ff191660ff861690811790915590519092917f6925839d9987ab8377392e05897fdc086a53f88d84befbec65e10629628e547991a35050565b7f00000000000000000000000000000000000000000000000000000000000000006001600160a01b03166106c4576040516371724ffd60e01b815260040160405180910390fd5b7f00000000000000000000000000000000000000000000000000000000000000006001600160a01b03811663c3c2ebbb336040516001600160e01b031960e084901b1681526001600160a01b039091166004820152602401602060405180830381865afa158015610739573d6000803e3d6000fd5b505050506040513d601f19601f8201168201806040525081019061075d9190610c43565b15801561077557506000546001600160a01b03163314155b156107935760405163054f3a3160e31b815260040160405180910390fd5b6001600160a01b0382166107ba5760405163d92e233d60e01b815260040160405180910390fd5b50600180546001600160a01b0319166001600160a01b0392909216919091179055565b6001546001600160a01b03166108065760405163821e0eeb60e01b815260040160405180910390fd5b6001546001600160a01b0316331461083157604051634128496760e01b815260040160405180910390fd5b6001546104d8906001600160a01b0316610919565b61084e6108bf565b6001600160a01b0381166108b35760405162461bcd60e51b815260206004820152602660248201527f4f776e61626c653a206e6577206f776e657220697320746865207a65726f206160448201526564647265737360d01b6064820152608401610508565b6108bc81610919565b50565b6000546001600160a01b031633146104d85760405162461bcd60e51b815260206004820181905260248201527f4f776e61626c653a2063616c6c6572206973206e6f7420746865206f776e65726044820152606401610508565b600080546001600160a01b038381166001600160a01b0319831681178455604051919092169283917f8be0079c531659141344cd1fd0a4f28419497f9722a3daafe3b4186f6b6457e09190a35050565b60006020828403121561097b57600080fd5b81356005811061098a57600080fd5b9392505050565b634e487b7160e01b600052604160045260246000fd5b604051601f8201601f1916810167ffffffffffffffff811182821017156109d0576109d0610991565b604052919050565b600067ffffffffffffffff8211156109f2576109f2610991565b5060051b60200190565b80356001600160a01b0381168114610a1357600080fd5b919050565b600082601f830112610a2957600080fd5b81356020610a3e610a39836109d8565b6109a7565b8083825260208201915060208460051b870101935086841115610a6057600080fd5b602086015b84811015610a8357610a76816109fc565b8352918301918301610a65565b509695505050505050565b803560ff81168114610a1357600080fd5b60008060408385031215610ab257600080fd5b823567ffffffffffffffff80821115610aca57600080fd5b610ad686838701610a18565b9350602091508185013581811115610aed57600080fd5b85019050601f81018613610b0057600080fd5b8035610b0e610a39826109d8565b81815260059190911b82018301908381019088831115610b2d57600080fd5b928401925b82841015610b5257610b4384610a8e565b82529284019290840190610b32565b80955050505050509250929050565b600060208284031215610b7357600080fd5b61098a826109fc565b60006020808352835180602085015260005b81811015610baa57858101830151858201604001528201610b8e565b506000604082860101526040601f19601f8301168501019250505092915050565b60008060408385031215610bde57600080fd5b823567ffffffffffffffff811115610bf557600080fd5b610c0185828601610a18565b925050610c1060208401610a8e565b90509250929050565b60008060408385031215610c2c57600080fd5b610c35836109fc565b9150610c1060208401610a8e565b600060208284031215610c5557600080fd5b8151801515811461098a57600080fd5b6020810160058310610c8757634e487b7160e01b600052602160045260246000fd5b91905290565b634e487b7160e01b600052603260045260246000fdfea2646970667358221220a3c4649319866c4070619bc3388f2faefcabff16a3b71e0a3901143fbf77585864736f6c6343000818003360806040523480156200001157600080fd5b506040516200255338038062002553833981016040819052620000349162000213565b8383600062000044838262000357565b50600162000053828262000357565b505050620000706200006a620000f560201b60201c565b620000f9565b6001600160a01b038216620000985760405163d92e233d60e01b815260040160405180910390fd5b600880546001600160a01b0384166001600160a01b0319918216811790925560098054909116821790556040517f190d181faa359c0408a05fed34ab1914753b07b5c54422b772d67a30206408ce90600090a25050505062000423565b3390565b600680546001600160a01b038381166001600160a01b0319831681179093556040519116919082907f8be0079c531659141344cd1fd0a4f28419497f9722a3daafe3b4186f6b6457e090600090a35050565b634e487b7160e01b600052604160045260246000fd5b600082601f8301126200017357600080fd5b81516001600160401b03808211156200019057620001906200014b565b604051601f8301601f19908116603f01168101908282118183101715620001bb57620001bb6200014b565b8160405283815260209250866020858801011115620001d957600080fd5b600091505b83821015620001fd5785820183015181830184015290820190620001de565b6000602085830101528094505050505092915050565b600080600080608085870312156200022a57600080fd5b84516001600160401b03808211156200024257600080fd5b620002508883890162000161565b955060208701519150808211156200026757600080fd5b620002758883890162000161565b604088015190955091506001600160a01b03821682146200029557600080fd5b606087015191935080821115620002ab57600080fd5b50620002ba8782880162000161565b91505092959194509250565b600181811c90821680620002db57607f821691505b602082108103620002fc57634e487b7160e01b600052602260045260246000fd5b50919050565b601f82111562000352576000816000526020600020601f850160051c810160208610156200032d5750805b601f850160051c820191505b818110156200034e5782815560010162000339565b5050505b505050565b81516001600160401b038111156200037357620003736200014b565b6200038b81620003848454620002c6565b8462000302565b602080601f831160018114620003c35760008415620003aa5750858301515b600019600386901b1c1916600185901b1785556200034e565b600085815260208120601f198616915b82811015620003f457888601518255948401946001909101908401620003d3565b5085821015620004135787850151600019600388901b60f8161c191681555b5050505050600190811b01905550565b61212080620004336000396000f3fe6080604052600436106101815760003560e01c80636352211e116100d157806395d89b411161008a578063c87b56dd11610064578063c87b56dd1461044d578063cdccb27a1461046d578063e985e9c514610482578063f2fde38b146104cb57600080fd5b806395d89b41146103f8578063a22cb4651461040d578063b88d4fde1461042d57600080fd5b80636352211e146103475780636f9c83b81461036757806370a0823114610385578063715018a6146103a557806371af85e0146103ba5780638da5cb5b146103da57600080fd5b806323b872dd1161013e57806342842e0e1161011857806342842e0e146102c957806342966c68146102e95780634c330077146103095780634f6ccce71461032757600080fd5b806323b872dd146102765780632f745c591461029657806340d097c3146102b657600080fd5b806301ffc9a71461018657806306fdde03146101bb578063081812fc146101dd578063095ea7b31461021557806311280cb51461023757806318160ddd14610257575b600080fd5b34801561019257600080fd5b506101a66101a1366004611c39565b6104eb565b60405190151581526020015b60405180910390f35b3480156101c757600080fd5b506101d061050b565b6040516101b29190611ca6565b3480156101e957600080fd5b506101fd6101f8366004611cb9565b61059d565b6040516001600160a01b0390911681526020016101b2565b34801561022157600080fd5b50610235610230366004611cee565b6105c4565b005b34801561024357600080fd5b50610235610252366004611d18565b6106de565b34801561026357600080fd5b50600c545b6040519081526020016101b2565b34801561028257600080fd5b50610235610291366004611d33565b6107e9565b3480156102a257600080fd5b506102686102b1366004611cee565b61081b565b6102356102c4366004611d18565b6108b1565b3480156102d557600080fd5b506102356102e4366004611d33565b6108eb565b3480156102f557600080fd5b50610235610304366004611cb9565b610906565b34801561031557600080fd5b506008546001600160a01b03166101fd565b34801561033357600080fd5b50610268610342366004611cb9565b610937565b34801561035357600080fd5b506101fd610362366004611cb9565b6109ca565b34801561037357600080fd5b50600f546001600160a01b03166101fd565b34801561039157600080fd5b506102686103a0366004611d18565b610a2a565b3480156103b157600080fd5b50610235610ab0565b3480156103c657600080fd5b506102356103d5366004611d18565b610ac4565b3480156103e657600080fd5b506006546001600160a01b03166101fd565b34801561040457600080fd5b506101d0610bfa565b34801561041957600080fd5b50610235610428366004611d7d565b610c09565b34801561043957600080fd5b50610235610448366004611dca565b610c18565b34801561045957600080fd5b506101d0610468366004611cb9565b610c50565b34801561047957600080fd5b50610235610cc4565b34801561048e57600080fd5b506101a661049d366004611ea6565b6001600160a01b03918216600090815260056020908152604080832093909416825291909152205460ff1690565b3480156104d757600080fd5b506102356104e6366004611d18565b610d4c565b60006104f682610dc2565b80610505575061050582610dc2565b92915050565b60606000805461051a90611ed9565b80601f016020809104026020016040519081016040528092919081815260200182805461054690611ed9565b80156105935780601f1061056857610100808354040283529160200191610593565b820191906000526020600020905b81548152906001019060200180831161057657829003601f168201915b5050505050905090565b60006105a882610de7565b506000908152600460205260409020546001600160a01b031690565b60006105cf826109ca565b9050806001600160a01b0316836001600160a01b0316036106415760405162461bcd60e51b815260206004820152602160248201527f4552433732313a20617070726f76616c20746f2063757272656e74206f776e656044820152603960f91b60648201526084015b60405180910390fd5b336001600160a01b038216148061065d575061065d813361049d565b6106cf5760405162461bcd60e51b815260206004820152603d60248201527f4552433732313a20617070726f76652063616c6c6572206973206e6f7420746f60448201527f6b656e206f776e6572206f7220617070726f76656420666f7220616c6c0000006064820152608401610638565b6106d98383610e46565b505050565b6008546001600160a01b031680610708576040516371724ffd60e01b815260040160405180910390fd5b806001600160a01b03811663c3c2ebbb336040516001600160e01b031960e084901b1681526001600160a01b039091166004820152602401602060405180830381865afa15801561075d573d6000803e3d6000fd5b505050506040513d601f19601f820116820180604052508101906107819190611f13565b61079e5760405163ba80c9e560e01b815260040160405180910390fd5b6001600160a01b0383166107c55760405163d92e233d60e01b815260040160405180910390fd5b5050600780546001600160a01b0319166001600160a01b0392909216919091179055565b6107f4335b82610eb4565b6108105760405162461bcd60e51b815260040161063890611f30565b6106d9838383610f33565b600061082683610a2a565b82106108885760405162461bcd60e51b815260206004820152602b60248201527f455243373231456e756d657261626c653a206f776e657220696e646578206f7560448201526a74206f6620626f756e647360a81b6064820152608401610638565b506001600160a01b03919091166000908152600a60209081526040808320938352929052205490565b6008546001600160a01b03166108c6816110a4565b60006108d1600e5490565b90506108e1600e80546001019055565b6106d9838261117a565b6106d983838360405180602001604052806000815250610c18565b61090f336107ee565b61092b5760405162461bcd60e51b815260040161063890611f30565b61093481611194565b50565b6000610942600c5490565b82106109a55760405162461bcd60e51b815260206004820152602c60248201527f455243373231456e756d657261626c653a20676c6f62616c20696e646578206f60448201526b7574206f6620626f756e647360a01b6064820152608401610638565b600c82815481106109b8576109b8611f7d565b90600052602060002001549050919050565b6000818152600260205260408120546001600160a01b0316806105055760405162461bcd60e51b8152602060048201526018602482015277115490cdcc8c4e881a5b9d985b1a59081d1bdad95b88125160421b6044820152606401610638565b60006001600160a01b038216610a945760405162461bcd60e51b815260206004820152602960248201527f4552433732313a2061646472657373207a65726f206973206e6f7420612076616044820152683634b21037bbb732b960b91b6064820152608401610638565b506001600160a01b031660009081526003602052604090205490565b610ab8611237565b610ac26000611291565b565b6008546001600160a01b031680610aee576040516371724ffd60e01b815260040160405180910390fd5b806001600160a01b03811663c3c2ebbb336040516001600160e01b031960e084901b1681526001600160a01b039091166004820152602401602060405180830381865afa158015610b43573d6000803e3d6000fd5b505050506040513d601f19601f82011682018060405250810190610b679190611f13565b610b845760405163ba80c9e560e01b815260040160405180910390fd5b6001600160a01b038316610bab5760405163d92e233d60e01b815260040160405180910390fd5b600f80546001600160a01b0319166001600160a01b0385169081179091556040513091907f9a2cdaf1a28a88ccd359d6abc6a27d4856d16459aafb0aae34c1296bab5b63fb90600090a3505050565b60606001805461051a90611ed9565b610c143383836112e3565b5050565b610c223383610eb4565b610c3e5760405162461bcd60e51b815260040161063890611f30565b610c4a848484846113b1565b50505050565b6060610c5b82610de7565b6000610c7260408051602081019091526000815290565b90506000815111610c925760405180602001604052806000815250610cbd565b80610c9c846113e4565b604051602001610cad929190611f93565b6040516020818303038152906040525b9392505050565b6007546001600160a01b0316610ced5760405163821e0eeb60e01b815260040160405180910390fd5b6007546001600160a01b03163314610d1857604051634128496760e01b815260040160405180910390fd5b60078054600880546001600160a01b0383166001600160a01b03199182168117909255600980548216909217909155169055565b610d54611237565b6001600160a01b038116610db95760405162461bcd60e51b815260206004820152602660248201527f4f776e61626c653a206e6577206f776e657220697320746865207a65726f206160448201526564647265737360d01b6064820152608401610638565b61093481611291565b60006001600160e01b0319821663780e9d6360e01b1480610505575061050582611477565b6000818152600260205260409020546001600160a01b03166109345760405162461bcd60e51b8152602060048201526018602482015277115490cdcc8c4e881a5b9d985b1a59081d1bdad95b88125160421b6044820152606401610638565b600081815260046020526040902080546001600160a01b0319166001600160a01b0384169081179091558190610e7b826109ca565b6001600160a01b03167f8c5be1e5ebec7d5bd14f71427d1e84f3dd0314c0f7b2291e5b200ac8c7c3b92560405160405180910390a45050565b600080610ec0836109ca565b9050806001600160a01b0316846001600160a01b03161480610f0757506001600160a01b0380821660009081526005602090815260408083209388168352929052205460ff165b80610f2b5750836001600160a01b0316610f208461059d565b6001600160a01b0316145b949350505050565b826001600160a01b0316610f46826109ca565b6001600160a01b031614610f6c5760405162461bcd60e51b815260040161063890611fc2565b6001600160a01b038216610fce5760405162461bcd60e51b8152602060048201526024808201527f4552433732313a207472616e7366657220746f20746865207a65726f206164646044820152637265737360e01b6064820152608401610638565b610fdb83838360016114c7565b826001600160a01b0316610fee826109ca565b6001600160a01b0316146110145760405162461bcd60e51b815260040161063890611fc2565b600081815260046020908152604080832080546001600160a01b03199081169091556001600160a01b0387811680865260038552838620805460001901905590871680865283862080546001019055868652600290945282852080549092168417909155905184937fddf252ad1be2c89b69c2b068fc378daa952ba7f163c4a11628f55a4df523b3ef91a4505050565b6001600160a01b0381166110cb576040516371724ffd60e01b815260040160405180910390fd5b806001600160a01b03811663c3c2ebbb336040516001600160e01b031960e084901b1681526001600160a01b039091166004820152602401602060405180830381865afa158015611120573d6000803e3d6000fd5b505050506040513d601f19601f820116820180604052508101906111449190611f13565b15801561115c57506006546001600160a01b03163314155b15610c145760405163054f3a3160e31b815260040160405180910390fd5b610c148282604051806020016040528060008152506115ba565b600061119f826109ca565b90506111af8160008460016114c7565b6111b8826109ca565b600083815260046020908152604080832080546001600160a01b03199081169091556001600160a01b0385168085526003845282852080546000190190558785526002909352818420805490911690555192935084927fddf252ad1be2c89b69c2b068fc378daa952ba7f163c4a11628f55a4df523b3ef908390a45050565b6006546001600160a01b03163314610ac25760405162461bcd60e51b815260206004820181905260248201527f4f776e61626c653a2063616c6c6572206973206e6f7420746865206f776e65726044820152606401610638565b600680546001600160a01b038381166001600160a01b0319831681179093556040519116919082907f8be0079c531659141344cd1fd0a4f28419497f9722a3daafe3b4186f6b6457e090600090a35050565b816001600160a01b0316836001600160a01b0316036113445760405162461bcd60e51b815260206004820152601960248201527f4552433732313a20617070726f766520746f2063616c6c6572000000000000006044820152606401610638565b6001600160a01b03838116600081815260056020908152604080832094871680845294825291829020805460ff191686151590811790915591519182527f17307eab39ab6107e8899845ad3d59bd9653f200f220920489ca2b5937696c31910160405180910390a3505050565b6113bc848484610f33565b6113c8848484846115ed565b610c4a5760405162461bcd60e51b815260040161063890612007565b606060006113f1836116ee565b600101905060008167ffffffffffffffff81111561141157611411611db4565b6040519080825280601f01601f19166020018201604052801561143b576020820181803683370190505b5090508181016020015b600019016f181899199a1a9b1b9c1cb0b131b232b360811b600a86061a8153600a850494508461144557509392505050565b60006001600160e01b031982166380ac58cd60e01b14806114a857506001600160e01b03198216635b5e139f60e01b145b8061050557506301ffc9a760e01b6001600160e01b0319831614610505565b600f546001600160a01b039081169063e802b523908616156114f1576114ec86610a2a565b6114f4565b60005b6001600160a01b038616156115115761150c86610a2a565b611514565b60005b8787336040516001600160e01b031960e088901b168152600481019590955260248501939093526001600160a01b0391821660448501528116606484015216608482015260a4810185905260c4016020604051808303816000875af1158015611581573d6000803e3d6000fd5b505050506040513d601f19601f820116820180604052508101906115a59190611f13565b6115ae57600080fd5b610c4a848484846117c6565b6115c483836118fa565b6115d160008484846115ed565b6106d95760405162461bcd60e51b815260040161063890612007565b60006001600160a01b0384163b156116e357604051630a85bd0160e11b81526001600160a01b0385169063150b7a0290611631903390899088908890600401612059565b6020604051808303816000875af192505050801561166c575060408051601f3d908101601f1916820190925261166991810190612096565b60015b6116c9573d80801561169a576040519150601f19603f3d011682016040523d82523d6000602084013e61169f565b606091505b5080516000036116c15760405162461bcd60e51b815260040161063890612007565b805181602001fd5b6001600160e01b031916630a85bd0160e11b149050610f2b565b506001949350505050565b60008072184f03e93ff9f4daa797ed6e38ed64bf6a1f0160401b831061172d5772184f03e93ff9f4daa797ed6e38ed64bf6a1f0160401b830492506040015b6d04ee2d6d415b85acef81000000008310611759576d04ee2d6d415b85acef8100000000830492506020015b662386f26fc10000831061177757662386f26fc10000830492506010015b6305f5e100831061178f576305f5e100830492506008015b61271083106117a357612710830492506004015b606483106117b5576064830492506002015b600a83106105055760010192915050565b60018111156118355760405162461bcd60e51b815260206004820152603560248201527f455243373231456e756d657261626c653a20636f6e7365637574697665207472604482015274185b9cd9995c9cc81b9bdd081cdd5c1c1bdc9d1959605a1b6064820152608401610638565b816001600160a01b0385166118915761188c81600c80546000838152600d60205260408120829055600182018355919091527fdf6966c971051c3d54ec59162606531493a51404a002842f56009d7e5cf4a8c70155565b6118b4565b836001600160a01b0316856001600160a01b0316146118b4576118b48582611a93565b6001600160a01b0384166118d0576118cb81611b30565b6118f3565b846001600160a01b0316846001600160a01b0316146118f3576118f38482611bdf565b5050505050565b6001600160a01b0382166119505760405162461bcd60e51b815260206004820181905260248201527f4552433732313a206d696e7420746f20746865207a65726f20616464726573736044820152606401610638565b6000818152600260205260409020546001600160a01b0316156119b55760405162461bcd60e51b815260206004820152601c60248201527f4552433732313a20746f6b656e20616c7265616479206d696e746564000000006044820152606401610638565b6119c36000838360016114c7565b6000818152600260205260409020546001600160a01b031615611a285760405162461bcd60e51b815260206004820152601c60248201527f4552433732313a20746f6b656e20616c7265616479206d696e746564000000006044820152606401610638565b6001600160a01b038216600081815260036020908152604080832080546001019055848352600290915280822080546001600160a01b0319168417905551839291907fddf252ad1be2c89b69c2b068fc378daa952ba7f163c4a11628f55a4df523b3ef908290a45050565b60006001611aa084610a2a565b611aaa91906120b3565b6000838152600b6020526040902054909150808214611afd576001600160a01b0384166000908152600a602090815260408083208584528252808320548484528184208190558352600b90915290208190555b506000918252600b602090815260408084208490556001600160a01b039094168352600a81528383209183525290812055565b600c54600090611b42906001906120b3565b6000838152600d6020526040812054600c8054939450909284908110611b6a57611b6a611f7d565b9060005260206000200154905080600c8381548110611b8b57611b8b611f7d565b6000918252602080832090910192909255828152600d9091526040808220849055858252812055600c805480611bc357611bc36120d4565b6001900381819060005260206000200160009055905550505050565b6000611bea83610a2a565b6001600160a01b039093166000908152600a602090815260408083208684528252808320859055938252600b9052919091209190915550565b6001600160e01b03198116811461093457600080fd5b600060208284031215611c4b57600080fd5b8135610cbd81611c23565b60005b83811015611c71578181015183820152602001611c59565b50506000910152565b60008151808452611c92816020860160208601611c56565b601f01601f19169290920160200192915050565b602081526000610cbd6020830184611c7a565b600060208284031215611ccb57600080fd5b5035919050565b80356001600160a01b0381168114611ce957600080fd5b919050565b60008060408385031215611d0157600080fd5b611d0a83611cd2565b946020939093013593505050565b600060208284031215611d2a57600080fd5b610cbd82611cd2565b600080600060608486031215611d4857600080fd5b611d5184611cd2565b9250611d5f60208501611cd2565b9150604084013590509250925092565b801515811461093457600080fd5b60008060408385031215611d9057600080fd5b611d9983611cd2565b91506020830135611da981611d6f565b809150509250929050565b634e487b7160e01b600052604160045260246000fd5b60008060008060808587031215611de057600080fd5b611de985611cd2565b9350611df760208601611cd2565b925060408501359150606085013567ffffffffffffffff80821115611e1b57600080fd5b818701915087601f830112611e2f57600080fd5b813581811115611e4157611e41611db4565b604051601f8201601f19908116603f01168101908382118183101715611e6957611e69611db4565b816040528281528a6020848701011115611e8257600080fd5b82602086016020830137600060208483010152809550505050505092959194509250565b60008060408385031215611eb957600080fd5b611ec283611cd2565b9150611ed060208401611cd2565b90509250929050565b600181811c90821680611eed57607f821691505b602082108103611f0d57634e487b7160e01b600052602260045260246000fd5b50919050565b600060208284031215611f2557600080fd5b8151610cbd81611d6f565b6020808252602d908201527f4552433732313a2063616c6c6572206973206e6f7420746f6b656e206f776e6560408201526c1c881bdc88185c1c1c9bdd9959609a1b606082015260800190565b634e487b7160e01b600052603260045260246000fd5b60008351611fa5818460208801611c56565b835190830190611fb9818360208801611c56565b01949350505050565b60208082526025908201527f4552433732313a207472616e736665722066726f6d20696e636f72726563742060408201526437bbb732b960d91b606082015260800190565b60208082526032908201527f4552433732313a207472616e7366657220746f206e6f6e20455243373231526560408201527131b2b4bb32b91034b6b83632b6b2b73a32b960711b606082015260800190565b6001600160a01b038581168252841660208201526040810183905260806060820181905260009061208c90830184611c7a565b9695505050505050565b6000602082840312156120a857600080fd5b8151610cbd81611c23565b8181038181111561050557634e487b7160e01b600052601160045260246000fd5b634e487b7160e01b600052603160045260246000fdfea2646970667358221220c5884b959d282e7d58adfbdd2d7cda82f11763e7369d585c667bc0acddbb886864736f6c63430008180033608060405260405161100b38038061100b83398101604081905261002291610a69565b80516020820151610034918491610064565b6040517f9e097475acce5c775ce36fad9613930200d3c1a6ef739dbe7abcfcc240aece0f90600090a15050610e4b565b60005b83518110156101c657600084828151811061008457610084610c0a565b602002602001015160400151905060008583815181106100a6576100a6610c0a565b602002602001015160000151905081516000036100e65760405163e767f91f60e01b81526001600160a01b03821660048201526024015b60405180910390fd5b60008684815181106100fa576100fa610c0a565b60200260200101516020015190506000600281111561011b5761011b610c20565b81600281111561012d5761012d610c20565b036101415761013c8284610211565b6101b8565b600181600281111561015557610155610c20565b036101645761013c82846103af565b600281600281111561017857610178610c20565b036101875761013c8284610535565b80600281111561019957610199610c20565b604051633ff4d20f60e11b815260ff90911660048201526024016100dd565b836001019350505050610067565b507f8faa70878671ccd212d20771b795c50af8fd3ff6cf27f4bde57e5d4de0aeb6738383836040516101fa93929190610ca8565b60405180910390a161020c82826107a6565b505050565b6001600160a01b03821661023a57806040516302b8da0760e21b81526004016100dd9190610d72565b600061024461086c565b905060008160010180549050905061027484604051806060016040528060248152602001610fbf602491396108a0565b60005b83518110156103a857600084828151811061029457610294610c0a565b6020908102919091018101516001600160e01b031981166000908152918690526040909120549091506001600160a01b031680156102f15760405163ebbf5d0760e01b81526001600160e01b0319831660048201526024016100dd565b6040805180820182526001600160a01b03808a16825261ffff80881660208085019182526001600160e01b0319881660009081528b8252958620945185549251909316600160a01b026001600160b01b0319909216929093169190911717909155600180880180549182018155835291206008820401805460e085901c60046007909416939093026101000a92830263ffffffff909302191691909117905561039984610da2565b93508260010192505050610277565b5050505050565b60006103b961086c565b90506001600160a01b0383166103e4578160405163cd98a96f60e01b81526004016100dd9190610d72565b61040683604051806060016040528060288152602001610fe3602891396108a0565b60005b825181101561052f57600083828151811061042657610426610c0a565b6020908102919091018101516001600160e01b031981166000908152918590526040909120549091506001600160a01b031630810361048457604051632901806d60e11b81526001600160e01b0319831660048201526024016100dd565b856001600160a01b0316816001600160a01b0316036104c257604051631ac6ce8d60e11b81526001600160e01b0319831660048201526024016100dd565b6001600160a01b0381166104f557604051637479f93960e01b81526001600160e01b0319831660048201526024016100dd565b506001600160e01b031916600090815260208390526040902080546001600160a01b0319166001600160a01b038616179055600101610409565b50505050565b600061053f61086c565b60018101549091506001600160a01b0384161561057a5760405163d091bc8160e01b81526001600160a01b03851660048201526024016100dd565b60005b83518110156103a857600084828151811061059a5761059a610c0a565b6020908102919091018101516001600160e01b0319811660009081528683526040908190208151808301909252546001600160a01b038116808352600160a01b90910461ffff16938201939093529092509061061557604051637a08a22d60e01b81526001600160e01b0319831660048201526024016100dd565b8051306001600160a01b039091160361064d57604051630df5fd6160e31b81526001600160e01b0319831660048201526024016100dd565b8361065781610dc3565b94505083816020015161ffff161461073557600085600101858154811061068057610680610c0a565b90600052602060002090600891828204019190066004029054906101000a900460e01b90508086600101836020015161ffff16815481106106c3576106c3610c0a565b600091825260208083206008830401805463ffffffff60079094166004026101000a938402191660e09590951c92909202939093179055838201516001600160e01b03199390931681529087905260409020805461ffff60a01b1916600160a01b61ffff909316929092029190911790555b8460010180548061074857610748610dda565b60008281526020808220600860001990940193840401805463ffffffff600460078716026101000a0219169055919092556001600160e01b0319909316815291859052506040902080546001600160b01b031916905560010161057d565b6001600160a01b0382166107b8575050565b6107da82604051806060016040528060278152602001610f98602791396108a0565b600080836001600160a01b0316836040516107f59190610df0565b600060405180830381855af49150503d8060008114610830576040519150601f19603f3d011682016040523d82523d6000602084013e610835565b606091505b50915091508161052f5780511561084f5780518082602001fd5b838360405163192105d760e01b81526004016100dd929190610e0c565b60008061089a60017fbe498a3b14fd79a48c3c9af86ff14271ed497d09071013334028d28e7791db20610e38565b92915050565b813b600081900361020c57828260405163919834b960e01b81526004016100dd929190610e0c565b634e487b7160e01b600052604160045260246000fd5b604080519081016001600160401b0381118282101715610900576109006108c8565b60405290565b604051606081016001600160401b0381118282101715610900576109006108c8565b604051601f8201601f191681016001600160401b0381118282101715610950576109506108c8565b604052919050565b60006001600160401b03821115610971576109716108c8565b5060051b60200190565b80516001600160a01b038116811461099257600080fd5b919050565b60005b838110156109b257818101518382015260200161099a565b50506000910152565b6000604082840312156109cd57600080fd5b6109d56108de565b90506109e08261097b565b81526020828101516001600160401b03808211156109fd57600080fd5b818501915085601f830112610a1157600080fd5b815181811115610a2357610a236108c8565b610a35601f8201601f19168501610928565b91508082528684828501011115610a4b57600080fd5b610a5a81858401868601610997565b50808385015250505092915050565b60008060408385031215610a7c57600080fd5b82516001600160401b0380821115610a9357600080fd5b818501915085601f830112610aa757600080fd5b81516020610abc610ab783610958565b610928565b82815260059290921b84018101918181019089841115610adb57600080fd5b8286015b84811015610bd957805186811115610af657600080fd5b87016060818d03601f19011215610b0c57600080fd5b610b14610906565b610b1f86830161097b565b8152604082015160038110610b3357600080fd5b81870152606082015188811115610b4957600080fd5b8083019250508c603f830112610b5e57600080fd5b85820151610b6e610ab782610958565b81815260059190911b830160400190878101908f831115610b8e57600080fd5b6040850194505b82851015610bc45784516001600160e01b031981168114610bb557600080fd5b82529388019390880190610b95565b60408401525050845250918301918301610adf565b5091880151919650909350505080821115610bf357600080fd5b50610c00858286016109bb565b9150509250929050565b634e487b7160e01b600052603260045260246000fd5b634e487b7160e01b600052602160045260246000fd5b60008151808452602080850194506020840160005b83811015610c715781516001600160e01b03191687529582019590820190600101610c4b565b509495945050505050565b60008151808452610c94816020860160208601610997565b601f01601f19169290920160200192915050565b600060608083016060845280875180835260808601915060808160051b87010192506020808a016000805b84811015610d4257898703607f19018652825180516001600160a01b031688528481015160038110610d1357634e487b7160e01b84526021600452602484fd5b88860152604090810151908801899052610d2f89890182610c36565b9750509483019491830191600101610cd3565b5050506001600160a01b0389169087015250508381036040850152610d678186610c7c565b979650505050505050565b602081526000610d856020830184610c36565b9392505050565b634e487b7160e01b600052601160045260246000fd5b600061ffff808316818103610db957610db9610d8c565b6001019392505050565b600081610dd257610dd2610d8c565b506000190190565b634e487b7160e01b600052603160045260246000fd5b60008251610e02818460208701610997565b9190910192915050565b6001600160a01b0383168152604060208201819052600090610e3090830184610c7c565b949350505050565b8181038181111561089a5761089a610d8c565b61013e80610e5a6000396000f3fe60806040523661000b57005b60008061003960017fbe498a3b14fd79a48c3c9af86ff14271ed497d09071013334028d28e7791db206100e1565b600080356001600160e01b0319168152602082905260409020549092508291506001600160a01b03168061009257604051630a82dd7360e31b81526001600160e01b031960003516600482015260240160405180910390fd5b806001600160a01b03163b6000036100bd57604051638454099560e01b815260040160405180910390fd5b3660008037600080366000845af43d6000803e8080156100dc573d6000f35b3d6000fd5b8181038181111561010257634e487b7160e01b600052601160045260246000fd5b9291505056fea264697066735822122052c6c1fc6c7d04c7344d3380f4625e984f33276cd410e0f95b428542c760170764736f6c634300081800334469616d6f6e644375744c69623a20696e6974206164647265737320686173206e6f20636f64654469616d6f6e644375744c69623a2041646420666163657420686173206e6f20636f64654469616d6f6e644375744c69623a205265706c61636520666163657420686173206e6f20636f6465608060405234801561001057600080fd5b50611769806100206000396000f3fe608060405234801561001057600080fd5b50600436106100575760003560e01c80631f931c1c1461005c57806352ef6b2c146100715780637a0ed6271461008f578063adfca15e146100a4578063cdffacc6146100c4575b600080fd5b61006f61006a366004611099565b6100ef565b005b6100796101ad565b604051610086919061114b565b60405180910390f35b610097610319565b60405161008691906111de565b6100b76100b236600461125d565b6106c6565b604051610086919061127f565b6100d76100d23660046112aa565b6107e3565b6040516001600160a01b039091168152602001610086565b7f02dbc36a11ad69a7efd36e6fc5553942b2a3c7757978bf89807fea8d8cdf5a8b546001600160a01b0316331461015c5760405162461bcd60e51b815260206004820152600c60248201526b15539055551213d49256915160a21b60448201526064015b60405180910390fd5b6101a66101698587611359565b8484848080601f01602080910402602001604051908101604052809392919081815260200183838082843760009201919091525061081892505050565b5050505050565b606060006101b96109bd565b60018101549091508067ffffffffffffffff8111156101da576101da6112c5565b604051908082528060200260200182016040528015610203578160200160208202803683370190505b5092506000805b8281101561030f5760008460010182815481106102295761022961148d565b6000918252602080832060088304015460079092166004026101000a90910460e01b6001600160e01b0319811683529087905260408220549092506001600160a01b031690805b858110156102bb5788818151811061028a5761028a61148d565b60200260200101516001600160a01b0316836001600160a01b0316036102b357600191506102bb565b600101610270565b5080156102cb5750610307915050565b818886815181106102de576102de61148d565b6001600160a01b039092166020928302919091019091015284610300816114b9565b9550505050505b60010161020a565b5080845250505090565b606060006103256109bd565b60018101549091508067ffffffffffffffff811115610346576103466112c5565b60405190808252806020026020018201604052801561038c57816020015b6040805180820190915260008152606060208201528152602001906001900390816103645790505b50925060008167ffffffffffffffff8111156103aa576103aa6112c5565b6040519080825280602002602001820160405280156103d3578160200160208202803683370190505b5090506000805b8381101561065e5760008560010182815481106103f9576103f961148d565b6000918252602080832060088304015460079092166004026101000a90910460e01b6001600160e01b0319811683529088905260408220549092506001600160a01b031690805b8581101561052c57826001600160a01b03168a82815181106104645761046461148d565b6020026020010151600001516001600160a01b03160361052457838a82815181106104915761049161148d565b6020026020010151602001518883815181106104af576104af61148d565b602002602001015161ffff16815181106104cb576104cb61148d565b60200260200101906001600160e01b03191690816001600160e01b031916815250508681815181106104ff576104ff61148d565b602002602001018051809190610514906114d2565b61ffff169052506001915061052c565b600101610440565b50801561053c5750610656915050565b8189868151811061054f5761054f61148d565b60209081029190910101516001600160a01b0390911690528667ffffffffffffffff811115610580576105806112c5565b6040519080825280602002602001820160405280156105a9578160200160208202803683370190505b508986815181106105bc576105bc61148d565b602002602001015160200181905250828986815181106105de576105de61148d565b6020026020010151602001516000815181106105fc576105fc61148d565b60200260200101906001600160e01b03191690816001600160e01b0319168152505060018686815181106106325761063261148d565b61ffff909216602092830291909101909101528461064f816114b9565b9550505050505b6001016103da565b5060005b818110156106bb57600083828151811061067e5761067e61148d565b602002602001015161ffff16905060008783815181106106a0576106a061148d565b60209081029190910181015101519190915250600101610662565b508085525050505090565b606060006106d26109bd565b600181015490915060008167ffffffffffffffff8111156106f5576106f56112c5565b60405190808252806020026020018201604052801561071e578160200160208202803683370190505b50935060005b828110156107d85760008460010182815481106107435761074361148d565b6000918252602080832060088304015460079092166004026101000a90910460e01b6001600160e01b031981168352908790526040909120549091506001600160a01b039081169088168190036107ce57818785815181106107a7576107a761148d565b6001600160e01b031990921660209283029190910190910152836107ca816114b9565b9450505b5050600101610724565b508352509092915050565b6000806107ee6109bd565b6001600160e01b03199093166000908152602093909352505060409020546001600160a01b031690565b60005b83518110156109725760008482815181106108385761083861148d565b6020026020010151604001519050600085838151811061085a5761085a61148d565b602002602001015160000151905081516000036108955760405163e767f91f60e01b81526001600160a01b0382166004820152602401610153565b60008684815181106108a9576108a961148d565b6020026020010151602001519050600060028111156108ca576108ca6114f3565b8160028111156108dc576108dc6114f3565b036108f0576108eb82846109f1565b610967565b6001816002811115610904576109046114f3565b03610913576108eb8284610b81565b6002816002811115610927576109276114f3565b03610936576108eb8284610ce9565b806002811115610948576109486114f3565b604051633ff4d20f60e11b815260ff9091166004820152602401610153565b50505060010161081b565b507f8faa70878671ccd212d20771b795c50af8fd3ff6cf27f4bde57e5d4de0aeb6738383836040516109a693929190611559565b60405180910390a16109b88282610f46565b505050565b6000806109eb60017fbe498a3b14fd79a48c3c9af86ff14271ed497d09071013334028d28e7791db20611623565b92915050565b6001600160a01b038216610a1a57806040516302b8da0760e21b8152600401610153919061127f565b6000610a246109bd565b9050600081600101805490509050610a54846040518060600160405280602481526020016116e86024913961100c565b60005b83518110156101a6576000848281518110610a7457610a7461148d565b6020908102919091018101516001600160e01b031981166000908152918690526040909120549091506001600160a01b03168015610ac7578160405163ebbf5d0760e01b81526004016101539190611636565b6040805180820182526001600160a01b03808a16825261ffff80881660208085019182526001600160e01b0319881660009081528b8252958620945185549251909316600160a01b026001600160b01b0319909216929093169190911717909155600180880180549182018155835291206008820401805460e085901c60046007909416939093026101000a92830263ffffffff909302191691909117905583610b70816114d2565b94505060019092019150610a579050565b6000610b8b6109bd565b90506001600160a01b038316610bb6578160405163cd98a96f60e01b8152600401610153919061127f565b610bd88360405180606001604052806028815260200161170c6028913961100c565b60005b8251811015610ce3576000838281518110610bf857610bf861148d565b6020908102919091018101516001600160e01b031981166000908152918590526040909120549091506001600160a01b0316308103610c4c5781604051632901806d60e11b81526004016101539190611636565b856001600160a01b0316816001600160a01b031603610c805781604051631ac6ce8d60e11b81526004016101539190611636565b6001600160a01b038116610ca95781604051637479f93960e01b81526004016101539190611636565b506001600160e01b031916600090815260208390526040902080546001600160a01b0319166001600160a01b038616179055600101610bdb565b50505050565b6000610cf36109bd565b60018101549091506001600160a01b03841615610d2e5760405163d091bc8160e01b81526001600160a01b0385166004820152602401610153565b60005b83518110156101a6576000848281518110610d4e57610d4e61148d565b6020908102919091018101516001600160e01b0319811660009081528683526040908190208151808301909252546001600160a01b038116808352600160a01b90910461ffff169382019390935290925090610dbf5781604051637a08a22d60e01b81526004016101539190611636565b8051306001600160a01b0390911603610ded5781604051630df5fd6160e31b81526004016101539190611636565b83610df78161164b565b94505083816020015161ffff1614610ed5576000856001018581548110610e2057610e2061148d565b90600052602060002090600891828204019190066004029054906101000a900460e01b90508086600101836020015161ffff1681548110610e6357610e6361148d565b600091825260208083206008830401805463ffffffff60079094166004026101000a938402191660e09590951c92909202939093179055838201516001600160e01b03199390931681529087905260409020805461ffff60a01b1916600160a01b61ffff909316929092029190911790555b84600101805480610ee857610ee8611662565b60008281526020808220600860001990940193840401805463ffffffff600460078716026101000a0219169055919092556001600160e01b0319909316815291859052506040902080546001600160b01b0319169055600101610d31565b6001600160a01b038216610f58575050565b610f7a826040518060600160405280602781526020016116c16027913961100c565b600080836001600160a01b031683604051610f959190611678565b600060405180830381855af49150503d8060008114610fd0576040519150601f19603f3d011682016040523d82523d6000602084013e610fd5565b606091505b509150915081610ce357805115610fef5780518082602001fd5b838360405163192105d760e01b8152600401610153929190611694565b813b60008190036109b857828260405163919834b960e01b8152600401610153929190611694565b80356001600160a01b038116811461104b57600080fd5b919050565b60008083601f84011261106257600080fd5b50813567ffffffffffffffff81111561107a57600080fd5b60208301915083602082850101111561109257600080fd5b9250929050565b6000806000806000606086880312156110b157600080fd5b853567ffffffffffffffff808211156110c957600080fd5b818801915088601f8301126110dd57600080fd5b8135818111156110ec57600080fd5b8960208260051b850101111561110157600080fd5b6020830197508096505061111760208901611034565b9450604088013591508082111561112d57600080fd5b5061113a88828901611050565b969995985093965092949392505050565b6020808252825182820181905260009190848201906040850190845b8181101561118c5783516001600160a01b031683529284019291840191600101611167565b50909695505050505050565b60008151808452602080850194506020840160005b838110156111d35781516001600160e01b031916875295820195908201906001016111ad565b509495945050505050565b600060208083018184528085518083526040925060408601915060408160051b87010184880160005b8381101561124f57888303603f19018552815180516001600160a01b0316845287015187840187905261123c87850182611198565b9588019593505090860190600101611207565b509098975050505050505050565b60006020828403121561126f57600080fd5b61127882611034565b9392505050565b6020815260006112786020830184611198565b80356001600160e01b03198116811461104b57600080fd5b6000602082840312156112bc57600080fd5b61127882611292565b634e487b7160e01b600052604160045260246000fd5b6040516060810167ffffffffffffffff811182821017156112fe576112fe6112c5565b60405290565b604051601f8201601f1916810167ffffffffffffffff8111828210171561132d5761132d6112c5565b604052919050565b600067ffffffffffffffff82111561134f5761134f6112c5565b5060051b60200190565b600061136c61136784611335565b611304565b83815260208082019190600586811b86013681111561138a57600080fd5b865b8181101561148057803567ffffffffffffffff808211156113ad5760008081fd5b818a019150606082360312156113c35760008081fd5b6113cb6112db565b6113d483611034565b815286830135600381106113e85760008081fd5b81880152604083810135838111156114005760008081fd5b939093019236601f85011261141757600092508283fd5b8335925061142761136784611335565b83815292871b840188019288810190368511156114445760008081fd5b948901945b848610156114695761145a86611292565b82529489019490890190611449565b91830191909152508852505094830194830161138c565b5092979650505050505050565b634e487b7160e01b600052603260045260246000fd5b634e487b7160e01b600052601160045260246000fd5b6000600182016114cb576114cb6114a3565b5060010190565b600061ffff8083168181036114e9576114e96114a3565b6001019392505050565b634e487b7160e01b600052602160045260246000fd5b60005b8381101561152457818101518382015260200161150c565b50506000910152565b60008151808452611545816020860160208601611509565b601f01601f19169290920160200192915050565b600060608083016060845280875180835260808601915060808160051b87010192506020808a016000805b848110156115f357898703607f19018652825180516001600160a01b0316885284810151600381106115c457634e487b7160e01b84526021600452602484fd5b888601526040908101519088018990526115e089890182611198565b9750509483019491830191600101611584565b5050506001600160a01b0389169087015250508381036040850152611618818661152d565b979650505050505050565b818103818111156109eb576109eb6114a3565b6001600160e01b031991909116815260200190565b60008161165a5761165a6114a3565b506000190190565b634e487b7160e01b600052603160045260246000fd5b6000825161168a818460208701611509565b9190910192915050565b6001600160a01b03831681526040602082018190526000906116b89083018461152d565b94935050505056fe4469616d6f6e644375744c69623a20696e6974206164647265737320686173206e6f20636f64654469616d6f6e644375744c69623a2041646420666163657420686173206e6f20636f64654469616d6f6e644375744c69623a205265706c61636520666163657420686173206e6f20636f6465a2646970667358221220dda2270f120eefd84ce7041d637e102bb50a7c2934777c991e7456eef9f15a4164736f6c63430008180033608060405234801561001057600080fd5b5061025d806100206000396000f3fe608060405234801561001057600080fd5b50600436106100415760003560e01c806301ffc9a7146100465780638da5cb5b146100a7578063f2fde38b146100e1575b600080fd5b6100926100543660046101cd565b6001600160e01b03191660009081527f8f7e2d929645ca415c0682921b343d96410da360ea90cf9706c3d0606a2b2332602052604090205460ff1690565b60405190151581526020015b60405180910390f35b7f02dbc36a11ad69a7efd36e6fc5553942b2a3c7757978bf89807fea8d8cdf5a8b546040516001600160a01b03909116815260200161009e565b6100f46100ef3660046101fe565b6100f6565b005b7f02dbc36a11ad69a7efd36e6fc5553942b2a3c7757978bf89807fea8d8cdf5a8b546001600160a01b031633146101625760405162461bcd60e51b815260206004820152600c60248201526b15539055551213d49256915160a21b604482015260640160405180910390fd5b7f02dbc36a11ad69a7efd36e6fc5553942b2a3c7757978bf89807fea8d8cdf5a8b80546001600160a01b0319166001600160a01b03831690811790915560405133907f8be0079c531659141344cd1fd0a4f28419497f9722a3daafe3b4186f6b6457e090600090a350565b6000602082840312156101df57600080fd5b81356001600160e01b0319811681146101f757600080fd5b9392505050565b60006020828403121561021057600080fd5b81356001600160a01b03811681146101f757600080fdfea26469706673582212207b69fe1fa52bfbf5d9a6b8b4ff9302dc52f62128e6261e7bee4d081fcb01322464736f6c63430008180033608060405234801561001057600080fd5b50610451806100206000396000f3fe608060405234801561001057600080fd5b50600436106100365760003560e01c806354fd4d501461003b5780637240f9af14610059575b600080fd5b61004361006e565b60405161005091906101ba565b60405180910390f35b61006c61006736600461021f565b61011f565b005b60607f4e2233778b671af2981edbe5a66d9b9fc5dc2f90bcdf4857e553374b54c99f97805461009c906102d0565b80601f01602080910402602001604051908101604052809291908181526020018280546100c8906102d0565b80156101155780601f106100ea57610100808354040283529160200191610115565b820191906000526020600020905b8154815290600101906020018083116100f857829003601f168201915b5050505050905090565b7f02dbc36a11ad69a7efd36e6fc5553942b2a3c7757978bf89807fea8d8cdf5a8b546001600160a01b0316331461018b5760405162461bcd60e51b815260206004820152600c60248201526b15539055551213d49256915160a21b604482015260640160405180910390fd5b7f4e2233778b671af2981edbe5a66d9b9fc5dc2f90bcdf4857e553374b54c99f976101b6828261035b565b5050565b60006020808352835180602085015260005b818110156101e8578581018301518582016040015282016101cc565b506000604082860101526040601f19601f8301168501019250505092915050565b634e487b7160e01b600052604160045260246000fd5b60006020828403121561023157600080fd5b813567ffffffffffffffff8082111561024957600080fd5b818401915084601f83011261025d57600080fd5b81358181111561026f5761026f610209565b604051601f8201601f19908116603f0116810190838211818310171561029757610297610209565b816040528281528760208487010111156102b057600080fd5b826020860160208301376000928101602001929092525095945050505050565b600181811c908216806102e457607f821691505b60208210810361030457634e487b7160e01b600052602260045260246000fd5b50919050565b601f821115610356576000816000526020600020601f850160051c810160208610156103335750805b601f850160051c820191505b818110156103525782815560010161033f565b5050505b505050565b815167ffffffffffffffff81111561037557610375610209565b6103898161038384546102d0565b8461030a565b602080601f8311600181146103be57600084156103a65750858301515b600019600386901b1c1916600185901b178555610352565b600085815260208120601f198616915b828110156103ed578886015182559484019460019091019084016103ce565b508582101561040b5787850151600019600388901b60f8161c191681555b5050505050600190811b0190555056fea26469706673582212206f64de4835e4a0469b2fb7d889f2d5d3ca8dff09d5f701208d0852c04715966864736f6c6343000818003360806040523480156200001157600080fd5b5060405162001f6138038062001f618339810160408190526200003491620001b7565b82828282826003620000478382620002d5565b506004620000568282620002d5565b50506005805460ff191690555060016008556001600160a01b038116620000905760405163d92e233d60e01b815260040160405180910390fd5b600680546001600160a01b0383166001600160a01b0319918216811790925560078054909116821790556040517f190d181faa359c0408a05fed34ab1914753b07b5c54422b772d67a30206408ce90600090a2505050505050620003a1565b634e487b7160e01b600052604160045260246000fd5b600082601f8301126200011757600080fd5b81516001600160401b0380821115620001345762000134620000ef565b604051601f8301601f19908116603f011681019082821181831017156200015f576200015f620000ef565b81604052838152602092508660208588010111156200017d57600080fd5b600091505b83821015620001a1578582018301518183018401529082019062000182565b6000602085830101528094505050505092915050565b600080600060608486031215620001cd57600080fd5b83516001600160401b0380821115620001e557600080fd5b620001f38783880162000105565b945060208601519150808211156200020a57600080fd5b50620002198682870162000105565b604086015190935090506001600160a01b03811681146200023957600080fd5b809150509250925092565b600181811c908216806200025957607f821691505b6020821081036200027a57634e487b7160e01b600052602260045260246000fd5b50919050565b601f821115620002d0576000816000526020600020601f850160051c81016020861015620002ab5750805b601f850160051c820191505b81811015620002cc57828155600101620002b7565b5050505b505050565b81516001600160401b03811115620002f157620002f1620000ef565b620003098162000302845462000244565b8462000280565b602080601f831160018114620003415760008415620003285750858301515b600019600386901b1c1916600185901b178555620002cc565b600085815260208120601f198616915b82811015620003725788860151825594840194600190910190840162000351565b5085821015620003915787850151600019600388901b60f8161c191681555b5050505050600190811b01905550565b611bb080620003b16000396000f3fe608060405234801561001057600080fd5b506004361061018e5760003560e01c80635cffe9de116100de5780638456cb5911610097578063a9059cbb11610071578063a9059cbb14610346578063cdccb27a14610359578063d9d98ce414610361578063dd62ed3e1461037457600080fd5b80638456cb591461032357806395d89b411461032b578063a457c2d71461033357600080fd5b80635cffe9de1461029d578063613255ab146102b05780636f9c83b8146102c357806370a08231146102d457806371af85e0146102fd57806379cc67901461031057600080fd5b8063313ce5671161014b57806340c10f191161012557806340c10f191461024757806342966c681461025a5780634c3300771461026d5780635c975abb1461029257600080fd5b8063313ce5671461021d578063395093511461022c5780633f4ba83a1461023f57600080fd5b806301ffc9a71461019357806306fdde03146101bb578063095ea7b3146101d057806311280cb5146101e357806318160ddd146101f857806323b872dd1461020a575b600080fd5b6101a66101a13660046116db565b610387565b60405190151581526020015b60405180910390f35b6101c36103be565b6040516101b29190611705565b6101a66101de366004611769565b610450565b6101f66101f1366004611795565b610468565b005b6002545b6040519081526020016101b2565b6101a66102183660046117b2565b610579565b604051601281526020016101b2565b6101a661023a366004611769565b610799565b6101f66107bb565b6101f6610255366004611769565b610887565b6101f66102683660046117f3565b610891565b6006546001600160a01b03165b6040516001600160a01b0390911681526020016101b2565b60055460ff166101a6565b6101a66102ab36600461180c565b61089e565b6101fc6102be366004611795565b6108fa565b6009546001600160a01b031661027a565b6101fc6102e2366004611795565b6001600160a01b031660009081526020819052604090205490565b6101f661030b366004611795565b610922565b6101f661031e366004611769565b610a58565b6101f6610a6d565b6101c3610b35565b6101a6610341366004611769565b610b44565b6101a6610354366004611769565b610bca565b6101f6610df7565b6101fc61036f366004611769565b610e97565b6101fc6103823660046118ab565b610ef8565b60006001600160e01b031982166336372b0760e01b14806103b857506301ffc9a760e01b6001600160e01b03198316145b92915050565b6060600380546103cd906118e4565b80601f01602080910402602001604051908101604052809291908181526020018280546103f9906118e4565b80156104465780601f1061041b57610100808354040283529160200191610446565b820191906000526020600020905b81548152906001019060200180831161042957829003601f168201915b5050505050905090565b60003361045e818585610f23565b5060019392505050565b6006546001600160a01b031680610492576040516371724ffd60e01b815260040160405180910390fd5b806001600160a01b03811663c3c2ebbb336040516001600160e01b031960e084901b1681526001600160a01b039091166004820152602401602060405180830381865afa1580156104e7573d6000803e3d6000fd5b505050506040513d601f19601f8201168201806040525081019061050b919061191e565b6105285760405163ba80c9e560e01b815260040160405180910390fd5b6001600160a01b03831661054f5760405163d92e233d60e01b815260040160405180910390fd5b5050600580546001600160a01b0390921661010002610100600160a81b0319909216919091179055565b6000610583611048565b3361058f8582856110a1565b600960009054906101000a90046001600160a01b03166001600160a01b031663e43504da6040518163ffffffff1660e01b8152600401602060405180830381865afa1580156105e2573d6000803e3d6000fd5b505050506040513d601f19601f82011682018060405250810190610606919061191e565b156107785760095460609081906000906001600160a01b031663d7f2400f89610644816001600160a01b031660009081526020819052604090205490565b6040516001600160e01b031960e085901b1681526001600160a01b0390921660048301526024820152604401600060405180830381865afa15801561068d573d6000803e3d6000fd5b505050506040513d6000823e601f3d908101601f191682016040526106b59190810190611a2a565b909350915060005b82518110156107675760008382815181106106da576106da611aef565b602002602001015160020b131561075f57600061271084838151811061070257610702611aef565b602002602001015162ffffff168961071a9190611b1b565b6107249190611b32565b9050801561075d576107508a86848151811061074257610742611aef565b60200260200101518361111b565b61075a8184611b54565b92505b505b6001016106bd565b506107728187611b67565b95505050505b61078385858561111b565b60019150506107926001600855565b9392505050565b60003361045e8185856107ac8383610ef8565b6107b69190611b54565b610f23565b6006546001600160a01b0316806107e5576040516371724ffd60e01b815260040160405180910390fd5b806001600160a01b03811663c3c2ebbb336040516001600160e01b031960e084901b1681526001600160a01b039091166004820152602401602060405180830381865afa15801561083a573d6000803e3d6000fd5b505050506040513d601f19601f8201168201806040525081019061085e919061191e565b61087b5760405163ba80c9e560e01b815260040160405180910390fd5b6108836112ca565b5050565b610883828261131c565b61089b33826113e7565b50565b60405162461bcd60e51b815260206004820152602360248201527f466c6173686c6f616e73206e6f7420616c6c6f77656420617420746869732074604482015262696d6560e81b60648201526000906084015b60405180910390fd5b60006001600160a01b03821630146109135760006103b8565b6002546103b890600019611b67565b6006546001600160a01b03168061094c576040516371724ffd60e01b815260040160405180910390fd5b806001600160a01b03811663c3c2ebbb336040516001600160e01b031960e084901b1681526001600160a01b039091166004820152602401602060405180830381865afa1580156109a1573d6000803e3d6000fd5b505050506040513d601f19601f820116820180604052508101906109c5919061191e565b6109e25760405163ba80c9e560e01b815260040160405180910390fd5b6001600160a01b038316610a095760405163d92e233d60e01b815260040160405180910390fd5b600980546001600160a01b0319166001600160a01b0385169081179091556040513091907f9a2cdaf1a28a88ccd359d6abc6a27d4856d16459aafb0aae34c1296bab5b63fb90600090a3505050565b610a638233836110a1565b61088382826113e7565b6006546001600160a01b031680610a97576040516371724ffd60e01b815260040160405180910390fd5b806001600160a01b03811663c3c2ebbb336040516001600160e01b031960e084901b1681526001600160a01b039091166004820152602401602060405180830381865afa158015610aec573d6000803e3d6000fd5b505050506040513d601f19601f82011682018060405250810190610b10919061191e565b610b2d5760405163ba80c9e560e01b815260040160405180910390fd5b61088361151d565b6060600480546103cd906118e4565b60003381610b528286610ef8565b905083811015610bb25760405162461bcd60e51b815260206004820152602560248201527f45524332303a2064656372656173656420616c6c6f77616e63652062656c6f77604482015264207a65726f60d81b60648201526084016108f1565b610bbf8286868403610f23565b506001949350505050565b6000610bd4611048565b6009546040805163721a826d60e11b8152905133926001600160a01b03169163e43504da9160048083019260209291908290030181865afa158015610c1d573d6000803e3d6000fd5b505050506040513d601f19601f82011682018060405250810190610c41919061191e565b15610ddd5760095460609081906000906001600160a01b031663d7f2400f85610c7f816001600160a01b031660009081526020819052604090205490565b6040516001600160e01b031960e085901b1681526001600160a01b0390921660048301526024820152604401600060405180830381865afa158015610cc8573d6000803e3d6000fd5b505050506040513d6000823e601f3d908101601f19168201604052610cf09190810190611a2a565b909350915060005b8251811015610dcc576000838281518110610d1557610d15611aef565b602002602001015160020b1315610dc457610d8085858381518110610d3c57610d3c611aef565b6020026020010151612710868581518110610d5957610d59611aef565b602002602001015162ffffff168b610d719190611b1b565b610d7b9190611b32565b61111b565b612710838281518110610d9557610d95611aef565b602002602001015162ffffff1688610dad9190611b1b565b610db79190611b32565b610dc19083611b54565b91505b600101610cf8565b50610dd78187611b67565b95505050505b610de881858561111b565b60019150506103b86001600855565b60055461010090046001600160a01b0316610e255760405163821e0eeb60e01b815260040160405180910390fd5b60055461010090046001600160a01b03163314610e5557604051634128496760e01b815260040160405180910390fd5b600580546006805461010083046001600160a01b03166001600160a01b03199182168117909255600780549091169091179055610100600160a81b0319169055565b60006001600160a01b0383163014610ef15760405162461bcd60e51b815260206004820152601b60248201527f4552433230466c6173684d696e743a2077726f6e6720746f6b656e000000000060448201526064016108f1565b6000610792565b6001600160a01b03918216600090815260016020908152604080832093909416825291909152205490565b6001600160a01b038316610f855760405162461bcd60e51b8152602060048201526024808201527f45524332303a20617070726f76652066726f6d20746865207a65726f206164646044820152637265737360e01b60648201526084016108f1565b6001600160a01b038216610fe65760405162461bcd60e51b815260206004820152602260248201527f45524332303a20617070726f766520746f20746865207a65726f206164647265604482015261737360f01b60648201526084016108f1565b6001600160a01b0383811660008181526001602090815260408083209487168084529482529182902085905590518481527f8c5be1e5ebec7d5bd14f71427d1e84f3dd0314c0f7b2291e5b200ac8c7c3b92591015b60405180910390a3505050565b60026008540361109a5760405162461bcd60e51b815260206004820152601f60248201527f5265656e7472616e637947756172643a207265656e7472616e742063616c6c0060448201526064016108f1565b6002600855565b60006110ad8484610ef8565b9050600019811461111557818110156111085760405162461bcd60e51b815260206004820152601d60248201527f45524332303a20696e73756666696369656e7420616c6c6f77616e636500000060448201526064016108f1565b6111158484848403610f23565b50505050565b6001600160a01b03831661117f5760405162461bcd60e51b815260206004820152602560248201527f45524332303a207472616e736665722066726f6d20746865207a65726f206164604482015264647265737360d81b60648201526084016108f1565b6001600160a01b0382166111e15760405162461bcd60e51b815260206004820152602360248201527f45524332303a207472616e7366657220746f20746865207a65726f206164647260448201526265737360e81b60648201526084016108f1565b6111ec83838361155a565b6001600160a01b038316600090815260208190526040902054818110156112645760405162461bcd60e51b815260206004820152602660248201527f45524332303a207472616e7366657220616d6f756e7420657863656564732062604482015265616c616e636560d01b60648201526084016108f1565b6001600160a01b03848116600081815260208181526040808320878703905593871680835291849020805487019055925185815290927fddf252ad1be2c89b69c2b068fc378daa952ba7f163c4a11628f55a4df523b3ef910160405180910390a3611115565b6112d261164a565b6005805460ff191690557f5db9ee0a495bf2e6ff9c91a7834c1ba4fdd244a5e8aa4e537bd38aeae4b073aa335b6040516001600160a01b03909116815260200160405180910390a1565b6001600160a01b0382166113725760405162461bcd60e51b815260206004820152601f60248201527f45524332303a206d696e7420746f20746865207a65726f20616464726573730060448201526064016108f1565b61137e6000838361155a565b80600260008282546113909190611b54565b90915550506001600160a01b038216600081815260208181526040808320805486019055518481527fddf252ad1be2c89b69c2b068fc378daa952ba7f163c4a11628f55a4df523b3ef910160405180910390a35050565b6001600160a01b0382166114475760405162461bcd60e51b815260206004820152602160248201527f45524332303a206275726e2066726f6d20746865207a65726f206164647265736044820152607360f81b60648201526084016108f1565b6114538260008361155a565b6001600160a01b038216600090815260208190526040902054818110156114c75760405162461bcd60e51b815260206004820152602260248201527f45524332303a206275726e20616d6f756e7420657863656564732062616c616e604482015261636560f01b60648201526084016108f1565b6001600160a01b0383166000818152602081815260408083208686039055600280548790039055518581529192917fddf252ad1be2c89b69c2b068fc378daa952ba7f163c4a11628f55a4df523b3ef910161103b565b611525611695565b6005805460ff191660011790557f62e78cea01bee320cd4e420270b5ea74000d11b0c9f74754ebdbfc544b05a2586112ff3390565b611562611695565b6009546001600160a01b031663e802b523611592856001600160a01b031660009081526020819052604090205490565b6001600160a01b0385166000908152602081905260409020548686336040516001600160e01b031960e088901b168152600481019590955260248501939093526001600160a01b0391821660448501528116606484015216608482015260a4810184905260c4016020604051808303816000875af1158015611618573d6000803e3d6000fd5b505050506040513d601f19601f8201168201806040525081019061163c919061191e565b61164557600080fd5b505050565b60055460ff166116935760405162461bcd60e51b815260206004820152601460248201527314185d5cd8589b194e881b9bdd081c185d5cd95960621b60448201526064016108f1565b565b60055460ff16156116935760405162461bcd60e51b815260206004820152601060248201526f14185d5cd8589b194e881c185d5cd95960821b60448201526064016108f1565b6000602082840312156116ed57600080fd5b81356001600160e01b03198116811461079257600080fd5b60006020808352835180602085015260005b8181101561173357858101830151858201604001528201611717565b506000604082860101526040601f19601f8301168501019250505092915050565b6001600160a01b038116811461089b57600080fd5b6000806040838503121561177c57600080fd5b823561178781611754565b946020939093013593505050565b6000602082840312156117a757600080fd5b813561079281611754565b6000806000606084860312156117c757600080fd5b83356117d281611754565b925060208401356117e281611754565b929592945050506040919091013590565b60006020828403121561180557600080fd5b5035919050565b60008060008060006080868803121561182457600080fd5b853561182f81611754565b9450602086013561183f81611754565b935060408601359250606086013567ffffffffffffffff8082111561186357600080fd5b818801915088601f83011261187757600080fd5b81358181111561188657600080fd5b89602082850101111561189857600080fd5b9699959850939650602001949392505050565b600080604083850312156118be57600080fd5b82356118c981611754565b915060208301356118d981611754565b809150509250929050565b600181811c908216806118f857607f821691505b60208210810361191857634e487b7160e01b600052602260045260246000fd5b50919050565b60006020828403121561193057600080fd5b8151801515811461079257600080fd5b634e487b7160e01b600052604160045260246000fd5b604051601f8201601f1916810167ffffffffffffffff8111828210171561197f5761197f611940565b604052919050565b600067ffffffffffffffff8211156119a1576119a1611940565b5060051b60200190565b600082601f8301126119bc57600080fd5b815160206119d16119cc83611987565b611956565b8083825260208201915060208460051b8701019350868411156119f357600080fd5b602086015b84811015611a1f5780518060020b8114611a125760008081fd5b83529183019183016119f8565b509695505050505050565b60008060408385031215611a3d57600080fd5b825167ffffffffffffffff80821115611a5557600080fd5b818501915085601f830112611a6957600080fd5b81516020611a796119cc83611987565b82815260059290921b84018101918181019089841115611a9857600080fd5b948201945b83861015611abf578551611ab081611754565b82529482019490820190611a9d565b91880151919650909350505080821115611ad857600080fd5b50611ae5858286016119ab565b9150509250929050565b634e487b7160e01b600052603260045260246000fd5b634e487b7160e01b600052601160045260246000fd5b80820281158282048414176103b8576103b8611b05565b600082611b4f57634e487b7160e01b600052601260045260246000fd5b500490565b808201808211156103b8576103b8611b05565b818103818111156103b8576103b8611b0556fea26469706673582212204b2b810c5dd7d5ececa1ef78fa97cf0392bb59993cce07560cce29a6f1ce22ee64736f6c6343000818003360806040523480156200001157600080fd5b50604051620013ef380380620013ef8339810160408190526200003491620001a2565b82826003620000448382620002c0565b506004620000538282620002c0565b5050506001600160a01b0381166200007e5760405163d92e233d60e01b815260040160405180910390fd5b600680546001600160a01b0383166001600160a01b0319918216811790925560078054909116821790556040517f190d181faa359c0408a05fed34ab1914753b07b5c54422b772d67a30206408ce90600090a25050506200038c565b634e487b7160e01b600052604160045260246000fd5b600082601f8301126200010257600080fd5b81516001600160401b03808211156200011f576200011f620000da565b604051601f8301601f19908116603f011681019082821181831017156200014a576200014a620000da565b81604052838152602092508660208588010111156200016857600080fd5b600091505b838210156200018c57858201830151818301840152908201906200016d565b6000602085830101528094505050505092915050565b600080600060608486031215620001b857600080fd5b83516001600160401b0380821115620001d057600080fd5b620001de87838801620000f0565b94506020860151915080821115620001f557600080fd5b506200020486828701620000f0565b604086015190935090506001600160a01b03811681146200022457600080fd5b809150509250925092565b600181811c908216806200024457607f821691505b6020821081036200026557634e487b7160e01b600052602260045260246000fd5b50919050565b601f821115620002bb576000816000526020600020601f850160051c81016020861015620002965750805b601f850160051c820191505b81811015620002b757828155600101620002a2565b5050505b505050565b81516001600160401b03811115620002dc57620002dc620000da565b620002f481620002ed84546200022f565b846200026b565b602080601f8311600181146200032c5760008415620003135750858301515b600019600386901b1c1916600185901b178555620002b7565b600085815260208120601f198616915b828110156200035d578886015182559484019460019091019084016200033c565b50858210156200037c5787850151600019600388901b60f8161c191681555b5050505050600190811b01905550565b611053806200039c6000396000f3fe608060405234801561001057600080fd5b50600436106101215760003560e01c80634c330077116100ad57806395d89b411161007157806395d89b411461026e578063a457c2d714610276578063a9059cbb14610289578063cdccb27a1461029c578063dd62ed3e146102a457600080fd5b80634c330077146101e95780636f9c83b81461020e57806370a082311461021f57806371af85e01461024857806379cc67901461025b57600080fd5b806323b872dd116100f457806323b872dd1461018e578063313ce567146101a157806339509351146101b057806340c10f19146101c357806342966c68146101d657600080fd5b806306fdde0314610126578063095ea7b31461014457806311280cb51461016757806318160ddd1461017c575b600080fd5b61012e6102b7565b60405161013b9190610e61565b60405180910390f35b610157610152366004610ecc565b610349565b604051901515815260200161013b565b61017a610175366004610ef6565b610363565b005b6002545b60405190815260200161013b565b61015761019c366004610f18565b61046e565b6040516012815260200161013b565b6101576101be366004610ecc565b610492565b61017a6101d1366004610ecc565b6104b4565b61017a6101e4366004610f54565b610584565b6006546001600160a01b03165b6040516001600160a01b03909116815260200161013b565b6008546001600160a01b03166101f6565b61018061022d366004610ef6565b6001600160a01b031660009081526020819052604090205490565b61017a610256366004610ef6565b610591565b61017a610269366004610ecc565b6106c7565b61012e6106e0565b610157610284366004610ecc565b6106ef565b610157610297366004610ecc565b61076f565b61017a61077d565b6101806102b2366004610f6d565b610805565b6060600380546102c690610fa0565b80601f01602080910402602001604051908101604052809291908181526020018280546102f290610fa0565b801561033f5780601f106103145761010080835404028352916020019161033f565b820191906000526020600020905b81548152906001019060200180831161032257829003601f168201915b5050505050905090565b600033610357818585610830565b60019150505b92915050565b6006546001600160a01b03168061038d576040516371724ffd60e01b815260040160405180910390fd5b806001600160a01b03811663c3c2ebbb336040516001600160e01b031960e084901b1681526001600160a01b039091166004820152602401602060405180830381865afa1580156103e2573d6000803e3d6000fd5b505050506040513d601f19601f820116820180604052508101906104069190610fda565b6104235760405163ba80c9e560e01b815260040160405180910390fd5b6001600160a01b03831661044a5760405163d92e233d60e01b815260040160405180910390fd5b5050600580546001600160a01b0319166001600160a01b0392909216919091179055565b60003361047c858285610955565b6104878585856109c9565b506001949350505050565b6000336103578185856104a58383610805565b6104af9190610ffc565b610830565b6006546001600160a01b0316806104de576040516371724ffd60e01b815260040160405180910390fd5b806001600160a01b03811663c3c2ebbb336040516001600160e01b031960e084901b1681526001600160a01b039091166004820152602401602060405180830381865afa158015610533573d6000803e3d6000fd5b505050506040513d601f19601f820116820180604052508101906105579190610fda565b6105745760405163ba80c9e560e01b815260040160405180910390fd5b61057e8484610b78565b50505050565b61058e3382610c43565b50565b6006546001600160a01b0316806105bb576040516371724ffd60e01b815260040160405180910390fd5b806001600160a01b03811663c3c2ebbb336040516001600160e01b031960e084901b1681526001600160a01b039091166004820152602401602060405180830381865afa158015610610573d6000803e3d6000fd5b505050506040513d601f19601f820116820180604052508101906106349190610fda565b6106515760405163ba80c9e560e01b815260040160405180910390fd5b6001600160a01b0383166106785760405163d92e233d60e01b815260040160405180910390fd5b600880546001600160a01b0319166001600160a01b0385169081179091556040513091907f9a2cdaf1a28a88ccd359d6abc6a27d4856d16459aafb0aae34c1296bab5b63fb90600090a3505050565b6106d2823383610955565b6106dc8282610c43565b5050565b6060600480546102c690610fa0565b600033816106fd8286610805565b9050838110156107625760405162461bcd60e51b815260206004820152602560248201527f45524332303a2064656372656173656420616c6c6f77616e63652062656c6f77604482015264207a65726f60d81b60648201526084015b60405180910390fd5b6104878286868403610830565b6000336103578185856109c9565b6005546001600160a01b03166107a65760405163821e0eeb60e01b815260040160405180910390fd5b6005546001600160a01b031633146107d157604051634128496760e01b815260040160405180910390fd5b60058054600680546001600160a01b0383166001600160a01b03199182168117909255600780548216909217909155169055565b6001600160a01b03918216600090815260016020908152604080832093909416825291909152205490565b6001600160a01b0383166108925760405162461bcd60e51b8152602060048201526024808201527f45524332303a20617070726f76652066726f6d20746865207a65726f206164646044820152637265737360e01b6064820152608401610759565b6001600160a01b0382166108f35760405162461bcd60e51b815260206004820152602260248201527f45524332303a20617070726f766520746f20746865207a65726f206164647265604482015261737360f01b6064820152608401610759565b6001600160a01b0383811660008181526001602090815260408083209487168084529482529182902085905590518481527f8c5be1e5ebec7d5bd14f71427d1e84f3dd0314c0f7b2291e5b200ac8c7c3b92591015b60405180910390a3505050565b60006109618484610805565b9050600019811461057e57818110156109bc5760405162461bcd60e51b815260206004820152601d60248201527f45524332303a20696e73756666696369656e7420616c6c6f77616e63650000006044820152606401610759565b61057e8484848403610830565b6001600160a01b038316610a2d5760405162461bcd60e51b815260206004820152602560248201527f45524332303a207472616e736665722066726f6d20746865207a65726f206164604482015264647265737360d81b6064820152608401610759565b6001600160a01b038216610a8f5760405162461bcd60e51b815260206004820152602360248201527f45524332303a207472616e7366657220746f20746865207a65726f206164647260448201526265737360e81b6064820152608401610759565b610a9a838383610d79565b6001600160a01b03831660009081526020819052604090205481811015610b125760405162461bcd60e51b815260206004820152602660248201527f45524332303a207472616e7366657220616d6f756e7420657863656564732062604482015265616c616e636560d01b6064820152608401610759565b6001600160a01b03848116600081815260208181526040808320878703905593871680835291849020805487019055925185815290927fddf252ad1be2c89b69c2b068fc378daa952ba7f163c4a11628f55a4df523b3ef910160405180910390a361057e565b6001600160a01b038216610bce5760405162461bcd60e51b815260206004820152601f60248201527f45524332303a206d696e7420746f20746865207a65726f2061646472657373006044820152606401610759565b610bda60008383610d79565b8060026000828254610bec9190610ffc565b90915550506001600160a01b038216600081815260208181526040808320805486019055518481527fddf252ad1be2c89b69c2b068fc378daa952ba7f163c4a11628f55a4df523b3ef910160405180910390a35050565b6001600160a01b038216610ca35760405162461bcd60e51b815260206004820152602160248201527f45524332303a206275726e2066726f6d20746865207a65726f206164647265736044820152607360f81b6064820152608401610759565b610caf82600083610d79565b6001600160a01b03821660009081526020819052604090205481811015610d235760405162461bcd60e51b815260206004820152602260248201527f45524332303a206275726e20616d6f756e7420657863656564732062616c616e604482015261636560f01b6064820152608401610759565b6001600160a01b0383166000818152602081815260408083208686039055600280548790039055518581529192917fddf252ad1be2c89b69c2b068fc378daa952ba7f163c4a11628f55a4df523b3ef9101610948565b6008546001600160a01b031663e802b523610da9856001600160a01b031660009081526020819052604090205490565b6001600160a01b0385166000908152602081905260409020548686336040516001600160e01b031960e088901b168152600481019590955260248501939093526001600160a01b0391821660448501528116606484015216608482015260a4810184905260c4016020604051808303816000875af1158015610e2f573d6000803e3d6000fd5b505050506040513d601f19601f82011682018060405250810190610e539190610fda565b610e5c57600080fd5b505050565b60006020808352835180602085015260005b81811015610e8f57858101830151858201604001528201610e73565b506000604082860101526040601f19601f8301168501019250505092915050565b80356001600160a01b0381168114610ec757600080fd5b919050565b60008060408385031215610edf57600080fd5b610ee883610eb0565b946020939093013593505050565b600060208284031215610f0857600080fd5b610f1182610eb0565b9392505050565b600080600060608486031215610f2d57600080fd5b610f3684610eb0565b9250610f4460208501610eb0565b9150604084013590509250925092565b600060208284031215610f6657600080fd5b5035919050565b60008060408385031215610f8057600080fd5b610f8983610eb0565b9150610f9760208401610eb0565b90509250929050565b600181811c90821680610fb457607f821691505b602082108103610fd457634e487b7160e01b600052602260045260246000fd5b50919050565b600060208284031215610fec57600080fd5b81518015158114610f1157600080fd5b8082018082111561035d57634e487b7160e01b600052601160045260246000fdfea26469706673582212202af68e8a840059b5938d1d70f1a86405bf8c255414bee7c98b46052befb78b6164736f6c6343000818003360a060405234801561001057600080fd5b50604051610e0a380380610e0a83398101604081905261002f916100a4565b8061003933610054565b6001600160a01b031660805261004e81610054565b506100d4565b600080546001600160a01b038381166001600160a01b0319831681178455604051919092169283917f8be0079c531659141344cd1fd0a4f28419497f9722a3daafe3b4186f6b6457e09190a35050565b6000602082840312156100b657600080fd5b81516001600160a01b03811681146100cd57600080fd5b9392505050565b608051610cf861011260003960008181610202015281816102b6015281816102fd015281816103e10152818161069e01526106e50152610cf86000f3fe608060405234801561001057600080fd5b50600436106100ea5760003560e01c806390d5a92c1161008c578063bd9b6d8611610066578063bd9b6d86146101f5578063d3d24c9b146101fd578063dc08706d14610224578063f2fde38b1461025057600080fd5b806390d5a92c146101bc57806398575614146101cf578063b5ed298a146101e257600080fd5b806354fd4d50116100c857806354fd4d501461012a578063715018a61461015a57806376dd110f146101625780638da5cb5b1461019757600080fd5b80630daf978e146100ef5780631bf974f3146101045780634d98c79e14610117575b600080fd5b6101026100fd3660046109a4565b610263565b005b6101026101123660046109c6565b6102b4565b610102610125366004610ad9565b61044c565b60408051808201825260058152640312e312e360dc1b602082015290516101519190610b9b565b60405180910390f35b6101026104ca565b6101856101703660046109a4565b60036020526000908152604090205460ff1681565b60405160ff9091168152602001610151565b6000546001600160a01b03165b6040516001600160a01b039091168152602001610151565b6101026101ca366004610bea565b6104de565b6101026101dd366004610c38565b6105e3565b6101026101f03660046109a4565b61069c565b6101026107fc565b6101a47f000000000000000000000000000000000000000000000000000000000000000081565b6101856102323660046109a4565b6001600160a01b031660009081526003602052604090205460ff1690565b61010261025e3660046109a4565b610865565b61026b6108de565b6001600160a01b038116600081815260036020526040808220805460ff19169055517f21bb12bd10a218d68f0503025a9b700b4f3b7f84911a732adfe38e1c83b600439190a250565b7f00000000000000000000000000000000000000000000000000000000000000006001600160a01b03166102fb576040516371724ffd60e01b815260040160405180910390fd5b7f00000000000000000000000000000000000000000000000000000000000000006001600160a01b03811663c3c2ebbb336040516001600160e01b031960e084901b1681526001600160a01b039091166004820152602401602060405180830381865afa158015610370573d6000803e3d6000fd5b505050506040513d601f19601f820116820180604052508101906103949190610c62565b1580156103ac57506000546001600160a01b03163314155b156103ca5760405163054f3a3160e31b815260040160405180910390fd5b604051632b124b7960e01b81526001600160a01b037f00000000000000000000000000000000000000000000000000000000000000001690632b124b7990610416908590600401610c84565b600060405180830381600087803b15801561043057600080fd5b505af1158015610444573d6000803e3d6000fd5b505050505050565b6104546108de565b81518151146104755760405162514d8b60e31b815260040160405180910390fd5b60005b82518110156104c5576104bd83828151811061049657610496610cac565b60200260200101518383815181106104b0576104b0610cac565b60200260200101516105e3565b600101610478565b505050565b6104d26108de565b6104dc6000610938565b565b6104e66108de565b606460ff821611156105155760405163b3cbc6f360e01b815260ff821660048201526024015b60405180910390fd5b60005b82518110156104c557816003600085848151811061053857610538610cac565b60200260200101516001600160a01b03166001600160a01b0316815260200190815260200160002060006101000a81548160ff021916908360ff16021790555082818151811061058a5761058a610cac565b60200260200101516001600160a01b03167fd668a759494e00d1fde4393bb06c8012cfbbcc06aaf0522589c76c13eb23208f836040516105d3919060ff91909116815260200190565b60405180910390a2600101610518565b6105eb6108de565b606460ff821611156106155760405163b3cbc6f360e01b815260ff8216600482015260240161050c565b6001600160a01b03821661063c5760405163d92e233d60e01b815260040160405180910390fd5b6001600160a01b038216600081815260036020908152604091829020805460ff191660ff861690811790915591519182527fd668a759494e00d1fde4393bb06c8012cfbbcc06aaf0522589c76c13eb23208f910160405180910390a25050565b7f00000000000000000000000000000000000000000000000000000000000000006001600160a01b03166106e3576040516371724ffd60e01b815260040160405180910390fd5b7f00000000000000000000000000000000000000000000000000000000000000006001600160a01b03811663c3c2ebbb336040516001600160e01b031960e084901b1681526001600160a01b039091166004820152602401602060405180830381865afa158015610758573d6000803e3d6000fd5b505050506040513d601f19601f8201168201806040525081019061077c9190610c62565b15801561079457506000546001600160a01b03163314155b156107b25760405163054f3a3160e31b815260040160405180910390fd5b6001600160a01b0382166107d95760405163d92e233d60e01b815260040160405180910390fd5b50600180546001600160a01b0319166001600160a01b0392909216919091179055565b6001546001600160a01b03166108255760405163821e0eeb60e01b815260040160405180910390fd5b6001546001600160a01b0316331461085057604051634128496760e01b815260040160405180910390fd5b6001546104dc906001600160a01b0316610938565b61086d6108de565b6001600160a01b0381166108d25760405162461bcd60e51b815260206004820152602660248201527f4f776e61626c653a206e6577206f776e657220697320746865207a65726f206160448201526564647265737360d01b606482015260840161050c565b6108db81610938565b50565b6000546001600160a01b031633146104dc5760405162461bcd60e51b815260206004820181905260248201527f4f776e61626c653a2063616c6c6572206973206e6f7420746865206f776e6572604482015260640161050c565b600080546001600160a01b038381166001600160a01b0319831681178455604051919092169283917f8be0079c531659141344cd1fd0a4f28419497f9722a3daafe3b4186f6b6457e09190a35050565b80356001600160a01b038116811461099f57600080fd5b919050565b6000602082840312156109b657600080fd5b6109bf82610988565b9392505050565b6000602082840312156109d857600080fd5b8135600581106109bf57600080fd5b634e487b7160e01b600052604160045260246000fd5b604051601f8201601f1916810167ffffffffffffffff81118282101715610a2657610a266109e7565b604052919050565b600067ffffffffffffffff821115610a4857610a486109e7565b5060051b60200190565b600082601f830112610a6357600080fd5b81356020610a78610a7383610a2e565b6109fd565b8083825260208201915060208460051b870101935086841115610a9a57600080fd5b602086015b84811015610abd57610ab081610988565b8352918301918301610a9f565b509695505050505050565b803560ff8116811461099f57600080fd5b60008060408385031215610aec57600080fd5b823567ffffffffffffffff80821115610b0457600080fd5b610b1086838701610a52565b9350602091508185013581811115610b2757600080fd5b85019050601f81018613610b3a57600080fd5b8035610b48610a7382610a2e565b81815260059190911b82018301908381019088831115610b6757600080fd5b928401925b82841015610b8c57610b7d84610ac8565b82529284019290840190610b6c565b80955050505050509250929050565b60006020808352835180602085015260005b81811015610bc957858101830151858201604001528201610bad565b506000604082860101526040601f19601f8301168501019250505092915050565b60008060408385031215610bfd57600080fd5b823567ffffffffffffffff811115610c1457600080fd5b610c2085828601610a52565b925050610c2f60208401610ac8565b90509250929050565b60008060408385031215610c4b57600080fd5b610c5483610988565b9150610c2f60208401610ac8565b600060208284031215610c7457600080fd5b815180151581146109bf57600080fd5b6020810160058310610ca657634e487b7160e01b600052602160045260246000fd5b91905290565b634e487b7160e01b600052603260045260246000fdfea264697066735822122040fcd7946f1d44bd8868e16c1f1cca36af424063e759782436d971ffb647f4d164736f6c63430008180033608060405234801561001057600080fd5b5061001a33610048565b6040517fea65e47f8f470c915856407568b15d1780147b7d65ec6675bd26df1be6c33f3f90600090a1610098565b600080546001600160a01b038381166001600160a01b0319831681178455604051919092169283917f8be0079c531659141344cd1fd0a4f28419497f9722a3daafe3b4186f6b6457e09190a35050565b61078a806100a76000396000f3fe608060405234801561001057600080fd5b50600436106100935760003560e01c8063715018a611610066578063715018a61461011a5780638da5cb5b1461012257806398e14d1f1461013d578063e692545e14610150578063f2fde38b1461016357600080fd5b806306fdde03146100985780631367588c146100b6578063673448dd146100cb57806369d05d3c14610107575b600080fd5b6100a0610176565b6040516100ad9190610569565b60405180910390f35b6100c96100c43660046105e5565b610196565b005b6100f76100d93660046106aa565b6001600160a01b031660009081526001602052604090205460ff1690565b60405190151581526020016100ad565b6100f76101153660046106aa565b61023a565b6100c96102d8565b6000546040516001600160a01b0390911681526020016100ad565b6100c961014b3660046106aa565b6102ec565b6100c961015e3660046105e5565b6103a7565b6100c96101713660046106aa565b610441565b606060405180606001604052806025815260200161073060259139905090565b61019e6104bf565b60005b81518110156101fb5760018060008484815181106101c1576101c16106cc565b6020908102919091018101516001600160a01b03168252810191909152604001600020805460ff19169115159190911790556001016101a1565b50600115157f4d94b8b2cb01ce2763a1f00ce532761cdfbd25a165c8d48ef747954e08225aa78260405161022f91906106e2565b60405180910390a250565b6001600160a01b03811660009081526001602052604081205460ff1615610297576040516001600160a01b038316907fa560109d2a3c4855b254ddb8433f87b2cb4b7b3b4a5a20f3c60f3848188a950790600090a2506001919050565b6040516001600160a01b038316907f83aab2a2c4bb39cdafdf00ae886855a16f0a93a7f6b8053abb65299f5149eaf190600090a2506000919050565b919050565b6102e06104bf565b6102ea6000610519565b565b6102f46104bf565b6001600160a01b0381166000908152600160208181526040808420805460ff1916841790558051838152808201909152919082810190803683370190505090508181600081518110610348576103486106cc565b60200260200101906001600160a01b031690816001600160a01b031681525050600115157f4d94b8b2cb01ce2763a1f00ce532761cdfbd25a165c8d48ef747954e08225aa78260405161039b91906106e2565b60405180910390a25050565b6103af6104bf565b60005b815181101561040d576000600160008484815181106103d3576103d36106cc565b6020908102919091018101516001600160a01b03168252810191909152604001600020805460ff19169115159190911790556001016103b2565b50600015157f4d94b8b2cb01ce2763a1f00ce532761cdfbd25a165c8d48ef747954e08225aa78260405161022f91906106e2565b6104496104bf565b6001600160a01b0381166104b35760405162461bcd60e51b815260206004820152602660248201527f4f776e61626c653a206e6577206f776e657220697320746865207a65726f206160448201526564647265737360d01b60648201526084015b60405180910390fd5b6104bc81610519565b50565b6000546001600160a01b031633146102ea5760405162461bcd60e51b815260206004820181905260248201527f4f776e61626c653a2063616c6c6572206973206e6f7420746865206f776e657260448201526064016104aa565b600080546001600160a01b038381166001600160a01b0319831681178455604051919092169283917f8be0079c531659141344cd1fd0a4f28419497f9722a3daafe3b4186f6b6457e09190a35050565b60006020808352835180602085015260005b818110156105975785810183015185820160400152820161057b565b506000604082860101526040601f19601f8301168501019250505092915050565b634e487b7160e01b600052604160045260246000fd5b80356001600160a01b03811681146102d357600080fd5b600060208083850312156105f857600080fd5b823567ffffffffffffffff8082111561061057600080fd5b818501915085601f83011261062457600080fd5b813581811115610636576106366105b8565b8060051b604051601f19603f8301168101818110858211171561065b5761065b6105b8565b60405291825284820192508381018501918883111561067957600080fd5b938501935b8285101561069e5761068f856105ce565b8452938501939285019261067e565b98975050505050505050565b6000602082840312156106bc57600080fd5b6106c5826105ce565b9392505050565b634e487b7160e01b600052603260045260246000fd5b6020808252825182820181905260009190848201906040850190845b818110156107235783516001600160a01b0316835292840192918401916001016106fe565b5090969550505050505056fe4578616d706c6520617070726f7665206f7261636c6528417070726f766564204c69737429a2646970667358221220421a22478e640b4974dca2d8a7d33bf90e48487235a7519c4caed9ebbe59b58e64736f6c63430008180033608060405234801561001057600080fd5b5061126a806100206000396000f3fe608060405234801561001057600080fd5b50600436106101165760003560e01c80637f0cbc73116100a2578063b110cd2911610071578063b110cd29146102b5578063b55dc369146102c8578063bf218dfa146102ea578063d7cf23a0146102fd578063fd2cda1a1461033757600080fd5b80637f0cbc7314610236578063989b5b6a1461023e578063a300349614610246578063a9d07d3e1461025957600080fd5b806343646c4e116100e957806343646c4e14610186578063517c80181461019957806365250ad4146101ae5780637010de6614610206578063758a4a3a1461020e57600080fd5b8063034ac11d1461011b5780630700fa6b14610141578063424e76751461015e57806342d966f414610166575b600080fd5b61012e610129366004610dcd565b61033f565b6040519081526020015b60405180910390f35b610149610411565b60405163ffffffff9091168152602001610138565b61014961042c565b610179610174366004610e1d565b610437565b6040516101389190610e38565b610179610194366004610e1d565b6104de565b6101ac6101a7366004610e78565b610517565b005b6101c16101bc366004610e1d565b61054e565b6040516101389190815162ffffff16815260208083015161ffff16908201526040808301516001600160401b0316908201526060918201519181019190915260800190565b6101496105ee565b61022161021c366004610ea2565b6105f9565b60408051928352602083019190915201610138565b610149610700565b61014961070b565b61012e610254366004610efa565b610716565b61026c610267366004610e1d565b6107d7565b6040516101389190600060808201905061ffff808451168352806020850151166020840152506001600160401b0360408401511660408301526060830151606083015292915050565b6101ac6102c3366004610fde565b610872565b6102db6102d6366004610e1d565b6108d0565b60405190518152602001610138565b61012e6102f8366004610efa565b61091e565b61031061030b366004610e1d565b6109d1565b60408051825160ff1681526020928301516001600160a01b03169281019290925201610138565b610149610a3e565b60008061034b8761054e565b905061036381604001516001600160401b0316610a49565b1561040657610392816020015161ffff168483604001516001600160401b0316610a709092919063ffffffff16565b61039c57836103a6565b6103a684876110e0565b955080606001516000146103bc57806060015194505b80516103d0906127109062ffffff166110f3565b856103df6305f5e100896110f3565b6103e99190611120565b1061040657604051624ed06760e11b815260040160405180910390fd5b509395945050505050565b60008061041c610aef565b6001015463ffffffff1692915050565b60008061041c610b23565b604080516080810182526000808252602082018190529181018290526060810191909152610476610466610700565b63ffffffff8085169190610b5116565b6000610480610b81565b63ffffffff909316600090815260209384526040908190208151608081018352815461ffff8082168352620100009091041695810195909552600181015491850191909152600201546001600160401b031660608401525090919050565b60408051608081018252600080825260208201819052918101829052606081019190915261050d6104666105ee565b6000610480610baf565b6000610522836108d0565b9050818160000151111561054957604051637a78c90160e01b815260040160405180910390fd5b505050565b60408051608081018252600080825260208201819052918101829052606081019190915261057d61046661070b565b6000610587610bdd565b63ffffffff93909316600090815260209384526040908190208151608081018352815462ffffff811682526301000000810461ffff1696820196909652650100000000009095046001600160401b0316918501919091526001015460608401525090919050565b60008061041c610baf565b6000806000806106088a6107d7565b905061062081604001516001600160401b0316610a49565b156106f05760608101511561063757806060015196505b87600003610643578697505b61066d816020015161ffff168683604001516001600160401b0316610a709092919063ffffffff16565b156106835761067c868a611134565b985061068a565b8598508697505b876106996305f5e1008b61115c565b6106a3919061118c565b915060008212156106bd576106ba8260001961115c565b91505b80516106d0906127109061ffff166110f3565b8211156106f057604051630c406d4760e41b815260040160405180910390fd5b5096989597509495505050505050565b60008061041c610b81565b60008061041c610bdd565b60008061072287610437565b90506000610750826020015161ffff168684606001516001600160401b0316610a709092919063ffffffff16565b61075a5785610764565b61076484876110e0565b90506000826040015160001461077e578260400151610780565b875b9050600081610791612710856110f3565b61079b9190611120565b9050836000015161ffff168161ffff16106107c957604051631a91b47d60e21b815260040160405180910390fd5b509098975050505050505050565b604080516080810182526000808252602082018190529181018290526060810191909152610806610466610a3e565b6000610810610c0b565b63ffffffff93909316600090815260209384526040908190208151608081018352815461ffff808216835262010000820416968201969096526401000000009095046001600160401b0316918501919091526001015460608401525090919050565b60005b825181101561054957828181518110610890576108906111ba565b602002602001015160200151156108c8576108c88382815181106108b6576108b66111ba565b60200260200101516000015183610c39565b600101610875565b6040805160208101909152600081526108ea61046661042c565b60006108f4610b23565b63ffffffff9093166000908152602093845260409081902081519485019091525483525090919050565b60008061092a876104de565b90506000610958826020015161ffff168684606001516001600160401b0316610a709092919063ffffffff16565b610962578561096c565b61096c84876110e0565b905060008260400151600014610986578260400151610988565b875b9050600081610999612710856110f3565b6109a39190611120565b9050836000015161ffff168161ffff16106107c95760405163806a339160e01b815260040160405180910390fd5b60408051808201909152600080825260208201526109f0610466610411565b60006109fa610aef565b63ffffffff9093166000908152602093845260409081902081518083019092525460ff811682526001600160a01b0361010090910416938101939093525090919050565b60008061041c610c0b565b600042826001600160401b031611610a6357506001919050565b506000919050565b919050565b6000816001600160401b0316600003610a8b57506000610ae8565b6000610a9984610e106111d0565b63ffffffff16610ab26001600160401b038716426111f0565b610abc9190611203565b610ac690426111f0565b905080836001600160401b031610610ae2576001915050610ae8565b60009150505b9392505050565b600080610b1d60017f393520d3a7ae2d5ebb865efe7c253600ffe7f63536515bbd509b4936416fc46c6111f0565b92915050565b600080610b1d60017fdc15be84837e6adc6cb93c079465be8e43c2ac54b75e2a73d79900c1c9f9c9c56111f0565b8163ffffffff168163ffffffff1611610b7d576040516325ef9da360e11b815260040160405180910390fd5b5050565b600080610b1d60017f25a585c2e8f7fa7b14633f4226915cea53b2c82875c542bdc3e0d9112ee62c086111f0565b600080610b1d60017f36a6b5e1dcad62c6cb5da92222f5f227370563aad6447813d73230d0fad88f746111f0565b600080610b1d60017f7ec0480b9860da71df40eeba9d55d11a6e64e9befe36fdfcdb7f8f7bb7dae19c6111f0565b600080610b1d60017fe933e4fa004729344ad93dde4bd94d0b881b307b0cca199749c0ad3af24291996111f0565b6000610c44836109d1565b8051602082015191925060ff169060018203610cf5576001600160a01b03841615610cf05760405163673448dd60e01b81526001600160a01b03858116600483015282169063673448dd90602401602060405180830381865afa158015610caf573d6000803e3d6000fd5b505050506040513d601f19601f82011682018060405250810190610cd39190611217565b610cf05760405163657e998b60e11b815260040160405180910390fd5b610d9b565b81610d825760405163e838dfbb60e01b81526001600160a01b03858116600483015282169063e838dfbb90602401602060405180830381865afa158015610d40573d6000803e3d6000fd5b505050506040513d601f19601f82011682018060405250810190610d649190611217565b15610cf0576040516309d9ef6960e21b815260040160405180910390fd5b60405163150aa48f60e11b815260040160405180910390fd5b5050505050565b803563ffffffff81168114610a6b57600080fd5b80356001600160401b0381168114610a6b57600080fd5b600080600080600060a08688031215610de557600080fd5b610dee86610da2565b9450602086013593506040860135925060608601359150610e1160808701610db6565b90509295509295909350565b600060208284031215610e2f57600080fd5b610ae882610da2565b60808101610b1d828461ffff80825116835280602083015116602084015250604081015160408301526001600160401b0360608201511660608301525050565b60008060408385031215610e8b57600080fd5b610e9483610da2565b946020939093013593505050565b60008060008060008060c08789031215610ebb57600080fd5b610ec487610da2565b955060208701359450604087013593506060870135925060808701359150610eee60a08801610db6565b90509295509295509295565b600080600080600060a08688031215610f1257600080fd5b610f1b86610da2565b94506020860135935060408601359250610f3760608701610db6565b949793965091946080013592915050565b634e487b7160e01b600052604160045260246000fd5b604080519081016001600160401b0381118282101715610f8057610f80610f48565b60405290565b604051601f8201601f191681016001600160401b0381118282101715610fae57610fae610f48565b604052919050565b8015158114610fc457600080fd5b50565b80356001600160a01b0381168114610a6b57600080fd5b6000806040808486031215610ff257600080fd5b83356001600160401b038082111561100957600080fd5b818601915086601f83011261101d57600080fd5b813560208282111561103157611031610f48565b61103f818360051b01610f86565b828152818101935060069290921b84018101918983111561105f57600080fd5b938101935b828510156110af5785858b03121561107c5760008081fd5b611084610f5e565b61108d86610da2565b81528286013561109c81610fb6565b8184015284529385019392810192611064565b96506110bc888201610fc7565b955050505050509250929050565b634e487b7160e01b600052601160045260246000fd5b80820180821115610b1d57610b1d6110ca565b8082028115828204841417610b1d57610b1d6110ca565b634e487b7160e01b600052601260045260246000fd5b60008261112f5761112f61110a565b500490565b8082018281126000831280158216821582161715611154576111546110ca565b505092915050565b80820260008212600160ff1b84141615611178576111786110ca565b8181058314821517610b1d57610b1d6110ca565b60008261119b5761119b61110a565b600160ff1b8214600019841416156111b5576111b56110ca565b500590565b634e487b7160e01b600052603260045260246000fd5b63ffffffff818116838216028082169190828114611154576111546110ca565b81810381811115610b1d57610b1d6110ca565b6000826112125761121261110a565b500690565b60006020828403121561122957600080fd5b8151610ae881610fb656fea2646970667358221220ead86dfc3c389b62bc2e287f50ecf73f1c3daad67236d1d7d6297a512973670164736f6c63430008180033608060405234801561001057600080fd5b5061014c806100206000396000f3fe608060405234801561001057600080fd5b506004361061002b5760003560e01c80631051b95b14610030575b600080fd5b61004361003e36600461008a565b610045565b005b80156100865761005782610e106100d5565b63ffffffff1661006782426100fd565b101561008657604051635f98112f60e01b815260040160405180910390fd5b5050565b6000806040838503121561009d57600080fd5b823563ffffffff811681146100b157600080fd5b946020939093013593505050565b634e487b7160e01b600052601160045260246000fd5b63ffffffff8181168382160280821691908281146100f5576100f56100bf565b505092915050565b81810381811115610110576101106100bf565b9291505056fea26469706673582212206df4ba0dd87bc106d3f20bbd875b8518d72136a1f3fcdb158d14c98a2a4da70364736f6c63430008180033608060405234801561001057600080fd5b50610b5c806100206000396000f3fe608060405234801561001057600080fd5b50600436106100625760003560e01c8063301d8397146100675780634fae1e2e146100895780636d36d620146100a95780638d8c4730146100d4578063dcc0587f146100e9578063f506d02314610109575b600080fd5b61006f610111565b60405163ffffffff90911681526020015b60405180910390f35b61009c610097366004610828565b61012c565b60405161008091906108bb565b6100bc6100b736600461091c565b6102af565b6040516001600160801b039091168152602001610080565b6100e76100e2366004610990565b6103a5565b005b6100fc6100f7366004610828565b61043d565b60405161008091906109f7565b61006f6105e5565b60008061011c6105f0565b6001015463ffffffff1692915050565b6040805180820190915260608082526020820152600061014a6105f0565b9050610167610157610111565b63ffffffff808616919061062416565b600181015463ffffffff9081169084161061019557604051631390f2a160e01b815260040160405180910390fd5b63ffffffff831660009081526020828152604091829020825181546060938102820184018552938101848152909391928492849184018282801561021657602002820191906000526020600020906000905b825461010083900a900460ff168152602060019283018181049485019490930390920291018084116101e75790505b505050505081526020016001820180548060200260200160405190810160405280929190818152602001828054801561029e57602002820191906000526020600020906000905b82829054906101000a900465ffffffffffff1665ffffffffffff168152602001906006019060208260050104928301926001038202915080841161025d5790505b505050505081525050915050919050565b60008060006102bd8861043d565b90506000816040015161ffff166000141580156103005750610300826040015161ffff1687846060015167ffffffffffffffff166106549092919063ffffffff16565b61030a5786610314565b6103148888610a75565b9050816020015160008151811061032d5761032d610a9c565b602002602001015160ff168560ff161061039257602082015182516103569160ff8816916106d6565b925082816001600160801b0316111561039257604051636720360b60e11b815260ff861660048201526024810184905260440160405180910390fd5b925061039c915050565b95945050505050565b60006103b08661012c565b905060006001600160a01b0386161561043457815180516000906103d6576103d6610a9c565b602002602001015160ff168560ff161061043457815160208301516103ff9160ff8816916106d6565b90508061040c8486610a75565b6001600160801b0316111561043457604051634189123760e11b815260040160405180910390fd5b50505050505050565b6040805160808101825260608082526020820181905260009282018390528101829052906104696107e1565b90506104766101576105e5565b600181015463ffffffff908116908416106104a457604051631390f2a160e01b815260040160405180910390fd5b63ffffffff8316600090815260208281526040918290208251815460a09381028201840190945260808101848152909391928492849184018282801561053957602002820191906000526020600020906000905b82829054906101000a900465ffffffffffff1665ffffffffffff16815260200190600601906020826005010492830192600103820291508084116104f85790505b50505050508152602001600182018054806020026020016040519081016040528092919081815260200182805480156105af57602002820191906000526020600020906000905b825461010083900a900460ff168152602060019283018181049485019490930390920291018084116105805790505b50505091835250506002919091015461ffff8116602083015262010000900467ffffffffffffffff166040909101529392505050565b60008061011c6107e1565b60008061061e60017f4ad28c94cb815a5bc8c4c7a6826bafcf87389a6ca864ba468204d2b980cfcd5f610ab2565b92915050565b8163ffffffff168163ffffffff1611610650576040516325ef9da360e11b815260040160405180910390fd5b5050565b60008167ffffffffffffffff16600003610670575060006106cf565b600061067e84610e10610ac5565b63ffffffff1661069867ffffffffffffffff871642610ab2565b6106a29190610aed565b6106ac9042610ab2565b9050808367ffffffffffffffff16106106c95760019150506106cf565b60009150505b9392505050565b600060015b835181101561075a578381815181106106f6576106f6610a9c565b602002602001015160ff168560ff1610156107525782610717600183610ab2565b8151811061072757610727610a9c565b602002602001015165ffffffffffff16670de0b6b3a764000061074a9190610b0f565b9150506106cf565b6001016106db565b50826001845161076a9190610ab2565b8151811061077a5761077a610a9c565b602002602001015160ff168460ff16106107d757816001835161079d9190610ab2565b815181106107ad576107ad610a9c565b602002602001015165ffffffffffff16670de0b6b3a76400006107d09190610b0f565b90506106cf565b5060009392505050565b60008061061e60017f83267efb4f531fecf2aed040d8a6b66e44808d12f27a568b82ac7d35297d9fad610ab2565b803563ffffffff8116811461082357600080fd5b919050565b60006020828403121561083a57600080fd5b6106cf8261080f565b60008151808452602080850194506020840160005b8381101561087757815160ff1687529582019590820190600101610858565b509495945050505050565b60008151808452602080850194506020840160005b8381101561087757815165ffffffffffff1687529582019590820190600101610897565b6020815260008251604060208401526108d76060840182610843565b90506020840151601f1984830301604085015261039c8282610882565b80356001600160801b038116811461082357600080fd5b803560ff8116811461082357600080fd5b600080600080600060a0868803121561093457600080fd5b61093d8661080f565b945061094b602087016108f4565b9350610959604087016108f4565b9250606086013567ffffffffffffffff8116811461097657600080fd5b91506109846080870161090b565b90509295509295909350565b600080600080600060a086880312156109a857600080fd5b6109b18661080f565b945060208601356001600160a01b03811681146109cd57600080fd5b93506109db6040870161090b565b92506109e9606087016108f4565b9150610984608087016108f4565b602081526000825160806020840152610a1360a0840182610882565b90506020840151601f19848303016040850152610a308282610843565b91505061ffff604085015116606084015267ffffffffffffffff60608501511660808401528091505092915050565b634e487b7160e01b600052601160045260246000fd5b6001600160801b03818116838216019080821115610a9557610a95610a5f565b5092915050565b634e487b7160e01b600052603260045260246000fd5b8181038181111561061e5761061e610a5f565b63ffffffff818116838216028082169190828114610ae557610ae5610a5f565b505092915050565b600082610b0a57634e487b7160e01b600052601260045260246000fd5b500690565b808202811582820484141761061e5761061e610a5f56fea2646970667358221220d3003df5d44c015d2d3eacf8cbc5d9ffa908fc0833c704eec1ddde909c33969664736f6c63430008180033608060405234801561001057600080fd5b506104b5806100206000396000f3fe608060405234801561001057600080fd5b506004361061007d5760003560e01c8063ac4db8071161005b578063ac4db807146100e3578063ad5dbad3146100eb578063bc8bace7146100fe578063f5c2ce591461012957600080fd5b80631713890a1461008257806332f0d3e3146100975780635a0e0ed4146100b9575b600080fd5b61009561009036600461036f565b61013c565b005b61009f61019d565b60405163ffffffff90911681526020015b60405180910390f35b6100cc6100c73660046103c3565b6101b8565b60405165ffffffffffff90911681526020016100b0565b61009f610226565b6100cc6100f93660046103c3565b610231565b61011161010c36600461036f565b61023c565b6040516001600160801b0390911681526020016100b0565b6100956101373660046103f6565b6102ab565b60006101488585610231565b905061016465ffffffffffff8216670de0b6b3a764000061042e565b61016e8484610445565b6001600160801b031611156101965760405163aee8b99360e01b815260040160405180910390fd5b5050505050565b6000806101a86102d2565b6001015463ffffffff1692915050565b6000806101c36102d2565b600181015490915063ffffffff908116908516106101f457604051631390f2a160e01b815260040160405180910390fd5b63ffffffff841660009081526020918252604080822060ff86168352909252205465ffffffffffff1690505b92915050565b6000806101a8610300565b6000806101c3610300565b60008061024986866101b8565b905061026565ffffffffffff8216670de0b6b3a764000061042e565b61026f8585610445565b6001600160801b03161115610297576040516308d857c560e41b815260040160405180910390fd5b6102a18385610445565b9695505050505050565b8060ff166000036102cf57604051633fac082d60e01b815260040160405180910390fd5b50565b60008061022060017fcd576fc088c5eb040f665f257428613253482a372b228b4e0451df92d88b2b2d61046c565b60008061022060017f4815e3fa667405e725c432fd6db2286588ecce84f997ea5bdb96e5e764a28d4861046c565b803563ffffffff8116811461034257600080fd5b919050565b803560ff8116811461034257600080fd5b80356001600160801b038116811461034257600080fd5b6000806000806080858703121561038557600080fd5b61038e8561032e565b935061039c60208601610347565b92506103aa60408601610358565b91506103b860608601610358565b905092959194509250565b600080604083850312156103d657600080fd5b6103df8361032e565b91506103ed60208401610347565b90509250929050565b60006020828403121561040857600080fd5b61041182610347565b9392505050565b634e487b7160e01b600052601160045260246000fd5b808202811582820484141761022057610220610418565b6001600160801b0381811683821601908082111561046557610465610418565b5092915050565b818103818111156102205761022061041856fea26469706673582212208ed994a74b409156363e5289dc50fc37d7156c0cc6b26e37df2f386e2b8d06e064736f6c63430008180033608060405234801561001057600080fd5b5061034c806100206000396000f3fe608060405234801561001057600080fd5b506004361061002b5760003560e01c8063c42e62f514610030575b600080fd5b61004361003e366004610167565b610057565b604051901515815260200160405180910390f35b600080826001600160a01b031663d4f938706040518163ffffffff1660e01b8152600401600060405180830381865afa158015610098573d6000803e3d6000fd5b505050506040513d6000823e601f3d908101601f191682016040526100c09190810190610224565b905060005b815181101561015d5760008282815181106100e2576100e2610300565b60200260200101519050806000015167ffffffffffffffff1642101580156101175750806020015167ffffffffffffffff1642105b156101545780516020820151604051633338555160e01b815267ffffffffffffffff92831660048201529116602482015260440160405180910390fd5b506001016100c5565b5060019392505050565b60006020828403121561017957600080fd5b81356001600160a01b038116811461019057600080fd5b9392505050565b634e487b7160e01b600052604160045260246000fd5b6040805190810167ffffffffffffffff811182821017156101d0576101d0610197565b60405290565b604051601f8201601f1916810167ffffffffffffffff811182821017156101ff576101ff610197565b604052919050565b805167ffffffffffffffff8116811461021f57600080fd5b919050565b6000602080838503121561023757600080fd5b825167ffffffffffffffff8082111561024f57600080fd5b818501915085601f83011261026357600080fd5b81518181111561027557610275610197565b610283848260051b016101d6565b818152848101925060069190911b8301840190878211156102a357600080fd5b928401925b818410156102f557604084890312156102c15760008081fd5b6102c96101ad565b6102d285610207565b81526102df868601610207565b81870152835260409390930192918401916102a8565b979650505050505050565b634e487b7160e01b600052603260045260246000fdfea26469706673582212205118a22f575f90c26f771477ee175cef64dbdac2e2a6d210e3c67f3c8cb16ad964736f6c63430008180033608060405234801561001057600080fd5b50610969806100206000396000f3fe608060405234801561001057600080fd5b506004361061010b5760003560e01c8063866fafc7116100a2578063c34593a311610071578063c34593a3146101e3578063c4b61b98146101f6578063edc3189d14610209578063f314bcb91461021c578063f7ff83591461022f57600080fd5b8063866fafc7146101aa578063979cc76b146101bd578063a174d76e146101d0578063ad1be6161461011057600080fd5b8063319f427b116100de578063319f427b1461015e57806350436ce51461017157806363009ce2146101845780636d40f01b1461019757600080fd5b80630647293a146101105780630b71799c146101255780630dc1083214610138578063251d88ed1461014b575b600080fd5b61012361011e366004610749565b610242565b005b610123610133366004610749565b610260565b610123610146366004610749565b61026b565b610123610159366004610749565b610276565b61012361016c36600461076b565b610281565b61012361017f366004610749565b61030a565b610123610192366004610749565b610315565b6101236101a5366004610749565b610320565b6101236101b8366004610749565b61032b565b6101236101cb366004610749565b610336565b6101236101de366004610749565b610341565b6101236101f1366004610749565b61034c565b610123610204366004610749565b610357565b610123610217366004610749565b610362565b61012361022a366004610749565b61036d565b61012361023d366004610749565b610378565b61025d61024d610383565b63ffffffff808416919061039e16565b50565b61025d61024d6103ce565b61025d61024d6103d9565b61025d61024d6103f4565b6000816001600160a01b031663d4f938706040518163ffffffff1660e01b8152600401600060405180830381865afa1580156102c1573d6000803e3d6000fd5b505050506040513d6000823e601f3d908101601f191682016040526102e99190810190610836565b905061030581518463ffffffff1661039e90919063ffffffff16565b505050565b61025d61024d6103ff565b61025d61024d61040a565b61025d61024d610415565b61025d61024d610420565b61025d61024d61042b565b61025d61024d610436565b61025d61024d610441565b61025d61024d61044c565b61025d61024d610457565b61025d61024d610462565b61025d61024d61046d565b60008061038e610478565b6002015463ffffffff1692915050565b8163ffffffff168163ffffffff16116103ca576040516325ef9da360e11b815260040160405180910390fd5b5050565b60008061038e6104ac565b6000806103e46104da565b6001015463ffffffff1692915050565b6000806103e4610508565b6000806103e4610536565b6000806103e4610564565b6000806103e4610592565b60008061038e6105c0565b6000806103e46105ee565b6000806103e461061c565b6000806103e461064a565b6000806103e4610678565b6000806103e46106a6565b6000806103e46106d4565b6000806103e4610702565b6000806104a660017f57f022a955ea4a82d6829b2369e82ccc92e1e803cd0f0f5669038f7b6e994fc6610912565b92915050565b6000806104a660017f1162e821763e1a90b75e60ad1e076d131a2344e0b7a0b39fe6e1691100701615610912565b6000806104a660017f4ad28c94cb815a5bc8c4c7a6826bafcf87389a6ca864ba468204d2b980cfcd5f610912565b6000806104a660017f393520d3a7ae2d5ebb865efe7c253600ffe7f63536515bbd509b4936416fc46c610912565b6000806104a660017f25a585c2e8f7fa7b14633f4226915cea53b2c82875c542bdc3e0d9112ee62c08610912565b6000806104a660017fcd576fc088c5eb040f665f257428613253482a372b228b4e0451df92d88b2b2d610912565b6000806104a660017f7ec0480b9860da71df40eeba9d55d11a6e64e9befe36fdfcdb7f8f7bb7dae19c610912565b6000806104a660017fb55fad9ae18bf1512bc017f51e2b8984d659cd3a8848cbaa71ef7c0999db6bd0610912565b6000806104a660017fe933e4fa004729344ad93dde4bd94d0b881b307b0cca199749c0ad3af2429199610912565b6000806104a660017f5f3e73a83d0712e1b13444a98d0279e8921ea9760d8491b3bab0cf95044a4a4f610912565b6000806104a660017fdc15be84837e6adc6cb93c079465be8e43c2ac54b75e2a73d79900c1c9f9c9c5610912565b6000806104a660017f4815e3fa667405e725c432fd6db2286588ecce84f997ea5bdb96e5e764a28d48610912565b6000806104a660017f83267efb4f531fecf2aed040d8a6b66e44808d12f27a568b82ac7d35297d9fad610912565b6000806104a660017f5387434b2d3be7a91940ea8e6fee24226ef10692fcf63e7e5c04ec47fd7f9d79610912565b6000806104a660017f36a6b5e1dcad62c6cb5da92222f5f227370563aad6447813d73230d0fad88f74610912565b803563ffffffff8116811461074457600080fd5b919050565b60006020828403121561075b57600080fd5b61076482610730565b9392505050565b6000806040838503121561077e57600080fd5b61078783610730565b915060208301356001600160a01b03811681146107a357600080fd5b809150509250929050565b634e487b7160e01b600052604160045260246000fd5b6040805190810167ffffffffffffffff811182821017156107e7576107e76107ae565b60405290565b604051601f8201601f1916810167ffffffffffffffff81118282101715610816576108166107ae565b604052919050565b805167ffffffffffffffff8116811461074457600080fd5b6000602080838503121561084957600080fd5b825167ffffffffffffffff8082111561086157600080fd5b818501915085601f83011261087557600080fd5b815181811115610887576108876107ae565b610895848260051b016107ed565b818152848101925060069190911b8301840190878211156108b557600080fd5b928401925b8184101561090757604084890312156108d35760008081fd5b6108db6107c4565b6108e48561081e565b81526108f186860161081e565b81870152835260409390930192918401916108ba565b979650505050505050565b818103818111156104a657634e487b7160e01b600052601160045260246000fdfea26469706673582212200951ae7759b093ef5a42b55dfec3b293266b5acdc2561aab9cd5502ecaeca24b64736f6c63430008180033608060405234801561001057600080fd5b50610944806100206000396000f3fe608060405234801561001057600080fd5b50600436106100625760003560e01c806343377141146100675780636d2a6bec1461007c57806392a0cf52146100bc578063bca9c7bc146100f5578063c93ebde014610116578063ee226bc414610133575b600080fd5b61007a61007536600461074e565b61013b565b005b61008f61008a3660046107d6565b6101c4565b60408051825160ff16815260209283015167ffffffffffffffff1692810192909252015b60405180910390f35b6100cf6100ca3660046107d6565b61024c565b6040805182518152602080840151908201529181015161ffff16908201526060016100b3565b610108610103366004610800565b610315565b6040519081526020016100b3565b61011e610446565b60405163ffffffff90911681526020016100b3565b61011e610461565b6101448161047c565b61014d8261047c565b600061015a86600061024c565b6020015111156101a757604080516001808252818301909252906020808301908036833701905050915060008260008151811061019957610199610872565b602090810291909101015250805b6101b28482876104a2565b6101bd838387610512565b5050505050565b604080518082019091526000808252602082015260006101e2610573565b90506101ff6101ef610461565b63ffffffff80871691906105a116565b63ffffffff841660009081526020918252604080822085835283529081902081518083019092525460ff81168252610100900467ffffffffffffffff169181019190915290505b92915050565b61027460405180606001604052806000815260200160008152602001600061ffff1681525090565b61028f61027f610446565b63ffffffff80861691906105a116565b60006102996105d1565b600281015490915063ffffffff908116908516106102ca57604051631390f2a160e01b815260040160405180910390fd5b63ffffffff84166000908152602091825260408082208583528352908190208151606081018352815481526001820154938101939093526002015461ffff1690820152905092915050565b60006103208361047c565b60008061032e8760006101c4565b6020015167ffffffffffffffff16111561038457604080516001808252818301909252906020808301908036833701905050935060008460008151811061037757610377610872565b6020026020010181815250505b60005b845181101561043c578481815181106103a2576103a2610872565b50506000915060006103cd888784815181106103c0576103c0610872565b60200260200101516101c4565b8051602082015191925060189160ff909116906103f59067ffffffffffffffff1683896105ff565b61040057600161040b565b61040b89600161089e565b94508085111561042e576040516309a92f2d60e01b815260040160405180910390fd5b836001019350505050610387565b5095945050505050565b6000806104516105d1565b6002015463ffffffff1692915050565b60008061046c610573565b6001015463ffffffff1692915050565b8051600a101561049f576040516351d7d97160e11b815260040160405180910390fd5b50565b60005b825181101561050c5760006104d3838584815181106104c6576104c6610872565b602002602001015161024c565b51905080158015906104e55750808511155b1561050357604051631f11bcbb60e11b815260040160405180910390fd5b506001016104a5565b50505050565b60005b825181101561050c576000610536838584815181106104c6576104c6610872565b60200151905060008111801561054c5750808510155b1561056a576040516307695a9160e21b815260040160405180910390fd5b50600101610515565b60008061024660017f5f3e73a83d0712e1b13444a98d0279e8921ea9760d8491b3bab0cf95044a4a4f6108b1565b8163ffffffff168163ffffffff16116105cd576040516325ef9da360e11b815260040160405180910390fd5b5050565b60008061024660017f57f022a955ea4a82d6829b2369e82ccc92e1e803cd0f0f5669038f7b6e994fc66108b1565b60008167ffffffffffffffff1660000361061b5750600061067a565b600061062984610e106108c4565b63ffffffff1661064367ffffffffffffffff8716426108b1565b61064d91906108ec565b61065790426108b1565b9050808367ffffffffffffffff161061067457600191505061067a565b60009150505b9392505050565b803563ffffffff8116811461069557600080fd5b919050565b634e487b7160e01b600052604160045260246000fd5b600082601f8301126106c157600080fd5b8135602067ffffffffffffffff808311156106de576106de61069a565b8260051b604051601f19603f830116810181811084821117156107035761070361069a565b604052938452602081870181019490810192508785111561072357600080fd5b6020870191505b848210156107435781358352918301919083019061072a565b979650505050505050565b600080600080600060a0868803121561076657600080fd5b61076f86610681565b94506020860135935060408601359250606086013567ffffffffffffffff8082111561079a57600080fd5b6107a689838a016106b0565b935060808801359150808211156107bc57600080fd5b506107c9888289016106b0565b9150509295509295909350565b600080604083850312156107e957600080fd5b6107f283610681565b946020939093013593505050565b6000806000806080858703121561081657600080fd5b61081f85610681565b935060208501359250604085013567ffffffffffffffff8082111561084357600080fd5b61084f888389016106b0565b935060608701359150808216821461086657600080fd5b50939692955090935050565b634e487b7160e01b600052603260045260246000fd5b634e487b7160e01b600052601160045260246000fd5b8082018082111561024657610246610888565b8181038181111561024657610246610888565b63ffffffff8181168382160280821691908281146108e4576108e4610888565b505092915050565b60008261090957634e487b7160e01b600052601260045260246000fd5b50069056fea26469706673582212209609bd596fbdc951aab6dfc1caec738902cd51910f292cc24d15325fcd855bb464736f6c63430008180033608060405234801561001057600080fd5b506111f1806100206000396000f3fe608060405234801561001057600080fd5b50600436106101165760003560e01c8063609b1132116100a2578063b413d3db11610071578063b413d3db14610266578063b6dbd9e11461029f578063b7e41706146102b2578063c1b17a6a146102ba578063cd26c4dd146102c257600080fd5b8063609b1132146101f157806362d1417c14610204578063820c5823146102325780639fc0a20f1461025357600080fd5b80632bb8adde116100e95780632bb8adde146101905780633ba7dfab14610198578063479aca1a146101ab5780634a870762146101cb5780635d74c45e146101de57600080fd5b80630640215f1461011b5780630ac8a7901461013d5780631ac24c5a146101525780631dad60201461017d575b600080fd5b6101236102d5565b60405163ffffffff90911681526020015b60405180910390f35b61015061014b366004610e4d565b6102f0565b005b610165610160366004610ead565b61046b565b6040516001600160401b039091168152602001610134565b61016561018b366004610ead565b6104ea565b610123610501565b6101506101a6366004610ec8565b61051c565b6101be6101b9366004610f57565b610534565b6040516101349190610f81565b6101506101d9366004610e4d565b610596565b6101506101ec366004610f9c565b610705565b6101656101ff366004610ead565b61076d565b610217610212366004610ead565b610784565b60408051825181526020928301519281019290925201610134565b610245610240366004610fcf565b610811565b604051908152602001610134565b61015061026136600461104c565b61094a565b610279610274366004610f57565b6109d6565b6040805182518152602080840151908201529181015161ffff1690820152606001610134565b6101be6102ad366004610f57565b610a9f565b610123610abd565b610123610ac8565b6102456102d0366004610fcf565b610ad3565b6000806102e0610bff565b6002015463ffffffff1692915050565b8315610465576102ff83610c2d565b600061030c8260006109d6565b51111561035557604080516001808252818301909252906020808301908036833701905050925060008360008151811061034857610348611108565b6020026020010181815250505b60006103608261046b565b905042816001600160401b0316116104635760005b84518110156104615760006103a38487848151811061039657610396611108565b60200260200101516109d6565b9050806040015161ffff1660001461042157826001600160401b0316816040015161ffff16610e106103d59190611134565b6103df904261114b565b101561041c578051158015906103fe575080516103fc868961114b565b105b1561041c5760405163a7fb7b4b60e01b815260040160405180910390fd5b610458565b80511580159061043a57508051610438868961114b565b105b1561045857604051631f11bcbb60e11b815260040160405180910390fd5b50600101610375565b505b505b50505050565b6000610488610478610abd565b63ffffffff8085169190610c5316565b6000610492610c83565b600281015490915063ffffffff908116908416106104c357604051631390f2a160e01b815260040160405180910390fd5b63ffffffff909216600090815260019092016020525060409020546001600160401b031690565b60006104f76104786102d5565b6000610492610bff565b60008061050c610cb1565b6001015463ffffffff1692915050565b610528858285896102f0565b61046184838589610596565b60408051808201909152600080825260208201526000610552610cdf565b63ffffffff85166000908152602091825260408082208683528352908190208151808301909252805482526001015461ffff16918101919091529150505b92915050565b61059f83610c2d565b60006105ac8260006109d6565b6020015111156105f85760408051600180825281830190925290602080830190803683370190505092506000836000815181106105eb576105eb611108565b6020026020010181815250505b60006106038261046b565b905042816001600160401b0316116104635760005b84518110156104615760006106398487848151811061039657610396611108565b9050806040015161ffff166000146106be57826001600160401b0316816040015161ffff16610e1061066b9190611134565b610675904261114b565b10156106b9576000816020015111801561069b57506020810151610699868961115e565b115b156106b95760405163a7fb7b4b60e01b815260040160405180910390fd5b6106fc565b600081602001511180156106de575060208101516106dc868961115e565b115b156106fc576040516307695a9160e21b815260040160405180910390fd5b50600101610618565b600061071084610784565b9050828211156107335760405163569d45cf60e11b815260040160405180910390fd5b80602001514210801561074f5750805161074d838561114b565b105b1561046557604051631f11bcbb60e11b815260040160405180910390fd5b600061077a610478610ac8565b6000610492610cdf565b60408051808201909152600080825260208201526107a3610478610501565b60006107ad610cb1565b600181015490915063ffffffff908116908416106107de57604051631390f2a160e01b815260040160405180910390fd5b63ffffffff9092166000908152602092835260409081902081518083019092528054825260010154928101929092525090565b600061081c83610c2d565b60006108278761076d565b9050600042826001600160401b03161161093f576000610848896000610534565b6020015161ffff16111561089857604080516001808252818301909252906020808301908036833701905050945060008560008151811061088b5761088b611108565b6020026020010181815250505b60005b855181101561093d5760006108c98a8884815181106108bc576108bc611108565b6020026020010151610534565b602081015190915061ffff16156109345760208101516108f8906001600160401b0386169061ffff1688610d0d565b1561090e57610907888a61115e565b9250610912565b8792505b80518311156109345760405163a7fb7b4b60e01b815260040160405180910390fd5b5060010161089b565b505b979650505050505050565b61098b868383808060200260200160405190810160405280939291908181526020018383602002808284376000920191909152508892508d91506102f09050565b6109cc858383808060200260200160405190810160405280939291908181526020018383602002808284376000920191909152508992508c91506105969050565b5050505050505050565b6109fe60405180606001604052806000815260200160008152602001600061ffff1681525090565b610a19610a09610abd565b63ffffffff8086169190610c5316565b6000610a23610c83565b600281015490915063ffffffff90811690851610610a5457604051631390f2a160e01b815260040160405180910390fd5b63ffffffff84166000908152602091825260408082208583528352908190208151606081018352815481526001820154938101939093526002015461ffff1690820152905092915050565b60408051808201909152600080825260208201526000610552610bff565b6000806102e0610c83565b6000806102e0610cdf565b6000610ade83610c2d565b6000610ae9876104ea565b9050600042826001600160401b03161161093f576000610b0a896000610a9f565b6020015161ffff161115610b5a576040805160018082528183019092529060208083019080368337019050509450600085600081518110610b4d57610b4d611108565b6020026020010181815250505b60005b855181101561093d576000610b8b8a888481518110610b7e57610b7e611108565b6020026020010151610a9f565b602081015190915061ffff1615610bf6576020810151610bba906001600160401b0386169061ffff1688610d0d565b15610bd057610bc9888a61115e565b9250610bd4565b8792505b8051831115610bf65760405163246615dd60e21b815260040160405180910390fd5b50600101610b5d565b60008061059060017f1162e821763e1a90b75e60ad1e076d131a2344e0b7a0b39fe6e169110070161561114b565b8051600a1015610c50576040516351d7d97160e11b815260040160405180910390fd5b50565b8163ffffffff168163ffffffff1611610c7f576040516325ef9da360e11b815260040160405180910390fd5b5050565b60008061059060017f57f022a955ea4a82d6829b2369e82ccc92e1e803cd0f0f5669038f7b6e994fc661114b565b60008061059060017f5387434b2d3be7a91940ea8e6fee24226ef10692fcf63e7e5c04ec47fd7f9d7961114b565b60008061059060017fb55fad9ae18bf1512bc017f51e2b8984d659cd3a8848cbaa71ef7c0999db6bd061114b565b6000816001600160401b0316600003610d2857506000610d85565b6000610d3684610e10611171565b63ffffffff16610d4f6001600160401b0387164261114b565b610d599190611199565b610d63904261114b565b905080836001600160401b031610610d7f576001915050610d85565b60009150505b9392505050565b634e487b7160e01b600052604160045260246000fd5b600082601f830112610db357600080fd5b813560206001600160401b0380831115610dcf57610dcf610d8c565b8260051b604051601f19603f83011681018181108482111715610df457610df4610d8c565b6040529384526020818701810194908101925087851115610e1457600080fd5b6020870191505b8482101561093f57813583529183019190830190610e1b565b803563ffffffff81168114610e4857600080fd5b919050565b60008060008060808587031215610e6357600080fd5b8435935060208501356001600160401b03811115610e8057600080fd5b610e8c87828801610da2565b93505060408501359150610ea260608601610e34565b905092959194509250565b600060208284031215610ebf57600080fd5b610d8582610e34565b60008060008060008060c08789031215610ee157600080fd5b610eea87610e34565b955060208701359450604087013593506060870135925060808701356001600160401b0380821115610f1b57600080fd5b610f278a838b01610da2565b935060a0890135915080821115610f3d57600080fd5b50610f4a89828a01610da2565b9150509295509295509295565b60008060408385031215610f6a57600080fd5b610f7383610e34565b946020939093013593505050565b8151815260208083015161ffff169082015260408101610590565b600080600060608486031215610fb157600080fd5b610fba84610e34565b95602085013595506040909401359392505050565b600080600080600060a08688031215610fe757600080fd5b610ff086610e34565b9450602086013593506040860135925060608601356001600160401b038082111561101a57600080fd5b61102689838a01610da2565b935060808801359150808216821461103d57600080fd5b50809150509295509295909350565b60008060008060008060008060e0898b03121561106857600080fd5b61107189610e34565b975061107f60208a01610e34565b965060408901359550606089013594506080890135935060a0890135925060c08901356001600160401b03808211156110b757600080fd5b818b0191508b601f8301126110cb57600080fd5b8135818111156110da57600080fd5b8c60208260051b85010111156110ef57600080fd5b6020830194508093505050509295985092959890939650565b634e487b7160e01b600052603260045260246000fd5b634e487b7160e01b600052601160045260246000fd5b80820281158282048414176105905761059061111e565b818103818111156105905761059061111e565b808201808211156105905761059061111e565b63ffffffff8181168382160280821691908281146111915761119161111e565b505092915050565b6000826111b657634e487b7160e01b600052601260045260246000fd5b50069056fea2646970667358221220c339f9195d71037e6052e74c3580127c8a1b531501d99dd49d5670b9b5de7c8464736f6c634300081800330000000000000000000000007109709ecfa91a80626ff3989d68f67f5b1dd12d885cb69240a935d632d79c317109709ecfa91a80626ff3989d68f67f5b1dd12d4170706c69636174696f6e4163636573734c6576656c50726f636573736f724661636574a2646970667358221220caa26db2d63a8e4e948e3c829c3024240a8ecade09e273409b9c1e254a46aaed64736f6c63430008180033","linkReferences":{}},"methodIdentifiers":{"ACCESS_LEVEL_ADMIN_ROLE()":"2bb75508","APP_ADMIN_ROLE()":"92fb9db2","MAX_ACTION_TYPES()":"32ecf38f","PROPOSED_SUPER_ADMIN_ROLE()":"90068f73","RISK_ADMIN_ROLE()":"4f16b425","RULE_BYPASS_ACCOUNT()":"57b244ca","SUPER_ADMIN_ROLE()":"4460bdd6","_addNativeFacetsToFacetCut()":"b6d61d2d","_addProcessingFacetsToFacetCut()":"ee0d93e1","_addStorageFacetsToFacetCut()":"2bf883eb","_createActionsArray()":"7017c484","_createAppHandler(address,address)":"0f8950f3","_createAppManager()":"29504804","_createERC20(string,string,address)":"b8fda8b5","_createERC20HandlerDiamond()":"e9b2331c","_createERC20HandlerSpecialized(address,address,address,address)":"27a59949","_createERC20Min(string,string,address)":"c2a933aa","_createERC20Pricing()":"d9fa63b8","_createERC721(string,string,address)":"6b6f2e1c","_createERC721HandlerDiamond()":"a13481dc","_createERC721Min(string,string,address)":"a127696b","_createERC721Pricing()":"384ef664","_createERC721Upgradeable()":"158f5caf","_createERC721UpgradeableProxy(address,address)":"72573b89","_createOracleApproved()":"d35c2681","_createOracleDenied()":"2d6246d9","_createRulesProcessorDiamond()":"635f443f","_createSelectorArray(string)":"1ef0bb40","applicationAppManager()":"5094a1a4","applicationAppManager2()":"df34f934","applicationCoin()":"2fa57211","applicationCoin2()":"aa279066","applicationCoinHandler()":"d64fce01","applicationCoinHandler2()":"fd5610c9","applicationCoinHandlerSpecialOwner()":"240b80c9","applicationHandler()":"46f0ea20","applicationHandler2()":"77998788","applicationNFT()":"fe1d7422","applicationNFT2()":"2a8be8a9","applicationNFTExtra()":"b61fc2da","applicationNFTExtra2()":"5e0de470","applicationNFTHandler()":"01db52ce","applicationNFTHandler2()":"45ecd3d7","applicationNFTHandlerv2()":"0ecc5aa8","applicationNFTProxy()":"4bd72efb","applicationNFTU()":"53224776","applicationNFTv2()":"1a6e6aba","boredReptileHandler()":"2e9f142e","boredReptilianNFT()":"3b36776d","boredWhaleHandler()":"8e6f3676","boredWhaleNFT()":"8cf68e1b","createActionTypeArray(uint8)":"ed356d30","createActionTypeArray(uint8,uint8)":"ebb03539","createActionTypeArray(uint8,uint8,uint8)":"4364c188","createActionTypeArray(uint8,uint8,uint8,uint8)":"318b2a03","createActionTypeArray(uint8,uint8,uint8,uint8,uint8)":"d4722d85","createAddressArray(address)":"27ec859a","createAddressArray(address,address)":"dd48b7e0","createAddressArray(address,address,address)":"00bd4496","createAppManager(address)":"bd6b2dcb","createBytes32Array(bytes32)":"1253b968","createBytes32Array(bytes32,bytes32)":"2dbda825","createBytes32Array(bytes32,bytes32,bytes32)":"8996c908","createBytes32Array(bytes32,bytes32,bytes32,bytes32,bytes32,bytes32,bytes32,bytes32)":"b1301915","createRulesProcessorDiamond()":"b255811f","createUint16Array(uint16)":"cde38130","createUint16Array(uint16,uint16)":"4304b334","createUint16Array(uint16,uint16,uint16)":"d2321ba5","createUint192Array(uint192)":"a0304cf9","createUint192Array(uint192,uint192)":"64a20419","createUint192Array(uint192,uint192,uint192)":"ddaaedbe","createUint256Array(uint256)":"9f6bffeb","createUint256Array(uint256,uint256)":"8046a73b","createUint256Array(uint256,uint256,uint256)":"6dbf3156","createUint48Array(uint48)":"67e9f325","createUint48Array(uint48,uint48)":"65bd85a2","createUint48Array(uint48,uint48,uint48)":"0393fe57","createUint48Array(uint48,uint48,uint48,uint48)":"3800a612","createUint48Array(uint48,uint48,uint48,uint48,uint48)":"eade366d","createUint64Array(uint64)":"06d22ff1","createUint64Array(uint64,uint64)":"550adcfc","createUint64Array(uint64,uint64,uint64)":"c5345540","createUint64Array(uint64,uint64,uint64,uint64)":"108cf90d","createUint64Array(uint64,uint64,uint64,uint64,uint64)":"d09de676","createUint8Array(uint8)":"f181ca4e","createUint8Array(uint8,uint8)":"f4d63fed","createUint8Array(uint8,uint8,uint8)":"7fee3e69","createUint8Array(uint8,uint8,uint8,uint8)":"a6c21657","createUint8Array(uint8,uint8,uint8,uint8,uint8)":"c76f4554","erc20Pricer()":"dfcdb115","erc721Pricer()":"e42d2dc2","excludeArtifacts()":"b5508aa9","excludeContracts()":"e20c9f71","excludeSenders()":"1ed7831c","exists(address,address[])":"b2f897f7","failed()":"ba414fa6","getUniqueAddresses(uint256,uint8)":"2cb366bf","invariant_ApproveAddressToTradingListAlreadyApproved()":"4c015e9e","invariant_ApproveAddressToTradingListEmitsEvent()":"4cee6873","invariant_ApproveAddressToTradingListNotPreviouslyRegistered()":"0b29adfc","invariant_ApproveAddressToTradingListOnlyAppAdmin()":"fe2fa9e6","invariant_CheckApplicationRulesOnlyRegisteredHandler()":"f0e695b4","invariant_ConfirmAppManagerAppAdminOnly()":"203d2449","invariant_ConfirmDataContractMigrationAppAdminOnly()":"f487d401","invariant_ConfirmDataContractMigrationEmitsEvent()":"c394b8fb","invariant_ConfirmNewDataProviderEmitsEventAccessLevel()":"7be4d8ff","invariant_ConfirmNewDataProviderEmitsEventAccount()":"1bd688d3","invariant_ConfirmNewDataProviderEmitsEventPauseRule()":"716d5b01","invariant_ConfirmNewDataProviderEmitsEventRiskScore()":"cf1ff78c","invariant_ConfirmNewDataProviderEmitsEventTag()":"5b17decc","invariant_DeRegisterAMMOnlyAppAdmin()":"67ca11a6","invariant_DeRegisterAMMPreviouslyRegistered()":"c72b4956","invariant_DeRegisterTokenAlwaysEmitsEvent()":"12a1029b","invariant_DeRegisterTokenOnlyAppAdmin()":"b3228677","invariant_DeRegisterTokenPreviouslyRegistered()":"643adc2e","invariant_DeRegisterTreasuryOnlyAppAdmin()":"2a5b832d","invariant_DeRegisterTreasuryPreviouslyRegistered()":"7da033b0","invariant_NewApplicationHandlerAddressEmitsEvent()":"7873dae6","invariant_NewApplicationHandlerAddressOnlyAppAdmin()":"6471c2ed","invariant_NewApplicationHandlerAddressZeroAddressNotAllowed()":"e188e319","invariant_ProposeDataContractMigrationEmitsEvent()":"2673f768","invariant_ProposeDataContractMigrationOnlyAppAdmin()":"000e7232","invariant_RegisterAMMOnlyAppAdmin()":"44ee7bef","invariant_RegisterAMMZeroAddressNotAllowed()":"1f6e4a09","invariant_RegisterTokenOnlyAppAdmin()":"dde97b0c","invariant_RegisterTokenZeroAddressNotAllowed()":"eeb4745c","invariant_RegisterTreasuryEmitsEvent()":"70303a10","invariant_RegisterTreasuryOnlyAppAdmin()":"807d09f4","invariant_SetAppNameOnlyAppAdmin()":"0cb7eb62","minimalCoin()":"4b5b1bd6","minimalNFT()":"44ede7da","openOcean()":"70a04485","oracleApproved()":"617ab3dd","oracleDenied()":"d2dcf398","ruleProcessor()":"4ad91cf9","setUp()":"0a9254e4","setUpProcotolAndCreateERC20AndDiamondHandler()":"7887f9cc","setUpProcotolAndCreateERC20AndHandlerSpecialOwner()":"8c98c031","setUpProcotolAndCreateERC20MinAndDiamondHandler()":"0c128aa1","setUpProcotolAndCreateERC721MinAndDiamondHandler()":"e4cfc50c","setUpProtocol()":"a8b17a2d","setUpProtocolAndAppManager()":"bc4cf117","setUpProtocolAndAppManagerAndPricingAndTokens()":"ce486433","setUpProtocolAndAppManagerAndTokensUpgradeable()":"50775f92","setUpProtocolAndAppManagerAndTokensWithERC721HandlerDiamond()":"c40c3787","switchToAccessLevelAdmin()":"0db1b262","switchToAppAdministrator()":"70cde59e","switchToNewAdmin()":"58707ce0","switchToRiskAdmin()":"dccb059d","switchToRuleAdmin()":"bff7f8d6","switchToRuleBypassAccount()":"6bba5c64","switchToSuperAdmin()":"11b47278","switchToUser()":"49b15962","targetArtifactSelectors()":"66d9a9a0","targetArtifacts()":"85226c81","targetContracts()":"3f7286f4","targetInterfaces()":"2ade3880","targetSelectors()":"916a17c6","targetSenders()":"3e5e3c23","testDeployments()":"433175fa"},"id":251}