{"abi":[{"type":"function","name":"checkAccountApproveDenyOracles","inputs":[{"name":"_rules","type":"tuple[]","internalType":"struct Rule[]","components":[{"name":"ruleId","type":"uint32","internalType":"uint32"},{"name":"active","type":"bool","internalType":"bool"}]},{"name":"_address","type":"address","internalType":"address"}],"outputs":[],"stateMutability":"view"},{"type":"function","name":"checkTokenMaxBuyVolume","inputs":[{"name":"ruleId","type":"uint32","internalType":"uint32"},{"name":"currentTotalSupply","type":"uint256","internalType":"uint256"},{"name":"amountToTransfer","type":"uint256","internalType":"uint256"},{"name":"lastPurchaseTime","type":"uint64","internalType":"uint64"},{"name":"boughtInPeriod","type":"uint256","internalType":"uint256"}],"outputs":[{"name":"","type":"uint256","internalType":"uint256"}],"stateMutability":"view"},{"type":"function","name":"checkTokenMaxSellVolume","inputs":[{"name":"ruleId","type":"uint32","internalType":"uint32"},{"name":"currentTotalSupply","type":"uint256","internalType":"uint256"},{"name":"amountToTransfer","type":"uint256","internalType":"uint256"},{"name":"lastSellTime","type":"uint64","internalType":"uint64"},{"name":"soldWithinPeriod","type":"uint256","internalType":"uint256"}],"outputs":[{"name":"","type":"uint256","internalType":"uint256"}],"stateMutability":"view"},{"type":"function","name":"checkTokenMaxSupplyVolatility","inputs":[{"name":"_ruleId","type":"uint32","internalType":"uint32"},{"name":"_volumeTotalForPeriod","type":"int256","internalType":"int256"},{"name":"_tokenTotalSupply","type":"uint256","internalType":"uint256"},{"name":"_supply","type":"uint256","internalType":"uint256"},{"name":"_amount","type":"int256","internalType":"int256"},{"name":"_lastSupplyUpdateTime","type":"uint64","internalType":"uint64"}],"outputs":[{"name":"","type":"int256","internalType":"int256"},{"name":"","type":"uint256","internalType":"uint256"}],"stateMutability":"view"},{"type":"function","name":"checkTokenMaxTradingVolume","inputs":[{"name":"_ruleId","type":"uint32","internalType":"uint32"},{"name":"_volume","type":"uint256","internalType":"uint256"},{"name":"_supply","type":"uint256","internalType":"uint256"},{"name":"_amount","type":"uint256","internalType":"uint256"},{"name":"_lastTransferTime","type":"uint64","internalType":"uint64"}],"outputs":[{"name":"","type":"uint256","internalType":"uint256"}],"stateMutability":"view"},{"type":"function","name":"checkTokenMinTxSize","inputs":[{"name":"_ruleId","type":"uint32","internalType":"uint32"},{"name":"amountToTransfer","type":"uint256","internalType":"uint256"}],"outputs":[],"stateMutability":"view"},{"type":"function","name":"getAccountApproveDenyOracle","inputs":[{"name":"_index","type":"uint32","internalType":"uint32"}],"outputs":[{"name":"","type":"tuple","internalType":"struct INonTaggedRules.AccountApproveDenyOracle","components":[{"name":"oracleType","type":"uint8","internalType":"uint8"},{"name":"oracleAddress","type":"address","internalType":"address"}]}],"stateMutability":"view"},{"type":"function","name":"getTokenMaxBuyVolume","inputs":[{"name":"_index","type":"uint32","internalType":"uint32"}],"outputs":[{"name":"","type":"tuple","internalType":"struct INonTaggedRules.TokenMaxBuyVolume","components":[{"name":"tokenPercentage","type":"uint16","internalType":"uint16"},{"name":"period","type":"uint16","internalType":"uint16"},{"name":"totalSupply","type":"uint256","internalType":"uint256"},{"name":"startTime","type":"uint64","internalType":"uint64"}]}],"stateMutability":"view"},{"type":"function","name":"getTokenMaxSellVolume","inputs":[{"name":"_index","type":"uint32","internalType":"uint32"}],"outputs":[{"name":"","type":"tuple","internalType":"struct INonTaggedRules.TokenMaxSellVolume","components":[{"name":"tokenPercentage","type":"uint16","internalType":"uint16"},{"name":"period","type":"uint16","internalType":"uint16"},{"name":"totalSupply","type":"uint256","internalType":"uint256"},{"name":"startTime","type":"uint64","internalType":"uint64"}]}],"stateMutability":"view"},{"type":"function","name":"getTokenMaxSupplyVolatility","inputs":[{"name":"_index","type":"uint32","internalType":"uint32"}],"outputs":[{"name":"","type":"tuple","internalType":"struct INonTaggedRules.TokenMaxSupplyVolatility","components":[{"name":"max","type":"uint16","internalType":"uint16"},{"name":"period","type":"uint16","internalType":"uint16"},{"name":"startTime","type":"uint64","internalType":"uint64"},{"name":"totalSupply","type":"uint256","internalType":"uint256"}]}],"stateMutability":"view"},{"type":"function","name":"getTokenMaxTradingVolume","inputs":[{"name":"_index","type":"uint32","internalType":"uint32"}],"outputs":[{"name":"","type":"tuple","internalType":"struct INonTaggedRules.TokenMaxTradingVolume","components":[{"name":"max","type":"uint24","internalType":"uint24"},{"name":"period","type":"uint16","internalType":"uint16"},{"name":"startTime","type":"uint64","internalType":"uint64"},{"name":"totalSupply","type":"uint256","internalType":"uint256"}]}],"stateMutability":"view"},{"type":"function","name":"getTokenMinTxSize","inputs":[{"name":"_index","type":"uint32","internalType":"uint32"}],"outputs":[{"name":"","type":"tuple","internalType":"struct INonTaggedRules.TokenMinTxSize","components":[{"name":"minSize","type":"uint256","internalType":"uint256"}]}],"stateMutability":"view"},{"type":"function","name":"getTotalAccountApproveDenyOracle","inputs":[],"outputs":[{"name":"","type":"uint32","internalType":"uint32"}],"stateMutability":"view"},{"type":"function","name":"getTotalTokenMaxBuyVolume","inputs":[],"outputs":[{"name":"","type":"uint32","internalType":"uint32"}],"stateMutability":"view"},{"type":"function","name":"getTotalTokenMaxSellVolume","inputs":[],"outputs":[{"name":"","type":"uint32","internalType":"uint32"}],"stateMutability":"view"},{"type":"function","name":"getTotalTokenMaxSupplyVolatility","inputs":[],"outputs":[{"name":"","type":"uint32","internalType":"uint32"}],"stateMutability":"view"},{"type":"function","name":"getTotalTokenMaxTradingVolume","inputs":[],"outputs":[{"name":"","type":"uint32","internalType":"uint32"}],"stateMutability":"view"},{"type":"function","name":"getTotalTokenMinTxSize","inputs":[],"outputs":[{"name":"","type":"uint32","internalType":"uint32"}],"stateMutability":"view"},{"type":"error","name":"AddressIsDenied","inputs":[]},{"type":"error","name":"AddressNotApproved","inputs":[]},{"type":"error","name":"CantMixPeriodicAndNonPeriodic","inputs":[]},{"type":"error","name":"IndexOutOfRange","inputs":[]},{"type":"error","name":"InputArraysMustHaveSameLength","inputs":[]},{"type":"error","name":"InputArraysSizesNotValid","inputs":[]},{"type":"error","name":"InvalidOracleType","inputs":[{"name":"_type","type":"uint8","internalType":"uint8"}]},{"type":"error","name":"InvalidRuleInput","inputs":[]},{"type":"error","name":"InvertedLimits","inputs":[]},{"type":"error","name":"NotEnoughBalance","inputs":[]},{"type":"error","name":"OracleTypeInvalid","inputs":[]},{"type":"error","name":"OverMaxBuyVolume","inputs":[]},{"type":"error","name":"OverMaxSellVolume","inputs":[]},{"type":"error","name":"OverMaxSupplyVolatility","inputs":[]},{"type":"error","name":"OverMaxTradingVolume","inputs":[]},{"type":"error","name":"RuleDoesNotExist","inputs":[]},{"type":"error","name":"RuleDoesNotExist","inputs":[]},{"type":"error","name":"UnderMinTxSize","inputs":[]},{"type":"error","name":"ValueOutOfRange","inputs":[{"name":"_value","type":"uint256","internalType":"uint256"}]},{"type":"error","name":"WrongArrayOrder","inputs":[]},{"type":"error","name":"ZeroValueNotPermited","inputs":[]}],"bytecode":{"object":"0x608060405234801561001057600080fd5b5061126a806100206000396000f3fe608060405234801561001057600080fd5b50600436106101165760003560e01c80637f0cbc73116100a2578063b110cd2911610071578063b110cd29146102b5578063b55dc369146102c8578063bf218dfa146102ea578063d7cf23a0146102fd578063fd2cda1a1461033757600080fd5b80637f0cbc7314610236578063989b5b6a1461023e578063a300349614610246578063a9d07d3e1461025957600080fd5b806343646c4e116100e957806343646c4e14610186578063517c80181461019957806365250ad4146101ae5780637010de6614610206578063758a4a3a1461020e57600080fd5b8063034ac11d1461011b5780630700fa6b14610141578063424e76751461015e57806342d966f414610166575b600080fd5b61012e610129366004610dcd565b61033f565b6040519081526020015b60405180910390f35b610149610411565b60405163ffffffff9091168152602001610138565b61014961042c565b610179610174366004610e1d565b610437565b6040516101389190610e38565b610179610194366004610e1d565b6104de565b6101ac6101a7366004610e78565b610517565b005b6101c16101bc366004610e1d565b61054e565b6040516101389190815162ffffff16815260208083015161ffff16908201526040808301516001600160401b0316908201526060918201519181019190915260800190565b6101496105ee565b61022161021c366004610ea2565b6105f9565b60408051928352602083019190915201610138565b610149610700565b61014961070b565b61012e610254366004610efa565b610716565b61026c610267366004610e1d565b6107d7565b6040516101389190600060808201905061ffff808451168352806020850151166020840152506001600160401b0360408401511660408301526060830151606083015292915050565b6101ac6102c3366004610fde565b610872565b6102db6102d6366004610e1d565b6108d0565b60405190518152602001610138565b61012e6102f8366004610efa565b61091e565b61031061030b366004610e1d565b6109d1565b60408051825160ff1681526020928301516001600160a01b03169281019290925201610138565b610149610a3e565b60008061034b8761054e565b905061036381604001516001600160401b0316610a49565b1561040657610392816020015161ffff168483604001516001600160401b0316610a709092919063ffffffff16565b61039c57836103a6565b6103a684876110e0565b955080606001516000146103bc57806060015194505b80516103d0906127109062ffffff166110f3565b856103df6305f5e100896110f3565b6103e99190611120565b1061040657604051624ed06760e11b815260040160405180910390fd5b509395945050505050565b60008061041c610aef565b6001015463ffffffff1692915050565b60008061041c610b23565b604080516080810182526000808252602082018190529181018290526060810191909152610476610466610700565b63ffffffff8085169190610b5116565b6000610480610b81565b63ffffffff909316600090815260209384526040908190208151608081018352815461ffff8082168352620100009091041695810195909552600181015491850191909152600201546001600160401b031660608401525090919050565b60408051608081018252600080825260208201819052918101829052606081019190915261050d6104666105ee565b6000610480610baf565b6000610522836108d0565b9050818160000151111561054957604051637a78c90160e01b815260040160405180910390fd5b505050565b60408051608081018252600080825260208201819052918101829052606081019190915261057d61046661070b565b6000610587610bdd565b63ffffffff93909316600090815260209384526040908190208151608081018352815462ffffff811682526301000000810461ffff1696820196909652650100000000009095046001600160401b0316918501919091526001015460608401525090919050565b60008061041c610baf565b6000806000806106088a6107d7565b905061062081604001516001600160401b0316610a49565b156106f05760608101511561063757806060015196505b87600003610643578697505b61066d816020015161ffff168683604001516001600160401b0316610a709092919063ffffffff16565b156106835761067c868a611134565b985061068a565b8598508697505b876106996305f5e1008b61115c565b6106a3919061118c565b915060008212156106bd576106ba8260001961115c565b91505b80516106d0906127109061ffff166110f3565b8211156106f057604051630c406d4760e41b815260040160405180910390fd5b5096989597509495505050505050565b60008061041c610b81565b60008061041c610bdd565b60008061072287610437565b90506000610750826020015161ffff168684606001516001600160401b0316610a709092919063ffffffff16565b61075a5785610764565b61076484876110e0565b90506000826040015160001461077e578260400151610780565b875b9050600081610791612710856110f3565b61079b9190611120565b9050836000015161ffff168161ffff16106107c957604051631a91b47d60e21b815260040160405180910390fd5b509098975050505050505050565b604080516080810182526000808252602082018190529181018290526060810191909152610806610466610a3e565b6000610810610c0b565b63ffffffff93909316600090815260209384526040908190208151608081018352815461ffff808216835262010000820416968201969096526401000000009095046001600160401b0316918501919091526001015460608401525090919050565b60005b825181101561054957828181518110610890576108906111ba565b602002602001015160200151156108c8576108c88382815181106108b6576108b66111ba565b60200260200101516000015183610c39565b600101610875565b6040805160208101909152600081526108ea61046661042c565b60006108f4610b23565b63ffffffff9093166000908152602093845260409081902081519485019091525483525090919050565b60008061092a876104de565b90506000610958826020015161ffff168684606001516001600160401b0316610a709092919063ffffffff16565b610962578561096c565b61096c84876110e0565b905060008260400151600014610986578260400151610988565b875b9050600081610999612710856110f3565b6109a39190611120565b9050836000015161ffff168161ffff16106107c95760405163806a339160e01b815260040160405180910390fd5b60408051808201909152600080825260208201526109f0610466610411565b60006109fa610aef565b63ffffffff9093166000908152602093845260409081902081518083019092525460ff811682526001600160a01b0361010090910416938101939093525090919050565b60008061041c610c0b565b600042826001600160401b031611610a6357506001919050565b506000919050565b919050565b6000816001600160401b0316600003610a8b57506000610ae8565b6000610a9984610e106111d0565b63ffffffff16610ab26001600160401b038716426111f0565b610abc9190611203565b610ac690426111f0565b905080836001600160401b031610610ae2576001915050610ae8565b60009150505b9392505050565b600080610b1d60017f393520d3a7ae2d5ebb865efe7c253600ffe7f63536515bbd509b4936416fc46c6111f0565b92915050565b600080610b1d60017fdc15be84837e6adc6cb93c079465be8e43c2ac54b75e2a73d79900c1c9f9c9c56111f0565b8163ffffffff168163ffffffff1611610b7d576040516325ef9da360e11b815260040160405180910390fd5b5050565b600080610b1d60017f25a585c2e8f7fa7b14633f4226915cea53b2c82875c542bdc3e0d9112ee62c086111f0565b600080610b1d60017f36a6b5e1dcad62c6cb5da92222f5f227370563aad6447813d73230d0fad88f746111f0565b600080610b1d60017f7ec0480b9860da71df40eeba9d55d11a6e64e9befe36fdfcdb7f8f7bb7dae19c6111f0565b600080610b1d60017fe933e4fa004729344ad93dde4bd94d0b881b307b0cca199749c0ad3af24291996111f0565b6000610c44836109d1565b8051602082015191925060ff169060018203610cf5576001600160a01b03841615610cf05760405163673448dd60e01b81526001600160a01b03858116600483015282169063673448dd90602401602060405180830381865afa158015610caf573d6000803e3d6000fd5b505050506040513d601f19601f82011682018060405250810190610cd39190611217565b610cf05760405163657e998b60e11b815260040160405180910390fd5b610d9b565b81610d825760405163e838dfbb60e01b81526001600160a01b03858116600483015282169063e838dfbb90602401602060405180830381865afa158015610d40573d6000803e3d6000fd5b505050506040513d601f19601f82011682018060405250810190610d649190611217565b15610cf0576040516309d9ef6960e21b815260040160405180910390fd5b60405163150aa48f60e11b815260040160405180910390fd5b5050505050565b803563ffffffff81168114610a6b57600080fd5b80356001600160401b0381168114610a6b57600080fd5b600080600080600060a08688031215610de557600080fd5b610dee86610da2565b9450602086013593506040860135925060608601359150610e1160808701610db6565b90509295509295909350565b600060208284031215610e2f57600080fd5b610ae882610da2565b60808101610b1d828461ffff80825116835280602083015116602084015250604081015160408301526001600160401b0360608201511660608301525050565b60008060408385031215610e8b57600080fd5b610e9483610da2565b946020939093013593505050565b60008060008060008060c08789031215610ebb57600080fd5b610ec487610da2565b955060208701359450604087013593506060870135925060808701359150610eee60a08801610db6565b90509295509295509295565b600080600080600060a08688031215610f1257600080fd5b610f1b86610da2565b94506020860135935060408601359250610f3760608701610db6565b949793965091946080013592915050565b634e487b7160e01b600052604160045260246000fd5b604080519081016001600160401b0381118282101715610f8057610f80610f48565b60405290565b604051601f8201601f191681016001600160401b0381118282101715610fae57610fae610f48565b604052919050565b8015158114610fc457600080fd5b50565b80356001600160a01b0381168114610a6b57600080fd5b6000806040808486031215610ff257600080fd5b83356001600160401b038082111561100957600080fd5b818601915086601f83011261101d57600080fd5b813560208282111561103157611031610f48565b61103f818360051b01610f86565b828152818101935060069290921b84018101918983111561105f57600080fd5b938101935b828510156110af5785858b03121561107c5760008081fd5b611084610f5e565b61108d86610da2565b81528286013561109c81610fb6565b8184015284529385019392810192611064565b96506110bc888201610fc7565b955050505050509250929050565b634e487b7160e01b600052601160045260246000fd5b80820180821115610b1d57610b1d6110ca565b8082028115828204841417610b1d57610b1d6110ca565b634e487b7160e01b600052601260045260246000fd5b60008261112f5761112f61110a565b500490565b8082018281126000831280158216821582161715611154576111546110ca565b505092915050565b80820260008212600160ff1b84141615611178576111786110ca565b8181058314821517610b1d57610b1d6110ca565b60008261119b5761119b61110a565b600160ff1b8214600019841416156111b5576111b56110ca565b500590565b634e487b7160e01b600052603260045260246000fd5b63ffffffff818116838216028082169190828114611154576111546110ca565b81810381811115610b1d57610b1d6110ca565b6000826112125761121261110a565b500690565b60006020828403121561122957600080fd5b8151610ae881610fb656fea2646970667358221220ead86dfc3c389b62bc2e287f50ecf73f1c3daad67236d1d7d6297a512973670164736f6c63430008180033","linkReferences":{}},"methodIdentifiers":{"checkAccountApproveDenyOracles((uint32,bool)[],address)":"b110cd29","checkTokenMaxBuyVolume(uint32,uint256,uint256,uint64,uint256)":"a3003496","checkTokenMaxSellVolume(uint32,uint256,uint256,uint64,uint256)":"bf218dfa","checkTokenMaxSupplyVolatility(uint32,int256,uint256,uint256,int256,uint64)":"758a4a3a","checkTokenMaxTradingVolume(uint32,uint256,uint256,uint256,uint64)":"034ac11d","checkTokenMinTxSize(uint32,uint256)":"517c8018","getAccountApproveDenyOracle(uint32)":"d7cf23a0","getTokenMaxBuyVolume(uint32)":"42d966f4","getTokenMaxSellVolume(uint32)":"43646c4e","getTokenMaxSupplyVolatility(uint32)":"a9d07d3e","getTokenMaxTradingVolume(uint32)":"65250ad4","getTokenMinTxSize(uint32)":"b55dc369","getTotalAccountApproveDenyOracle()":"0700fa6b","getTotalTokenMaxBuyVolume()":"7f0cbc73","getTotalTokenMaxSellVolume()":"7010de66","getTotalTokenMaxSupplyVolatility()":"fd2cda1a","getTotalTokenMaxTradingVolume()":"989b5b6a","getTotalTokenMinTxSize()":"424e7675"},"id":231}