{"abi":[{"type":"function","name":"activateAccountMaxBuySize","inputs":[{"name":"_on","type":"bool","internalType":"bool"}],"outputs":[],"stateMutability":"nonpayable"},{"type":"function","name":"activateAccountMaxSellSize","inputs":[{"name":"_on","type":"bool","internalType":"bool"}],"outputs":[],"stateMutability":"nonpayable"},{"type":"function","name":"activateTokenMaxBuyVolume","inputs":[{"name":"_on","type":"bool","internalType":"bool"}],"outputs":[],"stateMutability":"nonpayable"},{"type":"function","name":"activateTokenMaxSellVolume","inputs":[{"name":"_on","type":"bool","internalType":"bool"}],"outputs":[],"stateMutability":"nonpayable"},{"type":"function","name":"checkTradingRules","inputs":[{"name":"_from","type":"address","internalType":"address"},{"name":"_to","type":"address","internalType":"address"},{"name":"fromTags","type":"bytes32[]","internalType":"bytes32[]"},{"name":"toTags","type":"bytes32[]","internalType":"bytes32[]"},{"name":"_amount","type":"uint256","internalType":"uint256"},{"name":"action","type":"uint8","internalType":"enum ActionTypes"}],"outputs":[],"stateMutability":"nonpayable"},{"type":"function","name":"getAccountMaxBuySizeId","inputs":[],"outputs":[{"name":"","type":"uint32","internalType":"uint32"}],"stateMutability":"view"},{"type":"function","name":"getAccountMaxSellSizeId","inputs":[],"outputs":[{"name":"","type":"uint32","internalType":"uint32"}],"stateMutability":"view"},{"type":"function","name":"getTokenMaxBuyVolumeId","inputs":[],"outputs":[{"name":"","type":"uint32","internalType":"uint32"}],"stateMutability":"view"},{"type":"function","name":"getTokenMaxSellVolumeId","inputs":[],"outputs":[{"name":"","type":"uint32","internalType":"uint32"}],"stateMutability":"view"},{"type":"function","name":"isAccountMaxBuySizeActive","inputs":[],"outputs":[{"name":"","type":"bool","internalType":"bool"}],"stateMutability":"view"},{"type":"function","name":"isAccountMaxSellSizeActive","inputs":[],"outputs":[{"name":"","type":"bool","internalType":"bool"}],"stateMutability":"view"},{"type":"function","name":"isTokenMaxBuyVolumeActive","inputs":[],"outputs":[{"name":"","type":"bool","internalType":"bool"}],"stateMutability":"view"},{"type":"function","name":"isTokenMaxSellVolumeActive","inputs":[],"outputs":[{"name":"","type":"bool","internalType":"bool"}],"stateMutability":"view"},{"type":"function","name":"setAccountMaxBuySizeId","inputs":[{"name":"_ruleId","type":"uint32","internalType":"uint32"}],"outputs":[],"stateMutability":"nonpayable"},{"type":"function","name":"setAccountMaxBuySizeIdFull","inputs":[{"name":"_actions","type":"uint8[]","internalType":"enum ActionTypes[]"},{"name":"_ruleIds","type":"uint32[]","internalType":"uint32[]"}],"outputs":[],"stateMutability":"nonpayable"},{"type":"function","name":"setAccountMaxSellSizeId","inputs":[{"name":"_ruleId","type":"uint32","internalType":"uint32"}],"outputs":[],"stateMutability":"nonpayable"},{"type":"function","name":"setAccountMaxSellSizeIdFull","inputs":[{"name":"_actions","type":"uint8[]","internalType":"enum ActionTypes[]"},{"name":"_ruleIds","type":"uint32[]","internalType":"uint32[]"}],"outputs":[],"stateMutability":"nonpayable"},{"type":"function","name":"setTokenMaxBuyVolumeId","inputs":[{"name":"_ruleId","type":"uint32","internalType":"uint32"}],"outputs":[],"stateMutability":"nonpayable"},{"type":"function","name":"setTokenMaxBuyVolumeIdFull","inputs":[{"name":"_actions","type":"uint8[]","internalType":"enum ActionTypes[]"},{"name":"_ruleIds","type":"uint32[]","internalType":"uint32[]"}],"outputs":[],"stateMutability":"nonpayable"},{"type":"function","name":"setTokenMaxSellVolumeId","inputs":[{"name":"_ruleId","type":"uint32","internalType":"uint32"}],"outputs":[],"stateMutability":"nonpayable"},{"type":"function","name":"setTokenMaxSellVolumeIdFull","inputs":[{"name":"_actions","type":"uint8[]","internalType":"enum ActionTypes[]"},{"name":"_ruleIds","type":"uint32[]","internalType":"uint32[]"}],"outputs":[],"stateMutability":"nonpayable"},{"type":"event","name":"AD1467_AppManagerAddressProposed","inputs":[{"name":"_address","type":"address","indexed":true,"internalType":"address"}],"anonymous":false},{"type":"event","name":"AD1467_AppManagerAddressSet","inputs":[{"name":"_address","type":"address","indexed":true,"internalType":"address"}],"anonymous":false},{"type":"event","name":"AD1467_ApplicationHandlerActionActivated","inputs":[{"name":"ruleType","type":"bytes32","indexed":true,"internalType":"bytes32"},{"name":"actions","type":"uint8[]","indexed":false,"internalType":"enum ActionTypes[]"}],"anonymous":false},{"type":"event","name":"AD1467_ApplicationHandlerActionApplied","inputs":[{"name":"ruleType","type":"bytes32","indexed":true,"internalType":"bytes32"},{"name":"action","type":"uint8","indexed":true,"internalType":"enum ActionTypes"},{"name":"ruleId","type":"uint32","indexed":true,"internalType":"uint32"}],"anonymous":false},{"type":"event","name":"AD1467_ApplicationHandlerActionAppliedFull","inputs":[{"name":"ruleType","type":"bytes32","indexed":true,"internalType":"bytes32"},{"name":"actions","type":"uint8[]","indexed":false,"internalType":"enum ActionTypes[]"},{"name":"ruleIds","type":"uint32[]","indexed":false,"internalType":"uint32[]"}],"anonymous":false},{"type":"event","name":"AD1467_ApplicationHandlerActionDeactivated","inputs":[{"name":"ruleType","type":"bytes32","indexed":true,"internalType":"bytes32"},{"name":"actions","type":"uint8[]","indexed":false,"internalType":"enum ActionTypes[]"}],"anonymous":false},{"type":"event","name":"AD1467_ERC721AddressSet","inputs":[{"name":"_address","type":"address","indexed":true,"internalType":"address"}],"anonymous":false},{"type":"event","name":"AD1467_FeeActivationSet","inputs":[{"name":"_activation","type":"bool","indexed":true,"internalType":"bool"}],"anonymous":false},{"type":"event","name":"AD1467_NFTValuationLimitUpdated","inputs":[{"name":"nftValuationLimit","type":"uint256","indexed":true,"internalType":"uint256"}],"anonymous":false},{"type":"error","name":"AccountApproveDenyOraclesPerAssetLimitReached","inputs":[]},{"type":"error","name":"AppManagerNotConnected","inputs":[]},{"type":"error","name":"BatchMintBurnNotSupported","inputs":[]},{"type":"error","name":"BelowMinAdminThreshold","inputs":[]},{"type":"error","name":"CannotTurnOffAccountDenyForNoAccessLevelWhileActive","inputs":[]},{"type":"error","name":"FeesAreGreaterThanTransactionAmount","inputs":[{"name":"","type":"address","internalType":"address"}]},{"type":"error","name":"InputArraysMustHaveSameLength","inputs":[]},{"type":"error","name":"InputArraysSizesNotValid","inputs":[]},{"type":"error","name":"InvalidAction","inputs":[]},{"type":"error","name":"NotAppAdministrator","inputs":[]},{"type":"error","name":"NotAppAdministratorOrOwner","inputs":[]},{"type":"error","name":"NotRuleAdministrator","inputs":[]},{"type":"error","name":"NotSuperAdmin","inputs":[{"name":"","type":"address","internalType":"address"}]},{"type":"error","name":"PeriodExceeds5Years","inputs":[]},{"type":"error","name":"ZeroValueNotPermited","inputs":[]},{"type":"error","name":"actionCheckFailed","inputs":[]}],"bytecode":{"object":"0x608060405234801561001057600080fd5b50612498806100206000396000f3fe608060405234801561001057600080fd5b50600436106101375760003560e01c8063acd95d8e116100b8578063dc014d001161007c578063dc014d0014610259578063e0ce0c0914610261578063e68e08a714610274578063efefd60e14610181578063f11da4df14610287578063f27279b71461016457600080fd5b8063acd95d8e14610205578063ad87bfbe14610218578063c307524b1461022b578063d48d6d091461023e578063d874686f1461024657600080fd5b80636790eb61116100ff5780636790eb61146101b157806388011f0e146101c45780638ca023aa146101d7578063956813fc146101ea5780639e86fabd146101fd57600080fd5b806301e519fb1461013c578063129c48e6146101515780632c57a58a146101645780633ebb5dbb1461018157806364f197ea1461019e575b600080fd5b61014f61014a366004611f53565b61028f565b005b61014f61015f366004611fc0565b6103a1565b61016c610568565b60405190151581526020015b60405180910390f35b610189610582565b60405163ffffffff9091168152602001610178565b61014f6101ac366004611fc0565b610598565b61014f6101bf36600461203c565b610750565b61014f6101d2366004611fc0565b61092f565b61014f6101e5366004611f53565b610ae7565b61014f6101f8366004611f53565b610bfa565b610189610d0d565b61014f61021336600461203c565b610d17565b61014f610226366004611fc0565b610edc565b61014f61023936600461203c565b611093565b61016c611258565b61014f610254366004612132565b611262565b610189611786565b61014f61026f366004611f53565b611790565b61014f61028236600461203c565b61190c565b61016c611acf565b610297611ad9565b600201546001600160a01b0316806102c2576040516371724ffd60e01b815260040160405180910390fd5b806001600160a01b03811663d4a7db7f336040516001600160e01b031960e084901b1681526001600160a01b039091166004820152602401602060405180830381865afa158015610317573d6000803e3d6000fd5b505050506040513d601f19601f8201168201806040525081019061033b91906121cf565b61035857604051631acd860160e31b815260040160405180910390fd5b610363600184611b0d565b63ffffffff83166001604051734143434f554e545f4d41585f4255595f53495a4560601b9060008051602061242383398151915290600090a4505050565b6103a9611ad9565b600201546001600160a01b0316806103d4576040516371724ffd60e01b815260040160405180910390fd5b806001600160a01b03811663d4a7db7f336040516001600160e01b031960e084901b1681526001600160a01b039091166004820152602401602060405180830381865afa158015610429573d6000803e3d6000fd5b505050506040513d601f19601f8201168201806040525081019061044d91906121cf565b61046a57604051631acd860160e31b815260040160405180910390fd5b600085900361048c57604051633f4ab26f60e21b815260040160405180910390fd5b8483146104ab5760405162514d8b60e31b815260040160405180910390fd5b6104b3611bd7565b60005b8581101561051c576105148787838181106104d3576104d3612202565b90506020020160208101906104e89190612218565b8686848181106104fa576104fa612202565b905060200201602081019061050f9190611f53565b611b0d565b6001016104b6565b50734143434f554e545f4d41585f4255595f53495a4560601b60008051602061244383398151915287878787604051610558949392919061225c565b60405180910390a2505050505050565b6000610572611c1a565b54600160201b900460ff16919050565b600061058c611c1a565b5463ffffffff16919050565b6105a0611ad9565b600201546001600160a01b0316806105cb576040516371724ffd60e01b815260040160405180910390fd5b806001600160a01b03811663d4a7db7f336040516001600160e01b031960e084901b1681526001600160a01b039091166004820152602401602060405180830381865afa158015610620573d6000803e3d6000fd5b505050506040513d601f19601f8201168201806040525081019061064491906121cf565b61066157604051631acd860160e31b815260040160405180910390fd5b600085900361068357604051633f4ab26f60e21b815260040160405180910390fd5b8483146106a25760405162514d8b60e31b815260040160405180910390fd5b6106aa611c48565b60005b858110156107135761070b8787838181106106ca576106ca612202565b90506020020160208101906106df9190612218565b8686848181106106f1576106f1612202565b90506020020160208101906107069190611f53565b611c87565b6001016106ad565b5074544f4b454e5f4d41585f53454c4c5f564f4c554d4560581b60008051602061244383398151915287878787604051610558949392919061225c565b610758611ad9565b600201546001600160a01b031680610783576040516371724ffd60e01b815260040160405180910390fd5b806001600160a01b03811663d4a7db7f336040516001600160e01b031960e084901b1681526001600160a01b039091166004820152602401602060405180830381865afa1580156107d8573d6000803e3d6000fd5b505050506040513d601f19601f820116820180604052508101906107fc91906121cf565b61081957604051631acd860160e31b815260040160405180910390fd5b82610822611d2d565b8054911515600160201b0264ff00000000199092169190911790556040805160018082528183019092526000916020808301908036833701905050905060018160008151811061087457610874612202565b6020026020010190600481111561088d5761088d6121ec565b908160048111156108a0576108a06121ec565b90525083156108eb5773544f4b454e5f4d41585f4255595f564f4c554d4560601b600080516020612403833981519152826040516108de91906122e9565b60405180910390a2610929565b73544f4b454e5f4d41585f4255595f564f4c554d4560601b6000805160206123e38339815191528260405161092091906122e9565b60405180910390a25b50505050565b610937611ad9565b600201546001600160a01b031680610962576040516371724ffd60e01b815260040160405180910390fd5b806001600160a01b03811663d4a7db7f336040516001600160e01b031960e084901b1681526001600160a01b039091166004820152602401602060405180830381865afa1580156109b7573d6000803e3d6000fd5b505050506040513d601f19601f820116820180604052508101906109db91906121cf565b6109f857604051631acd860160e31b815260040160405180910390fd5b6000859003610a1a57604051633f4ab26f60e21b815260040160405180910390fd5b848314610a395760405162514d8b60e31b815260040160405180910390fd5b610a41611d5b565b60005b85811015610aaa57610aa2878783818110610a6157610a61612202565b9050602002016020810190610a769190612218565b868684818110610a8857610a88612202565b9050602002016020810190610a9d9190611f53565b611d9a565b600101610a44565b50744143434f554e545f4d41585f53454c4c5f53495a4560581b60008051602061244383398151915287878787604051610558949392919061225c565b610aef611ad9565b600201546001600160a01b031680610b1a576040516371724ffd60e01b815260040160405180910390fd5b806001600160a01b03811663d4a7db7f336040516001600160e01b031960e084901b1681526001600160a01b039091166004820152602401602060405180830381865afa158015610b6f573d6000803e3d6000fd5b505050506040513d601f19601f82011682018060405250810190610b9391906121cf565b610bb057604051631acd860160e31b815260040160405180910390fd5b610bbb600284611d9a565b63ffffffff83166002604051744143434f554e545f4d41585f53454c4c5f53495a4560581b9060008051602061242383398151915290600090a4505050565b610c02611ad9565b600201546001600160a01b031680610c2d576040516371724ffd60e01b815260040160405180910390fd5b806001600160a01b03811663d4a7db7f336040516001600160e01b031960e084901b1681526001600160a01b039091166004820152602401602060405180830381865afa158015610c82573d6000803e3d6000fd5b505050506040513d601f19601f82011682018060405250810190610ca691906121cf565b610cc357604051631acd860160e31b815260040160405180910390fd5b610cce600284611c87565b63ffffffff8316600260405174544f4b454e5f4d41585f53454c4c5f564f4c554d4560581b9060008051602061242383398151915290600090a4505050565b600061058c611d2d565b610d1f611ad9565b600201546001600160a01b031680610d4a576040516371724ffd60e01b815260040160405180910390fd5b806001600160a01b03811663d4a7db7f336040516001600160e01b031960e084901b1681526001600160a01b039091166004820152602401602060405180830381865afa158015610d9f573d6000803e3d6000fd5b505050506040513d601f19601f82011682018060405250810190610dc391906121cf565b610de057604051631acd860160e31b815260040160405180910390fd5b82610de9611e0b565b8054911515600160201b0264ff000000001990921691909117905560408051600180825281830190925260009160208083019080368337019050509050600281600081518110610e3b57610e3b612202565b60200260200101906004811115610e5457610e546121ec565b90816004811115610e6757610e676121ec565b9052508315610ea65774544f4b454e5f4d41585f53454c4c5f564f4c554d4560581b600080516020612403833981519152826040516108de91906122e9565b74544f4b454e5f4d41585f53454c4c5f564f4c554d4560581b6000805160206123e38339815191528260405161092091906122e9565b610ee4611ad9565b600201546001600160a01b031680610f0f576040516371724ffd60e01b815260040160405180910390fd5b806001600160a01b03811663d4a7db7f336040516001600160e01b031960e084901b1681526001600160a01b039091166004820152602401602060405180830381865afa158015610f64573d6000803e3d6000fd5b505050506040513d601f19601f82011682018060405250810190610f8891906121cf565b610fa557604051631acd860160e31b815260040160405180910390fd5b6000859003610fc757604051633f4ab26f60e21b815260040160405180910390fd5b848314610fe65760405162514d8b60e31b815260040160405180910390fd5b610fee611e39565b60005b858110156110575761104f87878381811061100e5761100e612202565b90506020020160208101906110239190612218565b86868481811061103557611035612202565b905060200201602081019061104a9190611f53565b611e94565b600101610ff1565b5073544f4b454e5f4d41585f4255595f564f4c554d4560601b60008051602061244383398151915287878787604051610558949392919061225c565b61109b611ad9565b600201546001600160a01b0316806110c6576040516371724ffd60e01b815260040160405180910390fd5b806001600160a01b03811663d4a7db7f336040516001600160e01b031960e084901b1681526001600160a01b039091166004820152602401602060405180830381865afa15801561111b573d6000803e3d6000fd5b505050506040513d601f19601f8201168201806040525081019061113f91906121cf565b61115c57604051631acd860160e31b815260040160405180910390fd5b82611165611c1a565b8054911515600160201b0264ff0000000019909216919091179055604080516001808252818301909252600091602080830190803683370190505090506002816000815181106111b7576111b7612202565b602002602001019060048111156111d0576111d06121ec565b908160048111156111e3576111e36121ec565b905250831561122257744143434f554e545f4d41585f53454c4c5f53495a4560581b600080516020612403833981519152826040516108de91906122e9565b744143434f554e545f4d41585f53454c4c5f53495a4560581b6000805160206123e38339815191528260405161092091906122e9565b6000610572611e0b565b6001816004811115611276576112766121ec565b036114ff57611283611c1a565b54600160201b900460ff161561139a57600061129d611c1a565b90506112a7611ad9565b60019081015482546001600160a01b0389811660009081529385016020908152604080862054600288019092529485902054945163820c582360e01b8152919093169363820c5823936113139363ffffffff1692909189918b916001600160401b031690600401612332565b602060405180830381865afa158015611330573d6000803e3d6000fd5b505050506040513d601f19601f8201168201806040525081019061135491906123a8565b6001600160a01b038716600090815260018301602090815260408083209390935560029093019092529020805467ffffffffffffffff1916426001600160401b03161790555b6113a2611d2d565b54600160201b900460ff16156114fa5760006113bc611d2d565b90506113c6611ad9565b600101548154604080516318160ddd60e01b815290516001600160a01b039093169263a30034969263ffffffff169133916318160ddd916004808201926020929091908290030181865afa158015611422573d6000803e3d6000fd5b505050506040513d601f19601f8201168201806040525081019061144691906123a8565b6002850154600186015460405160e086901b6001600160e01b031916815263ffffffff90941660048501526024840192909252604483018890526001600160401b03166064830152608482015260a401602060405180830381865afa1580156114b3573d6000803e3d6000fd5b505050506040513d601f19601f820116820180604052508101906114d791906123a8565b6001820155600201805467ffffffffffffffff1916426001600160401b03161790555b61177e565b611507611c1a565b54600160201b900460ff161561161e576000611521611c1a565b905061152b611ad9565b60019081015482546001600160a01b038a811660009081529385016020908152604080862054600288019092529485902054945163cd26c4dd60e01b8152919093169363cd26c4dd936115979363ffffffff1692909189918c916001600160401b031690600401612332565b602060405180830381865afa1580156115b4573d6000803e3d6000fd5b505050506040513d601f19601f820116820180604052508101906115d891906123a8565b6001600160a01b038816600090815260018301602090815260408083209390935560029093019092529020805467ffffffffffffffff1916426001600160401b03161790555b611626611e0b565b54600160201b900460ff161561177e576000611640611e0b565b905061164a611ad9565b600101548154604080516318160ddd60e01b815290516001600160a01b039093169263bf218dfa9263ffffffff169133916318160ddd916004808201926020929091908290030181865afa1580156116a6573d6000803e3d6000fd5b505050506040513d601f19601f820116820180604052508101906116ca91906123a8565b6002850154600186015460405160e086901b6001600160e01b031916815263ffffffff90941660048501526024840192909252604483018890526001600160401b03166064830152608482015260a401602060405180830381865afa158015611737573d6000803e3d6000fd5b505050506040513d601f19601f8201168201806040525081019061175b91906123a8565b6001820155600201805467ffffffffffffffff1916426001600160401b03161790555b505050505050565b600061058c611e0b565b611798611ad9565b600201546001600160a01b0316806117c3576040516371724ffd60e01b815260040160405180910390fd5b806001600160a01b03811663d4a7db7f336040516001600160e01b031960e084901b1681526001600160a01b039091166004820152602401602060405180830381865afa158015611818573d6000803e3d6000fd5b505050506040513d601f19601f8201168201806040525081019061183c91906121cf565b61185957604051631acd860160e31b815260040160405180910390fd5b611861611ad9565b600101546040516350436ce560e01b815263ffffffff851660048201526001600160a01b03909116906350436ce59060240160006040518083038186803b1580156118ab57600080fd5b505afa1580156118bf573d6000803e3d6000fd5b505050506118ce600184611e94565b63ffffffff8316600160405173544f4b454e5f4d41585f4255595f564f4c554d4560601b9060008051602061242383398151915290600090a4505050565b611914611ad9565b600201546001600160a01b03168061193f576040516371724ffd60e01b815260040160405180910390fd5b806001600160a01b03811663d4a7db7f336040516001600160e01b031960e084901b1681526001600160a01b039091166004820152602401602060405180830381865afa158015611994573d6000803e3d6000fd5b505050506040513d601f19601f820116820180604052508101906119b891906121cf565b6119d557604051631acd860160e31b815260040160405180910390fd5b826119de611c1a565b8054911515600160201b0264ff000000001990921691909117905560408051600180825281830190925260009160208083019080368337019050509050600181600081518110611a3057611a30612202565b60200260200101906004811115611a4957611a496121ec565b90816004811115611a5c57611a5c6121ec565b9052508315611a9a57734143434f554e545f4d41585f4255595f53495a4560601b600080516020612403833981519152826040516108de91906122e9565b734143434f554e545f4d41585f4255595f53495a4560601b6000805160206123e38339815191528260405161092091906122e9565b6000610572611d2d565b600080611b0760017f1c7e9355957c344e150b07462120dcb6c99b078e258444a7cd1841042fa7f14b6123c1565b92915050565b6001826004811115611b2157611b216121ec565b14611b3f57604051634a7f394f60e01b815260040160405180910390fd5b611b47611ad9565b6001015460405163866fafc760e01b815263ffffffff831660048201526001600160a01b039091169063866fafc7906024015b60006040518083038186803b158015611b9257600080fd5b505afa158015611ba6573d6000803e3d6000fd5b505050506000611bb4611c1a565b805464ffffffffff191663ffffffff90931692909217600160201b179091555050565b6000611be1611c1a565b905060005b611bee611ad9565b60030154600160a01b900460ff168111611c1657815464ffffffffff19168255600101611be6565b5050565b600080611b0760017ff9397a199b69953d97776df17438ea0629f955e5b5df28e98fa3dbe5aa39991d6123c1565b6000611c52611e0b565b905060005b611c5f611ad9565b60030154600160a01b900460ff168111611c1657815464ffffffffff19168255600101611c57565b6002826004811115611c9b57611c9b6121ec565b14611cb957604051634a7f394f60e01b815260040160405180910390fd5b611cc1611ad9565b6001015460405163f7ff835960e01b815263ffffffff831660048201526001600160a01b039091169063f7ff83599060240160006040518083038186803b158015611d0b57600080fd5b505afa158015611d1f573d6000803e3d6000fd5b505050506000611bb4611e0b565b600080611b0760017fd1bd7799c7d4801564a7fa1bf18eec1222637e8da584f0026edf39ad2607654f6123c1565b6000611d65611c1a565b905060005b611d72611ad9565b60030154600160a01b900460ff168111611c1657815464ffffffffff19168255600101611d6a565b6002826004811115611dae57611dae6121ec565b14611dcc57604051634a7f394f60e01b815260040160405180910390fd5b611dd4611ad9565b600101546040516302dc5e6760e21b815263ffffffff831660048201526001600160a01b0390911690630b71799c90602401611b7a565b600080611b0760017ffd28c8a6678620794dc111e58d7a940894965f25ac93f7de2fea73d36b1b24a16123c1565b6000611e43611d2d565b905060005b611e50611ad9565b60030154600160a01b900460ff168111611c1657815464ffffffffff19168255600060018084019190915560028301805467ffffffffffffffff1916905501611e48565b6001826004811115611ea857611ea86121ec565b14611ec657604051634a7f394f60e01b815260040160405180910390fd5b611ece611ad9565b600101546040516350436ce560e01b815263ffffffff831660048201526001600160a01b03909116906350436ce59060240160006040518083038186803b158015611f1857600080fd5b505afa158015611f2c573d6000803e3d6000fd5b505050506000611bb4611d2d565b803563ffffffff81168114611f4e57600080fd5b919050565b600060208284031215611f6557600080fd5b611f6e82611f3a565b9392505050565b60008083601f840112611f8757600080fd5b5081356001600160401b03811115611f9e57600080fd5b6020830191508360208260051b8501011115611fb957600080fd5b9250929050565b60008060008060408587031215611fd657600080fd5b84356001600160401b0380821115611fed57600080fd5b611ff988838901611f75565b9096509450602087013591508082111561201257600080fd5b5061201f87828801611f75565b95989497509550505050565b801515811461203957600080fd5b50565b60006020828403121561204e57600080fd5b8135611f6e8161202b565b80356001600160a01b0381168114611f4e57600080fd5b634e487b7160e01b600052604160045260246000fd5b600082601f83011261209757600080fd5b813560206001600160401b03808311156120b3576120b3612070565b8260051b604051601f19603f830116810181811084821117156120d8576120d8612070565b60405293845260208187018101949081019250878511156120f857600080fd5b6020870191505b84821015612118578135835291830191908301906120ff565b979650505050505050565b803560058110611f4e57600080fd5b60008060008060008060c0878903121561214b57600080fd5b61215487612059565b955061216260208801612059565b945060408701356001600160401b038082111561217e57600080fd5b61218a8a838b01612086565b955060608901359150808211156121a057600080fd5b506121ad89828a01612086565b935050608087013591506121c360a08801612123565b90509295509295509295565b6000602082840312156121e157600080fd5b8151611f6e8161202b565b634e487b7160e01b600052602160045260246000fd5b634e487b7160e01b600052603260045260246000fd5b60006020828403121561222a57600080fd5b611f6e82612123565b60006005821061225357634e487b7160e01b600052602160045260246000fd5b50815260200190565b6040808252810184905260008560608301825b8781101561229a576122898261228485612123565b612233565b60209390930192915060010161226f565b5083810360208581019190915285825291508590820160005b868110156122dc5763ffffffff6122c984611f3a565b16825291830191908301906001016122b3565b5098975050505050505050565b6020808252825182820181905260009190848201906040850190845b8181101561232657612318838551612233565b938501939250600101612305565b50909695505050505050565b600060a0820163ffffffff88168352602087602085015286604085015260a0606085015281865180845260c08601915060208801935060005b818110156123875784518352938301939183019160010161236b565b50508093505050506001600160401b03831660808301529695505050505050565b6000602082840312156123ba57600080fd5b5051919050565b81810381811115611b0757634e487b7160e01b600052601160045260246000fdfee67b4c6b446d2563a2a39eb75b71127a3f908bcfcef4f7c89bd9e1b3ef39d15e4dfa26a794eb61a703a2beac482f06b4372aed0b7c0d6b4490db416146d8e32e4f87ac5c7868c692420a972d0f84fa7750afbf2b8a09848fefc355020bce707bfce5ba10ca670317c4ad6aaf14bfb5c4467bb4415ab89dafce1434471a227126a2646970667358221220691a3ffede46508ded59517e1859633d207abc69455f84875236990b617f30ce64736f6c63430008180033","linkReferences":{}},"methodIdentifiers":{"activateAccountMaxBuySize(bool)":"e68e08a7","activateAccountMaxSellSize(bool)":"c307524b","activateTokenMaxBuyVolume(bool)":"6790eb61","activateTokenMaxSellVolume(bool)":"acd95d8e","checkTradingRules(address,address,bytes32[],bytes32[],uint256,uint8)":"d874686f","getAccountMaxBuySizeId()":"efefd60e","getAccountMaxSellSizeId()":"3ebb5dbb","getTokenMaxBuyVolumeId()":"9e86fabd","getTokenMaxSellVolumeId()":"dc014d00","isAccountMaxBuySizeActive()":"2c57a58a","isAccountMaxSellSizeActive()":"f27279b7","isTokenMaxBuyVolumeActive()":"f11da4df","isTokenMaxSellVolumeActive()":"d48d6d09","setAccountMaxBuySizeId(uint32)":"01e519fb","setAccountMaxBuySizeIdFull(uint8[],uint32[])":"129c48e6","setAccountMaxSellSizeId(uint32)":"8ca023aa","setAccountMaxSellSizeIdFull(uint8[],uint32[])":"88011f0e","setTokenMaxBuyVolumeId(uint32)":"e0ce0c09","setTokenMaxBuyVolumeIdFull(uint8[],uint32[])":"ad87bfbe","setTokenMaxSellVolumeId(uint32)":"956813fc","setTokenMaxSellVolumeIdFull(uint8[],uint32[])":"64f197ea"},"id":181}