{"abi":[{"type":"constructor","inputs":[{"name":"_dataModuleAppManagerAddress","type":"address","internalType":"address"}],"stateMutability":"nonpayable"},{"type":"function","name":"addAccessLevelToMultipleAccounts","inputs":[{"name":"_accounts","type":"address[]","internalType":"address[]"},{"name":"_level","type":"uint8","internalType":"uint8"}],"outputs":[],"stateMutability":"nonpayable"},{"type":"function","name":"addLevel","inputs":[{"name":"_address","type":"address","internalType":"address"},{"name":"_level","type":"uint8","internalType":"uint8"}],"outputs":[],"stateMutability":"nonpayable"},{"type":"function","name":"addMultipleAccessLevels","inputs":[{"name":"_accounts","type":"address[]","internalType":"address[]"},{"name":"_level","type":"uint8[]","internalType":"uint8[]"}],"outputs":[],"stateMutability":"nonpayable"},{"type":"function","name":"confirmDataProvider","inputs":[{"name":"_providerType","type":"uint8","internalType":"enum IDataModule.ProviderType"}],"outputs":[],"stateMutability":"nonpayable"},{"type":"function","name":"confirmOwner","inputs":[],"outputs":[],"stateMutability":"nonpayable"},{"type":"function","name":"dataModuleAppManagerAddress","inputs":[],"outputs":[{"name":"","type":"address","internalType":"address"}],"stateMutability":"view"},{"type":"function","name":"getAccessLevel","inputs":[{"name":"_account","type":"address","internalType":"address"}],"outputs":[{"name":"","type":"uint8","internalType":"uint8"}],"stateMutability":"view"},{"type":"function","name":"levels","inputs":[{"name":"","type":"address","internalType":"address"}],"outputs":[{"name":"","type":"uint8","internalType":"uint8"}],"stateMutability":"view"},{"type":"function","name":"owner","inputs":[],"outputs":[{"name":"","type":"address","internalType":"address"}],"stateMutability":"view"},{"type":"function","name":"proposeOwner","inputs":[{"name":"_newOwner","type":"address","internalType":"address"}],"outputs":[],"stateMutability":"nonpayable"},{"type":"function","name":"removeAccessLevel","inputs":[{"name":"_account","type":"address","internalType":"address"}],"outputs":[],"stateMutability":"nonpayable"},{"type":"function","name":"renounceOwnership","inputs":[],"outputs":[],"stateMutability":"nonpayable"},{"type":"function","name":"transferOwnership","inputs":[{"name":"newOwner","type":"address","internalType":"address"}],"outputs":[],"stateMutability":"nonpayable"},{"type":"function","name":"version","inputs":[],"outputs":[{"name":"","type":"string","internalType":"string"}],"stateMutability":"pure"},{"type":"event","name":"AD1467_AMMRegistered","inputs":[{"name":"_address","type":"address","indexed":true,"internalType":"address"}],"anonymous":false},{"type":"event","name":"AD1467_AccessLevelAdded","inputs":[{"name":"_address","type":"address","indexed":true,"internalType":"address"},{"name":"_level","type":"uint8","indexed":true,"internalType":"uint8"}],"anonymous":false},{"type":"event","name":"AD1467_AccessLevelAdmin","inputs":[{"name":"admin","type":"address","indexed":true,"internalType":"address"},{"name":"add","type":"bool","indexed":true,"internalType":"bool"}],"anonymous":false},{"type":"event","name":"AD1467_AccessLevelProviderSet","inputs":[{"name":"_address","type":"address","indexed":true,"internalType":"address"}],"anonymous":false},{"type":"event","name":"AD1467_AccessLevelRemoved","inputs":[{"name":"_address","type":"address","indexed":true,"internalType":"address"}],"anonymous":false},{"type":"event","name":"AD1467_AccountAdded","inputs":[{"name":"account","type":"address","indexed":true,"internalType":"address"}],"anonymous":false},{"type":"event","name":"AD1467_AccountProviderSet","inputs":[{"name":"_address","type":"address","indexed":true,"internalType":"address"}],"anonymous":false},{"type":"event","name":"AD1467_AccountRemoved","inputs":[{"name":"account","type":"address","indexed":true,"internalType":"address"}],"anonymous":false},{"type":"event","name":"AD1467_AppAdministrator","inputs":[{"name":"admin","type":"address","indexed":true,"internalType":"address"},{"name":"add","type":"bool","indexed":true,"internalType":"bool"}],"anonymous":false},{"type":"event","name":"AD1467_AppManagerDataUpgradeProposed","inputs":[{"name":"deployedAddress","type":"address","indexed":true,"internalType":"address"},{"name":"replacedAddress","type":"address","indexed":false,"internalType":"address"}],"anonymous":false},{"type":"event","name":"AD1467_AppManagerDeployed","inputs":[{"name":"superAndAppAdmin","type":"address","indexed":true,"internalType":"address"},{"name":"appName","type":"string","indexed":true,"internalType":"string"}],"anonymous":false},{"type":"event","name":"AD1467_AppManagerDeployedForUpgrade","inputs":[{"name":"superAndAppAdmin","type":"address","indexed":true,"internalType":"address"},{"name":"appName","type":"string","indexed":true,"internalType":"string"}],"anonymous":false},{"type":"event","name":"AD1467_AppNameChanged","inputs":[{"name":"appName","type":"string","indexed":true,"internalType":"string"}],"anonymous":false},{"type":"event","name":"AD1467_DataContractsMigrated","inputs":[{"name":"ownerAddress","type":"address","indexed":true,"internalType":"address"}],"anonymous":false},{"type":"event","name":"AD1467_PauseRuleEvent","inputs":[{"name":"pauseStart","type":"uint256","indexed":true,"internalType":"uint256"},{"name":"pauseStop","type":"uint256","indexed":true,"internalType":"uint256"},{"name":"add","type":"bool","indexed":true,"internalType":"bool"}],"anonymous":false},{"type":"event","name":"AD1467_PauseRuleProviderSet","inputs":[{"name":"_address","type":"address","indexed":true,"internalType":"address"}],"anonymous":false},{"type":"event","name":"AD1467_RemoveFromRegistry","inputs":[{"name":"contractName","type":"string","indexed":false,"internalType":"string"},{"name":"contractAddress","type":"address","indexed":false,"internalType":"address"}],"anonymous":false},{"type":"event","name":"AD1467_RiskAdmin","inputs":[{"name":"admin","type":"address","indexed":true,"internalType":"address"},{"name":"add","type":"bool","indexed":true,"internalType":"bool"}],"anonymous":false},{"type":"event","name":"AD1467_RiskProviderSet","inputs":[{"name":"_address","type":"address","indexed":true,"internalType":"address"}],"anonymous":false},{"type":"event","name":"AD1467_RiskScoreAdded","inputs":[{"name":"_address","type":"address","indexed":true,"internalType":"address"},{"name":"_score","type":"uint8","indexed":false,"internalType":"uint8"}],"anonymous":false},{"type":"event","name":"AD1467_RiskScoreRemoved","inputs":[{"name":"_address","type":"address","indexed":true,"internalType":"address"}],"anonymous":false},{"type":"event","name":"AD1467_RuleAdmin","inputs":[{"name":"admin","type":"address","indexed":true,"internalType":"address"},{"name":"add","type":"bool","indexed":true,"internalType":"bool"}],"anonymous":false},{"type":"event","name":"AD1467_RuleBypassAccount","inputs":[{"name":"bypassAccount","type":"address","indexed":true,"internalType":"address"},{"name":"add","type":"bool","indexed":true,"internalType":"bool"}],"anonymous":false},{"type":"event","name":"AD1467_SuperAdministrator","inputs":[{"name":"admin","type":"address","indexed":true,"internalType":"address"},{"name":"add","type":"bool","indexed":true,"internalType":"bool"}],"anonymous":false},{"type":"event","name":"AD1467_Tag","inputs":[{"name":"_address","type":"address","indexed":true,"internalType":"address"},{"name":"_tag","type":"bytes32","indexed":true,"internalType":"bytes32"},{"name":"add","type":"bool","indexed":true,"internalType":"bool"}],"anonymous":false},{"type":"event","name":"AD1467_TagAlreadyApplied","inputs":[{"name":"_address","type":"address","indexed":true,"internalType":"address"}],"anonymous":false},{"type":"event","name":"AD1467_TagProviderSet","inputs":[{"name":"_address","type":"address","indexed":true,"internalType":"address"}],"anonymous":false},{"type":"event","name":"AD1467_TokenNameUpdated","inputs":[{"name":"_token","type":"string","indexed":true,"internalType":"string"},{"name":"_address","type":"address","indexed":true,"internalType":"address"}],"anonymous":false},{"type":"event","name":"AD1467_TokenRegistered","inputs":[{"name":"_token","type":"string","indexed":true,"internalType":"string"},{"name":"_address","type":"address","indexed":true,"internalType":"address"}],"anonymous":false},{"type":"event","name":"AD1467_TradingRuleAddressAllowlist","inputs":[{"name":"_address","type":"address","indexed":true,"internalType":"address"},{"name":"isApproved","type":"bool","indexed":true,"internalType":"bool"}],"anonymous":false},{"type":"event","name":"AD1467_TreasuryRegistered","inputs":[{"name":"_address","type":"address","indexed":true,"internalType":"address"}],"anonymous":false},{"type":"event","name":"OwnershipTransferred","inputs":[{"name":"previousOwner","type":"address","indexed":true,"internalType":"address"},{"name":"newOwner","type":"address","indexed":true,"internalType":"address"}],"anonymous":false},{"type":"error","name":"AccessLevelIsNotValid","inputs":[{"name":"accessLevel","type":"uint8","internalType":"uint8"}]},{"type":"error","name":"AppManagerNotConnected","inputs":[]},{"type":"error","name":"CantMixPeriodicAndNonPeriodic","inputs":[]},{"type":"error","name":"ConfirmerDoesNotMatchProposedAddress","inputs":[]},{"type":"error","name":"IndexOutOfRange","inputs":[]},{"type":"error","name":"InputArraysMustHaveSameLength","inputs":[]},{"type":"error","name":"InputArraysSizesNotValid","inputs":[]},{"type":"error","name":"InvalidOracleType","inputs":[{"name":"_type","type":"uint8","internalType":"uint8"}]},{"type":"error","name":"InvalidRuleInput","inputs":[]},{"type":"error","name":"InvertedLimits","inputs":[]},{"type":"error","name":"NoProposalHasBeenMade","inputs":[]},{"type":"error","name":"NotAllowedForAccessLevel","inputs":[]},{"type":"error","name":"NotAppAdministratorOrOwner","inputs":[]},{"type":"error","name":"OverMaxValueByAccessLevel","inputs":[]},{"type":"error","name":"OverMaxValueOutByAccessLevel","inputs":[]},{"type":"error","name":"ValueOutOfRange","inputs":[{"name":"_value","type":"uint256","internalType":"uint256"}]},{"type":"error","name":"WrongArrayOrder","inputs":[]},{"type":"error","name":"ZeroAddress","inputs":[]},{"type":"error","name":"ZeroValueNotPermited","inputs":[]}],"bytecode":{"object":"0x60a060405234801561001057600080fd5b50604051610deb380380610deb83398101604081905261002f916100a4565b8061003933610054565b6001600160a01b031660805261004e81610054565b506100d4565b600080546001600160a01b038381166001600160a01b0319831681178455604051919092169283917f8be0079c531659141344cd1fd0a4f28419497f9722a3daafe3b4186f6b6457e09190a35050565b6000602082840312156100b657600080fd5b81516001600160a01b03811681146100cd57600080fd5b9392505050565b608051610cd96101126000396000818161022a01528181610261015281816102a80152818161038c0152818161067f01526106c60152610cd96000f3fe608060405234801561001057600080fd5b50600436106100ea5760003560e01c80638da5cb5b1161008c578063b5ed298a11610066578063b5ed298a1461020a578063bd9b6d861461021d578063d3d24c9b14610225578063f2fde38b1461024c57600080fd5b80638da5cb5b146101bf578063964700c8146101e4578063aa0c8a7b146101f757600080fd5b806354fd4d50116100c857806354fd4d50146101515780635bc008a0146101785780636aa806a7146101a4578063715018a6146101b757600080fd5b80631bf974f3146100ef578063417b0dd91461010457806347082db314610117575b600080fd5b6101026100fd366004610969565b61025f565b005b610102610112366004610a9f565b6103f7565b61013a610125366004610b61565b60036020526000908152604090205460ff1681565b60405160ff90911681526020015b60405180910390f35b60408051808201825260058152640312e312e360dc1b602082015290516101489190610b7c565b61013a610186366004610b61565b6001600160a01b031660009081526003602052604090205460ff1690565b6101026101b2366004610b61565b610475565b6101026104c6565b6000546001600160a01b03165b6040516001600160a01b039091168152602001610148565b6101026101f2366004610bcb565b6104da565b610102610205366004610c19565b6105cf565b610102610218366004610b61565b61067d565b6101026107dd565b6101cc7f000000000000000000000000000000000000000000000000000000000000000081565b61010261025a366004610b61565b610846565b7f00000000000000000000000000000000000000000000000000000000000000006001600160a01b03166102a6576040516371724ffd60e01b815260040160405180910390fd5b7f00000000000000000000000000000000000000000000000000000000000000006001600160a01b03811663c3c2ebbb336040516001600160e01b031960e084901b1681526001600160a01b039091166004820152602401602060405180830381865afa15801561031b573d6000803e3d6000fd5b505050506040513d601f19601f8201168201806040525081019061033f9190610c43565b15801561035757506000546001600160a01b03163314155b156103755760405163054f3a3160e31b815260040160405180910390fd5b604051632b124b7960e01b81526001600160a01b037f00000000000000000000000000000000000000000000000000000000000000001690632b124b79906103c1908590600401610c65565b600060405180830381600087803b1580156103db57600080fd5b505af11580156103ef573d6000803e3d6000fd5b505050505050565b6103ff6108bf565b81518151146104205760405162514d8b60e31b815260040160405180910390fd5b60005b82518110156104705761046883828151811061044157610441610c8d565b602002602001015183838151811061045b5761045b610c8d565b60200260200101516105cf565b600101610423565b505050565b61047d6108bf565b6001600160a01b038116600081815260036020526040808220805460ff19169055517f276cf99114a46d5939685dde45049a35ff9b38ba6159453582924455c249a58b9190a250565b6104ce6108bf565b6104d86000610919565b565b6104e26108bf565b60048160ff1611156105115760405163fd12da9160e01b815260ff821660048201526024015b60405180910390fd5b60005b825181101561047057816003600085848151811061053457610534610c8d565b60200260200101516001600160a01b03166001600160a01b0316815260200190815260200160002060006101000a81548160ff021916908360ff1602179055508160ff1683828151811061058a5761058a610c8d565b60200260200101516001600160a01b03167f6925839d9987ab8377392e05897fdc086a53f88d84befbec65e10629628e547960405160405180910390a3600101610514565b6105d76108bf565b60048160ff1611156106015760405163fd12da9160e01b815260ff82166004820152602401610508565b6001600160a01b0382166106285760405163d92e233d60e01b815260040160405180910390fd5b6001600160a01b038216600081815260036020526040808220805460ff191660ff861690811790915590519092917f6925839d9987ab8377392e05897fdc086a53f88d84befbec65e10629628e547991a35050565b7f00000000000000000000000000000000000000000000000000000000000000006001600160a01b03166106c4576040516371724ffd60e01b815260040160405180910390fd5b7f00000000000000000000000000000000000000000000000000000000000000006001600160a01b03811663c3c2ebbb336040516001600160e01b031960e084901b1681526001600160a01b039091166004820152602401602060405180830381865afa158015610739573d6000803e3d6000fd5b505050506040513d601f19601f8201168201806040525081019061075d9190610c43565b15801561077557506000546001600160a01b03163314155b156107935760405163054f3a3160e31b815260040160405180910390fd5b6001600160a01b0382166107ba5760405163d92e233d60e01b815260040160405180910390fd5b50600180546001600160a01b0319166001600160a01b0392909216919091179055565b6001546001600160a01b03166108065760405163821e0eeb60e01b815260040160405180910390fd5b6001546001600160a01b0316331461083157604051634128496760e01b815260040160405180910390fd5b6001546104d8906001600160a01b0316610919565b61084e6108bf565b6001600160a01b0381166108b35760405162461bcd60e51b815260206004820152602660248201527f4f776e61626c653a206e6577206f776e657220697320746865207a65726f206160448201526564647265737360d01b6064820152608401610508565b6108bc81610919565b50565b6000546001600160a01b031633146104d85760405162461bcd60e51b815260206004820181905260248201527f4f776e61626c653a2063616c6c6572206973206e6f7420746865206f776e65726044820152606401610508565b600080546001600160a01b038381166001600160a01b0319831681178455604051919092169283917f8be0079c531659141344cd1fd0a4f28419497f9722a3daafe3b4186f6b6457e09190a35050565b60006020828403121561097b57600080fd5b81356005811061098a57600080fd5b9392505050565b634e487b7160e01b600052604160045260246000fd5b604051601f8201601f1916810167ffffffffffffffff811182821017156109d0576109d0610991565b604052919050565b600067ffffffffffffffff8211156109f2576109f2610991565b5060051b60200190565b80356001600160a01b0381168114610a1357600080fd5b919050565b600082601f830112610a2957600080fd5b81356020610a3e610a39836109d8565b6109a7565b8083825260208201915060208460051b870101935086841115610a6057600080fd5b602086015b84811015610a8357610a76816109fc565b8352918301918301610a65565b509695505050505050565b803560ff81168114610a1357600080fd5b60008060408385031215610ab257600080fd5b823567ffffffffffffffff80821115610aca57600080fd5b610ad686838701610a18565b9350602091508185013581811115610aed57600080fd5b85019050601f81018613610b0057600080fd5b8035610b0e610a39826109d8565b81815260059190911b82018301908381019088831115610b2d57600080fd5b928401925b82841015610b5257610b4384610a8e565b82529284019290840190610b32565b80955050505050509250929050565b600060208284031215610b7357600080fd5b61098a826109fc565b60006020808352835180602085015260005b81811015610baa57858101830151858201604001528201610b8e565b506000604082860101526040601f19601f8301168501019250505092915050565b60008060408385031215610bde57600080fd5b823567ffffffffffffffff811115610bf557600080fd5b610c0185828601610a18565b925050610c1060208401610a8e565b90509250929050565b60008060408385031215610c2c57600080fd5b610c35836109fc565b9150610c1060208401610a8e565b600060208284031215610c5557600080fd5b8151801515811461098a57600080fd5b6020810160058310610c8757634e487b7160e01b600052602160045260246000fd5b91905290565b634e487b7160e01b600052603260045260246000fdfea2646970667358221220a3c4649319866c4070619bc3388f2faefcabff16a3b71e0a3901143fbf77585864736f6c63430008180033","linkReferences":{}},"methodIdentifiers":{"addAccessLevelToMultipleAccounts(address[],uint8)":"964700c8","addLevel(address,uint8)":"aa0c8a7b","addMultipleAccessLevels(address[],uint8[])":"417b0dd9","confirmDataProvider(uint8)":"1bf974f3","confirmOwner()":"bd9b6d86","dataModuleAppManagerAddress()":"d3d24c9b","getAccessLevel(address)":"5bc008a0","levels(address)":"47082db3","owner()":"8da5cb5b","proposeOwner(address)":"b5ed298a","removeAccessLevel(address)":"6aa806a7","renounceOwnership()":"715018a6","transferOwnership(address)":"f2fde38b","version()":"54fd4d50"},"id":134}