{"abi":[{"type":"function","name":"addAccountMaxTxValueByRiskScore","inputs":[{"name":"_appManagerAddr","type":"address","internalType":"address"},{"name":"_maxValue","type":"uint48[]","internalType":"uint48[]"},{"name":"_riskScore","type":"uint8[]","internalType":"uint8[]"},{"name":"_period","type":"uint16","internalType":"uint16"},{"name":"_startTime","type":"uint64","internalType":"uint64"}],"outputs":[{"name":"","type":"uint32","internalType":"uint32"}],"stateMutability":"nonpayable"},{"type":"function","name":"addAccountMaxValueByAccessLevel","inputs":[{"name":"_appManagerAddr","type":"address","internalType":"address"},{"name":"_maxValues","type":"uint48[]","internalType":"uint48[]"}],"outputs":[{"name":"","type":"uint32","internalType":"uint32"}],"stateMutability":"nonpayable"},{"type":"function","name":"addAccountMaxValueByRiskScore","inputs":[{"name":"_appManagerAddr","type":"address","internalType":"address"},{"name":"_riskScores","type":"uint8[]","internalType":"uint8[]"},{"name":"_maxValue","type":"uint48[]","internalType":"uint48[]"}],"outputs":[{"name":"","type":"uint32","internalType":"uint32"}],"stateMutability":"nonpayable"},{"type":"function","name":"addAccountMaxValueOutByAccessLevel","inputs":[{"name":"_appManagerAddr","type":"address","internalType":"address"},{"name":"_withdrawalAmounts","type":"uint48[]","internalType":"uint48[]"}],"outputs":[{"name":"","type":"uint32","internalType":"uint32"}],"stateMutability":"nonpayable"},{"type":"event","name":"AD1467_ProtocolRuleCreated","inputs":[{"name":"ruleType","type":"bytes32","indexed":true,"internalType":"bytes32"},{"name":"ruleId","type":"uint32","indexed":true,"internalType":"uint32"},{"name":"extraTags","type":"bytes32[]","indexed":false,"internalType":"bytes32[]"}],"anonymous":false},{"type":"error","name":"AppManagerNotConnected","inputs":[]},{"type":"error","name":"BalanceAmountsShouldHave5Levels","inputs":[{"name":"inputLevels","type":"uint8","internalType":"uint8"}]},{"type":"error","name":"BelowMinAdminThreshold","inputs":[]},{"type":"error","name":"CantMixPeriodicAndNonPeriodic","inputs":[]},{"type":"error","name":"IndexOutOfRange","inputs":[]},{"type":"error","name":"InputArraysMustHaveSameLength","inputs":[]},{"type":"error","name":"InputArraysSizesNotValid","inputs":[]},{"type":"error","name":"InvalidHourOfTheDay","inputs":[]},{"type":"error","name":"InvalidOracleType","inputs":[{"name":"_type","type":"uint8","internalType":"uint8"}]},{"type":"error","name":"InvalidRuleInput","inputs":[]},{"type":"error","name":"InvalidTimestamp","inputs":[{"name":"_timestamp","type":"uint64","internalType":"uint64"}]},{"type":"error","name":"InvertedLimits","inputs":[]},{"type":"error","name":"NotAppAdministrator","inputs":[]},{"type":"error","name":"NotAppAdministratorOrOwner","inputs":[]},{"type":"error","name":"NotRuleAdministrator","inputs":[]},{"type":"error","name":"NotSuperAdmin","inputs":[{"name":"","type":"address","internalType":"address"}]},{"type":"error","name":"RiskLevelCannotExceed99","inputs":[]},{"type":"error","name":"ValueOutOfRange","inputs":[{"name":"_value","type":"uint256","internalType":"uint256"}]},{"type":"error","name":"WithdrawalAmountsShouldHave5Levels","inputs":[{"name":"inputLevels","type":"uint8","internalType":"uint8"}]},{"type":"error","name":"WrongArrayOrder","inputs":[]},{"type":"error","name":"ZeroValueNotPermited","inputs":[]},{"type":"error","name":"riskScoreOutOfRange","inputs":[{"name":"riskScore","type":"uint8","internalType":"uint8"}]}],"bytecode":{"object":"0x608060405234801561001057600080fd5b50611516806100206000396000f3fe608060405234801561001057600080fd5b506004361061004c5760003560e01c806315f7748814610051578063517048c61461007d578063b25e90f614610090578063f16c0ae0146100a3575b600080fd5b61006461005f3660046111f6565b6100b6565b60405163ffffffff909116815260200160405180910390f35b61006461008b366004611248565b6103a2565b61006461009e3660046112c8565b61063c565b6100646100b13660046111f6565b610ae4565b6000836001600160a01b0381166100e0576040516371724ffd60e01b815260040160405180910390fd5b806001600160a01b03811663d4a7db7f336040516001600160e01b031960e084901b1681526001600160a01b039091166004820152602401602060405180830381865afa158015610135573d6000803e3d6000fd5b505050506040513d601f19601f82011682018060405250810190610159919061137d565b61017657604051631acd860160e31b815260040160405180910390fd5b6000610180610d81565b600181015490915063ffffffff16600586146101b957604051636f65fbb760e01b815260ff871660048201526024015b60405180910390fd5b60015b868110156102535787876101d16001846113bc565b8181106101e0576101e06113cf565b90506020020160208101906101f591906113e5565b65ffffffffffff1688888381811061020f5761020f6113cf565b905060200201602081019061022491906113e5565b65ffffffffffff16101561024b57604051631e5b8f7b60e11b815260040160405180910390fd5b6001016101bc565b5060005b60ff81168711156102d15787878260ff16818110610277576102776113cf565b905060200201602081019061028c91906113e5565b63ffffffff831660009081526020858152604080832060ff861684529091529020805465ffffffffffff191665ffffffffffff92909216919091179055600101610257565b506001820180546000906102ea9063ffffffff1661140d565b91906101000a81548163ffffffff021916908363ffffffff1602179055508063ffffffff167f4143435f4d41585f56414c55455f42595f4143434553535f4c4556454c0000006000805160206114c183398151915260006001600160401b0381111561035857610358611430565b604051908082528060200260200182016040528015610381578160200160208202803683370190505b5060405161038f9190611446565b60405180910390a3979650505050505050565b6000856001600160a01b0381166103cc576040516371724ffd60e01b815260040160405180910390fd5b806001600160a01b03811663d4a7db7f336040516001600160e01b031960e084901b1681526001600160a01b039091166004820152602401602060405180830381865afa158015610421573d6000803e3d6000fd5b505050506040513d601f19601f82011682018060405250810190610445919061137d565b61046257604051631acd860160e31b815260040160405180910390fd5b83861461048257604051633f4ab26f60e21b815260040160405180910390fd5b60008490036104a4576040516357a7068b60e01b815260040160405180910390fd5b606387876104b36001826113bc565b8181106104c2576104c26113cf565b90506020020160208101906104d7919061148a565b60ff1611156104f957604051630fe5d10960e41b815260040160405180910390fd5b60015b868110156105885787876105116001846113bc565b818110610520576105206113cf565b9050602002016020810190610535919061148a565b60ff1688888381811061054a5761054a6113cf565b905060200201602081019061055f919061148a565b60ff161161058057604051631e5b8f7b60e11b815260040160405180910390fd5b6001016104fc565b5060015b848110156106235785856105a16001846113bc565b8181106105b0576105b06113cf565b90506020020160208101906105c591906113e5565b65ffffffffffff168686838181106105df576105df6113cf565b90506020020160208101906105f491906113e5565b65ffffffffffff16111561061b57604051631e5b8f7b60e11b815260040160405180910390fd5b60010161058c565b5061063087878787610db5565b98975050505050505050565b6000876001600160a01b038116610666576040516371724ffd60e01b815260040160405180910390fd5b806001600160a01b03811663d4a7db7f336040516001600160e01b031960e084901b1681526001600160a01b039091166004820152602401602060405180830381865afa1580156106bb573d6000803e3d6000fd5b505050506040513d601f19601f820116820180604052508101906106df919061137d565b6106fc57604051631acd860160e31b815260040160405180910390fd5b87861461071c57604051633f4ab26f60e21b815260040160405180910390fd5b600088900361073e576040516357a7068b60e01b815260040160405180910390fd5b6063878761074d6001826113bc565b81811061075c5761075c6113cf565b9050602002016020810190610771919061148a565b60ff16111561079357604051630fe5d10960e41b815260040160405180910390fd5b60015b868110156108225787876107ab6001846113bc565b8181106107ba576107ba6113cf565b90506020020160208101906107cf919061148a565b60ff168888838181106107e4576107e46113cf565b90506020020160208101906107f9919061148a565b60ff161161081a57604051631e5b8f7b60e11b815260040160405180910390fd5b600101610796565b5060015b888110156108bd57898961083b6001846113bc565b81811061084a5761084a6113cf565b905060200201602081019061085f91906113e5565b65ffffffffffff168a8a83818110610879576108796113cf565b905060200201602081019061088e91906113e5565b65ffffffffffff1611156108b557604051631e5b8f7b60e11b815260040160405180910390fd5b600101610826565b506108d0846001600160401b0316610f50565b60006108da610fa7565b905060008160010160009054906101000a900463ffffffff169050600060405180608001604052808d8d808060200260200160405190810160405280939291908181526020018383602002808284376000920191909152505050908252506040805160208d810282810182019093528d82529283019290918e918e918291850190849080828437600092018290525093855250505061ffff8b166020808401919091526001600160401b038b1660409384015263ffffffff8616825286815291902082518051939450849391926109b692849290910190611031565b5060208281015180516109cf92600185019201906110e6565b506040820151600290910180546060909301516001600160401b0316620100000269ffffffffffffffffffff1990931661ffff90921691909117919091179055600183018054600090610a279063ffffffff1661140d565b91906101000a81548163ffffffff021916908363ffffffff1602179055508163ffffffff167f4143435f4d41585f54585f56414c55455f42595f5249534b5f53434f524500006000805160206114c183398151915260006001600160401b03811115610a9557610a95611430565b604051908082528060200260200182016040528015610abe578160200160208202803683370190505b50604051610acc9190611446565b60405180910390a3509b9a5050505050505050505050565b6000836001600160a01b038116610b0e576040516371724ffd60e01b815260040160405180910390fd5b806001600160a01b03811663d4a7db7f336040516001600160e01b031960e084901b1681526001600160a01b039091166004820152602401602060405180830381865afa158015610b63573d6000803e3d6000fd5b505050506040513d601f19601f82011682018060405250810190610b87919061137d565b610ba457604051631acd860160e31b815260040160405180910390fd5b6000610bae610fd5565b600181015490915063ffffffff1660058614610be257604051631f28659f60e31b815260ff871660048201526024016101b0565b60015b86811015610c7c578787610bfa6001846113bc565b818110610c0957610c096113cf565b9050602002016020810190610c1e91906113e5565b65ffffffffffff16888883818110610c3857610c386113cf565b9050602002016020810190610c4d91906113e5565b65ffffffffffff161015610c7457604051631e5b8f7b60e11b815260040160405180910390fd5b600101610be5565b5060005b60ff8116871115610cfa5787878260ff16818110610ca057610ca06113cf565b9050602002016020810190610cb591906113e5565b63ffffffff831660009081526020858152604080832060ff861684529091529020805465ffffffffffff191665ffffffffffff92909216919091179055600101610c80565b50600182018054600090610d139063ffffffff1661140d565b91906101000a81548163ffffffff021916908363ffffffff1602179055508063ffffffff167f4143435f4d41585f56414c55455f4f55545f4143434553535f4c4556454c00006000805160206114c183398151915260006001600160401b0381111561035857610358611430565b600080610daf60017f4815e3fa667405e725c432fd6db2286588ecce84f997ea5bdb96e5e764a28d486113bc565b92915050565b600080610dc0611003565b600181015460408051606060208a02808301820184529282018a815294955063ffffffff90931693600093919283928c918c9182919086019084908082843760009201919091525050509082525060408051602089810282810182019093528982529283019290918a918a918291850190849080828437600092018290525093909452505063ffffffff8516815260208681526040909120835180519495508594919350610e729284929101906110e6565b506020828101518051610e8b9260018501920190611031565b505050600183018054600090610ea69063ffffffff1661140d565b91906101000a81548163ffffffff021916908363ffffffff1602179055508163ffffffff166e42414c414e43455f42595f5249534b60881b6000805160206114c183398151915260006001600160401b03811115610f0657610f06611430565b604051908082528060200260200182016040528015610f2f578160200160208202803683370190505b50604051610f3d9190611446565b60405180910390a3509695505050505050565b6001600160401b0381161580610f7b5750610f6f426301dfe2006114ad565b816001600160401b0316115b15610fa457604051634275ae3b60e01b81526001600160401b03821660048201526024016101b0565b50565b600080610daf60017f83267efb4f531fecf2aed040d8a6b66e44808d12f27a568b82ac7d35297d9fad6113bc565b600080610daf60017fcd576fc088c5eb040f665f257428613253482a372b228b4e0451df92d88b2b2d6113bc565b600080610daf60017f4ad28c94cb815a5bc8c4c7a6826bafcf87389a6ca864ba468204d2b980cfcd5f6113bc565b828054828255906000526020600020906004016005900481019282156110d65791602002820160005b838211156110a257835183826101000a81548165ffffffffffff021916908365ffffffffffff160217905550926020019260060160208160050104928301926001030261105a565b80156110d45782816101000a81549065ffffffffffff02191690556006016020816005010492830192600103026110a2565b505b506110e292915061117a565b5090565b82805482825590600052602060002090601f016020900481019282156110d65791602002820160005b8382111561114d57835183826101000a81548160ff021916908360ff160217905550926020019260010160208160000104928301926001030261110f565b80156110d45782816101000a81549060ff021916905560010160208160000104928301926001030261114d565b5b808211156110e2576000815560010161117b565b80356001600160a01b03811681146111a657600080fd5b919050565b60008083601f8401126111bd57600080fd5b5081356001600160401b038111156111d457600080fd5b6020830191508360208260051b85010111156111ef57600080fd5b9250929050565b60008060006040848603121561120b57600080fd5b6112148461118f565b925060208401356001600160401b0381111561122f57600080fd5b61123b868287016111ab565b9497909650939450505050565b60008060008060006060868803121561126057600080fd5b6112698661118f565b945060208601356001600160401b038082111561128557600080fd5b61129189838a016111ab565b909650945060408801359150808211156112aa57600080fd5b506112b7888289016111ab565b969995985093965092949392505050565b600080600080600080600060a0888a0312156112e357600080fd5b6112ec8861118f565b965060208801356001600160401b038082111561130857600080fd5b6113148b838c016111ab565b909850965060408a013591508082111561132d57600080fd5b6113398b838c016111ab565b909650945060608a0135915061ffff8216821461135557600080fd5b909250608089013590808216821461136c57600080fd5b508091505092959891949750929550565b60006020828403121561138f57600080fd5b8151801515811461139f57600080fd5b9392505050565b634e487b7160e01b600052601160045260246000fd5b81810381811115610daf57610daf6113a6565b634e487b7160e01b600052603260045260246000fd5b6000602082840312156113f757600080fd5b813565ffffffffffff8116811461139f57600080fd5b600063ffffffff808316818103611426576114266113a6565b6001019392505050565b634e487b7160e01b600052604160045260246000fd5b6020808252825182820181905260009190848201906040850190845b8181101561147e57835183529284019291840191600101611462565b50909695505050505050565b60006020828403121561149c57600080fd5b813560ff8116811461139f57600080fd5b80820180821115610daf57610daf6113a656fec8c31d1b3fae743175dd37c3ed86aca4d193c9fcd5732cc172fbd4e9bc170e8aa2646970667358221220ab9f9ca06f7fb07ad56ac1b8411f9fd148c8e8c204aad5600da1b96dad5ffaf964736f6c63430008180033","linkReferences":{}},"methodIdentifiers":{"addAccountMaxTxValueByRiskScore(address,uint48[],uint8[],uint16,uint64)":"b25e90f6","addAccountMaxValueByAccessLevel(address,uint48[])":"15f77488","addAccountMaxValueByRiskScore(address,uint8[],uint48[])":"517048c6","addAccountMaxValueOutByAccessLevel(address,uint48[])":"f16c0ae0"},"id":227}