{"abi":[{"type":"function","name":"activateTokenMaxSupplyVolatility","inputs":[{"name":"_actions","type":"uint8[]","internalType":"enum ActionTypes[]"},{"name":"_on","type":"bool","internalType":"bool"}],"outputs":[],"stateMutability":"nonpayable"},{"type":"function","name":"getTokenMaxSupplyVolatilityId","inputs":[{"name":"_action","type":"uint8","internalType":"enum ActionTypes"}],"outputs":[{"name":"","type":"uint32","internalType":"uint32"}],"stateMutability":"view"},{"type":"function","name":"isTokenMaxSupplyVolatilityActive","inputs":[{"name":"_action","type":"uint8","internalType":"enum ActionTypes"}],"outputs":[{"name":"","type":"bool","internalType":"bool"}],"stateMutability":"view"},{"type":"function","name":"setTokenMaxSupplyVolatilityId","inputs":[{"name":"_actions","type":"uint8[]","internalType":"enum ActionTypes[]"},{"name":"_ruleId","type":"uint32","internalType":"uint32"}],"outputs":[],"stateMutability":"nonpayable"},{"type":"function","name":"setTokenMaxSupplyVolatilityIdFull","inputs":[{"name":"_actions","type":"uint8[]","internalType":"enum ActionTypes[]"},{"name":"_ruleIds","type":"uint32[]","internalType":"uint32[]"}],"outputs":[],"stateMutability":"nonpayable"},{"type":"event","name":"AD1467_AppManagerAddressProposed","inputs":[{"name":"_address","type":"address","indexed":true,"internalType":"address"}],"anonymous":false},{"type":"event","name":"AD1467_AppManagerAddressSet","inputs":[{"name":"_address","type":"address","indexed":true,"internalType":"address"}],"anonymous":false},{"type":"event","name":"AD1467_ApplicationHandlerActionActivated","inputs":[{"name":"ruleType","type":"bytes32","indexed":true,"internalType":"bytes32"},{"name":"actions","type":"uint8[]","indexed":false,"internalType":"enum ActionTypes[]"}],"anonymous":false},{"type":"event","name":"AD1467_ApplicationHandlerActionApplied","inputs":[{"name":"ruleType","type":"bytes32","indexed":true,"internalType":"bytes32"},{"name":"action","type":"uint8","indexed":true,"internalType":"enum ActionTypes"},{"name":"ruleId","type":"uint32","indexed":true,"internalType":"uint32"}],"anonymous":false},{"type":"event","name":"AD1467_ApplicationHandlerActionAppliedFull","inputs":[{"name":"ruleType","type":"bytes32","indexed":true,"internalType":"bytes32"},{"name":"actions","type":"uint8[]","indexed":false,"internalType":"enum ActionTypes[]"},{"name":"ruleIds","type":"uint32[]","indexed":false,"internalType":"uint32[]"}],"anonymous":false},{"type":"event","name":"AD1467_ApplicationHandlerActionDeactivated","inputs":[{"name":"ruleType","type":"bytes32","indexed":true,"internalType":"bytes32"},{"name":"actions","type":"uint8[]","indexed":false,"internalType":"enum ActionTypes[]"}],"anonymous":false},{"type":"event","name":"AD1467_ERC721AddressSet","inputs":[{"name":"_address","type":"address","indexed":true,"internalType":"address"}],"anonymous":false},{"type":"event","name":"AD1467_FeeActivationSet","inputs":[{"name":"_activation","type":"bool","indexed":true,"internalType":"bool"}],"anonymous":false},{"type":"event","name":"AD1467_NFTValuationLimitUpdated","inputs":[{"name":"nftValuationLimit","type":"uint256","indexed":true,"internalType":"uint256"}],"anonymous":false},{"type":"error","name":"AccountApproveDenyOraclesPerAssetLimitReached","inputs":[]},{"type":"error","name":"AppManagerNotConnected","inputs":[]},{"type":"error","name":"BatchMintBurnNotSupported","inputs":[]},{"type":"error","name":"BelowMinAdminThreshold","inputs":[]},{"type":"error","name":"CannotTurnOffAccountDenyForNoAccessLevelWhileActive","inputs":[]},{"type":"error","name":"FeesAreGreaterThanTransactionAmount","inputs":[{"name":"","type":"address","internalType":"address"}]},{"type":"error","name":"InputArraysMustHaveSameLength","inputs":[]},{"type":"error","name":"InputArraysSizesNotValid","inputs":[]},{"type":"error","name":"InvalidAction","inputs":[]},{"type":"error","name":"NotAppAdministrator","inputs":[]},{"type":"error","name":"NotAppAdministratorOrOwner","inputs":[]},{"type":"error","name":"NotRuleAdministrator","inputs":[]},{"type":"error","name":"NotSuperAdmin","inputs":[{"name":"","type":"address","internalType":"address"}]},{"type":"error","name":"PeriodExceeds5Years","inputs":[]},{"type":"error","name":"ZeroValueNotPermited","inputs":[]},{"type":"error","name":"actionCheckFailed","inputs":[]}],"bytecode":{"object":"0x608060405234801561001057600080fd5b50610cbd806100206000396000f3fe608060405234801561001057600080fd5b50600436106100575760003560e01c8063042be5951461005c57806306638f5e1461008457806339a86e8f146100ac578063569d92fc146100c15780637bea213d146100d4575b600080fd5b61006f61006a366004610960565b6100e7565b60405190151581526020015b60405180910390f35b610097610092366004610960565b610138565b60405163ffffffff909116815260200161007b565b6100bf6100ba3660046109df565b610184565b005b6100bf6100cf366004610a36565b61038a565b6100bf6100e2366004610ab6565b61054a565b60006100f1610738565b600083600481111561010557610105610b0a565b600481111561011657610116610b0a565b8152602081019190915260400160002054640100000000900460ff1692915050565b6000610142610738565b600083600481111561015657610156610b0a565b600481111561016757610167610b0a565b815260208101919091526040016000205463ffffffff1692915050565b61018c61076c565b600201546001600160a01b0316806101b7576040516371724ffd60e01b815260040160405180910390fd5b806001600160a01b03811663d4a7db7f336040516001600160e01b031960e084901b1681526001600160a01b039091166004820152602401602060405180830381865afa15801561020c573d6000803e3d6000fd5b505050506040513d601f19601f820116820180604052508101906102309190610b20565b61024d57604051631acd860160e31b815260040160405180910390fd5b6000610257610738565b905060005b858110156102e5578482600089898581811061027a5761027a610b3d565b905060200201602081019061028f9190610960565b60048111156102a0576102a0610b0a565b60048111156102b1576102b1610b0a565b8152602081019190915260400160002080549115156401000000000264ff000000001990921691909117905560010161025c565b50831561033957600080516020610c688339815191527f4dfa26a794eb61a703a2beac482f06b4372aed0b7c0d6b4490db416146d8e32e878760405161032c929190610baf565b60405180910390a2610382565b600080516020610c688339815191527fe67b4c6b446d2563a2a39eb75b71127a3f908bcfcef4f7c89bd9e1b3ef39d15e8787604051610379929190610baf565b60405180910390a25b505050505050565b61039261076c565b600201546001600160a01b0316806103bd576040516371724ffd60e01b815260040160405180910390fd5b806001600160a01b03811663d4a7db7f336040516001600160e01b031960e084901b1681526001600160a01b039091166004820152602401602060405180830381865afa158015610412573d6000803e3d6000fd5b505050506040513d601f19601f820116820180604052508101906104369190610b20565b61045357604051631acd860160e31b815260040160405180910390fd5b600085900361047557604051633f4ab26f60e21b815260040160405180910390fd5b8483146104945760405162514d8b60e31b815260040160405180910390fd5b61049c61079a565b60005b85811015610505576104fd8787838181106104bc576104bc610b3d565b90506020020160208101906104d19190610960565b8686848181106104e3576104e3610b3d565b90506020020160208101906104f89190610bcb565b610824565b60010161049f565b50600080516020610c688339815191527ffce5ba10ca670317c4ad6aaf14bfb5c4467bb4415ab89dafce1434471a227126878787876040516103799493929190610be6565b61055261076c565b600201546001600160a01b03168061057d576040516371724ffd60e01b815260040160405180910390fd5b806001600160a01b03811663d4a7db7f336040516001600160e01b031960e084901b1681526001600160a01b039091166004820152602401602060405180830381865afa1580156105d2573d6000803e3d6000fd5b505050506040513d601f19601f820116820180604052508101906105f69190610b20565b61061357604051631acd860160e31b815260040160405180910390fd5b61061b61076c565b6001015460405163979cc76b60e01b815263ffffffff851660048201526001600160a01b039091169063979cc76b9060240160006040518083038186803b15801561066557600080fd5b505afa158015610679573d6000803e3d6000fd5b5050505060005b84811015610382576106b886868381811061069d5761069d610b3d565b90506020020160208101906106b29190610960565b85610824565b8363ffffffff168686838181106106d1576106d1610b3d565b90506020020160208101906106e69190610960565b60048111156106f7576106f7610b0a565b604051600080516020610c68833981519152907f4f87ac5c7868c692420a972d0f84fa7750afbf2b8a09848fefc355020bce707b90600090a4600101610680565b60008061076660017f64796b3be01baa886cea07cf2fd07530b2c6f8878268ad7e65a3097a3fea9909610c46565b92915050565b60008061076660017f1c7e9355957c344e150b07462120dcb6c99b078e258444a7cd1841042fa7f14b610c46565b60006107a4610738565b905060005b6107b161076c565b60030154600160a01b900460ff168111610820578160008260048111156107da576107da610b0a565b60048111156107eb576107eb610b0a565b60048111156107fc576107fc610b0a565b81526020810191909152604001600020805464ffffffffff191690556001016107a9565b5050565b61082c61076c565b6001015460405163979cc76b60e01b815263ffffffff831660048201526001600160a01b039091169063979cc76b9060240160006040518083038186803b15801561087657600080fd5b505afa15801561088a573d6000803e3d6000fd5b505050506000610898610738565b9050818160008560048111156108b0576108b0610b0a565b60048111156108c1576108c1610b0a565b815260200190815260200160002060000160006101000a81548163ffffffff021916908363ffffffff160217905550600181600001600085600481111561090a5761090a610b0a565b600481111561091b5761091b610b0a565b8152602081019190915260400160002080549115156401000000000264ff0000000019909216919091179055505050565b80356005811061095b57600080fd5b919050565b60006020828403121561097257600080fd5b61097b8261094c565b9392505050565b60008083601f84011261099457600080fd5b50813567ffffffffffffffff8111156109ac57600080fd5b6020830191508360208260051b85010111156109c757600080fd5b9250929050565b80151581146109dc57600080fd5b50565b6000806000604084860312156109f457600080fd5b833567ffffffffffffffff811115610a0b57600080fd5b610a1786828701610982565b9094509250506020840135610a2b816109ce565b809150509250925092565b60008060008060408587031215610a4c57600080fd5b843567ffffffffffffffff80821115610a6457600080fd5b610a7088838901610982565b90965094506020870135915080821115610a8957600080fd5b50610a9687828801610982565b95989497509550505050565b803563ffffffff8116811461095b57600080fd5b600080600060408486031215610acb57600080fd5b833567ffffffffffffffff811115610ae257600080fd5b610aee86828701610982565b9094509250610b01905060208501610aa2565b90509250925092565b634e487b7160e01b600052602160045260246000fd5b600060208284031215610b3257600080fd5b815161097b816109ce565b634e487b7160e01b600052603260045260246000fd5b818352600060208085019450826000805b86811015610ba357610b758361094c565b60058110610b9157634e487b7160e01b83526021600452602483fd5b88529683019691830191600101610b64565b50959695505050505050565b602081526000610bc3602083018486610b53565b949350505050565b600060208284031215610bdd57600080fd5b61097b82610aa2565b604081526000610bfa604083018688610b53565b8281036020848101919091528482528591810160005b86811015610c395763ffffffff610c2685610aa2565b1682529282019290820190600101610c10565b5098975050505050505050565b8181038181111561076657634e487b7160e01b600052601160045260246000fdfe544f4b454e5f4d41585f535550504c595f564f4c4154494c4954590000000000a26469706673582212202641774ad650b7e13bd9e9cbc7e4187dc93b62e6a0dbd502421be133ed909db364736f6c63430008180033","linkReferences":{}},"methodIdentifiers":{"activateTokenMaxSupplyVolatility(uint8[],bool)":"39a86e8f","getTokenMaxSupplyVolatilityId(uint8)":"06638f5e","isTokenMaxSupplyVolatilityActive(uint8)":"042be595","setTokenMaxSupplyVolatilityId(uint8[],uint32)":"7bea213d","setTokenMaxSupplyVolatilityIdFull(uint8[],uint32[])":"569d92fc"},"id":193}