{"abi":[{"type":"constructor","inputs":[{"name":"_appManagerAddress","type":"address","internalType":"address"}],"stateMutability":"nonpayable"},{"type":"function","name":"getChainlinkAAVEtoUSDFeedPrice","inputs":[],"outputs":[{"name":"","type":"uint256","internalType":"uint256"}],"stateMutability":"view"},{"type":"function","name":"getChainlinkALGOtoUSDFeedPrice","inputs":[],"outputs":[{"name":"","type":"uint256","internalType":"uint256"}],"stateMutability":"view"},{"type":"function","name":"getChainlinkDOGEtoUSDFeedPrice","inputs":[],"outputs":[{"name":"","type":"uint256","internalType":"uint256"}],"stateMutability":"view"},{"type":"function","name":"getTokenPrice","inputs":[{"name":"tokenContract","type":"address","internalType":"address"}],"outputs":[{"name":"","type":"uint256","internalType":"uint256"}],"stateMutability":"view"},{"type":"function","name":"owner","inputs":[],"outputs":[{"name":"","type":"address","internalType":"address"}],"stateMutability":"view"},{"type":"function","name":"renounceOwnership","inputs":[],"outputs":[],"stateMutability":"nonpayable"},{"type":"function","name":"setAAVEAddress","inputs":[{"name":"_address","type":"address","internalType":"address"}],"outputs":[],"stateMutability":"nonpayable"},{"type":"function","name":"setAAVEFeedAddress","inputs":[{"name":"_address","type":"address","internalType":"address"}],"outputs":[],"stateMutability":"nonpayable"},{"type":"function","name":"setALGOAddress","inputs":[{"name":"_address","type":"address","internalType":"address"}],"outputs":[],"stateMutability":"nonpayable"},{"type":"function","name":"setALGOFeedAddress","inputs":[{"name":"_address","type":"address","internalType":"address"}],"outputs":[],"stateMutability":"nonpayable"},{"type":"function","name":"setDOGEAddress","inputs":[{"name":"_address","type":"address","internalType":"address"}],"outputs":[],"stateMutability":"nonpayable"},{"type":"function","name":"setDOGEFeedAddress","inputs":[{"name":"_address","type":"address","internalType":"address"}],"outputs":[],"stateMutability":"nonpayable"},{"type":"function","name":"transferOwnership","inputs":[{"name":"newOwner","type":"address","internalType":"address"}],"outputs":[],"stateMutability":"nonpayable"},{"type":"event","name":"AD1467_AppManagerAddressSet","inputs":[{"name":"_address","type":"address","indexed":true,"internalType":"address"}],"anonymous":false},{"type":"event","name":"AD1467_CollectionPrice","inputs":[{"name":"collection","type":"address","indexed":true,"internalType":"address"},{"name":"price","type":"uint256","indexed":true,"internalType":"uint256"}],"anonymous":false},{"type":"event","name":"AD1467_FeeType","inputs":[{"name":"tag","type":"bytes32","indexed":true,"internalType":"bytes32"},{"name":"add","type":"bool","indexed":true,"internalType":"bool"},{"name":"minBalance","type":"uint256","indexed":false,"internalType":"uint256"},{"name":"maxBalance","type":"uint256","indexed":false,"internalType":"uint256"},{"name":"feePercentage","type":"int256","indexed":false,"internalType":"int256"},{"name":"targetAccount","type":"address","indexed":false,"internalType":"address"}],"anonymous":false},{"type":"event","name":"AD1467_HandlerConnected","inputs":[{"name":"handlerAddress","type":"address","indexed":true,"internalType":"address"},{"name":"assetAddress","type":"address","indexed":true,"internalType":"address"}],"anonymous":false},{"type":"event","name":"AD1467_NewNFTDeployed","inputs":[{"name":"appManagerAddress","type":"address","indexed":true,"internalType":"address"}],"anonymous":false},{"type":"event","name":"AD1467_NewTokenDeployed","inputs":[{"name":"appManagerAddress","type":"address","indexed":true,"internalType":"address"}],"anonymous":false},{"type":"event","name":"AD1467_SingleTokenPrice","inputs":[{"name":"collection","type":"address","indexed":true,"internalType":"address"},{"name":"tokenID","type":"uint256","indexed":true,"internalType":"uint256"},{"name":"price","type":"uint256","indexed":true,"internalType":"uint256"}],"anonymous":false},{"type":"event","name":"AD1467_TokenPrice","inputs":[{"name":"token","type":"address","indexed":true,"internalType":"address"},{"name":"price","type":"uint256","indexed":true,"internalType":"uint256"}],"anonymous":false},{"type":"event","name":"OwnershipTransferred","inputs":[{"name":"previousOwner","type":"address","indexed":true,"internalType":"address"},{"name":"newOwner","type":"address","indexed":true,"internalType":"address"}],"anonymous":false},{"type":"error","name":"AppManagerNotConnected","inputs":[]},{"type":"error","name":"BelowMinAdminThreshold","inputs":[]},{"type":"error","name":"NoPriceFeed","inputs":[{"name":"tokenAddress","type":"address","internalType":"address"}]},{"type":"error","name":"NotAppAdministrator","inputs":[]},{"type":"error","name":"NotAppAdministratorOrOwner","inputs":[]},{"type":"error","name":"NotRuleAdministrator","inputs":[]},{"type":"error","name":"NotSuperAdmin","inputs":[{"name":"","type":"address","internalType":"address"}]},{"type":"error","name":"ZeroAddress","inputs":[]}],"bytecode":{"object":"0x60a0604052600180546001600160a01b031990811673d6df932a45c0f255f85145f286ea0b292b21c90b179091556002805482167372484b12719e23115761d5da1646945632979bb617905560038054821673a8aa9de3530ab3199a73c9f2115f6d37955546d71790556004805482167303bc6d9efed65708d35fdaefb25e87631a0a343717905560058054821673d9d32b18fd437f5de774e926cffdad8f514eeed01790556006805490911673baf9327b6564454f4a3364c33efeef032b4b44441790553480156100d057600080fd5b506040516111283803806111288339810160408190526100ef91610180565b6100f833610130565b6001600160a01b03811661011f5760405163d92e233d60e01b815260040160405180910390fd5b6001600160a01b03166080526101b0565b600080546001600160a01b038381166001600160a01b0319831681178455604051919092169283917f8be0079c531659141344cd1fd0a4f28419497f9722a3daafe3b4186f6b6457e09190a35050565b60006020828403121561019257600080fd5b81516001600160a01b03811681146101a957600080fd5b9392505050565b608051610f3a6101ee600039600081816101be015281816103c601528181610634015281816107710152818161089a0152610acd0152610f3a6000f3fe608060405234801561001057600080fd5b50600436106100cf5760003560e01c8063715018a61161008c578063b4110c4411610066578063b4110c4414610170578063d02641a014610183578063f2fde38b14610196578063f3b87a98146101a957600080fd5b8063715018a61461013a578063803168a1146101425780638da5cb5b1461015557600080fd5b8063196e3892146100d457806327351c0e146100e957806329e2a481146101045780633cafbdad1461010c5780633d09c1b71461011f5780635ec63d4614610127575b600080fd5b6100e76100e2366004610c9e565b6101bc565b005b6100f16102e5565b6040519081526020015b60405180910390f35b6100f1610376565b6100e761011a366004610c9e565b6103c4565b6100f16104ed565b6100e7610135366004610c9e565b610632565b6100e761075b565b6100e7610150366004610c9e565b61076f565b6000546040516001600160a01b0390911681526020016100fb565b6100e761017e366004610c9e565b610898565b6100f1610191366004610c9e565b6109c1565b6100e76101a4366004610c9e565b610a52565b6100e76101b7366004610c9e565b610acb565b7f00000000000000000000000000000000000000000000000000000000000000006001600160a01b038116610204576040516371724ffd60e01b815260040160405180910390fd5b806001600160a01b03811663c3c2ebbb336040516001600160e01b031960e084901b1681526001600160a01b039091166004820152602401602060405180830381865afa158015610259573d6000803e3d6000fd5b505050506040513d601f19601f8201168201806040525081019061027d9190610cc7565b61029a5760405163ba80c9e560e01b815260040160405180910390fd5b6001600160a01b0383166102c15760405163d92e233d60e01b815260040160405180910390fd5b5050600180546001600160a01b0319166001600160a01b0392909216919091179055565b6004805460408051633fabe5a360e21b815290516000936001600160a01b03909316928492849263feaf968c928281019260a09291908290030181865afa158015610334573d6000803e3d6000fd5b505050506040513d601f19601f820116820180604052508101906103589190610d03565b505050915050806402540be40061036f9190610d69565b9392505050565b60025460408051633fabe5a360e21b815290516000926001600160a01b0316918391839163feaf968c9160048083019260a09291908290030181865afa158015610334573d6000803e3d6000fd5b7f00000000000000000000000000000000000000000000000000000000000000006001600160a01b03811661040c576040516371724ffd60e01b815260040160405180910390fd5b806001600160a01b03811663c3c2ebbb336040516001600160e01b031960e084901b1681526001600160a01b039091166004820152602401602060405180830381865afa158015610461573d6000803e3d6000fd5b505050506040513d601f19601f820116820180604052508101906104859190610cc7565b6104a25760405163ba80c9e560e01b815260040160405180910390fd5b6001600160a01b0383166104c95760405163d92e233d60e01b815260040160405180910390fd5b5050600680546001600160a01b0319166001600160a01b0392909216919091179055565b6006546040805163313ce56760e01b815290516000926001600160a01b0316918391839163313ce5679160048083019260209291908290030181865afa15801561053b573d6000803e3d6000fd5b505050506040513d601f19601f8201168201806040525081019061055f9190610d99565b90506000826001600160a01b031663feaf968c6040518163ffffffff1660e01b815260040160a060405180830381865afa1580156105a1573d6000803e3d6000fd5b505050506040513d601f19601f820116820180604052508101906105c59190610d03565b50505091505060128260ff1610156105fe576105e2826012610dbc565b6105ed90600a610eb9565b6105f79082610d69565b905061036f565b60128260ff16111561036f57610615601283610dbc565b61062090600a610eb9565b61062a9082610ec8565b949350505050565b7f00000000000000000000000000000000000000000000000000000000000000006001600160a01b03811661067a576040516371724ffd60e01b815260040160405180910390fd5b806001600160a01b03811663c3c2ebbb336040516001600160e01b031960e084901b1681526001600160a01b039091166004820152602401602060405180830381865afa1580156106cf573d6000803e3d6000fd5b505050506040513d601f19601f820116820180604052508101906106f39190610cc7565b6107105760405163ba80c9e560e01b815260040160405180910390fd5b6001600160a01b0383166107375760405163d92e233d60e01b815260040160405180910390fd5b5050600280546001600160a01b0319166001600160a01b0392909216919091179055565b610763610bf4565b61076d6000610c4e565b565b7f00000000000000000000000000000000000000000000000000000000000000006001600160a01b0381166107b7576040516371724ffd60e01b815260040160405180910390fd5b806001600160a01b03811663c3c2ebbb336040516001600160e01b031960e084901b1681526001600160a01b039091166004820152602401602060405180830381865afa15801561080c573d6000803e3d6000fd5b505050506040513d601f19601f820116820180604052508101906108309190610cc7565b61084d5760405163ba80c9e560e01b815260040160405180910390fd5b6001600160a01b0383166108745760405163d92e233d60e01b815260040160405180910390fd5b5050600480546001600160a01b0319166001600160a01b0392909216919091179055565b7f00000000000000000000000000000000000000000000000000000000000000006001600160a01b0381166108e0576040516371724ffd60e01b815260040160405180910390fd5b806001600160a01b03811663c3c2ebbb336040516001600160e01b031960e084901b1681526001600160a01b039091166004820152602401602060405180830381865afa158015610935573d6000803e3d6000fd5b505050506040513d601f19601f820116820180604052508101906109599190610cc7565b6109765760405163ba80c9e560e01b815260040160405180910390fd5b6001600160a01b03831661099d5760405163d92e233d60e01b815260040160405180910390fd5b5050600580546001600160a01b0319166001600160a01b0392909216919091179055565b6001546000906001600160a01b03908116908316036109e8576109e2610376565b92915050565b6003546001600160a01b0390811690831603610a06576109e26102e5565b6005546001600160a01b0390811690831603610a24576109e26102e5565b604051632a4f499d60e21b81526001600160a01b03831660048201526024015b60405180910390fd5b919050565b610a5a610bf4565b6001600160a01b038116610abf5760405162461bcd60e51b815260206004820152602660248201527f4f776e61626c653a206e6577206f776e657220697320746865207a65726f206160448201526564647265737360d01b6064820152608401610a44565b610ac881610c4e565b50565b7f00000000000000000000000000000000000000000000000000000000000000006001600160a01b038116610b13576040516371724ffd60e01b815260040160405180910390fd5b806001600160a01b03811663c3c2ebbb336040516001600160e01b031960e084901b1681526001600160a01b039091166004820152602401602060405180830381865afa158015610b68573d6000803e3d6000fd5b505050506040513d601f19601f82011682018060405250810190610b8c9190610cc7565b610ba95760405163ba80c9e560e01b815260040160405180910390fd5b6001600160a01b038316610bd05760405163d92e233d60e01b815260040160405180910390fd5b5050600380546001600160a01b0319166001600160a01b0392909216919091179055565b6000546001600160a01b0316331461076d5760405162461bcd60e51b815260206004820181905260248201527f4f776e61626c653a2063616c6c6572206973206e6f7420746865206f776e65726044820152606401610a44565b600080546001600160a01b038381166001600160a01b0319831681178455604051919092169283917f8be0079c531659141344cd1fd0a4f28419497f9722a3daafe3b4186f6b6457e09190a35050565b600060208284031215610cb057600080fd5b81356001600160a01b038116811461036f57600080fd5b600060208284031215610cd957600080fd5b8151801515811461036f57600080fd5b805169ffffffffffffffffffff81168114610a4d57600080fd5b600080600080600060a08688031215610d1b57600080fd5b610d2486610ce9565b9450602086015193506040860151925060608601519150610d4760808701610ce9565b90509295509295909350565b634e487b7160e01b600052601160045260246000fd5b80820260008212600160ff1b84141615610d8557610d85610d53565b81810583148215176109e2576109e2610d53565b600060208284031215610dab57600080fd5b815160ff8116811461036f57600080fd5b60ff82811682821603908111156109e2576109e2610d53565b600181815b80851115610e10578160001904821115610df657610df6610d53565b80851615610e0357918102915b93841c9390800290610dda565b509250929050565b600082610e27575060016109e2565b81610e34575060006109e2565b8160018114610e4a5760028114610e5457610e70565b60019150506109e2565b60ff841115610e6557610e65610d53565b50506001821b6109e2565b5060208310610133831016604e8410600b8410161715610e93575081810a6109e2565b610e9d8383610dd5565b8060001904821115610eb157610eb1610d53565b029392505050565b600061036f60ff841683610e18565b600082610ee557634e487b7160e01b600052601260045260246000fd5b600160ff1b821460001984141615610eff57610eff610d53565b50059056fea2646970667358221220bfc8bc169bc92227dba0b99f7849b3890f2432375778d3164ae4fd0b4c65837964736f6c63430008180033","linkReferences":{}},"methodIdentifiers":{"getChainlinkAAVEtoUSDFeedPrice()":"29e2a481","getChainlinkALGOtoUSDFeedPrice()":"27351c0e","getChainlinkDOGEtoUSDFeedPrice()":"3d09c1b7","getTokenPrice(address)":"d02641a0","owner()":"8da5cb5b","renounceOwnership()":"715018a6","setAAVEAddress(address)":"196e3892","setAAVEFeedAddress(address)":"5ec63d46","setALGOAddress(address)":"f3b87a98","setALGOFeedAddress(address)":"803168a1","setDOGEAddress(address)":"b4110c44","setDOGEFeedAddress(address)":"3cafbdad","transferOwnership(address)":"f2fde38b"},"id":215}