{"abi":[{"type":"function","name":"activateTokenMaxTradingVolume","inputs":[{"name":"_actions","type":"uint8[]","internalType":"enum ActionTypes[]"},{"name":"_on","type":"bool","internalType":"bool"}],"outputs":[],"stateMutability":"nonpayable"},{"type":"function","name":"getTokenMaxTradingVolumeId","inputs":[{"name":"_action","type":"uint8","internalType":"enum ActionTypes"}],"outputs":[{"name":"","type":"uint32","internalType":"uint32"}],"stateMutability":"view"},{"type":"function","name":"isTokenMaxTradingVolumeActive","inputs":[{"name":"_action","type":"uint8","internalType":"enum ActionTypes"}],"outputs":[{"name":"","type":"bool","internalType":"bool"}],"stateMutability":"view"},{"type":"function","name":"setTokenMaxTradingVolumeId","inputs":[{"name":"_actions","type":"uint8[]","internalType":"enum ActionTypes[]"},{"name":"_ruleId","type":"uint32","internalType":"uint32"}],"outputs":[],"stateMutability":"nonpayable"},{"type":"function","name":"setTokenMaxTradingVolumeIdFull","inputs":[{"name":"_actions","type":"uint8[]","internalType":"enum ActionTypes[]"},{"name":"_ruleIds","type":"uint32[]","internalType":"uint32[]"}],"outputs":[],"stateMutability":"nonpayable"},{"type":"event","name":"AD1467_AppManagerAddressProposed","inputs":[{"name":"_address","type":"address","indexed":true,"internalType":"address"}],"anonymous":false},{"type":"event","name":"AD1467_AppManagerAddressSet","inputs":[{"name":"_address","type":"address","indexed":true,"internalType":"address"}],"anonymous":false},{"type":"event","name":"AD1467_ApplicationHandlerActionActivated","inputs":[{"name":"ruleType","type":"bytes32","indexed":true,"internalType":"bytes32"},{"name":"actions","type":"uint8[]","indexed":false,"internalType":"enum ActionTypes[]"}],"anonymous":false},{"type":"event","name":"AD1467_ApplicationHandlerActionApplied","inputs":[{"name":"ruleType","type":"bytes32","indexed":true,"internalType":"bytes32"},{"name":"action","type":"uint8","indexed":true,"internalType":"enum ActionTypes"},{"name":"ruleId","type":"uint32","indexed":true,"internalType":"uint32"}],"anonymous":false},{"type":"event","name":"AD1467_ApplicationHandlerActionAppliedFull","inputs":[{"name":"ruleType","type":"bytes32","indexed":true,"internalType":"bytes32"},{"name":"actions","type":"uint8[]","indexed":false,"internalType":"enum ActionTypes[]"},{"name":"ruleIds","type":"uint32[]","indexed":false,"internalType":"uint32[]"}],"anonymous":false},{"type":"event","name":"AD1467_ApplicationHandlerActionDeactivated","inputs":[{"name":"ruleType","type":"bytes32","indexed":true,"internalType":"bytes32"},{"name":"actions","type":"uint8[]","indexed":false,"internalType":"enum ActionTypes[]"}],"anonymous":false},{"type":"event","name":"AD1467_ERC721AddressSet","inputs":[{"name":"_address","type":"address","indexed":true,"internalType":"address"}],"anonymous":false},{"type":"event","name":"AD1467_FeeActivationSet","inputs":[{"name":"_activation","type":"bool","indexed":true,"internalType":"bool"}],"anonymous":false},{"type":"event","name":"AD1467_NFTValuationLimitUpdated","inputs":[{"name":"nftValuationLimit","type":"uint256","indexed":true,"internalType":"uint256"}],"anonymous":false},{"type":"error","name":"AccountApproveDenyOraclesPerAssetLimitReached","inputs":[]},{"type":"error","name":"AppManagerNotConnected","inputs":[]},{"type":"error","name":"BatchMintBurnNotSupported","inputs":[]},{"type":"error","name":"BelowMinAdminThreshold","inputs":[]},{"type":"error","name":"CannotTurnOffAccountDenyForNoAccessLevelWhileActive","inputs":[]},{"type":"error","name":"FeesAreGreaterThanTransactionAmount","inputs":[{"name":"","type":"address","internalType":"address"}]},{"type":"error","name":"InputArraysMustHaveSameLength","inputs":[]},{"type":"error","name":"InputArraysSizesNotValid","inputs":[]},{"type":"error","name":"InvalidAction","inputs":[]},{"type":"error","name":"NotAppAdministrator","inputs":[]},{"type":"error","name":"NotAppAdministratorOrOwner","inputs":[]},{"type":"error","name":"NotRuleAdministrator","inputs":[]},{"type":"error","name":"NotSuperAdmin","inputs":[{"name":"","type":"address","internalType":"address"}]},{"type":"error","name":"PeriodExceeds5Years","inputs":[]},{"type":"error","name":"ZeroValueNotPermited","inputs":[]},{"type":"error","name":"actionCheckFailed","inputs":[]}],"bytecode":{"object":"0x608060405234801561001057600080fd5b50610ce3806100206000396000f3fe608060405234801561001057600080fd5b50600436106100575760003560e01c80633da609701461005c5780635d5b76e5146100715780636189b3e514610084578063a7d7081914610097578063f2af6b03146100bf575b600080fd5b61006f61006a3660046109de565b6100e7565b005b61006f61007f366004610a63565b6102c4565b61006f610092366004610ac8565b6104c7565b6100aa6100a5366004610b2e565b6106e1565b60405190151581526020015b60405180910390f35b6100d26100cd366004610b2e565b610732565b60405163ffffffff90911681526020016100b6565b6100ef61077e565b600201546001600160a01b03168061011a576040516371724ffd60e01b815260040160405180910390fd5b806001600160a01b03811663d4a7db7f336040516001600160e01b031960e084901b1681526001600160a01b039091166004820152602401602060405180830381865afa15801561016f573d6000803e3d6000fd5b505050506040513d601f19601f820116820180604052508101906101939190610b50565b6101b057604051631acd860160e31b815260040160405180910390fd5b60008590036101d257604051633f4ab26f60e21b815260040160405180910390fd5b8483146101f15760405162514d8b60e31b815260040160405180910390fd5b6101f96107b2565b60005b858110156102625761025a87878381811061021957610219610b6d565b905060200201602081019061022e9190610b2e565b86868481811061024057610240610b6d565b90506020020160208101906102559190610b83565b61083c565b6001016101fc565b5077544f4b454e5f4d41585f54524144494e475f564f4c554d4560401b7ffce5ba10ca670317c4ad6aaf14bfb5c4467bb4415ab89dafce1434471a227126878787876040516102b49493929190610c10565b60405180910390a2505050505050565b6102cc61077e565b600201546001600160a01b0316806102f7576040516371724ffd60e01b815260040160405180910390fd5b806001600160a01b03811663d4a7db7f336040516001600160e01b031960e084901b1681526001600160a01b039091166004820152602401602060405180830381865afa15801561034c573d6000803e3d6000fd5b505050506040513d601f19601f820116820180604052508101906103709190610b50565b61038d57604051631acd860160e31b815260040160405180910390fd5b61039561077e565b60010154604051636d40f01b60e01b815263ffffffff851660048201526001600160a01b0390911690636d40f01b9060240160006040518083038186803b1580156103df57600080fd5b505afa1580156103f3573d6000803e3d6000fd5b5050505060005b848110156104bf5761043286868381811061041757610417610b6d565b905060200201602081019061042c9190610b2e565b8561083c565b8363ffffffff1686868381811061044b5761044b610b6d565b90506020020160208101906104609190610b2e565b600481111561047157610471610b9e565b60405177544f4b454e5f4d41585f54524144494e475f564f4c554d4560401b907f4f87ac5c7868c692420a972d0f84fa7750afbf2b8a09848fefc355020bce707b90600090a46001016103fa565b505050505050565b6104cf61077e565b600201546001600160a01b0316806104fa576040516371724ffd60e01b815260040160405180910390fd5b806001600160a01b03811663d4a7db7f336040516001600160e01b031960e084901b1681526001600160a01b039091166004820152602401602060405180830381865afa15801561054f573d6000803e3d6000fd5b505050506040513d601f19601f820116820180604052508101906105739190610b50565b61059057604051631acd860160e31b815260040160405180910390fd5b60005b8481101561062357836105a4610964565b60008888858181106105b8576105b8610b6d565b90506020020160208101906105cd9190610b2e565b60048111156105de576105de610b9e565b60048111156105ef576105ef610b9e565b8152602081019190915260400160002080549115156401000000000264ff0000000019909216919091179055600101610593565b5082156106845777544f4b454e5f4d41585f54524144494e475f564f4c554d4560401b7f4dfa26a794eb61a703a2beac482f06b4372aed0b7c0d6b4490db416146d8e32e8686604051610677929190610c70565b60405180910390a26106da565b77544f4b454e5f4d41585f54524144494e475f564f4c554d4560401b7fe67b4c6b446d2563a2a39eb75b71127a3f908bcfcef4f7c89bd9e1b3ef39d15e86866040516106d1929190610c70565b60405180910390a25b5050505050565b60006106eb610964565b60008360048111156106ff576106ff610b9e565b600481111561071057610710610b9e565b8152602081019190915260400160002054640100000000900460ff1692915050565b600061073c610964565b600083600481111561075057610750610b9e565b600481111561076157610761610b9e565b815260208101919091526040016000205463ffffffff1692915050565b6000806107ac60017f1c7e9355957c344e150b07462120dcb6c99b078e258444a7cd1841042fa7f14b610c8c565b92915050565b60006107bc610964565b905060005b6107c961077e565b60030154600160a01b900460ff168111610838578160008260048111156107f2576107f2610b9e565b600481111561080357610803610b9e565b600481111561081457610814610b9e565b81526020810191909152604001600020805464ffffffffff191690556001016107c1565b5050565b61084461077e565b60010154604051636d40f01b60e01b815263ffffffff831660048201526001600160a01b0390911690636d40f01b9060240160006040518083038186803b15801561088e57600080fd5b505afa1580156108a2573d6000803e3d6000fd5b5050505060006108b0610964565b9050818160008560048111156108c8576108c8610b9e565b60048111156108d9576108d9610b9e565b815260200190815260200160002060000160006101000a81548163ffffffff021916908363ffffffff160217905550600181600001600085600481111561092257610922610b9e565b600481111561093357610933610b9e565b8152602081019190915260400160002080549115156401000000000264ff0000000019909216919091179055505050565b6000806107ac60017fd493040c86275cfa6da6ff5ffd7a4346dc7ffcdc63616e4cf619d98a22f89473610c8c565b60008083601f8401126109a457600080fd5b50813567ffffffffffffffff8111156109bc57600080fd5b6020830191508360208260051b85010111156109d757600080fd5b9250929050565b600080600080604085870312156109f457600080fd5b843567ffffffffffffffff80821115610a0c57600080fd5b610a1888838901610992565b90965094506020870135915080821115610a3157600080fd5b50610a3e87828801610992565b95989497509550505050565b803563ffffffff81168114610a5e57600080fd5b919050565b600080600060408486031215610a7857600080fd5b833567ffffffffffffffff811115610a8f57600080fd5b610a9b86828701610992565b9094509250610aae905060208501610a4a565b90509250925092565b8015158114610ac557600080fd5b50565b600080600060408486031215610add57600080fd5b833567ffffffffffffffff811115610af457600080fd5b610b0086828701610992565b9094509250506020840135610b1481610ab7565b809150509250925092565b803560058110610a5e57600080fd5b600060208284031215610b4057600080fd5b610b4982610b1f565b9392505050565b600060208284031215610b6257600080fd5b8151610b4981610ab7565b634e487b7160e01b600052603260045260246000fd5b600060208284031215610b9557600080fd5b610b4982610a4a565b634e487b7160e01b600052602160045260246000fd5b818352600060208085019450826000805b86811015610c0457610bd683610b1f565b60058110610bf257634e487b7160e01b83526021600452602483fd5b88529683019691830191600101610bc5565b50959695505050505050565b604081526000610c24604083018688610bb4565b8281036020848101919091528482528591810160005b86811015610c635763ffffffff610c5085610a4a565b1682529282019290820190600101610c3a565b5098975050505050505050565b602081526000610c84602083018486610bb4565b949350505050565b818103818111156107ac57634e487b7160e01b600052601160045260246000fdfea2646970667358221220866e3fb846988abb32c869a6ea6a63b9dee52b096e421207a276630ae3a4c29d64736f6c63430008180033","linkReferences":{}},"methodIdentifiers":{"activateTokenMaxTradingVolume(uint8[],bool)":"6189b3e5","getTokenMaxTradingVolumeId(uint8)":"f2af6b03","isTokenMaxTradingVolumeActive(uint8)":"a7d70819","setTokenMaxTradingVolumeId(uint8[],uint32)":"5d5b76e5","setTokenMaxTradingVolumeIdFull(uint8[],uint32[])":"3da60970"},"id":194}