{"abi":[{"type":"function","name":"confirmAppManagerAddress","inputs":[],"outputs":[],"stateMutability":"nonpayable"},{"type":"function","name":"proposeAppManagerAddress","inputs":[{"name":"_newAppManagerAddress","type":"address","internalType":"address"}],"outputs":[],"stateMutability":"nonpayable"},{"type":"function","name":"setLastPossibleAction","inputs":[{"name":"_lastPossibleAction","type":"uint8","internalType":"uint8"}],"outputs":[],"stateMutability":"nonpayable"},{"type":"event","name":"AD1467_AppManagerAddressProposed","inputs":[{"name":"_address","type":"address","indexed":true,"internalType":"address"}],"anonymous":false},{"type":"event","name":"AD1467_AppManagerAddressSet","inputs":[{"name":"_address","type":"address","indexed":true,"internalType":"address"}],"anonymous":false},{"type":"event","name":"AD1467_ApplicationHandlerActionActivated","inputs":[{"name":"ruleType","type":"bytes32","indexed":true,"internalType":"bytes32"},{"name":"actions","type":"uint8[]","indexed":false,"internalType":"enum ActionTypes[]"}],"anonymous":false},{"type":"event","name":"AD1467_ApplicationHandlerActionApplied","inputs":[{"name":"ruleType","type":"bytes32","indexed":true,"internalType":"bytes32"},{"name":"action","type":"uint8","indexed":true,"internalType":"enum ActionTypes"},{"name":"ruleId","type":"uint32","indexed":true,"internalType":"uint32"}],"anonymous":false},{"type":"event","name":"AD1467_ApplicationHandlerActionAppliedFull","inputs":[{"name":"ruleType","type":"bytes32","indexed":true,"internalType":"bytes32"},{"name":"actions","type":"uint8[]","indexed":false,"internalType":"enum ActionTypes[]"},{"name":"ruleIds","type":"uint32[]","indexed":false,"internalType":"uint32[]"}],"anonymous":false},{"type":"event","name":"AD1467_ApplicationHandlerActionDeactivated","inputs":[{"name":"ruleType","type":"bytes32","indexed":true,"internalType":"bytes32"},{"name":"actions","type":"uint8[]","indexed":false,"internalType":"enum ActionTypes[]"}],"anonymous":false},{"type":"event","name":"AD1467_ERC721AddressSet","inputs":[{"name":"_address","type":"address","indexed":true,"internalType":"address"}],"anonymous":false},{"type":"event","name":"AD1467_FeeActivationSet","inputs":[{"name":"_activation","type":"bool","indexed":true,"internalType":"bool"}],"anonymous":false},{"type":"event","name":"AD1467_NFTValuationLimitUpdated","inputs":[{"name":"nftValuationLimit","type":"uint256","indexed":true,"internalType":"uint256"}],"anonymous":false},{"type":"error","name":"AppManagerNotConnected","inputs":[]},{"type":"error","name":"BelowMinAdminThreshold","inputs":[]},{"type":"error","name":"ConfirmerDoesNotMatchProposedAddress","inputs":[]},{"type":"error","name":"NoProposalHasBeenMade","inputs":[]},{"type":"error","name":"NotAppAdministrator","inputs":[]},{"type":"error","name":"NotAppAdministratorOrOwner","inputs":[]},{"type":"error","name":"NotRuleAdministrator","inputs":[]},{"type":"error","name":"NotSuperAdmin","inputs":[{"name":"","type":"address","internalType":"address"}]},{"type":"error","name":"ZeroAddress","inputs":[]}],"bytecode":{"object":"0x608060405234801561001057600080fd5b50610446806100206000396000f3fe608060405234801561001057600080fd5b50600436106100415760003560e01c806311280cb514610046578063cdccb27a1461005b578063e20da9a114610063575b600080fd5b61005961005436600461037a565b610076565b005b61005961010f565b6100596100713660046103aa565b610207565b61007e61024d565b600201546001600160a01b031661009481610281565b6001600160a01b0382166100bb5760405163d92e233d60e01b815260040160405180910390fd5b816100c461024d565b80546001600160a01b0319166001600160a01b03928316179055604051908316907fb55bb65ffb11767909d0a4c57dc84fe177b0bf1e1d6ecfc499e4d0ae950af3b990600090a25050565b600061011961024d565b80549091506001600160a01b03166101445760405163821e0eeb60e01b815260040160405180910390fd5b80546001600160a01b0316331461016e57604051634128496760e01b815260040160405180910390fd5b80546002820180546001600160a01b0319166001600160a01b0390921691909117905561019961024d565b60029081015490820180546001600160a01b039092166001600160a01b031992831617905581541681556101cb61024d565b600201546040516001600160a01b03909116907f3ac7d74683e7037bbcca16efc7d8a868fef7ab1c486ed25e3658c626afd10fa990600090a250565b61020f61024d565b600201546001600160a01b031661022581610281565b8161022e61024d565b60030160146101000a81548160ff021916908360ff1602179055505050565b60008061027b60017f1c7e9355957c344e150b07462120dcb6c99b078e258444a7cd1841042fa7f14b6103cd565b92915050565b6001600160a01b0381166102a8576040516371724ffd60e01b815260040160405180910390fd5b806001600160a01b03811663c3c2ebbb336040516001600160e01b031960e084901b1681526001600160a01b039091166004820152602401602060405180830381865afa1580156102fd573d6000803e3d6000fd5b505050506040513d601f19601f8201168201806040525081019061032191906103ee565b15801561035857507f02dbc36a11ad69a7efd36e6fc5553942b2a3c7757978bf89807fea8d8cdf5a8b546001600160a01b03163314155b156103765760405163054f3a3160e31b815260040160405180910390fd5b5050565b60006020828403121561038c57600080fd5b81356001600160a01b03811681146103a357600080fd5b9392505050565b6000602082840312156103bc57600080fd5b813560ff811681146103a357600080fd5b8181038181111561027b57634e487b7160e01b600052601160045260246000fd5b60006020828403121561040057600080fd5b815180151581146103a357600080fdfea2646970667358221220ad1f8a982a330e209ec6e1f1e47e3773db617d92d4f022b6bb4e817bdc46d8ee64736f6c63430008180033","linkReferences":{}},"methodIdentifiers":{"confirmAppManagerAddress()":"cdccb27a","proposeAppManagerAddress(address)":"11280cb5","setLastPossibleAction(uint8)":"e20da9a1"},"id":188}