{"abi":[{"type":"function","name":"getNFTValuationLimit","inputs":[],"outputs":[{"name":"","type":"uint256","internalType":"uint256"}],"stateMutability":"view"},{"type":"function","name":"setNFTValuationLimit","inputs":[{"name":"_newNFTValuationLimit","type":"uint16","internalType":"uint16"}],"outputs":[],"stateMutability":"nonpayable"},{"type":"event","name":"AD1467_AppManagerAddressProposed","inputs":[{"name":"_address","type":"address","indexed":true,"internalType":"address"}],"anonymous":false},{"type":"event","name":"AD1467_AppManagerAddressSet","inputs":[{"name":"_address","type":"address","indexed":true,"internalType":"address"}],"anonymous":false},{"type":"event","name":"AD1467_ApplicationHandlerActionActivated","inputs":[{"name":"ruleType","type":"bytes32","indexed":true,"internalType":"bytes32"},{"name":"actions","type":"uint8[]","indexed":false,"internalType":"enum ActionTypes[]"}],"anonymous":false},{"type":"event","name":"AD1467_ApplicationHandlerActionApplied","inputs":[{"name":"ruleType","type":"bytes32","indexed":true,"internalType":"bytes32"},{"name":"action","type":"uint8","indexed":true,"internalType":"enum ActionTypes"},{"name":"ruleId","type":"uint32","indexed":true,"internalType":"uint32"}],"anonymous":false},{"type":"event","name":"AD1467_ApplicationHandlerActionAppliedFull","inputs":[{"name":"ruleType","type":"bytes32","indexed":true,"internalType":"bytes32"},{"name":"actions","type":"uint8[]","indexed":false,"internalType":"enum ActionTypes[]"},{"name":"ruleIds","type":"uint32[]","indexed":false,"internalType":"uint32[]"}],"anonymous":false},{"type":"event","name":"AD1467_ApplicationHandlerActionDeactivated","inputs":[{"name":"ruleType","type":"bytes32","indexed":true,"internalType":"bytes32"},{"name":"actions","type":"uint8[]","indexed":false,"internalType":"enum ActionTypes[]"}],"anonymous":false},{"type":"event","name":"AD1467_ERC721AddressSet","inputs":[{"name":"_address","type":"address","indexed":true,"internalType":"address"}],"anonymous":false},{"type":"event","name":"AD1467_FeeActivationSet","inputs":[{"name":"_activation","type":"bool","indexed":true,"internalType":"bool"}],"anonymous":false},{"type":"event","name":"AD1467_NFTValuationLimitUpdated","inputs":[{"name":"nftValuationLimit","type":"uint256","indexed":true,"internalType":"uint256"}],"anonymous":false},{"type":"error","name":"AppManagerNotConnected","inputs":[]},{"type":"error","name":"BelowMinAdminThreshold","inputs":[]},{"type":"error","name":"NotAppAdministrator","inputs":[]},{"type":"error","name":"NotAppAdministratorOrOwner","inputs":[]},{"type":"error","name":"NotRuleAdministrator","inputs":[]},{"type":"error","name":"NotSuperAdmin","inputs":[{"name":"","type":"address","internalType":"address"}]}],"bytecode":{"object":"0x608060405234801561001057600080fd5b506102e5806100206000396000f3fe608060405234801561001057600080fd5b50600436106100365760003560e01c80632bba76341461003b57806366079f9f14610050575b600080fd5b61004e610049366004610241565b61006a565b005b6100586100d2565b60405190815260200160405180910390f35b6100726100e6565b600201546001600160a01b03166100888161011a565b81610091610213565b805461ffff191661ffff928316179055604051908316907f72242ba1b422d7006e81de8caf29f2916cc96a1f96beb2b6757056252d3d9cb390600090a25050565b60006100dc610213565b5461ffff16919050565b60008061011460017f1c7e9355957c344e150b07462120dcb6c99b078e258444a7cd1841042fa7f14b61026c565b92915050565b6001600160a01b038116610141576040516371724ffd60e01b815260040160405180910390fd5b806001600160a01b03811663c3c2ebbb336040516001600160e01b031960e084901b1681526001600160a01b039091166004820152602401602060405180830381865afa158015610196573d6000803e3d6000fd5b505050506040513d601f19601f820116820180604052508101906101ba919061028d565b1580156101f157507f02dbc36a11ad69a7efd36e6fc5553942b2a3c7757978bf89807fea8d8cdf5a8b546001600160a01b03163314155b1561020f5760405163054f3a3160e31b815260040160405180910390fd5b5050565b60008061011460017fd9cbea5e99e1378c64d1bf3731964b7d6ee1d09c16ecc4580d9a629781cb4a0161026c565b60006020828403121561025357600080fd5b813561ffff8116811461026557600080fd5b9392505050565b8181038181111561011457634e487b7160e01b600052601160045260246000fd5b60006020828403121561029f57600080fd5b8151801515811461026557600080fdfea26469706673582212202a98a0e9b4d08b8dedd968e7e51027891b86f8a5efad645ba415552c5d7e8cae64736f6c63430008180033","linkReferences":{}},"methodIdentifiers":{"getNFTValuationLimit()":"66079f9f","setNFTValuationLimit(uint16)":"2bba7634"},"id":197}