{"abi":[{"type":"function","name":"activateAccountApproveDenyOracle","inputs":[{"name":"_actions","type":"uint8[]","internalType":"enum ActionTypes[]"},{"name":"_on","type":"bool","internalType":"bool"},{"name":"ruleId","type":"uint32","internalType":"uint32"}],"outputs":[],"stateMutability":"nonpayable"},{"type":"function","name":"activateMinTransactionSizeRule","inputs":[{"name":"_actions","type":"uint8[]","internalType":"enum ActionTypes[]"},{"name":"_on","type":"bool","internalType":"bool"}],"outputs":[],"stateMutability":"nonpayable"},{"type":"function","name":"activateTokenMaxSupplyVolatility","inputs":[{"name":"_actions","type":"uint8[]","internalType":"enum ActionTypes[]"},{"name":"_on","type":"bool","internalType":"bool"}],"outputs":[],"stateMutability":"nonpayable"},{"type":"function","name":"activateTokenMaxTradingVolume","inputs":[{"name":"_actions","type":"uint8[]","internalType":"enum ActionTypes[]"},{"name":"_on","type":"bool","internalType":"bool"}],"outputs":[],"stateMutability":"nonpayable"},{"type":"function","name":"checkNonTaggedRules","inputs":[{"name":"_from","type":"address","internalType":"address"},{"name":"_to","type":"address","internalType":"address"},{"name":"_amount","type":"uint256","internalType":"uint256"},{"name":"action","type":"uint8","internalType":"enum ActionTypes"}],"outputs":[],"stateMutability":"nonpayable"},{"type":"function","name":"getAccountApproveDenyOracleIds","inputs":[{"name":"_action","type":"uint8","internalType":"enum ActionTypes"}],"outputs":[{"name":"","type":"uint32[]","internalType":"uint32[]"}],"stateMutability":"view"},{"type":"function","name":"getTokenMaxSupplyVolatilityId","inputs":[{"name":"_action","type":"uint8","internalType":"enum ActionTypes"}],"outputs":[{"name":"","type":"uint32","internalType":"uint32"}],"stateMutability":"view"},{"type":"function","name":"getTokenMaxTradingVolumeId","inputs":[{"name":"_action","type":"uint8","internalType":"enum ActionTypes"}],"outputs":[{"name":"","type":"uint32","internalType":"uint32"}],"stateMutability":"view"},{"type":"function","name":"getTokenMinTxSizeId","inputs":[{"name":"_action","type":"uint8","internalType":"enum ActionTypes"}],"outputs":[{"name":"","type":"uint32","internalType":"uint32"}],"stateMutability":"view"},{"type":"function","name":"isAccountApproveDenyOracleActive","inputs":[{"name":"_action","type":"uint8","internalType":"enum ActionTypes"},{"name":"ruleId","type":"uint32","internalType":"uint32"}],"outputs":[{"name":"","type":"bool","internalType":"bool"}],"stateMutability":"view"},{"type":"function","name":"isTokenMaxSupplyVolatilityActive","inputs":[{"name":"_action","type":"uint8","internalType":"enum ActionTypes"}],"outputs":[{"name":"","type":"bool","internalType":"bool"}],"stateMutability":"view"},{"type":"function","name":"isTokenMaxTradingVolumeActive","inputs":[{"name":"_action","type":"uint8","internalType":"enum ActionTypes"}],"outputs":[{"name":"","type":"bool","internalType":"bool"}],"stateMutability":"view"},{"type":"function","name":"isTokenMinTxSizeActive","inputs":[{"name":"_action","type":"uint8","internalType":"enum ActionTypes"}],"outputs":[{"name":"","type":"bool","internalType":"bool"}],"stateMutability":"view"},{"type":"function","name":"removeAccountApproveDenyOracle","inputs":[{"name":"_actions","type":"uint8[]","internalType":"enum ActionTypes[]"},{"name":"ruleId","type":"uint32","internalType":"uint32"}],"outputs":[],"stateMutability":"nonpayable"},{"type":"function","name":"setAccountApproveDenyOracleId","inputs":[{"name":"_actions","type":"uint8[]","internalType":"enum ActionTypes[]"},{"name":"_ruleId","type":"uint32","internalType":"uint32"}],"outputs":[],"stateMutability":"nonpayable"},{"type":"function","name":"setAccountApproveDenyOracleIdFull","inputs":[{"name":"_actions","type":"uint8[]","internalType":"enum ActionTypes[]"},{"name":"_ruleIds","type":"uint32[]","internalType":"uint32[]"}],"outputs":[],"stateMutability":"nonpayable"},{"type":"function","name":"setTokenMaxSupplyVolatilityId","inputs":[{"name":"_actions","type":"uint8[]","internalType":"enum ActionTypes[]"},{"name":"_ruleId","type":"uint32","internalType":"uint32"}],"outputs":[],"stateMutability":"nonpayable"},{"type":"function","name":"setTokenMaxSupplyVolatilityIdFull","inputs":[{"name":"_actions","type":"uint8[]","internalType":"enum ActionTypes[]"},{"name":"_ruleIds","type":"uint32[]","internalType":"uint32[]"}],"outputs":[],"stateMutability":"nonpayable"},{"type":"function","name":"setTokenMaxTradingVolumeId","inputs":[{"name":"_actions","type":"uint8[]","internalType":"enum ActionTypes[]"},{"name":"_ruleId","type":"uint32","internalType":"uint32"}],"outputs":[],"stateMutability":"nonpayable"},{"type":"function","name":"setTokenMaxTradingVolumeIdFull","inputs":[{"name":"_actions","type":"uint8[]","internalType":"enum ActionTypes[]"},{"name":"_ruleIds","type":"uint32[]","internalType":"uint32[]"}],"outputs":[],"stateMutability":"nonpayable"},{"type":"function","name":"setTokenMinTxSizeId","inputs":[{"name":"_actions","type":"uint8[]","internalType":"enum ActionTypes[]"},{"name":"_ruleId","type":"uint32","internalType":"uint32"}],"outputs":[],"stateMutability":"nonpayable"},{"type":"function","name":"setTokenMinTxSizeIdFull","inputs":[{"name":"_actions","type":"uint8[]","internalType":"enum ActionTypes[]"},{"name":"_ruleIds","type":"uint32[]","internalType":"uint32[]"}],"outputs":[],"stateMutability":"nonpayable"},{"type":"event","name":"AD1467_AppManagerAddressProposed","inputs":[{"name":"_address","type":"address","indexed":true,"internalType":"address"}],"anonymous":false},{"type":"event","name":"AD1467_AppManagerAddressSet","inputs":[{"name":"_address","type":"address","indexed":true,"internalType":"address"}],"anonymous":false},{"type":"event","name":"AD1467_ApplicationHandlerActionActivated","inputs":[{"name":"ruleType","type":"bytes32","indexed":true,"internalType":"bytes32"},{"name":"actions","type":"uint8[]","indexed":false,"internalType":"enum ActionTypes[]"}],"anonymous":false},{"type":"event","name":"AD1467_ApplicationHandlerActionApplied","inputs":[{"name":"ruleType","type":"bytes32","indexed":true,"internalType":"bytes32"},{"name":"action","type":"uint8","indexed":true,"internalType":"enum ActionTypes"},{"name":"ruleId","type":"uint32","indexed":true,"internalType":"uint32"}],"anonymous":false},{"type":"event","name":"AD1467_ApplicationHandlerActionAppliedFull","inputs":[{"name":"ruleType","type":"bytes32","indexed":true,"internalType":"bytes32"},{"name":"actions","type":"uint8[]","indexed":false,"internalType":"enum ActionTypes[]"},{"name":"ruleIds","type":"uint32[]","indexed":false,"internalType":"uint32[]"}],"anonymous":false},{"type":"event","name":"AD1467_ApplicationHandlerActionDeactivated","inputs":[{"name":"ruleType","type":"bytes32","indexed":true,"internalType":"bytes32"},{"name":"actions","type":"uint8[]","indexed":false,"internalType":"enum ActionTypes[]"}],"anonymous":false},{"type":"event","name":"AD1467_ERC721AddressSet","inputs":[{"name":"_address","type":"address","indexed":true,"internalType":"address"}],"anonymous":false},{"type":"event","name":"AD1467_FeeActivationSet","inputs":[{"name":"_activation","type":"bool","indexed":true,"internalType":"bool"}],"anonymous":false},{"type":"event","name":"AD1467_NFTValuationLimitUpdated","inputs":[{"name":"nftValuationLimit","type":"uint256","indexed":true,"internalType":"uint256"}],"anonymous":false},{"type":"error","name":"AccountApproveDenyOraclesPerAssetLimitReached","inputs":[]},{"type":"error","name":"AppManagerNotConnected","inputs":[]},{"type":"error","name":"BatchMintBurnNotSupported","inputs":[]},{"type":"error","name":"BelowMinAdminThreshold","inputs":[]},{"type":"error","name":"CannotTurnOffAccountDenyForNoAccessLevelWhileActive","inputs":[]},{"type":"error","name":"FeesAreGreaterThanTransactionAmount","inputs":[{"name":"","type":"address","internalType":"address"}]},{"type":"error","name":"InputArraysMustHaveSameLength","inputs":[]},{"type":"error","name":"InputArraysSizesNotValid","inputs":[]},{"type":"error","name":"InvalidAction","inputs":[]},{"type":"error","name":"NotAppAdministrator","inputs":[]},{"type":"error","name":"NotAppAdministratorOrOwner","inputs":[]},{"type":"error","name":"NotRuleAdministrator","inputs":[]},{"type":"error","name":"NotSuperAdmin","inputs":[{"name":"","type":"address","internalType":"address"}]},{"type":"error","name":"PeriodExceeds5Years","inputs":[]},{"type":"error","name":"ZeroValueNotPermited","inputs":[]},{"type":"error","name":"actionCheckFailed","inputs":[]}],"bytecode":{"object":"0x608060405234801561001057600080fd5b5061358d806100206000396000f3fe608060405234801561001057600080fd5b50600436106101425760003560e01c806341bd803c116100b857806368ecb2741161007c57806368ecb274146102b057806369009931146102c35780636f43d91d146102d65780637bea213d146102e9578063a7d70819146102fc578063f2af6b031461030f57600080fd5b806341bd803c14610251578063526b011b14610264578063569d92fc146102775780635d5b76e51461028a5780636189b3e51461029d57600080fd5b80632720970f1161010a5780632720970f146101d257806338ab03a2146101e557806339a86e8f146101f85780633da609701461020b5780633e800f1e1461021e57806340cecd551461023e57600080fd5b8063042be5951461014757806306638f5e1461016f5780631dfab36914610197578063228e6a75146101ac57806322de984a146101bf575b600080fd5b61015a610155366004612f46565b610322565b60405190151581526020015b60405180910390f35b61018261017d366004612f46565b610372565b60405163ffffffff9091168152602001610166565b6101aa6101a5366004612fc1565b6103be565b005b6101826101ba366004612f46565b6105a2565b6101aa6101cd366004613023565b6105ac565b61015a6101e0366004613089565b6108a1565b6101aa6101f33660046130bc565b6109cc565b6101aa610206366004613128565b610b80565b6101aa6102193660046130bc565b610d43565b61023161022c366004612f46565b610efe565b604051610166919061317f565b61015a61024c366004612f46565b61105c565b6101aa61025f3660046130bc565b611066565b6101aa610272366004612fc1565b611214565b6101aa6102853660046130bc565b6113f6565b6101aa610298366004612fc1565b6115a4565b6101aa6102ab366004613128565b61178d565b6101aa6102be366004613128565b611982565b6101aa6102d1366004612fc1565b611b4c565b6101aa6102e43660046131e0565b611f85565b6101aa6102f7366004612fc1565b612522565b61015a61030a366004612f46565b6126fe565b61018261031d366004612f46565b612708565b600061032c612712565b600083600481111561034057610340613222565b600481111561035157610351613222565b8152602081019190915260400160002054600160201b900460ff1692915050565b600061037c612712565b600083600481111561039057610390613222565b60048111156103a1576103a1613222565b815260208101919091526040016000205463ffffffff1692915050565b6103c6612740565b600201546001600160a01b0316806103f1576040516371724ffd60e01b815260040160405180910390fd5b806001600160a01b03811663d4a7db7f336040516001600160e01b031960e084901b1681526001600160a01b039091166004820152602401602060405180830381865afa158015610446573d6000803e3d6000fd5b505050506040513d601f19601f8201168201806040525081019061046a9190613238565b61048757604051631acd860160e31b815260040160405180910390fd5b61048f612740565b6001015460405163251d88ed60e01b815263ffffffff851660048201526001600160a01b039091169063251d88ed9060240160006040518083038186803b1580156104d957600080fd5b505afa1580156104ed573d6000803e3d6000fd5b5050505060005b8481101561059a5761052c86868381811061051157610511613255565b90506020020160208101906105269190612f46565b8561276e565b8363ffffffff1686868381811061054557610545613255565b905060200201602081019061055a9190612f46565b600481111561056b5761056b613222565b6040516000805160206134f88339815191529060008051602061351883398151915290600090a46001016104f4565b505050505050565b600061037c61296c565b6105b4612740565b600201546001600160a01b0316806105df576040516371724ffd60e01b815260040160405180910390fd5b806001600160a01b03811663d4a7db7f336040516001600160e01b031960e084901b1681526001600160a01b039091166004820152602401602060405180830381865afa158015610634573d6000803e3d6000fd5b505050506040513d601f19601f820116820180604052508101906106589190613238565b61067557604051631acd860160e31b815260040160405180910390fd5b60005b8581101561082157600061068a61299a565b905060005b8160008a8a868181106106a4576106a4613255565b90506020020160208101906106b99190612f46565b60048111156106ca576106ca613222565b60048111156106db576106db613222565b8152602081019190915260400160002054811015610817578563ffffffff168260008b8b8781811061070f5761070f613255565b90506020020160208101906107249190612f46565b600481111561073557610735613222565b600481111561074657610746613222565b8152602001908152602001600020828154811061076557610765613255565b60009182526020909120015463ffffffff160361080f57868260008b8b8781811061079257610792613255565b90506020020160208101906107a79190612f46565b60048111156107b8576107b8613222565b60048111156107c9576107c9613222565b815260200190815260200160002082815481106107e8576107e8613255565b60009182526020909120018054911515600160201b0264ff00000000199092169190911790555b60010161068f565b5050600101610678565b508315610863576000805160206134f88339815191526000805160206134d883398151915287876040516108569291906132c7565b60405180910390a261059a565b6000805160206134f88339815191526000805160206134b883398151915287876040516108919291906132c7565b60405180910390a2505050505050565b6000806108ac61299a565b905060005b8160008660048111156108c6576108c6613222565b60048111156108d7576108d7613222565b81526020810191909152604001600020548110156109bf578363ffffffff1682600087600481111561090b5761090b613222565b600481111561091c5761091c613222565b8152602001908152602001600020828154811061093b5761093b613255565b60009182526020909120015463ffffffff16036109b75781600086600481111561096757610967613222565b600481111561097857610978613222565b8152602001908152602001600020818154811061099757610997613255565b600091825260209091200154600160201b900460ff1692506109c6915050565b6001016108b1565b5060009150505b92915050565b6109d4612740565b600201546001600160a01b0316806109ff576040516371724ffd60e01b815260040160405180910390fd5b806001600160a01b03811663d4a7db7f336040516001600160e01b031960e084901b1681526001600160a01b039091166004820152602401602060405180830381865afa158015610a54573d6000803e3d6000fd5b505050506040513d601f19601f82011682018060405250810190610a789190613238565b610a9557604051631acd860160e31b815260040160405180910390fd5b6000859003610ab757604051633f4ab26f60e21b815260040160405180910390fd5b848314610ad65760405162514d8b60e31b815260040160405180910390fd5b610ade6129c8565b60005b85811015610b4757610b3f878783818110610afe57610afe613255565b9050602002016020810190610b139190612f46565b868684818110610b2557610b25613255565b9050602002016020810190610b3a91906132e3565b612a52565b600101610ae1565b5070544f4b454e5f4d494e5f54585f53495a4560781b6000805160206135388339815191528787878760405161089194939291906132fe565b610b88612740565b600201546001600160a01b031680610bb3576040516371724ffd60e01b815260040160405180910390fd5b806001600160a01b03811663d4a7db7f336040516001600160e01b031960e084901b1681526001600160a01b039091166004820152602401602060405180830381865afa158015610c08573d6000803e3d6000fd5b505050506040513d601f19601f82011682018060405250810190610c2c9190613238565b610c4957604051631acd860160e31b815260040160405180910390fd5b6000610c53612712565b905060005b85811015610ce05784826000898985818110610c7657610c76613255565b9050602002016020810190610c8b9190612f46565b6004811115610c9c57610c9c613222565b6004811115610cad57610cad613222565b815260208101919091526040016000208054911515600160201b0264ff0000000019909216919091179055600101610c58565b508315610d15576000805160206134988339815191526000805160206134d883398151915287876040516108569291906132c7565b6000805160206134988339815191526000805160206134b883398151915287876040516108919291906132c7565b610d4b612740565b600201546001600160a01b031680610d76576040516371724ffd60e01b815260040160405180910390fd5b806001600160a01b03811663d4a7db7f336040516001600160e01b031960e084901b1681526001600160a01b039091166004820152602401602060405180830381865afa158015610dcb573d6000803e3d6000fd5b505050506040513d601f19601f82011682018060405250810190610def9190613238565b610e0c57604051631acd860160e31b815260040160405180910390fd5b6000859003610e2e57604051633f4ab26f60e21b815260040160405180910390fd5b848314610e4d5760405162514d8b60e31b815260040160405180910390fd5b610e55612b79565b60005b85811015610ebe57610eb6878783818110610e7557610e75613255565b9050602002016020810190610e8a9190612f46565b868684818110610e9c57610e9c613255565b9050602002016020810190610eb191906132e3565b612bff565b600101610e58565b5077544f4b454e5f4d41585f54524144494e475f564f4c554d4560401b6000805160206135388339815191528787878760405161089194939291906132fe565b60606000610f0a61299a565b905060008181856004811115610f2257610f22613222565b6004811115610f3357610f33613222565b815260208101919091526040016000205467ffffffffffffffff811115610f5c57610f5c61335e565b604051908082528060200260200182016040528015610f85578160200160208202803683370190505b50905060005b826000866004811115610fa057610fa0613222565b6004811115610fb157610fb1613222565b815260208101919091526040016000205481101561105457826000866004811115610fde57610fde613222565b6004811115610fef57610fef613222565b8152602001908152602001600020818154811061100e5761100e613255565b600091825260209091200154825163ffffffff9091169083908390811061103757611037613255565b63ffffffff90921660209283029190910190910152600101610f8b565b509392505050565b600061032c61296c565b61106e612740565b600201546001600160a01b031680611099576040516371724ffd60e01b815260040160405180910390fd5b806001600160a01b03811663d4a7db7f336040516001600160e01b031960e084901b1681526001600160a01b039091166004820152602401602060405180830381865afa1580156110ee573d6000803e3d6000fd5b505050506040513d601f19601f820116820180604052508101906111129190613238565b61112f57604051631acd860160e31b815260040160405180910390fd5b600085900361115157604051633f4ab26f60e21b815260040160405180910390fd5b8483146111705760405162514d8b60e31b815260040160405180910390fd5b611178612c73565b60005b858110156111e1576111d987878381811061119857611198613255565b90506020020160208101906111ad9190612f46565b8686848181106111bf576111bf613255565b90506020020160208101906111d491906132e3565b61276e565b60010161117b565b506000805160206134f88339815191526000805160206135388339815191528787878760405161089194939291906132fe565b61121c612740565b600201546001600160a01b031680611247576040516371724ffd60e01b815260040160405180910390fd5b806001600160a01b03811663d4a7db7f336040516001600160e01b031960e084901b1681526001600160a01b039091166004820152602401602060405180830381865afa15801561129c573d6000803e3d6000fd5b505050506040513d601f19601f820116820180604052508101906112c09190613238565b6112dd57604051631acd860160e31b815260040160405180910390fd5b6112e5612740565b6001015460405163c34593a360e01b815263ffffffff851660048201526001600160a01b039091169063c34593a39060240160006040518083038186803b15801561132f57600080fd5b505afa158015611343573d6000803e3d6000fd5b5050505060005b8481101561059a5761138286868381811061136757611367613255565b905060200201602081019061137c9190612f46565b85612a52565b8363ffffffff1686868381811061139b5761139b613255565b90506020020160208101906113b09190612f46565b60048111156113c1576113c1613222565b60405170544f4b454e5f4d494e5f54585f53495a4560781b9060008051602061351883398151915290600090a460010161134a565b6113fe612740565b600201546001600160a01b031680611429576040516371724ffd60e01b815260040160405180910390fd5b806001600160a01b03811663d4a7db7f336040516001600160e01b031960e084901b1681526001600160a01b039091166004820152602401602060405180830381865afa15801561147e573d6000803e3d6000fd5b505050506040513d601f19601f820116820180604052508101906114a29190613238565b6114bf57604051631acd860160e31b815260040160405180910390fd5b60008590036114e157604051633f4ab26f60e21b815260040160405180910390fd5b8483146115005760405162514d8b60e31b815260040160405180910390fd5b611508612cf7565b60005b858110156115715761156987878381811061152857611528613255565b905060200201602081019061153d9190612f46565b86868481811061154f5761154f613255565b905060200201602081019061156491906132e3565b612d7d565b60010161150b565b506000805160206134988339815191526000805160206135388339815191528787878760405161089194939291906132fe565b6115ac612740565b600201546001600160a01b0316806115d7576040516371724ffd60e01b815260040160405180910390fd5b806001600160a01b03811663d4a7db7f336040516001600160e01b031960e084901b1681526001600160a01b039091166004820152602401602060405180830381865afa15801561162c573d6000803e3d6000fd5b505050506040513d601f19601f820116820180604052508101906116509190613238565b61166d57604051631acd860160e31b815260040160405180910390fd5b611675612740565b60010154604051636d40f01b60e01b815263ffffffff851660048201526001600160a01b0390911690636d40f01b9060240160006040518083038186803b1580156116bf57600080fd5b505afa1580156116d3573d6000803e3d6000fd5b5050505060005b8481101561059a576117128686838181106116f7576116f7613255565b905060200201602081019061170c9190612f46565b85612bff565b8363ffffffff1686868381811061172b5761172b613255565b90506020020160208101906117409190612f46565b600481111561175157611751613222565b60405177544f4b454e5f4d41585f54524144494e475f564f4c554d4560401b9060008051602061351883398151915290600090a46001016116da565b611795612740565b600201546001600160a01b0316806117c0576040516371724ffd60e01b815260040160405180910390fd5b806001600160a01b03811663d4a7db7f336040516001600160e01b031960e084901b1681526001600160a01b039091166004820152602401602060405180830381865afa158015611815573d6000803e3d6000fd5b505050506040513d601f19601f820116820180604052508101906118399190613238565b61185657604051631acd860160e31b815260040160405180910390fd5b60005b848110156118e8578361186a612df1565b600088888581811061187e5761187e613255565b90506020020160208101906118939190612f46565b60048111156118a4576118a4613222565b60048111156118b5576118b5613222565b815260208101919091526040016000208054911515600160201b0264ff0000000019909216919091179055600101611859565b5082156119375777544f4b454e5f4d41585f54524144494e475f564f4c554d4560401b6000805160206134d8833981519152868660405161192a9291906132c7565b60405180910390a261197b565b77544f4b454e5f4d41585f54524144494e475f564f4c554d4560401b6000805160206134b883398151915286866040516119729291906132c7565b60405180910390a25b5050505050565b61198a612740565b600201546001600160a01b0316806119b5576040516371724ffd60e01b815260040160405180910390fd5b806001600160a01b03811663d4a7db7f336040516001600160e01b031960e084901b1681526001600160a01b039091166004820152602401602060405180830381865afa158015611a0a573d6000803e3d6000fd5b505050506040513d601f19601f82011682018060405250810190611a2e9190613238565b611a4b57604051631acd860160e31b815260040160405180910390fd5b60005b84811015611add5783611a5f61296c565b6000888885818110611a7357611a73613255565b9050602002016020810190611a889190612f46565b6004811115611a9957611a99613222565b6004811115611aaa57611aaa613222565b815260208101919091526040016000208054911515600160201b0264ff0000000019909216919091179055600101611a4e565b508215611b185770544f4b454e5f4d494e5f54585f53495a4560781b6000805160206134d8833981519152868660405161192a9291906132c7565b70544f4b454e5f4d494e5f54585f53495a4560781b6000805160206134b883398151915286866040516119729291906132c7565b611b54612740565b600201546001600160a01b031680611b7f576040516371724ffd60e01b815260040160405180910390fd5b806001600160a01b03811663d4a7db7f336040516001600160e01b031960e084901b1681526001600160a01b039091166004820152602401602060405180830381865afa158015611bd4573d6000803e3d6000fd5b505050506040513d601f19601f82011682018060405250810190611bf89190613238565b611c1557604051631acd860160e31b815260040160405180910390fd5b6000611c1f61299a565b905060005b85811015611f7c576000826000898985818110611c4357611c43613255565b9050602002016020810190611c589190612f46565b6004811115611c6957611c69613222565b6004811115611c7a57611c7a613222565b815260200190815260200160002060018460008b8b87818110611c9f57611c9f613255565b9050602002016020810190611cb49190612f46565b6004811115611cc557611cc5613222565b6004811115611cd657611cd6613222565b8152602081019190915260400160002054611cf1919061338a565b81548110611d0157611d01613255565b60009182526020918290206040805180820190915291015463ffffffff808216808452600160201b90920460ff1615159383019390935290925090871614611eea576000805b8460008b8b87818110611d5c57611d5c613255565b9050602002016020810190611d719190612f46565b6004811115611d8257611d82613222565b6004811115611d9357611d93613222565b8152602081019190915260400160002054811015611e44578763ffffffff168560008c8c88818110611dc757611dc7613255565b9050602002016020810190611ddc9190612f46565b6004811115611ded57611ded613222565b6004811115611dfe57611dfe613222565b81526020019081526020016000208281548110611e1d57611e1d613255565b60009182526020909120015463ffffffff1603611e3c57809150611e44565b600101611d47565b50818460008b8b87818110611e5b57611e5b613255565b9050602002016020810190611e709190612f46565b6004811115611e8157611e81613222565b6004811115611e9257611e92613222565b81526020019081526020016000208281548110611eb157611eb1613255565b600091825260209182902083519101805493909201511515600160201b0264ffffffffff1990931663ffffffff90911617919091179055505b826000898985818110611eff57611eff613255565b9050602002016020810190611f149190612f46565b6004811115611f2557611f25613222565b6004811115611f3657611f36613222565b8152602001908152602001600020805480611f5357611f5361339d565b6000828152602090208101600019908101805464ffffffffff1916905501905550600101611c24565b50505050505050565b6000611f8f612740565b90506000611f9b61299a565b9050611fa561296c565b6000846004811115611fb957611fb9613222565b6004811115611fca57611fca613222565b8152602081019190915260400160002054600160201b900460ff16156120985760018201546001600160a01b031663517c801861200561296c565b600086600481111561201957612019613222565b600481111561202a5761202a613222565b81526020810191909152604090810160002054905160e083901b6001600160e01b031916815263ffffffff90911660048201526024810187905260440160006040518083038186803b15801561207f57600080fd5b505afa158015612093573d6000803e3d6000fd5b505050505b60018201546001600160a01b031663b110cd298260008660048111156120c0576120c0613222565b60048111156120d1576120d1613222565b8152602001908152602001600020876040518363ffffffff1660e01b81526004016120fd9291906133b3565b60006040518083038186803b15801561211557600080fd5b505afa158015612129573d6000803e3d6000fd5b50505050612135612df1565b600084600481111561214957612149613222565b600481111561215a5761215a613222565b8152602081019190915260400160002054600160201b900460ff16156122fa576000612184612df1565b60018401549091506001600160a01b031663034ac11d8260008760048111156121af576121af613222565b60048111156121c0576121c0613222565b815260200190815260200160002060000160009054906101000a900463ffffffff168360010154336001600160a01b03166318160ddd6040518163ffffffff1660e01b8152600401602060405180830381865afa158015612225573d6000803e3d6000fd5b505050506040513d601f19601f82011682018060405250810190612249919061342a565b600286015460405160e086901b6001600160e01b031916815263ffffffff9094166004850152602484019290925260448301526064820189905267ffffffffffffffff16608482015260a401602060405180830381865afa1580156122b2573d6000803e3d6000fd5b505050506040513d601f19601f820116820180604052508101906122d6919061342a565b6001820155600201805467ffffffffffffffff19164267ffffffffffffffff161790555b612302612712565b600084600481111561231657612316613222565b600481111561232757612327613222565b8152602081019190915260400160002054600160201b900460ff16801561236657506001600160a01b038616158061236657506001600160a01b038516155b1561059a576000612375612712565b60018401549091506001600160a01b031663758a4a3a8260008760048111156123a0576123a0613222565b60048111156123b1576123b1613222565b815260200190815260200160002060000160009054906101000a900463ffffffff1683600201548460030154336001600160a01b03166318160ddd6040518163ffffffff1660e01b8152600401602060405180830381865afa15801561241b573d6000803e3d6000fd5b505050506040513d601f19601f8201168201806040525081019061243f919061342a565b6001600160a01b038c1615612454578a612460565b6124608b600019613443565b600188015460405160e088901b6001600160e01b031916815263ffffffff9096166004870152602486019490945260448501929092526064840152608483015267ffffffffffffffff1660a482015260c4016040805180830381865afa1580156124ce573d6000803e3d6000fd5b505050506040513d601f19601f820116820180604052508101906124f29190613473565b60038301556002820155600101805467ffffffffffffffff19164267ffffffffffffffff16179055505050505050565b61252a612740565b600201546001600160a01b031680612555576040516371724ffd60e01b815260040160405180910390fd5b806001600160a01b03811663d4a7db7f336040516001600160e01b031960e084901b1681526001600160a01b039091166004820152602401602060405180830381865afa1580156125aa573d6000803e3d6000fd5b505050506040513d601f19601f820116820180604052508101906125ce9190613238565b6125eb57604051631acd860160e31b815260040160405180910390fd5b6125f3612740565b6001015460405163979cc76b60e01b815263ffffffff851660048201526001600160a01b039091169063979cc76b9060240160006040518083038186803b15801561263d57600080fd5b505afa158015612651573d6000803e3d6000fd5b5050505060005b8481101561059a5761269086868381811061267557612675613255565b905060200201602081019061268a9190612f46565b85612d7d565b8363ffffffff168686838181106126a9576126a9613255565b90506020020160208101906126be9190612f46565b60048111156126cf576126cf613222565b6040516000805160206134988339815191529060008051602061351883398151915290600090a4600101612658565b600061032c612df1565b600061037c612df1565b6000806109c660017f64796b3be01baa886cea07cf2fd07530b2c6f8878268ad7e65a3097a3fea990961338a565b6000806109c660017f1c7e9355957c344e150b07462120dcb6c99b078e258444a7cd1841042fa7f14b61338a565b612776612740565b6001015460405163251d88ed60e01b815263ffffffff831660048201526001600160a01b039091169063251d88ed9060240160006040518083038186803b1580156127c057600080fd5b505afa1580156127d4573d6000803e3d6000fd5b5050505060006127e261299a565b9050600a8160008560048111156127fb576127fb613222565b600481111561280c5761280c613222565b81526020810191909152604001600020541061283b57604051634e4d8dd160e01b815260040160405180910390fd5b6040805180820190915263ffffffff83168152600160208201526000806128628686612e1f565b9150915080156128ee578284600088600481111561288257612882613222565b600481111561289357612893613222565b815260200190815260200160002083815481106128b2576128b2613255565b600091825260209182902083519101805493909201511515600160201b0264ffffffffff1990931663ffffffff9091161791909117905561059a565b83600087600481111561290357612903613222565b600481111561291457612914613222565b81526020808201929092526040016000908120805460018101825590825290829020855191018054928601511515600160201b0264ffffffffff1990931663ffffffff90921691909117919091179055505050505050565b6000806109c660017f5a9cda40a1024916a94d03a0be6b3c39e1927dc802875d6a0ddec4db3b41404e61338a565b6000806109c660017fa41060af1c613de6be71d20319662a5fd3e7bfcedd371c587702f30900ab141b61338a565b60006129d261296c565b905060005b6129df612740565b60030154600160a01b900460ff168111612a4e57816000826004811115612a0857612a08613222565b6004811115612a1957612a19613222565b6004811115612a2a57612a2a613222565b81526020810191909152604001600020805464ffffffffff191690556001016129d7565b5050565b612a5a612740565b6001015460405163c34593a360e01b815263ffffffff831660048201526001600160a01b039091169063c34593a39060240160006040518083038186803b158015612aa457600080fd5b505afa158015612ab8573d6000803e3d6000fd5b505050506000612ac661296c565b905081816000856004811115612ade57612ade613222565b6004811115612aef57612aef613222565b815260200190815260200160002060000160006101000a81548163ffffffff021916908363ffffffff1602179055506001816000016000856004811115612b3857612b38613222565b6004811115612b4957612b49613222565b815260208101919091526040016000208054911515600160201b0264ff0000000019909216919091179055505050565b6000612b83612df1565b905060005b612b90612740565b60030154600160a01b900460ff168111612a4e57816000826004811115612bb957612bb9613222565b6004811115612bca57612bca613222565b6004811115612bdb57612bdb613222565b81526020810191909152604001600020805464ffffffffff19169055600101612b88565b612c07612740565b60010154604051636d40f01b60e01b815263ffffffff831660048201526001600160a01b0390911690636d40f01b9060240160006040518083038186803b158015612c5157600080fd5b505afa158015612c65573d6000803e3d6000fd5b505050506000612ac6612df1565b6000612c7d61299a565b905060005b612c8a612740565b60030154600160a01b900460ff168111612a4e57816000826004811115612cb357612cb3613222565b6004811115612cc457612cc4613222565b6004811115612cd557612cd5613222565b81526020019081526020016000206000612cef9190612ef0565b600101612c82565b6000612d01612712565b905060005b612d0e612740565b60030154600160a01b900460ff168111612a4e57816000826004811115612d3757612d37613222565b6004811115612d4857612d48613222565b6004811115612d5957612d59613222565b81526020810191909152604001600020805464ffffffffff19169055600101612d06565b612d85612740565b6001015460405163979cc76b60e01b815263ffffffff831660048201526001600160a01b039091169063979cc76b9060240160006040518083038186803b158015612dcf57600080fd5b505afa158015612de3573d6000803e3d6000fd5b505050506000612ac6612712565b6000806109c660017fd493040c86275cfa6da6ff5ffd7a4346dc7ffcdc63616e4cf619d98a22f8947361338a565b6000806000612e2c61299a565b905060005b816000876004811115612e4657612e46613222565b6004811115612e5757612e57613222565b8152602081019190915260400160002054811015612ee65763ffffffff8516826000886004811115612e8b57612e8b613222565b6004811115612e9c57612e9c613222565b81526020019081526020016000208281548110612ebb57612ebb613255565b60009182526020909120015463ffffffff1603612ede5780935060019250612ee6565b600101612e31565b50505b9250929050565b5080546000825590600052602060002090810190612f0e9190612f11565b50565b5b80821115612f2e57805464ffffffffff19168155600101612f12565b5090565b803560058110612f4157600080fd5b919050565b600060208284031215612f5857600080fd5b612f6182612f32565b9392505050565b60008083601f840112612f7a57600080fd5b50813567ffffffffffffffff811115612f9257600080fd5b6020830191508360208260051b8501011115612ee957600080fd5b803563ffffffff81168114612f4157600080fd5b600080600060408486031215612fd657600080fd5b833567ffffffffffffffff811115612fed57600080fd5b612ff986828701612f68565b909450925061300c905060208501612fad565b90509250925092565b8015158114612f0e57600080fd5b6000806000806060858703121561303957600080fd5b843567ffffffffffffffff81111561305057600080fd5b61305c87828801612f68565b909550935050602085013561307081613015565b915061307e60408601612fad565b905092959194509250565b6000806040838503121561309c57600080fd5b6130a583612f32565b91506130b360208401612fad565b90509250929050565b600080600080604085870312156130d257600080fd5b843567ffffffffffffffff808211156130ea57600080fd5b6130f688838901612f68565b9096509450602087013591508082111561310f57600080fd5b5061311c87828801612f68565b95989497509550505050565b60008060006040848603121561313d57600080fd5b833567ffffffffffffffff81111561315457600080fd5b61316086828701612f68565b909450925050602084013561317481613015565b809150509250925092565b6020808252825182820181905260009190848201906040850190845b818110156131bd57835163ffffffff168352928401929184019160010161319b565b50909695505050505050565b80356001600160a01b0381168114612f4157600080fd5b600080600080608085870312156131f657600080fd5b6131ff856131c9565b935061320d602086016131c9565b92506040850135915061307e60608601612f32565b634e487b7160e01b600052602160045260246000fd5b60006020828403121561324a57600080fd5b8151612f6181613015565b634e487b7160e01b600052603260045260246000fd5b818352600060208085019450826000805b868110156132bb5761328d83612f32565b600581106132a957634e487b7160e01b83526021600452602483fd5b8852968301969183019160010161327c565b50959695505050505050565b6020815260006132db60208301848661326b565b949350505050565b6000602082840312156132f557600080fd5b612f6182612fad565b60408152600061331260408301868861326b565b8281036020848101919091528482528591810160005b868110156133515763ffffffff61333e85612fad565b1682529282019290820190600101613328565b5098975050505050505050565b634e487b7160e01b600052604160045260246000fd5b634e487b7160e01b600052601160045260246000fd5b818103818111156109c6576109c6613374565b634e487b7160e01b600052603160045260246000fd5b60006040808301604084528086548083526060860191508760005260209250602060002060005b8281101561340857815463ffffffff81168552851c60ff1615158585015292850192600191820191016133da565b5050506001600160a01b03959095166020949094019390935250919392505050565b60006020828403121561343c57600080fd5b5051919050565b80820260008212600160ff1b8414161561345f5761345f613374565b81810583148215176109c6576109c6613374565b6000806040838503121561348657600080fd5b50508051602090910151909290915056fe544f4b454e5f4d41585f535550504c595f564f4c4154494c4954590000000000e67b4c6b446d2563a2a39eb75b71127a3f908bcfcef4f7c89bd9e1b3ef39d15e4dfa26a794eb61a703a2beac482f06b4372aed0b7c0d6b4490db416146d8e32e4143434f554e545f415050524f56455f44454e595f4f5241434c4500000000004f87ac5c7868c692420a972d0f84fa7750afbf2b8a09848fefc355020bce707bfce5ba10ca670317c4ad6aaf14bfb5c4467bb4415ab89dafce1434471a227126a26469706673582212202ff19260e9f0efe2b1f1579f4015730a364b7f754c4c408987fdeefbce1e694864736f6c63430008180033","linkReferences":{}},"methodIdentifiers":{"activateAccountApproveDenyOracle(uint8[],bool,uint32)":"22de984a","activateMinTransactionSizeRule(uint8[],bool)":"68ecb274","activateTokenMaxSupplyVolatility(uint8[],bool)":"39a86e8f","activateTokenMaxTradingVolume(uint8[],bool)":"6189b3e5","checkNonTaggedRules(address,address,uint256,uint8)":"6f43d91d","getAccountApproveDenyOracleIds(uint8)":"3e800f1e","getTokenMaxSupplyVolatilityId(uint8)":"06638f5e","getTokenMaxTradingVolumeId(uint8)":"f2af6b03","getTokenMinTxSizeId(uint8)":"228e6a75","isAccountApproveDenyOracleActive(uint8,uint32)":"2720970f","isTokenMaxSupplyVolatilityActive(uint8)":"042be595","isTokenMaxTradingVolumeActive(uint8)":"a7d70819","isTokenMinTxSizeActive(uint8)":"40cecd55","removeAccountApproveDenyOracle(uint8[],uint32)":"69009931","setAccountApproveDenyOracleId(uint8[],uint32)":"1dfab369","setAccountApproveDenyOracleIdFull(uint8[],uint32[])":"41bd803c","setTokenMaxSupplyVolatilityId(uint8[],uint32)":"7bea213d","setTokenMaxSupplyVolatilityIdFull(uint8[],uint32[])":"569d92fc","setTokenMaxTradingVolumeId(uint8[],uint32)":"5d5b76e5","setTokenMaxTradingVolumeIdFull(uint8[],uint32[])":"3da60970","setTokenMinTxSizeId(uint8[],uint32)":"526b011b","setTokenMinTxSizeIdFull(uint8[],uint32[])":"38ab03a2"},"id":169}