{"abi":[{"type":"function","name":"addFee","inputs":[{"name":"_tag","type":"bytes32","internalType":"bytes32"},{"name":"_minBalance","type":"uint256","internalType":"uint256"},{"name":"_maxBalance","type":"uint256","internalType":"uint256"},{"name":"_feePercentage","type":"int24","internalType":"int24"},{"name":"_targetAccount","type":"address","internalType":"address"}],"outputs":[],"stateMutability":"nonpayable"},{"type":"function","name":"getApplicableFees","inputs":[{"name":"_from","type":"address","internalType":"address"},{"name":"_balanceFrom","type":"uint256","internalType":"uint256"}],"outputs":[{"name":"feeCollectorAccounts","type":"address[]","internalType":"address[]"},{"name":"feePercentages","type":"int24[]","internalType":"int24[]"}],"stateMutability":"view"},{"type":"function","name":"getFee","inputs":[{"name":"_tag","type":"bytes32","internalType":"bytes32"}],"outputs":[{"name":"","type":"tuple","internalType":"struct Fee","components":[{"name":"minBalance","type":"uint256","internalType":"uint256"},{"name":"maxBalance","type":"uint256","internalType":"uint256"},{"name":"feePercentage","type":"int24","internalType":"int24"},{"name":"feeCollectorAccount","type":"address","internalType":"address"}]}],"stateMutability":"view"},{"type":"function","name":"getFeeTotal","inputs":[],"outputs":[{"name":"","type":"uint256","internalType":"uint256"}],"stateMutability":"view"},{"type":"function","name":"isFeeActive","inputs":[],"outputs":[{"name":"","type":"bool","internalType":"bool"}],"stateMutability":"view"},{"type":"function","name":"removeFee","inputs":[{"name":"_tag","type":"bytes32","internalType":"bytes32"}],"outputs":[],"stateMutability":"nonpayable"},{"type":"function","name":"setFeeActivation","inputs":[{"name":"on_off","type":"bool","internalType":"bool"}],"outputs":[],"stateMutability":"nonpayable"},{"type":"event","name":"AD1467_AppManagerAddressProposed","inputs":[{"name":"_address","type":"address","indexed":true,"internalType":"address"}],"anonymous":false},{"type":"event","name":"AD1467_AppManagerAddressSet","inputs":[{"name":"_address","type":"address","indexed":true,"internalType":"address"}],"anonymous":false},{"type":"event","name":"AD1467_ApplicationHandlerActionActivated","inputs":[{"name":"ruleType","type":"bytes32","indexed":true,"internalType":"bytes32"},{"name":"actions","type":"uint8[]","indexed":false,"internalType":"enum ActionTypes[]"}],"anonymous":false},{"type":"event","name":"AD1467_ApplicationHandlerActionApplied","inputs":[{"name":"ruleType","type":"bytes32","indexed":true,"internalType":"bytes32"},{"name":"action","type":"uint8","indexed":true,"internalType":"enum ActionTypes"},{"name":"ruleId","type":"uint32","indexed":true,"internalType":"uint32"}],"anonymous":false},{"type":"event","name":"AD1467_ApplicationHandlerActionAppliedFull","inputs":[{"name":"ruleType","type":"bytes32","indexed":true,"internalType":"bytes32"},{"name":"actions","type":"uint8[]","indexed":false,"internalType":"enum ActionTypes[]"},{"name":"ruleIds","type":"uint32[]","indexed":false,"internalType":"uint32[]"}],"anonymous":false},{"type":"event","name":"AD1467_ApplicationHandlerActionDeactivated","inputs":[{"name":"ruleType","type":"bytes32","indexed":true,"internalType":"bytes32"},{"name":"actions","type":"uint8[]","indexed":false,"internalType":"enum ActionTypes[]"}],"anonymous":false},{"type":"event","name":"AD1467_CollectionPrice","inputs":[{"name":"collection","type":"address","indexed":true,"internalType":"address"},{"name":"price","type":"uint256","indexed":true,"internalType":"uint256"}],"anonymous":false},{"type":"event","name":"AD1467_ERC721AddressSet","inputs":[{"name":"_address","type":"address","indexed":true,"internalType":"address"}],"anonymous":false},{"type":"event","name":"AD1467_FeeActivationSet","inputs":[{"name":"_activation","type":"bool","indexed":true,"internalType":"bool"}],"anonymous":false},{"type":"event","name":"AD1467_FeeType","inputs":[{"name":"tag","type":"bytes32","indexed":true,"internalType":"bytes32"},{"name":"add","type":"bool","indexed":true,"internalType":"bool"},{"name":"minBalance","type":"uint256","indexed":false,"internalType":"uint256"},{"name":"maxBalance","type":"uint256","indexed":false,"internalType":"uint256"},{"name":"feePercentage","type":"int256","indexed":false,"internalType":"int256"},{"name":"targetAccount","type":"address","indexed":false,"internalType":"address"}],"anonymous":false},{"type":"event","name":"AD1467_HandlerConnected","inputs":[{"name":"handlerAddress","type":"address","indexed":true,"internalType":"address"},{"name":"assetAddress","type":"address","indexed":true,"internalType":"address"}],"anonymous":false},{"type":"event","name":"AD1467_NFTValuationLimitUpdated","inputs":[{"name":"nftValuationLimit","type":"uint256","indexed":true,"internalType":"uint256"}],"anonymous":false},{"type":"event","name":"AD1467_NewNFTDeployed","inputs":[{"name":"appManagerAddress","type":"address","indexed":true,"internalType":"address"}],"anonymous":false},{"type":"event","name":"AD1467_NewTokenDeployed","inputs":[{"name":"appManagerAddress","type":"address","indexed":true,"internalType":"address"}],"anonymous":false},{"type":"event","name":"AD1467_SingleTokenPrice","inputs":[{"name":"collection","type":"address","indexed":true,"internalType":"address"},{"name":"tokenID","type":"uint256","indexed":true,"internalType":"uint256"},{"name":"price","type":"uint256","indexed":true,"internalType":"uint256"}],"anonymous":false},{"type":"event","name":"AD1467_TokenPrice","inputs":[{"name":"token","type":"address","indexed":true,"internalType":"address"},{"name":"price","type":"uint256","indexed":true,"internalType":"uint256"}],"anonymous":false},{"type":"error","name":"AppManagerNotConnected","inputs":[]},{"type":"error","name":"BelowMinAdminThreshold","inputs":[]},{"type":"error","name":"BlankTag","inputs":[]},{"type":"error","name":"CantMixPeriodicAndNonPeriodic","inputs":[]},{"type":"error","name":"ConfirmerDoesNotMatchProposedAddress","inputs":[]},{"type":"error","name":"FeesAreGreaterThanTransactionAmount","inputs":[{"name":"","type":"address","internalType":"address"}]},{"type":"error","name":"IndexOutOfRange","inputs":[]},{"type":"error","name":"InputArraysMustHaveSameLength","inputs":[]},{"type":"error","name":"InputArraysSizesNotValid","inputs":[]},{"type":"error","name":"InvalidOracleType","inputs":[{"name":"_type","type":"uint8","internalType":"uint8"}]},{"type":"error","name":"InvalidRuleInput","inputs":[]},{"type":"error","name":"InvertedLimits","inputs":[]},{"type":"error","name":"NoProposalHasBeenMade","inputs":[]},{"type":"error","name":"NotAppAdministrator","inputs":[]},{"type":"error","name":"NotAppAdministratorOrOwner","inputs":[]},{"type":"error","name":"NotRuleAdministrator","inputs":[]},{"type":"error","name":"NotSuperAdmin","inputs":[{"name":"","type":"address","internalType":"address"}]},{"type":"error","name":"TagAlreadyExists","inputs":[]},{"type":"error","name":"ValueOutOfRange","inputs":[{"name":"_value","type":"uint256","internalType":"uint256"}]},{"type":"error","name":"WrongArrayOrder","inputs":[]},{"type":"error","name":"ZeroAddress","inputs":[]},{"type":"error","name":"ZeroValueNotPermited","inputs":[]}],"bytecode":{"object":"0x608060405234801561001057600080fd5b506110c6806100206000396000f3fe608060405234801561001057600080fd5b506004361061007d5760003560e01c8063d7f2400f1161005b578063d7f2400f146100c5578063e43504da146100e6578063e5f3d3a5146100fe578063ffcbf7441461015057600080fd5b806314ab352b146100825780632c8d109914610097578063bb665e48146100b2575b600080fd5b610095610090366004610d12565b610163565b005b61009f61046d565b6040519081526020015b60405180910390f35b6100956100c0366004610d6a565b610480565b6100d86100d3366004610d83565b610601565b6040516100a9929190610dad565b6100ee610ae9565b60405190151581526020016100a9565b61011161010c366004610d6a565b610aff565b6040516100a99190815181526020808301519082015260408083015160020b908201526060918201516001600160a01b03169181019190915260800190565b61009561015e366004610e45565b610b7e565b61016b610c94565b600201546001600160a01b031680610196576040516371724ffd60e01b815260040160405180910390fd5b806001600160a01b03811663d4a7db7f336040516001600160e01b031960e084901b1681526001600160a01b039091166004820152602401602060405180830381865afa1580156101eb573d6000803e3d6000fd5b505050506040513d601f19601f8201168201806040525081019061020f9190610e69565b61022c57604051631acd860160e31b815260040160405180910390fd5b8486111561024d5760405163eeb9d4f760e01b815260040160405180910390fd5b61270f198460020b128061026557506127108460020b135b1561028f57604051630ade80db60e11b815262ffffff851660048201526024015b60405180910390fd5b8360020b6000036102b357604051631153c6f560e21b815260040160405180910390fd5b6001600160a01b0383161580156102cd575060008460020b135b156102eb57604051631153c6f560e21b815260040160405180910390fd5b60006102f5610cc8565b60008981526020829052604081206002908101549293509190910b900361033157600181600101600082825461032b9190610e9c565b90915550505b8560000361033f5760001995505b60405180608001604052808881526020018781526020018660020b8152602001856001600160a01b03168152508160000160008a8152602001908152602001600020600082015181600001556020820151816001015560408201518160020160006101000a81548162ffffff021916908360020b62ffffff16021790555060608201518160020160036101000a8154816001600160a01b0302191690836001600160a01b0316021790555090505060016103f7610cc8565b6002908101805460ff19169215159290921790915560408051898152602081018990529187900b908201526001600160a01b038516606082015260019089907fe4843f08b02ea4c33eb58e2ce092d46317f7fbed5c580aca9c590d54755067ea9060800160405180910390a35050505050505050565b6000610477610cc8565b60010154905090565b610488610c94565b600201546001600160a01b0316806104b3576040516371724ffd60e01b815260040160405180910390fd5b806001600160a01b03811663d4a7db7f336040516001600160e01b031960e084901b1681526001600160a01b039091166004820152602401602060405180830381865afa158015610508573d6000803e3d6000fd5b505050506040513d601f19601f8201168201806040525081019061052c9190610e69565b61054957604051631acd860160e31b815260040160405180910390fd5b6000610553610cc8565b60008581526020829052604090206002908101549192500b156105fb576000848152602082815260408083208381556001810184905560020180546001600160b81b0319169055805183815291820183905281018290526060810182905285907fe4843f08b02ea4c33eb58e2ce092d46317f7fbed5c580aca9c590d54755067ea9060800160405180910390a360018160010160008282546105f59190610eaf565b90915550505b50505050565b606080600061060e610c94565b905061064760405180608001604052806000815260200160008152602001600060020b815260200160006001600160a01b031681525090565b6002820154604051636640979d60e11b81526001600160a01b038881166004830152600092169063cc812f3a90602401600060405180830381865afa158015610694573d6000803e3d6000fd5b505050506040513d6000823e601f3d908101601f191682016040526106bc9190810190610ed8565b9050606060008060006106cf6000610aff565b6040015160020b13156107ab5783516106e9906001610e9c565b67ffffffffffffffff81111561070157610701610ec2565b60405190808252806020026020018201604052801561072a578160200160208202803683370190505b50925060005b84518110156107785784818151811061074b5761074b610f96565b602002602001015184828151811061076557610765610f96565b6020908102919091010152600101610730565b506000836001855161078a9190610eaf565b8151811061079a5761079a610f96565b6020026020010181815250506107af565b8392505b82511580159061082c5750600286015460405163c3c2ebbb60e01b81526001600160a01b038c811660048301529091169063c3c2ebbb90602401602060405180830381865afa158015610806573d6000803e3d6000fd5b505050506040513d601f19601f8201168201806040525081019061082a9190610e69565b155b15610aa2576000835167ffffffffffffffff81111561084d5761084d610ec2565b604051908082528060200260200182016040528015610876578160200160208202803683370190505b509850835167ffffffffffffffff81111561089357610893610ec2565b6040519080825280602002602001820160405280156108bc578160200160208202803683370190505b50975060005b84518110156109c9576108ed8582815181106108e0576108e0610f96565b6020026020010151610aff565b9650866040015160020b60001415801561090a575086602001518b105b8015610916575086518b115b156109c1576000876040015160020b121561094f5782876040015160001961093e9190610fac565b6109489190610fd3565b92506109c1565b866040015189838151811061096657610966610f96565b602002602001019060020b908160020b8152505086606001518a838151811061099157610991610f96565b6001600160a01b039092166020928302919091019091015260408701516109b89085610fef565b93508160010191505b6001016108c2565b5060008262ffffff161180156109de57508015155b15610aa05760006064826109f28583611014565b6109fc919061103b565b610a06919061103b565b905060005b82811015610a9d57898181518110610a2557610a25610f96565b602002602001015160020b8260020b1315610a675760008a8281518110610a4e57610a4e610f96565b602002602001019060020b908160020b81525050610a95565b818a8281518110610a7a57610a7a610f96565b60200260200101818151610a8e919061106b565b60020b9052505b600101610a0b565b50505b505b612710610aaf828461106b565b60020b1315610adc57604051630923b9d960e21b81526001600160a01b038b166004820152602401610286565b5050505050509250929050565b6000610af3610cc8565b6002015460ff16919050565b604080516080810182526000808252602082018190529181018290526060810191909152610b2b610cc8565b600092835260209081526040928390208351608081018552815481526001820154928101929092526002908101549081900b9382019390935263010000009092046001600160a01b031660608301525090565b610b86610c94565b600201546001600160a01b031680610bb1576040516371724ffd60e01b815260040160405180910390fd5b806001600160a01b03811663d4a7db7f336040516001600160e01b031960e084901b1681526001600160a01b039091166004820152602401602060405180830381865afa158015610c06573d6000803e3d6000fd5b505050506040513d601f19601f82011682018060405250810190610c2a9190610e69565b610c4757604051631acd860160e31b815260040160405180910390fd5b82610c50610cc8565b600201805460ff1916911515919091179055604051831515907f38d41077a55b319c9cd06691696f6bac99d441b0dcfab1787bf05644ceabc42590600090a2505050565b600080610cc260017f1c7e9355957c344e150b07462120dcb6c99b078e258444a7cd1841042fa7f14b610eaf565b92915050565b600080610cc260017ffeb09ef7e8010726da4a94eb8bd6c919e287ac75138ab6cb07447b50e2a927f7610eaf565b80356001600160a01b0381168114610d0d57600080fd5b919050565b600080600080600060a08688031215610d2a57600080fd5b85359450602086013593506040860135925060608601358060020b8114610d5057600080fd5b9150610d5e60808701610cf6565b90509295509295909350565b600060208284031215610d7c57600080fd5b5035919050565b60008060408385031215610d9657600080fd5b610d9f83610cf6565b946020939093013593505050565b604080825283519082018190526000906020906060840190828701845b82811015610def5781516001600160a01b031684529284019290840190600101610dca565b5050508381038285015284518082528583019183019060005b81811015610e2757835160020b83529284019291840191600101610e08565b5090979650505050505050565b8015158114610e4257600080fd5b50565b600060208284031215610e5757600080fd5b8135610e6281610e34565b9392505050565b600060208284031215610e7b57600080fd5b8151610e6281610e34565b634e487b7160e01b600052601160045260246000fd5b80820180821115610cc257610cc2610e86565b81810381811115610cc257610cc2610e86565b634e487b7160e01b600052604160045260246000fd5b60006020808385031215610eeb57600080fd5b825167ffffffffffffffff80821115610f0357600080fd5b818501915085601f830112610f1757600080fd5b815181811115610f2957610f29610ec2565b8060051b604051601f19603f83011681018181108582111715610f4e57610f4e610ec2565b604052918252848201925083810185019188831115610f6c57600080fd5b938501935b82851015610f8a57845184529385019392850192610f71565b98975050505050505050565b634e487b7160e01b600052603260045260246000fd5b60008260020b8260020b028060020b9150808214610fcc57610fcc610e86565b5092915050565b62ffffff818116838216019080821115610fcc57610fcc610e86565b600281810b9083900b01627fffff8113627fffff1982121715610cc257610cc2610e86565b62ffffff81811683821602808216919082811461103357611033610e86565b505092915050565b600062ffffff8084168061105f57634e487b7160e01b600052601260045260246000fd5b92169190910492915050565b600282810b9082900b03627fffff198112627fffff82131715610cc257610cc2610e8656fea2646970667358221220c4e1f3939e3e955b9af0f2b708a9fdce6a19379e2d08fb00e1c84b00a43e130764736f6c63430008180033","linkReferences":{}},"methodIdentifiers":{"addFee(bytes32,uint256,uint256,int24,address)":"14ab352b","getApplicableFees(address,uint256)":"d7f2400f","getFee(bytes32)":"e5f3d3a5","getFeeTotal()":"2c8d1099","isFeeActive()":"e43504da","removeFee(bytes32)":"bb665e48","setFeeActivation(bool)":"ffcbf744"},"id":175}