{"abi":[{"type":"function","name":"activateTokenMaxDailyTrades","inputs":[{"name":"_actions","type":"uint8[]","internalType":"enum ActionTypes[]"},{"name":"_on","type":"bool","internalType":"bool"}],"outputs":[],"stateMutability":"nonpayable"},{"type":"function","name":"getTokenMaxDailyTradesId","inputs":[{"name":"_action","type":"uint8","internalType":"enum ActionTypes"}],"outputs":[{"name":"","type":"uint32","internalType":"uint32"}],"stateMutability":"view"},{"type":"function","name":"isTokenMaxDailyTradesActive","inputs":[{"name":"_action","type":"uint8","internalType":"enum ActionTypes"}],"outputs":[{"name":"","type":"bool","internalType":"bool"}],"stateMutability":"view"},{"type":"function","name":"setTokenMaxDailyTradesId","inputs":[{"name":"_actions","type":"uint8[]","internalType":"enum ActionTypes[]"},{"name":"_ruleId","type":"uint32","internalType":"uint32"}],"outputs":[],"stateMutability":"nonpayable"},{"type":"function","name":"setTokenMaxDailyTradesIdFull","inputs":[{"name":"_actions","type":"uint8[]","internalType":"enum ActionTypes[]"},{"name":"_ruleIds","type":"uint32[]","internalType":"uint32[]"}],"outputs":[],"stateMutability":"nonpayable"},{"type":"event","name":"AD1467_AppManagerAddressProposed","inputs":[{"name":"_address","type":"address","indexed":true,"internalType":"address"}],"anonymous":false},{"type":"event","name":"AD1467_AppManagerAddressSet","inputs":[{"name":"_address","type":"address","indexed":true,"internalType":"address"}],"anonymous":false},{"type":"event","name":"AD1467_ApplicationHandlerActionActivated","inputs":[{"name":"ruleType","type":"bytes32","indexed":true,"internalType":"bytes32"},{"name":"actions","type":"uint8[]","indexed":false,"internalType":"enum ActionTypes[]"}],"anonymous":false},{"type":"event","name":"AD1467_ApplicationHandlerActionApplied","inputs":[{"name":"ruleType","type":"bytes32","indexed":true,"internalType":"bytes32"},{"name":"action","type":"uint8","indexed":true,"internalType":"enum ActionTypes"},{"name":"ruleId","type":"uint32","indexed":true,"internalType":"uint32"}],"anonymous":false},{"type":"event","name":"AD1467_ApplicationHandlerActionAppliedFull","inputs":[{"name":"ruleType","type":"bytes32","indexed":true,"internalType":"bytes32"},{"name":"actions","type":"uint8[]","indexed":false,"internalType":"enum ActionTypes[]"},{"name":"ruleIds","type":"uint32[]","indexed":false,"internalType":"uint32[]"}],"anonymous":false},{"type":"event","name":"AD1467_ApplicationHandlerActionDeactivated","inputs":[{"name":"ruleType","type":"bytes32","indexed":true,"internalType":"bytes32"},{"name":"actions","type":"uint8[]","indexed":false,"internalType":"enum ActionTypes[]"}],"anonymous":false},{"type":"event","name":"AD1467_ERC721AddressSet","inputs":[{"name":"_address","type":"address","indexed":true,"internalType":"address"}],"anonymous":false},{"type":"event","name":"AD1467_FeeActivationSet","inputs":[{"name":"_activation","type":"bool","indexed":true,"internalType":"bool"}],"anonymous":false},{"type":"event","name":"AD1467_NFTValuationLimitUpdated","inputs":[{"name":"nftValuationLimit","type":"uint256","indexed":true,"internalType":"uint256"}],"anonymous":false},{"type":"error","name":"AccountApproveDenyOraclesPerAssetLimitReached","inputs":[]},{"type":"error","name":"AppManagerNotConnected","inputs":[]},{"type":"error","name":"BatchMintBurnNotSupported","inputs":[]},{"type":"error","name":"BelowMinAdminThreshold","inputs":[]},{"type":"error","name":"CannotTurnOffAccountDenyForNoAccessLevelWhileActive","inputs":[]},{"type":"error","name":"FeesAreGreaterThanTransactionAmount","inputs":[{"name":"","type":"address","internalType":"address"}]},{"type":"error","name":"InputArraysMustHaveSameLength","inputs":[]},{"type":"error","name":"InputArraysSizesNotValid","inputs":[]},{"type":"error","name":"InvalidAction","inputs":[]},{"type":"error","name":"NotAppAdministrator","inputs":[]},{"type":"error","name":"NotAppAdministratorOrOwner","inputs":[]},{"type":"error","name":"NotRuleAdministrator","inputs":[]},{"type":"error","name":"NotSuperAdmin","inputs":[{"name":"","type":"address","internalType":"address"}]},{"type":"error","name":"PeriodExceeds5Years","inputs":[]},{"type":"error","name":"ZeroValueNotPermited","inputs":[]},{"type":"error","name":"actionCheckFailed","inputs":[]}],"bytecode":{"object":"0x608060405234801561001057600080fd5b50610cdb806100206000396000f3fe608060405234801561001057600080fd5b50600436106100575760003560e01c80634af672181461005c57806352b06d981461008957806374a258a9146100ac578063bdfd67b3146100c1578063e8189606146100d4575b600080fd5b61006f61006a36600461099e565b6100e7565b60405163ffffffff90911681526020015b60405180910390f35b61009c61009736600461099e565b610133565b6040519015158152602001610080565b6100bf6100ba366004610a1d565b610184565b005b6100bf6100cf366004610a88565b61039a565b6100bf6100e2366004610adc565b61059b565b60006100f1610776565b600083600481111561010557610105610b48565b600481111561011657610116610b48565b815260208101919091526040016000205463ffffffff1692915050565b600061013d610776565b600083600481111561015157610151610b48565b600481111561016257610162610b48565b8152602081019190915260400160002054640100000000900460ff1692915050565b61018c6107aa565b600201546001600160a01b0316806101b7576040516371724ffd60e01b815260040160405180910390fd5b806001600160a01b03811663d4a7db7f336040516001600160e01b031960e084901b1681526001600160a01b039091166004820152602401602060405180830381865afa15801561020c573d6000803e3d6000fd5b505050506040513d601f19601f820116820180604052508101906102309190610b5e565b61024d57604051631acd860160e31b815260040160405180910390fd5b60005b848110156102e05783610261610776565b600088888581811061027557610275610b7b565b905060200201602081019061028a919061099e565b600481111561029b5761029b610b48565b60048111156102ac576102ac610b48565b8152602081019190915260400160002080549115156401000000000264ff0000000019909216919091179055600101610250565b50821561033f5775544f4b454e5f4d41585f4441494c595f54524144455360501b7f4dfa26a794eb61a703a2beac482f06b4372aed0b7c0d6b4490db416146d8e32e8686604051610332929190610bed565b60405180910390a2610393565b75544f4b454e5f4d41585f4441494c595f54524144455360501b7fe67b4c6b446d2563a2a39eb75b71127a3f908bcfcef4f7c89bd9e1b3ef39d15e868660405161038a929190610bed565b60405180910390a25b5050505050565b6103a26107aa565b600201546001600160a01b0316806103cd576040516371724ffd60e01b815260040160405180910390fd5b806001600160a01b03811663d4a7db7f336040516001600160e01b031960e084901b1681526001600160a01b039091166004820152602401602060405180830381865afa158015610422573d6000803e3d6000fd5b505050506040513d601f19601f820116820180604052508101906104469190610b5e565b61046357604051631acd860160e31b815260040160405180910390fd5b61046b6107aa565b600101546040516350ba6bb760e11b815263ffffffff851660048201526001600160a01b039091169063a174d76e9060240160006040518083038186803b1580156104b557600080fd5b505afa1580156104c9573d6000803e3d6000fd5b5050505060005b84811015610593576105088686838181106104ed576104ed610b7b565b9050602002016020810190610502919061099e565b856107d8565b8363ffffffff1686868381811061052157610521610b7b565b9050602002016020810190610536919061099e565b600481111561054757610547610b48565b60405175544f4b454e5f4d41585f4441494c595f54524144455360501b907f4f87ac5c7868c692420a972d0f84fa7750afbf2b8a09848fefc355020bce707b90600090a46001016104d0565b505050505050565b6105a36107aa565b600201546001600160a01b0316806105ce576040516371724ffd60e01b815260040160405180910390fd5b806001600160a01b03811663d4a7db7f336040516001600160e01b031960e084901b1681526001600160a01b039091166004820152602401602060405180830381865afa158015610623573d6000803e3d6000fd5b505050506040513d601f19601f820116820180604052508101906106479190610b5e565b61066457604051631acd860160e31b815260040160405180910390fd5b600085900361068657604051633f4ab26f60e21b815260040160405180910390fd5b8483146106a55760405162514d8b60e31b815260040160405180910390fd5b6106ad610900565b60005b858110156107165761070e8787838181106106cd576106cd610b7b565b90506020020160208101906106e2919061099e565b8686848181106106f4576106f4610b7b565b90506020020160208101906107099190610c09565b6107d8565b6001016106b0565b5075544f4b454e5f4d41585f4441494c595f54524144455360501b7ffce5ba10ca670317c4ad6aaf14bfb5c4467bb4415ab89dafce1434471a227126878787876040516107669493929190610c24565b60405180910390a2505050505050565b6000806107a460017faee367d4ef8db0f8b1fdee7d0bc4cdad2b8e161d65451524591671108222a4d4610c84565b92915050565b6000806107a460017f1c7e9355957c344e150b07462120dcb6c99b078e258444a7cd1841042fa7f14b610c84565b6107e06107aa565b600101546040516350ba6bb760e11b815263ffffffff831660048201526001600160a01b039091169063a174d76e9060240160006040518083038186803b15801561082a57600080fd5b505afa15801561083e573d6000803e3d6000fd5b50505050600061084c610776565b90508181600085600481111561086457610864610b48565b600481111561087557610875610b48565b815260200190815260200160002060000160006101000a81548163ffffffff021916908363ffffffff16021790555060018160000160008560048111156108be576108be610b48565b60048111156108cf576108cf610b48565b8152602081019190915260400160002080549115156401000000000264ff0000000019909216919091179055505050565b600061090a610776565b905060005b6109176107aa565b60030154600160a01b900460ff1681116109865781600082600481111561094057610940610b48565b600481111561095157610951610b48565b600481111561096257610962610b48565b81526020810191909152604001600020805464ffffffffff1916905560010161090f565b5050565b80356005811061099957600080fd5b919050565b6000602082840312156109b057600080fd5b6109b98261098a565b9392505050565b60008083601f8401126109d257600080fd5b50813567ffffffffffffffff8111156109ea57600080fd5b6020830191508360208260051b8501011115610a0557600080fd5b9250929050565b8015158114610a1a57600080fd5b50565b600080600060408486031215610a3257600080fd5b833567ffffffffffffffff811115610a4957600080fd5b610a55868287016109c0565b9094509250506020840135610a6981610a0c565b809150509250925092565b803563ffffffff8116811461099957600080fd5b600080600060408486031215610a9d57600080fd5b833567ffffffffffffffff811115610ab457600080fd5b610ac0868287016109c0565b9094509250610ad3905060208501610a74565b90509250925092565b60008060008060408587031215610af257600080fd5b843567ffffffffffffffff80821115610b0a57600080fd5b610b16888389016109c0565b90965094506020870135915080821115610b2f57600080fd5b50610b3c878288016109c0565b95989497509550505050565b634e487b7160e01b600052602160045260246000fd5b600060208284031215610b7057600080fd5b81516109b981610a0c565b634e487b7160e01b600052603260045260246000fd5b818352600060208085019450826000805b86811015610be157610bb38361098a565b60058110610bcf57634e487b7160e01b83526021600452602483fd5b88529683019691830191600101610ba2565b50959695505050505050565b602081526000610c01602083018486610b91565b949350505050565b600060208284031215610c1b57600080fd5b6109b982610a74565b604081526000610c38604083018688610b91565b8281036020848101919091528482528591810160005b86811015610c775763ffffffff610c6485610a74565b1682529282019290820190600101610c4e565b5098975050505050505050565b818103818111156107a457634e487b7160e01b600052601160045260246000fdfea2646970667358221220eac2f4cb17198f3fa4a2f6ad762f8a3a10c7ce6b0cb5510ae565b0521a50ace264736f6c63430008180033","linkReferences":{}},"methodIdentifiers":{"activateTokenMaxDailyTrades(uint8[],bool)":"74a258a9","getTokenMaxDailyTradesId(uint8)":"4af67218","isTokenMaxDailyTradesActive(uint8)":"52b06d98","setTokenMaxDailyTradesId(uint8[],uint32)":"bdfd67b3","setTokenMaxDailyTradesIdFull(uint8[],uint32[])":"e8189606"},"id":191}