{"abi":[{"type":"constructor","inputs":[{"name":"_dataModuleAppManagerAddress","type":"address","internalType":"address"}],"stateMutability":"nonpayable"},{"type":"function","name":"accounts","inputs":[{"name":"","type":"address","internalType":"address"}],"outputs":[{"name":"","type":"bool","internalType":"bool"}],"stateMutability":"view"},{"type":"function","name":"addAccount","inputs":[{"name":"_account","type":"address","internalType":"address"}],"outputs":[],"stateMutability":"nonpayable"},{"type":"function","name":"confirmDataProvider","inputs":[{"name":"_providerType","type":"uint8","internalType":"enum IDataModule.ProviderType"}],"outputs":[],"stateMutability":"nonpayable"},{"type":"function","name":"confirmOwner","inputs":[],"outputs":[],"stateMutability":"nonpayable"},{"type":"function","name":"dataModuleAppManagerAddress","inputs":[],"outputs":[{"name":"","type":"address","internalType":"address"}],"stateMutability":"view"},{"type":"function","name":"isUserAccount","inputs":[{"name":"_address","type":"address","internalType":"address"}],"outputs":[{"name":"","type":"bool","internalType":"bool"}],"stateMutability":"view"},{"type":"function","name":"owner","inputs":[],"outputs":[{"name":"","type":"address","internalType":"address"}],"stateMutability":"view"},{"type":"function","name":"proposeOwner","inputs":[{"name":"_newOwner","type":"address","internalType":"address"}],"outputs":[],"stateMutability":"nonpayable"},{"type":"function","name":"removeAccount","inputs":[{"name":"_account","type":"address","internalType":"address"}],"outputs":[],"stateMutability":"nonpayable"},{"type":"function","name":"renounceOwnership","inputs":[],"outputs":[],"stateMutability":"nonpayable"},{"type":"function","name":"transferOwnership","inputs":[{"name":"newOwner","type":"address","internalType":"address"}],"outputs":[],"stateMutability":"nonpayable"},{"type":"function","name":"version","inputs":[],"outputs":[{"name":"","type":"string","internalType":"string"}],"stateMutability":"pure"},{"type":"event","name":"AD1467_AMMRegistered","inputs":[{"name":"_address","type":"address","indexed":true,"internalType":"address"}],"anonymous":false},{"type":"event","name":"AD1467_AccessLevelAdded","inputs":[{"name":"_address","type":"address","indexed":true,"internalType":"address"},{"name":"_level","type":"uint8","indexed":true,"internalType":"uint8"}],"anonymous":false},{"type":"event","name":"AD1467_AccessLevelAdmin","inputs":[{"name":"admin","type":"address","indexed":true,"internalType":"address"},{"name":"add","type":"bool","indexed":true,"internalType":"bool"}],"anonymous":false},{"type":"event","name":"AD1467_AccessLevelProviderSet","inputs":[{"name":"_address","type":"address","indexed":true,"internalType":"address"}],"anonymous":false},{"type":"event","name":"AD1467_AccessLevelRemoved","inputs":[{"name":"_address","type":"address","indexed":true,"internalType":"address"}],"anonymous":false},{"type":"event","name":"AD1467_AccountAdded","inputs":[{"name":"account","type":"address","indexed":true,"internalType":"address"}],"anonymous":false},{"type":"event","name":"AD1467_AccountProviderSet","inputs":[{"name":"_address","type":"address","indexed":true,"internalType":"address"}],"anonymous":false},{"type":"event","name":"AD1467_AccountRemoved","inputs":[{"name":"account","type":"address","indexed":true,"internalType":"address"}],"anonymous":false},{"type":"event","name":"AD1467_AppAdministrator","inputs":[{"name":"admin","type":"address","indexed":true,"internalType":"address"},{"name":"add","type":"bool","indexed":true,"internalType":"bool"}],"anonymous":false},{"type":"event","name":"AD1467_AppManagerDataUpgradeProposed","inputs":[{"name":"deployedAddress","type":"address","indexed":true,"internalType":"address"},{"name":"replacedAddress","type":"address","indexed":false,"internalType":"address"}],"anonymous":false},{"type":"event","name":"AD1467_AppManagerDeployed","inputs":[{"name":"superAndAppAdmin","type":"address","indexed":true,"internalType":"address"},{"name":"appName","type":"string","indexed":true,"internalType":"string"}],"anonymous":false},{"type":"event","name":"AD1467_AppManagerDeployedForUpgrade","inputs":[{"name":"superAndAppAdmin","type":"address","indexed":true,"internalType":"address"},{"name":"appName","type":"string","indexed":true,"internalType":"string"}],"anonymous":false},{"type":"event","name":"AD1467_AppNameChanged","inputs":[{"name":"appName","type":"string","indexed":true,"internalType":"string"}],"anonymous":false},{"type":"event","name":"AD1467_DataContractsMigrated","inputs":[{"name":"ownerAddress","type":"address","indexed":true,"internalType":"address"}],"anonymous":false},{"type":"event","name":"AD1467_PauseRuleEvent","inputs":[{"name":"pauseStart","type":"uint256","indexed":true,"internalType":"uint256"},{"name":"pauseStop","type":"uint256","indexed":true,"internalType":"uint256"},{"name":"add","type":"bool","indexed":true,"internalType":"bool"}],"anonymous":false},{"type":"event","name":"AD1467_PauseRuleProviderSet","inputs":[{"name":"_address","type":"address","indexed":true,"internalType":"address"}],"anonymous":false},{"type":"event","name":"AD1467_RemoveFromRegistry","inputs":[{"name":"contractName","type":"string","indexed":false,"internalType":"string"},{"name":"contractAddress","type":"address","indexed":false,"internalType":"address"}],"anonymous":false},{"type":"event","name":"AD1467_RiskAdmin","inputs":[{"name":"admin","type":"address","indexed":true,"internalType":"address"},{"name":"add","type":"bool","indexed":true,"internalType":"bool"}],"anonymous":false},{"type":"event","name":"AD1467_RiskProviderSet","inputs":[{"name":"_address","type":"address","indexed":true,"internalType":"address"}],"anonymous":false},{"type":"event","name":"AD1467_RiskScoreAdded","inputs":[{"name":"_address","type":"address","indexed":true,"internalType":"address"},{"name":"_score","type":"uint8","indexed":false,"internalType":"uint8"}],"anonymous":false},{"type":"event","name":"AD1467_RiskScoreRemoved","inputs":[{"name":"_address","type":"address","indexed":true,"internalType":"address"}],"anonymous":false},{"type":"event","name":"AD1467_RuleAdmin","inputs":[{"name":"admin","type":"address","indexed":true,"internalType":"address"},{"name":"add","type":"bool","indexed":true,"internalType":"bool"}],"anonymous":false},{"type":"event","name":"AD1467_RuleBypassAccount","inputs":[{"name":"bypassAccount","type":"address","indexed":true,"internalType":"address"},{"name":"add","type":"bool","indexed":true,"internalType":"bool"}],"anonymous":false},{"type":"event","name":"AD1467_SuperAdministrator","inputs":[{"name":"admin","type":"address","indexed":true,"internalType":"address"},{"name":"add","type":"bool","indexed":true,"internalType":"bool"}],"anonymous":false},{"type":"event","name":"AD1467_Tag","inputs":[{"name":"_address","type":"address","indexed":true,"internalType":"address"},{"name":"_tag","type":"bytes32","indexed":true,"internalType":"bytes32"},{"name":"add","type":"bool","indexed":true,"internalType":"bool"}],"anonymous":false},{"type":"event","name":"AD1467_TagAlreadyApplied","inputs":[{"name":"_address","type":"address","indexed":true,"internalType":"address"}],"anonymous":false},{"type":"event","name":"AD1467_TagProviderSet","inputs":[{"name":"_address","type":"address","indexed":true,"internalType":"address"}],"anonymous":false},{"type":"event","name":"AD1467_TokenNameUpdated","inputs":[{"name":"_token","type":"string","indexed":true,"internalType":"string"},{"name":"_address","type":"address","indexed":true,"internalType":"address"}],"anonymous":false},{"type":"event","name":"AD1467_TokenRegistered","inputs":[{"name":"_token","type":"string","indexed":true,"internalType":"string"},{"name":"_address","type":"address","indexed":true,"internalType":"address"}],"anonymous":false},{"type":"event","name":"AD1467_TradingRuleAddressAllowlist","inputs":[{"name":"_address","type":"address","indexed":true,"internalType":"address"},{"name":"isApproved","type":"bool","indexed":true,"internalType":"bool"}],"anonymous":false},{"type":"event","name":"AD1467_TreasuryRegistered","inputs":[{"name":"_address","type":"address","indexed":true,"internalType":"address"}],"anonymous":false},{"type":"event","name":"OwnershipTransferred","inputs":[{"name":"previousOwner","type":"address","indexed":true,"internalType":"address"},{"name":"newOwner","type":"address","indexed":true,"internalType":"address"}],"anonymous":false},{"type":"error","name":"AppManagerNotConnected","inputs":[]},{"type":"error","name":"CantMixPeriodicAndNonPeriodic","inputs":[]},{"type":"error","name":"ConfirmerDoesNotMatchProposedAddress","inputs":[]},{"type":"error","name":"IndexOutOfRange","inputs":[]},{"type":"error","name":"InputArraysMustHaveSameLength","inputs":[]},{"type":"error","name":"InputArraysSizesNotValid","inputs":[]},{"type":"error","name":"InvalidOracleType","inputs":[{"name":"_type","type":"uint8","internalType":"uint8"}]},{"type":"error","name":"InvalidRuleInput","inputs":[]},{"type":"error","name":"InvertedLimits","inputs":[]},{"type":"error","name":"NoProposalHasBeenMade","inputs":[]},{"type":"error","name":"NotAppAdministratorOrOwner","inputs":[]},{"type":"error","name":"ValueOutOfRange","inputs":[{"name":"_value","type":"uint256","internalType":"uint256"}]},{"type":"error","name":"WrongArrayOrder","inputs":[]},{"type":"error","name":"ZeroAddress","inputs":[]},{"type":"error","name":"ZeroValueNotPermited","inputs":[]}],"bytecode":{"object":"0x60a060405234801561001057600080fd5b5060405161099c38038061099c83398101604081905261002f916100a4565b8061003933610054565b6001600160a01b031660805261004e81610054565b506100d4565b600080546001600160a01b038381166001600160a01b0319831681178455604051919092169283917f8be0079c531659141344cd1fd0a4f28419497f9722a3daafe3b4186f6b6457e09190a35050565b6000602082840312156100b657600080fd5b81516001600160a01b03811681146100cd57600080fd5b9392505050565b60805161088a610112600039600081816101b9015281816102030152818161024a0152818161032e015281816103af01526103f6015261088a6000f3fe608060405234801561001057600080fd5b50600436106100b45760003560e01c8063b5ed298a11610071578063b5ed298a14610186578063bd9b6d8614610199578063c4740a95146101a1578063d3d24c9b146101b4578063e89b0e1e146101db578063f2fde38b146101ee57600080fd5b806311b09110146100b95780631bf974f3146100fa57806354fd4d501461010f5780635e5c06e214610136578063715018a6146101595780638da5cb5b14610161575b600080fd5b6100e56100c736600461076a565b6001600160a01b031660009081526003602052604090205460ff1690565b60405190151581526020015b60405180910390f35b61010d61010836600461079a565b610201565b005b60408051808201825260058152640312e312e360dc1b602082015290516100f191906107bb565b6100e561014436600461076a565b60036020526000908152604090205460ff1681565b61010d610399565b6000546001600160a01b03165b6040516001600160a01b0390911681526020016100f1565b61010d61019436600461076a565b6103ad565b61010d61050d565b61010d6101af36600461076a565b610576565b61016e7f000000000000000000000000000000000000000000000000000000000000000081565b61010d6101e936600461076a565b6105c7565b61010d6101fc36600461076a565b610642565b7f00000000000000000000000000000000000000000000000000000000000000006001600160a01b0316610248576040516371724ffd60e01b815260040160405180910390fd5b7f00000000000000000000000000000000000000000000000000000000000000006001600160a01b03811663c3c2ebbb336040516001600160e01b031960e084901b1681526001600160a01b039091166004820152602401602060405180830381865afa1580156102bd573d6000803e3d6000fd5b505050506040513d601f19601f820116820180604052508101906102e1919061080a565b1580156102f957506000546001600160a01b03163314155b156103175760405163054f3a3160e31b815260040160405180910390fd5b604051632b124b7960e01b81526001600160a01b037f00000000000000000000000000000000000000000000000000000000000000001690632b124b799061036390859060040161082c565b600060405180830381600087803b15801561037d57600080fd5b505af1158015610391573d6000803e3d6000fd5b505050505050565b6103a16106c0565b6103ab600061071a565b565b7f00000000000000000000000000000000000000000000000000000000000000006001600160a01b03166103f4576040516371724ffd60e01b815260040160405180910390fd5b7f00000000000000000000000000000000000000000000000000000000000000006001600160a01b03811663c3c2ebbb336040516001600160e01b031960e084901b1681526001600160a01b039091166004820152602401602060405180830381865afa158015610469573d6000803e3d6000fd5b505050506040513d601f19601f8201168201806040525081019061048d919061080a565b1580156104a557506000546001600160a01b03163314155b156104c35760405163054f3a3160e31b815260040160405180910390fd5b6001600160a01b0382166104ea5760405163d92e233d60e01b815260040160405180910390fd5b50600180546001600160a01b0319166001600160a01b0392909216919091179055565b6001546001600160a01b03166105365760405163821e0eeb60e01b815260040160405180910390fd5b6001546001600160a01b0316331461056157604051634128496760e01b815260040160405180910390fd5b6001546103ab906001600160a01b031661071a565b61057e6106c0565b6001600160a01b038116600081815260036020526040808220805460ff19169055517fe1e79c30f72a026a8b527caea6eee0683d44301c24cde238b9f7ad9e4b7aa31f9190a250565b6105cf6106c0565b6001600160a01b0381166105f65760405163d92e233d60e01b815260040160405180910390fd5b6001600160a01b038116600081815260036020526040808220805460ff19166001179055517f5e75b6966f794371ba173593326b3afdd7c9ee18c1421f495f3120dd8532d5b09190a250565b61064a6106c0565b6001600160a01b0381166106b45760405162461bcd60e51b815260206004820152602660248201527f4f776e61626c653a206e6577206f776e657220697320746865207a65726f206160448201526564647265737360d01b60648201526084015b60405180910390fd5b6106bd8161071a565b50565b6000546001600160a01b031633146103ab5760405162461bcd60e51b815260206004820181905260248201527f4f776e61626c653a2063616c6c6572206973206e6f7420746865206f776e657260448201526064016106ab565b600080546001600160a01b038381166001600160a01b0319831681178455604051919092169283917f8be0079c531659141344cd1fd0a4f28419497f9722a3daafe3b4186f6b6457e09190a35050565b60006020828403121561077c57600080fd5b81356001600160a01b038116811461079357600080fd5b9392505050565b6000602082840312156107ac57600080fd5b81356005811061079357600080fd5b60006020808352835180602085015260005b818110156107e9578581018301518582016040015282016107cd565b506000604082860101526040601f19601f8301168501019250505092915050565b60006020828403121561081c57600080fd5b8151801515811461079357600080fd5b602081016005831061084e57634e487b7160e01b600052602160045260246000fd5b9190529056fea26469706673582212208d8a7b73255eb5cc2f434666a29aac1ff64130b609d4365b4c4df8488360484b64736f6c63430008180033","linkReferences":{}},"methodIdentifiers":{"accounts(address)":"5e5c06e2","addAccount(address)":"e89b0e1e","confirmDataProvider(uint8)":"1bf974f3","confirmOwner()":"bd9b6d86","dataModuleAppManagerAddress()":"d3d24c9b","isUserAccount(address)":"11b09110","owner()":"8da5cb5b","proposeOwner(address)":"b5ed298a","removeAccount(address)":"c4740a95","renounceOwnership()":"715018a6","transferOwnership(address)":"f2fde38b","version()":"54fd4d50"},"id":135}