{"abi":[{"type":"function","name":"addFee","inputs":[{"name":"_tag","type":"bytes32","internalType":"bytes32"},{"name":"_minBalance","type":"uint256","internalType":"uint256"},{"name":"_maxBalance","type":"uint256","internalType":"uint256"},{"name":"_feePercentage","type":"int24","internalType":"int24"},{"name":"_targetAccount","type":"address","internalType":"address"}],"outputs":[],"stateMutability":"nonpayable"},{"type":"function","name":"getApplicableFees","inputs":[{"name":"_from","type":"address","internalType":"address"},{"name":"_balanceFrom","type":"uint256","internalType":"uint256"}],"outputs":[{"name":"feeCollectorAccounts","type":"address[]","internalType":"address[]"},{"name":"feePercentages","type":"int24[]","internalType":"int24[]"}],"stateMutability":"view"},{"type":"function","name":"getFee","inputs":[{"name":"_tag","type":"bytes32","internalType":"bytes32"}],"outputs":[{"name":"","type":"tuple","internalType":"struct Fee","components":[{"name":"minBalance","type":"uint256","internalType":"uint256"},{"name":"maxBalance","type":"uint256","internalType":"uint256"},{"name":"feePercentage","type":"int24","internalType":"int24"},{"name":"feeCollectorAccount","type":"address","internalType":"address"}]}],"stateMutability":"view"},{"type":"function","name":"getFeeTotal","inputs":[],"outputs":[{"name":"","type":"uint256","internalType":"uint256"}],"stateMutability":"view"},{"type":"function","name":"removeFee","inputs":[{"name":"_tag","type":"bytes32","internalType":"bytes32"}],"outputs":[],"stateMutability":"nonpayable"},{"type":"event","name":"AD1467_AppManagerAddressProposed","inputs":[{"name":"_address","type":"address","indexed":true,"internalType":"address"}],"anonymous":false},{"type":"event","name":"AD1467_AppManagerAddressSet","inputs":[{"name":"_address","type":"address","indexed":true,"internalType":"address"}],"anonymous":false},{"type":"event","name":"AD1467_ApplicationHandlerActionActivated","inputs":[{"name":"ruleType","type":"bytes32","indexed":true,"internalType":"bytes32"},{"name":"actions","type":"uint8[]","indexed":false,"internalType":"enum ActionTypes[]"}],"anonymous":false},{"type":"event","name":"AD1467_ApplicationHandlerActionApplied","inputs":[{"name":"ruleType","type":"bytes32","indexed":true,"internalType":"bytes32"},{"name":"action","type":"uint8","indexed":true,"internalType":"enum ActionTypes"},{"name":"ruleId","type":"uint32","indexed":true,"internalType":"uint32"}],"anonymous":false},{"type":"event","name":"AD1467_ApplicationHandlerActionAppliedFull","inputs":[{"name":"ruleType","type":"bytes32","indexed":true,"internalType":"bytes32"},{"name":"actions","type":"uint8[]","indexed":false,"internalType":"enum ActionTypes[]"},{"name":"ruleIds","type":"uint32[]","indexed":false,"internalType":"uint32[]"}],"anonymous":false},{"type":"event","name":"AD1467_ApplicationHandlerActionDeactivated","inputs":[{"name":"ruleType","type":"bytes32","indexed":true,"internalType":"bytes32"},{"name":"actions","type":"uint8[]","indexed":false,"internalType":"enum ActionTypes[]"}],"anonymous":false},{"type":"event","name":"AD1467_CollectionPrice","inputs":[{"name":"collection","type":"address","indexed":true,"internalType":"address"},{"name":"price","type":"uint256","indexed":true,"internalType":"uint256"}],"anonymous":false},{"type":"event","name":"AD1467_ERC721AddressSet","inputs":[{"name":"_address","type":"address","indexed":true,"internalType":"address"}],"anonymous":false},{"type":"event","name":"AD1467_FeeActivationSet","inputs":[{"name":"_activation","type":"bool","indexed":true,"internalType":"bool"}],"anonymous":false},{"type":"event","name":"AD1467_FeeType","inputs":[{"name":"tag","type":"bytes32","indexed":true,"internalType":"bytes32"},{"name":"add","type":"bool","indexed":true,"internalType":"bool"},{"name":"minBalance","type":"uint256","indexed":false,"internalType":"uint256"},{"name":"maxBalance","type":"uint256","indexed":false,"internalType":"uint256"},{"name":"feePercentage","type":"int256","indexed":false,"internalType":"int256"},{"name":"targetAccount","type":"address","indexed":false,"internalType":"address"}],"anonymous":false},{"type":"event","name":"AD1467_HandlerConnected","inputs":[{"name":"handlerAddress","type":"address","indexed":true,"internalType":"address"},{"name":"assetAddress","type":"address","indexed":true,"internalType":"address"}],"anonymous":false},{"type":"event","name":"AD1467_NFTValuationLimitUpdated","inputs":[{"name":"nftValuationLimit","type":"uint256","indexed":true,"internalType":"uint256"}],"anonymous":false},{"type":"event","name":"AD1467_NewNFTDeployed","inputs":[{"name":"appManagerAddress","type":"address","indexed":true,"internalType":"address"}],"anonymous":false},{"type":"event","name":"AD1467_NewTokenDeployed","inputs":[{"name":"appManagerAddress","type":"address","indexed":true,"internalType":"address"}],"anonymous":false},{"type":"event","name":"AD1467_SingleTokenPrice","inputs":[{"name":"collection","type":"address","indexed":true,"internalType":"address"},{"name":"tokenID","type":"uint256","indexed":true,"internalType":"uint256"},{"name":"price","type":"uint256","indexed":true,"internalType":"uint256"}],"anonymous":false},{"type":"event","name":"AD1467_TokenPrice","inputs":[{"name":"token","type":"address","indexed":true,"internalType":"address"},{"name":"price","type":"uint256","indexed":true,"internalType":"uint256"}],"anonymous":false},{"type":"error","name":"AppManagerNotConnected","inputs":[]},{"type":"error","name":"BelowMinAdminThreshold","inputs":[]},{"type":"error","name":"BlankTag","inputs":[]},{"type":"error","name":"CantMixPeriodicAndNonPeriodic","inputs":[]},{"type":"error","name":"ConfirmerDoesNotMatchProposedAddress","inputs":[]},{"type":"error","name":"FeesAreGreaterThanTransactionAmount","inputs":[{"name":"","type":"address","internalType":"address"}]},{"type":"error","name":"IndexOutOfRange","inputs":[]},{"type":"error","name":"InputArraysMustHaveSameLength","inputs":[]},{"type":"error","name":"InputArraysSizesNotValid","inputs":[]},{"type":"error","name":"InvalidOracleType","inputs":[{"name":"_type","type":"uint8","internalType":"uint8"}]},{"type":"error","name":"InvalidRuleInput","inputs":[]},{"type":"error","name":"InvertedLimits","inputs":[]},{"type":"error","name":"NoProposalHasBeenMade","inputs":[]},{"type":"error","name":"NotAppAdministrator","inputs":[]},{"type":"error","name":"NotAppAdministratorOrOwner","inputs":[]},{"type":"error","name":"NotRuleAdministrator","inputs":[]},{"type":"error","name":"NotSuperAdmin","inputs":[{"name":"","type":"address","internalType":"address"}]},{"type":"error","name":"TagAlreadyExists","inputs":[]},{"type":"error","name":"ValueOutOfRange","inputs":[{"name":"_value","type":"uint256","internalType":"uint256"}]},{"type":"error","name":"WrongArrayOrder","inputs":[]},{"type":"error","name":"ZeroAddress","inputs":[]},{"type":"error","name":"ZeroValueNotPermited","inputs":[]}],"bytecode":{"object":"0x608060405234801561001057600080fd5b50610f20806100206000396000f3fe608060405234801561001057600080fd5b50600436106100575760003560e01c806314ab352b1461005c5780632c8d109914610071578063bb665e481461008c578063d7f2400f1461009f578063e5f3d3a5146100c0575b600080fd5b61006f61006a366004610b95565b610112565b005b61007961041c565b6040519081526020015b60405180910390f35b61006f61009a366004610bed565b61042f565b6100b26100ad366004610c06565b6105b0565b604051610083929190610c30565b6100d36100ce366004610bed565b610a98565b6040516100839190815181526020808301519082015260408083015160020b908201526060918201516001600160a01b03169181019190915260800190565b61011a610b17565b600201546001600160a01b031680610145576040516371724ffd60e01b815260040160405180910390fd5b806001600160a01b03811663d4a7db7f336040516001600160e01b031960e084901b1681526001600160a01b039091166004820152602401602060405180830381865afa15801561019a573d6000803e3d6000fd5b505050506040513d601f19601f820116820180604052508101906101be9190610cb7565b6101db57604051631acd860160e31b815260040160405180910390fd5b848611156101fc5760405163eeb9d4f760e01b815260040160405180910390fd5b61270f198460020b128061021457506127108460020b135b1561023e57604051630ade80db60e11b815262ffffff851660048201526024015b60405180910390fd5b8360020b60000361026257604051631153c6f560e21b815260040160405180910390fd5b6001600160a01b03831615801561027c575060008460020b135b1561029a57604051631153c6f560e21b815260040160405180910390fd5b60006102a4610b4b565b60008981526020829052604081206002908101549293509190910b90036102e05760018160010160008282546102da9190610cf6565b90915550505b856000036102ee5760001995505b60405180608001604052808881526020018781526020018660020b8152602001856001600160a01b03168152508160000160008a8152602001908152602001600020600082015181600001556020820151816001015560408201518160020160006101000a81548162ffffff021916908360020b62ffffff16021790555060608201518160020160036101000a8154816001600160a01b0302191690836001600160a01b0316021790555090505060016103a6610b4b565b6002908101805460ff19169215159290921790915560408051898152602081018990529187900b908201526001600160a01b038516606082015260019089907fe4843f08b02ea4c33eb58e2ce092d46317f7fbed5c580aca9c590d54755067ea9060800160405180910390a35050505050505050565b6000610426610b4b565b60010154905090565b610437610b17565b600201546001600160a01b031680610462576040516371724ffd60e01b815260040160405180910390fd5b806001600160a01b03811663d4a7db7f336040516001600160e01b031960e084901b1681526001600160a01b039091166004820152602401602060405180830381865afa1580156104b7573d6000803e3d6000fd5b505050506040513d601f19601f820116820180604052508101906104db9190610cb7565b6104f857604051631acd860160e31b815260040160405180910390fd5b6000610502610b4b565b60008581526020829052604090206002908101549192500b156105aa576000848152602082815260408083208381556001810184905560020180546001600160b81b0319169055805183815291820183905281018290526060810182905285907fe4843f08b02ea4c33eb58e2ce092d46317f7fbed5c580aca9c590d54755067ea9060800160405180910390a360018160010160008282546105a49190610d09565b90915550505b50505050565b60608060006105bd610b17565b90506105f660405180608001604052806000815260200160008152602001600060020b815260200160006001600160a01b031681525090565b6002820154604051636640979d60e11b81526001600160a01b038881166004830152600092169063cc812f3a90602401600060405180830381865afa158015610643573d6000803e3d6000fd5b505050506040513d6000823e601f3d908101601f1916820160405261066b9190810190610d32565b90506060600080600061067e6000610a98565b6040015160020b131561075a578351610698906001610cf6565b67ffffffffffffffff8111156106b0576106b0610d1c565b6040519080825280602002602001820160405280156106d9578160200160208202803683370190505b50925060005b8451811015610727578481815181106106fa576106fa610df0565b602002602001015184828151811061071457610714610df0565b60209081029190910101526001016106df565b50600083600185516107399190610d09565b8151811061074957610749610df0565b60200260200101818152505061075e565b8392505b8251158015906107db5750600286015460405163c3c2ebbb60e01b81526001600160a01b038c811660048301529091169063c3c2ebbb90602401602060405180830381865afa1580156107b5573d6000803e3d6000fd5b505050506040513d601f19601f820116820180604052508101906107d99190610cb7565b155b15610a51576000835167ffffffffffffffff8111156107fc576107fc610d1c565b604051908082528060200260200182016040528015610825578160200160208202803683370190505b509850835167ffffffffffffffff81111561084257610842610d1c565b60405190808252806020026020018201604052801561086b578160200160208202803683370190505b50975060005b84518110156109785761089c85828151811061088f5761088f610df0565b6020026020010151610a98565b9650866040015160020b6000141580156108b9575086602001518b105b80156108c5575086518b115b15610970576000876040015160020b12156108fe578287604001516000196108ed9190610e06565b6108f79190610e2d565b9250610970565b866040015189838151811061091557610915610df0565b602002602001019060020b908160020b8152505086606001518a838151811061094057610940610df0565b6001600160a01b039092166020928302919091019091015260408701516109679085610e49565b93508160010191505b600101610871565b5060008262ffffff1611801561098d57508015155b15610a4f5760006064826109a18583610e6e565b6109ab9190610e95565b6109b59190610e95565b905060005b82811015610a4c578981815181106109d4576109d4610df0565b602002602001015160020b8260020b1315610a165760008a82815181106109fd576109fd610df0565b602002602001019060020b908160020b81525050610a44565b818a8281518110610a2957610a29610df0565b60200260200101818151610a3d9190610ec5565b60020b9052505b6001016109ba565b50505b505b612710610a5e8284610ec5565b60020b1315610a8b57604051630923b9d960e21b81526001600160a01b038b166004820152602401610235565b5050505050509250929050565b604080516080810182526000808252602082018190529181018290526060810191909152610ac4610b4b565b600092835260209081526040928390208351608081018552815481526001820154928101929092526002908101549081900b9382019390935263010000009092046001600160a01b031660608301525090565b600080610b4560017f1c7e9355957c344e150b07462120dcb6c99b078e258444a7cd1841042fa7f14b610d09565b92915050565b600080610b4560017ffeb09ef7e8010726da4a94eb8bd6c919e287ac75138ab6cb07447b50e2a927f7610d09565b80356001600160a01b0381168114610b9057600080fd5b919050565b600080600080600060a08688031215610bad57600080fd5b85359450602086013593506040860135925060608601358060020b8114610bd357600080fd5b9150610be160808701610b79565b90509295509295909350565b600060208284031215610bff57600080fd5b5035919050565b60008060408385031215610c1957600080fd5b610c2283610b79565b946020939093013593505050565b604080825283519082018190526000906020906060840190828701845b82811015610c725781516001600160a01b031684529284019290840190600101610c4d565b5050508381038285015284518082528583019183019060005b81811015610caa57835160020b83529284019291840191600101610c8b565b5090979650505050505050565b600060208284031215610cc957600080fd5b81518015158114610cd957600080fd5b9392505050565b634e487b7160e01b600052601160045260246000fd5b80820180821115610b4557610b45610ce0565b81810381811115610b4557610b45610ce0565b634e487b7160e01b600052604160045260246000fd5b60006020808385031215610d4557600080fd5b825167ffffffffffffffff80821115610d5d57600080fd5b818501915085601f830112610d7157600080fd5b815181811115610d8357610d83610d1c565b8060051b604051601f19603f83011681018181108582111715610da857610da8610d1c565b604052918252848201925083810185019188831115610dc657600080fd5b938501935b82851015610de457845184529385019392850192610dcb565b98975050505050505050565b634e487b7160e01b600052603260045260246000fd5b60008260020b8260020b028060020b9150808214610e2657610e26610ce0565b5092915050565b62ffffff818116838216019080821115610e2657610e26610ce0565b600281810b9083900b01627fffff8113627fffff1982121715610b4557610b45610ce0565b62ffffff818116838216028082169190828114610e8d57610e8d610ce0565b505092915050565b600062ffffff80841680610eb957634e487b7160e01b600052601260045260246000fd5b92169190910492915050565b600282810b9082900b03627fffff198112627fffff82131715610b4557610b45610ce056fea2646970667358221220cd751d089b32abd717977a97b87ae2bccda975563602e394a04d39937d59152564736f6c63430008180033","linkReferences":{}},"methodIdentifiers":{"addFee(bytes32,uint256,uint256,int24,address)":"14ab352b","getApplicableFees(address,uint256)":"d7f2400f","getFee(bytes32)":"e5f3d3a5","getFeeTotal()":"2c8d1099","removeFee(bytes32)":"bb665e48"},"id":182}