{"abi":[{"type":"function","name":"checkPauseRules","inputs":[{"name":"_appManagerAddress","type":"address","internalType":"address"}],"outputs":[{"name":"","type":"bool","internalType":"bool"}],"stateMutability":"view"},{"type":"error","name":"ApplicationPaused","inputs":[{"name":"started","type":"uint256","internalType":"uint256"},{"name":"ends","type":"uint256","internalType":"uint256"}]},{"type":"error","name":"InvalidDateWindow","inputs":[{"name":"startDate","type":"uint256","internalType":"uint256"},{"name":"endDate","type":"uint256","internalType":"uint256"}]},{"type":"error","name":"MaxPauseRulesReached","inputs":[]}],"bytecode":{"object":"0x608060405234801561001057600080fd5b5061034c806100206000396000f3fe608060405234801561001057600080fd5b506004361061002b5760003560e01c8063c42e62f514610030575b600080fd5b61004361003e366004610167565b610057565b604051901515815260200160405180910390f35b600080826001600160a01b031663d4f938706040518163ffffffff1660e01b8152600401600060405180830381865afa158015610098573d6000803e3d6000fd5b505050506040513d6000823e601f3d908101601f191682016040526100c09190810190610224565b905060005b815181101561015d5760008282815181106100e2576100e2610300565b60200260200101519050806000015167ffffffffffffffff1642101580156101175750806020015167ffffffffffffffff1642105b156101545780516020820151604051633338555160e01b815267ffffffffffffffff92831660048201529116602482015260440160405180910390fd5b506001016100c5565b5060019392505050565b60006020828403121561017957600080fd5b81356001600160a01b038116811461019057600080fd5b9392505050565b634e487b7160e01b600052604160045260246000fd5b6040805190810167ffffffffffffffff811182821017156101d0576101d0610197565b60405290565b604051601f8201601f1916810167ffffffffffffffff811182821017156101ff576101ff610197565b604052919050565b805167ffffffffffffffff8116811461021f57600080fd5b919050565b6000602080838503121561023757600080fd5b825167ffffffffffffffff8082111561024f57600080fd5b818501915085601f83011261026357600080fd5b81518181111561027557610275610197565b610283848260051b016101d6565b818152848101925060069190911b8301840190878211156102a357600080fd5b928401925b818410156102f557604084890312156102c15760008081fd5b6102c96101ad565b6102d285610207565b81526102df868601610207565b81870152835260409390930192918401916102a8565b979650505050505050565b634e487b7160e01b600052603260045260246000fdfea26469706673582212205118a22f575f90c26f771477ee175cef64dbdac2e2a6d210e3c67f3c8cb16ad964736f6c63430008180033","linkReferences":{}},"methodIdentifiers":{"checkPauseRules(address)":"c42e62f5"},"id":229}