{"abi":[{"type":"function","name":"approve","inputs":[{"name":"to","type":"address","internalType":"address"},{"name":"tokenId","type":"uint256","internalType":"uint256"}],"outputs":[],"stateMutability":"nonpayable"},{"type":"function","name":"balanceOf","inputs":[{"name":"owner","type":"address","internalType":"address"}],"outputs":[{"name":"","type":"uint256","internalType":"uint256"}],"stateMutability":"view"},{"type":"function","name":"confirmAppManagerAddress","inputs":[],"outputs":[],"stateMutability":"nonpayable"},{"type":"function","name":"connectHandlerToToken","inputs":[{"name":"_deployedHandlerAddress","type":"address","internalType":"address"}],"outputs":[],"stateMutability":"nonpayable"},{"type":"function","name":"getAppManagerAddress","inputs":[],"outputs":[{"name":"","type":"address","internalType":"address"}],"stateMutability":"view"},{"type":"function","name":"getApproved","inputs":[{"name":"tokenId","type":"uint256","internalType":"uint256"}],"outputs":[{"name":"","type":"address","internalType":"address"}],"stateMutability":"view"},{"type":"function","name":"getHandlerAddress","inputs":[],"outputs":[{"name":"","type":"address","internalType":"address"}],"stateMutability":"view"},{"type":"function","name":"isApprovedForAll","inputs":[{"name":"owner","type":"address","internalType":"address"},{"name":"operator","type":"address","internalType":"address"}],"outputs":[{"name":"","type":"bool","internalType":"bool"}],"stateMutability":"view"},{"type":"function","name":"name","inputs":[],"outputs":[{"name":"","type":"string","internalType":"string"}],"stateMutability":"view"},{"type":"function","name":"ownerOf","inputs":[{"name":"tokenId","type":"uint256","internalType":"uint256"}],"outputs":[{"name":"","type":"address","internalType":"address"}],"stateMutability":"view"},{"type":"function","name":"proposeAppManagerAddress","inputs":[{"name":"_newAppManagerAddress","type":"address","internalType":"address"}],"outputs":[],"stateMutability":"nonpayable"},{"type":"function","name":"safeTransferFrom","inputs":[{"name":"from","type":"address","internalType":"address"},{"name":"to","type":"address","internalType":"address"},{"name":"tokenId","type":"uint256","internalType":"uint256"}],"outputs":[],"stateMutability":"nonpayable"},{"type":"function","name":"safeTransferFrom","inputs":[{"name":"from","type":"address","internalType":"address"},{"name":"to","type":"address","internalType":"address"},{"name":"tokenId","type":"uint256","internalType":"uint256"},{"name":"data","type":"bytes","internalType":"bytes"}],"outputs":[],"stateMutability":"nonpayable"},{"type":"function","name":"setApprovalForAll","inputs":[{"name":"operator","type":"address","internalType":"address"},{"name":"approved","type":"bool","internalType":"bool"}],"outputs":[],"stateMutability":"nonpayable"},{"type":"function","name":"supportsInterface","inputs":[{"name":"interfaceId","type":"bytes4","internalType":"bytes4"}],"outputs":[{"name":"","type":"bool","internalType":"bool"}],"stateMutability":"view"},{"type":"function","name":"symbol","inputs":[],"outputs":[{"name":"","type":"string","internalType":"string"}],"stateMutability":"view"},{"type":"function","name":"tokenByIndex","inputs":[{"name":"index","type":"uint256","internalType":"uint256"}],"outputs":[{"name":"","type":"uint256","internalType":"uint256"}],"stateMutability":"view"},{"type":"function","name":"tokenOfOwnerByIndex","inputs":[{"name":"owner","type":"address","internalType":"address"},{"name":"index","type":"uint256","internalType":"uint256"}],"outputs":[{"name":"","type":"uint256","internalType":"uint256"}],"stateMutability":"view"},{"type":"function","name":"tokenURI","inputs":[{"name":"tokenId","type":"uint256","internalType":"uint256"}],"outputs":[{"name":"","type":"string","internalType":"string"}],"stateMutability":"view"},{"type":"function","name":"totalSupply","inputs":[],"outputs":[{"name":"","type":"uint256","internalType":"uint256"}],"stateMutability":"view"},{"type":"function","name":"transferFrom","inputs":[{"name":"from","type":"address","internalType":"address"},{"name":"to","type":"address","internalType":"address"},{"name":"tokenId","type":"uint256","internalType":"uint256"}],"outputs":[],"stateMutability":"nonpayable"},{"type":"event","name":"AD1467_AppManagerAddressSet","inputs":[{"name":"_address","type":"address","indexed":true,"internalType":"address"}],"anonymous":false},{"type":"event","name":"AD1467_CollectionPrice","inputs":[{"name":"collection","type":"address","indexed":true,"internalType":"address"},{"name":"price","type":"uint256","indexed":true,"internalType":"uint256"}],"anonymous":false},{"type":"event","name":"AD1467_FeeType","inputs":[{"name":"tag","type":"bytes32","indexed":true,"internalType":"bytes32"},{"name":"add","type":"bool","indexed":true,"internalType":"bool"},{"name":"minBalance","type":"uint256","indexed":false,"internalType":"uint256"},{"name":"maxBalance","type":"uint256","indexed":false,"internalType":"uint256"},{"name":"feePercentage","type":"int256","indexed":false,"internalType":"int256"},{"name":"targetAccount","type":"address","indexed":false,"internalType":"address"}],"anonymous":false},{"type":"event","name":"AD1467_HandlerConnected","inputs":[{"name":"handlerAddress","type":"address","indexed":true,"internalType":"address"},{"name":"assetAddress","type":"address","indexed":true,"internalType":"address"}],"anonymous":false},{"type":"event","name":"AD1467_NewNFTDeployed","inputs":[{"name":"appManagerAddress","type":"address","indexed":true,"internalType":"address"}],"anonymous":false},{"type":"event","name":"AD1467_NewTokenDeployed","inputs":[{"name":"appManagerAddress","type":"address","indexed":true,"internalType":"address"}],"anonymous":false},{"type":"event","name":"AD1467_SingleTokenPrice","inputs":[{"name":"collection","type":"address","indexed":true,"internalType":"address"},{"name":"tokenID","type":"uint256","indexed":true,"internalType":"uint256"},{"name":"price","type":"uint256","indexed":true,"internalType":"uint256"}],"anonymous":false},{"type":"event","name":"AD1467_TokenPrice","inputs":[{"name":"token","type":"address","indexed":true,"internalType":"address"},{"name":"price","type":"uint256","indexed":true,"internalType":"uint256"}],"anonymous":false},{"type":"event","name":"Approval","inputs":[{"name":"owner","type":"address","indexed":true,"internalType":"address"},{"name":"approved","type":"address","indexed":true,"internalType":"address"},{"name":"tokenId","type":"uint256","indexed":true,"internalType":"uint256"}],"anonymous":false},{"type":"event","name":"ApprovalForAll","inputs":[{"name":"owner","type":"address","indexed":true,"internalType":"address"},{"name":"operator","type":"address","indexed":true,"internalType":"address"},{"name":"approved","type":"bool","indexed":false,"internalType":"bool"}],"anonymous":false},{"type":"event","name":"Initialized","inputs":[{"name":"version","type":"uint8","indexed":false,"internalType":"uint8"}],"anonymous":false},{"type":"event","name":"Transfer","inputs":[{"name":"from","type":"address","indexed":true,"internalType":"address"},{"name":"to","type":"address","indexed":true,"internalType":"address"},{"name":"tokenId","type":"uint256","indexed":true,"internalType":"uint256"}],"anonymous":false},{"type":"error","name":"AppManagerNotConnected","inputs":[]},{"type":"error","name":"BelowMinAdminThreshold","inputs":[]},{"type":"error","name":"ConfirmerDoesNotMatchProposedAddress","inputs":[]},{"type":"error","name":"NoProposalHasBeenMade","inputs":[]},{"type":"error","name":"NotAppAdministrator","inputs":[]},{"type":"error","name":"NotAppAdministratorOrOwner","inputs":[]},{"type":"error","name":"NotRuleAdministrator","inputs":[]},{"type":"error","name":"NotSuperAdmin","inputs":[{"name":"","type":"address","internalType":"address"}]},{"type":"error","name":"ZeroAddress","inputs":[]}],"bytecode":{"object":"0x608060405234801561001057600080fd5b50600160cc55611a9e806100256000396000f3fe608060405234801561001057600080fd5b50600436106101375760003560e01c80634f6ccce7116100b857806395d89b411161007c57806395d89b4114610285578063a22cb4651461028d578063b88d4fde146102a0578063c87b56dd146102b3578063cdccb27a146102c6578063e985e9c5146102ce57600080fd5b80634f6ccce7146102285780636352211e1461023b5780636f9c83b81461024e57806370a082311461025f57806371af85e01461027257600080fd5b806318160ddd116100ff57806318160ddd146101cc57806323b872dd146101de5780632f745c59146101f157806342842e0e146102045780634c3300771461021757600080fd5b806301ffc9a71461013c57806306fdde0314610164578063081812fc14610179578063095ea7b3146101a457806311280cb5146101b9575b600080fd5b61014f61014a3660046115b7565b61030a565b60405190151581526020015b60405180910390f35b61016c610335565b60405161015b9190611624565b61018c610187366004611637565b6103c7565b6040516001600160a01b03909116815260200161015b565b6101b76101b236600461166c565b6103ee565b005b6101b76101c7366004611696565b610508565b6099545b60405190815260200161015b565b6101b76101ec3660046116b1565b610613565b6101d06101ff36600461166c565b610644565b6101b76102123660046116b1565b6106da565b60ca546001600160a01b031661018c565b6101d0610236366004611637565b6106f5565b61018c610249366004611637565b610788565b60cd546001600160a01b031661018c565b6101d061026d366004611696565b6107e8565b6101b7610280366004611696565b61086e565b61016c6109b0565b6101b761029b3660046116fb565b6109bf565b6101b76102ae366004611748565b6109ce565b61016c6102c1366004611637565b610a06565b6101b7610a7a565b61014f6102dc366004611824565b6001600160a01b039182166000908152606a6020908152604080832093909416825291909152205460ff1690565b60006001600160e01b0319821663780e9d6360e01b148061032f575061032f82610b02565b92915050565b60606065805461034490611857565b80601f016020809104026020016040519081016040528092919081815260200182805461037090611857565b80156103bd5780601f10610392576101008083540402835291602001916103bd565b820191906000526020600020905b8154815290600101906020018083116103a057829003601f168201915b5050505050905090565b60006103d282610b52565b506000908152606960205260409020546001600160a01b031690565b60006103f982610788565b9050806001600160a01b0316836001600160a01b03160361046b5760405162461bcd60e51b815260206004820152602160248201527f4552433732313a20617070726f76616c20746f2063757272656e74206f776e656044820152603960f91b60648201526084015b60405180910390fd5b336001600160a01b0382161480610487575061048781336102dc565b6104f95760405162461bcd60e51b815260206004820152603d60248201527f4552433732313a20617070726f76652063616c6c6572206973206e6f7420746f60448201527f6b656e206f776e6572206f7220617070726f76656420666f7220616c6c0000006064820152608401610462565b6105038383610bb4565b505050565b60ca546001600160a01b031680610532576040516371724ffd60e01b815260040160405180910390fd5b806001600160a01b03811663c3c2ebbb336040516001600160e01b031960e084901b1681526001600160a01b039091166004820152602401602060405180830381865afa158015610587573d6000803e3d6000fd5b505050506040513d601f19601f820116820180604052508101906105ab9190611891565b6105c85760405163ba80c9e560e01b815260040160405180910390fd5b6001600160a01b0383166105ef5760405163d92e233d60e01b815260040160405180910390fd5b505060c980546001600160a01b0319166001600160a01b0392909216919091179055565b61061d3382610c22565b6106395760405162461bcd60e51b8152600401610462906118ae565b610503838383610ca1565b600061064f836107e8565b82106106b15760405162461bcd60e51b815260206004820152602b60248201527f455243373231456e756d657261626c653a206f776e657220696e646578206f7560448201526a74206f6620626f756e647360a81b6064820152608401610462565b506001600160a01b03919091166000908152609760209081526040808320938352929052205490565b610503838383604051806020016040528060008152506109ce565b600061070060995490565b82106107635760405162461bcd60e51b815260206004820152602c60248201527f455243373231456e756d657261626c653a20676c6f62616c20696e646578206f60448201526b7574206f6620626f756e647360a01b6064820152608401610462565b60998281548110610776576107766118fb565b90600052602060002001549050919050565b6000818152606760205260408120546001600160a01b03168061032f5760405162461bcd60e51b8152602060048201526018602482015277115490cdcc8c4e881a5b9d985b1a59081d1bdad95b88125160421b6044820152606401610462565b60006001600160a01b0382166108525760405162461bcd60e51b815260206004820152602960248201527f4552433732313a2061646472657373207a65726f206973206e6f7420612076616044820152683634b21037bbb732b960b91b6064820152608401610462565b506001600160a01b031660009081526068602052604090205490565b60ca546001600160a01b031680610898576040516371724ffd60e01b815260040160405180910390fd5b806001600160a01b03811663c3c2ebbb336040516001600160e01b031960e084901b1681526001600160a01b039091166004820152602401602060405180830381865afa1580156108ed573d6000803e3d6000fd5b505050506040513d601f19601f820116820180604052508101906109119190611891565b61092e5760405163ba80c9e560e01b815260040160405180910390fd5b6001600160a01b0383166109555760405163d92e233d60e01b815260040160405180910390fd5b60cd80546001600160a01b0385166001600160a01b0319918216811790925560ce8054909116821790556040513091907f9a2cdaf1a28a88ccd359d6abc6a27d4856d16459aafb0aae34c1296bab5b63fb90600090a3505050565b60606066805461034490611857565b6109ca338383610e12565b5050565b6109d83383610c22565b6109f45760405162461bcd60e51b8152600401610462906118ae565b610a0084848484610ee0565b50505050565b6060610a1182610b52565b6000610a2860408051602081019091526000815290565b90506000815111610a485760405180602001604052806000815250610a73565b80610a5284610f13565b604051602001610a63929190611911565b6040516020818303038152906040525b9392505050565b60c9546001600160a01b0316610aa35760405163821e0eeb60e01b815260040160405180910390fd5b60c9546001600160a01b03163314610ace57604051634128496760e01b815260040160405180910390fd5b60c9805460ca80546001600160a01b0383166001600160a01b0319918216811790925560cb80548216909217909155169055565b60006001600160e01b031982166380ac58cd60e01b1480610b3357506001600160e01b03198216635b5e139f60e01b145b8061032f57506301ffc9a760e01b6001600160e01b031983161461032f565b6000818152606760205260409020546001600160a01b0316610bb15760405162461bcd60e51b8152602060048201526018602482015277115490cdcc8c4e881a5b9d985b1a59081d1bdad95b88125160421b6044820152606401610462565b50565b600081815260696020526040902080546001600160a01b0319166001600160a01b0384169081179091558190610be982610788565b6001600160a01b03167f8c5be1e5ebec7d5bd14f71427d1e84f3dd0314c0f7b2291e5b200ac8c7c3b92560405160405180910390a45050565b600080610c2e83610788565b9050806001600160a01b0316846001600160a01b03161480610c7557506001600160a01b038082166000908152606a602090815260408083209388168352929052205460ff165b80610c995750836001600160a01b0316610c8e846103c7565b6001600160a01b0316145b949350505050565b826001600160a01b0316610cb482610788565b6001600160a01b031614610cda5760405162461bcd60e51b815260040161046290611940565b6001600160a01b038216610d3c5760405162461bcd60e51b8152602060048201526024808201527f4552433732313a207472616e7366657220746f20746865207a65726f206164646044820152637265737360e01b6064820152608401610462565b610d498383836001610fa6565b826001600160a01b0316610d5c82610788565b6001600160a01b031614610d825760405162461bcd60e51b815260040161046290611940565b600081815260696020908152604080832080546001600160a01b03199081169091556001600160a01b0387811680865260688552838620805460001901905590871680865283862080546001019055868652606790945282852080549092168417909155905184937fddf252ad1be2c89b69c2b068fc378daa952ba7f163c4a11628f55a4df523b3ef91a4505050565b816001600160a01b0316836001600160a01b031603610e735760405162461bcd60e51b815260206004820152601960248201527f4552433732313a20617070726f766520746f2063616c6c6572000000000000006044820152606401610462565b6001600160a01b038381166000818152606a6020908152604080832094871680845294825291829020805460ff191686151590811790915591519182527f17307eab39ab6107e8899845ad3d59bd9653f200f220920489ca2b5937696c31910160405180910390a3505050565b610eeb848484610ca1565b610ef7848484846110ab565b610a005760405162461bcd60e51b815260040161046290611985565b60606000610f20836111ac565b600101905060008167ffffffffffffffff811115610f4057610f40611732565b6040519080825280601f01601f191660200182016040528015610f6a576020820181803683370190505b5090508181016020015b600019016f181899199a1a9b1b9c1cb0b131b232b360811b600a86061a8153600a8504945084610f7457509392505050565b610fae611284565b60ce546001600160a01b039081169063e802b52390861615610fd857610fd3866107e8565b610fdb565b60005b6001600160a01b03861615610ff857610ff3866107e8565b610ffb565b60005b8787336040516001600160e01b031960e088901b168152600481019590955260248501939093526001600160a01b0391821660448501528116606484015216608482015260a4810185905260c4016020604051808303816000875af1158015611068573d6000803e3d6000fd5b505050506040513d601f19601f8201168201806040525081019061108c9190611891565b61109557600080fd5b6110a1848484846112dd565b610a00600160cc55565b60006001600160a01b0384163b156111a157604051630a85bd0160e11b81526001600160a01b0385169063150b7a02906110ef9033908990889088906004016119d7565b6020604051808303816000875af192505050801561112a575060408051601f3d908101601f1916820190925261112791810190611a14565b60015b611187573d808015611158576040519150601f19603f3d011682016040523d82523d6000602084013e61115d565b606091505b50805160000361117f5760405162461bcd60e51b815260040161046290611985565b805181602001fd5b6001600160e01b031916630a85bd0160e11b149050610c99565b506001949350505050565b60008072184f03e93ff9f4daa797ed6e38ed64bf6a1f0160401b83106111eb5772184f03e93ff9f4daa797ed6e38ed64bf6a1f0160401b830492506040015b6d04ee2d6d415b85acef81000000008310611217576d04ee2d6d415b85acef8100000000830492506020015b662386f26fc10000831061123557662386f26fc10000830492506010015b6305f5e100831061124d576305f5e100830492506008015b612710831061126157612710830492506004015b60648310611273576064830492506002015b600a831061032f5760010192915050565b600260cc54036112d65760405162461bcd60e51b815260206004820152601f60248201527f5265656e7472616e637947756172643a207265656e7472616e742063616c6c006044820152606401610462565b600260cc55565b600181111561134c5760405162461bcd60e51b815260206004820152603560248201527f455243373231456e756d657261626c653a20636f6e7365637574697665207472604482015274185b9cd9995c9cc81b9bdd081cdd5c1c1bdc9d1959605a1b6064820152608401610462565b816001600160a01b0385166113a8576113a381609980546000838152609a60205260408120829055600182018355919091527f72a152ddfb8e864297c917af52ea6c1c68aead0fee1a62673fcc7e0c94979d000155565b6113cb565b836001600160a01b0316856001600160a01b0316146113cb576113cb8582611411565b6001600160a01b0384166113e7576113e2816114ae565b61140a565b846001600160a01b0316846001600160a01b03161461140a5761140a848261155d565b5050505050565b6000600161141e846107e8565b6114289190611a31565b60008381526098602052604090205490915080821461147b576001600160a01b03841660009081526097602090815260408083208584528252808320548484528184208190558352609890915290208190555b5060009182526098602090815260408084208490556001600160a01b039094168352609781528383209183525290812055565b6099546000906114c090600190611a31565b6000838152609a6020526040812054609980549394509092849081106114e8576114e86118fb565b906000526020600020015490508060998381548110611509576115096118fb565b6000918252602080832090910192909255828152609a9091526040808220849055858252812055609980548061154157611541611a52565b6001900381819060005260206000200160009055905550505050565b6000611568836107e8565b6001600160a01b039093166000908152609760209081526040808320868452825280832085905593825260989052919091209190915550565b6001600160e01b031981168114610bb157600080fd5b6000602082840312156115c957600080fd5b8135610a73816115a1565b60005b838110156115ef5781810151838201526020016115d7565b50506000910152565b600081518084526116108160208601602086016115d4565b601f01601f19169290920160200192915050565b602081526000610a7360208301846115f8565b60006020828403121561164957600080fd5b5035919050565b80356001600160a01b038116811461166757600080fd5b919050565b6000806040838503121561167f57600080fd5b61168883611650565b946020939093013593505050565b6000602082840312156116a857600080fd5b610a7382611650565b6000806000606084860312156116c657600080fd5b6116cf84611650565b92506116dd60208501611650565b9150604084013590509250925092565b8015158114610bb157600080fd5b6000806040838503121561170e57600080fd5b61171783611650565b91506020830135611727816116ed565b809150509250929050565b634e487b7160e01b600052604160045260246000fd5b6000806000806080858703121561175e57600080fd5b61176785611650565b935061177560208601611650565b925060408501359150606085013567ffffffffffffffff8082111561179957600080fd5b818701915087601f8301126117ad57600080fd5b8135818111156117bf576117bf611732565b604051601f8201601f19908116603f011681019083821181831017156117e7576117e7611732565b816040528281528a602084870101111561180057600080fd5b82602086016020830137600060208483010152809550505050505092959194509250565b6000806040838503121561183757600080fd5b61184083611650565b915061184e60208401611650565b90509250929050565b600181811c9082168061186b57607f821691505b60208210810361188b57634e487b7160e01b600052602260045260246000fd5b50919050565b6000602082840312156118a357600080fd5b8151610a73816116ed565b6020808252602d908201527f4552433732313a2063616c6c6572206973206e6f7420746f6b656e206f776e6560408201526c1c881bdc88185c1c1c9bdd9959609a1b606082015260800190565b634e487b7160e01b600052603260045260246000fd5b600083516119238184602088016115d4565b8351908301906119378183602088016115d4565b01949350505050565b60208082526025908201527f4552433732313a207472616e736665722066726f6d20696e636f72726563742060408201526437bbb732b960d91b606082015260800190565b60208082526032908201527f4552433732313a207472616e7366657220746f206e6f6e20455243373231526560408201527131b2b4bb32b91034b6b83632b6b2b73a32b960711b606082015260800190565b6001600160a01b0385811682528416602082015260408101839052608060608201819052600090611a0a908301846115f8565b9695505050505050565b600060208284031215611a2657600080fd5b8151610a73816115a1565b8181038181111561032f57634e487b7160e01b600052601160045260246000fd5b634e487b7160e01b600052603160045260246000fdfea2646970667358221220cc78dcd9fb6c4dedc2237bd37638a9aa13511521893a83356499d9719983209864736f6c63430008180033","linkReferences":{}},"methodIdentifiers":{"approve(address,uint256)":"095ea7b3","balanceOf(address)":"70a08231","confirmAppManagerAddress()":"cdccb27a","connectHandlerToToken(address)":"71af85e0","getAppManagerAddress()":"4c330077","getApproved(uint256)":"081812fc","getHandlerAddress()":"6f9c83b8","isApprovedForAll(address,address)":"e985e9c5","name()":"06fdde03","ownerOf(uint256)":"6352211e","proposeAppManagerAddress(address)":"11280cb5","safeTransferFrom(address,address,uint256)":"42842e0e","safeTransferFrom(address,address,uint256,bytes)":"b88d4fde","setApprovalForAll(address,bool)":"a22cb465","supportsInterface(bytes4)":"01ffc9a7","symbol()":"95d89b41","tokenByIndex(uint256)":"4f6ccce7","tokenOfOwnerByIndex(address,uint256)":"2f745c59","tokenURI(uint256)":"c87b56dd","totalSupply()":"18160ddd","transferFrom(address,address,uint256)":"23b872dd"},"id":155}