{"abi":[{"type":"function","name":"activateAdminMinTokenBalance","inputs":[{"name":"_actions","type":"uint8[]","internalType":"enum ActionTypes[]"},{"name":"_on","type":"bool","internalType":"bool"}],"outputs":[],"stateMutability":"nonpayable"},{"type":"function","name":"getAdminMinTokenBalanceId","inputs":[{"name":"_action","type":"uint8","internalType":"enum ActionTypes"}],"outputs":[{"name":"","type":"uint32","internalType":"uint32"}],"stateMutability":"view"},{"type":"function","name":"isAdminMinTokenBalanceActive","inputs":[{"name":"_action","type":"uint8","internalType":"enum ActionTypes"}],"outputs":[{"name":"","type":"bool","internalType":"bool"}],"stateMutability":"view"},{"type":"function","name":"isAdminMinTokenBalanceActiveAndApplicable","inputs":[],"outputs":[{"name":"","type":"bool","internalType":"bool"}],"stateMutability":"view"},{"type":"function","name":"setAdminMinTokenBalanceId","inputs":[{"name":"_actions","type":"uint8[]","internalType":"enum ActionTypes[]"},{"name":"_ruleId","type":"uint32","internalType":"uint32"}],"outputs":[],"stateMutability":"nonpayable"},{"type":"function","name":"setAdminMinTokenBalanceIdFull","inputs":[{"name":"_actions","type":"uint8[]","internalType":"enum ActionTypes[]"},{"name":"_ruleIds","type":"uint32[]","internalType":"uint32[]"}],"outputs":[],"stateMutability":"nonpayable"},{"type":"event","name":"AD1467_AppManagerAddressProposed","inputs":[{"name":"_address","type":"address","indexed":true,"internalType":"address"}],"anonymous":false},{"type":"event","name":"AD1467_AppManagerAddressSet","inputs":[{"name":"_address","type":"address","indexed":true,"internalType":"address"}],"anonymous":false},{"type":"event","name":"AD1467_ApplicationHandlerActionActivated","inputs":[{"name":"ruleType","type":"bytes32","indexed":true,"internalType":"bytes32"},{"name":"actions","type":"uint8[]","indexed":false,"internalType":"enum ActionTypes[]"}],"anonymous":false},{"type":"event","name":"AD1467_ApplicationHandlerActionApplied","inputs":[{"name":"ruleType","type":"bytes32","indexed":true,"internalType":"bytes32"},{"name":"action","type":"uint8","indexed":true,"internalType":"enum ActionTypes"},{"name":"ruleId","type":"uint32","indexed":true,"internalType":"uint32"}],"anonymous":false},{"type":"event","name":"AD1467_ApplicationHandlerActionAppliedFull","inputs":[{"name":"ruleType","type":"bytes32","indexed":true,"internalType":"bytes32"},{"name":"actions","type":"uint8[]","indexed":false,"internalType":"enum ActionTypes[]"},{"name":"ruleIds","type":"uint32[]","indexed":false,"internalType":"uint32[]"}],"anonymous":false},{"type":"event","name":"AD1467_ApplicationHandlerActionDeactivated","inputs":[{"name":"ruleType","type":"bytes32","indexed":true,"internalType":"bytes32"},{"name":"actions","type":"uint8[]","indexed":false,"internalType":"enum ActionTypes[]"}],"anonymous":false},{"type":"event","name":"AD1467_ERC721AddressSet","inputs":[{"name":"_address","type":"address","indexed":true,"internalType":"address"}],"anonymous":false},{"type":"event","name":"AD1467_FeeActivationSet","inputs":[{"name":"_activation","type":"bool","indexed":true,"internalType":"bool"}],"anonymous":false},{"type":"event","name":"AD1467_NFTValuationLimitUpdated","inputs":[{"name":"nftValuationLimit","type":"uint256","indexed":true,"internalType":"uint256"}],"anonymous":false},{"type":"error","name":"AddressAlreadyRegistered","inputs":[]},{"type":"error","name":"AdminMinTokenBalanceisActive","inputs":[]},{"type":"error","name":"AppManagerNotConnected","inputs":[]},{"type":"error","name":"BelowMinAdminThreshold","inputs":[]},{"type":"error","name":"CantMixPeriodicAndNonPeriodic","inputs":[]},{"type":"error","name":"IndexOutOfRange","inputs":[]},{"type":"error","name":"InputArraysMustHaveSameLength","inputs":[]},{"type":"error","name":"InputArraysSizesNotValid","inputs":[]},{"type":"error","name":"InvalidOracleType","inputs":[{"name":"_type","type":"uint8","internalType":"uint8"}]},{"type":"error","name":"InvalidRuleInput","inputs":[]},{"type":"error","name":"InvertedLimits","inputs":[]},{"type":"error","name":"NoAddressToRemove","inputs":[]},{"type":"error","name":"NotAUser","inputs":[{"name":"_address","type":"address","internalType":"address"}]},{"type":"error","name":"NotAccessLevelAdministrator","inputs":[{"name":"_address","type":"address","internalType":"address"}]},{"type":"error","name":"NotAppAdministrator","inputs":[]},{"type":"error","name":"NotAppAdministratorOrOwner","inputs":[]},{"type":"error","name":"NotRegisteredHandler","inputs":[{"name":"","type":"address","internalType":"address"}]},{"type":"error","name":"NotRiskAdmin","inputs":[{"name":"_address","type":"address","internalType":"address"}]},{"type":"error","name":"NotRuleAdministrator","inputs":[]},{"type":"error","name":"NotSuperAdmin","inputs":[{"name":"","type":"address","internalType":"address"}]},{"type":"error","name":"PricingModuleNotConfigured","inputs":[{"name":"_erc20PricingAddress","type":"address","internalType":"address"},{"name":"nftPricingAddress","type":"address","internalType":"address"}]},{"type":"error","name":"ValueOutOfRange","inputs":[{"name":"_value","type":"uint256","internalType":"uint256"}]},{"type":"error","name":"WrongArrayOrder","inputs":[]},{"type":"error","name":"ZeroValueNotPermited","inputs":[]}],"bytecode":{"object":"0x608060405234801561001057600080fd5b50610f84806100206000396000f3fe608060405234801561001057600080fd5b50600436106100625760003560e01c80630547662514610067578063322f1a0014610094578063b1a7f828146100a9578063cf70d948146100c1578063d6591f49146100d4578063dcb0080f146100e7575b600080fd5b61007a610075366004610c20565b6100fa565b60405163ffffffff90911681526020015b60405180910390f35b6100a76100a2366004610c8e565b610146565b005b6100b1610322565b604051901515815260200161008b565b6100a76100cf366004610d0b565b610495565b6100b16100e2366004610c20565b6106d5565b6100a76100f5366004610d76565b610726565b6000610104610953565b600083600481111561011857610118610dca565b600481111561012957610129610dca565b815260208101919091526040016000205463ffffffff1692915050565b61014e610987565b600201546001600160a01b031680610179576040516371724ffd60e01b815260040160405180910390fd5b806001600160a01b03811663d4a7db7f336040516001600160e01b031960e084901b1681526001600160a01b039091166004820152602401602060405180830381865afa1580156101ce573d6000803e3d6000fd5b505050506040513d601f19601f820116820180604052508101906101f29190610de0565b61020f57604051631acd860160e31b815260040160405180910390fd5b600085900361023157604051633f4ab26f60e21b815260040160405180910390fd5b8483146102505760405162514d8b60e31b815260040160405180910390fd5b6102586109b5565b60005b858110156102c1576102b987878381811061027857610278610dfd565b905060200201602081019061028d9190610c20565b86868481811061029f5761029f610dfd565b90506020020160208101906102b49190610e13565b610a3f565b60010161025b565b507641444d494e5f4d494e5f544f4b454e5f42414c414e434560481b7ffce5ba10ca670317c4ad6aaf14bfb5c4467bb4415ab89dafce1434471a227126878787876040516103129493929190610e8a565b60405180910390a2505050505050565b6000808061032e610953565b90505b610339610987565b6003015460ff600160a01b90910481169083161161048c578060008360ff16600481111561036957610369610dca565b600481111561037a5761037a610dca565b600481111561038b5761038b610dca565b8152602081019190915260400160002054640100000000900460ff161561047a576103b4610987565b600101546001600160a01b0316635d74c45e82600060ff861660048111156103de576103de610dca565b60048111156103ef576103ef610dca565b600481111561040057610400610dca565b81526020810191909152604090810160002054905160e083901b6001600160e01b031916815263ffffffff9091166004820152600160248201819052604482015260640160006040518083038186803b15801561045c57600080fd5b505afa92505050801561046d575060015b61047a5760019250505090565b8161048481610f00565b925050610331565b60009250505090565b61049d610987565b600201546001600160a01b0316806104c8576040516371724ffd60e01b815260040160405180910390fd5b806001600160a01b03811663d4a7db7f336040516001600160e01b031960e084901b1681526001600160a01b039091166004820152602401602060405180830381865afa15801561051d573d6000803e3d6000fd5b505050506040513d601f19601f820116820180604052508101906105419190610de0565b61055e57604051631acd860160e31b815260040160405180910390fd5b826105895761056b610322565b15610589576040516312e9e50760e21b815260040160405180910390fd5b6000610593610953565b905060005b8581101561062157848260008989858181106105b6576105b6610dfd565b90506020020160208101906105cb9190610c20565b60048111156105dc576105dc610dca565b60048111156105ed576105ed610dca565b8152602081019190915260400160002080549115156401000000000264ff0000000019909216919091179055600101610598565b508315610681577641444d494e5f4d494e5f544f4b454e5f42414c414e434560481b7f4dfa26a794eb61a703a2beac482f06b4372aed0b7c0d6b4490db416146d8e32e8787604051610674929190610f1f565b60405180910390a26106cd565b7641444d494e5f4d494e5f544f4b454e5f42414c414e434560481b7fe67b4c6b446d2563a2a39eb75b71127a3f908bcfcef4f7c89bd9e1b3ef39d15e8787604051610312929190610f1f565b505050505050565b60006106df610953565b60008360048111156106f3576106f3610dca565b600481111561070457610704610dca565b8152602081019190915260400160002054640100000000900460ff1692915050565b61072e610987565b600201546001600160a01b031680610759576040516371724ffd60e01b815260040160405180910390fd5b806001600160a01b03811663d4a7db7f336040516001600160e01b031960e084901b1681526001600160a01b039091166004820152602401602060405180830381865afa1580156107ae573d6000803e3d6000fd5b505050506040513d601f19601f820116820180604052508101906107d29190610de0565b6107ef57604051631acd860160e31b815260040160405180910390fd5b6107f7610987565b6001015460405163f314bcb960e01b815263ffffffff851660048201526001600160a01b039091169063f314bcb99060240160006040518083038186803b15801561084157600080fd5b505afa158015610855573d6000803e3d6000fd5b50505050610861610b67565b1561088c5761086e610322565b1561088c576040516312e9e50760e21b815260040160405180910390fd5b60005b848110156106cd576108c78686838181106108ac576108ac610dfd565b90506020020160208101906108c19190610c20565b85610a3f565b8363ffffffff168686838181106108e0576108e0610dfd565b90506020020160208101906108f59190610c20565b600481111561090657610906610dca565b6040517641444d494e5f4d494e5f544f4b454e5f42414c414e434560481b907f4f87ac5c7868c692420a972d0f84fa7750afbf2b8a09848fefc355020bce707b90600090a460010161088f565b60008061098160017ff5bd48fd0872ddd36ef3d33e5a5e9adb72fd2eac946092e3216254d49dfac80b610f3b565b92915050565b60008061098160017f1c7e9355957c344e150b07462120dcb6c99b078e258444a7cd1841042fa7f14b610f3b565b60006109bf610953565b905060005b6109cc610987565b60030154600160a01b900460ff168111610a3b578160008260048111156109f5576109f5610dca565b6004811115610a0657610a06610dca565b6004811115610a1757610a17610dca565b81526020810191909152604001600020805464ffffffffff191690556001016109c4565b5050565b610a47610987565b6001015460405163f314bcb960e01b815263ffffffff831660048201526001600160a01b039091169063f314bcb99060240160006040518083038186803b158015610a9157600080fd5b505afa158015610aa5573d6000803e3d6000fd5b505050506000610ab3610953565b905081816000856004811115610acb57610acb610dca565b6004811115610adc57610adc610dca565b815260200190815260200160002060000160006101000a81548163ffffffff021916908363ffffffff1602179055506001816000016000856004811115610b2557610b25610dca565b6004811115610b3657610b36610dca565b8152602081019190915260400160002080549115156401000000000264ff0000000019909216919091179055505050565b60008080610b73610953565b90505b610b7e610987565b6003015460ff600160a01b90910481169083161161048c578060008360ff166004811115610bae57610bae610dca565b6004811115610bbf57610bbf610dca565b6004811115610bd057610bd0610dca565b8152602081019190915260400160002054640100000000900460ff1615610bfa5760019250505090565b81610c0481610f00565b925050610b76565b803560058110610c1b57600080fd5b919050565b600060208284031215610c3257600080fd5b610c3b82610c0c565b9392505050565b60008083601f840112610c5457600080fd5b50813567ffffffffffffffff811115610c6c57600080fd5b6020830191508360208260051b8501011115610c8757600080fd5b9250929050565b60008060008060408587031215610ca457600080fd5b843567ffffffffffffffff80821115610cbc57600080fd5b610cc888838901610c42565b90965094506020870135915080821115610ce157600080fd5b50610cee87828801610c42565b95989497509550505050565b8015158114610d0857600080fd5b50565b600080600060408486031215610d2057600080fd5b833567ffffffffffffffff811115610d3757600080fd5b610d4386828701610c42565b9094509250506020840135610d5781610cfa565b809150509250925092565b803563ffffffff81168114610c1b57600080fd5b600080600060408486031215610d8b57600080fd5b833567ffffffffffffffff811115610da257600080fd5b610dae86828701610c42565b9094509250610dc1905060208501610d62565b90509250925092565b634e487b7160e01b600052602160045260246000fd5b600060208284031215610df257600080fd5b8151610c3b81610cfa565b634e487b7160e01b600052603260045260246000fd5b600060208284031215610e2557600080fd5b610c3b82610d62565b818352600060208085019450826000805b86811015610e7e57610e5083610c0c565b60058110610e6c57634e487b7160e01b83526021600452602483fd5b88529683019691830191600101610e3f565b50959695505050505050565b604081526000610e9e604083018688610e2e565b8281036020848101919091528482528591810160005b86811015610edd5763ffffffff610eca85610d62565b1682529282019290820190600101610eb4565b5098975050505050505050565b634e487b7160e01b600052601160045260246000fd5b600060ff821660ff8103610f1657610f16610eea565b60010192915050565b602081526000610f33602083018486610e2e565b949350505050565b8181038181111561098157610981610eea56fea2646970667358221220668d5b1f8cb1743b8df230fdb9f91c7ac1c7be3917b092aa34d554d299566b0464736f6c63430008180033","linkReferences":{}},"methodIdentifiers":{"activateAdminMinTokenBalance(uint8[],bool)":"cf70d948","getAdminMinTokenBalanceId(uint8)":"05476625","isAdminMinTokenBalanceActive(uint8)":"d6591f49","isAdminMinTokenBalanceActiveAndApplicable()":"b1a7f828","setAdminMinTokenBalanceId(uint8[],uint32)":"dcb0080f","setAdminMinTokenBalanceIdFull(uint8[],uint32[])":"322f1a00"},"id":187}