{"abi":[{"type":"constructor","inputs":[{"name":"_ruleProcessorProxyAddress","type":"address","internalType":"address"},{"name":"_appManagerAddress","type":"address","internalType":"address"}],"stateMutability":"nonpayable"},{"type":"function","name":"activateAccountDenyForNoAccessLevelRule","inputs":[{"name":"_on","type":"bool","internalType":"bool"}],"outputs":[],"stateMutability":"nonpayable"},{"type":"function","name":"activateAccountMaxTxValueByRiskScore","inputs":[{"name":"_on","type":"bool","internalType":"bool"}],"outputs":[],"stateMutability":"nonpayable"},{"type":"function","name":"activateAccountMaxValueByAccessLevel","inputs":[{"name":"_on","type":"bool","internalType":"bool"}],"outputs":[],"stateMutability":"nonpayable"},{"type":"function","name":"activateAccountMaxValueByRiskScore","inputs":[{"name":"_on","type":"bool","internalType":"bool"}],"outputs":[],"stateMutability":"nonpayable"},{"type":"function","name":"activateAccountMaxValueOutByAccessLevel","inputs":[{"name":"_on","type":"bool","internalType":"bool"}],"outputs":[],"stateMutability":"nonpayable"},{"type":"function","name":"activatePauseRule","inputs":[{"name":"_on","type":"bool","internalType":"bool"}],"outputs":[],"stateMutability":"nonpayable"},{"type":"function","name":"appManagerAddress","inputs":[],"outputs":[{"name":"","type":"address","internalType":"address"}],"stateMutability":"view"},{"type":"function","name":"checkApplicationRules","inputs":[{"name":"_tokenAddress","type":"address","internalType":"address"},{"name":"_from","type":"address","internalType":"address"},{"name":"_to","type":"address","internalType":"address"},{"name":"_amount","type":"uint256","internalType":"uint256"},{"name":"_nftValuationLimit","type":"uint16","internalType":"uint16"},{"name":"_tokenId","type":"uint256","internalType":"uint256"},{"name":"_action","type":"uint8","internalType":"enum ActionTypes"},{"name":"_handlerType","type":"uint8","internalType":"enum HandlerTypes"}],"outputs":[],"stateMutability":"nonpayable"},{"type":"function","name":"erc20PricingAddress","inputs":[],"outputs":[{"name":"","type":"address","internalType":"address"}],"stateMutability":"view"},{"type":"function","name":"getAccTotalValuation","inputs":[{"name":"_account","type":"address","internalType":"address"},{"name":"_nftValuationLimit","type":"uint256","internalType":"uint256"}],"outputs":[{"name":"totalValuation","type":"uint256","internalType":"uint256"}],"stateMutability":"view"},{"type":"function","name":"getAccountMaxTxValueByRiskScoreId","inputs":[],"outputs":[{"name":"","type":"uint32","internalType":"uint32"}],"stateMutability":"view"},{"type":"function","name":"getAccountMaxValueByAccessLevelId","inputs":[],"outputs":[{"name":"","type":"uint32","internalType":"uint32"}],"stateMutability":"view"},{"type":"function","name":"getAccountMaxValueByRiskScoreId","inputs":[],"outputs":[{"name":"","type":"uint32","internalType":"uint32"}],"stateMutability":"view"},{"type":"function","name":"getAccountMaxValueOutByAccessLevelId","inputs":[],"outputs":[{"name":"","type":"uint32","internalType":"uint32"}],"stateMutability":"view"},{"type":"function","name":"isAccountDenyForNoAccessLevelActive","inputs":[],"outputs":[{"name":"","type":"bool","internalType":"bool"}],"stateMutability":"view"},{"type":"function","name":"isAccountMaxTxValueByRiskScoreActive","inputs":[],"outputs":[{"name":"","type":"bool","internalType":"bool"}],"stateMutability":"view"},{"type":"function","name":"isAccountMaxValueByAccessLevelActive","inputs":[],"outputs":[{"name":"","type":"bool","internalType":"bool"}],"stateMutability":"view"},{"type":"function","name":"isAccountMaxValueByRiskScoreActive","inputs":[],"outputs":[{"name":"","type":"bool","internalType":"bool"}],"stateMutability":"view"},{"type":"function","name":"isAccountMaxValueOutByAccessLevelActive","inputs":[],"outputs":[{"name":"","type":"bool","internalType":"bool"}],"stateMutability":"view"},{"type":"function","name":"isPauseRuleActive","inputs":[],"outputs":[{"name":"","type":"bool","internalType":"bool"}],"stateMutability":"view"},{"type":"function","name":"nftPricingAddress","inputs":[],"outputs":[{"name":"","type":"address","internalType":"address"}],"stateMutability":"view"},{"type":"function","name":"owner","inputs":[],"outputs":[{"name":"","type":"address","internalType":"address"}],"stateMutability":"view"},{"type":"function","name":"renounceOwnership","inputs":[],"outputs":[],"stateMutability":"nonpayable"},{"type":"function","name":"requireApplicationRulesChecked","inputs":[],"outputs":[{"name":"","type":"bool","internalType":"bool"}],"stateMutability":"view"},{"type":"function","name":"setAccountMaxTxValueByRiskScoreId","inputs":[{"name":"_ruleId","type":"uint32","internalType":"uint32"}],"outputs":[],"stateMutability":"nonpayable"},{"type":"function","name":"setAccountMaxValueByAccessLevelId","inputs":[{"name":"_ruleId","type":"uint32","internalType":"uint32"}],"outputs":[],"stateMutability":"nonpayable"},{"type":"function","name":"setAccountMaxValueByRiskScoreId","inputs":[{"name":"_ruleId","type":"uint32","internalType":"uint32"}],"outputs":[],"stateMutability":"nonpayable"},{"type":"function","name":"setAccountMaxValueOutByAccessLevelId","inputs":[{"name":"_ruleId","type":"uint32","internalType":"uint32"}],"outputs":[],"stateMutability":"nonpayable"},{"type":"function","name":"setERC20PricingAddress","inputs":[{"name":"_address","type":"address","internalType":"address"}],"outputs":[],"stateMutability":"nonpayable"},{"type":"function","name":"setNFTPricingAddress","inputs":[{"name":"_address","type":"address","internalType":"address"}],"outputs":[],"stateMutability":"nonpayable"},{"type":"function","name":"transferOwnership","inputs":[{"name":"newOwner","type":"address","internalType":"address"}],"outputs":[],"stateMutability":"nonpayable"},{"type":"function","name":"version","inputs":[],"outputs":[{"name":"","type":"string","internalType":"string"}],"stateMutability":"pure"},{"type":"event","name":"AD1467_ApplicationHandlerActivated","inputs":[{"name":"ruleType","type":"bytes32","indexed":true,"internalType":"bytes32"}],"anonymous":false},{"type":"event","name":"AD1467_ApplicationHandlerDeactivated","inputs":[{"name":"ruleType","type":"bytes32","indexed":true,"internalType":"bytes32"}],"anonymous":false},{"type":"event","name":"AD1467_ApplicationHandlerDeployed","inputs":[{"name":"appManager","type":"address","indexed":true,"internalType":"address"}],"anonymous":false},{"type":"event","name":"AD1467_ApplicationRuleApplied","inputs":[{"name":"ruleType","type":"bytes32","indexed":true,"internalType":"bytes32"},{"name":"ruleId","type":"uint32","indexed":true,"internalType":"uint32"}],"anonymous":false},{"type":"event","name":"AD1467_ERC20PricingAddressSet","inputs":[{"name":"_address","type":"address","indexed":true,"internalType":"address"}],"anonymous":false},{"type":"event","name":"AD1467_ERC721PricingAddressSet","inputs":[{"name":"_address","type":"address","indexed":true,"internalType":"address"}],"anonymous":false},{"type":"event","name":"AD1467_RulesBypassedViaRuleBypassAccount","inputs":[{"name":"ruleBypassAccount","type":"address","indexed":true,"internalType":"address"},{"name":"appManager","type":"address","indexed":true,"internalType":"address"}],"anonymous":false},{"type":"event","name":"OwnershipTransferred","inputs":[{"name":"previousOwner","type":"address","indexed":true,"internalType":"address"},{"name":"newOwner","type":"address","indexed":true,"internalType":"address"}],"anonymous":false},{"type":"error","name":"AppManagerNotConnected","inputs":[]},{"type":"error","name":"BelowMinAdminThreshold","inputs":[]},{"type":"error","name":"CantMixPeriodicAndNonPeriodic","inputs":[]},{"type":"error","name":"IndexOutOfRange","inputs":[]},{"type":"error","name":"InputArraysMustHaveSameLength","inputs":[]},{"type":"error","name":"InputArraysSizesNotValid","inputs":[]},{"type":"error","name":"InvalidOracleType","inputs":[{"name":"_type","type":"uint8","internalType":"uint8"}]},{"type":"error","name":"InvalidRuleInput","inputs":[]},{"type":"error","name":"InvertedLimits","inputs":[]},{"type":"error","name":"NotAppAdministrator","inputs":[]},{"type":"error","name":"NotAppAdministratorOrOwner","inputs":[]},{"type":"error","name":"NotRuleAdministrator","inputs":[]},{"type":"error","name":"NotSuperAdmin","inputs":[{"name":"","type":"address","internalType":"address"}]},{"type":"error","name":"PricingModuleNotConfigured","inputs":[{"name":"_erc20PricingAddress","type":"address","internalType":"address"},{"name":"nftPricingAddress","type":"address","internalType":"address"}]},{"type":"error","name":"ValueOutOfRange","inputs":[{"name":"_value","type":"uint256","internalType":"uint256"}]},{"type":"error","name":"WrongArrayOrder","inputs":[]},{"type":"error","name":"ZeroAddress","inputs":[]},{"type":"error","name":"ZeroValueNotPermited","inputs":[]}],"bytecode":{"object":"0x60e06040523480156200001157600080fd5b50604051620033ac380380620033ac83398101604081905262000034916200022d565b81816200004133620000df565b6001600160a01b03821615806200005f57506001600160a01b038116155b156200007e5760405163d92e233d60e01b815260040160405180910390fd5b6001600160a01b0380821660a0819052608052821660c052620000a1816200012f565b6040516001600160a01b038216907fd9d32d40998e72ec09851d13136a1ad3540169ed55383f684732ec00c981a65890600090a25050505062000265565b600080546001600160a01b038381166001600160a01b0319831681178455604051919092169283917f8be0079c531659141344cd1fd0a4f28419497f9722a3daafe3b4186f6b6457e09190a35050565b62000139620001b2565b6001600160a01b038116620001a45760405162461bcd60e51b815260206004820152602660248201527f4f776e61626c653a206e6577206f776e657220697320746865207a65726f206160448201526564647265737360d01b60648201526084015b60405180910390fd5b620001af81620000df565b50565b6000546001600160a01b031633146200020e5760405162461bcd60e51b815260206004820181905260248201527f4f776e61626c653a2063616c6c6572206973206e6f7420746865206f776e657260448201526064016200019b565b565b80516001600160a01b03811681146200022857600080fd5b919050565b600080604083850312156200024157600080fd5b6200024c8362000210565b91506200025c6020840162000210565b90509250929050565b60805160a05160c05161304c6200036060003960008181610b09015281816113b50152818161184f0152818161197b01528181611d190152818161230001528181612434015281816124fc015281816125d201528181612805015281816128a801526129ea0152600081816103c00152818161052a015281816106a60152818161089001528181610a1201528181610fe00152818161113d015281816112be0152818161147c015281816115dc01528181611758015281816119530152611c22015260008181610bf801528181612143015281816121d501528181612276015281816123960152818161269e0152612730015261304c6000f3fe608060405234801561001057600080fd5b50600436106101f05760003560e01c80639e046ae51161010f578063c7eb9329116100a2578063f142a46f11610071578063f142a46f14610464578063f2fde38b14610477578063fc8107d71461048a578063fcd6a74b1461049d57600080fd5b8063c7eb93291461041d578063cc97d48c14610430578063dd3abd7714610443578063e259a5071461045157600080fd5b8063b9b508d1116100de578063b9b508d1146103bb578063c3eaadd9146103e2578063c3fcc14b146103f5578063c710b2481461040857600080fd5b80639e046ae51461036e578063a45ce1e414610380578063b5772fe614610393578063b5a9e8d0146103a557600080fd5b806354fd4d50116101875780637f806985116101565780637f8069851461030357806386770470146103295780638da5cb5b1461034a5780639c9a2b9d1461035b57600080fd5b806354fd4d5014610296578063636bc698146102bd578063715018a6146102d057806376904701146102d857600080fd5b806313afc340116101c357806313afc3401461024c5780631b2397da1461025e57806327847698146102715780633c266a1a1461028357600080fd5b8063064ce874146101f557806308ba23fb146102125780630a78b202146102245780630d32ecfb14610239575b600080fd5b6101fd6104af565b60405190151581526020015b60405180910390f35b600154600160501b900460ff166101fd565b610237610232366004612af4565b610528565b005b610237610247366004612b26565b6106a4565b600054600160e01b900460ff166101fd565b61023761026c366004612af4565b610811565b600054600160e81b900460ff166101fd565b610237610291366004612af4565b61088e565b60408051808201825260058152640312e312e360dc1b602082015290516102099190612b43565b6102376102cb366004612b92565b610a10565b610237610bdf565b6004546102eb906001600160a01b031681565b6040516001600160a01b039091168152602001610209565b600054600160c01b900463ffffffff165b60405163ffffffff9091168152602001610209565b61033c610337366004612bb8565b610bf3565b604051908152602001610209565b6000546001600160a01b03166102eb565b6003546102eb906001600160a01b031681565b600154600160581b900460ff166101fd565b61023761038e366004612b26565b610fde565b600154600160481b900460ff166101fd565b600154640100000000900463ffffffff16610314565b6102eb7f000000000000000000000000000000000000000000000000000000000000000081565b6102376103f0366004612af4565b61113b565b610237610403366004612b92565b6112bc565b600054600160a01b900463ffffffff16610314565b61023761042b366004612af4565b61147a565b61023761043e366004612af4565b6115da565b60015463ffffffff16610314565b61023761045f366004612b92565b611756565b610237610472366004612be4565b61191a565b610237610485366004612b26565b611ba5565b610237610498366004612b92565b611c20565b600154600160401b900460ff166101fd565b600154600090600160581b900460ff16806104d35750600054600160e01b900460ff165b806104e75750600054600160e81b900460ff165b806104fb5750600154600160401b900460ff165b8061050f5750600154600160501b900460ff165b806105235750600154600160481b900460ff165b905090565b7f00000000000000000000000000000000000000000000000000000000000000006001600160a01b038116610570576040516371724ffd60e01b815260040160405180910390fd5b806001600160a01b03811663d4a7db7f336040516001600160e01b031960e084901b1681526001600160a01b039091166004820152602401602060405180830381865afa1580156105c5573d6000803e3d6000fd5b505050506040513d601f19601f820116820180604052508101906105e99190612c8a565b61060657604051631acd860160e31b815260040160405180910390fd5b6001805484158015600160501b0260ff60501b1990921691909117909155610666576040517f4143435f4d41585f56414c55455f4f55545f4143434553535f4c4556454c000090600080516020612fd783398151915290600090a2505050565b6040517f4143435f4d41585f56414c55455f4f55545f4143434553535f4c4556454c000090600080516020612ff783398151915290600090a2505050565b7f00000000000000000000000000000000000000000000000000000000000000006001600160a01b0381166106ec576040516371724ffd60e01b815260040160405180910390fd5b806001600160a01b03811663d4a7db7f336040516001600160e01b031960e084901b1681526001600160a01b039091166004820152602401602060405180830381865afa158015610741573d6000803e3d6000fd5b505050506040513d601f19601f820116820180604052508101906107659190612c8a565b61078257604051631acd860160e31b815260040160405180910390fd5b6001600160a01b0383166107a95760405163d92e233d60e01b815260040160405180910390fd5b600380546001600160a01b0319166001600160a01b038516908117909155600180546bffffffffffffffffffffffff16600160601b83021790556040517f88da69b89525943a04b87e31ed06ced91c8251583fc2e63a2f6e24f157b5a30790600090a2505050565b610819611df5565b6001805482158015600160581b0260ff60581b1990921691909117909155610864576040516950415553455f52554c4560b01b90600080516020612fd783398151915290600090a250565b6040516950415553455f52554c4560b01b90600080516020612ff783398151915290600090a25b50565b7f00000000000000000000000000000000000000000000000000000000000000006001600160a01b0381166108d6576040516371724ffd60e01b815260040160405180910390fd5b806001600160a01b03811663d4a7db7f336040516001600160e01b031960e084901b1681526001600160a01b039091166004820152602401602060405180830381865afa15801561092b573d6000803e3d6000fd5b505050506040513d601f19601f8201168201806040525081019061094f9190612c8a565b61096c57604051631acd860160e31b815260040160405180910390fd5b6001805484158015600160481b0269ff00000000000000000019909216919091179091556109d2576040517f4143434f554e545f44454e595f464f525f4e4f5f4143434553535f4c4556454c90600080516020612fd783398151915290600090a2505050565b6040517f4143434f554e545f44454e595f464f525f4e4f5f4143434553535f4c4556454c90600080516020612ff783398151915290600090a2505050565b7f00000000000000000000000000000000000000000000000000000000000000006001600160a01b038116610a58576040516371724ffd60e01b815260040160405180910390fd5b806001600160a01b03811663d4a7db7f336040516001600160e01b031960e084901b1681526001600160a01b039091166004820152602401602060405180830381865afa158015610aad573d6000803e3d6000fd5b505050506040513d601f19601f82011682018060405250810190610ad19190612c8a565b610aee57604051631acd860160e31b815260040160405180910390fd5b60405163edc3189d60e01b815263ffffffff841660048201527f00000000000000000000000000000000000000000000000000000000000000006001600160a01b03169063edc3189d9060240160006040518083038186803b158015610b5357600080fd5b505afa158015610b67573d6000803e3d6000fd5b50506000805460ff60e81b1963ffffffff8816600160c01b81029190911665ff00ffffffff60c01b1990921691909117600160e81b1782556040519093507f4143435f4d41585f54585f56414c55455f42595f5249534b5f53434f524500009250600080516020612fb78339815191529190a3505050565b610be7611df5565b610bf16000611e4f565b565b6000807f00000000000000000000000000000000000000000000000000000000000000006001600160a01b031663273cbaa06040518163ffffffff1660e01b8152600401600060405180830381865afa158015610c54573d6000803e3d6000fd5b505050506040513d6000823e601f3d908101601f19168201604052610c7c9190810190612cc8565b905060006001600160a01b038516610c95575050610fd8565b60005b8251811015610fd457828181518110610cb357610cb3612d8d565b60209081029190910101516040516370a0823160e01b81526001600160a01b038881166004830152909116906370a0823190602401602060405180830381865afa158015610d05573d6000803e3d6000fd5b505050506040513d601f19601f82011682018060405250810190610d299190612da3565b91508115610fcc57828181518110610d4357610d43612d8d565b60209081029190910101516040516301ffc9a760e01b81526380ac58cd60e01b60048201526001600160a01b03909116906301ffc9a790602401602060405180830381865afa925050508015610db6575060408051601f3d908101601f19168201909252610db391810190612c8a565b60015b610e8d576000838281518110610dce57610dce612d8d565b60200260200101516001600160a01b031663313ce5676040518163ffffffff1660e01b8152600401602060405180830381865afa158015610e13573d6000803e3d6000fd5b505050506040513d601f19601f82011682018060405250810190610e379190612dbc565b9050610e4481600a612ed9565b83610e67868581518110610e5a57610e5a612d8d565b6020026020010151611e9f565b610e719190612ee8565b610e7b9190612eff565b610e859086612f21565b945050610fcc565b808015610e9a5750858310155b15610ed357610ec2848381518110610eb457610eb4612d8d565b602002602001015184611f65565b610ecc9086612f21565b9450610fca565b808015610edf57508583105b15610f0857610ec2848381518110610ef957610ef9612d8d565b60200260200101518885611ff8565b6000848381518110610f1c57610f1c612d8d565b60200260200101516001600160a01b031663313ce5676040518163ffffffff1660e01b8152600401602060405180830381865afa158015610f61573d6000803e3d6000fd5b505050506040513d601f19601f82011682018060405250810190610f859190612dbc565b9050610f9281600a612ed9565b84610fa8878681518110610e5a57610e5a612d8d565b610fb29190612ee8565b610fbc9190612eff565b610fc69087612f21565b9550505b505b600101610c98565b5050505b92915050565b7f00000000000000000000000000000000000000000000000000000000000000006001600160a01b038116611026576040516371724ffd60e01b815260040160405180910390fd5b806001600160a01b03811663d4a7db7f336040516001600160e01b031960e084901b1681526001600160a01b039091166004820152602401602060405180830381865afa15801561107b573d6000803e3d6000fd5b505050506040513d601f19601f8201168201806040525081019061109f9190612c8a565b6110bc57604051631acd860160e31b815260040160405180910390fd5b6001600160a01b0383166110e35760405163d92e233d60e01b815260040160405180910390fd5b600480546001600160a01b0385166001600160a01b0319918216811790925560028054909116821790556040517f9e243519850d05d4f0733b1b77b5b0d2d05dc0276827798a1755ecc9c659b23190600090a2505050565b7f00000000000000000000000000000000000000000000000000000000000000006001600160a01b038116611183576040516371724ffd60e01b815260040160405180910390fd5b806001600160a01b03811663d4a7db7f336040516001600160e01b031960e084901b1681526001600160a01b039091166004820152602401602060405180830381865afa1580156111d8573d6000803e3d6000fd5b505050506040513d601f19601f820116820180604052508101906111fc9190612c8a565b61121957604051631acd860160e31b815260040160405180910390fd5b6001805484158015600160401b0268ff0000000000000000199092169190911790915561127e576040517f4143435f4d41585f56414c55455f42595f4143434553535f4c4556454c00000090600080516020612fd783398151915290600090a2505050565b6040517f4143435f4d41585f56414c55455f42595f4143434553535f4c4556454c00000090600080516020612ff783398151915290600090a2505050565b7f00000000000000000000000000000000000000000000000000000000000000006001600160a01b038116611304576040516371724ffd60e01b815260040160405180910390fd5b806001600160a01b03811663d4a7db7f336040516001600160e01b031960e084901b1681526001600160a01b039091166004820152602401602060405180830381865afa158015611359573d6000803e3d6000fd5b505050506040513d601f19601f8201168201806040525081019061137d9190612c8a565b61139a57604051631acd860160e31b815260040160405180910390fd5b604051631896c37360e31b815263ffffffff841660048201527f00000000000000000000000000000000000000000000000000000000000000006001600160a01b03169063c4b61b989060240160006040518083038186803b1580156113ff57600080fd5b505afa158015611413573d6000803e3d6000fd5b50506001805468ff00000000ffffffff191663ffffffff8716908117600160401b179091556040519092507f4143435f4d41585f56414c55455f42595f4143434553535f4c4556454c0000009150600080516020612fb783398151915290600090a3505050565b7f00000000000000000000000000000000000000000000000000000000000000006001600160a01b0381166114c2576040516371724ffd60e01b815260040160405180910390fd5b806001600160a01b03811663d4a7db7f336040516001600160e01b031960e084901b1681526001600160a01b039091166004820152602401602060405180830381865afa158015611517573d6000803e3d6000fd5b505050506040513d601f19601f8201168201806040525081019061153b9190612c8a565b61155857604051631acd860160e31b815260040160405180910390fd5b6000805484158015600160e01b0260ff60e01b19909216919091179091556115aa576040516e42414c414e43455f42595f5249534b60881b90600080516020612fd783398151915290600090a2505050565b6040516e42414c414e43455f42595f5249534b60881b90600080516020612ff783398151915290600090a2505050565b7f00000000000000000000000000000000000000000000000000000000000000006001600160a01b038116611622576040516371724ffd60e01b815260040160405180910390fd5b806001600160a01b03811663d4a7db7f336040516001600160e01b031960e084901b1681526001600160a01b039091166004820152602401602060405180830381865afa158015611677573d6000803e3d6000fd5b505050506040513d601f19601f8201168201806040525081019061169b9190612c8a565b6116b857604051631acd860160e31b815260040160405180910390fd5b6000805484158015600160e81b0260ff60e81b1990921691909117909155611718576040517f4143435f4d41585f54585f56414c55455f42595f5249534b5f53434f5245000090600080516020612fd783398151915290600090a2505050565b6040517f4143435f4d41585f54585f56414c55455f42595f5249534b5f53434f5245000090600080516020612ff783398151915290600090a2505050565b7f00000000000000000000000000000000000000000000000000000000000000006001600160a01b03811661179e576040516371724ffd60e01b815260040160405180910390fd5b806001600160a01b03811663d4a7db7f336040516001600160e01b031960e084901b1681526001600160a01b039091166004820152602401602060405180830381865afa1580156117f3573d6000803e3d6000fd5b505050506040513d601f19601f820116820180604052508101906118179190612c8a565b61183457604051631acd860160e31b815260040160405180910390fd5b6040516306e0841960e11b815263ffffffff841660048201527f00000000000000000000000000000000000000000000000000000000000000006001600160a01b031690630dc108329060240160006040518083038186803b15801561189957600080fd5b505afa1580156118ad573d6000803e3d6000fd5b50506000805460ff60e01b1963ffffffff8816600160a01b81029190911668ff00000000ffffffff60a01b1990921691909117600160e01b1782556040519093506e42414c414e43455f42595f5249534b60881b9250600080516020612fb78339815191529190a3505050565b611922611df5565b60008060006001600b9054906101000a900460ff16156119d65760405163c42e62f560e01b81526001600160a01b037f0000000000000000000000000000000000000000000000000000000000000000811660048301527f0000000000000000000000000000000000000000000000000000000000000000169063c42e62f59060240160006040518083038186803b1580156119bd57600080fd5b505afa1580156119d1573d6000803e3d6000fd5b505050505b60008460018111156119ea576119ea612f34565b03611a98576119fa896000610bf3565b9250611a058b611e9f565b91508a6001600160a01b031663313ce5676040518163ffffffff1660e01b8152600401602060405180830381865afa158015611a45573d6000803e3d6000fd5b505050506040513d601f19601f82011682018060405250810190611a699190612dbc565b611a7490600a612ed9565b611a87896001600160801b038516612ee8565b611a919190612eff565b9050611b20565b611aa6898861ffff16610bf3565b60025460405163bc24179360e01b81526001600160a01b038e81166004830152602482018a905292955091169063bc24179390604401602060405180830381865afa158015611af9573d6000803e3d6000fd5b505050506040513d601f19601f82011682018060405250810190611b1d9190612da3565b90505b600154600160401b900460ff1680611b415750600154600160481b900460ff165b80611b555750600154600160501b900460ff165b15611b6657611b668a8a8584612121565b600054600160e01b900460ff1680611b875750600054600160e81b900460ff165b15611b9857611b988a8a858461267c565b5050505050505050505050565b611bad611df5565b6001600160a01b038116611c175760405162461bcd60e51b815260206004820152602660248201527f4f776e61626c653a206e6577206f776e657220697320746865207a65726f206160448201526564647265737360d01b60648201526084015b60405180910390fd5b61088b81611e4f565b7f00000000000000000000000000000000000000000000000000000000000000006001600160a01b038116611c68576040516371724ffd60e01b815260040160405180910390fd5b806001600160a01b03811663d4a7db7f336040516001600160e01b031960e084901b1681526001600160a01b039091166004820152602401602060405180830381865afa158015611cbd573d6000803e3d6000fd5b505050506040513d601f19601f82011682018060405250810190611ce19190612c8a565b611cfe57604051631acd860160e31b815260040160405180910390fd5b6040516331804e7160e11b815263ffffffff841660048201527f00000000000000000000000000000000000000000000000000000000000000006001600160a01b0316906363009ce29060240160006040518083038186803b158015611d6357600080fd5b505afa158015611d77573d6000803e3d6000fd5b50506001805460ff60501b1963ffffffff88166401000000008102919091166aff0000ffffffff000000001990921691909117600160501b179091556040519092507f4143435f4d41585f56414c55455f4f55545f4143434553535f4c4556454c00009150600080516020612fb783398151915290600090a3505050565b6000546001600160a01b03163314610bf15760405162461bcd60e51b815260206004820181905260248201527f4f776e61626c653a2063616c6c6572206973206e6f7420746865206f776e65726044820152606401611c0e565b600080546001600160a01b038381166001600160a01b0319831681178455604051919092169283917f8be0079c531659141344cd1fd0a4f28419497f9722a3daafe3b4186f6b6457e09190a35050565b6003546000906001600160a01b031615611f2957600154604051630681320d60e51b81526001600160a01b038481166004830152600160601b9092049091169063d02641a090602401602060405180830381865afa158015611f05573d6000803e3d6000fd5b505050506040513d601f19601f82011682018060405250810190610fd89190612da3565b60035460048054604051633bba1f2560e11b81526001600160a01b0393841692810192909252919091166024820152604401611c0e565b919050565b6004546000906001600160a01b031615611f29576002546040516305586d1560e41b81526001600160a01b03858116600483015290911690635586d15090602401602060405180830381865afa158015611fc3573d6000803e3d6000fd5b505050506040513d601f19601f82011682018060405250810190611fe79190612da3565b611ff19083612ee8565b9050610fd8565b6004546000906001600160a01b031615611f295760005b8281101561211857600254604051632f745c5960e01b81526001600160a01b038681166004830152602482018490529182169163bc241793918891821690632f745c5990604401602060405180830381865afa158015612073573d6000803e3d6000fd5b505050506040513d601f19601f820116820180604052508101906120979190612da3565b6040516001600160e01b031960e085901b1681526001600160a01b0390921660048301526024820152604401602060405180830381865afa1580156120e0573d6000803e3d6000fd5b505050506040513d601f19601f820116820180604052508101906121049190612da3565b61210e9083612f21565b915060010161200f565b505b9392505050565b6040516302de004560e51b81526001600160a01b0384811660048301526000917f000000000000000000000000000000000000000000000000000000000000000090911690635bc008a090602401602060405180830381865afa15801561218c573d6000803e3d6000fd5b505050506040513d601f19601f820116820180604052508101906121b09190612dbc565b6040516302de004560e51b81526001600160a01b0387811660048301529192506000917f00000000000000000000000000000000000000000000000000000000000000001690635bc008a090602401602060405180830381865afa15801561221c573d6000803e3d6000fd5b505050506040513d601f19601f820116820180604052508101906122409190612dbc565b600154909150600160481b900460ff1680156122e35750604051634d271a5d60e11b81526001600160a01b0387811660048301527f00000000000000000000000000000000000000000000000000000000000000001690639a4e34ba90602401602060405180830381865afa1580156122bd573d6000803e3d6000fd5b505050506040513d601f19601f820116820180604052508101906122e19190612c8a565b155b156123635760405163f5c2ce5960e01b815260ff821660048201527f00000000000000000000000000000000000000000000000000000000000000006001600160a01b03169063f5c2ce599060240160006040518083038186803b15801561234a57600080fd5b505afa15801561235e573d6000803e3d6000fd5b505050505b600154600160481b900460ff1680156124035750604051634d271a5d60e11b81526001600160a01b0386811660048301527f00000000000000000000000000000000000000000000000000000000000000001690639a4e34ba90602401602060405180830381865afa1580156123dd573d6000803e3d6000fd5b505050506040513d601f19601f820116820180604052508101906124019190612c8a565b155b801561241757506001600160a01b03851615155b156124975760405163f5c2ce5960e01b815260ff831660048201527f00000000000000000000000000000000000000000000000000000000000000006001600160a01b03169063f5c2ce599060240160006040518083038186803b15801561247e57600080fd5b505afa158015612492573d6000803e3d6000fd5b505050505b600154600160401b900460ff1680156124b857506001600160a01b03851615155b1561255f57600154604051630b89c48560e11b815263ffffffff909116600482015260ff831660248201526001600160801b038086166044830152841660648201527f00000000000000000000000000000000000000000000000000000000000000006001600160a01b031690631713890a9060840160006040518083038186803b15801561254657600080fd5b505afa15801561255a573d6000803e3d6000fd5b505050505b600154600160501b900460ff1615612674576001546001600160a01b038781166000908152600760205260409081902054905163bc8bace760e01b815264010000000090930463ffffffff16600484015260ff841660248401526001600160801b039081166044840152851660648301527f0000000000000000000000000000000000000000000000000000000000000000169063bc8bace790608401602060405180830381865afa158015612619573d6000803e3d6000fd5b505050506040513d601f19601f8201168201806040525081019061263d9190612f4a565b6001600160a01b038716600090815260076020526040902080546001600160801b0319166001600160801b03929092169190911790555b505050505050565b60405163dc08706d60e01b81526001600160a01b0384811660048301526000917f00000000000000000000000000000000000000000000000000000000000000009091169063dc08706d90602401602060405180830381865afa1580156126e7573d6000803e3d6000fd5b505050506040513d601f19601f8201168201806040525081019061270b9190612dbc565b60405163dc08706d60e01b81526001600160a01b0387811660048301529192506000917f0000000000000000000000000000000000000000000000000000000000000000169063dc08706d90602401602060405180830381865afa158015612777573d6000803e3d6000fd5b505050506040513d601f19601f8201168201806040525081019061279b9190612dbc565b600054909150600160e01b900460ff1615612860576000546040516308d8c47360e41b8152600160a01b90910463ffffffff1660048201526001600160a01b03868116602483015260ff841660448301526001600160801b038087166064840152851660848301527f00000000000000000000000000000000000000000000000000000000000000001690638d8c47309060a40160006040518083038186803b15801561284757600080fd5b505afa15801561285b573d6000803e3d6000fd5b505050505b600054600160e81b900460ff161561267457600080546001600160a01b03888116835260056020908152604080852054600690925293849020549351630369b6b160e51b81527f000000000000000000000000000000000000000000000000000000000000000090921693636d36d6209361290793600160c01b90910463ffffffff16926001600160801b031691899167ffffffffffffffff909116908890600401612f73565b602060405180830381865afa158015612924573d6000803e3d6000fd5b505050506040513d601f19601f820116820180604052508101906129489190612f4a565b6001600160a01b03878116600090815260056020526040902080546001600160801b0319166001600160801b039390931692909217909155851615612674576001600160a01b038681166000908152600660208181526040808420805467ffffffffffffffff19164267ffffffffffffffff9081169190911790915584548b8716865260058452828620549490935293819020549051630369b6b160e51b81527f000000000000000000000000000000000000000000000000000000000000000090951694636d36d62094612a3f94600160c01b90940463ffffffff16936001600160801b0316928a929116908990600401612f73565b602060405180830381865afa158015612a5c573d6000803e3d6000fd5b505050506040513d601f19601f82011682018060405250810190612a809190612f4a565b6001600160a01b038616600090815260056020908152604080832080546001600160801b03959095166001600160801b0319909516949094179093556006905220805467ffffffffffffffff421667ffffffffffffffff19909116179055505050505050565b801515811461088b57600080fd5b600060208284031215612b0657600080fd5b813561211a81612ae6565b6001600160a01b038116811461088b57600080fd5b600060208284031215612b3857600080fd5b813561211a81612b11565b60006020808352835180602085015260005b81811015612b7157858101830151858201604001528201612b55565b506000604082860101526040601f19601f8301168501019250505092915050565b600060208284031215612ba457600080fd5b813563ffffffff8116811461211a57600080fd5b60008060408385031215612bcb57600080fd5b8235612bd681612b11565b946020939093013593505050565b600080600080600080600080610100898b031215612c0157600080fd5b8835612c0c81612b11565b97506020890135612c1c81612b11565b96506040890135612c2c81612b11565b955060608901359450608089013561ffff81168114612c4a57600080fd5b935060a0890135925060c089013560058110612c6557600080fd5b915060e089013560028110612c7957600080fd5b809150509295985092959890939650565b600060208284031215612c9c57600080fd5b815161211a81612ae6565b634e487b7160e01b600052604160045260246000fd5b8051611f6081612b11565b60006020808385031215612cdb57600080fd5b825167ffffffffffffffff80821115612cf357600080fd5b818501915085601f830112612d0757600080fd5b815181811115612d1957612d19612ca7565b8060051b604051601f19603f83011681018181108582111715612d3e57612d3e612ca7565b604052918252848201925083810185019188831115612d5c57600080fd5b938501935b82851015612d8157612d7285612cbd565b84529385019392850192612d61565b98975050505050505050565b634e487b7160e01b600052603260045260246000fd5b600060208284031215612db557600080fd5b5051919050565b600060208284031215612dce57600080fd5b815160ff8116811461211a57600080fd5b634e487b7160e01b600052601160045260246000fd5b600181815b80851115612e30578160001904821115612e1657612e16612ddf565b80851615612e2357918102915b93841c9390800290612dfa565b509250929050565b600082612e4757506001610fd8565b81612e5457506000610fd8565b8160018114612e6a5760028114612e7457612e90565b6001915050610fd8565b60ff841115612e8557612e85612ddf565b50506001821b610fd8565b5060208310610133831016604e8410600b8410161715612eb3575081810a610fd8565b612ebd8383612df5565b8060001904821115612ed157612ed1612ddf565b029392505050565b600061211a60ff841683612e38565b8082028115828204841417610fd857610fd8612ddf565b600082612f1c57634e487b7160e01b600052601260045260246000fd5b500490565b80820180821115610fd857610fd8612ddf565b634e487b7160e01b600052602160045260246000fd5b600060208284031215612f5c57600080fd5b81516001600160801b038116811461211a57600080fd5b63ffffffff9590951685526001600160801b03938416602086015291909216604084015267ffffffffffffffff909116606083015260ff16608082015260a0019056fe4ce72d630297d64667efee2bbe9f25b92457ce9d55c34d790f65ecd80e834748cfc1921488a9473064606a90c937016f295e3cbdd06b7b0e92e981defb07be8105dc8955d9240629199d833c1086e83005ac2433304d0d51e8f65a248c6c6c24a2646970667358221220c19393202d96b9f7ee4f7e30bb089fd053cbe722b10cd32196dd662e20ef09f164736f6c63430008180033","linkReferences":{}},"methodIdentifiers":{"activateAccountDenyForNoAccessLevelRule(bool)":"3c266a1a","activateAccountMaxTxValueByRiskScore(bool)":"cc97d48c","activateAccountMaxValueByAccessLevel(bool)":"c3eaadd9","activateAccountMaxValueByRiskScore(bool)":"c7eb9329","activateAccountMaxValueOutByAccessLevel(bool)":"0a78b202","activatePauseRule(bool)":"1b2397da","appManagerAddress()":"b9b508d1","checkApplicationRules(address,address,address,uint256,uint16,uint256,uint8,uint8)":"f142a46f","erc20PricingAddress()":"9c9a2b9d","getAccTotalValuation(address,uint256)":"86770470","getAccountMaxTxValueByRiskScoreId()":"7f806985","getAccountMaxValueByAccessLevelId()":"dd3abd77","getAccountMaxValueByRiskScoreId()":"c710b248","getAccountMaxValueOutByAccessLevelId()":"b5a9e8d0","isAccountDenyForNoAccessLevelActive()":"b5772fe6","isAccountMaxTxValueByRiskScoreActive()":"27847698","isAccountMaxValueByAccessLevelActive()":"fcd6a74b","isAccountMaxValueByRiskScoreActive()":"13afc340","isAccountMaxValueOutByAccessLevelActive()":"08ba23fb","isPauseRuleActive()":"9e046ae5","nftPricingAddress()":"76904701","owner()":"8da5cb5b","renounceOwnership()":"715018a6","requireApplicationRulesChecked()":"064ce874","setAccountMaxTxValueByRiskScoreId(uint32)":"636bc698","setAccountMaxValueByAccessLevelId(uint32)":"c3fcc14b","setAccountMaxValueByRiskScoreId(uint32)":"e259a507","setAccountMaxValueOutByAccessLevelId(uint32)":"fc8107d7","setERC20PricingAddress(address)":"0d32ecfb","setNFTPricingAddress(address)":"a45ce1e4","transferOwnership(address)":"f2fde38b","version()":"54fd4d50"},"id":211}