{"abi":[{"type":"constructor","inputs":[],"stateMutability":"nonpayable"},{"type":"function","name":"approve","inputs":[{"name":"to","type":"address","internalType":"address"},{"name":"tokenId","type":"uint256","internalType":"uint256"}],"outputs":[],"stateMutability":"nonpayable"},{"type":"function","name":"balanceOf","inputs":[{"name":"owner","type":"address","internalType":"address"}],"outputs":[{"name":"","type":"uint256","internalType":"uint256"}],"stateMutability":"view"},{"type":"function","name":"baseUri","inputs":[],"outputs":[{"name":"","type":"string","internalType":"string"}],"stateMutability":"view"},{"type":"function","name":"burn","inputs":[{"name":"tokenId","type":"uint256","internalType":"uint256"}],"outputs":[],"stateMutability":"nonpayable"},{"type":"function","name":"confirmAppManagerAddress","inputs":[],"outputs":[],"stateMutability":"nonpayable"},{"type":"function","name":"connectHandlerToToken","inputs":[{"name":"_deployedHandlerAddress","type":"address","internalType":"address"}],"outputs":[],"stateMutability":"nonpayable"},{"type":"function","name":"getAppManagerAddress","inputs":[],"outputs":[{"name":"","type":"address","internalType":"address"}],"stateMutability":"view"},{"type":"function","name":"getApproved","inputs":[{"name":"tokenId","type":"uint256","internalType":"uint256"}],"outputs":[{"name":"","type":"address","internalType":"address"}],"stateMutability":"view"},{"type":"function","name":"getHandlerAddress","inputs":[],"outputs":[{"name":"","type":"address","internalType":"address"}],"stateMutability":"view"},{"type":"function","name":"handlerAddress","inputs":[],"outputs":[{"name":"","type":"address","internalType":"address"}],"stateMutability":"view"},{"type":"function","name":"initialize","inputs":[{"name":"_nameProto","type":"string","internalType":"string"},{"name":"_symbolProto","type":"string","internalType":"string"},{"name":"_appManagerAddress","type":"address","internalType":"address"},{"name":"_baseUri","type":"string","internalType":"string"}],"outputs":[],"stateMutability":"nonpayable"},{"type":"function","name":"isApprovedForAll","inputs":[{"name":"owner","type":"address","internalType":"address"},{"name":"operator","type":"address","internalType":"address"}],"outputs":[{"name":"","type":"bool","internalType":"bool"}],"stateMutability":"view"},{"type":"function","name":"name","inputs":[],"outputs":[{"name":"","type":"string","internalType":"string"}],"stateMutability":"view"},{"type":"function","name":"owner","inputs":[],"outputs":[{"name":"","type":"address","internalType":"address"}],"stateMutability":"view"},{"type":"function","name":"ownerOf","inputs":[{"name":"tokenId","type":"uint256","internalType":"uint256"}],"outputs":[{"name":"","type":"address","internalType":"address"}],"stateMutability":"view"},{"type":"function","name":"paused","inputs":[],"outputs":[{"name":"","type":"bool","internalType":"bool"}],"stateMutability":"view"},{"type":"function","name":"proposeAppManagerAddress","inputs":[{"name":"_newAppManagerAddress","type":"address","internalType":"address"}],"outputs":[],"stateMutability":"nonpayable"},{"type":"function","name":"proxiableUUID","inputs":[],"outputs":[{"name":"","type":"bytes32","internalType":"bytes32"}],"stateMutability":"view"},{"type":"function","name":"renounceOwnership","inputs":[],"outputs":[],"stateMutability":"nonpayable"},{"type":"function","name":"safeMint","inputs":[{"name":"to","type":"address","internalType":"address"}],"outputs":[],"stateMutability":"payable"},{"type":"function","name":"safeTransferFrom","inputs":[{"name":"from","type":"address","internalType":"address"},{"name":"to","type":"address","internalType":"address"},{"name":"tokenId","type":"uint256","internalType":"uint256"}],"outputs":[],"stateMutability":"nonpayable"},{"type":"function","name":"safeTransferFrom","inputs":[{"name":"from","type":"address","internalType":"address"},{"name":"to","type":"address","internalType":"address"},{"name":"tokenId","type":"uint256","internalType":"uint256"},{"name":"data","type":"bytes","internalType":"bytes"}],"outputs":[],"stateMutability":"nonpayable"},{"type":"function","name":"setApprovalForAll","inputs":[{"name":"operator","type":"address","internalType":"address"},{"name":"approved","type":"bool","internalType":"bool"}],"outputs":[],"stateMutability":"nonpayable"},{"type":"function","name":"setBaseURI","inputs":[{"name":"_baseUri","type":"string","internalType":"string"}],"outputs":[],"stateMutability":"nonpayable"},{"type":"function","name":"supportsInterface","inputs":[{"name":"interfaceId","type":"bytes4","internalType":"bytes4"}],"outputs":[{"name":"","type":"bool","internalType":"bool"}],"stateMutability":"view"},{"type":"function","name":"symbol","inputs":[],"outputs":[{"name":"","type":"string","internalType":"string"}],"stateMutability":"view"},{"type":"function","name":"tokenByIndex","inputs":[{"name":"index","type":"uint256","internalType":"uint256"}],"outputs":[{"name":"","type":"uint256","internalType":"uint256"}],"stateMutability":"view"},{"type":"function","name":"tokenOfOwnerByIndex","inputs":[{"name":"owner","type":"address","internalType":"address"},{"name":"index","type":"uint256","internalType":"uint256"}],"outputs":[{"name":"","type":"uint256","internalType":"uint256"}],"stateMutability":"view"},{"type":"function","name":"tokenURI","inputs":[{"name":"tokenId","type":"uint256","internalType":"uint256"}],"outputs":[{"name":"","type":"string","internalType":"string"}],"stateMutability":"view"},{"type":"function","name":"totalSupply","inputs":[],"outputs":[{"name":"","type":"uint256","internalType":"uint256"}],"stateMutability":"view"},{"type":"function","name":"transferFrom","inputs":[{"name":"from","type":"address","internalType":"address"},{"name":"to","type":"address","internalType":"address"},{"name":"tokenId","type":"uint256","internalType":"uint256"}],"outputs":[],"stateMutability":"nonpayable"},{"type":"function","name":"transferOwnership","inputs":[{"name":"newOwner","type":"address","internalType":"address"}],"outputs":[],"stateMutability":"nonpayable"},{"type":"function","name":"upgradeTo","inputs":[{"name":"newImplementation","type":"address","internalType":"address"}],"outputs":[],"stateMutability":"nonpayable"},{"type":"function","name":"upgradeToAndCall","inputs":[{"name":"newImplementation","type":"address","internalType":"address"},{"name":"data","type":"bytes","internalType":"bytes"}],"outputs":[],"stateMutability":"payable"},{"type":"function","name":"withdraw","inputs":[],"outputs":[],"stateMutability":"payable"},{"type":"event","name":"AD1467_AppManagerAddressSet","inputs":[{"name":"_address","type":"address","indexed":true,"internalType":"address"}],"anonymous":false},{"type":"event","name":"AD1467_CollectionPrice","inputs":[{"name":"collection","type":"address","indexed":true,"internalType":"address"},{"name":"price","type":"uint256","indexed":true,"internalType":"uint256"}],"anonymous":false},{"type":"event","name":"AD1467_FeeType","inputs":[{"name":"tag","type":"bytes32","indexed":true,"internalType":"bytes32"},{"name":"add","type":"bool","indexed":true,"internalType":"bool"},{"name":"minBalance","type":"uint256","indexed":false,"internalType":"uint256"},{"name":"maxBalance","type":"uint256","indexed":false,"internalType":"uint256"},{"name":"feePercentage","type":"int256","indexed":false,"internalType":"int256"},{"name":"targetAccount","type":"address","indexed":false,"internalType":"address"}],"anonymous":false},{"type":"event","name":"AD1467_HandlerConnected","inputs":[{"name":"handlerAddress","type":"address","indexed":true,"internalType":"address"},{"name":"assetAddress","type":"address","indexed":true,"internalType":"address"}],"anonymous":false},{"type":"event","name":"AD1467_NewNFTDeployed","inputs":[{"name":"appManagerAddress","type":"address","indexed":true,"internalType":"address"}],"anonymous":false},{"type":"event","name":"AD1467_NewTokenDeployed","inputs":[{"name":"appManagerAddress","type":"address","indexed":true,"internalType":"address"}],"anonymous":false},{"type":"event","name":"AD1467_SingleTokenPrice","inputs":[{"name":"collection","type":"address","indexed":true,"internalType":"address"},{"name":"tokenID","type":"uint256","indexed":true,"internalType":"uint256"},{"name":"price","type":"uint256","indexed":true,"internalType":"uint256"}],"anonymous":false},{"type":"event","name":"AD1467_TokenPrice","inputs":[{"name":"token","type":"address","indexed":true,"internalType":"address"},{"name":"price","type":"uint256","indexed":true,"internalType":"uint256"}],"anonymous":false},{"type":"event","name":"AdminChanged","inputs":[{"name":"previousAdmin","type":"address","indexed":false,"internalType":"address"},{"name":"newAdmin","type":"address","indexed":false,"internalType":"address"}],"anonymous":false},{"type":"event","name":"Approval","inputs":[{"name":"owner","type":"address","indexed":true,"internalType":"address"},{"name":"approved","type":"address","indexed":true,"internalType":"address"},{"name":"tokenId","type":"uint256","indexed":true,"internalType":"uint256"}],"anonymous":false},{"type":"event","name":"ApprovalForAll","inputs":[{"name":"owner","type":"address","indexed":true,"internalType":"address"},{"name":"operator","type":"address","indexed":true,"internalType":"address"},{"name":"approved","type":"bool","indexed":false,"internalType":"bool"}],"anonymous":false},{"type":"event","name":"BatchMetadataUpdate","inputs":[{"name":"_fromTokenId","type":"uint256","indexed":false,"internalType":"uint256"},{"name":"_toTokenId","type":"uint256","indexed":false,"internalType":"uint256"}],"anonymous":false},{"type":"event","name":"BeaconUpgraded","inputs":[{"name":"beacon","type":"address","indexed":true,"internalType":"address"}],"anonymous":false},{"type":"event","name":"Initialized","inputs":[{"name":"version","type":"uint8","indexed":false,"internalType":"uint8"}],"anonymous":false},{"type":"event","name":"MetadataUpdate","inputs":[{"name":"_tokenId","type":"uint256","indexed":false,"internalType":"uint256"}],"anonymous":false},{"type":"event","name":"OwnershipTransferred","inputs":[{"name":"previousOwner","type":"address","indexed":true,"internalType":"address"},{"name":"newOwner","type":"address","indexed":true,"internalType":"address"}],"anonymous":false},{"type":"event","name":"Paused","inputs":[{"name":"account","type":"address","indexed":false,"internalType":"address"}],"anonymous":false},{"type":"event","name":"Transfer","inputs":[{"name":"from","type":"address","indexed":true,"internalType":"address"},{"name":"to","type":"address","indexed":true,"internalType":"address"},{"name":"tokenId","type":"uint256","indexed":true,"internalType":"uint256"}],"anonymous":false},{"type":"event","name":"Unpaused","inputs":[{"name":"account","type":"address","indexed":false,"internalType":"address"}],"anonymous":false},{"type":"event","name":"Upgraded","inputs":[{"name":"implementation","type":"address","indexed":true,"internalType":"address"}],"anonymous":false},{"type":"error","name":"AppManagerNotConnected","inputs":[]},{"type":"error","name":"BelowMinAdminThreshold","inputs":[]},{"type":"error","name":"ConfirmerDoesNotMatchProposedAddress","inputs":[]},{"type":"error","name":"NoProposalHasBeenMade","inputs":[]},{"type":"error","name":"NotAppAdministrator","inputs":[]},{"type":"error","name":"NotAppAdministratorOrOwner","inputs":[]},{"type":"error","name":"NotRuleAdministrator","inputs":[]},{"type":"error","name":"NotSuperAdmin","inputs":[{"name":"","type":"address","internalType":"address"}]},{"type":"error","name":"ZeroAddress","inputs":[]}],"bytecode":{"object":"0x60a0604052306080523480156200001557600080fd5b5060016101f755620000266200002c565b620000ed565b600054610100900460ff1615620000995760405162461bcd60e51b815260206004820152602760248201527f496e697469616c697a61626c653a20636f6e747261637420697320696e697469604482015266616c697a696e6760c81b606482015260840160405180910390fd5b60005460ff90811614620000eb576000805460ff191660ff9081179091556040519081527f7f26b83ff96e1f2b6a682f133852f6798a09c465da95921460cefb38474024989060200160405180910390a15b565b6080516134b36200012560003960008181610a1a01528181610a5a01528181610d4601528181610d860152610eac01526134b36000f3fe6080604052600436106102045760003560e01c806355f804b31161011857806395d89b41116100a0578063c87b56dd1161006f578063c87b56dd14610599578063cdccb27a146105b9578063e6a07063146105ce578063e985e9c5146105ee578063f2fde38b1461063757600080fd5b806395d89b411461052f5780639abc832014610544578063a22cb46514610559578063b88d4fde1461057957600080fd5b80636fd7d970116100e75780636fd7d9701461049a57806370a08231146104bb578063715018a6146104db57806371af85e0146104f05780638da5cb5b1461051057600080fd5b806355f804b31461041b5780635c975abb1461043b5780636352211e1461045b5780636f9c83b81461047b57600080fd5b80633659cfe61161019b57806342966c681161016a57806342966c68146103945780634c330077146103b45780634f1ef286146103d35780634f6ccce7146103e657806352d1902d1461040657600080fd5b80633659cfe6146103395780633ccfd60b1461035957806340d097c31461036157806342842e0e1461037457600080fd5b806311280cb5116101d757806311280cb5146102ba57806318160ddd146102da57806323b872dd146102f95780632f745c591461031957600080fd5b806301ffc9a71461020957806306fdde031461023e578063081812fc14610260578063095ea7b314610298575b600080fd5b34801561021557600080fd5b50610229610224366004612c3e565b610657565b60405190151581526020015b60405180910390f35b34801561024a57600080fd5b50610253610668565b6040516102359190612cab565b34801561026c57600080fd5b5061028061027b366004612cbe565b6106fa565b6040516001600160a01b039091168152602001610235565b3480156102a457600080fd5b506102b86102b3366004612cf3565b610721565b005b3480156102c657600080fd5b506102b86102d5366004612d1d565b61083b565b3480156102e657600080fd5b506099545b604051908152602001610235565b34801561030557600080fd5b506102b8610314366004612d38565b610948565b34801561032557600080fd5b506102eb610334366004612cf3565b61097a565b34801561034557600080fd5b506102b8610354366004612d1d565b610a10565b6102b8610aef565b6102b861036f366004612d1d565b610c05565b34801561038057600080fd5b506102b861038f366004612d38565b610cf3565b3480156103a057600080fd5b506102b86103af366004612cbe565b610d0e565b3480156103c057600080fd5b506101c4546001600160a01b0316610280565b6102b86103e1366004612e17565b610d3c565b3480156103f257600080fd5b506102eb610401366004612cbe565b610e0c565b34801561041257600080fd5b506102eb610e9f565b34801561042757600080fd5b506102b8610436366004612e65565b610f52565b34801561044757600080fd5b506101c554600160a01b900460ff16610229565b34801561046757600080fd5b50610280610476366004612cbe565b611020565b34801561048757600080fd5b506101f8546001600160a01b0316610280565b3480156104a657600080fd5b506101f854610280906001600160a01b031681565b3480156104c757600080fd5b506102eb6104d6366004612d1d565b611080565b3480156104e757600080fd5b506102b8611106565b3480156104fc57600080fd5b506102b861050b366004612d1d565b61111a565b34801561051c57600080fd5b5061012d546001600160a01b0316610280565b34801561053b57600080fd5b5061025361125f565b34801561055057600080fd5b5061025361126e565b34801561056557600080fd5b506102b8610574366004612ea8565b6112fd565b34801561058557600080fd5b506102b8610594366004612edf565b611308565b3480156105a557600080fd5b506102536105b4366004612cbe565b61133a565b3480156105c557600080fd5b506102b8611345565b3480156105da57600080fd5b506102b86105e9366004612f47565b6113d2565b3480156105fa57600080fd5b50610229610609366004612fd4565b6001600160a01b039182166000908152606a6020908152604080832093909416825291909152205460ff1690565b34801561064357600080fd5b506102b8610652366004612d1d565b6115e3565b600061066282611659565b92915050565b60606065805461067790613007565b80601f01602080910402602001604051908101604052809291908181526020018280546106a390613007565b80156106f05780601f106106c5576101008083540402835291602001916106f0565b820191906000526020600020905b8154815290600101906020018083116106d357829003601f168201915b5050505050905090565b60006107058261167e565b506000908152606960205260409020546001600160a01b031690565b600061072c82611020565b9050806001600160a01b0316836001600160a01b03160361079e5760405162461bcd60e51b815260206004820152602160248201527f4552433732313a20617070726f76616c20746f2063757272656e74206f776e656044820152603960f91b60648201526084015b60405180910390fd5b336001600160a01b03821614806107ba57506107ba8133610609565b61082c5760405162461bcd60e51b815260206004820152603d60248201527f4552433732313a20617070726f76652063616c6c6572206973206e6f7420746f60448201527f6b656e206f776e6572206f7220617070726f76656420666f7220616c6c0000006064820152608401610795565b61083683836116dd565b505050565b6101c4546001600160a01b031680610866576040516371724ffd60e01b815260040160405180910390fd5b806001600160a01b03811663c3c2ebbb336040516001600160e01b031960e084901b1681526001600160a01b039091166004820152602401602060405180830381865afa1580156108bb573d6000803e3d6000fd5b505050506040513d601f19601f820116820180604052508101906108df9190613041565b6108fc5760405163ba80c9e560e01b815260040160405180910390fd5b6001600160a01b0383166109235760405163d92e233d60e01b815260040160405180910390fd5b50506101c380546001600160a01b0319166001600160a01b0392909216919091179055565b610953335b8261174b565b61096f5760405162461bcd60e51b81526004016107959061305e565b6108368383836117ca565b600061098583611080565b82106109e75760405162461bcd60e51b815260206004820152602b60248201527f455243373231456e756d657261626c653a206f776e657220696e646578206f7560448201526a74206f6620626f756e647360a81b6064820152608401610795565b506001600160a01b03919091166000908152609760209081526040808320938352929052205490565b6001600160a01b037f0000000000000000000000000000000000000000000000000000000000000000163003610a585760405162461bcd60e51b8152600401610795906130ab565b7f00000000000000000000000000000000000000000000000000000000000000006001600160a01b0316610aa1600080516020613437833981519152546001600160a01b031690565b6001600160a01b031614610ac75760405162461bcd60e51b8152600401610795906130f7565b610ad08161193b565b60408051600080825260208201909252610aec91839190611943565b50565b6101c4546001600160a01b031680610b1a576040516371724ffd60e01b815260040160405180910390fd5b806001600160a01b03811663c3c2ebbb336040516001600160e01b031960e084901b1681526001600160a01b039091166004820152602401602060405180830381865afa158015610b6f573d6000803e3d6000fd5b505050506040513d601f19601f82011682018060405250810190610b939190613041565b610bb05760405163ba80c9e560e01b815260040160405180910390fd5b604051600090339047908381818185875af1925050503d8060008114610bf2576040519150601f19603f3d011682016040523d82523d6000602084013e610bf7565b606091505b505090508061083657600080fd5b6101c4546001600160a01b031680610c30576040516371724ffd60e01b815260040160405180910390fd5b806001600160a01b03811663c3c2ebbb336040516001600160e01b031960e084901b1681526001600160a01b039091166004820152602401602060405180830381865afa158015610c85573d6000803e3d6000fd5b505050506040513d601f19601f82011682018060405250810190610ca99190613041565b610cc65760405163ba80c9e560e01b815260040160405180910390fd5b6000610cd26101fa5490565b9050610ce36101fa80546001019055565b610ced8482611aae565b50505050565b61083683838360405180602001604052806000815250611308565b610d173361094d565b610d335760405162461bcd60e51b81526004016107959061305e565b610aec81611ac8565b6001600160a01b037f0000000000000000000000000000000000000000000000000000000000000000163003610d845760405162461bcd60e51b8152600401610795906130ab565b7f00000000000000000000000000000000000000000000000000000000000000006001600160a01b0316610dcd600080516020613437833981519152546001600160a01b031690565b6001600160a01b031614610df35760405162461bcd60e51b8152600401610795906130f7565b610dfc8261193b565b610e0882826001611943565b5050565b6000610e1760995490565b8210610e7a5760405162461bcd60e51b815260206004820152602c60248201527f455243373231456e756d657261626c653a20676c6f62616c20696e646578206f60448201526b7574206f6620626f756e647360a01b6064820152608401610795565b60998281548110610e8d57610e8d613143565b90600052602060002001549050919050565b6000306001600160a01b037f00000000000000000000000000000000000000000000000000000000000000001614610f3f5760405162461bcd60e51b815260206004820152603860248201527f555550535570677261646561626c653a206d757374206e6f742062652063616c60448201527f6c6564207468726f7567682064656c656761746563616c6c00000000000000006064820152608401610795565b5060008051602061343783398151915290565b6101c4546001600160a01b031680610f7d576040516371724ffd60e01b815260040160405180910390fd5b806001600160a01b03811663c3c2ebbb336040516001600160e01b031960e084901b1681526001600160a01b039091166004820152602401602060405180830381865afa158015610fd2573d6000803e3d6000fd5b505050506040513d601f19601f82011682018060405250810190610ff69190613041565b6110135760405163ba80c9e560e01b815260040160405180910390fd5b6101fb610ced84826131a9565b6000818152606760205260408120546001600160a01b0316806106625760405162461bcd60e51b8152602060048201526018602482015277115490cdcc8c4e881a5b9d985b1a59081d1bdad95b88125160421b6044820152606401610795565b60006001600160a01b0382166110ea5760405162461bcd60e51b815260206004820152602960248201527f4552433732313a2061646472657373207a65726f206973206e6f7420612076616044820152683634b21037bbb732b960b91b6064820152608401610795565b506001600160a01b031660009081526068602052604090205490565b61110e611ad1565b6111186000611b2c565b565b6101c4546001600160a01b031680611145576040516371724ffd60e01b815260040160405180910390fd5b806001600160a01b03811663c3c2ebbb336040516001600160e01b031960e084901b1681526001600160a01b039091166004820152602401602060405180830381865afa15801561119a573d6000803e3d6000fd5b505050506040513d601f19601f820116820180604052508101906111be9190613041565b6111db5760405163ba80c9e560e01b815260040160405180910390fd5b6001600160a01b0383166112025760405163d92e233d60e01b815260040160405180910390fd5b6101f880546001600160a01b0385166001600160a01b031991821681179092556101f98054909116821790556040513091907f9a2cdaf1a28a88ccd359d6abc6a27d4856d16459aafb0aae34c1296bab5b63fb90600090a3505050565b60606066805461067790613007565b6101fb805461127c90613007565b80601f01602080910402602001604051908101604052809291908181526020018280546112a890613007565b80156112f55780601f106112ca576101008083540402835291602001916112f5565b820191906000526020600020905b8154815290600101906020018083116112d857829003601f168201915b505050505081565b610e08338383611b7f565b611312338361174b565b61132e5760405162461bcd60e51b81526004016107959061305e565b610ced84848484611c4d565b606061066282611c80565b6101c3546001600160a01b031661136f5760405163821e0eeb60e01b815260040160405180910390fd5b6101c3546001600160a01b0316331461139b57604051634128496760e01b815260040160405180910390fd5b6101c380546101c480546001600160a01b0383166001600160a01b031991821681179092556101c580548216909217909155169055565b816001600160a01b0381166113fa576040516371724ffd60e01b815260040160405180910390fd5b806001600160a01b03811663c3c2ebbb336040516001600160e01b031960e084901b1681526001600160a01b039091166004820152602401602060405180830381865afa15801561144f573d6000803e3d6000fd5b505050506040513d601f19601f820116820180604052508101906114739190613041565b6114905760405163ba80c9e560e01b815260040160405180910390fd5b600054610100900460ff16158080156114b05750600054600160ff909116105b806114ca5750303b1580156114ca575060005460ff166001145b61152d5760405162461bcd60e51b815260206004820152602e60248201527f496e697469616c697a61626c653a20636f6e747261637420697320616c72656160448201526d191e481a5b9a5d1a585b1a5e995960921b6064820152608401610795565b6000805460ff191660011790558015611550576000805461ff0019166101001790555b61155a8787611d7b565b611562611dac565b61156a611dac565b611572611dd3565b61157a611dac565b611582611e02565b61158b85611e31565b61159484610f52565b80156115da576000805461ff0019169055604051600181527f7f26b83ff96e1f2b6a682f133852f6798a09c465da95921460cefb38474024989060200160405180910390a15b50505050505050565b6115eb611ad1565b6001600160a01b0381166116505760405162461bcd60e51b815260206004820152602660248201527f4f776e61626c653a206e6577206f776e657220697320746865207a65726f206160448201526564647265737360d01b6064820152608401610795565b610aec81611b2c565b60006001600160e01b03198216632483248360e11b1480610662575061066282611eca565b6000818152606760205260409020546001600160a01b0316610aec5760405162461bcd60e51b8152602060048201526018602482015277115490cdcc8c4e881a5b9d985b1a59081d1bdad95b88125160421b6044820152606401610795565b600081815260696020526040902080546001600160a01b0319166001600160a01b038416908117909155819061171282611020565b6001600160a01b03167f8c5be1e5ebec7d5bd14f71427d1e84f3dd0314c0f7b2291e5b200ac8c7c3b92560405160405180910390a45050565b60008061175783611020565b9050806001600160a01b0316846001600160a01b0316148061179e57506001600160a01b038082166000908152606a602090815260408083209388168352929052205460ff165b806117c25750836001600160a01b03166117b7846106fa565b6001600160a01b0316145b949350505050565b826001600160a01b03166117dd82611020565b6001600160a01b0316146118035760405162461bcd60e51b815260040161079590613269565b6001600160a01b0382166118655760405162461bcd60e51b8152602060048201526024808201527f4552433732313a207472616e7366657220746f20746865207a65726f206164646044820152637265737360e01b6064820152608401610795565b6118728383836001611eef565b826001600160a01b031661188582611020565b6001600160a01b0316146118ab5760405162461bcd60e51b815260040161079590613269565b600081815260696020908152604080832080546001600160a01b03199081169091556001600160a01b0387811680865260688552838620805460001901905590871680865283862080546001019055868652606790945282852080549092168417909155905184937fddf252ad1be2c89b69c2b068fc378daa952ba7f163c4a11628f55a4df523b3ef91a4505050565b610aec611ad1565b7f4910fdfa16fed3260ed0e7147f7cc6da11a60208b5b9406d12a635614ffd91435460ff16156119765761083683611ff6565b826001600160a01b03166352d1902d6040518163ffffffff1660e01b8152600401602060405180830381865afa9250505080156119d0575060408051601f3d908101601f191682019092526119cd918101906132ae565b60015b611a335760405162461bcd60e51b815260206004820152602e60248201527f45524331393637557067726164653a206e657720696d706c656d656e7461746960448201526d6f6e206973206e6f74205555505360901b6064820152608401610795565b6000805160206134378339815191528114611aa25760405162461bcd60e51b815260206004820152602960248201527f45524331393637557067726164653a20756e737570706f727465642070726f786044820152681a58589b195555525160ba1b6064820152608401610795565b50610836838383612092565b610e088282604051806020016040528060008152506120b7565b610aec816120ea565b61012d546001600160a01b031633146111185760405162461bcd60e51b815260206004820181905260248201527f4f776e61626c653a2063616c6c6572206973206e6f7420746865206f776e65726044820152606401610795565b61012d80546001600160a01b038381166001600160a01b0319831681179093556040519116919082907f8be0079c531659141344cd1fd0a4f28419497f9722a3daafe3b4186f6b6457e090600090a35050565b816001600160a01b0316836001600160a01b031603611be05760405162461bcd60e51b815260206004820152601960248201527f4552433732313a20617070726f766520746f2063616c6c6572000000000000006044820152606401610795565b6001600160a01b038381166000818152606a6020908152604080832094871680845294825291829020805460ff191686151590811790915591519182527f17307eab39ab6107e8899845ad3d59bd9653f200f220920489ca2b5937696c31910160405180910390a3505050565b611c588484846117ca565b611c648484848461212a565b610ced5760405162461bcd60e51b8152600401610795906132c7565b6060611c8b8261167e565b600082815260c9602052604081208054611ca490613007565b80601f0160208091040260200160405190810160405280929190818152602001828054611cd090613007565b8015611d1d5780601f10611cf257610100808354040283529160200191611d1d565b820191906000526020600020905b815481529060010190602001808311611d0057829003601f168201915b505050505090506000611d2e61222b565b90508051600003611d40575092915050565b815115611d72578082604051602001611d5a929190613319565b60405160208183030381529060405292505050919050565b6117c28461223b565b600054610100900460ff16611da25760405162461bcd60e51b815260040161079590613348565b610e0882826122a2565b600054610100900460ff166111185760405162461bcd60e51b815260040161079590613348565b600054610100900460ff16611dfa5760405162461bcd60e51b815260040161079590613348565b6111186122e2565b600054610100900460ff16611e295760405162461bcd60e51b815260040161079590613348565b611118612312565b600054610100900460ff16611e585760405162461bcd60e51b815260040161079590613348565b6001600160a01b038116611e7f5760405163d92e233d60e01b815260040160405180910390fd5b6101c480546001600160a01b0319166001600160a01b0383169081179091556040517f72609421458389ee9c5f42d2ead41eecce3b39daf473d94de7f1ec1a9b593a0090600090a250565b60006001600160e01b0319821663780e9d6360e01b1480610662575061066282612349565b611ef7612399565b6101f9546001600160a01b039081169063e802b52390861615611f2257611f1d86611080565b611f25565b60005b6001600160a01b03861615611f4257611f3d86611080565b611f45565b60005b8787336040516001600160e01b031960e088901b168152600481019590955260248501939093526001600160a01b0391821660448501528116606484015216608482015260a4810185905260c4016020604051808303816000875af1158015611fb2573d6000803e3d6000fd5b505050506040513d601f19601f82011682018060405250810190611fd69190613041565b611fdf57600080fd5b611feb848484846123f4565b610ced60016101f755565b6001600160a01b0381163b6120635760405162461bcd60e51b815260206004820152602d60248201527f455243313936373a206e657720696d706c656d656e746174696f6e206973206e60448201526c1bdd08184818dbdb9d1c9858dd609a1b6064820152608401610795565b60008051602061343783398151915280546001600160a01b0319166001600160a01b0392909216919091179055565b61209b83612528565b6000825111806120a85750805b1561083657610ced8383612568565b6120c1838361258d565b6120ce600084848461212a565b6108365760405162461bcd60e51b8152600401610795906132c7565b6120f381612726565b600081815260c960205260409020805461210c90613007565b159050610aec57600081815260c960205260408120610aec91612bda565b60006001600160a01b0384163b1561222057604051630a85bd0160e11b81526001600160a01b0385169063150b7a029061216e903390899088908890600401613393565b6020604051808303816000875af19250505080156121a9575060408051601f3d908101601f191682019092526121a6918101906133c6565b60015b612206573d8080156121d7576040519150601f19603f3d011682016040523d82523d6000602084013e6121dc565b606091505b5080516000036121fe5760405162461bcd60e51b8152600401610795906132c7565b805181602001fd5b6001600160e01b031916630a85bd0160e11b1490506117c2565b506001949350505050565b60606101fb805461067790613007565b60606122468261167e565b600061225061222b565b90506000815111612270576040518060200160405280600081525061229b565b8061227a846127c9565b60405160200161228b929190613319565b6040516020818303038152906040525b9392505050565b600054610100900460ff166122c95760405162461bcd60e51b815260040161079590613348565b60656122d583826131a9565b50606661083682826131a9565b600054610100900460ff166123095760405162461bcd60e51b815260040161079590613348565b61111833611b2c565b600054610100900460ff166123395760405162461bcd60e51b815260040161079590613348565b6101c5805460ff60a01b19169055565b60006001600160e01b031982166380ac58cd60e01b148061237a57506001600160e01b03198216635b5e139f60e01b145b8061066257506301ffc9a760e01b6001600160e01b0319831614610662565b60026101f754036123ec5760405162461bcd60e51b815260206004820152601f60248201527f5265656e7472616e637947756172643a207265656e7472616e742063616c6c006044820152606401610795565b60026101f755565b60018111156124635760405162461bcd60e51b815260206004820152603560248201527f455243373231456e756d657261626c653a20636f6e7365637574697665207472604482015274185b9cd9995c9cc81b9bdd081cdd5c1c1bdc9d1959605a1b6064820152608401610795565b816001600160a01b0385166124bf576124ba81609980546000838152609a60205260408120829055600182018355919091527f72a152ddfb8e864297c917af52ea6c1c68aead0fee1a62673fcc7e0c94979d000155565b6124e2565b836001600160a01b0316856001600160a01b0316146124e2576124e2858261285c565b6001600160a01b0384166124fe576124f9816128f9565b612521565b846001600160a01b0316846001600160a01b0316146125215761252184826129a8565b5050505050565b61253181611ff6565b6040516001600160a01b038216907fbc7cd75a20ee27fd9adebab32041f755214dbc6bffa90cc0225b39da2e5c2d3b90600090a250565b606061229b8383604051806060016040528060278152602001613457602791396129ec565b6001600160a01b0382166125e35760405162461bcd60e51b815260206004820181905260248201527f4552433732313a206d696e7420746f20746865207a65726f20616464726573736044820152606401610795565b6000818152606760205260409020546001600160a01b0316156126485760405162461bcd60e51b815260206004820152601c60248201527f4552433732313a20746f6b656e20616c7265616479206d696e746564000000006044820152606401610795565b612656600083836001611eef565b6000818152606760205260409020546001600160a01b0316156126bb5760405162461bcd60e51b815260206004820152601c60248201527f4552433732313a20746f6b656e20616c7265616479206d696e746564000000006044820152606401610795565b6001600160a01b038216600081815260686020908152604080832080546001019055848352606790915280822080546001600160a01b0319168417905551839291907fddf252ad1be2c89b69c2b068fc378daa952ba7f163c4a11628f55a4df523b3ef908290a45050565b600061273182611020565b9050612741816000846001611eef565b61274a82611020565b600083815260696020908152604080832080546001600160a01b03199081169091556001600160a01b0385168085526068845282852080546000190190558785526067909352818420805490911690555192935084927fddf252ad1be2c89b69c2b068fc378daa952ba7f163c4a11628f55a4df523b3ef908390a45050565b606060006127d683612a64565b600101905060008167ffffffffffffffff8111156127f6576127f6612d74565b6040519080825280601f01601f191660200182016040528015612820576020820181803683370190505b5090508181016020015b600019016f181899199a1a9b1b9c1cb0b131b232b360811b600a86061a8153600a850494508461282a57509392505050565b6000600161286984611080565b61287391906133e3565b6000838152609860205260409020549091508082146128c6576001600160a01b03841660009081526097602090815260408083208584528252808320548484528184208190558352609890915290208190555b5060009182526098602090815260408084208490556001600160a01b039094168352609781528383209183525290812055565b60995460009061290b906001906133e3565b6000838152609a60205260408120546099805493945090928490811061293357612933613143565b90600052602060002001549050806099838154811061295457612954613143565b6000918252602080832090910192909255828152609a9091526040808220849055858252812055609980548061298c5761298c613404565b6001900381819060005260206000200160009055905550505050565b60006129b383611080565b6001600160a01b039093166000908152609760209081526040808320868452825280832085905593825260989052919091209190915550565b6060600080856001600160a01b031685604051612a09919061341a565b600060405180830381855af49150503d8060008114612a44576040519150601f19603f3d011682016040523d82523d6000602084013e612a49565b606091505b5091509150612a5a86838387612b3c565b9695505050505050565b60008072184f03e93ff9f4daa797ed6e38ed64bf6a1f0160401b8310612aa35772184f03e93ff9f4daa797ed6e38ed64bf6a1f0160401b830492506040015b6d04ee2d6d415b85acef81000000008310612acf576d04ee2d6d415b85acef8100000000830492506020015b662386f26fc100008310612aed57662386f26fc10000830492506010015b6305f5e1008310612b05576305f5e100830492506008015b6127108310612b1957612710830492506004015b60648310612b2b576064830492506002015b600a83106106625760010192915050565b60608315612bab578251600003612ba4576001600160a01b0385163b612ba45760405162461bcd60e51b815260206004820152601d60248201527f416464726573733a2063616c6c20746f206e6f6e2d636f6e74726163740000006044820152606401610795565b50816117c2565b6117c28383815115612bc05781518083602001fd5b8060405162461bcd60e51b81526004016107959190612cab565b508054612be690613007565b6000825580601f10612bf6575050565b601f016020900490600052602060002090810190610aec91905b80821115612c245760008155600101612c10565b5090565b6001600160e01b031981168114610aec57600080fd5b600060208284031215612c5057600080fd5b813561229b81612c28565b60005b83811015612c76578181015183820152602001612c5e565b50506000910152565b60008151808452612c97816020860160208601612c5b565b601f01601f19169290920160200192915050565b60208152600061229b6020830184612c7f565b600060208284031215612cd057600080fd5b5035919050565b80356001600160a01b0381168114612cee57600080fd5b919050565b60008060408385031215612d0657600080fd5b612d0f83612cd7565b946020939093013593505050565b600060208284031215612d2f57600080fd5b61229b82612cd7565b600080600060608486031215612d4d57600080fd5b612d5684612cd7565b9250612d6460208501612cd7565b9150604084013590509250925092565b634e487b7160e01b600052604160045260246000fd5b600082601f830112612d9b57600080fd5b813567ffffffffffffffff80821115612db657612db6612d74565b604051601f8301601f19908116603f01168101908282118183101715612dde57612dde612d74565b81604052838152866020858801011115612df757600080fd5b836020870160208301376000602085830101528094505050505092915050565b60008060408385031215612e2a57600080fd5b612e3383612cd7565b9150602083013567ffffffffffffffff811115612e4f57600080fd5b612e5b85828601612d8a565b9150509250929050565b600060208284031215612e7757600080fd5b813567ffffffffffffffff811115612e8e57600080fd5b6117c284828501612d8a565b8015158114610aec57600080fd5b60008060408385031215612ebb57600080fd5b612ec483612cd7565b91506020830135612ed481612e9a565b809150509250929050565b60008060008060808587031215612ef557600080fd5b612efe85612cd7565b9350612f0c60208601612cd7565b925060408501359150606085013567ffffffffffffffff811115612f2f57600080fd5b612f3b87828801612d8a565b91505092959194509250565b60008060008060808587031215612f5d57600080fd5b843567ffffffffffffffff80821115612f7557600080fd5b612f8188838901612d8a565b95506020870135915080821115612f9757600080fd5b612fa388838901612d8a565b9450612fb160408801612cd7565b93506060870135915080821115612fc757600080fd5b50612f3b87828801612d8a565b60008060408385031215612fe757600080fd5b612ff083612cd7565b9150612ffe60208401612cd7565b90509250929050565b600181811c9082168061301b57607f821691505b60208210810361303b57634e487b7160e01b600052602260045260246000fd5b50919050565b60006020828403121561305357600080fd5b815161229b81612e9a565b6020808252602d908201527f4552433732313a2063616c6c6572206973206e6f7420746f6b656e206f776e6560408201526c1c881bdc88185c1c1c9bdd9959609a1b606082015260800190565b6020808252602c908201527f46756e6374696f6e206d7573742062652063616c6c6564207468726f7567682060408201526b19195b1959d85d1958d85b1b60a21b606082015260800190565b6020808252602c908201527f46756e6374696f6e206d7573742062652063616c6c6564207468726f7567682060408201526b6163746976652070726f787960a01b606082015260800190565b634e487b7160e01b600052603260045260246000fd5b601f821115610836576000816000526020600020601f850160051c810160208610156131825750805b601f850160051c820191505b818110156131a15782815560010161318e565b505050505050565b815167ffffffffffffffff8111156131c3576131c3612d74565b6131d7816131d18454613007565b84613159565b602080601f83116001811461320c57600084156131f45750858301515b600019600386901b1c1916600185901b1785556131a1565b600085815260208120601f198616915b8281101561323b5788860151825594840194600190910190840161321c565b50858210156132595787850151600019600388901b60f8161c191681555b5050505050600190811b01905550565b60208082526025908201527f4552433732313a207472616e736665722066726f6d20696e636f72726563742060408201526437bbb732b960d91b606082015260800190565b6000602082840312156132c057600080fd5b5051919050565b60208082526032908201527f4552433732313a207472616e7366657220746f206e6f6e20455243373231526560408201527131b2b4bb32b91034b6b83632b6b2b73a32b960711b606082015260800190565b6000835161332b818460208801612c5b565b83519083019061333f818360208801612c5b565b01949350505050565b6020808252602b908201527f496e697469616c697a61626c653a20636f6e7472616374206973206e6f74206960408201526a6e697469616c697a696e6760a81b606082015260800190565b6001600160a01b0385811682528416602082015260408101839052608060608201819052600090612a5a90830184612c7f565b6000602082840312156133d857600080fd5b815161229b81612c28565b8181038181111561066257634e487b7160e01b600052601160045260246000fd5b634e487b7160e01b600052603160045260246000fd5b6000825161342c818460208701612c5b565b919091019291505056fe360894a13ba1a3210667c828492db98dca3e2076cc3735a920a3ca505d382bbc416464726573733a206c6f772d6c6576656c2064656c65676174652063616c6c206661696c6564a2646970667358221220f825a366708b2b6ce95fe4285e320cfb6694d4ca6b53d6d6c887fff862799f8364736f6c63430008180033","linkReferences":{}},"methodIdentifiers":{"approve(address,uint256)":"095ea7b3","balanceOf(address)":"70a08231","baseUri()":"9abc8320","burn(uint256)":"42966c68","confirmAppManagerAddress()":"cdccb27a","connectHandlerToToken(address)":"71af85e0","getAppManagerAddress()":"4c330077","getApproved(uint256)":"081812fc","getHandlerAddress()":"6f9c83b8","handlerAddress()":"6fd7d970","initialize(string,string,address,string)":"e6a07063","isApprovedForAll(address,address)":"e985e9c5","name()":"06fdde03","owner()":"8da5cb5b","ownerOf(uint256)":"6352211e","paused()":"5c975abb","proposeAppManagerAddress(address)":"11280cb5","proxiableUUID()":"52d1902d","renounceOwnership()":"715018a6","safeMint(address)":"40d097c3","safeTransferFrom(address,address,uint256)":"42842e0e","safeTransferFrom(address,address,uint256,bytes)":"b88d4fde","setApprovalForAll(address,bool)":"a22cb465","setBaseURI(string)":"55f804b3","supportsInterface(bytes4)":"01ffc9a7","symbol()":"95d89b41","tokenByIndex(uint256)":"4f6ccce7","tokenOfOwnerByIndex(address,uint256)":"2f745c59","tokenURI(uint256)":"c87b56dd","totalSupply()":"18160ddd","transferFrom(address,address,uint256)":"23b872dd","transferOwnership(address)":"f2fde38b","upgradeTo(address)":"3659cfe6","upgradeToAndCall(address,bytes)":"4f1ef286","withdraw()":"3ccfd60b"},"id":154}