{"abi":[{"type":"function","name":"approve","inputs":[{"name":"to","type":"address","internalType":"address"},{"name":"tokenId","type":"uint256","internalType":"uint256"}],"outputs":[],"stateMutability":"nonpayable"},{"type":"function","name":"balanceOf","inputs":[{"name":"owner","type":"address","internalType":"address"}],"outputs":[{"name":"","type":"uint256","internalType":"uint256"}],"stateMutability":"view"},{"type":"function","name":"baseUri","inputs":[],"outputs":[{"name":"","type":"string","internalType":"string"}],"stateMutability":"view"},{"type":"function","name":"burn","inputs":[{"name":"tokenId","type":"uint256","internalType":"uint256"}],"outputs":[],"stateMutability":"nonpayable"},{"type":"function","name":"confirmAppManagerAddress","inputs":[],"outputs":[],"stateMutability":"nonpayable"},{"type":"function","name":"connectHandlerToToken","inputs":[{"name":"_deployedHandlerAddress","type":"address","internalType":"address"}],"outputs":[],"stateMutability":"nonpayable"},{"type":"function","name":"getAppManagerAddress","inputs":[],"outputs":[{"name":"","type":"address","internalType":"address"}],"stateMutability":"view"},{"type":"function","name":"getApproved","inputs":[{"name":"tokenId","type":"uint256","internalType":"uint256"}],"outputs":[{"name":"","type":"address","internalType":"address"}],"stateMutability":"view"},{"type":"function","name":"getHandlerAddress","inputs":[],"outputs":[{"name":"","type":"address","internalType":"address"}],"stateMutability":"view"},{"type":"function","name":"getTestVariable1","inputs":[],"outputs":[{"name":"","type":"uint256","internalType":"uint256"}],"stateMutability":"view"},{"type":"function","name":"getTestVariable2","inputs":[],"outputs":[{"name":"","type":"string","internalType":"string"}],"stateMutability":"view"},{"type":"function","name":"handlerAddress","inputs":[],"outputs":[{"name":"","type":"address","internalType":"address"}],"stateMutability":"view"},{"type":"function","name":"initialize","inputs":[{"name":"_name","type":"string","internalType":"string"},{"name":"_symbol","type":"string","internalType":"string"},{"name":"_appManagerAddress","type":"address","internalType":"address"}],"outputs":[],"stateMutability":"nonpayable"},{"type":"function","name":"isApprovedForAll","inputs":[{"name":"owner","type":"address","internalType":"address"},{"name":"operator","type":"address","internalType":"address"}],"outputs":[{"name":"","type":"bool","internalType":"bool"}],"stateMutability":"view"},{"type":"function","name":"name","inputs":[],"outputs":[{"name":"","type":"string","internalType":"string"}],"stateMutability":"view"},{"type":"function","name":"owner","inputs":[],"outputs":[{"name":"","type":"address","internalType":"address"}],"stateMutability":"view"},{"type":"function","name":"ownerOf","inputs":[{"name":"tokenId","type":"uint256","internalType":"uint256"}],"outputs":[{"name":"","type":"address","internalType":"address"}],"stateMutability":"view"},{"type":"function","name":"paused","inputs":[],"outputs":[{"name":"","type":"bool","internalType":"bool"}],"stateMutability":"view"},{"type":"function","name":"proposeAppManagerAddress","inputs":[{"name":"_newAppManagerAddress","type":"address","internalType":"address"}],"outputs":[],"stateMutability":"nonpayable"},{"type":"function","name":"proxiableUUID","inputs":[],"outputs":[{"name":"","type":"bytes32","internalType":"bytes32"}],"stateMutability":"view"},{"type":"function","name":"renounceOwnership","inputs":[],"outputs":[],"stateMutability":"nonpayable"},{"type":"function","name":"safeMint","inputs":[{"name":"to","type":"address","internalType":"address"}],"outputs":[],"stateMutability":"payable"},{"type":"function","name":"safeTransferFrom","inputs":[{"name":"from","type":"address","internalType":"address"},{"name":"to","type":"address","internalType":"address"},{"name":"tokenId","type":"uint256","internalType":"uint256"}],"outputs":[],"stateMutability":"nonpayable"},{"type":"function","name":"safeTransferFrom","inputs":[{"name":"from","type":"address","internalType":"address"},{"name":"to","type":"address","internalType":"address"},{"name":"tokenId","type":"uint256","internalType":"uint256"},{"name":"data","type":"bytes","internalType":"bytes"}],"outputs":[],"stateMutability":"nonpayable"},{"type":"function","name":"setApprovalForAll","inputs":[{"name":"operator","type":"address","internalType":"address"},{"name":"approved","type":"bool","internalType":"bool"}],"outputs":[],"stateMutability":"nonpayable"},{"type":"function","name":"setBaseURI","inputs":[{"name":"_baseUri","type":"string","internalType":"string"}],"outputs":[],"stateMutability":"nonpayable"},{"type":"function","name":"setTestVariable1","inputs":[{"name":"_value","type":"uint256","internalType":"uint256"}],"outputs":[],"stateMutability":"nonpayable"},{"type":"function","name":"setTestVariable2","inputs":[{"name":"_value","type":"string","internalType":"string"}],"outputs":[],"stateMutability":"nonpayable"},{"type":"function","name":"supportsInterface","inputs":[{"name":"interfaceId","type":"bytes4","internalType":"bytes4"}],"outputs":[{"name":"","type":"bool","internalType":"bool"}],"stateMutability":"view"},{"type":"function","name":"symbol","inputs":[],"outputs":[{"name":"","type":"string","internalType":"string"}],"stateMutability":"view"},{"type":"function","name":"tokenByIndex","inputs":[{"name":"index","type":"uint256","internalType":"uint256"}],"outputs":[{"name":"","type":"uint256","internalType":"uint256"}],"stateMutability":"view"},{"type":"function","name":"tokenOfOwnerByIndex","inputs":[{"name":"owner","type":"address","internalType":"address"},{"name":"index","type":"uint256","internalType":"uint256"}],"outputs":[{"name":"","type":"uint256","internalType":"uint256"}],"stateMutability":"view"},{"type":"function","name":"tokenURI","inputs":[{"name":"tokenId","type":"uint256","internalType":"uint256"}],"outputs":[{"name":"","type":"string","internalType":"string"}],"stateMutability":"view"},{"type":"function","name":"totalSupply","inputs":[],"outputs":[{"name":"","type":"uint256","internalType":"uint256"}],"stateMutability":"view"},{"type":"function","name":"transferFrom","inputs":[{"name":"from","type":"address","internalType":"address"},{"name":"to","type":"address","internalType":"address"},{"name":"tokenId","type":"uint256","internalType":"uint256"}],"outputs":[],"stateMutability":"nonpayable"},{"type":"function","name":"transferOwnership","inputs":[{"name":"newOwner","type":"address","internalType":"address"}],"outputs":[],"stateMutability":"nonpayable"},{"type":"function","name":"upgradeTo","inputs":[{"name":"newImplementation","type":"address","internalType":"address"}],"outputs":[],"stateMutability":"nonpayable"},{"type":"function","name":"upgradeToAndCall","inputs":[{"name":"newImplementation","type":"address","internalType":"address"},{"name":"data","type":"bytes","internalType":"bytes"}],"outputs":[],"stateMutability":"payable"},{"type":"function","name":"withdraw","inputs":[],"outputs":[],"stateMutability":"payable"},{"type":"event","name":"AD1467_AppManagerAddressSet","inputs":[{"name":"_address","type":"address","indexed":true,"internalType":"address"}],"anonymous":false},{"type":"event","name":"AD1467_CollectionPrice","inputs":[{"name":"collection","type":"address","indexed":true,"internalType":"address"},{"name":"price","type":"uint256","indexed":true,"internalType":"uint256"}],"anonymous":false},{"type":"event","name":"AD1467_FeeType","inputs":[{"name":"tag","type":"bytes32","indexed":true,"internalType":"bytes32"},{"name":"add","type":"bool","indexed":true,"internalType":"bool"},{"name":"minBalance","type":"uint256","indexed":false,"internalType":"uint256"},{"name":"maxBalance","type":"uint256","indexed":false,"internalType":"uint256"},{"name":"feePercentage","type":"int256","indexed":false,"internalType":"int256"},{"name":"targetAccount","type":"address","indexed":false,"internalType":"address"}],"anonymous":false},{"type":"event","name":"AD1467_HandlerConnected","inputs":[{"name":"handlerAddress","type":"address","indexed":true,"internalType":"address"},{"name":"assetAddress","type":"address","indexed":true,"internalType":"address"}],"anonymous":false},{"type":"event","name":"AD1467_NewNFTDeployed","inputs":[{"name":"appManagerAddress","type":"address","indexed":true,"internalType":"address"}],"anonymous":false},{"type":"event","name":"AD1467_NewTokenDeployed","inputs":[{"name":"appManagerAddress","type":"address","indexed":true,"internalType":"address"}],"anonymous":false},{"type":"event","name":"AD1467_SingleTokenPrice","inputs":[{"name":"collection","type":"address","indexed":true,"internalType":"address"},{"name":"tokenID","type":"uint256","indexed":true,"internalType":"uint256"},{"name":"price","type":"uint256","indexed":true,"internalType":"uint256"}],"anonymous":false},{"type":"event","name":"AD1467_TokenPrice","inputs":[{"name":"token","type":"address","indexed":true,"internalType":"address"},{"name":"price","type":"uint256","indexed":true,"internalType":"uint256"}],"anonymous":false},{"type":"event","name":"AdminChanged","inputs":[{"name":"previousAdmin","type":"address","indexed":false,"internalType":"address"},{"name":"newAdmin","type":"address","indexed":false,"internalType":"address"}],"anonymous":false},{"type":"event","name":"Approval","inputs":[{"name":"owner","type":"address","indexed":true,"internalType":"address"},{"name":"approved","type":"address","indexed":true,"internalType":"address"},{"name":"tokenId","type":"uint256","indexed":true,"internalType":"uint256"}],"anonymous":false},{"type":"event","name":"ApprovalForAll","inputs":[{"name":"owner","type":"address","indexed":true,"internalType":"address"},{"name":"operator","type":"address","indexed":true,"internalType":"address"},{"name":"approved","type":"bool","indexed":false,"internalType":"bool"}],"anonymous":false},{"type":"event","name":"BatchMetadataUpdate","inputs":[{"name":"_fromTokenId","type":"uint256","indexed":false,"internalType":"uint256"},{"name":"_toTokenId","type":"uint256","indexed":false,"internalType":"uint256"}],"anonymous":false},{"type":"event","name":"BeaconUpgraded","inputs":[{"name":"beacon","type":"address","indexed":true,"internalType":"address"}],"anonymous":false},{"type":"event","name":"Initialized","inputs":[{"name":"version","type":"uint8","indexed":false,"internalType":"uint8"}],"anonymous":false},{"type":"event","name":"MetadataUpdate","inputs":[{"name":"_tokenId","type":"uint256","indexed":false,"internalType":"uint256"}],"anonymous":false},{"type":"event","name":"OwnershipTransferred","inputs":[{"name":"previousOwner","type":"address","indexed":true,"internalType":"address"},{"name":"newOwner","type":"address","indexed":true,"internalType":"address"}],"anonymous":false},{"type":"event","name":"Paused","inputs":[{"name":"account","type":"address","indexed":false,"internalType":"address"}],"anonymous":false},{"type":"event","name":"Transfer","inputs":[{"name":"from","type":"address","indexed":true,"internalType":"address"},{"name":"to","type":"address","indexed":true,"internalType":"address"},{"name":"tokenId","type":"uint256","indexed":true,"internalType":"uint256"}],"anonymous":false},{"type":"event","name":"Unpaused","inputs":[{"name":"account","type":"address","indexed":false,"internalType":"address"}],"anonymous":false},{"type":"event","name":"Upgraded","inputs":[{"name":"implementation","type":"address","indexed":true,"internalType":"address"}],"anonymous":false},{"type":"error","name":"AppManagerNotConnected","inputs":[]},{"type":"error","name":"BelowMinAdminThreshold","inputs":[]},{"type":"error","name":"ConfirmerDoesNotMatchProposedAddress","inputs":[]},{"type":"error","name":"NoProposalHasBeenMade","inputs":[]},{"type":"error","name":"NotAppAdministrator","inputs":[]},{"type":"error","name":"NotAppAdministratorOrOwner","inputs":[]},{"type":"error","name":"NotRuleAdministrator","inputs":[]},{"type":"error","name":"NotSuperAdmin","inputs":[{"name":"","type":"address","internalType":"address"}]},{"type":"error","name":"OnlyOwnerCanMint","inputs":[]},{"type":"error","name":"ZeroAddress","inputs":[]}],"bytecode":{"object":"0x60a06040523060805234801561001457600080fd5b5060805161340e61004c60003960008181610cca01528181610d0a01528181610f2f01528181610f6f0152611091015261340e6000f3fe6080604052600436106102305760003560e01c806355f804b31161012e5780638da5cb5b116100ab578063c87b56dd1161006f578063c87b56dd1461063b578063caddbab81461065b578063cdccb27a14610671578063e985e9c514610686578063f2fde38b146106cf57600080fd5b80638da5cb5b146105b257806395d89b41146105d15780639abc8320146105e6578063a22cb465146105fb578063b88d4fde1461061b57600080fd5b80636fd7d970116100f25780636fd7d9701461051b57806370a082311461053c578063715018a61461055c57806371af85e01461057157806381fefd881461059157600080fd5b806355f804b314610487578063573cede8146104a75780635c975abb146104bc5780636352211e146104dc5780636f9c83b8146104fc57600080fd5b80632f745c59116101bc57806342966c681161018057806342966c68146104005780634c330077146104205780634f1ef2861461043f5780634f6ccce71461045257806352d1902d1461047257600080fd5b80632f745c59146103855780633659cfe6146103a55780633ccfd60b146103c557806340d097c3146103cd57806342842e0e146103e057600080fd5b8063095ea7b311610203578063095ea7b3146102e657806311280cb51461030657806318160ddd14610326578063211abd0c1461034557806323b872dd1461036557600080fd5b806301ffc9a71461023557806306fdde031461026a578063077f224a1461028c578063081812fc146102ae575b600080fd5b34801561024157600080fd5b50610255610250366004612bba565b6106ef565b60405190151581526020015b60405180910390f35b34801561027657600080fd5b5061027f610700565b6040516102619190612c27565b34801561029857600080fd5b506102ac6102a7366004612cf9565b610792565b005b3480156102ba57600080fd5b506102ce6102c9366004612d6d565b61099e565b6040516001600160a01b039091168152602001610261565b3480156102f257600080fd5b506102ac610301366004612d86565b6109c5565b34801561031257600080fd5b506102ac610321366004612db0565b610ada565b34801561033257600080fd5b506099545b604051908152602001610261565b34801561035157600080fd5b506102ac610360366004612dcb565b610be7565b34801561037157600080fd5b506102ac610380366004612e00565b610bf8565b34801561039157600080fd5b506103376103a0366004612d86565b610c2a565b3480156103b157600080fd5b506102ac6103c0366004612db0565b610cc0565b6102ac610d9f565b6102ac6103db366004612db0565b610eb5565b3480156103ec57600080fd5b506102ac6103fb366004612e00565b610edc565b34801561040c57600080fd5b506102ac61041b366004612d6d565b610ef7565b34801561042c57600080fd5b506101c4546001600160a01b03166102ce565b6102ac61044d366004612e3c565b610f25565b34801561045e57600080fd5b5061033761046d366004612d6d565b610ff1565b34801561047e57600080fd5b50610337611084565b34801561049357600080fd5b506102ac6104a2366004612dcb565b611137565b3480156104b357600080fd5b5061027f61120b565b3480156104c857600080fd5b506101c554600160a01b900460ff16610255565b3480156104e857600080fd5b506102ce6104f7366004612d6d565b61121b565b34801561050857600080fd5b506101f7546001600160a01b03166102ce565b34801561052757600080fd5b506101f7546102ce906001600160a01b031681565b34801561054857600080fd5b50610337610557366004612db0565b61127b565b34801561056857600080fd5b506102ac611301565b34801561057d57600080fd5b506102ac61058c366004612db0565b611315565b34801561059d57600080fd5b506102ac6105ac366004612d6d565b61022c55565b3480156105be57600080fd5b5061012d546001600160a01b03166102ce565b3480156105dd57600080fd5b5061027f61145a565b3480156105f257600080fd5b5061027f611469565b34801561060757600080fd5b506102ac610616366004612e98565b6114f8565b34801561062757600080fd5b506102ac610636366004612ecf565b611503565b34801561064757600080fd5b5061027f610656366004612d6d565b611535565b34801561066757600080fd5b5061022c54610337565b34801561067d57600080fd5b506102ac611540565b34801561069257600080fd5b506102556106a1366004612f37565b6001600160a01b039182166000908152606a6020908152604080832093909416825291909152205460ff1690565b3480156106db57600080fd5b506102ac6106ea366004612db0565b6115cd565b60006106fa82611643565b92915050565b60606065805461070f90612f6a565b80601f016020809104026020016040519081016040528092919081815260200182805461073b90612f6a565b80156107885780601f1061075d57610100808354040283529160200191610788565b820191906000526020600020905b81548152906001019060200180831161076b57829003601f168201915b5050505050905090565b806001600160a01b0381166107ba576040516371724ffd60e01b815260040160405180910390fd5b806001600160a01b03811663c3c2ebbb336040516001600160e01b031960e084901b1681526001600160a01b039091166004820152602401602060405180830381865afa15801561080f573d6000803e3d6000fd5b505050506040513d601f19601f820116820180604052508101906108339190612fa4565b6108505760405163ba80c9e560e01b815260040160405180910390fd5b600054610100900460ff16158080156108705750600054600160ff909116105b8061088a5750303b15801561088a575060005460ff166001145b6108f25760405162461bcd60e51b815260206004820152602e60248201527f496e697469616c697a61626c653a20636f6e747261637420697320616c72656160448201526d191e481a5b9a5d1a585b1a5e995960921b60648201526084015b60405180910390fd5b6000805460ff191660011790558015610915576000805461ff0019166101001790555b61091f8686611668565b610927611699565b61092f611699565b6109376116c0565b61093f611699565b6109476116ef565b6109508461171e565b8015610996576000805461ff0019169055604051600181527f7f26b83ff96e1f2b6a682f133852f6798a09c465da95921460cefb38474024989060200160405180910390a15b505050505050565b60006109a9826117b7565b506000908152606960205260409020546001600160a01b031690565b60006109d08261121b565b9050806001600160a01b0316836001600160a01b031603610a3d5760405162461bcd60e51b815260206004820152602160248201527f4552433732313a20617070726f76616c20746f2063757272656e74206f776e656044820152603960f91b60648201526084016108e9565b336001600160a01b0382161480610a595750610a5981336106a1565b610acb5760405162461bcd60e51b815260206004820152603d60248201527f4552433732313a20617070726f76652063616c6c6572206973206e6f7420746f60448201527f6b656e206f776e6572206f7220617070726f76656420666f7220616c6c00000060648201526084016108e9565b610ad58383611816565b505050565b6101c4546001600160a01b031680610b05576040516371724ffd60e01b815260040160405180910390fd5b806001600160a01b03811663c3c2ebbb336040516001600160e01b031960e084901b1681526001600160a01b039091166004820152602401602060405180830381865afa158015610b5a573d6000803e3d6000fd5b505050506040513d601f19601f82011682018060405250810190610b7e9190612fa4565b610b9b5760405163ba80c9e560e01b815260040160405180910390fd5b6001600160a01b038316610bc25760405163d92e233d60e01b815260040160405180910390fd5b50506101c380546001600160a01b0319166001600160a01b0392909216919091179055565b61022d610bf48282613009565b5050565b610c03335b82611884565b610c1f5760405162461bcd60e51b81526004016108e9906130c9565b610ad5838383611903565b6000610c358361127b565b8210610c975760405162461bcd60e51b815260206004820152602b60248201527f455243373231456e756d657261626c653a206f776e657220696e646578206f7560448201526a74206f6620626f756e647360a81b60648201526084016108e9565b506001600160a01b03919091166000908152609760209081526040808320938352929052205490565b6001600160a01b037f0000000000000000000000000000000000000000000000000000000000000000163003610d085760405162461bcd60e51b81526004016108e990613116565b7f00000000000000000000000000000000000000000000000000000000000000006001600160a01b0316610d51600080516020613392833981519152546001600160a01b031690565b6001600160a01b031614610d775760405162461bcd60e51b81526004016108e990613162565b610d8081611a74565b60408051600080825260208201909252610d9c91839190611a7c565b50565b6101c4546001600160a01b031680610dca576040516371724ffd60e01b815260040160405180910390fd5b806001600160a01b03811663c3c2ebbb336040516001600160e01b031960e084901b1681526001600160a01b039091166004820152602401602060405180830381865afa158015610e1f573d6000803e3d6000fd5b505050506040513d601f19601f82011682018060405250810190610e439190612fa4565b610e605760405163ba80c9e560e01b815260040160405180910390fd5b604051600090339047908381818185875af1925050503d8060008114610ea2576040519150601f19603f3d011682016040523d82523d6000602084013e610ea7565b606091505b5050905080610ad557600080fd5b6000610ec16101f95490565b9050610ed26101f980546001019055565b610bf48282611be7565b610ad583838360405180602001604052806000815250611503565b610f0033610bfd565b610f1c5760405162461bcd60e51b81526004016108e9906130c9565b610d9c81611c01565b6001600160a01b037f0000000000000000000000000000000000000000000000000000000000000000163003610f6d5760405162461bcd60e51b81526004016108e990613116565b7f00000000000000000000000000000000000000000000000000000000000000006001600160a01b0316610fb6600080516020613392833981519152546001600160a01b031690565b6001600160a01b031614610fdc5760405162461bcd60e51b81526004016108e990613162565b610fe582611a74565b610bf482826001611a7c565b6000610ffc60995490565b821061105f5760405162461bcd60e51b815260206004820152602c60248201527f455243373231456e756d657261626c653a20676c6f62616c20696e646578206f60448201526b7574206f6620626f756e647360a01b60648201526084016108e9565b60998281548110611072576110726131ae565b90600052602060002001549050919050565b6000306001600160a01b037f000000000000000000000000000000000000000000000000000000000000000016146111245760405162461bcd60e51b815260206004820152603860248201527f555550535570677261646561626c653a206d757374206e6f742062652063616c60448201527f6c6564207468726f7567682064656c656761746563616c6c000000000000000060648201526084016108e9565b5060008051602061339283398151915290565b6101c4546001600160a01b031680611162576040516371724ffd60e01b815260040160405180910390fd5b806001600160a01b03811663c3c2ebbb336040516001600160e01b031960e084901b1681526001600160a01b039091166004820152602401602060405180830381865afa1580156111b7573d6000803e3d6000fd5b505050506040513d601f19601f820116820180604052508101906111db9190612fa4565b6111f85760405163ba80c9e560e01b815260040160405180910390fd5b6101fa6112058482613009565b50505050565b606061022d805461070f90612f6a565b6000818152606760205260408120546001600160a01b0316806106fa5760405162461bcd60e51b8152602060048201526018602482015277115490cdcc8c4e881a5b9d985b1a59081d1bdad95b88125160421b60448201526064016108e9565b60006001600160a01b0382166112e55760405162461bcd60e51b815260206004820152602960248201527f4552433732313a2061646472657373207a65726f206973206e6f7420612076616044820152683634b21037bbb732b960b91b60648201526084016108e9565b506001600160a01b031660009081526068602052604090205490565b611309611c0a565b6113136000611c65565b565b6101c4546001600160a01b031680611340576040516371724ffd60e01b815260040160405180910390fd5b806001600160a01b03811663c3c2ebbb336040516001600160e01b031960e084901b1681526001600160a01b039091166004820152602401602060405180830381865afa158015611395573d6000803e3d6000fd5b505050506040513d601f19601f820116820180604052508101906113b99190612fa4565b6113d65760405163ba80c9e560e01b815260040160405180910390fd5b6001600160a01b0383166113fd5760405163d92e233d60e01b815260040160405180910390fd5b6101f780546001600160a01b0385166001600160a01b031991821681179092556101f88054909116821790556040513091907f9a2cdaf1a28a88ccd359d6abc6a27d4856d16459aafb0aae34c1296bab5b63fb90600090a3505050565b60606066805461070f90612f6a565b6101fa805461147790612f6a565b80601f01602080910402602001604051908101604052809291908181526020018280546114a390612f6a565b80156114f05780601f106114c5576101008083540402835291602001916114f0565b820191906000526020600020905b8154815290600101906020018083116114d357829003601f168201915b505050505081565b610bf4338383611cb8565b61150d3383611884565b6115295760405162461bcd60e51b81526004016108e9906130c9565b61120584848484611d86565b60606106fa82611db9565b6101c3546001600160a01b031661156a5760405163821e0eeb60e01b815260040160405180910390fd5b6101c3546001600160a01b0316331461159657604051634128496760e01b815260040160405180910390fd5b6101c380546101c480546001600160a01b0383166001600160a01b031991821681179092556101c580548216909217909155169055565b6115d5611c0a565b6001600160a01b03811661163a5760405162461bcd60e51b815260206004820152602660248201527f4f776e61626c653a206e6577206f776e657220697320746865207a65726f206160448201526564647265737360d01b60648201526084016108e9565b610d9c81611c65565b60006001600160e01b03198216632483248360e11b14806106fa57506106fa82611eb4565b600054610100900460ff1661168f5760405162461bcd60e51b81526004016108e9906131c4565b610bf48282611ed9565b600054610100900460ff166113135760405162461bcd60e51b81526004016108e9906131c4565b600054610100900460ff166116e75760405162461bcd60e51b81526004016108e9906131c4565b611313611f19565b600054610100900460ff166117165760405162461bcd60e51b81526004016108e9906131c4565b611313611f49565b600054610100900460ff166117455760405162461bcd60e51b81526004016108e9906131c4565b6001600160a01b03811661176c5760405163d92e233d60e01b815260040160405180910390fd5b6101c480546001600160a01b0319166001600160a01b0383169081179091556040517f72609421458389ee9c5f42d2ead41eecce3b39daf473d94de7f1ec1a9b593a0090600090a250565b6000818152606760205260409020546001600160a01b0316610d9c5760405162461bcd60e51b8152602060048201526018602482015277115490cdcc8c4e881a5b9d985b1a59081d1bdad95b88125160421b60448201526064016108e9565b600081815260696020526040902080546001600160a01b0319166001600160a01b038416908117909155819061184b8261121b565b6001600160a01b03167f8c5be1e5ebec7d5bd14f71427d1e84f3dd0314c0f7b2291e5b200ac8c7c3b92560405160405180910390a45050565b6000806118908361121b565b9050806001600160a01b0316846001600160a01b031614806118d757506001600160a01b038082166000908152606a602090815260408083209388168352929052205460ff165b806118fb5750836001600160a01b03166118f08461099e565b6001600160a01b0316145b949350505050565b826001600160a01b03166119168261121b565b6001600160a01b03161461193c5760405162461bcd60e51b81526004016108e99061320f565b6001600160a01b03821661199e5760405162461bcd60e51b8152602060048201526024808201527f4552433732313a207472616e7366657220746f20746865207a65726f206164646044820152637265737360e01b60648201526084016108e9565b6119ab8383836001611f80565b826001600160a01b03166119be8261121b565b6001600160a01b0316146119e45760405162461bcd60e51b81526004016108e99061320f565b600081815260696020908152604080832080546001600160a01b03199081169091556001600160a01b0387811680865260688552838620805460001901905590871680865283862080546001019055868652606790945282852080549092168417909155905184937fddf252ad1be2c89b69c2b068fc378daa952ba7f163c4a11628f55a4df523b3ef91a4505050565b610d9c611c0a565b7f4910fdfa16fed3260ed0e7147f7cc6da11a60208b5b9406d12a635614ffd91435460ff1615611aaf57610ad583612074565b826001600160a01b03166352d1902d6040518163ffffffff1660e01b8152600401602060405180830381865afa925050508015611b09575060408051601f3d908101601f19168201909252611b0691810190613254565b60015b611b6c5760405162461bcd60e51b815260206004820152602e60248201527f45524331393637557067726164653a206e657720696d706c656d656e7461746960448201526d6f6e206973206e6f74205555505360901b60648201526084016108e9565b6000805160206133928339815191528114611bdb5760405162461bcd60e51b815260206004820152602960248201527f45524331393637557067726164653a20756e737570706f727465642070726f786044820152681a58589b195555525160ba1b60648201526084016108e9565b50610ad5838383612110565b610bf4828260405180602001604052806000815250612135565b610d9c81612168565b61012d546001600160a01b031633146113135760405162461bcd60e51b815260206004820181905260248201527f4f776e61626c653a2063616c6c6572206973206e6f7420746865206f776e657260448201526064016108e9565b61012d80546001600160a01b038381166001600160a01b0319831681179093556040519116919082907f8be0079c531659141344cd1fd0a4f28419497f9722a3daafe3b4186f6b6457e090600090a35050565b816001600160a01b0316836001600160a01b031603611d195760405162461bcd60e51b815260206004820152601960248201527f4552433732313a20617070726f766520746f2063616c6c65720000000000000060448201526064016108e9565b6001600160a01b038381166000818152606a6020908152604080832094871680845294825291829020805460ff191686151590811790915591519182527f17307eab39ab6107e8899845ad3d59bd9653f200f220920489ca2b5937696c31910160405180910390a3505050565b611d91848484611903565b611d9d848484846121a8565b6112055760405162461bcd60e51b81526004016108e99061326d565b6060611dc4826117b7565b600082815260c9602052604081208054611ddd90612f6a565b80601f0160208091040260200160405190810160405280929190818152602001828054611e0990612f6a565b8015611e565780601f10611e2b57610100808354040283529160200191611e56565b820191906000526020600020905b815481529060010190602001808311611e3957829003601f168201915b505050505090506000611e676122a9565b90508051600003611e79575092915050565b815115611eab578082604051602001611e939291906132bf565b60405160208183030381529060405292505050919050565b6118fb846122b9565b60006001600160e01b0319821663780e9d6360e01b14806106fa57506106fa82612320565b600054610100900460ff16611f005760405162461bcd60e51b81526004016108e9906131c4565b6065611f0c8382613009565b506066610ad58282613009565b600054610100900460ff16611f405760405162461bcd60e51b81526004016108e9906131c4565b61131333611c65565b600054610100900460ff16611f705760405162461bcd60e51b81526004016108e9906131c4565b6101c5805460ff60a01b19169055565b6101f8546001600160a01b039081169063e802b52390861615611fab57611fa68661127b565b611fae565b60005b6001600160a01b03861615611fcb57611fc68661127b565b611fce565b60005b8787336040516001600160e01b031960e088901b168152600481019590955260248501939093526001600160a01b0391821660448501528116606484015216608482015260a4810185905260c4016020604051808303816000875af115801561203b573d6000803e3d6000fd5b505050506040513d601f19601f8201168201806040525081019061205f9190612fa4565b61206857600080fd5b61120584848484612370565b6001600160a01b0381163b6120e15760405162461bcd60e51b815260206004820152602d60248201527f455243313936373a206e657720696d706c656d656e746174696f6e206973206e60448201526c1bdd08184818dbdb9d1c9858dd609a1b60648201526084016108e9565b60008051602061339283398151915280546001600160a01b0319166001600160a01b0392909216919091179055565b612119836124a4565b6000825111806121265750805b15610ad55761120583836124e4565b61213f8383612509565b61214c60008484846121a8565b610ad55760405162461bcd60e51b81526004016108e99061326d565b612171816126a2565b600081815260c960205260409020805461218a90612f6a565b159050610d9c57600081815260c960205260408120610d9c91612b56565b60006001600160a01b0384163b1561229e57604051630a85bd0160e11b81526001600160a01b0385169063150b7a02906121ec9033908990889088906004016132ee565b6020604051808303816000875af1925050508015612227575060408051601f3d908101601f1916820190925261222491810190613321565b60015b612284573d808015612255576040519150601f19603f3d011682016040523d82523d6000602084013e61225a565b606091505b50805160000361227c5760405162461bcd60e51b81526004016108e99061326d565b805181602001fd5b6001600160e01b031916630a85bd0160e11b1490506118fb565b506001949350505050565b60606101fa805461070f90612f6a565b60606122c4826117b7565b60006122ce6122a9565b905060008151116122ee5760405180602001604052806000815250612319565b806122f884612745565b6040516020016123099291906132bf565b6040516020818303038152906040525b9392505050565b60006001600160e01b031982166380ac58cd60e01b148061235157506001600160e01b03198216635b5e139f60e01b145b806106fa57506301ffc9a760e01b6001600160e01b03198316146106fa565b60018111156123df5760405162461bcd60e51b815260206004820152603560248201527f455243373231456e756d657261626c653a20636f6e7365637574697665207472604482015274185b9cd9995c9cc81b9bdd081cdd5c1c1bdc9d1959605a1b60648201526084016108e9565b816001600160a01b03851661243b5761243681609980546000838152609a60205260408120829055600182018355919091527f72a152ddfb8e864297c917af52ea6c1c68aead0fee1a62673fcc7e0c94979d000155565b61245e565b836001600160a01b0316856001600160a01b03161461245e5761245e85826127d8565b6001600160a01b03841661247a5761247581612875565b61249d565b846001600160a01b0316846001600160a01b03161461249d5761249d8482612924565b5050505050565b6124ad81612074565b6040516001600160a01b038216907fbc7cd75a20ee27fd9adebab32041f755214dbc6bffa90cc0225b39da2e5c2d3b90600090a250565b606061231983836040518060600160405280602781526020016133b260279139612968565b6001600160a01b03821661255f5760405162461bcd60e51b815260206004820181905260248201527f4552433732313a206d696e7420746f20746865207a65726f206164647265737360448201526064016108e9565b6000818152606760205260409020546001600160a01b0316156125c45760405162461bcd60e51b815260206004820152601c60248201527f4552433732313a20746f6b656e20616c7265616479206d696e7465640000000060448201526064016108e9565b6125d2600083836001611f80565b6000818152606760205260409020546001600160a01b0316156126375760405162461bcd60e51b815260206004820152601c60248201527f4552433732313a20746f6b656e20616c7265616479206d696e7465640000000060448201526064016108e9565b6001600160a01b038216600081815260686020908152604080832080546001019055848352606790915280822080546001600160a01b0319168417905551839291907fddf252ad1be2c89b69c2b068fc378daa952ba7f163c4a11628f55a4df523b3ef908290a45050565b60006126ad8261121b565b90506126bd816000846001611f80565b6126c68261121b565b600083815260696020908152604080832080546001600160a01b03199081169091556001600160a01b0385168085526068845282852080546000190190558785526067909352818420805490911690555192935084927fddf252ad1be2c89b69c2b068fc378daa952ba7f163c4a11628f55a4df523b3ef908390a45050565b60606000612752836129e0565b600101905060008167ffffffffffffffff81111561277257612772612c3a565b6040519080825280601f01601f19166020018201604052801561279c576020820181803683370190505b5090508181016020015b600019016f181899199a1a9b1b9c1cb0b131b232b360811b600a86061a8153600a85049450846127a657509392505050565b600060016127e58461127b565b6127ef919061333e565b600083815260986020526040902054909150808214612842576001600160a01b03841660009081526097602090815260408083208584528252808320548484528184208190558352609890915290208190555b5060009182526098602090815260408084208490556001600160a01b039094168352609781528383209183525290812055565b6099546000906128879060019061333e565b6000838152609a6020526040812054609980549394509092849081106128af576128af6131ae565b9060005260206000200154905080609983815481106128d0576128d06131ae565b6000918252602080832090910192909255828152609a909152604080822084905585825281205560998054806129085761290861335f565b6001900381819060005260206000200160009055905550505050565b600061292f8361127b565b6001600160a01b039093166000908152609760209081526040808320868452825280832085905593825260989052919091209190915550565b6060600080856001600160a01b0316856040516129859190613375565b600060405180830381855af49150503d80600081146129c0576040519150601f19603f3d011682016040523d82523d6000602084013e6129c5565b606091505b50915091506129d686838387612ab8565b9695505050505050565b60008072184f03e93ff9f4daa797ed6e38ed64bf6a1f0160401b8310612a1f5772184f03e93ff9f4daa797ed6e38ed64bf6a1f0160401b830492506040015b6d04ee2d6d415b85acef81000000008310612a4b576d04ee2d6d415b85acef8100000000830492506020015b662386f26fc100008310612a6957662386f26fc10000830492506010015b6305f5e1008310612a81576305f5e100830492506008015b6127108310612a9557612710830492506004015b60648310612aa7576064830492506002015b600a83106106fa5760010192915050565b60608315612b27578251600003612b20576001600160a01b0385163b612b205760405162461bcd60e51b815260206004820152601d60248201527f416464726573733a2063616c6c20746f206e6f6e2d636f6e747261637400000060448201526064016108e9565b50816118fb565b6118fb8383815115612b3c5781518083602001fd5b8060405162461bcd60e51b81526004016108e99190612c27565b508054612b6290612f6a565b6000825580601f10612b72575050565b601f016020900490600052602060002090810190610d9c91905b80821115612ba05760008155600101612b8c565b5090565b6001600160e01b031981168114610d9c57600080fd5b600060208284031215612bcc57600080fd5b813561231981612ba4565b60005b83811015612bf2578181015183820152602001612bda565b50506000910152565b60008151808452612c13816020860160208601612bd7565b601f01601f19169290920160200192915050565b6020815260006123196020830184612bfb565b634e487b7160e01b600052604160045260246000fd5b600082601f830112612c6157600080fd5b813567ffffffffffffffff80821115612c7c57612c7c612c3a565b604051601f8301601f19908116603f01168101908282118183101715612ca457612ca4612c3a565b81604052838152866020858801011115612cbd57600080fd5b836020870160208301376000602085830101528094505050505092915050565b80356001600160a01b0381168114612cf457600080fd5b919050565b600080600060608486031215612d0e57600080fd5b833567ffffffffffffffff80821115612d2657600080fd5b612d3287838801612c50565b94506020860135915080821115612d4857600080fd5b50612d5586828701612c50565b925050612d6460408501612cdd565b90509250925092565b600060208284031215612d7f57600080fd5b5035919050565b60008060408385031215612d9957600080fd5b612da283612cdd565b946020939093013593505050565b600060208284031215612dc257600080fd5b61231982612cdd565b600060208284031215612ddd57600080fd5b813567ffffffffffffffff811115612df457600080fd5b6118fb84828501612c50565b600080600060608486031215612e1557600080fd5b612e1e84612cdd565b9250612e2c60208501612cdd565b9150604084013590509250925092565b60008060408385031215612e4f57600080fd5b612e5883612cdd565b9150602083013567ffffffffffffffff811115612e7457600080fd5b612e8085828601612c50565b9150509250929050565b8015158114610d9c57600080fd5b60008060408385031215612eab57600080fd5b612eb483612cdd565b91506020830135612ec481612e8a565b809150509250929050565b60008060008060808587031215612ee557600080fd5b612eee85612cdd565b9350612efc60208601612cdd565b925060408501359150606085013567ffffffffffffffff811115612f1f57600080fd5b612f2b87828801612c50565b91505092959194509250565b60008060408385031215612f4a57600080fd5b612f5383612cdd565b9150612f6160208401612cdd565b90509250929050565b600181811c90821680612f7e57607f821691505b602082108103612f9e57634e487b7160e01b600052602260045260246000fd5b50919050565b600060208284031215612fb657600080fd5b815161231981612e8a565b601f821115610ad5576000816000526020600020601f850160051c81016020861015612fea5750805b601f850160051c820191505b8181101561099657828155600101612ff6565b815167ffffffffffffffff81111561302357613023612c3a565b613037816130318454612f6a565b84612fc1565b602080601f83116001811461306c57600084156130545750858301515b600019600386901b1c1916600185901b178555610996565b600085815260208120601f198616915b8281101561309b5788860151825594840194600190910190840161307c565b50858210156130b95787850151600019600388901b60f8161c191681555b5050505050600190811b01905550565b6020808252602d908201527f4552433732313a2063616c6c6572206973206e6f7420746f6b656e206f776e6560408201526c1c881bdc88185c1c1c9bdd9959609a1b606082015260800190565b6020808252602c908201527f46756e6374696f6e206d7573742062652063616c6c6564207468726f7567682060408201526b19195b1959d85d1958d85b1b60a21b606082015260800190565b6020808252602c908201527f46756e6374696f6e206d7573742062652063616c6c6564207468726f7567682060408201526b6163746976652070726f787960a01b606082015260800190565b634e487b7160e01b600052603260045260246000fd5b6020808252602b908201527f496e697469616c697a61626c653a20636f6e7472616374206973206e6f74206960408201526a6e697469616c697a696e6760a81b606082015260800190565b60208082526025908201527f4552433732313a207472616e736665722066726f6d20696e636f72726563742060408201526437bbb732b960d91b606082015260800190565b60006020828403121561326657600080fd5b5051919050565b60208082526032908201527f4552433732313a207472616e7366657220746f206e6f6e20455243373231526560408201527131b2b4bb32b91034b6b83632b6b2b73a32b960711b606082015260800190565b600083516132d1818460208801612bd7565b8351908301906132e5818360208801612bd7565b01949350505050565b6001600160a01b03858116825284166020820152604081018390526080606082018190526000906129d690830184612bfb565b60006020828403121561333357600080fd5b815161231981612ba4565b818103818111156106fa57634e487b7160e01b600052601160045260246000fd5b634e487b7160e01b600052603160045260246000fd5b60008251613387818460208701612bd7565b919091019291505056fe360894a13ba1a3210667c828492db98dca3e2076cc3735a920a3ca505d382bbc416464726573733a206c6f772d6c6576656c2064656c65676174652063616c6c206661696c6564a26469706673582212205124e78f338291b1e6ab0ccaaf68f2818fe40623d9e9c857885164011fa9a88b64736f6c63430008180033","linkReferences":{}},"methodIdentifiers":{"approve(address,uint256)":"095ea7b3","balanceOf(address)":"70a08231","baseUri()":"9abc8320","burn(uint256)":"42966c68","confirmAppManagerAddress()":"cdccb27a","connectHandlerToToken(address)":"71af85e0","getAppManagerAddress()":"4c330077","getApproved(uint256)":"081812fc","getHandlerAddress()":"6f9c83b8","getTestVariable1()":"caddbab8","getTestVariable2()":"573cede8","handlerAddress()":"6fd7d970","initialize(string,string,address)":"077f224a","isApprovedForAll(address,address)":"e985e9c5","name()":"06fdde03","owner()":"8da5cb5b","ownerOf(uint256)":"6352211e","paused()":"5c975abb","proposeAppManagerAddress(address)":"11280cb5","proxiableUUID()":"52d1902d","renounceOwnership()":"715018a6","safeMint(address)":"40d097c3","safeTransferFrom(address,address,uint256)":"42842e0e","safeTransferFrom(address,address,uint256,bytes)":"b88d4fde","setApprovalForAll(address,bool)":"a22cb465","setBaseURI(string)":"55f804b3","setTestVariable1(uint256)":"81fefd88","setTestVariable2(string)":"211abd0c","supportsInterface(bytes4)":"01ffc9a7","symbol()":"95d89b41","tokenByIndex(uint256)":"4f6ccce7","tokenOfOwnerByIndex(address,uint256)":"2f745c59","tokenURI(uint256)":"c87b56dd","totalSupply()":"18160ddd","transferFrom(address,address,uint256)":"23b872dd","transferOwnership(address)":"f2fde38b","upgradeTo(address)":"3659cfe6","upgradeToAndCall(address,bytes)":"4f1ef286","withdraw()":"3ccfd60b"},"id":322}