{"abi":[{"type":"function","name":"sampleFunction","inputs":[],"outputs":[{"name":"","type":"string","internalType":"string"}],"stateMutability":"view"}],"bytecode":{"object":"0x608060405234801561001057600080fd5b50610160806100206000396000f3fe608060405234801561001057600080fd5b506004361061002b5760003560e01c806325d4b98114610030575b600080fd5b61003861004e565b60405161004591906100db565b60405180910390f35b60607f02dbc36a11ad69a7efd36e6fc5553942b2a3c7757978bf89807fea8d8cdf5a8b546001600160a01b031633146100bc5760405162461bcd60e51b815260206004820152600c60248201526b15539055551213d49256915160a21b604482015260640160405180910390fd5b5060408051808201909152600481526319dbdbd960e21b602082015290565b60006020808352835180602085015260005b81811015610109578581018301518582016040015282016100ed565b506000604082860101526040601f19601f830116850101925050509291505056fea26469706673582212206d44f55a0ffd9a6ba4f6a48438fe5c521ba89dbffa00254f22343e78a3766e0464736f6c63430008180033","linkReferences":{}},"methodIdentifiers":{"sampleFunction()":"25d4b981"},"id":6}