{"abi":[{"type":"function","name":"activateAccountApproveDenyOracle","inputs":[{"name":"_actions","type":"uint8[]","internalType":"enum ActionTypes[]"},{"name":"_on","type":"bool","internalType":"bool"},{"name":"ruleId","type":"uint32","internalType":"uint32"}],"outputs":[],"stateMutability":"nonpayable"},{"type":"function","name":"getAccountApproveDenyOracleIds","inputs":[{"name":"_action","type":"uint8","internalType":"enum ActionTypes"}],"outputs":[{"name":"","type":"uint32[]","internalType":"uint32[]"}],"stateMutability":"view"},{"type":"function","name":"isAccountApproveDenyOracleActive","inputs":[{"name":"_action","type":"uint8","internalType":"enum ActionTypes"},{"name":"ruleId","type":"uint32","internalType":"uint32"}],"outputs":[{"name":"","type":"bool","internalType":"bool"}],"stateMutability":"view"},{"type":"function","name":"removeAccountApproveDenyOracle","inputs":[{"name":"_actions","type":"uint8[]","internalType":"enum ActionTypes[]"},{"name":"ruleId","type":"uint32","internalType":"uint32"}],"outputs":[],"stateMutability":"nonpayable"},{"type":"function","name":"setAccountApproveDenyOracleId","inputs":[{"name":"_actions","type":"uint8[]","internalType":"enum ActionTypes[]"},{"name":"_ruleId","type":"uint32","internalType":"uint32"}],"outputs":[],"stateMutability":"nonpayable"},{"type":"function","name":"setAccountApproveDenyOracleIdFull","inputs":[{"name":"_actions","type":"uint8[]","internalType":"enum ActionTypes[]"},{"name":"_ruleIds","type":"uint32[]","internalType":"uint32[]"}],"outputs":[],"stateMutability":"nonpayable"},{"type":"event","name":"AD1467_AppManagerAddressProposed","inputs":[{"name":"_address","type":"address","indexed":true,"internalType":"address"}],"anonymous":false},{"type":"event","name":"AD1467_AppManagerAddressSet","inputs":[{"name":"_address","type":"address","indexed":true,"internalType":"address"}],"anonymous":false},{"type":"event","name":"AD1467_ApplicationHandlerActionActivated","inputs":[{"name":"ruleType","type":"bytes32","indexed":true,"internalType":"bytes32"},{"name":"actions","type":"uint8[]","indexed":false,"internalType":"enum ActionTypes[]"}],"anonymous":false},{"type":"event","name":"AD1467_ApplicationHandlerActionApplied","inputs":[{"name":"ruleType","type":"bytes32","indexed":true,"internalType":"bytes32"},{"name":"action","type":"uint8","indexed":true,"internalType":"enum ActionTypes"},{"name":"ruleId","type":"uint32","indexed":true,"internalType":"uint32"}],"anonymous":false},{"type":"event","name":"AD1467_ApplicationHandlerActionAppliedFull","inputs":[{"name":"ruleType","type":"bytes32","indexed":true,"internalType":"bytes32"},{"name":"actions","type":"uint8[]","indexed":false,"internalType":"enum ActionTypes[]"},{"name":"ruleIds","type":"uint32[]","indexed":false,"internalType":"uint32[]"}],"anonymous":false},{"type":"event","name":"AD1467_ApplicationHandlerActionDeactivated","inputs":[{"name":"ruleType","type":"bytes32","indexed":true,"internalType":"bytes32"},{"name":"actions","type":"uint8[]","indexed":false,"internalType":"enum ActionTypes[]"}],"anonymous":false},{"type":"event","name":"AD1467_ERC721AddressSet","inputs":[{"name":"_address","type":"address","indexed":true,"internalType":"address"}],"anonymous":false},{"type":"event","name":"AD1467_FeeActivationSet","inputs":[{"name":"_activation","type":"bool","indexed":true,"internalType":"bool"}],"anonymous":false},{"type":"event","name":"AD1467_NFTValuationLimitUpdated","inputs":[{"name":"nftValuationLimit","type":"uint256","indexed":true,"internalType":"uint256"}],"anonymous":false},{"type":"error","name":"AccountApproveDenyOraclesPerAssetLimitReached","inputs":[]},{"type":"error","name":"AppManagerNotConnected","inputs":[]},{"type":"error","name":"BatchMintBurnNotSupported","inputs":[]},{"type":"error","name":"BelowMinAdminThreshold","inputs":[]},{"type":"error","name":"CannotTurnOffAccountDenyForNoAccessLevelWhileActive","inputs":[]},{"type":"error","name":"FeesAreGreaterThanTransactionAmount","inputs":[{"name":"","type":"address","internalType":"address"}]},{"type":"error","name":"InputArraysMustHaveSameLength","inputs":[]},{"type":"error","name":"InputArraysSizesNotValid","inputs":[]},{"type":"error","name":"InvalidAction","inputs":[]},{"type":"error","name":"NotAppAdministrator","inputs":[]},{"type":"error","name":"NotAppAdministratorOrOwner","inputs":[]},{"type":"error","name":"NotRuleAdministrator","inputs":[]},{"type":"error","name":"NotSuperAdmin","inputs":[{"name":"","type":"address","internalType":"address"}]},{"type":"error","name":"PeriodExceeds5Years","inputs":[]},{"type":"error","name":"ZeroValueNotPermited","inputs":[]},{"type":"error","name":"actionCheckFailed","inputs":[]}],"bytecode":{"object":"0x608060405234801561001057600080fd5b506116a8806100206000396000f3fe608060405234801561001057600080fd5b50600436106100625760003560e01c80631dfab3691461006757806322de984a1461007c5780632720970f1461008f5780633e800f1e146100b757806341bd803c146100d757806369009931146100ea575b600080fd5b61007a6100753660046112e7565b6100fd565b005b61007a61008a366004611349565b6102f3565b6100a261009d3660046113be565b61060d565b60405190151581526020015b60405180910390f35b6100ca6100c53660046113f1565b610739565b6040516100ae9190611413565b61007a6100e536600461145d565b610897565b61007a6100f83660046112e7565b610a57565b610105610e92565b600201546001600160a01b031680610130576040516371724ffd60e01b815260040160405180910390fd5b806001600160a01b03811663d4a7db7f336040516001600160e01b031960e084901b1681526001600160a01b039091166004820152602401602060405180830381865afa158015610185573d6000803e3d6000fd5b505050506040513d601f19601f820116820180604052508101906101a991906114c9565b6101c657604051631acd860160e31b815260040160405180910390fd5b6101ce610e92565b6001015460405163251d88ed60e01b815263ffffffff851660048201526001600160a01b039091169063251d88ed9060240160006040518083038186803b15801561021857600080fd5b505afa15801561022c573d6000803e3d6000fd5b5050505060005b848110156102eb5761026b868683818110610250576102506114e6565b905060200201602081019061026591906113f1565b85610ec0565b8363ffffffff16868683818110610284576102846114e6565b905060200201602081019061029991906113f1565b60048111156102aa576102aa6114fc565b604051600080516020611653833981519152907f4f87ac5c7868c692420a972d0f84fa7750afbf2b8a09848fefc355020bce707b90600090a4600101610233565b505050505050565b6102fb610e92565b600201546001600160a01b031680610326576040516371724ffd60e01b815260040160405180910390fd5b806001600160a01b03811663d4a7db7f336040516001600160e01b031960e084901b1681526001600160a01b039091166004820152602401602060405180830381865afa15801561037b573d6000803e3d6000fd5b505050506040513d601f19601f8201168201806040525081019061039f91906114c9565b6103bc57604051631acd860160e31b815260040160405180910390fd5b60005b858110156105695760006103d16110c0565b905060005b8160008a8a868181106103eb576103eb6114e6565b905060200201602081019061040091906113f1565b6004811115610411576104116114fc565b6004811115610422576104226114fc565b815260208101919091526040016000205481101561055f578563ffffffff168260008b8b87818110610456576104566114e6565b905060200201602081019061046b91906113f1565b600481111561047c5761047c6114fc565b600481111561048d5761048d6114fc565b815260200190815260200160002082815481106104ac576104ac6114e6565b60009182526020909120015463ffffffff160361055757868260008b8b878181106104d9576104d96114e6565b90506020020160208101906104ee91906113f1565b60048111156104ff576104ff6114fc565b6004811115610510576105106114fc565b8152602001908152602001600020828154811061052f5761052f6114e6565b600091825260209091200180549115156401000000000264ff00000000199092169190911790555b6001016103d6565b50506001016103bf565b5083156105bd576000805160206116538339815191527f4dfa26a794eb61a703a2beac482f06b4372aed0b7c0d6b4490db416146d8e32e87876040516105b092919061156e565b60405180910390a26102eb565b6000805160206116538339815191527fe67b4c6b446d2563a2a39eb75b71127a3f908bcfcef4f7c89bd9e1b3ef39d15e87876040516105fd92919061156e565b60405180910390a2505050505050565b6000806106186110c0565b905060005b816000866004811115610632576106326114fc565b6004811115610643576106436114fc565b815260208101919091526040016000205481101561072c578363ffffffff16826000876004811115610677576106776114fc565b6004811115610688576106886114fc565b815260200190815260200160002082815481106106a7576106a76114e6565b60009182526020909120015463ffffffff1603610724578160008660048111156106d3576106d36114fc565b60048111156106e4576106e46114fc565b81526020019081526020016000208181548110610703576107036114e6565b600091825260209091200154640100000000900460ff169250610733915050565b60010161061d565b5060009150505b92915050565b606060006107456110c0565b90506000818185600481111561075d5761075d6114fc565b600481111561076e5761076e6114fc565b815260208101919091526040016000205467ffffffffffffffff8111156107975761079761158a565b6040519080825280602002602001820160405280156107c0578160200160208202803683370190505b50905060005b8260008660048111156107db576107db6114fc565b60048111156107ec576107ec6114fc565b815260208101919091526040016000205481101561088f57826000866004811115610819576108196114fc565b600481111561082a5761082a6114fc565b81526020019081526020016000208181548110610849576108496114e6565b600091825260209091200154825163ffffffff90911690839083908110610872576108726114e6565b63ffffffff909216602092830291909101909101526001016107c6565b509392505050565b61089f610e92565b600201546001600160a01b0316806108ca576040516371724ffd60e01b815260040160405180910390fd5b806001600160a01b03811663d4a7db7f336040516001600160e01b031960e084901b1681526001600160a01b039091166004820152602401602060405180830381865afa15801561091f573d6000803e3d6000fd5b505050506040513d601f19601f8201168201806040525081019061094391906114c9565b61096057604051631acd860160e31b815260040160405180910390fd5b600085900361098257604051633f4ab26f60e21b815260040160405180910390fd5b8483146109a15760405162514d8b60e31b815260040160405180910390fd5b6109a96110ee565b60005b85811015610a1257610a0a8787838181106109c9576109c96114e6565b90506020020160208101906109de91906113f1565b8686848181106109f0576109f06114e6565b9050602002016020810190610a0591906115a0565b610ec0565b6001016109ac565b506000805160206116538339815191527ffce5ba10ca670317c4ad6aaf14bfb5c4467bb4415ab89dafce1434471a227126878787876040516105fd94939291906115bb565b610a5f610e92565b600201546001600160a01b031680610a8a576040516371724ffd60e01b815260040160405180910390fd5b806001600160a01b03811663d4a7db7f336040516001600160e01b031960e084901b1681526001600160a01b039091166004820152602401602060405180830381865afa158015610adf573d6000803e3d6000fd5b505050506040513d601f19601f82011682018060405250810190610b0391906114c9565b610b2057604051631acd860160e31b815260040160405180910390fd5b6000610b2a6110c0565b905060005b85811015610e89576000826000898985818110610b4e57610b4e6114e6565b9050602002016020810190610b6391906113f1565b6004811115610b7457610b746114fc565b6004811115610b8557610b856114fc565b815260200190815260200160002060018460008b8b87818110610baa57610baa6114e6565b9050602002016020810190610bbf91906113f1565b6004811115610bd057610bd06114fc565b6004811115610be157610be16114fc565b8152602081019190915260400160002054610bfc919061161b565b81548110610c0c57610c0c6114e6565b60009182526020918290206040805180820190915291015463ffffffff80821680845264010000000090920460ff1615159383019390935290925090871614610df7576000805b8460008b8b87818110610c6857610c686114e6565b9050602002016020810190610c7d91906113f1565b6004811115610c8e57610c8e6114fc565b6004811115610c9f57610c9f6114fc565b8152602081019190915260400160002054811015610d50578763ffffffff168560008c8c88818110610cd357610cd36114e6565b9050602002016020810190610ce891906113f1565b6004811115610cf957610cf96114fc565b6004811115610d0a57610d0a6114fc565b81526020019081526020016000208281548110610d2957610d296114e6565b60009182526020909120015463ffffffff1603610d4857809150610d50565b600101610c53565b50818460008b8b87818110610d6757610d676114e6565b9050602002016020810190610d7c91906113f1565b6004811115610d8d57610d8d6114fc565b6004811115610d9e57610d9e6114fc565b81526020019081526020016000208281548110610dbd57610dbd6114e6565b6000918252602091829020835191018054939092015115156401000000000264ffffffffff1990931663ffffffff90911617919091179055505b826000898985818110610e0c57610e0c6114e6565b9050602002016020810190610e2191906113f1565b6004811115610e3257610e326114fc565b6004811115610e4357610e436114fc565b8152602001908152602001600020805480610e6057610e6061163c565b6000828152602090208101600019908101805464ffffffffff1916905501905550600101610b2f565b50505050505050565b60008061073360017f1c7e9355957c344e150b07462120dcb6c99b078e258444a7cd1841042fa7f14b61161b565b610ec8610e92565b6001015460405163251d88ed60e01b815263ffffffff831660048201526001600160a01b039091169063251d88ed9060240160006040518083038186803b158015610f1257600080fd5b505afa158015610f26573d6000803e3d6000fd5b505050506000610f346110c0565b9050600a816000856004811115610f4d57610f4d6114fc565b6004811115610f5e57610f5e6114fc565b815260208101919091526040016000205410610f8d57604051634e4d8dd160e01b815260040160405180910390fd5b6040805180820190915263ffffffff8316815260016020820152600080610fb48686611176565b9150915080156110415782846000886004811115610fd457610fd46114fc565b6004811115610fe557610fe56114fc565b81526020019081526020016000208381548110611004576110046114e6565b6000918252602091829020835191018054939092015115156401000000000264ffffffffff1990931663ffffffff909116179190911790556102eb565b836000876004811115611056576110566114fc565b6004811115611067576110676114fc565b815260208082019290925260400160009081208054600181018255908252908290208551910180549286015115156401000000000264ffffffffff1990931663ffffffff90921691909117919091179055505050505050565b60008061073360017fa41060af1c613de6be71d20319662a5fd3e7bfcedd371c587702f30900ab141b61161b565b60006110f86110c0565b905060005b611105610e92565b60030154600160a01b900460ff1681116111725781600082600481111561112e5761112e6114fc565b600481111561113f5761113f6114fc565b6004811115611150576111506114fc565b8152602001908152602001600020600061116a9190611247565b6001016110fd565b5050565b60008060006111836110c0565b905060005b81600087600481111561119d5761119d6114fc565b60048111156111ae576111ae6114fc565b815260208101919091526040016000205481101561123d5763ffffffff85168260008860048111156111e2576111e26114fc565b60048111156111f3576111f36114fc565b81526020019081526020016000208281548110611212576112126114e6565b60009182526020909120015463ffffffff1603611235578093506001925061123d565b600101611188565b50505b9250929050565b50805460008255906000526020600020908101906112659190611268565b50565b5b8082111561128557805464ffffffffff19168155600101611269565b5090565b60008083601f84011261129b57600080fd5b50813567ffffffffffffffff8111156112b357600080fd5b6020830191508360208260051b850101111561124057600080fd5b803563ffffffff811681146112e257600080fd5b919050565b6000806000604084860312156112fc57600080fd5b833567ffffffffffffffff81111561131357600080fd5b61131f86828701611289565b90945092506113329050602085016112ce565b90509250925092565b801515811461126557600080fd5b6000806000806060858703121561135f57600080fd5b843567ffffffffffffffff81111561137657600080fd5b61138287828801611289565b90955093505060208501356113968161133b565b91506113a4604086016112ce565b905092959194509250565b8035600581106112e257600080fd5b600080604083850312156113d157600080fd5b6113da836113af565b91506113e8602084016112ce565b90509250929050565b60006020828403121561140357600080fd5b61140c826113af565b9392505050565b6020808252825182820181905260009190848201906040850190845b8181101561145157835163ffffffff168352928401929184019160010161142f565b50909695505050505050565b6000806000806040858703121561147357600080fd5b843567ffffffffffffffff8082111561148b57600080fd5b61149788838901611289565b909650945060208701359150808211156114b057600080fd5b506114bd87828801611289565b95989497509550505050565b6000602082840312156114db57600080fd5b815161140c8161133b565b634e487b7160e01b600052603260045260246000fd5b634e487b7160e01b600052602160045260246000fd5b818352600060208085019450826000805b8681101561156257611534836113af565b6005811061155057634e487b7160e01b83526021600452602483fd5b88529683019691830191600101611523565b50959695505050505050565b602081526000611582602083018486611512565b949350505050565b634e487b7160e01b600052604160045260246000fd5b6000602082840312156115b257600080fd5b61140c826112ce565b6040815260006115cf604083018688611512565b8281036020848101919091528482528591810160005b8681101561160e5763ffffffff6115fb856112ce565b16825292820192908201906001016115e5565b5098975050505050505050565b8181038181111561073357634e487b7160e01b600052601160045260246000fd5b634e487b7160e01b600052603160045260246000fdfe4143434f554e545f415050524f56455f44454e595f4f5241434c450000000000a2646970667358221220214cafd6da561bfd4d7f091da057a4f00dfe42d580666fb59b52eade6dd7627b64736f6c63430008180033","linkReferences":{}},"methodIdentifiers":{"activateAccountApproveDenyOracle(uint8[],bool,uint32)":"22de984a","getAccountApproveDenyOracleIds(uint8)":"3e800f1e","isAccountApproveDenyOracleActive(uint8,uint32)":"2720970f","removeAccountApproveDenyOracle(uint8[],uint32)":"69009931","setAccountApproveDenyOracleId(uint8[],uint32)":"1dfab369","setAccountApproveDenyOracleIdFull(uint8[],uint32[])":"41bd803c"},"id":183}