{"abi":[{"type":"function","name":"activateAccountMinMaxTokenBalance","inputs":[{"name":"_actions","type":"uint8[]","internalType":"enum ActionTypes[]"},{"name":"_on","type":"bool","internalType":"bool"}],"outputs":[],"stateMutability":"nonpayable"},{"type":"function","name":"checkTaggedAndTradingRules","inputs":[{"name":"_balanceFrom","type":"uint256","internalType":"uint256"},{"name":"_balanceTo","type":"uint256","internalType":"uint256"},{"name":"_from","type":"address","internalType":"address"},{"name":"_to","type":"address","internalType":"address"},{"name":"_amount","type":"uint256","internalType":"uint256"},{"name":"action","type":"uint8","internalType":"enum ActionTypes"}],"outputs":[],"stateMutability":"nonpayable"},{"type":"function","name":"getAccountMinMaxTokenBalanceId","inputs":[{"name":"_action","type":"uint8","internalType":"enum ActionTypes"}],"outputs":[{"name":"","type":"uint32","internalType":"uint32"}],"stateMutability":"view"},{"type":"function","name":"isAccountMinMaxTokenBalanceActive","inputs":[{"name":"_action","type":"uint8","internalType":"enum ActionTypes"}],"outputs":[{"name":"","type":"bool","internalType":"bool"}],"stateMutability":"view"},{"type":"function","name":"setAccountMinMaxTokenBalanceId","inputs":[{"name":"_actions","type":"uint8[]","internalType":"enum ActionTypes[]"},{"name":"_ruleId","type":"uint32","internalType":"uint32"}],"outputs":[],"stateMutability":"nonpayable"},{"type":"function","name":"setAccountMinMaxTokenBalanceIdFull","inputs":[{"name":"_actions","type":"uint8[]","internalType":"enum ActionTypes[]"},{"name":"_ruleIds","type":"uint32[]","internalType":"uint32[]"}],"outputs":[],"stateMutability":"nonpayable"},{"type":"event","name":"AD1467_AppManagerAddressProposed","inputs":[{"name":"_address","type":"address","indexed":true,"internalType":"address"}],"anonymous":false},{"type":"event","name":"AD1467_AppManagerAddressSet","inputs":[{"name":"_address","type":"address","indexed":true,"internalType":"address"}],"anonymous":false},{"type":"event","name":"AD1467_ApplicationHandlerActionActivated","inputs":[{"name":"ruleType","type":"bytes32","indexed":true,"internalType":"bytes32"},{"name":"actions","type":"uint8[]","indexed":false,"internalType":"enum ActionTypes[]"}],"anonymous":false},{"type":"event","name":"AD1467_ApplicationHandlerActionApplied","inputs":[{"name":"ruleType","type":"bytes32","indexed":true,"internalType":"bytes32"},{"name":"action","type":"uint8","indexed":true,"internalType":"enum ActionTypes"},{"name":"ruleId","type":"uint32","indexed":true,"internalType":"uint32"}],"anonymous":false},{"type":"event","name":"AD1467_ApplicationHandlerActionAppliedFull","inputs":[{"name":"ruleType","type":"bytes32","indexed":true,"internalType":"bytes32"},{"name":"actions","type":"uint8[]","indexed":false,"internalType":"enum ActionTypes[]"},{"name":"ruleIds","type":"uint32[]","indexed":false,"internalType":"uint32[]"}],"anonymous":false},{"type":"event","name":"AD1467_ApplicationHandlerActionDeactivated","inputs":[{"name":"ruleType","type":"bytes32","indexed":true,"internalType":"bytes32"},{"name":"actions","type":"uint8[]","indexed":false,"internalType":"enum ActionTypes[]"}],"anonymous":false},{"type":"event","name":"AD1467_ERC721AddressSet","inputs":[{"name":"_address","type":"address","indexed":true,"internalType":"address"}],"anonymous":false},{"type":"event","name":"AD1467_FeeActivationSet","inputs":[{"name":"_activation","type":"bool","indexed":true,"internalType":"bool"}],"anonymous":false},{"type":"event","name":"AD1467_NFTValuationLimitUpdated","inputs":[{"name":"nftValuationLimit","type":"uint256","indexed":true,"internalType":"uint256"}],"anonymous":false},{"type":"error","name":"AccountApproveDenyOraclesPerAssetLimitReached","inputs":[]},{"type":"error","name":"AppManagerNotConnected","inputs":[]},{"type":"error","name":"BatchMintBurnNotSupported","inputs":[]},{"type":"error","name":"BelowMinAdminThreshold","inputs":[]},{"type":"error","name":"CannotTurnOffAccountDenyForNoAccessLevelWhileActive","inputs":[]},{"type":"error","name":"FeesAreGreaterThanTransactionAmount","inputs":[{"name":"","type":"address","internalType":"address"}]},{"type":"error","name":"InputArraysMustHaveSameLength","inputs":[]},{"type":"error","name":"InputArraysSizesNotValid","inputs":[]},{"type":"error","name":"InvalidAction","inputs":[]},{"type":"error","name":"NotAppAdministrator","inputs":[]},{"type":"error","name":"NotAppAdministratorOrOwner","inputs":[]},{"type":"error","name":"NotRuleAdministrator","inputs":[]},{"type":"error","name":"NotSuperAdmin","inputs":[{"name":"","type":"address","internalType":"address"}]},{"type":"error","name":"PeriodExceeds5Years","inputs":[]},{"type":"error","name":"ZeroValueNotPermited","inputs":[]},{"type":"error","name":"actionCheckFailed","inputs":[]}],"bytecode":{"object":"0x608060405234801561001057600080fd5b5061143e806100206000396000f3fe608060405234801561001057600080fd5b50600436106100625760003560e01c80633646fa141461006757806336bd6ea71461007c578063c002edf71461008f578063ef7c1e8b146100b7578063f73e2faa146100df578063fea1e222146100f2575b600080fd5b61007a610075366004610ec6565b610105565b005b61007a61008a366004610f48565b610305565b6100a261009d366004610fa7565b61031b565b60405190151581526020015b60405180910390f35b6100ca6100c5366004610fa7565b61036c565b60405163ffffffff90911681526020016100ae565b61007a6100ed366004610fdd565b6103b8565b61007a610100366004611031565b6105a6565b61010d610776565b600201546001600160a01b031680610138576040516371724ffd60e01b815260040160405180910390fd5b806001600160a01b03811663d4a7db7f336040516001600160e01b031960e084901b1681526001600160a01b039091166004820152602401602060405180830381865afa15801561018d573d6000803e3d6000fd5b505050506040513d601f19601f820116820180604052508101906101b1919061109d565b6101ce57604051631acd860160e31b815260040160405180910390fd5b60005b8481101561026157836101e26107aa565b60008888858181106101f6576101f66110ba565b905060200201602081019061020b9190610fa7565b600481111561021c5761021c6110d0565b600481111561022d5761022d6110d0565b8152602081019190915260400160002080549115156401000000000264ff00000000199092169190911790556001016101d1565b5082156102b5576000805160206113e98339815191527f4dfa26a794eb61a703a2beac482f06b4372aed0b7c0d6b4490db416146d8e32e86866040516102a892919061114d565b60405180910390a26102fe565b6000805160206113e98339815191527fe67b4c6b446d2563a2a39eb75b71127a3f908bcfcef4f7c89bd9e1b3ef39d15e86866040516102f592919061114d565b60405180910390a25b5050505050565b6103138686868686866107d8565b505050505050565b60006103256107aa565b6000836004811115610339576103396110d0565b600481111561034a5761034a6110d0565b8152602081019190915260400160002054640100000000900460ff1692915050565b60006103766107aa565b600083600481111561038a5761038a6110d0565b600481111561039b5761039b6110d0565b815260208101919091526040016000205463ffffffff1692915050565b6103c0610776565b600201546001600160a01b0316806103eb576040516371724ffd60e01b815260040160405180910390fd5b806001600160a01b03811663d4a7db7f336040516001600160e01b031960e084901b1681526001600160a01b039091166004820152602401602060405180830381865afa158015610440573d6000803e3d6000fd5b505050506040513d601f19601f82011682018060405250810190610464919061109d565b61048157604051631acd860160e31b815260040160405180910390fd5b610489610776565b60010154604051630323949d60e11b815263ffffffff851660048201526001600160a01b0390911690630647293a9060240160006040518083038186803b1580156104d357600080fd5b505afa1580156104e7573d6000803e3d6000fd5b5050505060005b848110156103135761052686868381811061050b5761050b6110ba565b90506020020160208101906105209190610fa7565b85610be7565b8363ffffffff1686868381811061053f5761053f6110ba565b90506020020160208101906105549190610fa7565b6004811115610565576105656110d0565b6040516000805160206113e9833981519152907f4f87ac5c7868c692420a972d0f84fa7750afbf2b8a09848fefc355020bce707b90600090a46001016104ee565b6105ae610776565b600201546001600160a01b0316806105d9576040516371724ffd60e01b815260040160405180910390fd5b806001600160a01b03811663d4a7db7f336040516001600160e01b031960e084901b1681526001600160a01b039091166004820152602401602060405180830381865afa15801561062e573d6000803e3d6000fd5b505050506040513d601f19601f82011682018060405250810190610652919061109d565b61066f57604051631acd860160e31b815260040160405180910390fd5b600085900361069157604051633f4ab26f60e21b815260040160405180910390fd5b8483146106b05760405162514d8b60e31b815260040160405180910390fd5b6106b8610d0f565b60005b85811015610721576107198787838181106106d8576106d86110ba565b90506020020160208101906106ed9190610fa7565b8686848181106106ff576106ff6110ba565b90506020020160208101906107149190611169565b610be7565b6001016106bb565b506000805160206113e98339815191527ffce5ba10ca670317c4ad6aaf14bfb5c4467bb4415ab89dafce1434471a227126878787876040516107669493929190611184565b60405180910390a2505050505050565b6000806107a460017f1c7e9355957c344e150b07462120dcb6c99b078e258444a7cd1841042fa7f14b6111e4565b92915050565b6000806107a460017fbc463ab2d65bd13bd1a2f37dce1c0b9c2cb493cdca8db7ff84960ad794ba2caf6111e4565b60006107e2610776565b9050606080600060018560048111156107fd576107fd6110d0565b1480156108775750600284015460405163be4eb0c760e01b81526001600160a01b0389811660048301529091169063be4eb0c790602401602060405180830381865afa158015610851573d6000803e3d6000fd5b505050506040513d601f19601f82011682018060405250810190610875919061109d565b155b90506000600286600481111561088f5761088f6110d0565b1480156109095750600285015460405163be4eb0c760e01b81526001600160a01b038b811660048301529091169063be4eb0c790602401602060405180830381865afa1580156108e3573d6000803e3d6000fd5b505050506040513d601f19601f82011682018060405250810190610907919061109d565b155b905060006109156107aa565b905080600088600481111561092c5761092c6110d0565b600481111561093d5761093d6110d0565b8152602081019190915260400160002054640100000000900460ff16806109615750825b806109695750815b15610a5f576002860154604051636640979d60e11b81526001600160a01b038b811660048301529091169063cc812f3a90602401600060405180830381865afa1580156109ba573d6000803e3d6000fd5b505050506040513d6000823e601f3d908101601f191682016040526109e2919081019061121b565b6002870154604051636640979d60e11b81526001600160a01b038d8116600483015292975091169063cc812f3a90602401600060405180830381865afa158015610a30573d6000803e3d6000fd5b505050506040513d6000823e601f3d908101601f19168201604052610a58919081019061121b565b9350610a7a565b60408051600080825260208201908152818301909252955093505b806000886004811115610a8f57610a8f6110d0565b6004811115610aa057610aa06110d0565b8152602081019190915260400160002054640100000000900460ff1615610b735760018601546001600160a01b0316633ba7dfab8260008a6004811115610ae957610ae96110d0565b6004811115610afa57610afa6110d0565b815260200190815260200160002060000160009054906101000a900463ffffffff168e8e8c8a8a6040518763ffffffff1660e01b8152600401610b429695949392919061130a565b60006040518083038186803b158015610b5a57600080fd5b505afa158015610b6e573d6000803e3d6000fd5b505050505b8280610b7c5750815b15610bd957610bd663d874686f60e01b8b8b87898d8d604051602401610ba79695949392919061135a565b60408051601f198184030181529190526020810180516001600160e01b031663d874686f60e01b179052610d99565b50505b505050505050505050505050565b610bef610776565b60010154604051630323949d60e11b815263ffffffff831660048201526001600160a01b0390911690630647293a9060240160006040518083038186803b158015610c3957600080fd5b505afa158015610c4d573d6000803e3d6000fd5b505050506000610c5b6107aa565b905081816000856004811115610c7357610c736110d0565b6004811115610c8457610c846110d0565b815260200190815260200160002060000160006101000a81548163ffffffff021916908363ffffffff1602179055506001816000016000856004811115610ccd57610ccd6110d0565b6004811115610cde57610cde6110d0565b8152602081019190915260400160002080549115156401000000000264ff0000000019909216919091179055505050565b6000610d196107aa565b905060005b610d26610776565b60030154600160a01b900460ff168111610d9557816000826004811115610d4f57610d4f6110d0565b6004811115610d6057610d606110d0565b6004811115610d7157610d716110d0565b81526020810191909152604001600020805464ffffffffff19169055600101610d1e565b5050565b600060606000610da7610e3b565b6001600160e01b03198616600090815260208290526040908190205490519192506001600160a01b0316908190610ddf9087906113b9565b600060405180830381855af49150503d8060008114610e1a576040519150601f19603f3d011682016040523d82523d6000602084013e610e1f565b606091505b50909450925083610e3257825160208401fd5b50509250929050565b6000806107a460017fbe498a3b14fd79a48c3c9af86ff14271ed497d09071013334028d28e7791db206111e4565b60008083601f840112610e7b57600080fd5b50813567ffffffffffffffff811115610e9357600080fd5b6020830191508360208260051b8501011115610eae57600080fd5b9250929050565b8015158114610ec357600080fd5b50565b600080600060408486031215610edb57600080fd5b833567ffffffffffffffff811115610ef257600080fd5b610efe86828701610e69565b9094509250506020840135610f1281610eb5565b809150509250925092565b80356001600160a01b0381168114610f3457600080fd5b919050565b803560058110610f3457600080fd5b60008060008060008060c08789031215610f6157600080fd5b8635955060208701359450610f7860408801610f1d565b9350610f8660608801610f1d565b925060808701359150610f9b60a08801610f39565b90509295509295509295565b600060208284031215610fb957600080fd5b610fc282610f39565b9392505050565b803563ffffffff81168114610f3457600080fd5b600080600060408486031215610ff257600080fd5b833567ffffffffffffffff81111561100957600080fd5b61101586828701610e69565b9094509250611028905060208501610fc9565b90509250925092565b6000806000806040858703121561104757600080fd5b843567ffffffffffffffff8082111561105f57600080fd5b61106b88838901610e69565b9096509450602087013591508082111561108457600080fd5b5061109187828801610e69565b95989497509550505050565b6000602082840312156110af57600080fd5b8151610fc281610eb5565b634e487b7160e01b600052603260045260246000fd5b634e487b7160e01b600052602160045260246000fd5b6005811061110457634e487b7160e01b600052602160045260246000fd5b9052565b8183526000602080850194508260005b85811015611142576111328761112d84610f39565b6110e6565b9582019590820190600101611118565b509495945050505050565b602081526000611161602083018486611108565b949350505050565b60006020828403121561117b57600080fd5b610fc282610fc9565b604081526000611198604083018688611108565b8281036020848101919091528482528591810160005b868110156111d75763ffffffff6111c485610fc9565b16825292820192908201906001016111ae565b5098975050505050505050565b818103818111156107a457634e487b7160e01b600052601160045260246000fd5b634e487b7160e01b600052604160045260246000fd5b6000602080838503121561122e57600080fd5b825167ffffffffffffffff8082111561124657600080fd5b818501915085601f83011261125a57600080fd5b81518181111561126c5761126c611205565b8060051b604051601f19603f8301168101818110858211171561129157611291611205565b6040529182528482019250838101850191888311156112af57600080fd5b938501935b828510156112cd578451845293850193928501926112b4565b98975050505050505050565b60008151808452602080850194506020840160005b83811015611142578151875295820195908201906001016112ee565b63ffffffff8716815285602082015284604082015283606082015260c06080820152600061133b60c08301856112d9565b82810360a084015261134d81856112d9565b9998505050505050505050565b6001600160a01b0387811682528616602082015260c060408201819052600090611386908301876112d9565b828103606084015261139881876112d9565b9150508360808301526113ae60a08301846110e6565b979650505050505050565b6000825160005b818110156113da57602081860181015185830152016113c0565b50600092019182525091905056fe4143434f554e545f4d494e5f4d41585f544f4b454e5f42414c414e4345000000a2646970667358221220c6b3d416d589def7bfc398a25c1fd2ae0d6983d9e516c63dac5a68cd9f2f069064736f6c63430008180033","linkReferences":{}},"methodIdentifiers":{"activateAccountMinMaxTokenBalance(uint8[],bool)":"3646fa14","checkTaggedAndTradingRules(uint256,uint256,address,address,uint256,uint8)":"36bd6ea7","getAccountMinMaxTokenBalanceId(uint8)":"ef7c1e8b","isAccountMinMaxTokenBalanceActive(uint8)":"c002edf7","setAccountMinMaxTokenBalanceId(uint8[],uint32)":"f73e2faa","setAccountMinMaxTokenBalanceIdFull(uint8[],uint32[])":"fea1e222"},"id":173}