{"abi":[{"type":"function","name":"checkAccountMaxTxValueByRiskScore","inputs":[{"name":"ruleId","type":"uint32","internalType":"uint32"},{"name":"_valueTransactedInPeriod","type":"uint128","internalType":"uint128"},{"name":"txValue","type":"uint128","internalType":"uint128"},{"name":"lastTxDate","type":"uint64","internalType":"uint64"},{"name":"_riskScore","type":"uint8","internalType":"uint8"}],"outputs":[{"name":"","type":"uint128","internalType":"uint128"}],"stateMutability":"view"},{"type":"function","name":"checkAccountMaxValueByRiskScore","inputs":[{"name":"_ruleId","type":"uint32","internalType":"uint32"},{"name":"_toAddress","type":"address","internalType":"address"},{"name":"_riskScore","type":"uint8","internalType":"uint8"},{"name":"_totalValueTo","type":"uint128","internalType":"uint128"},{"name":"_amountToTransfer","type":"uint128","internalType":"uint128"}],"outputs":[],"stateMutability":"view"},{"type":"function","name":"getAccountMaxTxValueByRiskScore","inputs":[{"name":"_index","type":"uint32","internalType":"uint32"}],"outputs":[{"name":"","type":"tuple","internalType":"struct IApplicationRules.AccountMaxTxValueByRiskScore","components":[{"name":"maxValue","type":"uint48[]","internalType":"uint48[]"},{"name":"riskScore","type":"uint8[]","internalType":"uint8[]"},{"name":"period","type":"uint16","internalType":"uint16"},{"name":"startTime","type":"uint64","internalType":"uint64"}]}],"stateMutability":"view"},{"type":"function","name":"getAccountMaxValueByRiskScore","inputs":[{"name":"_index","type":"uint32","internalType":"uint32"}],"outputs":[{"name":"","type":"tuple","internalType":"struct IApplicationRules.AccountMaxValueByRiskScore","components":[{"name":"riskScore","type":"uint8[]","internalType":"uint8[]"},{"name":"maxValue","type":"uint48[]","internalType":"uint48[]"}]}],"stateMutability":"view"},{"type":"function","name":"getTotalAccountMaxTxValueByRiskScore","inputs":[],"outputs":[{"name":"","type":"uint32","internalType":"uint32"}],"stateMutability":"view"},{"type":"function","name":"getTotalAccountMaxValueByRiskScore","inputs":[],"outputs":[{"name":"","type":"uint32","internalType":"uint32"}],"stateMutability":"view"},{"type":"error","name":"CantMixPeriodicAndNonPeriodic","inputs":[]},{"type":"error","name":"IndexOutOfRange","inputs":[]},{"type":"error","name":"InputArraysMustHaveSameLength","inputs":[]},{"type":"error","name":"InputArraysSizesNotValid","inputs":[]},{"type":"error","name":"InvalidOracleType","inputs":[{"name":"_type","type":"uint8","internalType":"uint8"}]},{"type":"error","name":"InvalidRuleInput","inputs":[]},{"type":"error","name":"InvertedLimits","inputs":[]},{"type":"error","name":"NotEnoughBalance","inputs":[]},{"type":"error","name":"OverMaxAccValueByRiskScore","inputs":[]},{"type":"error","name":"OverMaxTxValueByRiskScore","inputs":[{"name":"riskScore","type":"uint8","internalType":"uint8"},{"name":"maxTxSize","type":"uint256","internalType":"uint256"}]},{"type":"error","name":"RuleDoesNotExist","inputs":[]},{"type":"error","name":"RuleDoesNotExist","inputs":[]},{"type":"error","name":"ValueOutOfRange","inputs":[{"name":"_value","type":"uint256","internalType":"uint256"}]},{"type":"error","name":"WrongArrayOrder","inputs":[]},{"type":"error","name":"ZeroValueNotPermited","inputs":[]}],"bytecode":{"object":"0x608060405234801561001057600080fd5b50610b5c806100206000396000f3fe608060405234801561001057600080fd5b50600436106100625760003560e01c8063301d8397146100675780634fae1e2e146100895780636d36d620146100a95780638d8c4730146100d4578063dcc0587f146100e9578063f506d02314610109575b600080fd5b61006f610111565b60405163ffffffff90911681526020015b60405180910390f35b61009c610097366004610828565b61012c565b60405161008091906108bb565b6100bc6100b736600461091c565b6102af565b6040516001600160801b039091168152602001610080565b6100e76100e2366004610990565b6103a5565b005b6100fc6100f7366004610828565b61043d565b60405161008091906109f7565b61006f6105e5565b60008061011c6105f0565b6001015463ffffffff1692915050565b6040805180820190915260608082526020820152600061014a6105f0565b9050610167610157610111565b63ffffffff808616919061062416565b600181015463ffffffff9081169084161061019557604051631390f2a160e01b815260040160405180910390fd5b63ffffffff831660009081526020828152604091829020825181546060938102820184018552938101848152909391928492849184018282801561021657602002820191906000526020600020906000905b825461010083900a900460ff168152602060019283018181049485019490930390920291018084116101e75790505b505050505081526020016001820180548060200260200160405190810160405280929190818152602001828054801561029e57602002820191906000526020600020906000905b82829054906101000a900465ffffffffffff1665ffffffffffff168152602001906006019060208260050104928301926001038202915080841161025d5790505b505050505081525050915050919050565b60008060006102bd8861043d565b90506000816040015161ffff166000141580156103005750610300826040015161ffff1687846060015167ffffffffffffffff166106549092919063ffffffff16565b61030a5786610314565b6103148888610a75565b9050816020015160008151811061032d5761032d610a9c565b602002602001015160ff168560ff161061039257602082015182516103569160ff8816916106d6565b925082816001600160801b0316111561039257604051636720360b60e11b815260ff861660048201526024810184905260440160405180910390fd5b925061039c915050565b95945050505050565b60006103b08661012c565b905060006001600160a01b0386161561043457815180516000906103d6576103d6610a9c565b602002602001015160ff168560ff161061043457815160208301516103ff9160ff8816916106d6565b90508061040c8486610a75565b6001600160801b0316111561043457604051634189123760e11b815260040160405180910390fd5b50505050505050565b6040805160808101825260608082526020820181905260009282018390528101829052906104696107e1565b90506104766101576105e5565b600181015463ffffffff908116908416106104a457604051631390f2a160e01b815260040160405180910390fd5b63ffffffff8316600090815260208281526040918290208251815460a09381028201840190945260808101848152909391928492849184018282801561053957602002820191906000526020600020906000905b82829054906101000a900465ffffffffffff1665ffffffffffff16815260200190600601906020826005010492830192600103820291508084116104f85790505b50505050508152602001600182018054806020026020016040519081016040528092919081815260200182805480156105af57602002820191906000526020600020906000905b825461010083900a900460ff168152602060019283018181049485019490930390920291018084116105805790505b50505091835250506002919091015461ffff8116602083015262010000900467ffffffffffffffff166040909101529392505050565b60008061011c6107e1565b60008061061e60017f4ad28c94cb815a5bc8c4c7a6826bafcf87389a6ca864ba468204d2b980cfcd5f610ab2565b92915050565b8163ffffffff168163ffffffff1611610650576040516325ef9da360e11b815260040160405180910390fd5b5050565b60008167ffffffffffffffff16600003610670575060006106cf565b600061067e84610e10610ac5565b63ffffffff1661069867ffffffffffffffff871642610ab2565b6106a29190610aed565b6106ac9042610ab2565b9050808367ffffffffffffffff16106106c95760019150506106cf565b60009150505b9392505050565b600060015b835181101561075a578381815181106106f6576106f6610a9c565b602002602001015160ff168560ff1610156107525782610717600183610ab2565b8151811061072757610727610a9c565b602002602001015165ffffffffffff16670de0b6b3a764000061074a9190610b0f565b9150506106cf565b6001016106db565b50826001845161076a9190610ab2565b8151811061077a5761077a610a9c565b602002602001015160ff168460ff16106107d757816001835161079d9190610ab2565b815181106107ad576107ad610a9c565b602002602001015165ffffffffffff16670de0b6b3a76400006107d09190610b0f565b90506106cf565b5060009392505050565b60008061061e60017f83267efb4f531fecf2aed040d8a6b66e44808d12f27a568b82ac7d35297d9fad610ab2565b803563ffffffff8116811461082357600080fd5b919050565b60006020828403121561083a57600080fd5b6106cf8261080f565b60008151808452602080850194506020840160005b8381101561087757815160ff1687529582019590820190600101610858565b509495945050505050565b60008151808452602080850194506020840160005b8381101561087757815165ffffffffffff1687529582019590820190600101610897565b6020815260008251604060208401526108d76060840182610843565b90506020840151601f1984830301604085015261039c8282610882565b80356001600160801b038116811461082357600080fd5b803560ff8116811461082357600080fd5b600080600080600060a0868803121561093457600080fd5b61093d8661080f565b945061094b602087016108f4565b9350610959604087016108f4565b9250606086013567ffffffffffffffff8116811461097657600080fd5b91506109846080870161090b565b90509295509295909350565b600080600080600060a086880312156109a857600080fd5b6109b18661080f565b945060208601356001600160a01b03811681146109cd57600080fd5b93506109db6040870161090b565b92506109e9606087016108f4565b9150610984608087016108f4565b602081526000825160806020840152610a1360a0840182610882565b90506020840151601f19848303016040850152610a308282610843565b91505061ffff604085015116606084015267ffffffffffffffff60608501511660808401528091505092915050565b634e487b7160e01b600052601160045260246000fd5b6001600160801b03818116838216019080821115610a9557610a95610a5f565b5092915050565b634e487b7160e01b600052603260045260246000fd5b8181038181111561061e5761061e610a5f565b63ffffffff818116838216028082169190828114610ae557610ae5610a5f565b505092915050565b600082610b0a57634e487b7160e01b600052601260045260246000fd5b500690565b808202811582820484141761061e5761061e610a5f56fea2646970667358221220d3003df5d44c015d2d3eacf8cbc5d9ffa908fc0833c704eec1ddde909c33969664736f6c63430008180033","linkReferences":{}},"methodIdentifiers":{"checkAccountMaxTxValueByRiskScore(uint32,uint128,uint128,uint64,uint8)":"6d36d620","checkAccountMaxValueByRiskScore(uint32,address,uint8,uint128,uint128)":"8d8c4730","getAccountMaxTxValueByRiskScore(uint32)":"dcc0587f","getAccountMaxValueByRiskScore(uint32)":"4fae1e2e","getTotalAccountMaxTxValueByRiskScore()":"f506d023","getTotalAccountMaxValueByRiskScore()":"301d8397"},"id":230}