{"abi":[{"type":"function","name":"activateAccountMinMaxTokenBalance","inputs":[{"name":"_actions","type":"uint8[]","internalType":"enum ActionTypes[]"},{"name":"_on","type":"bool","internalType":"bool"}],"outputs":[],"stateMutability":"nonpayable"},{"type":"function","name":"getAccountMinMaxTokenBalanceId","inputs":[{"name":"_action","type":"uint8","internalType":"enum ActionTypes"}],"outputs":[{"name":"","type":"uint32","internalType":"uint32"}],"stateMutability":"view"},{"type":"function","name":"isAccountMinMaxTokenBalanceActive","inputs":[{"name":"_action","type":"uint8","internalType":"enum ActionTypes"}],"outputs":[{"name":"","type":"bool","internalType":"bool"}],"stateMutability":"view"},{"type":"function","name":"setAccountMinMaxTokenBalanceId","inputs":[{"name":"_actions","type":"uint8[]","internalType":"enum ActionTypes[]"},{"name":"_ruleId","type":"uint32","internalType":"uint32"}],"outputs":[],"stateMutability":"nonpayable"},{"type":"function","name":"setAccountMinMaxTokenBalanceIdFull","inputs":[{"name":"_actions","type":"uint8[]","internalType":"enum ActionTypes[]"},{"name":"_ruleIds","type":"uint32[]","internalType":"uint32[]"}],"outputs":[],"stateMutability":"nonpayable"},{"type":"event","name":"AD1467_AppManagerAddressProposed","inputs":[{"name":"_address","type":"address","indexed":true,"internalType":"address"}],"anonymous":false},{"type":"event","name":"AD1467_AppManagerAddressSet","inputs":[{"name":"_address","type":"address","indexed":true,"internalType":"address"}],"anonymous":false},{"type":"event","name":"AD1467_ApplicationHandlerActionActivated","inputs":[{"name":"ruleType","type":"bytes32","indexed":true,"internalType":"bytes32"},{"name":"actions","type":"uint8[]","indexed":false,"internalType":"enum ActionTypes[]"}],"anonymous":false},{"type":"event","name":"AD1467_ApplicationHandlerActionApplied","inputs":[{"name":"ruleType","type":"bytes32","indexed":true,"internalType":"bytes32"},{"name":"action","type":"uint8","indexed":true,"internalType":"enum ActionTypes"},{"name":"ruleId","type":"uint32","indexed":true,"internalType":"uint32"}],"anonymous":false},{"type":"event","name":"AD1467_ApplicationHandlerActionAppliedFull","inputs":[{"name":"ruleType","type":"bytes32","indexed":true,"internalType":"bytes32"},{"name":"actions","type":"uint8[]","indexed":false,"internalType":"enum ActionTypes[]"},{"name":"ruleIds","type":"uint32[]","indexed":false,"internalType":"uint32[]"}],"anonymous":false},{"type":"event","name":"AD1467_ApplicationHandlerActionDeactivated","inputs":[{"name":"ruleType","type":"bytes32","indexed":true,"internalType":"bytes32"},{"name":"actions","type":"uint8[]","indexed":false,"internalType":"enum ActionTypes[]"}],"anonymous":false},{"type":"event","name":"AD1467_ERC721AddressSet","inputs":[{"name":"_address","type":"address","indexed":true,"internalType":"address"}],"anonymous":false},{"type":"event","name":"AD1467_FeeActivationSet","inputs":[{"name":"_activation","type":"bool","indexed":true,"internalType":"bool"}],"anonymous":false},{"type":"event","name":"AD1467_NFTValuationLimitUpdated","inputs":[{"name":"nftValuationLimit","type":"uint256","indexed":true,"internalType":"uint256"}],"anonymous":false},{"type":"error","name":"AccountApproveDenyOraclesPerAssetLimitReached","inputs":[]},{"type":"error","name":"AppManagerNotConnected","inputs":[]},{"type":"error","name":"BatchMintBurnNotSupported","inputs":[]},{"type":"error","name":"BelowMinAdminThreshold","inputs":[]},{"type":"error","name":"CannotTurnOffAccountDenyForNoAccessLevelWhileActive","inputs":[]},{"type":"error","name":"FeesAreGreaterThanTransactionAmount","inputs":[{"name":"","type":"address","internalType":"address"}]},{"type":"error","name":"InputArraysMustHaveSameLength","inputs":[]},{"type":"error","name":"InputArraysSizesNotValid","inputs":[]},{"type":"error","name":"InvalidAction","inputs":[]},{"type":"error","name":"NotAppAdministrator","inputs":[]},{"type":"error","name":"NotAppAdministratorOrOwner","inputs":[]},{"type":"error","name":"NotRuleAdministrator","inputs":[]},{"type":"error","name":"NotSuperAdmin","inputs":[{"name":"","type":"address","internalType":"address"}]},{"type":"error","name":"PeriodExceeds5Years","inputs":[]},{"type":"error","name":"ZeroValueNotPermited","inputs":[]},{"type":"error","name":"actionCheckFailed","inputs":[]}],"bytecode":{"object":"0x608060405234801561001057600080fd5b50610ccf806100206000396000f3fe608060405234801561001057600080fd5b50600436106100575760003560e01c80633646fa141461005c578063c002edf714610071578063ef7c1e8b14610099578063f73e2faa146100c1578063fea1e222146100d4575b600080fd5b61006f61006a3660046109bb565b6100e7565b005b61008461007f366004610a26565b6102e7565b60405190151581526020015b60405180910390f35b6100ac6100a7366004610a26565b610338565b60405163ffffffff9091168152602001610090565b61006f6100cf366004610a5c565b610384565b61006f6100e2366004610ab0565b61057a565b6100ef61074a565b600201546001600160a01b03168061011a576040516371724ffd60e01b815260040160405180910390fd5b806001600160a01b03811663d4a7db7f336040516001600160e01b031960e084901b1681526001600160a01b039091166004820152602401602060405180830381865afa15801561016f573d6000803e3d6000fd5b505050506040513d601f19601f820116820180604052508101906101939190610b1c565b6101b057604051631acd860160e31b815260040160405180910390fd5b60005b8481101561024357836101c461077e565b60008888858181106101d8576101d8610b39565b90506020020160208101906101ed9190610a26565b60048111156101fe576101fe610b4f565b600481111561020f5761020f610b4f565b8152602081019190915260400160002080549115156401000000000264ff00000000199092169190911790556001016101b3565b50821561029757600080516020610c7a8339815191527f4dfa26a794eb61a703a2beac482f06b4372aed0b7c0d6b4490db416146d8e32e868660405161028a929190610bc1565b60405180910390a26102e0565b600080516020610c7a8339815191527fe67b4c6b446d2563a2a39eb75b71127a3f908bcfcef4f7c89bd9e1b3ef39d15e86866040516102d7929190610bc1565b60405180910390a25b5050505050565b60006102f161077e565b600083600481111561030557610305610b4f565b600481111561031657610316610b4f565b8152602081019190915260400160002054640100000000900460ff1692915050565b600061034261077e565b600083600481111561035657610356610b4f565b600481111561036757610367610b4f565b815260208101919091526040016000205463ffffffff1692915050565b61038c61074a565b600201546001600160a01b0316806103b7576040516371724ffd60e01b815260040160405180910390fd5b806001600160a01b03811663d4a7db7f336040516001600160e01b031960e084901b1681526001600160a01b039091166004820152602401602060405180830381865afa15801561040c573d6000803e3d6000fd5b505050506040513d601f19601f820116820180604052508101906104309190610b1c565b61044d57604051631acd860160e31b815260040160405180910390fd5b61045561074a565b60010154604051630323949d60e11b815263ffffffff851660048201526001600160a01b0390911690630647293a9060240160006040518083038186803b15801561049f57600080fd5b505afa1580156104b3573d6000803e3d6000fd5b5050505060005b84811015610572576104f28686838181106104d7576104d7610b39565b90506020020160208101906104ec9190610a26565b856107ac565b8363ffffffff1686868381811061050b5761050b610b39565b90506020020160208101906105209190610a26565b600481111561053157610531610b4f565b604051600080516020610c7a833981519152907f4f87ac5c7868c692420a972d0f84fa7750afbf2b8a09848fefc355020bce707b90600090a46001016104ba565b505050505050565b61058261074a565b600201546001600160a01b0316806105ad576040516371724ffd60e01b815260040160405180910390fd5b806001600160a01b03811663d4a7db7f336040516001600160e01b031960e084901b1681526001600160a01b039091166004820152602401602060405180830381865afa158015610602573d6000803e3d6000fd5b505050506040513d601f19601f820116820180604052508101906106269190610b1c565b61064357604051631acd860160e31b815260040160405180910390fd5b600085900361066557604051633f4ab26f60e21b815260040160405180910390fd5b8483146106845760405162514d8b60e31b815260040160405180910390fd5b61068c6108d4565b60005b858110156106f5576106ed8787838181106106ac576106ac610b39565b90506020020160208101906106c19190610a26565b8686848181106106d3576106d3610b39565b90506020020160208101906106e89190610bdd565b6107ac565b60010161068f565b50600080516020610c7a8339815191527ffce5ba10ca670317c4ad6aaf14bfb5c4467bb4415ab89dafce1434471a2271268787878760405161073a9493929190610bf8565b60405180910390a2505050505050565b60008061077860017f1c7e9355957c344e150b07462120dcb6c99b078e258444a7cd1841042fa7f14b610c58565b92915050565b60008061077860017fbc463ab2d65bd13bd1a2f37dce1c0b9c2cb493cdca8db7ff84960ad794ba2caf610c58565b6107b461074a565b60010154604051630323949d60e11b815263ffffffff831660048201526001600160a01b0390911690630647293a9060240160006040518083038186803b1580156107fe57600080fd5b505afa158015610812573d6000803e3d6000fd5b50505050600061082061077e565b90508181600085600481111561083857610838610b4f565b600481111561084957610849610b4f565b815260200190815260200160002060000160006101000a81548163ffffffff021916908363ffffffff160217905550600181600001600085600481111561089257610892610b4f565b60048111156108a3576108a3610b4f565b8152602081019190915260400160002080549115156401000000000264ff0000000019909216919091179055505050565b60006108de61077e565b905060005b6108eb61074a565b60030154600160a01b900460ff16811161095a5781600082600481111561091457610914610b4f565b600481111561092557610925610b4f565b600481111561093657610936610b4f565b81526020810191909152604001600020805464ffffffffff191690556001016108e3565b5050565b60008083601f84011261097057600080fd5b50813567ffffffffffffffff81111561098857600080fd5b6020830191508360208260051b85010111156109a357600080fd5b9250929050565b80151581146109b857600080fd5b50565b6000806000604084860312156109d057600080fd5b833567ffffffffffffffff8111156109e757600080fd5b6109f38682870161095e565b9094509250506020840135610a07816109aa565b809150509250925092565b803560058110610a2157600080fd5b919050565b600060208284031215610a3857600080fd5b610a4182610a12565b9392505050565b803563ffffffff81168114610a2157600080fd5b600080600060408486031215610a7157600080fd5b833567ffffffffffffffff811115610a8857600080fd5b610a948682870161095e565b9094509250610aa7905060208501610a48565b90509250925092565b60008060008060408587031215610ac657600080fd5b843567ffffffffffffffff80821115610ade57600080fd5b610aea8883890161095e565b90965094506020870135915080821115610b0357600080fd5b50610b108782880161095e565b95989497509550505050565b600060208284031215610b2e57600080fd5b8151610a41816109aa565b634e487b7160e01b600052603260045260246000fd5b634e487b7160e01b600052602160045260246000fd5b818352600060208085019450826000805b86811015610bb557610b8783610a12565b60058110610ba357634e487b7160e01b83526021600452602483fd5b88529683019691830191600101610b76565b50959695505050505050565b602081526000610bd5602083018486610b65565b949350505050565b600060208284031215610bef57600080fd5b610a4182610a48565b604081526000610c0c604083018688610b65565b8281036020848101919091528482528591810160005b86811015610c4b5763ffffffff610c3885610a48565b1682529282019290820190600101610c22565b5098975050505050505050565b8181038181111561077857634e487b7160e01b600052601160045260246000fdfe4143434f554e545f4d494e5f4d41585f544f4b454e5f42414c414e4345000000a26469706673582212208a2726f88486ea0f8d147a465e93f24c0c692519a6cc7d609c6e050a382336cb64736f6c63430008180033","linkReferences":{}},"methodIdentifiers":{"activateAccountMinMaxTokenBalance(uint8[],bool)":"3646fa14","getAccountMinMaxTokenBalanceId(uint8)":"ef7c1e8b","isAccountMinMaxTokenBalanceActive(uint8)":"c002edf7","setAccountMinMaxTokenBalanceId(uint8[],uint32)":"f73e2faa","setAccountMinMaxTokenBalanceIdFull(uint8[],uint32[])":"fea1e222"},"id":186}