{"abi":[{"type":"function","name":"collectionPrice","inputs":[{"name":"","type":"address","internalType":"address"}],"outputs":[{"name":"","type":"uint256","internalType":"uint256"}],"stateMutability":"view"},{"type":"function","name":"getNFTCollectionPrice","inputs":[{"name":"nftContract","type":"address","internalType":"address"}],"outputs":[{"name":"price","type":"uint256","internalType":"uint256"}],"stateMutability":"view"},{"type":"function","name":"getNFTPrice","inputs":[{"name":"nftContract","type":"address","internalType":"address"},{"name":"id","type":"uint256","internalType":"uint256"}],"outputs":[{"name":"price","type":"uint256","internalType":"uint256"}],"stateMutability":"view"},{"type":"function","name":"nftPrice","inputs":[{"name":"","type":"address","internalType":"address"},{"name":"","type":"uint256","internalType":"uint256"}],"outputs":[{"name":"","type":"uint256","internalType":"uint256"}],"stateMutability":"view"},{"type":"function","name":"owner","inputs":[],"outputs":[{"name":"","type":"address","internalType":"address"}],"stateMutability":"view"},{"type":"function","name":"renounceOwnership","inputs":[],"outputs":[],"stateMutability":"nonpayable"},{"type":"function","name":"setNFTCollectionPrice","inputs":[{"name":"nftContract","type":"address","internalType":"address"},{"name":"price","type":"uint256","internalType":"uint256"}],"outputs":[],"stateMutability":"nonpayable"},{"type":"function","name":"setSingleNFTPrice","inputs":[{"name":"nftContract","type":"address","internalType":"address"},{"name":"id","type":"uint256","internalType":"uint256"},{"name":"price","type":"uint256","internalType":"uint256"}],"outputs":[],"stateMutability":"nonpayable"},{"type":"function","name":"transferOwnership","inputs":[{"name":"newOwner","type":"address","internalType":"address"}],"outputs":[],"stateMutability":"nonpayable"},{"type":"function","name":"version","inputs":[],"outputs":[{"name":"","type":"string","internalType":"string"}],"stateMutability":"pure"},{"type":"event","name":"AD1467_AppManagerAddressSet","inputs":[{"name":"_address","type":"address","indexed":true,"internalType":"address"}],"anonymous":false},{"type":"event","name":"AD1467_CollectionPrice","inputs":[{"name":"collection","type":"address","indexed":true,"internalType":"address"},{"name":"price","type":"uint256","indexed":true,"internalType":"uint256"}],"anonymous":false},{"type":"event","name":"AD1467_FeeType","inputs":[{"name":"tag","type":"bytes32","indexed":true,"internalType":"bytes32"},{"name":"add","type":"bool","indexed":true,"internalType":"bool"},{"name":"minBalance","type":"uint256","indexed":false,"internalType":"uint256"},{"name":"maxBalance","type":"uint256","indexed":false,"internalType":"uint256"},{"name":"feePercentage","type":"int256","indexed":false,"internalType":"int256"},{"name":"targetAccount","type":"address","indexed":false,"internalType":"address"}],"anonymous":false},{"type":"event","name":"AD1467_HandlerConnected","inputs":[{"name":"handlerAddress","type":"address","indexed":true,"internalType":"address"},{"name":"assetAddress","type":"address","indexed":true,"internalType":"address"}],"anonymous":false},{"type":"event","name":"AD1467_NewNFTDeployed","inputs":[{"name":"appManagerAddress","type":"address","indexed":true,"internalType":"address"}],"anonymous":false},{"type":"event","name":"AD1467_NewTokenDeployed","inputs":[{"name":"appManagerAddress","type":"address","indexed":true,"internalType":"address"}],"anonymous":false},{"type":"event","name":"AD1467_SingleTokenPrice","inputs":[{"name":"collection","type":"address","indexed":true,"internalType":"address"},{"name":"tokenID","type":"uint256","indexed":true,"internalType":"uint256"},{"name":"price","type":"uint256","indexed":true,"internalType":"uint256"}],"anonymous":false},{"type":"event","name":"AD1467_TokenPrice","inputs":[{"name":"token","type":"address","indexed":true,"internalType":"address"},{"name":"price","type":"uint256","indexed":true,"internalType":"uint256"}],"anonymous":false},{"type":"event","name":"OwnershipTransferred","inputs":[{"name":"previousOwner","type":"address","indexed":true,"internalType":"address"},{"name":"newOwner","type":"address","indexed":true,"internalType":"address"}],"anonymous":false},{"type":"error","name":"NotAnNFTContract","inputs":[{"name":"nftContract","type":"address","internalType":"address"}]}],"bytecode":{"object":"0x608060405234801561001057600080fd5b5061001a3361001f565b61006f565b600080546001600160a01b038381166001600160a01b0319831681178455604051919092169283917f8be0079c531659141344cd1fd0a4f28419497f9722a3daafe3b4186f6b6457e09190a35050565b61069f8061007e6000396000f3fe608060405234801561001057600080fd5b506004361061009e5760003560e01c80638da5cb5b116100665780638da5cb5b14610152578063bc2417931461016d578063e61b6a1614610180578063f2fde38b146101a0578063f3bb9fa6146101b357600080fd5b806354fd4d50146100a35780635586d150146100d35780636a8838761461010a578063715018a61461011f57806385ed8d4b14610127575b600080fd5b60408051808201825260058152640312e312e360dc1b602082015290516100ca9190610586565b60405180910390f35b6100fc6100e13660046105f1565b6001600160a01b031660009081526002602052604090205490565b6040519081526020016100ca565b61011d61011836600461060c565b6101c6565b005b61011d61027e565b6100fc61013536600461063f565b600160209081526000928352604080842090915290825290205481565b6000546040516001600160a01b0390911681526020016100ca565b6100fc61017b36600461063f565b610292565b6100fc61018e3660046105f1565b60026020526000908152604090205481565b61011d6101ae3660046105f1565b6102e6565b61011d6101c136600461063f565b61035f565b6101ce610404565b6101e86001600160a01b0384166380ac58cd60e01b61045e565b15610218576001600160a01b03831660009081526001602090815260408083208584529091529020819055610241565b60405163930bba6160e01b81526001600160a01b03841660048201526024015b60405180910390fd5b8082846001600160a01b03167f88a0337617143a16c1f4be178d1d97921625679e5f011391a4750448702571a460405160405180910390a4505050565b610286610404565b610290600061047a565b565b6001600160a01b03821660009081526001602090815260408083208484529091528120548082036102dd5750506001600160a01b0382166000908152600260205260409020546102e0565b90505b92915050565b6102ee610404565b6001600160a01b0381166103535760405162461bcd60e51b815260206004820152602660248201527f4f776e61626c653a206e6577206f776e657220697320746865207a65726f206160448201526564647265737360d01b6064820152608401610238565b61035c8161047a565b50565b610367610404565b6103816001600160a01b0383166380ac58cd60e01b61045e565b156103a6576001600160a01b03821660009081526002602052604090208190556103ca565b60405163930bba6160e01b81526001600160a01b0383166004820152602401610238565b60405181906001600160a01b038416907f4f64c7b8ad2e7dbb24ccb441fc295b758278067f4ae85efa45c5eacb2a6494a990600090a35050565b6000546001600160a01b031633146102905760405162461bcd60e51b815260206004820181905260248201527f4f776e61626c653a2063616c6c6572206973206e6f7420746865206f776e65726044820152606401610238565b6000610469836104ca565b80156102dd57506102dd83836104fd565b600080546001600160a01b038381166001600160a01b0319831681178455604051919092169283917f8be0079c531659141344cd1fd0a4f28419497f9722a3daafe3b4186f6b6457e09190a35050565b60006104dd826301ffc9a760e01b6104fd565b80156102e057506104f6826001600160e01b03196104fd565b1592915050565b604080516001600160e01b03198316602480830191909152825180830390910181526044909101909152602080820180516001600160e01b03166301ffc9a760e01b178152825160009392849283928392918391908a617530fa92503d9150600051905082801561056f575060208210155b801561057b5750600081115b979650505050505050565b60006020808352835180602085015260005b818110156105b457858101830151858201604001528201610598565b506000604082860101526040601f19601f8301168501019250505092915050565b80356001600160a01b03811681146105ec57600080fd5b919050565b60006020828403121561060357600080fd5b6102dd826105d5565b60008060006060848603121561062157600080fd5b61062a846105d5565b95602085013595506040909401359392505050565b6000806040838503121561065257600080fd5b61065b836105d5565b94602093909301359350505056fea2646970667358221220ba7089bc14f493b5d942f2043cf1e017cd6e376ada990f51ecc7d63377f21f6d64736f6c63430008180033","linkReferences":{}},"methodIdentifiers":{"collectionPrice(address)":"e61b6a16","getNFTCollectionPrice(address)":"5586d150","getNFTPrice(address,uint256)":"bc241793","nftPrice(address,uint256)":"85ed8d4b","owner()":"8da5cb5b","renounceOwnership()":"715018a6","setNFTCollectionPrice(address,uint256)":"f3bb9fa6","setSingleNFTPrice(address,uint256,uint256)":"6a883876","transferOwnership(address)":"f2fde38b","version()":"54fd4d50"},"id":214}