{"abi":[{"type":"constructor","inputs":[{"name":"root","type":"address","internalType":"address"},{"name":"_appName","type":"string","internalType":"string"},{"name":"upgradeMode","type":"bool","internalType":"bool"}],"stateMutability":"nonpayable"},{"type":"function","name":"DEFAULT_ADMIN_ROLE","inputs":[],"outputs":[{"name":"","type":"bytes32","internalType":"bytes32"}],"stateMutability":"view"},{"type":"function","name":"activatePauseRuleCheck","inputs":[{"name":"_on","type":"bool","internalType":"bool"}],"outputs":[],"stateMutability":"nonpayable"},{"type":"function","name":"addAccessLevel","inputs":[{"name":"_account","type":"address","internalType":"address"},{"name":"_level","type":"uint8","internalType":"uint8"}],"outputs":[],"stateMutability":"nonpayable"},{"type":"function","name":"addAccessLevelAdmin","inputs":[{"name":"account","type":"address","internalType":"address"}],"outputs":[],"stateMutability":"nonpayable"},{"type":"function","name":"addAccessLevelToMultipleAccounts","inputs":[{"name":"_accounts","type":"address[]","internalType":"address[]"},{"name":"_level","type":"uint8","internalType":"uint8"}],"outputs":[],"stateMutability":"nonpayable"},{"type":"function","name":"addAppAdministrator","inputs":[{"name":"account","type":"address","internalType":"address"}],"outputs":[],"stateMutability":"nonpayable"},{"type":"function","name":"addMultipleAccessLevelAdmins","inputs":[{"name":"account","type":"address[]","internalType":"address[]"}],"outputs":[],"stateMutability":"nonpayable"},{"type":"function","name":"addMultipleAccessLevels","inputs":[{"name":"_accounts","type":"address[]","internalType":"address[]"},{"name":"_level","type":"uint8[]","internalType":"uint8[]"}],"outputs":[],"stateMutability":"nonpayable"},{"type":"function","name":"addMultipleAppAdministrator","inputs":[{"name":"_accounts","type":"address[]","internalType":"address[]"}],"outputs":[],"stateMutability":"nonpayable"},{"type":"function","name":"addMultipleRiskAdmin","inputs":[{"name":"account","type":"address[]","internalType":"address[]"}],"outputs":[],"stateMutability":"nonpayable"},{"type":"function","name":"addMultipleRiskScores","inputs":[{"name":"_accounts","type":"address[]","internalType":"address[]"},{"name":"_scores","type":"uint8[]","internalType":"uint8[]"}],"outputs":[],"stateMutability":"nonpayable"},{"type":"function","name":"addMultipleRuleAdministrator","inputs":[{"name":"account","type":"address[]","internalType":"address[]"}],"outputs":[],"stateMutability":"nonpayable"},{"type":"function","name":"addMultipleRuleBypassAccounts","inputs":[{"name":"_accounts","type":"address[]","internalType":"address[]"}],"outputs":[],"stateMutability":"nonpayable"},{"type":"function","name":"addMultipleTagToMultipleAccounts","inputs":[{"name":"_accounts","type":"address[]","internalType":"address[]"},{"name":"_tags","type":"bytes32[]","internalType":"bytes32[]"}],"outputs":[],"stateMutability":"nonpayable"},{"type":"function","name":"addPauseRule","inputs":[{"name":"_pauseStart","type":"uint64","internalType":"uint64"},{"name":"_pauseStop","type":"uint64","internalType":"uint64"}],"outputs":[],"stateMutability":"nonpayable"},{"type":"function","name":"addRiskAdmin","inputs":[{"name":"account","type":"address","internalType":"address"}],"outputs":[],"stateMutability":"nonpayable"},{"type":"function","name":"addRiskScore","inputs":[{"name":"_account","type":"address","internalType":"address"},{"name":"_score","type":"uint8","internalType":"uint8"}],"outputs":[],"stateMutability":"nonpayable"},{"type":"function","name":"addRiskScoreToMultipleAccounts","inputs":[{"name":"_accounts","type":"address[]","internalType":"address[]"},{"name":"_score","type":"uint8","internalType":"uint8"}],"outputs":[],"stateMutability":"nonpayable"},{"type":"function","name":"addRuleAdministrator","inputs":[{"name":"account","type":"address","internalType":"address"}],"outputs":[],"stateMutability":"nonpayable"},{"type":"function","name":"addRuleBypassAccount","inputs":[{"name":"account","type":"address","internalType":"address"}],"outputs":[],"stateMutability":"nonpayable"},{"type":"function","name":"addTag","inputs":[{"name":"_account","type":"address","internalType":"address"},{"name":"_tag","type":"bytes32","internalType":"bytes32"}],"outputs":[],"stateMutability":"nonpayable"},{"type":"function","name":"addTagToMultipleAccounts","inputs":[{"name":"_accounts","type":"address[]","internalType":"address[]"},{"name":"_tag","type":"bytes32","internalType":"bytes32"}],"outputs":[],"stateMutability":"nonpayable"},{"type":"function","name":"applicationHandler","inputs":[],"outputs":[{"name":"","type":"address","internalType":"contract ProtocolApplicationHandler"}],"stateMutability":"view"},{"type":"function","name":"approveAddressToTradingRuleAllowlist","inputs":[{"name":"_address","type":"address","internalType":"address"},{"name":"isApproved","type":"bool","internalType":"bool"}],"outputs":[],"stateMutability":"nonpayable"},{"type":"function","name":"checkApplicationRules","inputs":[{"name":"_tokenAddress","type":"address","internalType":"address"},{"name":"_from","type":"address","internalType":"address"},{"name":"_to","type":"address","internalType":"address"},{"name":"_amount","type":"uint256","internalType":"uint256"},{"name":"_nftValuationLimit","type":"uint16","internalType":"uint16"},{"name":"_tokenId","type":"uint256","internalType":"uint256"},{"name":"_action","type":"uint8","internalType":"enum ActionTypes"},{"name":"_handlerType","type":"uint8","internalType":"enum HandlerTypes"}],"outputs":[],"stateMutability":"nonpayable"},{"type":"function","name":"cleanOutdatedRules","inputs":[],"outputs":[],"stateMutability":"nonpayable"},{"type":"function","name":"confirmAppManager","inputs":[{"name":"_assetAddress","type":"address","internalType":"address"}],"outputs":[],"stateMutability":"nonpayable"},{"type":"function","name":"confirmDataContractMigration","inputs":[{"name":"_oldAppManagerAddress","type":"address","internalType":"address"}],"outputs":[],"stateMutability":"nonpayable"},{"type":"function","name":"confirmNewDataProvider","inputs":[{"name":"_providerType","type":"uint8","internalType":"enum IDataModule.ProviderType"}],"outputs":[],"stateMutability":"nonpayable"},{"type":"function","name":"confirmSuperAdmin","inputs":[],"outputs":[],"stateMutability":"nonpayable"},{"type":"function","name":"deRegisterAMM","inputs":[{"name":"_AMMAddress","type":"address","internalType":"address"}],"outputs":[],"stateMutability":"nonpayable"},{"type":"function","name":"deRegisterTreasury","inputs":[{"name":"_treasuryAddress","type":"address","internalType":"address"}],"outputs":[],"stateMutability":"nonpayable"},{"type":"function","name":"deregisterToken","inputs":[{"name":"_tokenId","type":"string","internalType":"string"}],"outputs":[],"stateMutability":"nonpayable"},{"type":"function","name":"getAccessLevel","inputs":[{"name":"_account","type":"address","internalType":"address"}],"outputs":[{"name":"","type":"uint8","internalType":"uint8"}],"stateMutability":"view"},{"type":"function","name":"getAccessLevelDataAddress","inputs":[],"outputs":[{"name":"","type":"address","internalType":"address"}],"stateMutability":"view"},{"type":"function","name":"getAccessLevelProvider","inputs":[],"outputs":[{"name":"","type":"address","internalType":"address"}],"stateMutability":"view"},{"type":"function","name":"getAccountDataAddress","inputs":[],"outputs":[{"name":"","type":"address","internalType":"address"}],"stateMutability":"view"},{"type":"function","name":"getAccountProvider","inputs":[],"outputs":[{"name":"","type":"address","internalType":"address"}],"stateMutability":"view"},{"type":"function","name":"getAllTags","inputs":[{"name":"_address","type":"address","internalType":"address"}],"outputs":[{"name":"","type":"bytes32[]","internalType":"bytes32[]"}],"stateMutability":"view"},{"type":"function","name":"getHandlerAddress","inputs":[],"outputs":[{"name":"","type":"address","internalType":"address"}],"stateMutability":"view"},{"type":"function","name":"getPauseRules","inputs":[],"outputs":[{"name":"","type":"tuple[]","internalType":"struct PauseRule[]","components":[{"name":"pauseStart","type":"uint64","internalType":"uint64"},{"name":"pauseStop","type":"uint64","internalType":"uint64"}]}],"stateMutability":"view"},{"type":"function","name":"getPauseRulesDataAddress","inputs":[],"outputs":[{"name":"","type":"address","internalType":"address"}],"stateMutability":"view"},{"type":"function","name":"getPauseRulesProvider","inputs":[],"outputs":[{"name":"","type":"address","internalType":"address"}],"stateMutability":"view"},{"type":"function","name":"getRiskDataAddress","inputs":[],"outputs":[{"name":"","type":"address","internalType":"address"}],"stateMutability":"view"},{"type":"function","name":"getRiskScore","inputs":[{"name":"_account","type":"address","internalType":"address"}],"outputs":[{"name":"","type":"uint8","internalType":"uint8"}],"stateMutability":"view"},{"type":"function","name":"getRiskScoresProvider","inputs":[],"outputs":[{"name":"","type":"address","internalType":"address"}],"stateMutability":"view"},{"type":"function","name":"getRoleAdmin","inputs":[{"name":"role","type":"bytes32","internalType":"bytes32"}],"outputs":[{"name":"","type":"bytes32","internalType":"bytes32"}],"stateMutability":"view"},{"type":"function","name":"getRoleMember","inputs":[{"name":"role","type":"bytes32","internalType":"bytes32"},{"name":"index","type":"uint256","internalType":"uint256"}],"outputs":[{"name":"","type":"address","internalType":"address"}],"stateMutability":"view"},{"type":"function","name":"getRoleMemberCount","inputs":[{"name":"role","type":"bytes32","internalType":"bytes32"}],"outputs":[{"name":"","type":"uint256","internalType":"uint256"}],"stateMutability":"view"},{"type":"function","name":"getTagProvider","inputs":[],"outputs":[{"name":"","type":"address","internalType":"address"}],"stateMutability":"view"},{"type":"function","name":"getTagsDataAddress","inputs":[],"outputs":[{"name":"","type":"address","internalType":"address"}],"stateMutability":"view"},{"type":"function","name":"getTokenAddress","inputs":[{"name":"_tokenId","type":"string","internalType":"string"}],"outputs":[{"name":"","type":"address","internalType":"address"}],"stateMutability":"view"},{"type":"function","name":"getTokenID","inputs":[{"name":"_tokenAddress","type":"address","internalType":"address"}],"outputs":[{"name":"","type":"string","internalType":"string"}],"stateMutability":"view"},{"type":"function","name":"getTokenList","inputs":[],"outputs":[{"name":"","type":"address[]","internalType":"address[]"}],"stateMutability":"view"},{"type":"function","name":"grantRole","inputs":[{"name":"role","type":"bytes32","internalType":"bytes32"},{"name":"account","type":"address","internalType":"address"}],"outputs":[],"stateMutability":"nonpayable"},{"type":"function","name":"hasRole","inputs":[{"name":"role","type":"bytes32","internalType":"bytes32"},{"name":"account","type":"address","internalType":"address"}],"outputs":[{"name":"","type":"bool","internalType":"bool"}],"stateMutability":"view"},{"type":"function","name":"hasTag","inputs":[{"name":"_account","type":"address","internalType":"address"},{"name":"_tag","type":"bytes32","internalType":"bytes32"}],"outputs":[{"name":"","type":"bool","internalType":"bool"}],"stateMutability":"view"},{"type":"function","name":"isAccessLevelAdmin","inputs":[{"name":"account","type":"address","internalType":"address"}],"outputs":[{"name":"","type":"bool","internalType":"bool"}],"stateMutability":"view"},{"type":"function","name":"isAppAdministrator","inputs":[{"name":"account","type":"address","internalType":"address"}],"outputs":[{"name":"","type":"bool","internalType":"bool"}],"stateMutability":"view"},{"type":"function","name":"isRegisteredAMM","inputs":[{"name":"_AMMAddress","type":"address","internalType":"address"}],"outputs":[{"name":"","type":"bool","internalType":"bool"}],"stateMutability":"view"},{"type":"function","name":"isRegisteredHandler","inputs":[{"name":"_address","type":"address","internalType":"address"}],"outputs":[{"name":"","type":"bool","internalType":"bool"}],"stateMutability":"view"},{"type":"function","name":"isRiskAdmin","inputs":[{"name":"account","type":"address","internalType":"address"}],"outputs":[{"name":"","type":"bool","internalType":"bool"}],"stateMutability":"view"},{"type":"function","name":"isRuleAdministrator","inputs":[{"name":"account","type":"address","internalType":"address"}],"outputs":[{"name":"","type":"bool","internalType":"bool"}],"stateMutability":"view"},{"type":"function","name":"isRuleBypassAccount","inputs":[{"name":"account","type":"address","internalType":"address"}],"outputs":[{"name":"","type":"bool","internalType":"bool"}],"stateMutability":"view"},{"type":"function","name":"isSuperAdmin","inputs":[{"name":"account","type":"address","internalType":"address"}],"outputs":[{"name":"","type":"bool","internalType":"bool"}],"stateMutability":"view"},{"type":"function","name":"isTradingRuleBypasser","inputs":[{"name":"_address","type":"address","internalType":"address"}],"outputs":[{"name":"","type":"bool","internalType":"bool"}],"stateMutability":"view"},{"type":"function","name":"isTreasury","inputs":[{"name":"_treasuryAddress","type":"address","internalType":"address"}],"outputs":[{"name":"","type":"bool","internalType":"bool"}],"stateMutability":"view"},{"type":"function","name":"proposeAccessLevelsProvider","inputs":[{"name":"_newProvider","type":"address","internalType":"address"}],"outputs":[],"stateMutability":"nonpayable"},{"type":"function","name":"proposeAccountsProvider","inputs":[{"name":"_newProvider","type":"address","internalType":"address"}],"outputs":[],"stateMutability":"nonpayable"},{"type":"function","name":"proposeDataContractMigration","inputs":[{"name":"_newOwner","type":"address","internalType":"address"}],"outputs":[],"stateMutability":"nonpayable"},{"type":"function","name":"proposeNewSuperAdmin","inputs":[{"name":"account","type":"address","internalType":"address"}],"outputs":[],"stateMutability":"nonpayable"},{"type":"function","name":"proposePauseRulesProvider","inputs":[{"name":"_newProvider","type":"address","internalType":"address"}],"outputs":[],"stateMutability":"nonpayable"},{"type":"function","name":"proposeRiskScoresProvider","inputs":[{"name":"_newProvider","type":"address","internalType":"address"}],"outputs":[],"stateMutability":"nonpayable"},{"type":"function","name":"proposeTagsProvider","inputs":[{"name":"_newProvider","type":"address","internalType":"address"}],"outputs":[],"stateMutability":"nonpayable"},{"type":"function","name":"registerAMM","inputs":[{"name":"_AMMAddress","type":"address","internalType":"address"}],"outputs":[],"stateMutability":"nonpayable"},{"type":"function","name":"registerToken","inputs":[{"name":"_token","type":"string","internalType":"string"},{"name":"_tokenAddress","type":"address","internalType":"address"}],"outputs":[],"stateMutability":"nonpayable"},{"type":"function","name":"registerTreasury","inputs":[{"name":"_treasuryAddress","type":"address","internalType":"address"}],"outputs":[],"stateMutability":"nonpayable"},{"type":"function","name":"removeAccessLevel","inputs":[{"name":"_account","type":"address","internalType":"address"}],"outputs":[],"stateMutability":"nonpayable"},{"type":"function","name":"removePauseRule","inputs":[{"name":"_pauseStart","type":"uint64","internalType":"uint64"},{"name":"_pauseStop","type":"uint64","internalType":"uint64"}],"outputs":[],"stateMutability":"nonpayable"},{"type":"function","name":"removeRiskScore","inputs":[{"name":"_account","type":"address","internalType":"address"}],"outputs":[],"stateMutability":"nonpayable"},{"type":"function","name":"removeTag","inputs":[{"name":"_account","type":"address","internalType":"address"},{"name":"_tag","type":"bytes32","internalType":"bytes32"}],"outputs":[],"stateMutability":"nonpayable"},{"type":"function","name":"renounceAccessLevelAdmin","inputs":[],"outputs":[],"stateMutability":"nonpayable"},{"type":"function","name":"renounceAppAdministrator","inputs":[],"outputs":[],"stateMutability":"nonpayable"},{"type":"function","name":"renounceRiskAdmin","inputs":[],"outputs":[],"stateMutability":"nonpayable"},{"type":"function","name":"renounceRole","inputs":[{"name":"role","type":"bytes32","internalType":"bytes32"},{"name":"account","type":"address","internalType":"address"}],"outputs":[],"stateMutability":"nonpayable"},{"type":"function","name":"renounceRuleAdministrator","inputs":[],"outputs":[],"stateMutability":"nonpayable"},{"type":"function","name":"renounceRuleBypassAccount","inputs":[],"outputs":[],"stateMutability":"nonpayable"},{"type":"function","name":"revokeRole","inputs":[{"name":"role","type":"bytes32","internalType":"bytes32"},{"name":"account","type":"address","internalType":"address"}],"outputs":[],"stateMutability":"nonpayable"},{"type":"function","name":"setAppName","inputs":[{"name":"_appName","type":"string","internalType":"string"}],"outputs":[],"stateMutability":"nonpayable"},{"type":"function","name":"setNewApplicationHandlerAddress","inputs":[{"name":"_newApplicationHandler","type":"address","internalType":"address"}],"outputs":[],"stateMutability":"nonpayable"},{"type":"function","name":"supportsInterface","inputs":[{"name":"interfaceId","type":"bytes4","internalType":"bytes4"}],"outputs":[{"name":"","type":"bool","internalType":"bool"}],"stateMutability":"view"},{"type":"function","name":"version","inputs":[],"outputs":[{"name":"","type":"string","internalType":"string"}],"stateMutability":"pure"},{"type":"event","name":"AD1467_AMMRegistered","inputs":[{"name":"_address","type":"address","indexed":true,"internalType":"address"}],"anonymous":false},{"type":"event","name":"AD1467_AccessLevelAdded","inputs":[{"name":"_address","type":"address","indexed":true,"internalType":"address"},{"name":"_level","type":"uint8","indexed":true,"internalType":"uint8"}],"anonymous":false},{"type":"event","name":"AD1467_AccessLevelAdmin","inputs":[{"name":"admin","type":"address","indexed":true,"internalType":"address"},{"name":"add","type":"bool","indexed":true,"internalType":"bool"}],"anonymous":false},{"type":"event","name":"AD1467_AccessLevelProviderSet","inputs":[{"name":"_address","type":"address","indexed":true,"internalType":"address"}],"anonymous":false},{"type":"event","name":"AD1467_AccessLevelRemoved","inputs":[{"name":"_address","type":"address","indexed":true,"internalType":"address"}],"anonymous":false},{"type":"event","name":"AD1467_AccountAdded","inputs":[{"name":"account","type":"address","indexed":true,"internalType":"address"}],"anonymous":false},{"type":"event","name":"AD1467_AccountProviderSet","inputs":[{"name":"_address","type":"address","indexed":true,"internalType":"address"}],"anonymous":false},{"type":"event","name":"AD1467_AccountRemoved","inputs":[{"name":"account","type":"address","indexed":true,"internalType":"address"}],"anonymous":false},{"type":"event","name":"AD1467_AppAdministrator","inputs":[{"name":"admin","type":"address","indexed":true,"internalType":"address"},{"name":"add","type":"bool","indexed":true,"internalType":"bool"}],"anonymous":false},{"type":"event","name":"AD1467_AppManagerAddressSet","inputs":[{"name":"_address","type":"address","indexed":true,"internalType":"address"}],"anonymous":false},{"type":"event","name":"AD1467_AppManagerDataUpgradeProposed","inputs":[{"name":"deployedAddress","type":"address","indexed":true,"internalType":"address"},{"name":"replacedAddress","type":"address","indexed":false,"internalType":"address"}],"anonymous":false},{"type":"event","name":"AD1467_AppManagerDeployed","inputs":[{"name":"superAndAppAdmin","type":"address","indexed":true,"internalType":"address"},{"name":"appName","type":"string","indexed":true,"internalType":"string"}],"anonymous":false},{"type":"event","name":"AD1467_AppManagerDeployedForUpgrade","inputs":[{"name":"superAndAppAdmin","type":"address","indexed":true,"internalType":"address"},{"name":"appName","type":"string","indexed":true,"internalType":"string"}],"anonymous":false},{"type":"event","name":"AD1467_AppNameChanged","inputs":[{"name":"appName","type":"string","indexed":true,"internalType":"string"}],"anonymous":false},{"type":"event","name":"AD1467_CollectionPrice","inputs":[{"name":"collection","type":"address","indexed":true,"internalType":"address"},{"name":"price","type":"uint256","indexed":true,"internalType":"uint256"}],"anonymous":false},{"type":"event","name":"AD1467_DataContractsMigrated","inputs":[{"name":"ownerAddress","type":"address","indexed":true,"internalType":"address"}],"anonymous":false},{"type":"event","name":"AD1467_FeeType","inputs":[{"name":"tag","type":"bytes32","indexed":true,"internalType":"bytes32"},{"name":"add","type":"bool","indexed":true,"internalType":"bool"},{"name":"minBalance","type":"uint256","indexed":false,"internalType":"uint256"},{"name":"maxBalance","type":"uint256","indexed":false,"internalType":"uint256"},{"name":"feePercentage","type":"int256","indexed":false,"internalType":"int256"},{"name":"targetAccount","type":"address","indexed":false,"internalType":"address"}],"anonymous":false},{"type":"event","name":"AD1467_HandlerConnected","inputs":[{"name":"handlerAddress","type":"address","indexed":true,"internalType":"address"},{"name":"assetAddress","type":"address","indexed":true,"internalType":"address"}],"anonymous":false},{"type":"event","name":"AD1467_NewNFTDeployed","inputs":[{"name":"appManagerAddress","type":"address","indexed":true,"internalType":"address"}],"anonymous":false},{"type":"event","name":"AD1467_NewTokenDeployed","inputs":[{"name":"appManagerAddress","type":"address","indexed":true,"internalType":"address"}],"anonymous":false},{"type":"event","name":"AD1467_PauseRuleEvent","inputs":[{"name":"pauseStart","type":"uint256","indexed":true,"internalType":"uint256"},{"name":"pauseStop","type":"uint256","indexed":true,"internalType":"uint256"},{"name":"add","type":"bool","indexed":true,"internalType":"bool"}],"anonymous":false},{"type":"event","name":"AD1467_PauseRuleProviderSet","inputs":[{"name":"_address","type":"address","indexed":true,"internalType":"address"}],"anonymous":false},{"type":"event","name":"AD1467_RemoveFromRegistry","inputs":[{"name":"contractName","type":"string","indexed":false,"internalType":"string"},{"name":"contractAddress","type":"address","indexed":false,"internalType":"address"}],"anonymous":false},{"type":"event","name":"AD1467_RiskAdmin","inputs":[{"name":"admin","type":"address","indexed":true,"internalType":"address"},{"name":"add","type":"bool","indexed":true,"internalType":"bool"}],"anonymous":false},{"type":"event","name":"AD1467_RiskProviderSet","inputs":[{"name":"_address","type":"address","indexed":true,"internalType":"address"}],"anonymous":false},{"type":"event","name":"AD1467_RiskScoreAdded","inputs":[{"name":"_address","type":"address","indexed":true,"internalType":"address"},{"name":"_score","type":"uint8","indexed":false,"internalType":"uint8"}],"anonymous":false},{"type":"event","name":"AD1467_RiskScoreRemoved","inputs":[{"name":"_address","type":"address","indexed":true,"internalType":"address"}],"anonymous":false},{"type":"event","name":"AD1467_RuleAdmin","inputs":[{"name":"admin","type":"address","indexed":true,"internalType":"address"},{"name":"add","type":"bool","indexed":true,"internalType":"bool"}],"anonymous":false},{"type":"event","name":"AD1467_RuleBypassAccount","inputs":[{"name":"bypassAccount","type":"address","indexed":true,"internalType":"address"},{"name":"add","type":"bool","indexed":true,"internalType":"bool"}],"anonymous":false},{"type":"event","name":"AD1467_SingleTokenPrice","inputs":[{"name":"collection","type":"address","indexed":true,"internalType":"address"},{"name":"tokenID","type":"uint256","indexed":true,"internalType":"uint256"},{"name":"price","type":"uint256","indexed":true,"internalType":"uint256"}],"anonymous":false},{"type":"event","name":"AD1467_SuperAdministrator","inputs":[{"name":"admin","type":"address","indexed":true,"internalType":"address"},{"name":"add","type":"bool","indexed":true,"internalType":"bool"}],"anonymous":false},{"type":"event","name":"AD1467_Tag","inputs":[{"name":"_address","type":"address","indexed":true,"internalType":"address"},{"name":"_tag","type":"bytes32","indexed":true,"internalType":"bytes32"},{"name":"add","type":"bool","indexed":true,"internalType":"bool"}],"anonymous":false},{"type":"event","name":"AD1467_TagAlreadyApplied","inputs":[{"name":"_address","type":"address","indexed":true,"internalType":"address"}],"anonymous":false},{"type":"event","name":"AD1467_TagProviderSet","inputs":[{"name":"_address","type":"address","indexed":true,"internalType":"address"}],"anonymous":false},{"type":"event","name":"AD1467_TokenNameUpdated","inputs":[{"name":"_token","type":"string","indexed":true,"internalType":"string"},{"name":"_address","type":"address","indexed":true,"internalType":"address"}],"anonymous":false},{"type":"event","name":"AD1467_TokenPrice","inputs":[{"name":"token","type":"address","indexed":true,"internalType":"address"},{"name":"price","type":"uint256","indexed":true,"internalType":"uint256"}],"anonymous":false},{"type":"event","name":"AD1467_TokenRegistered","inputs":[{"name":"_token","type":"string","indexed":true,"internalType":"string"},{"name":"_address","type":"address","indexed":true,"internalType":"address"}],"anonymous":false},{"type":"event","name":"AD1467_TradingRuleAddressAllowlist","inputs":[{"name":"_address","type":"address","indexed":true,"internalType":"address"},{"name":"isApproved","type":"bool","indexed":true,"internalType":"bool"}],"anonymous":false},{"type":"event","name":"AD1467_TreasuryRegistered","inputs":[{"name":"_address","type":"address","indexed":true,"internalType":"address"}],"anonymous":false},{"type":"event","name":"RoleAdminChanged","inputs":[{"name":"role","type":"bytes32","indexed":true,"internalType":"bytes32"},{"name":"previousAdminRole","type":"bytes32","indexed":true,"internalType":"bytes32"},{"name":"newAdminRole","type":"bytes32","indexed":true,"internalType":"bytes32"}],"anonymous":false},{"type":"event","name":"RoleGranted","inputs":[{"name":"role","type":"bytes32","indexed":true,"internalType":"bytes32"},{"name":"account","type":"address","indexed":true,"internalType":"address"},{"name":"sender","type":"address","indexed":true,"internalType":"address"}],"anonymous":false},{"type":"event","name":"RoleRevoked","inputs":[{"name":"role","type":"bytes32","indexed":true,"internalType":"bytes32"},{"name":"account","type":"address","indexed":true,"internalType":"address"},{"name":"sender","type":"address","indexed":true,"internalType":"address"}],"anonymous":false},{"type":"error","name":"AddressAlreadyRegistered","inputs":[]},{"type":"error","name":"AdminMinTokenBalanceisActive","inputs":[]},{"type":"error","name":"AppManagerNotConnected","inputs":[]},{"type":"error","name":"BelowMinAdminThreshold","inputs":[]},{"type":"error","name":"CantMixPeriodicAndNonPeriodic","inputs":[]},{"type":"error","name":"ConfirmerDoesNotMatchProposedAddress","inputs":[]},{"type":"error","name":"IndexOutOfRange","inputs":[]},{"type":"error","name":"InputArraysMustHaveSameLength","inputs":[]},{"type":"error","name":"InputArraysSizesNotValid","inputs":[]},{"type":"error","name":"InvalidOracleType","inputs":[{"name":"_type","type":"uint8","internalType":"uint8"}]},{"type":"error","name":"InvalidRuleInput","inputs":[]},{"type":"error","name":"InvertedLimits","inputs":[]},{"type":"error","name":"NoAddressToRemove","inputs":[]},{"type":"error","name":"NoProposalHasBeenMade","inputs":[]},{"type":"error","name":"NotAUser","inputs":[{"name":"_address","type":"address","internalType":"address"}]},{"type":"error","name":"NotAccessLevelAdministrator","inputs":[{"name":"_address","type":"address","internalType":"address"}]},{"type":"error","name":"NotAppAdministrator","inputs":[]},{"type":"error","name":"NotAppAdministratorOrOwner","inputs":[]},{"type":"error","name":"NotRegisteredHandler","inputs":[{"name":"","type":"address","internalType":"address"}]},{"type":"error","name":"NotRiskAdmin","inputs":[{"name":"_address","type":"address","internalType":"address"}]},{"type":"error","name":"NotRuleAdministrator","inputs":[]},{"type":"error","name":"NotSuperAdmin","inputs":[{"name":"","type":"address","internalType":"address"}]},{"type":"error","name":"PricingModuleNotConfigured","inputs":[{"name":"_erc20PricingAddress","type":"address","internalType":"address"},{"name":"nftPricingAddress","type":"address","internalType":"address"}]},{"type":"error","name":"ValueOutOfRange","inputs":[{"name":"_value","type":"uint256","internalType":"uint256"}]},{"type":"error","name":"WrongArrayOrder","inputs":[]},{"type":"error","name":"ZeroAddress","inputs":[]},{"type":"error","name":"ZeroValueNotPermited","inputs":[]}],"bytecode":{"object":"0x60806040523480156200001157600080fd5b5060405162009ff538038062009ff583398101604081905262000034916200069d565b60016002556200005460008051602062009fd583398151915284620002a5565b6200007e60008051602062009fb583398151915260008051602062009fd5833981519152620002d0565b620000b97f2104bd22bc71f1a868806c22aa1905dad25555696bbf4456c5b464b8d55f733560008051602062009fb5833981519152620002d0565b620000f47f870ee5500b98ca09b5fcd7de4a95293916740021c92172d268dad85baec3c85f60008051602062009fb5833981519152620002d0565b6200012f7f5ff038c4899bb7fbbc7cf40ef4accece5ebd324c2da5ab7db2c3b81e845e2a7a60008051602062009fb5833981519152620002d0565b6200016a7f5cb9147a971eae9c63c04beb424326d7db091a71473987979b49bb1e189f345760008051602062009fb5833981519152620002d0565b620001a560008051602062009fd58339815191527f16c600d7bfbb199b1bbbaaec72d225e1b669f7d0c812d7cafcf00672fb42b30d620002d0565b620001e07f16c600d7bfbb199b1bbbaaec72d225e1b669f7d0c812d7cafcf00672fb42b30d60008051602062009fd5833981519152620002d0565b600d620001ee83826200081a565b50806200025057620001ff6200031b565b816040516200020f9190620008e6565b604051908190038120906001600160a01b038516907f1e61c3dd5791558bf488a7c35e8966a12a825d329d5ea515b1991b217483cee190600090a36200029c565b81604051620002609190620008e6565b604051908190038120906001600160a01b038516907f0f2d99fca0368b79392cf96793d9fc61fc0861e5a3b6c9f84843e408ffbdefb890600090a35b50505062000904565b620002b18282620004f2565b6000828152600160205260409020620002cb908262000593565b505050565b600082815260208190526040808220600101805490849055905190918391839186917fbd79b86ffe0ab8e8776151514217cd7cacd52c909f66475c3af44e129f0b00ff9190a4505050565b306040516200032a9062000605565b6001600160a01b039091168152602001604051809103906000f08015801562000357573d6000803e3d6000fd5b50600380546001600160a01b0319166001600160a01b03929092169190911790556040513090620003889062000613565b6001600160a01b039091168152602001604051809103906000f080158015620003b5573d6000803e3d6000fd5b50600480546001600160a01b0319166001600160a01b03929092169190911790556040513090620003e69062000621565b6001600160a01b039091168152602001604051809103906000f08015801562000413573d6000803e3d6000fd5b50600580546001600160a01b0319166001600160a01b0392909216919091179055604051309062000444906200062f565b6001600160a01b039091168152602001604051809103906000f08015801562000471573d6000803e3d6000fd5b50600680546001600160a01b0319166001600160a01b03929092169190911790556040513090620004a2906200063d565b6001600160a01b039091168152602001604051809103906000f080158015620004cf573d6000803e3d6000fd5b50600780546001600160a01b0319166001600160a01b0392909216919091179055565b6000828152602081815260408083206001600160a01b038516845290915290205460ff166200058f576000828152602081815260408083206001600160a01b03851684529091529020805460ff191660011790556200054e3390565b6001600160a01b0316816001600160a01b0316837f2f8788117e7eff1d82e926ec794901d17c78024a50270940304540a733656f0d60405160405180910390a45b5050565b6000620005aa836001600160a01b038416620005b3565b90505b92915050565b6000818152600183016020526040812054620005fc57508154600181810184556000848152602080822090930184905584548482528286019093526040902091909155620005ad565b506000620005ad565b61099c80620058d283390190565b610deb806200626e83390190565b610e0a806200705983390190565b6112e98062007e6383390190565b610e69806200914c83390190565b634e487b7160e01b600052604160045260246000fd5b60005b838110156200067e57818101518382015260200162000664565b50506000910152565b805180151581146200069857600080fd5b919050565b600080600060608486031215620006b357600080fd5b83516001600160a01b0381168114620006cb57600080fd5b60208501519093506001600160401b0380821115620006e957600080fd5b818601915086601f830112620006fe57600080fd5b8151818111156200071357620007136200064b565b604051601f8201601f19908116603f011681019083821181831017156200073e576200073e6200064b565b816040528281528960208487010111156200075857600080fd5b6200076b83602083016020880162000661565b8096505050505050620007816040850162000687565b90509250925092565b600181811c908216806200079f57607f821691505b602082108103620007c057634e487b7160e01b600052602260045260246000fd5b50919050565b601f821115620002cb576000816000526020600020601f850160051c81016020861015620007f15750805b601f850160051c820191505b818110156200081257828155600101620007fd565b505050505050565b81516001600160401b038111156200083657620008366200064b565b6200084e816200084784546200078a565b84620007c6565b602080601f8311600181146200088657600084156200086d5750858301515b600019600386901b1c1916600185901b17855562000812565b600085815260208120601f198616915b82811015620008b75788860151825594840194600190910190840162000896565b5085821015620008d65787850151600019600388901b60f8161c191681555b5050505050600190811b01905550565b60008251620008fa81846020870162000661565b9190910192915050565b614fbe80620009146000396000f3fe608060405234801561001057600080fd5b50600436106105045760003560e01c80637069e99f11610299578063ca15c87311610167578063da517b67116100d9578063dfc4834d11610092578063dfc4834d14610bad578063e4a5a46514610bc0578063f142a46f14610bc8578063f84ed61d14610bdb578063f95228c014610bee578063f987b1481461072557600080fd5b8063da517b6714610b4e578063db6fb32514610568578063dc08706d14610b61578063ddbd94a914610b74578063df0a644614610b87578063df7f453b14610b9a57600080fd5b8063d019577a1161012b578063d019577a14610aed578063d37373ba14610b00578063d4a7db7f14610b13578063d4f9387014610b26578063d547741f14610b3b578063d881be2f1461092c57600080fd5b8063ca15c87314610a81578063ca3f1ede14610a94578063cc812f3a14610aa7578063ced6eae614610ac7578063cf1c6f6514610ada57600080fd5b8063964700c81161020b578063b1b65c35116101c4578063b1b65c3514610890578063b315cb3a14610a09578063b8396f5e14610a1c578063be4eb0c714610a2f578063c3c2ebbb14610a5b578063c409123614610a6e57600080fd5b8063964700c8146109895780639a4e34ba1461099c5780639fe3cd2a146109c8578063a217fddf146109db578063a5b73e7c146109e3578063aa62f1a4146109f657600080fd5b80637e8b87491161025d5780637e8b87491461091957806382654fe91461092c57806383d74cdc1461093d5780639010d07c1461095057806390d5a92c1461096357806391d148541461097657600080fd5b80637069e99f146108c557806375c5512a146108d8578063789d87a2146108e05780637bdc8bbf146108f35780637caca7d41461090657600080fd5b8063451babd8116103d65780635b9a94e41161034857806369f667ed1161030157806369f667ed146108575780636aa806a71461086a5780636db4a9c91461087d5780636dbda16a146108905780636e8bac51146108a15780636f9c83b8146108b457600080fd5b80635b9a94e4146107d35780635bc008a0146107e65780635eafd1081461080b57806361c698611461081e57806363f8071c14610831578063674b5e4d1461084457600080fd5b80634f3e59591161039a5780634f3e595914610725578063516f0a1b1461073657806354c615071461076257806354fd4d501461078e5780635548064f146107b8578063564f9db3146107c057600080fd5b8063451babd8146106dc57806345467e2d146106ef57806346f0ea20146106f75780634d98c79e1461070a5780634eec274c1461071d57600080fd5b806326a119291161047a578063388ff0c111610433578063388ff0c11461066a578063395a3f2b1461067d5780633ec7d69814610690578063417b0dd9146106a357806341b77fff146106b657806342456e77146106c957600080fd5b806326a11929146105f6578063273cbaa0146106095780632b124b791461061e5780632f2ff15d1461063157806336568abe1461064457806336f543751461065757600080fd5b806319d1c21d116104cc57806319d1c21d146105685780631b945a5d146105795780631bf31cee1461058c578063248a9ca31461059f57806325ed7d4a146105d057806325f4671c146105e357600080fd5b806301ffc9a714610509578063046e42a4146105315780630c631214146105565780630f7b66b61461053157806312be410014610560575b600080fd5b61051c6105173660046140a1565b610c01565b60405190151581526020015b60405180910390f35b6006546001600160a01b03165b6040516001600160a01b039091168152602001610528565b61055e610c2c565b005b61055e610c73565b6005546001600160a01b031661053e565b61055e6105873660046141e9565b610cdd565b61055e61059a366004614225565b610d30565b6105c26105ad366004614242565b60009081526020819052604090206001015490565b604051908152602001610528565b61055e6105de366004614269565b610d92565b61055e6105f1366004614225565b610e82565b61055e6106043660046142a2565b610f05565b610611610f86565b60405161052891906143a1565b61055e61062c3660046143c1565b610fe8565b61055e61063f3660046143de565b611408565b61055e6106523660046143de565b611449565b61055e6106653660046141e9565b611481565b61055e610678366004614225565b6114cf565b61055e61068b366004614225565b611561565b61055e61069e366004614403565b6115c3565b61055e6106b136600461442f565b61163f565b61051c6106c4366004614225565b611688565b61055e6106d73660046144f8565b6116a2565b61055e6106ea366004614526565b611759565b61055e6117ac565b600e5461053e906001600160a01b031681565b61055e61071836600461442f565b6117f3565b61055e61183d565b6007546001600160a01b031661053e565b61051c610744366004614225565b6001600160a01b03166000908152601b602052604090205460ff1690565b61051c610770366004614225565b6001600160a01b031660009081526012602052604090205460ff1690565b6040805180820190915260058152640312e312e360dc1b60208201525b6040516105289190614578565b61055e611950565b61055e6107ce366004614225565b611997565b61055e6107e1366004614225565b6119f7565b6107f96107f4366004614225565b611a89565b60405160ff9091168152602001610528565b61055e6108193660046145ab565b611afe565b61055e61082c366004614225565b611b4f565b6107ab61083f366004614225565b611b99565b61051c610852366004614225565b611c45565b61055e61086536600461461f565b611c5f565b61055e610878366004614225565b611e63565b61055e61088b366004614225565b611eaf565b6004546001600160a01b031661053e565b61055e6108af366004614225565b611f0f565b600f546001600160a01b031661053e565b61051c6108d3366004614225565b611fa1565b61055e611fbb565b61055e6108ee366004614225565b612002565b61055e610901366004614675565b6120c2565b61055e610914366004614225565b612261565b61055e610927366004614225565b6124a7565b6003546001600160a01b031661053e565b61055e61094b366004614225565b612509565b61053e61095e3660046146b6565b61259b565b61055e6109713660046146d8565b6125ba565b61051c6109843660046143de565b612604565b61055e6109973660046146d8565b61262d565b61051c6109aa366004614225565b6001600160a01b031660009081526018602052604090205460ff1690565b61055e6109d63660046141e9565b612676565b6105c2600081565b61055e6109f1366004614225565b6126c4565b61055e610a04366004614526565b612756565b61055e610a1736600461471e565b6127ab565b61055e610a2a3660046141e9565b6127f5565b61051c610a3d366004614225565b6001600160a01b03166000908152601d602052604090205460ff1690565b61051c610a69366004614225565b612843565b61053e610a7c366004614675565b61285d565b6105c2610a8f366004614242565b612892565b61055e610aa23660046141e9565b6128a9565b610aba610ab5366004614225565b6128f7565b6040516105289190614793565b61055e610ad5366004614225565b61296a565b61055e610ae8366004614225565b612e41565b61051c610afb3660046145ab565b612ea3565b61055e610b0e3660046145ab565b612f19565b61051c610b21366004614225565b612f6a565b610b2e612f84565b60405161052891906147a6565b61055e610b493660046143de565b612ffb565b61055e610b5c366004614225565b613062565b6107f9610b6f366004614225565b613122565b61055e610b823660046144f8565b613155565b61055e610b95366004614225565b613288565b61051c610ba8366004614225565b613321565b61055e610bbb366004614225565b61333b565b61055e61339d565b61055e610bd6366004614802565b6133fe565b61055e610be9366004614675565b61351d565b61055e610bfc366004614225565b613587565b60006001600160e01b03198216635a05180f60e01b1480610c265750610c26826135da565b92915050565b610c44600080516020614ec983398151915233611449565b60405160009033907f58b0c912034dc4fc969d456493cbf9da4f109b79865daf74321cf73ab2f7040c908390a3565b600760009054906101000a90046001600160a01b03166001600160a01b03166312be41006040518163ffffffff1660e01b8152600401600060405180830381600087803b158015610cc357600080fd5b505af1158015610cd7573d6000803e3d6000fd5b50505050565b600080516020614ec9833981519152610cf58161360f565b60005b8251811015610d2b57610d23838281518110610d1657610d166148a4565b6020026020010151611f0f565b600101610cf8565b505050565b600080516020614ec9833981519152610d488161360f565b6001600160a01b038216610d6f5760405163d92e233d60e01b815260040160405180910390fd5b50600a80546001600160a01b0319166001600160a01b0392909216919091179055565b600080516020614ec9833981519152610daa8161360f565b81610dfc576001600160a01b0383166000908152601d602052604090205460ff16610de857604051637de8c17d60e01b815260040160405180910390fd5b610df7601c601e601d86613619565b610e45565b6001600160a01b0383166000908152601d602052604090205460ff1615610e36576040516316a163b960e11b815260040160405180910390fd5b610e45601c601e601d86613722565b604051821515906001600160a01b038516907f6564da707a5df09bfa9aed4a8c9acc37e2df9021b0dfe89c445c84ca3313768190600090a3505050565b600080516020614f49833981519152610e9a8161360f565b6001600160a01b038216610ec15760405163d92e233d60e01b815260040160405180910390fd5b6000610eda600080516020614f69833981519152612892565b1115610eed57610ee982613779565b5050565b610ee9600080516020614f69833981519152836137c1565b600080516020614ec9833981519152610f1d8161360f565b6006546040516326a1192960e01b81526001600160a01b03909116906326a1192990610f4f90869086906004016148ba565b600060405180830381600087803b158015610f6957600080fd5b505af1158015610f7d573d6000803e3d6000fd5b50505050505050565b60606013805480602002602001604051908101604052809291908181526020018280548015610fde57602002820191906000526020600020905b81546001600160a01b03168152600190910190602001808311610fc0575b5050505050905090565b6002816004811115610ffc57610ffc6148e8565b036110bb57600a546001600160a01b031661102a5760405163821e0eeb60e01b815260040160405180910390fd5b600a546001600160a01b0316336001600160a01b03161461105e57604051634128496760e01b815260040160405180910390fd5b600a54600680546001600160a01b0319166001600160a01b0390921691821790556040517f4be1b4039acf68e615f56a238b31cf9a61b58ba466df3b449d426be362c2670990600090a2600a80546001600160a01b031916905550565b60048160048111156110cf576110cf6148e8565b0361118e57600c546001600160a01b03166110fd5760405163821e0eeb60e01b815260040160405180910390fd5b600c546001600160a01b0316336001600160a01b03161461113157604051634128496760e01b815260040160405180910390fd5b600c54600580546001600160a01b0319166001600160a01b0390921691821790556040517f8c9bae10e815bbd30975e9f63e0cac6bf479d7834dee22b8ab5b3cce4569be7190600090a2600c80546001600160a01b031916905550565b60008160048111156111a2576111a26148e8565b03611261576008546001600160a01b03166111d05760405163821e0eeb60e01b815260040160405180910390fd5b6008546001600160a01b0316336001600160a01b03161461120457604051634128496760e01b815260040160405180910390fd5b600854600480546001600160a01b0319166001600160a01b0390921691821790556040517fef260b3c47355ea5edcad1fe50621a44e1e972b474e0a9778247b5bb063661bf90600090a2600880546001600160a01b031916905550565b6001816004811115611275576112756148e8565b03611334576009546001600160a01b03166112a35760405163821e0eeb60e01b815260040160405180910390fd5b6009546001600160a01b0316336001600160a01b0316146112d757604051634128496760e01b815260040160405180910390fd5b600954600380546001600160a01b0319166001600160a01b0390921691821790556040517faf4bcd945b877396cadc6e900fdac9b90c12b8a4f0228d943abbc9131fdd043f90600090a2600980546001600160a01b031916905550565b6003816004811115611348576113486148e8565b0361140557600b546001600160a01b03166113765760405163821e0eeb60e01b815260040160405180910390fd5b600b546001600160a01b0316336001600160a01b0316146113aa57604051634128496760e01b815260040160405180910390fd5b600b54600780546001600160a01b0319166001600160a01b0390921691821790556040517f3706317055c3080f585c6aa4c6095608f211a98b012075e1ad071337d486118090600090a2600b80546001600160a01b03191690555b50565b60405162461bcd60e51b8152602060048201526011602482015270119d5b98dd1a5bdb88191a5cd8589b1959607a1b60448201526064015b60405180910390fd5b600080516020614f49833981519152820361147757604051637f8e121f60e01b815260040160405180910390fd5b610ee982826137e6565b600080516020614f498339815191526114998161360f565b60005b8251811015610d2b576114c78382815181106114ba576114ba6148a4565b60200260200101516126c4565b60010161149c565b600080516020614ec98339815191526114e78161360f565b6001600160a01b03821661150e5760405163d92e233d60e01b815260040160405180910390fd5b611526600080516020614f29833981519152836137c1565b6040516001906001600160a01b038416907f15d1c680f4b2a74b5102c95a572221eec3e2d26f31234941d7db01f938ad7de490600090a35050565b600080516020614ec98339815191526115798161360f565b6001600160a01b0382166115a05760405163d92e233d60e01b815260040160405180910390fd5b50600b80546001600160a01b0319166001600160a01b0392909216919091179055565b600080516020614f098339815191526115db8161360f565b600e54604051630d91cbed60e11b815283151560048201526001600160a01b0390911690631b2397da906024015b600060405180830381600087803b15801561162357600080fd5b505af1158015611637573d6000803e3d6000fd5b505050505050565b600080516020614ee98339815191526116578161360f565b6004805460405163417b0dd960e01b81526001600160a01b039091169163417b0dd991610f4f9187918791016148fe565b6000610c26600080516020614ee983398151915283612604565b600080516020614f098339815191526116ba8161360f565b6007546040516342456e7760e01b81526001600160401b038086166004830152841660248201526001600160a01b03909116906342456e7790604401600060405180830381600087803b15801561171057600080fd5b505af1158015611724573d6000803e3d6000fd5b5050600e54604051630d91cbed60e11b8152600160048201526001600160a01b039091169250631b2397da9150602401610f4f565b600080516020614ea98339815191526117718161360f565b600554604051632615d58560e21b81526001600160a01b03858116600483015260ff8516602483015290911690639857561490604401610f4f565b6117c4600080516020614ee983398151915233611449565b60405160009033907fbf803419fc50c5a21ddcbfc938fc9bf43727f407b44dbbc6b56bc6c7042c6b8e908390a3565b600080516020614ea983398151915261180b8161360f565b6005546040516326cc63cf60e11b81526001600160a01b0390911690634d98c79e90610f4f90869086906004016148fe565b6000611858600080516020614f69833981519152600061259b565b9050336001600160a01b0382161461188357604051634128496760e01b815260040160405180910390fd5b600061189e600080516020614f49833981519152600061259b565b90506118b8600080516020614f49833981519152836137c1565b6118d0600080516020614f4983398151915282613860565b6118e8600080516020614f6983398151915233611449565b60405160019033907f41d243a983aaf9e2054e60b69289f0ed282b05ae3ae82db0bcebc8e3f28b8a2e90600090a36040516000906001600160a01b038316907f41d243a983aaf9e2054e60b69289f0ed282b05ae3ae82db0bcebc8e3f28b8a2e908390a35050565b611968600080516020614f0983398151915233611449565b60405160009033907f828ea24d0e91f82bccc87ff9f81c062af014ff350e54c47880f958eaea62d0a1908390a3565b600080516020614ec98339815191526119af8161360f565b6001600160a01b0382166000908152601b602052604090205460ff166119e857604051637de8c17d60e01b815260040160405180910390fd5b610ee96019601a601b85613619565b600080516020614ec9833981519152611a0f8161360f565b6001600160a01b038216611a365760405163d92e233d60e01b815260040160405180910390fd5b611a4e600080516020614ea9833981519152836137c1565b6040516001906001600160a01b038416907f0861f0f338b525820e29873d34688cbb1a2b6a0a3d3086cb7ff72f720ad202c890600090a35050565b600480546040516302de004560e51b81526001600160a01b038481169382019390935260009290911690635bc008a0906024015b602060405180830381865afa158015611ada573d6000803e3d6000fd5b505050506040513d601f19601f82011682018060405250810190610c269190614958565b600080516020614ec9833981519152611b168161360f565b600654604051630bd5fa2160e31b81526001600160a01b0385811660048301526024820185905290911690635eafd10890604401610f4f565b600080516020614ea9833981519152611b678161360f565b6005546040516306d7cbc760e11b81526001600160a01b03848116600483015290911690630daf978e90602401611609565b6001600160a01b0381166000908152601160205260409020805460609190611bc090614975565b80601f0160208091040260200160405190810160405280929190818152602001828054611bec90614975565b8015611c395780601f10611c0e57610100808354040283529160200191611c39565b820191906000526020600020905b815481529060010190602001808311611c1c57829003601f168201915b50505050509050919050565b6000610c26600080516020614ea983398151915283612604565b600080516020614ec9833981519152611c778161360f565b6001600160a01b038216611c9e5760405163d92e233d60e01b815260040160405180910390fd5b8160108585604051611cb19291906149af565b908152604080516020928190038301902080546001600160a01b0319166001600160a01b039485161790559184166000908152601190915220611cf5848683614a07565b506001600160a01b03821660009081526015602052604090205460ff16611e1357611d2560136014601585613722565b600160126000846001600160a01b0316636f9c83b86040518163ffffffff1660e01b8152600401602060405180830381865afa158015611d69573d6000803e3d6000fd5b505050506040513d601f19601f82011682018060405250810190611d8d9190614ac7565b6001600160a01b03166001600160a01b0316815260200190815260200160002060006101000a81548160ff021916908315150217905550816001600160a01b03168484604051611dde9291906149af565b604051908190038120907f1eac45aa053bf10c5dda3373ed6d94963b4297609498c40eed446f340319b87e90600090a3610cd7565b816001600160a01b03168484604051611e2d9291906149af565b604051908190038120907f15ee7f3b39acf25c3ea254232d6c3351dc6eb1d11303dee73eddb6d8ed9ee0d090600090a350505050565b600080516020614ee9833981519152611e7b8161360f565b60048054604051636aa806a760e01b81526001600160a01b0385811693820193909352911690636aa806a790602401611609565b600080516020614ec9833981519152611ec78161360f565b6001600160a01b03821660009081526018602052604090205460ff16611f0057604051637de8c17d60e01b815260040160405180910390fd5b610ee960166017601885613619565b600080516020614ec9833981519152611f278161360f565b6001600160a01b038216611f4e5760405163d92e233d60e01b815260040160405180910390fd5b611f66600080516020614f09833981519152836137c1565b6040516001906001600160a01b038416907f828ea24d0e91f82bccc87ff9f81c062af014ff350e54c47880f958eaea62d0a190600090a35050565b6000610c26600080516020614f2983398151915283612604565b611fd3600080516020614ea983398151915233611449565b60405160009033907f0861f0f338b525820e29873d34688cbb1a2b6a0a3d3086cb7ff72f720ad202c8908390a3565b600080516020614ec983398151915261201a8161360f565b6001600160a01b0382166120415760405163d92e233d60e01b815260040160405180910390fd5b6001600160a01b0382166000908152601b602052604090205460ff161561207b576040516316a163b960e11b815260040160405180910390fd5b61208a6019601a601b85613722565b6040516001600160a01b038316907f271d7b4dec404f020f40446305b9de8a359b98348131e4c15987e7383f42815390600090a25050565b600080516020614ec98339815191526120da8161360f565b6000601084846040516120ee9291906149af565b9081526040805160209281900383019020546001600160a01b03166000818152601590935291205490915060ff1661213957604051637de8c17d60e01b815260040160405180910390fd5b61214860136014601584613619565b6010848460405161215a9291906149af565b908152604080516020928190038301902080546001600160a01b03191690556001600160a01b03831660009081526011909252812061219891614053565b60126000826001600160a01b0316636f9c83b86040518163ffffffff1660e01b8152600401602060405180830381865afa1580156121da573d6000803e3d6000fd5b505050506040513d601f19601f820116820180604052508101906121fe9190614ac7565b6001600160a01b0316815260208101919091526040908101600020805460ff19169055517f6b1a0b0c9aad447ed1b708afc912723ce244eb0da95496520cd69d04034df8ce9061225390869086908590614ae4565b60405180910390a150505050565b612269613885565b600080516020614ec98339815191526122818161360f565b600354604051635af694c560e11b81526001600160a01b0384811660048301529091169063b5ed298a90602401600060405180830381600087803b1580156122c857600080fd5b505af11580156122dc573d6000803e3d6000fd5b505060048054604051635af694c560e11b81526001600160a01b03878116938201939093529116925063b5ed298a9150602401600060405180830381600087803b15801561232957600080fd5b505af115801561233d573d6000803e3d6000fd5b5050600554604051635af694c560e11b81526001600160a01b038681166004830152909116925063b5ed298a9150602401600060405180830381600087803b15801561238857600080fd5b505af115801561239c573d6000803e3d6000fd5b5050600654604051635af694c560e11b81526001600160a01b038681166004830152909116925063b5ed298a9150602401600060405180830381600087803b1580156123e757600080fd5b505af11580156123fb573d6000803e3d6000fd5b5050600754604051635af694c560e11b81526001600160a01b038681166004830152909116925063b5ed298a9150602401600060405180830381600087803b15801561244657600080fd5b505af115801561245a573d6000803e3d6000fd5b50506040513081526001600160a01b03851692507ff0e9a6b66a12fa7aa5cadb32dd73c2a90017b99ce1c58c25488d18f42c59f2ac915060200160405180910390a2506114056001600255565b600080516020614ec98339815191526124bf8161360f565b6001600160a01b0382166124e65760405163d92e233d60e01b815260040160405180910390fd5b50600880546001600160a01b0319166001600160a01b0392909216919091179055565b600080516020614ec98339815191526125218161360f565b6001600160a01b0382166125485760405163d92e233d60e01b815260040160405180910390fd5b612560600080516020614ee9833981519152836137c1565b6040516001906001600160a01b038416907fbf803419fc50c5a21ddcbfc938fc9bf43727f407b44dbbc6b56bc6c7042c6b8e90600090a35050565b60008281526001602052604081206125b390836138dc565b9392505050565b600080516020614ea98339815191526125d28161360f565b6005546040516324356a4b60e21b81526001600160a01b03909116906390d5a92c90610f4f9086908690600401614b25565b6000918252602082815260408084206001600160a01b0393909316845291905290205460ff1690565b600080516020614ee98339815191526126458161360f565b600480546040516312c8e01960e31b81526001600160a01b039091169163964700c891610f4f918791879101614b25565b600080516020614ec983398151915261268e8161360f565b60005b8251811015610d2b576126bc8382815181106126af576126af6148a4565b6020026020010151612509565b600101612691565b600080516020614f498339815191526126dc8161360f565b6001600160a01b0382166127035760405163d92e233d60e01b815260040160405180910390fd5b61271b600080516020614ec9833981519152836137c1565b6040516001906001600160a01b038416907f58b0c912034dc4fc969d456493cbf9da4f109b79865daf74321cf73ab2f7040c90600090a35050565b600080516020614ee983398151915261276e8161360f565b6004805460405163aa0c8a7b60e01b81526001600160a01b038681169382019390935260ff8516602482015291169063aa0c8a7b90604401610f4f565b600080516020614ec98339815191526127c38161360f565b60065460405163598ae59d60e11b81526001600160a01b039091169063b315cb3a90610f4f9086908690600401614b4a565b600080516020614ec983398151915261280d8161360f565b60005b8251811015610d2b5761283b83828151811061282e5761282e6148a4565b60200260200101516119f7565b600101612810565b6000610c26600080516020614ec983398151915283612604565b6000601083836040516128719291906149af565b908152604051908190036020019020546001600160a01b0316905092915050565b6000818152600160205260408120610c26906138e8565b600080516020614ec98339815191526128c18161360f565b60005b8251811015610d2b576128ef8382815181106128e2576128e26148a4565b60200260200101516114cf565b6001016128c4565b600654604051636640979d60e11b81526001600160a01b038381166004830152606092169063cc812f3a90602401600060405180830381865afa158015612942573d6000803e3d6000fd5b505050506040513d6000823e601f3d908101601f19168201604052610c269190810190614b6c565b612972613885565b600080516020614ec983398151915261298a8161360f565b6000829050806001600160a01b03166382654fe96040518163ffffffff1660e01b8152600401602060405180830381865afa1580156129cd573d6000803e3d6000fd5b505050506040513d601f19601f820116820180604052508101906129f19190614ac7565b600360006101000a8154816001600160a01b0302191690836001600160a01b03160217905550806001600160a01b0316636dbda16a6040518163ffffffff1660e01b8152600401602060405180830381865afa158015612a55573d6000803e3d6000fd5b505050506040513d601f19601f82011682018060405250810190612a799190614ac7565b600480546001600160a01b0319166001600160a01b03928316178155604080516319d1c21d60e01b81529051928416926319d1c21d928281019260209291908290030181865afa158015612ad1573d6000803e3d6000fd5b505050506040513d601f19601f82011682018060405250810190612af59190614ac7565b600560006101000a8154816001600160a01b0302191690836001600160a01b03160217905550806001600160a01b0316630f7b66b66040518163ffffffff1660e01b8152600401602060405180830381865afa158015612b59573d6000803e3d6000fd5b505050506040513d601f19601f82011682018060405250810190612b7d9190614ac7565b600660006101000a8154816001600160a01b0302191690836001600160a01b03160217905550806001600160a01b0316634f3e59596040518163ffffffff1660e01b8152600401602060405180830381865afa158015612be1573d6000803e3d6000fd5b505050506040513d601f19601f82011682018060405250810190612c059190614ac7565b600780546001600160a01b0319166001600160a01b0392831617905560035460408051635ecdb6c360e11b81529051919092169163bd9b6d8691600480830192600092919082900301818387803b158015612c5f57600080fd5b505af1158015612c73573d6000803e3d6000fd5b50506004805460408051635ecdb6c360e11b815290516001600160a01b03909216945063bd9b6d869350808301926000929182900301818387803b158015612cba57600080fd5b505af1158015612cce573d6000803e3d6000fd5b50505050600560009054906101000a90046001600160a01b03166001600160a01b031663bd9b6d866040518163ffffffff1660e01b8152600401600060405180830381600087803b158015612d2257600080fd5b505af1158015612d36573d6000803e3d6000fd5b50505050600660009054906101000a90046001600160a01b03166001600160a01b031663bd9b6d866040518163ffffffff1660e01b8152600401600060405180830381600087803b158015612d8a57600080fd5b505af1158015612d9e573d6000803e3d6000fd5b50505050600760009054906101000a90046001600160a01b03166001600160a01b031663bd9b6d866040518163ffffffff1660e01b8152600401600060405180830381600087803b158015612df257600080fd5b505af1158015612e06573d6000803e3d6000fd5b50506040513092507f384369ca21e2a2a4427714f269a076982af5550d768f613d72e133f4ec8f24339150600090a250506114056001600255565b600080516020614ec9833981519152612e598161360f565b6001600160a01b038216612e805760405163d92e233d60e01b815260040160405180910390fd5b50600980546001600160a01b0319166001600160a01b0392909216919091179055565b60065460405163680cabbd60e11b81526001600160a01b03848116600483015260248201849052600092169063d019577a90604401602060405180830381865afa158015612ef5573d6000803e3d6000fd5b505050506040513d601f19601f820116820180604052508101906125b39190614bf1565b600080516020614ec9833981519152612f318161360f565b6006546040516369b9b9dd60e11b81526001600160a01b038581166004830152602482018590529091169063d37373ba90604401610f4f565b6000610c26600080516020614f0983398151915283612604565b60075460408051630d4f938760e41b815290516060926001600160a01b03169163d4f938709160048083019260009291908290030181865afa158015612fce573d6000803e3d6000fd5b505050506040513d6000823e601f3d908101601f19168201604052612ff69190810190614c0e565b905090565b613003613885565b600080516020614f49833981519152820361303157604051637f8e121f60e01b815260040160405180910390fd5b600080516020614f29833981519152820361304e5761304e6138f2565b6130588282613860565b610ee96001600255565b600080516020614ec983398151915261307a8161360f565b6001600160a01b0382166130a15760405163d92e233d60e01b815260040160405180910390fd5b6001600160a01b03821660009081526018602052604090205460ff16156130db576040516316a163b960e11b815260040160405180910390fd5b6130ea60166017601885613722565b6040516001600160a01b038316907f496205a90586f696165a3313d5f361ba3a822160b0badbd1b5ce39f2c9a4978790600090a25050565b60055460405163dc08706d60e01b81526001600160a01b038381166004830152600092169063dc08706d90602401611abd565b600080516020614f0983398151915261316d8161360f565b60075460405163ddbd94a960e01b81526001600160401b038086166004830152841660248201526001600160a01b039091169063ddbd94a990604401600060405180830381600087803b1580156131c357600080fd5b505af11580156131d7573d6000803e3d6000fd5b50505050600760009054906101000a90046001600160a01b03166001600160a01b0316632d59e38b6040518163ffffffff1660e01b8152600401602060405180830381865afa15801561322e573d6000803e3d6000fd5b505050506040513d601f19601f820116820180604052508101906132529190614bf1565b15610d2b57600e54604051630d91cbed60e11b8152600060048201526001600160a01b0390911690631b2397da90602401610f4f565b600080516020614ec98339815191526132a08161360f565b6001600160a01b0382166132c75760405163d92e233d60e01b815260040160405180910390fd5b600e80546001600160a01b0384166001600160a01b03199182168117909255600f8054909116821790556040513091907f9a2cdaf1a28a88ccd359d6abc6a27d4856d16459aafb0aae34c1296bab5b63fb90600090a35050565b6000610c26600080516020614f4983398151915283612604565b600080516020614ec98339815191526133538161360f565b6001600160a01b03821661337a5760405163d92e233d60e01b815260040160405180910390fd5b50600c80546001600160a01b0319166001600160a01b0392909216919091179055565b6133a5613885565b6133ad6138f2565b6133c5600080516020614f2983398151915233611449565b60405160009033907f15d1c680f4b2a74b5102c95a572221eec3e2d26f31234941d7db01f938ad7de4908390a36133fc6001600255565b565b61340733610770565b6134265760405163e8ada65f60e01b8152336004820152602401611440565b600e60009054906101000a90046001600160a01b03166001600160a01b031663064ce8746040518163ffffffff1660e01b8152600401602060405180830381865afa158015613479573d6000803e3d6000fd5b505050506040513d601f19601f8201168201806040525081019061349d9190614bf1565b1561351357600e5460405163f142a46f60e01b81526001600160a01b039091169063f142a46f906134e0908b908b908b908b908b908b908b908b90600401614ccb565b600060405180830381600087803b1580156134fa57600080fd5b505af115801561350e573d6000803e3d6000fd5b505050505b5050505050505050565b600080516020614ec98339815191526135358161360f565b600d613542838583614a07565b50600d6040516135529190614d3d565b604051908190038120907f7e8c34daa9b7437d087d896bd7a956c11cac46d79c5d7c75fb538845f480be8390600090a2505050565b600080516020614ec983398151915261359f8161360f565b816001600160a01b031663cdccb27a6040518163ffffffff1660e01b8152600401600060405180830381600087803b15801561162357600080fd5b60006001600160e01b03198216637965db0b60e01b1480610c2657506301ffc9a760e01b6001600160e01b0319831614610c26565b6114058133613ab2565b8354600090859061362c90600190614dc9565b8154811061363c5761363c6148a4565b6000918252602090912001546001600160a01b039081169150821681146136c3576001600160a01b0382166000908152602085905260409020548554829087908390811061368c5761368c6148a4565b600091825260208083209190910180546001600160a01b0319166001600160a01b0394851617905591841681529086905260409020555b848054806136d3576136d3614ddc565b60008281526020808220830160001990810180546001600160a01b03191690559092019092556001600160a01b03939093168152928252506040808320805460ff191690559290529081205550565b83546001600160a01b0390911660008181526020948552604080822093909355928452908220805460ff191660019081179091558454908101855593825291902090910180546001600160a01b0319169091179055565b600080516020614f498339815191526137918161360f565b610eed600080516020614f698339815191526137bc600080516020614f69833981519152600061259b565b613860565b6000828152602081905260409020600101546137dc8161360f565b610d2b8383613b0b565b6001600160a01b03811633146138565760405162461bcd60e51b815260206004820152602f60248201527f416363657373436f6e74726f6c3a2063616e206f6e6c792072656e6f756e636560448201526e103937b632b9903337b91039b2b63360891b6064820152608401611440565b610ee98282613b2d565b60008281526020819052604090206001015461387b8161360f565b610d2b8383613b2d565b60028054036138d65760405162461bcd60e51b815260206004820152601f60248201527f5265656e7472616e637947756172643a207265656e7472616e742063616c6c006044820152606401611440565b60028055565b60006125b38383613b4f565b6000610c26825490565b60135460005b81811015610ee95761399f631634ff0560e31b6013838154811061391e5761391e6148a4565b6000918252602091829020015460408051630df3907760e31b815290516001600160a01b0390921692636f9c83b8926004808401938290030181865afa15801561396c573d6000803e3d6000fd5b505050506040513d601f19601f820116820180604052508101906139909190614ac7565b6001600160a01b031690613b79565b15613aaa57601381815481106139b7576139b76148a4565b6000918252602091829020015460408051630df3907760e31b815290516001600160a01b0390921692636f9c83b8926004808401938290030181865afa158015613a05573d6000803e3d6000fd5b505050506040513d601f19601f82011682018060405250810190613a299190614ac7565b6001600160a01b031663b1a7f8286040518163ffffffff1660e01b81526004016020604051808303816000875af1158015613a68573d6000803e3d6000fd5b505050506040513d601f19601f82011682018060405250810190613a8c9190614bf1565b15613aaa576040516312e9e50760e21b815260040160405180910390fd5b6001016138f8565b613abc8282612604565b610ee957613ac981613b95565b613ad4836020613ba7565b604051602001613ae5929190614df2565b60408051601f198184030181529082905262461bcd60e51b825261144091600401614578565b613b158282613d42565b6000828152600160205260409020610d2b9082613dc6565b613b378282613ddb565b6000828152600160205260409020610d2b9082613e40565b6000826000018281548110613b6657613b666148a4565b9060005260206000200154905092915050565b6000613b8483613e55565b80156125b357506125b38383613e88565b6060610c266001600160a01b03831660145b60606000613bb6836002614e67565b613bc1906002614e7e565b6001600160401b03811115613bd857613bd86140cb565b6040519080825280601f01601f191660200182016040528015613c02576020820181803683370190505b509050600360fc1b81600081518110613c1d57613c1d6148a4565b60200101906001600160f81b031916908160001a905350600f60fb1b81600181518110613c4c57613c4c6148a4565b60200101906001600160f81b031916908160001a9053506000613c70846002614e67565b613c7b906001614e7e565b90505b6001811115613cf3576f181899199a1a9b1b9c1cb0b131b232b360811b85600f1660108110613caf57613caf6148a4565b1a60f81b828281518110613cc557613cc56148a4565b60200101906001600160f81b031916908160001a90535060049490941c93613cec81614e91565b9050613c7e565b5083156125b35760405162461bcd60e51b815260206004820181905260248201527f537472696e67733a20686578206c656e67746820696e73756666696369656e746044820152606401611440565b613d4c8282612604565b610ee9576000828152602081815260408083206001600160a01b03851684529091529020805460ff19166001179055613d823390565b6001600160a01b0316816001600160a01b0316837f2f8788117e7eff1d82e926ec794901d17c78024a50270940304540a733656f0d60405160405180910390a45050565b60006125b3836001600160a01b038416613f11565b613de58282612604565b15610ee9576000828152602081815260408083206001600160a01b0385168085529252808320805460ff1916905551339285917ff6391f5c32d9c69d2a47ea670b442974b53935d1edc7fd64eb21e047a839171b9190a45050565b60006125b3836001600160a01b038416613f60565b6000613e68826301ffc9a760e01b613e88565b8015610c265750613e81826001600160e01b0319613e88565b1592915050565b604080516001600160e01b03198316602480830191909152825180830390910181526044909101909152602080820180516001600160e01b03166301ffc9a760e01b178152825160009392849283928392918391908a617530fa92503d91506000519050828015613efa575060208210155b8015613f065750600081115b979650505050505050565b6000818152600183016020526040812054613f5857508154600181810184556000848152602080822090930184905584548482528286019093526040902091909155610c26565b506000610c26565b60008181526001830160205260408120548015614049576000613f84600183614dc9565b8554909150600090613f9890600190614dc9565b9050818114613ffd576000866000018281548110613fb857613fb86148a4565b9060005260206000200154905080876000018481548110613fdb57613fdb6148a4565b6000918252602080832090910192909255918252600188019052604090208390555b855486908061400e5761400e614ddc565b600190038181906000526020600020016000905590558560010160008681526020019081526020016000206000905560019350505050610c26565b6000915050610c26565b50805461405f90614975565b6000825580601f1061406f575050565b601f01602090049060005260206000209081019061140591905b8082111561409d5760008155600101614089565b5090565b6000602082840312156140b357600080fd5b81356001600160e01b0319811681146125b357600080fd5b634e487b7160e01b600052604160045260246000fd5b604080519081016001600160401b0381118282101715614103576141036140cb565b60405290565b604051601f8201601f191681016001600160401b0381118282101715614131576141316140cb565b604052919050565b60006001600160401b03821115614152576141526140cb565b5060051b60200190565b6001600160a01b038116811461140557600080fd5b600082601f83011261418257600080fd5b8135602061419761419283614139565b614109565b8083825260208201915060208460051b8701019350868411156141b957600080fd5b602086015b848110156141de5780356141d18161415c565b83529183019183016141be565b509695505050505050565b6000602082840312156141fb57600080fd5b81356001600160401b0381111561421157600080fd5b61421d84828501614171565b949350505050565b60006020828403121561423757600080fd5b81356125b38161415c565b60006020828403121561425457600080fd5b5035919050565b801515811461140557600080fd5b6000806040838503121561427c57600080fd5b82356142878161415c565b915060208301356142978161425b565b809150509250929050565b600080604083850312156142b557600080fd5b82356001600160401b03808211156142cc57600080fd5b6142d886838701614171565b93506020915081850135818111156142ef57600080fd5b85019050601f8101861361430257600080fd5b803561431061419282614139565b81815260059190911b8201830190838101908883111561432f57600080fd5b928401925b8284101561434d57833582529284019290840190614334565b80955050505050509250929050565b60008151808452602080850194506020840160005b838110156143965781516001600160a01b031687529582019590820190600101614371565b509495945050505050565b6020815260006125b3602083018461435c565b6005811061140557600080fd5b6000602082840312156143d357600080fd5b81356125b3816143b4565b600080604083850312156143f157600080fd5b8235915060208301356142978161415c565b60006020828403121561441557600080fd5b81356125b38161425b565b60ff8116811461140557600080fd5b6000806040838503121561444257600080fd5b82356001600160401b038082111561445957600080fd5b61446586838701614171565b935060209150818501358181111561447c57600080fd5b85019050601f8101861361448f57600080fd5b803561449d61419282614139565b81815260059190911b820183019083810190888311156144bc57600080fd5b928401925b8284101561434d5783356144d481614420565b825292840192908401906144c1565b6001600160401b038116811461140557600080fd5b6000806040838503121561450b57600080fd5b8235614516816144e3565b91506020830135614297816144e3565b6000806040838503121561453957600080fd5b82356145448161415c565b9150602083013561429781614420565b60005b8381101561456f578181015183820152602001614557565b50506000910152565b6020815260008251806020840152614597816040850160208701614554565b601f01601f19169190910160400192915050565b600080604083850312156145be57600080fd5b82356145c98161415c565b946020939093013593505050565b60008083601f8401126145e957600080fd5b5081356001600160401b0381111561460057600080fd5b60208301915083602082850101111561461857600080fd5b9250929050565b60008060006040848603121561463457600080fd5b83356001600160401b0381111561464a57600080fd5b614656868287016145d7565b909450925050602084013561466a8161415c565b809150509250925092565b6000806020838503121561468857600080fd5b82356001600160401b0381111561469e57600080fd5b6146aa858286016145d7565b90969095509350505050565b600080604083850312156146c957600080fd5b50508035926020909101359150565b600080604083850312156146eb57600080fd5b82356001600160401b0381111561470157600080fd5b61470d85828601614171565b925050602083013561429781614420565b6000806040838503121561473157600080fd5b82356001600160401b0381111561474757600080fd5b61475385828601614171565b95602094909401359450505050565b60008151808452602080850194506020840160005b8381101561439657815187529582019590820190600101614777565b6020815260006125b36020830184614762565b602080825282518282018190526000919060409081850190868401855b828110156147f557815180516001600160401b03908116865290870151168685015292840192908501906001016147c3565b5091979650505050505050565b600080600080600080600080610100898b03121561481f57600080fd5b883561482a8161415c565b9750602089013561483a8161415c565b9650604089013561484a8161415c565b955060608901359450608089013561ffff8116811461486857600080fd5b935060a0890135925060c089013561487f816143b4565b915060e08901356002811061489357600080fd5b809150509295985092959890939650565b634e487b7160e01b600052603260045260246000fd5b6040815260006148cd604083018561435c565b82810360208401526148df8185614762565b95945050505050565b634e487b7160e01b600052602160045260246000fd5b604081526000614911604083018561435c565b82810360208481019190915284518083528582019282019060005b8181101561494b57845160ff168352938301939183019160010161492c565b5090979650505050505050565b60006020828403121561496a57600080fd5b81516125b381614420565b600181811c9082168061498957607f821691505b6020821081036149a957634e487b7160e01b600052602260045260246000fd5b50919050565b8183823760009101908152919050565b601f821115610d2b576000816000526020600020601f850160051c810160208610156149e85750805b601f850160051c820191505b81811015611637578281556001016149f4565b6001600160401b03831115614a1e57614a1e6140cb565b614a3283614a2c8354614975565b836149bf565b6000601f841160018114614a665760008515614a4e5750838201355b600019600387901b1c1916600186901b178355614ac0565b600083815260209020601f19861690835b82811015614a975786850135825560209485019460019092019101614a77565b5086821015614ab45760001960f88860031b161c19848701351681555b505060018560011b0183555b5050505050565b600060208284031215614ad957600080fd5b81516125b38161415c565b6040815282604082015282846060830137600060608483018101919091526001600160a01b03929092166020820152601f909201601f191690910101919050565b604081526000614b38604083018561435c565b905060ff831660208301529392505050565b604081526000614b5d604083018561435c565b90508260208301529392505050565b60006020808385031215614b7f57600080fd5b82516001600160401b03811115614b9557600080fd5b8301601f81018513614ba657600080fd5b8051614bb461419282614139565b81815260059190911b82018301908381019087831115614bd357600080fd5b928401925b82841015613f0657835182529284019290840190614bd8565b600060208284031215614c0357600080fd5b81516125b38161425b565b60006020808385031215614c2157600080fd5b82516001600160401b03811115614c3757600080fd5b8301601f81018513614c4857600080fd5b8051614c5661419282614139565b81815260069190911b82018301908381019087831115614c7557600080fd5b928401925b82841015613f065760408489031215614c935760008081fd5b614c9b6140e1565b8451614ca6816144e3565b815284860151614cb5816144e3565b8187015282526040939093019290840190614c7a565b6001600160a01b0389811682528881166020830152871660408201526060810186905261ffff8516608082015260a08101849052610100810160058410614d1457614d146148e8565b8360c083015260028310614d2a57614d2a6148e8565b8260e08301529998505050505050505050565b6000808354614d4b81614975565b60018281168015614d635760018114614d7857614da7565b60ff1984168752821515830287019450614da7565b8760005260208060002060005b85811015614d9e5781548a820152908401908201614d85565b50505082870194505b50929695505050505050565b634e487b7160e01b600052601160045260246000fd5b81810381811115610c2657610c26614db3565b634e487b7160e01b600052603160045260246000fd5b7f416363657373436f6e74726f6c3a206163636f756e7420000000000000000000815260008351614e2a816017850160208801614554565b7001034b99036b4b9b9b4b733903937b6329607d1b6017918401918201528351614e5b816028840160208801614554565b01602801949350505050565b8082028115828204841417610c2657610c26614db3565b80820180821115610c2657610c26614db3565b600081614ea057614ea0614db3565b50600019019056fe870ee5500b98ca09b5fcd7de4a95293916740021c92172d268dad85baec3c85f371a0078bf8859908953848339bea5f1d5775487f6c2f50fd279fcc2cafd8c602104bd22bc71f1a868806c22aa1905dad25555696bbf4456c5b464b8d55f73355ff038c4899bb7fbbc7cf40ef4accece5ebd324c2da5ab7db2c3b81e845e2a7a5cb9147a971eae9c63c04beb424326d7db091a71473987979b49bb1e189f34577613a25ecc738585a232ad50a301178f12b3ba8887d13e138b523c4269c4768916c600d7bfbb199b1bbbaaec72d225e1b669f7d0c812d7cafcf00672fb42b30da264697066735822122025701d3314643e3561718226750fbf0b48ef840ecd9ea599d034642a6892e6dd64736f6c6343000818003360a060405234801561001057600080fd5b5060405161099c38038061099c83398101604081905261002f916100a4565b8061003933610054565b6001600160a01b031660805261004e81610054565b506100d4565b600080546001600160a01b038381166001600160a01b0319831681178455604051919092169283917f8be0079c531659141344cd1fd0a4f28419497f9722a3daafe3b4186f6b6457e09190a35050565b6000602082840312156100b657600080fd5b81516001600160a01b03811681146100cd57600080fd5b9392505050565b60805161088a610112600039600081816101b9015281816102030152818161024a0152818161032e015281816103af01526103f6015261088a6000f3fe608060405234801561001057600080fd5b50600436106100b45760003560e01c8063b5ed298a11610071578063b5ed298a14610186578063bd9b6d8614610199578063c4740a95146101a1578063d3d24c9b146101b4578063e89b0e1e146101db578063f2fde38b146101ee57600080fd5b806311b09110146100b95780631bf974f3146100fa57806354fd4d501461010f5780635e5c06e214610136578063715018a6146101595780638da5cb5b14610161575b600080fd5b6100e56100c736600461076a565b6001600160a01b031660009081526003602052604090205460ff1690565b60405190151581526020015b60405180910390f35b61010d61010836600461079a565b610201565b005b60408051808201825260058152640312e312e360dc1b602082015290516100f191906107bb565b6100e561014436600461076a565b60036020526000908152604090205460ff1681565b61010d610399565b6000546001600160a01b03165b6040516001600160a01b0390911681526020016100f1565b61010d61019436600461076a565b6103ad565b61010d61050d565b61010d6101af36600461076a565b610576565b61016e7f000000000000000000000000000000000000000000000000000000000000000081565b61010d6101e936600461076a565b6105c7565b61010d6101fc36600461076a565b610642565b7f00000000000000000000000000000000000000000000000000000000000000006001600160a01b0316610248576040516371724ffd60e01b815260040160405180910390fd5b7f00000000000000000000000000000000000000000000000000000000000000006001600160a01b03811663c3c2ebbb336040516001600160e01b031960e084901b1681526001600160a01b039091166004820152602401602060405180830381865afa1580156102bd573d6000803e3d6000fd5b505050506040513d601f19601f820116820180604052508101906102e1919061080a565b1580156102f957506000546001600160a01b03163314155b156103175760405163054f3a3160e31b815260040160405180910390fd5b604051632b124b7960e01b81526001600160a01b037f00000000000000000000000000000000000000000000000000000000000000001690632b124b799061036390859060040161082c565b600060405180830381600087803b15801561037d57600080fd5b505af1158015610391573d6000803e3d6000fd5b505050505050565b6103a16106c0565b6103ab600061071a565b565b7f00000000000000000000000000000000000000000000000000000000000000006001600160a01b03166103f4576040516371724ffd60e01b815260040160405180910390fd5b7f00000000000000000000000000000000000000000000000000000000000000006001600160a01b03811663c3c2ebbb336040516001600160e01b031960e084901b1681526001600160a01b039091166004820152602401602060405180830381865afa158015610469573d6000803e3d6000fd5b505050506040513d601f19601f8201168201806040525081019061048d919061080a565b1580156104a557506000546001600160a01b03163314155b156104c35760405163054f3a3160e31b815260040160405180910390fd5b6001600160a01b0382166104ea5760405163d92e233d60e01b815260040160405180910390fd5b50600180546001600160a01b0319166001600160a01b0392909216919091179055565b6001546001600160a01b03166105365760405163821e0eeb60e01b815260040160405180910390fd5b6001546001600160a01b0316331461056157604051634128496760e01b815260040160405180910390fd5b6001546103ab906001600160a01b031661071a565b61057e6106c0565b6001600160a01b038116600081815260036020526040808220805460ff19169055517fe1e79c30f72a026a8b527caea6eee0683d44301c24cde238b9f7ad9e4b7aa31f9190a250565b6105cf6106c0565b6001600160a01b0381166105f65760405163d92e233d60e01b815260040160405180910390fd5b6001600160a01b038116600081815260036020526040808220805460ff19166001179055517f5e75b6966f794371ba173593326b3afdd7c9ee18c1421f495f3120dd8532d5b09190a250565b61064a6106c0565b6001600160a01b0381166106b45760405162461bcd60e51b815260206004820152602660248201527f4f776e61626c653a206e6577206f776e657220697320746865207a65726f206160448201526564647265737360d01b60648201526084015b60405180910390fd5b6106bd8161071a565b50565b6000546001600160a01b031633146103ab5760405162461bcd60e51b815260206004820181905260248201527f4f776e61626c653a2063616c6c6572206973206e6f7420746865206f776e657260448201526064016106ab565b600080546001600160a01b038381166001600160a01b0319831681178455604051919092169283917f8be0079c531659141344cd1fd0a4f28419497f9722a3daafe3b4186f6b6457e09190a35050565b60006020828403121561077c57600080fd5b81356001600160a01b038116811461079357600080fd5b9392505050565b6000602082840312156107ac57600080fd5b81356005811061079357600080fd5b60006020808352835180602085015260005b818110156107e9578581018301518582016040015282016107cd565b506000604082860101526040601f19601f8301168501019250505092915050565b60006020828403121561081c57600080fd5b8151801515811461079357600080fd5b602081016005831061084e57634e487b7160e01b600052602160045260246000fd5b9190529056fea26469706673582212208d8a7b73255eb5cc2f434666a29aac1ff64130b609d4365b4c4df8488360484b64736f6c6343000818003360a060405234801561001057600080fd5b50604051610deb380380610deb83398101604081905261002f916100a4565b8061003933610054565b6001600160a01b031660805261004e81610054565b506100d4565b600080546001600160a01b038381166001600160a01b0319831681178455604051919092169283917f8be0079c531659141344cd1fd0a4f28419497f9722a3daafe3b4186f6b6457e09190a35050565b6000602082840312156100b657600080fd5b81516001600160a01b03811681146100cd57600080fd5b9392505050565b608051610cd96101126000396000818161022a01528181610261015281816102a80152818161038c0152818161067f01526106c60152610cd96000f3fe608060405234801561001057600080fd5b50600436106100ea5760003560e01c80638da5cb5b1161008c578063b5ed298a11610066578063b5ed298a1461020a578063bd9b6d861461021d578063d3d24c9b14610225578063f2fde38b1461024c57600080fd5b80638da5cb5b146101bf578063964700c8146101e4578063aa0c8a7b146101f757600080fd5b806354fd4d50116100c857806354fd4d50146101515780635bc008a0146101785780636aa806a7146101a4578063715018a6146101b757600080fd5b80631bf974f3146100ef578063417b0dd91461010457806347082db314610117575b600080fd5b6101026100fd366004610969565b61025f565b005b610102610112366004610a9f565b6103f7565b61013a610125366004610b61565b60036020526000908152604090205460ff1681565b60405160ff90911681526020015b60405180910390f35b60408051808201825260058152640312e312e360dc1b602082015290516101489190610b7c565b61013a610186366004610b61565b6001600160a01b031660009081526003602052604090205460ff1690565b6101026101b2366004610b61565b610475565b6101026104c6565b6000546001600160a01b03165b6040516001600160a01b039091168152602001610148565b6101026101f2366004610bcb565b6104da565b610102610205366004610c19565b6105cf565b610102610218366004610b61565b61067d565b6101026107dd565b6101cc7f000000000000000000000000000000000000000000000000000000000000000081565b61010261025a366004610b61565b610846565b7f00000000000000000000000000000000000000000000000000000000000000006001600160a01b03166102a6576040516371724ffd60e01b815260040160405180910390fd5b7f00000000000000000000000000000000000000000000000000000000000000006001600160a01b03811663c3c2ebbb336040516001600160e01b031960e084901b1681526001600160a01b039091166004820152602401602060405180830381865afa15801561031b573d6000803e3d6000fd5b505050506040513d601f19601f8201168201806040525081019061033f9190610c43565b15801561035757506000546001600160a01b03163314155b156103755760405163054f3a3160e31b815260040160405180910390fd5b604051632b124b7960e01b81526001600160a01b037f00000000000000000000000000000000000000000000000000000000000000001690632b124b79906103c1908590600401610c65565b600060405180830381600087803b1580156103db57600080fd5b505af11580156103ef573d6000803e3d6000fd5b505050505050565b6103ff6108bf565b81518151146104205760405162514d8b60e31b815260040160405180910390fd5b60005b82518110156104705761046883828151811061044157610441610c8d565b602002602001015183838151811061045b5761045b610c8d565b60200260200101516105cf565b600101610423565b505050565b61047d6108bf565b6001600160a01b038116600081815260036020526040808220805460ff19169055517f276cf99114a46d5939685dde45049a35ff9b38ba6159453582924455c249a58b9190a250565b6104ce6108bf565b6104d86000610919565b565b6104e26108bf565b60048160ff1611156105115760405163fd12da9160e01b815260ff821660048201526024015b60405180910390fd5b60005b825181101561047057816003600085848151811061053457610534610c8d565b60200260200101516001600160a01b03166001600160a01b0316815260200190815260200160002060006101000a81548160ff021916908360ff1602179055508160ff1683828151811061058a5761058a610c8d565b60200260200101516001600160a01b03167f6925839d9987ab8377392e05897fdc086a53f88d84befbec65e10629628e547960405160405180910390a3600101610514565b6105d76108bf565b60048160ff1611156106015760405163fd12da9160e01b815260ff82166004820152602401610508565b6001600160a01b0382166106285760405163d92e233d60e01b815260040160405180910390fd5b6001600160a01b038216600081815260036020526040808220805460ff191660ff861690811790915590519092917f6925839d9987ab8377392e05897fdc086a53f88d84befbec65e10629628e547991a35050565b7f00000000000000000000000000000000000000000000000000000000000000006001600160a01b03166106c4576040516371724ffd60e01b815260040160405180910390fd5b7f00000000000000000000000000000000000000000000000000000000000000006001600160a01b03811663c3c2ebbb336040516001600160e01b031960e084901b1681526001600160a01b039091166004820152602401602060405180830381865afa158015610739573d6000803e3d6000fd5b505050506040513d601f19601f8201168201806040525081019061075d9190610c43565b15801561077557506000546001600160a01b03163314155b156107935760405163054f3a3160e31b815260040160405180910390fd5b6001600160a01b0382166107ba5760405163d92e233d60e01b815260040160405180910390fd5b50600180546001600160a01b0319166001600160a01b0392909216919091179055565b6001546001600160a01b03166108065760405163821e0eeb60e01b815260040160405180910390fd5b6001546001600160a01b0316331461083157604051634128496760e01b815260040160405180910390fd5b6001546104d8906001600160a01b0316610919565b61084e6108bf565b6001600160a01b0381166108b35760405162461bcd60e51b815260206004820152602660248201527f4f776e61626c653a206e6577206f776e657220697320746865207a65726f206160448201526564647265737360d01b6064820152608401610508565b6108bc81610919565b50565b6000546001600160a01b031633146104d85760405162461bcd60e51b815260206004820181905260248201527f4f776e61626c653a2063616c6c6572206973206e6f7420746865206f776e65726044820152606401610508565b600080546001600160a01b038381166001600160a01b0319831681178455604051919092169283917f8be0079c531659141344cd1fd0a4f28419497f9722a3daafe3b4186f6b6457e09190a35050565b60006020828403121561097b57600080fd5b81356005811061098a57600080fd5b9392505050565b634e487b7160e01b600052604160045260246000fd5b604051601f8201601f1916810167ffffffffffffffff811182821017156109d0576109d0610991565b604052919050565b600067ffffffffffffffff8211156109f2576109f2610991565b5060051b60200190565b80356001600160a01b0381168114610a1357600080fd5b919050565b600082601f830112610a2957600080fd5b81356020610a3e610a39836109d8565b6109a7565b8083825260208201915060208460051b870101935086841115610a6057600080fd5b602086015b84811015610a8357610a76816109fc565b8352918301918301610a65565b509695505050505050565b803560ff81168114610a1357600080fd5b60008060408385031215610ab257600080fd5b823567ffffffffffffffff80821115610aca57600080fd5b610ad686838701610a18565b9350602091508185013581811115610aed57600080fd5b85019050601f81018613610b0057600080fd5b8035610b0e610a39826109d8565b81815260059190911b82018301908381019088831115610b2d57600080fd5b928401925b82841015610b5257610b4384610a8e565b82529284019290840190610b32565b80955050505050509250929050565b600060208284031215610b7357600080fd5b61098a826109fc565b60006020808352835180602085015260005b81811015610baa57858101830151858201604001528201610b8e565b506000604082860101526040601f19601f8301168501019250505092915050565b60008060408385031215610bde57600080fd5b823567ffffffffffffffff811115610bf557600080fd5b610c0185828601610a18565b925050610c1060208401610a8e565b90509250929050565b60008060408385031215610c2c57600080fd5b610c35836109fc565b9150610c1060208401610a8e565b600060208284031215610c5557600080fd5b8151801515811461098a57600080fd5b6020810160058310610c8757634e487b7160e01b600052602160045260246000fd5b91905290565b634e487b7160e01b600052603260045260246000fdfea2646970667358221220a3c4649319866c4070619bc3388f2faefcabff16a3b71e0a3901143fbf77585864736f6c6343000818003360a060405234801561001057600080fd5b50604051610e0a380380610e0a83398101604081905261002f916100a4565b8061003933610054565b6001600160a01b031660805261004e81610054565b506100d4565b600080546001600160a01b038381166001600160a01b0319831681178455604051919092169283917f8be0079c531659141344cd1fd0a4f28419497f9722a3daafe3b4186f6b6457e09190a35050565b6000602082840312156100b657600080fd5b81516001600160a01b03811681146100cd57600080fd5b9392505050565b608051610cf861011260003960008181610202015281816102b6015281816102fd015281816103e10152818161069e01526106e50152610cf86000f3fe608060405234801561001057600080fd5b50600436106100ea5760003560e01c806390d5a92c1161008c578063bd9b6d8611610066578063bd9b6d86146101f5578063d3d24c9b146101fd578063dc08706d14610224578063f2fde38b1461025057600080fd5b806390d5a92c146101bc57806398575614146101cf578063b5ed298a146101e257600080fd5b806354fd4d50116100c857806354fd4d501461012a578063715018a61461015a57806376dd110f146101625780638da5cb5b1461019757600080fd5b80630daf978e146100ef5780631bf974f3146101045780634d98c79e14610117575b600080fd5b6101026100fd3660046109a4565b610263565b005b6101026101123660046109c6565b6102b4565b610102610125366004610ad9565b61044c565b60408051808201825260058152640312e312e360dc1b602082015290516101519190610b9b565b60405180910390f35b6101026104ca565b6101856101703660046109a4565b60036020526000908152604090205460ff1681565b60405160ff9091168152602001610151565b6000546001600160a01b03165b6040516001600160a01b039091168152602001610151565b6101026101ca366004610bea565b6104de565b6101026101dd366004610c38565b6105e3565b6101026101f03660046109a4565b61069c565b6101026107fc565b6101a47f000000000000000000000000000000000000000000000000000000000000000081565b6101856102323660046109a4565b6001600160a01b031660009081526003602052604090205460ff1690565b61010261025e3660046109a4565b610865565b61026b6108de565b6001600160a01b038116600081815260036020526040808220805460ff19169055517f21bb12bd10a218d68f0503025a9b700b4f3b7f84911a732adfe38e1c83b600439190a250565b7f00000000000000000000000000000000000000000000000000000000000000006001600160a01b03166102fb576040516371724ffd60e01b815260040160405180910390fd5b7f00000000000000000000000000000000000000000000000000000000000000006001600160a01b03811663c3c2ebbb336040516001600160e01b031960e084901b1681526001600160a01b039091166004820152602401602060405180830381865afa158015610370573d6000803e3d6000fd5b505050506040513d601f19601f820116820180604052508101906103949190610c62565b1580156103ac57506000546001600160a01b03163314155b156103ca5760405163054f3a3160e31b815260040160405180910390fd5b604051632b124b7960e01b81526001600160a01b037f00000000000000000000000000000000000000000000000000000000000000001690632b124b7990610416908590600401610c84565b600060405180830381600087803b15801561043057600080fd5b505af1158015610444573d6000803e3d6000fd5b505050505050565b6104546108de565b81518151146104755760405162514d8b60e31b815260040160405180910390fd5b60005b82518110156104c5576104bd83828151811061049657610496610cac565b60200260200101518383815181106104b0576104b0610cac565b60200260200101516105e3565b600101610478565b505050565b6104d26108de565b6104dc6000610938565b565b6104e66108de565b606460ff821611156105155760405163b3cbc6f360e01b815260ff821660048201526024015b60405180910390fd5b60005b82518110156104c557816003600085848151811061053857610538610cac565b60200260200101516001600160a01b03166001600160a01b0316815260200190815260200160002060006101000a81548160ff021916908360ff16021790555082818151811061058a5761058a610cac565b60200260200101516001600160a01b03167fd668a759494e00d1fde4393bb06c8012cfbbcc06aaf0522589c76c13eb23208f836040516105d3919060ff91909116815260200190565b60405180910390a2600101610518565b6105eb6108de565b606460ff821611156106155760405163b3cbc6f360e01b815260ff8216600482015260240161050c565b6001600160a01b03821661063c5760405163d92e233d60e01b815260040160405180910390fd5b6001600160a01b038216600081815260036020908152604091829020805460ff191660ff861690811790915591519182527fd668a759494e00d1fde4393bb06c8012cfbbcc06aaf0522589c76c13eb23208f910160405180910390a25050565b7f00000000000000000000000000000000000000000000000000000000000000006001600160a01b03166106e3576040516371724ffd60e01b815260040160405180910390fd5b7f00000000000000000000000000000000000000000000000000000000000000006001600160a01b03811663c3c2ebbb336040516001600160e01b031960e084901b1681526001600160a01b039091166004820152602401602060405180830381865afa158015610758573d6000803e3d6000fd5b505050506040513d601f19601f8201168201806040525081019061077c9190610c62565b15801561079457506000546001600160a01b03163314155b156107b25760405163054f3a3160e31b815260040160405180910390fd5b6001600160a01b0382166107d95760405163d92e233d60e01b815260040160405180910390fd5b50600180546001600160a01b0319166001600160a01b0392909216919091179055565b6001546001600160a01b03166108255760405163821e0eeb60e01b815260040160405180910390fd5b6001546001600160a01b0316331461085057604051634128496760e01b815260040160405180910390fd5b6001546104dc906001600160a01b0316610938565b61086d6108de565b6001600160a01b0381166108d25760405162461bcd60e51b815260206004820152602660248201527f4f776e61626c653a206e6577206f776e657220697320746865207a65726f206160448201526564647265737360d01b606482015260840161050c565b6108db81610938565b50565b6000546001600160a01b031633146104dc5760405162461bcd60e51b815260206004820181905260248201527f4f776e61626c653a2063616c6c6572206973206e6f7420746865206f776e6572604482015260640161050c565b600080546001600160a01b038381166001600160a01b0319831681178455604051919092169283917f8be0079c531659141344cd1fd0a4f28419497f9722a3daafe3b4186f6b6457e09190a35050565b80356001600160a01b038116811461099f57600080fd5b919050565b6000602082840312156109b657600080fd5b6109bf82610988565b9392505050565b6000602082840312156109d857600080fd5b8135600581106109bf57600080fd5b634e487b7160e01b600052604160045260246000fd5b604051601f8201601f1916810167ffffffffffffffff81118282101715610a2657610a266109e7565b604052919050565b600067ffffffffffffffff821115610a4857610a486109e7565b5060051b60200190565b600082601f830112610a6357600080fd5b81356020610a78610a7383610a2e565b6109fd565b8083825260208201915060208460051b870101935086841115610a9a57600080fd5b602086015b84811015610abd57610ab081610988565b8352918301918301610a9f565b509695505050505050565b803560ff8116811461099f57600080fd5b60008060408385031215610aec57600080fd5b823567ffffffffffffffff80821115610b0457600080fd5b610b1086838701610a52565b9350602091508185013581811115610b2757600080fd5b85019050601f81018613610b3a57600080fd5b8035610b48610a7382610a2e565b81815260059190911b82018301908381019088831115610b6757600080fd5b928401925b82841015610b8c57610b7d84610ac8565b82529284019290840190610b6c565b80955050505050509250929050565b60006020808352835180602085015260005b81811015610bc957858101830151858201604001528201610bad565b506000604082860101526040601f19601f8301168501019250505092915050565b60008060408385031215610bfd57600080fd5b823567ffffffffffffffff811115610c1457600080fd5b610c2085828601610a52565b925050610c2f60208401610ac8565b90509250929050565b60008060408385031215610c4b57600080fd5b610c5483610988565b9150610c2f60208401610ac8565b600060208284031215610c7457600080fd5b815180151581146109bf57600080fd5b6020810160058310610ca657634e487b7160e01b600052602160045260246000fd5b91905290565b634e487b7160e01b600052603260045260246000fdfea264697066735822122040fcd7946f1d44bd8868e16c1f1cca36af424063e759782436d971ffb647f4d164736f6c6343000818003360a060405234801561001057600080fd5b506040516112e93803806112e983398101604081905261002f916100a4565b8061003933610054565b6001600160a01b031660805261004e81610054565b506100d4565b600080546001600160a01b038381166001600160a01b0319831681178455604051919092169283917f8be0079c531659141344cd1fd0a4f28419497f9722a3daafe3b4186f6b6457e09190a35050565b6000602082840312156100b657600080fd5b81516001600160a01b03811681146100cd57600080fd5b9392505050565b6080516111d76101126000396000818161023c01528181610273015281816102ba0152818161039e015281816108eb015261093201526111d76000f3fe608060405234801561001057600080fd5b50600436106100f55760003560e01c8063b315cb3a11610097578063d019577a11610066578063d019577a14610201578063d37373ba14610224578063d3d24c9b14610237578063f2fde38b1461025e57600080fd5b8063b315cb3a146101b3578063b5ed298a146101c6578063bd9b6d86146101d9578063cc812f3a146101e157600080fd5b80635eafd108116100d35780635eafd10814610152578063715018a6146101655780638da5cb5b1461016d578063a81790581461019257600080fd5b80631bf974f3146100fa57806326a119291461010f57806354fd4d5014610122575b600080fd5b61010d610108366004610e0d565b610271565b005b61010d61011d366004610f32565b610409565b60408051808201825260058152640312e312e360dc1b602082015290516101499190610fed565b60405180910390f35b61010d61016036600461103c565b610487565b61010d6105e3565b6000546001600160a01b03165b6040516001600160a01b039091168152602001610149565b6101a56101a036600461103c565b6105f7565b604051908152602001610149565b61010d6101c1366004611066565b610628565b61010d6101d43660046110ab565b6108e9565b61010d610a49565b6101f46101ef3660046110ab565b610ab2565b60405161014991906110c6565b61021461020f36600461103c565b610b1e565b6040519015158152602001610149565b61010d61023236600461103c565b610b4c565b61017a7f000000000000000000000000000000000000000000000000000000000000000081565b61010d61026c3660046110ab565b610ce5565b7f00000000000000000000000000000000000000000000000000000000000000006001600160a01b03166102b8576040516371724ffd60e01b815260040160405180910390fd5b7f00000000000000000000000000000000000000000000000000000000000000006001600160a01b03811663c3c2ebbb336040516001600160e01b031960e084901b1681526001600160a01b039091166004820152602401602060405180830381865afa15801561032d573d6000803e3d6000fd5b505050506040513d601f19601f82011682018060405250810190610351919061110a565b15801561036957506000546001600160a01b03163314155b156103875760405163054f3a3160e31b815260040160405180910390fd5b604051632b124b7960e01b81526001600160a01b037f00000000000000000000000000000000000000000000000000000000000000001690632b124b79906103d390859060040161112c565b600060405180830381600087803b1580156103ed57600080fd5b505af1158015610401573d6000803e3d6000fd5b505050505050565b610411610d63565b80518251146104325760405162514d8b60e31b815260040160405180910390fd5b60005b82518110156104825761047a83828151811061045357610453611154565b602002602001015183838151811061046d5761046d611154565b6020026020010151610487565b600101610435565b505050565b61048f610d63565b806000036104b05760405163d7be2be360e01b815260040160405180910390fd5b6001600160a01b0382166104d75760405163d92e233d60e01b815260040160405180910390fd5b6104e18282610b1e565b1561051e576040516001600160a01b038316907f33a66df9ee2fd21e38fe3deee3babfebcde277451a9acc49ed0ae93c16e3e17290600090a25050565b6001600160a01b038216600090815260036020526040902054600a11610557576040516351d7d97160e11b815260040160405180910390fd5b6001600160a01b03821660008181526003602090815260408083208054600484528285208786528452828520819055600180820183559185528385200186905584845260058352818420868552909252808320805460ff191683179055519092849290917ffff458da2d09c8be67a97dc8c3f8f316c0f1afb907fc6de8d8c191f6bb8ebb0f9190a45050565b6105eb610d63565b6105f56000610dbd565b565b6003602052816000526040600020818154811061061357600080fd5b90600052602060002001600091509150505481565b610630610d63565b806000036106515760405163d7be2be360e01b815260040160405180910390fd5b60005b82518110156104825761068083828151811061067257610672611154565b602002602001015183610b1e565b156106d95782818151811061069757610697611154565b60200260200101516001600160a01b03167f33a66df9ee2fd21e38fe3deee3babfebcde277451a9acc49ed0ae93c16e3e17260405160405180910390a26108e1565b600a60ff16600360008584815181106106f4576106f4611154565b60200260200101516001600160a01b03166001600160a01b03168152602001908152602001600020805490501061073e576040516351d7d97160e11b815260040160405180910390fd5b6003600084838151811061075457610754611154565b60200260200101516001600160a01b03166001600160a01b03168152602001908152602001600020805490506004600085848151811061079657610796611154565b60200260200101516001600160a01b03166001600160a01b03168152602001908152602001600020600084815260200190815260200160002081905550600360008483815181106107e9576107e9611154565b6020908102919091018101516001600160a01b0316825281810192909252604001600090812080546001818101835591835292822090920184905584516005919086908590811061083c5761083c611154565b60200260200101516001600160a01b03166001600160a01b03168152602001908152602001600020600084815260200190815260200160002060006101000a81548160ff02191690831515021790555060011515828483815181106108a3576108a3611154565b60200260200101516001600160a01b03167ffff458da2d09c8be67a97dc8c3f8f316c0f1afb907fc6de8d8c191f6bb8ebb0f60405160405180910390a45b600101610654565b7f00000000000000000000000000000000000000000000000000000000000000006001600160a01b0316610930576040516371724ffd60e01b815260040160405180910390fd5b7f00000000000000000000000000000000000000000000000000000000000000006001600160a01b03811663c3c2ebbb336040516001600160e01b031960e084901b1681526001600160a01b039091166004820152602401602060405180830381865afa1580156109a5573d6000803e3d6000fd5b505050506040513d601f19601f820116820180604052508101906109c9919061110a565b1580156109e157506000546001600160a01b03163314155b156109ff5760405163054f3a3160e31b815260040160405180910390fd5b6001600160a01b038216610a265760405163d92e233d60e01b815260040160405180910390fd5b50600180546001600160a01b0319166001600160a01b0392909216919091179055565b6001546001600160a01b0316610a725760405163821e0eeb60e01b815260040160405180910390fd5b6001546001600160a01b03163314610a9d57604051634128496760e01b815260040160405180910390fd5b6001546105f5906001600160a01b0316610dbd565b6001600160a01b038116600090815260036020908152604091829020805483518184028101840190945280845260609392830182828015610b1257602002820191906000526020600020905b815481526020019060010190808311610afe575b50505050509050919050565b6001600160a01b038216600090815260056020908152604080832084845290915290205460ff165b92915050565b610b54610d63565b610b5e8282610b1e565b15610ccc576001600160a01b03821660009081526003602052604081208054610b899060019061116a565b81548110610b9957610b99611154565b90600052602060002001549050818114610c1f576001600160a01b038316600081815260046020908152604080832086845282528083205493835260039091529020805483919083908110610bf057610bf0611154565b60009182526020808320909101929092556001600160a01b038616815260048252604080822085835290925220555b6001600160a01b0383166000908152600360205260409020805480610c4657610c4661118b565b6000828152602080822083016000199081018390559092019092556001600160a01b0385168083526005825260408084208685528352808420805460ff191690558184526004835280842086855290925281832083905590518491907ffff458da2d09c8be67a97dc8c3f8f316c0f1afb907fc6de8d8c191f6bb8ebb0f908490a4505050565b604051637de8c17d60e01b815260040160405180910390fd5b610ced610d63565b6001600160a01b038116610d575760405162461bcd60e51b815260206004820152602660248201527f4f776e61626c653a206e6577206f776e657220697320746865207a65726f206160448201526564647265737360d01b60648201526084015b60405180910390fd5b610d6081610dbd565b50565b6000546001600160a01b031633146105f55760405162461bcd60e51b815260206004820181905260248201527f4f776e61626c653a2063616c6c6572206973206e6f7420746865206f776e65726044820152606401610d4e565b600080546001600160a01b038381166001600160a01b0319831681178455604051919092169283917f8be0079c531659141344cd1fd0a4f28419497f9722a3daafe3b4186f6b6457e09190a35050565b600060208284031215610e1f57600080fd5b813560058110610e2e57600080fd5b9392505050565b634e487b7160e01b600052604160045260246000fd5b604051601f8201601f1916810167ffffffffffffffff81118282101715610e7457610e74610e35565b604052919050565b600067ffffffffffffffff821115610e9657610e96610e35565b5060051b60200190565b80356001600160a01b0381168114610eb757600080fd5b919050565b600082601f830112610ecd57600080fd5b81356020610ee2610edd83610e7c565b610e4b565b8083825260208201915060208460051b870101935086841115610f0457600080fd5b602086015b84811015610f2757610f1a81610ea0565b8352918301918301610f09565b509695505050505050565b60008060408385031215610f4557600080fd5b823567ffffffffffffffff80821115610f5d57600080fd5b610f6986838701610ebc565b9350602091508185013581811115610f8057600080fd5b85019050601f81018613610f9357600080fd5b8035610fa1610edd82610e7c565b81815260059190911b82018301908381019088831115610fc057600080fd5b928401925b82841015610fde57833582529284019290840190610fc5565b80955050505050509250929050565b60006020808352835180602085015260005b8181101561101b57858101830151858201604001528201610fff565b506000604082860101526040601f19601f8301168501019250505092915050565b6000806040838503121561104f57600080fd5b61105883610ea0565b946020939093013593505050565b6000806040838503121561107957600080fd5b823567ffffffffffffffff81111561109057600080fd5b61109c85828601610ebc565b95602094909401359450505050565b6000602082840312156110bd57600080fd5b610e2e82610ea0565b6020808252825182820181905260009190848201906040850190845b818110156110fe578351835292840192918401916001016110e2565b50909695505050505050565b60006020828403121561111c57600080fd5b81518015158114610e2e57600080fd5b602081016005831061114e57634e487b7160e01b600052602160045260246000fd5b91905290565b634e487b7160e01b600052603260045260246000fd5b81810381811115610b4657634e487b7160e01b600052601160045260246000fd5b634e487b7160e01b600052603160045260246000fdfea264697066735822122020f7363d1abbb45dbdaadd82af123d3cd26d59311a5f9a28c53d3527540aaba764736f6c6343000818003360a060405234801561001057600080fd5b50604051610e69380380610e6983398101604081905261002f916100a4565b8061003933610054565b6001600160a01b031660805261004e81610054565b506100d4565b600080546001600160a01b038381166001600160a01b0319831681178455604051919092169283917f8be0079c531659141344cd1fd0a4f28419497f9722a3daafe3b4186f6b6457e09190a35050565b6000602082840312156100b657600080fd5b81516001600160a01b03811681146100cd57600080fd5b9392505050565b608051610d576101126000396000818161019501528181610300015281816103470152818161042b015281816105fe01526106450152610d576000f3fe608060405234801561001057600080fd5b50600436106100cf5760003560e01c80638da5cb5b1161008c578063d3d24c9b11610066578063d3d24c9b14610190578063d4f93870146101b7578063ddbd94a9146101cc578063f2fde38b146101df57600080fd5b80638da5cb5b14610150578063b5ed298a14610175578063bd9b6d861461018857600080fd5b806312be4100146100d45780631bf974f3146100de5780632d59e38b146100f157806342456e771461010e57806354fd4d5014610121578063715018a614610148575b600080fd5b6100dc6101f2565b005b6100dc6100ec366004610b39565b6102fe565b6100f9610496565b60405190151581526020015b60405180910390f35b6100dc61011c366004610b7d565b6104a8565b60408051808201825260058152640312e312e360dc1b602082015290516101059190610bb0565b6100dc6105e8565b6000546001600160a01b03165b6040516001600160a01b039091168152602001610105565b6100dc610183366004610bff565b6105fc565b6100dc61075c565b61015d7f000000000000000000000000000000000000000000000000000000000000000081565b6101bf6107c5565b6040516101059190610c28565b6100dc6101da366004610b7d565b610843565b6100dc6101ed366004610bff565b610957565b60005b6003548110156102fb575b60035415801590610212575060035481105b801561024c5750426003828154811061022d5761022d610c84565b600091825260209091200154600160401b90046001600160401b031611155b156102f357600015156003828154811061026857610268610c84565b9060005260206000200160000160089054906101000a90046001600160401b03166001600160401b0316600383815481106102a5576102a5610c84565b60009182526020822001546040516001600160401b03909116917fc59968cc6328a09c380b64d3606420afabed418dd4248c157679cbaaa395909891a46102ee8160ff166109cd565b610200565b6001016101f5565b50565b7f00000000000000000000000000000000000000000000000000000000000000006001600160a01b0316610345576040516371724ffd60e01b815260040160405180910390fd5b7f00000000000000000000000000000000000000000000000000000000000000006001600160a01b03811663c3c2ebbb336040516001600160e01b031960e084901b1681526001600160a01b039091166004820152602401602060405180830381865afa1580156103ba573d6000803e3d6000fd5b505050506040513d601f19601f820116820180604052508101906103de9190610c9a565b1580156103f657506000546001600160a01b03163314155b156104145760405163054f3a3160e31b815260040160405180910390fd5b604051632b124b7960e01b81526001600160a01b037f00000000000000000000000000000000000000000000000000000000000000001690632b124b7990610460908590600401610cbc565b600060405180830381600087803b15801561047a57600080fd5b505af115801561048e573d6000803e3d6000fd5b505050505050565b60006104a0610a8f565b506003541590565b6104b0610a8f565b600354600f116104d35760405163d30bd9c560e01b815260040160405180910390fd5b6104db6101f2565b816001600160401b0316816001600160401b0316111580610505575042826001600160401b031611155b1561053b576040516338121a1360e11b81526001600160401b038084166004830152821660248201526044015b60405180910390fd5b6040805180820182526001600160401b03808516808352848216602084018181526003805460018181018355600092835287517fc2575a0e9e593c00f959f8c92f12db2869c3395a3b0502d05e2516446f71f85b909201805494518816600160401b026001600160801b0319909516929097169190911792909217909455945193949390927fc59968cc6328a09c380b64d3606420afabed418dd4248c157679cbaaa395909891a4505050565b6105f0610a8f565b6105fa6000610ae9565b565b7f00000000000000000000000000000000000000000000000000000000000000006001600160a01b0316610643576040516371724ffd60e01b815260040160405180910390fd5b7f00000000000000000000000000000000000000000000000000000000000000006001600160a01b03811663c3c2ebbb336040516001600160e01b031960e084901b1681526001600160a01b039091166004820152602401602060405180830381865afa1580156106b8573d6000803e3d6000fd5b505050506040513d601f19601f820116820180604052508101906106dc9190610c9a565b1580156106f457506000546001600160a01b03163314155b156107125760405163054f3a3160e31b815260040160405180910390fd5b6001600160a01b0382166107395760405163d92e233d60e01b815260040160405180910390fd5b50600180546001600160a01b0319166001600160a01b0392909216919091179055565b6001546001600160a01b03166107855760405163821e0eeb60e01b815260040160405180910390fd5b6001546001600160a01b031633146107b057604051634128496760e01b815260040160405180910390fd5b6001546105fa906001600160a01b0316610ae9565b60606107cf610a8f565b6003805480602002602001604051908101604052809291908181526020016000905b8282101561083a57600084815260209081902060408051808201909152908401546001600160401b038082168352600160401b90910416818301528252600190920191016107f1565b50505050905090565b61084b610a8f565b60005b6003548110156109525760005b6003541580159061086d575060035482105b8015610877575080155b156109495760006003838154811061089157610891610c84565b6000918252602091829020604080518082019091529101546001600160401b03808216808452600160401b9092048116938301939093529092509086161480156108f05750836001600160401b031681602001516001600160401b0316145b1561093e576108fe836109cd565b6040516000906001600160401b0380871691908816907fc59968cc6328a09c380b64d3606420afabed418dd4248c157679cbaaa3959098908490a4610943565b600191505b5061085b565b5060010161084e565b505050565b61095f610a8f565b6001600160a01b0381166109c45760405162461bcd60e51b815260206004820152602660248201527f4f776e61626c653a206e6577206f776e657220697320746865207a65726f206160448201526564647265737360d01b6064820152608401610532565b6102fb81610ae9565b60038054906109dd600183610ce4565b815481106109ed576109ed610c84565b9060005260206000200160038381548110610a0a57610a0a610c84565b600091825260209091208254910180546001600160401b0392831667ffffffffffffffff1982168117835593546001600160801b0319909116909317600160401b938490049092169092021790556003805480610a6957610a69610d0b565b600082815260209020810160001990810180546001600160801b03191690550190555050565b6000546001600160a01b031633146105fa5760405162461bcd60e51b815260206004820181905260248201527f4f776e61626c653a2063616c6c6572206973206e6f7420746865206f776e65726044820152606401610532565b600080546001600160a01b038381166001600160a01b0319831681178455604051919092169283917f8be0079c531659141344cd1fd0a4f28419497f9722a3daafe3b4186f6b6457e09190a35050565b600060208284031215610b4b57600080fd5b813560058110610b5a57600080fd5b9392505050565b80356001600160401b0381168114610b7857600080fd5b919050565b60008060408385031215610b9057600080fd5b610b9983610b61565b9150610ba760208401610b61565b90509250929050565b60006020808352835180602085015260005b81811015610bde57858101830151858201604001528201610bc2565b506000604082860101526040601f19601f8301168501019250505092915050565b600060208284031215610c1157600080fd5b81356001600160a01b0381168114610b5a57600080fd5b602080825282518282018190526000919060409081850190868401855b82811015610c7757815180516001600160401b0390811686529087015116868501529284019290850190600101610c45565b5091979650505050505050565b634e487b7160e01b600052603260045260246000fd5b600060208284031215610cac57600080fd5b81518015158114610b5a57600080fd5b6020810160058310610cde57634e487b7160e01b600052602160045260246000fd5b91905290565b81810381811115610d0557634e487b7160e01b600052601160045260246000fd5b92915050565b634e487b7160e01b600052603160045260246000fdfea2646970667358221220f8037e7e39cb99ec3a78369504217b092f439ee3c6e0626cb6b3b28d84ca07ae64736f6c63430008180033371a0078bf8859908953848339bea5f1d5775487f6c2f50fd279fcc2cafd8c607613a25ecc738585a232ad50a301178f12b3ba8887d13e138b523c4269c47689","linkReferences":{}},"methodIdentifiers":{"DEFAULT_ADMIN_ROLE()":"a217fddf","activatePauseRuleCheck(bool)":"3ec7d698","addAccessLevel(address,uint8)":"aa62f1a4","addAccessLevelAdmin(address)":"83d74cdc","addAccessLevelToMultipleAccounts(address[],uint8)":"964700c8","addAppAdministrator(address)":"a5b73e7c","addMultipleAccessLevelAdmins(address[])":"9fe3cd2a","addMultipleAccessLevels(address[],uint8[])":"417b0dd9","addMultipleAppAdministrator(address[])":"36f54375","addMultipleRiskAdmin(address[])":"b8396f5e","addMultipleRiskScores(address[],uint8[])":"4d98c79e","addMultipleRuleAdministrator(address[])":"1b945a5d","addMultipleRuleBypassAccounts(address[])":"ca3f1ede","addMultipleTagToMultipleAccounts(address[],bytes32[])":"26a11929","addPauseRule(uint64,uint64)":"42456e77","addRiskAdmin(address)":"5b9a94e4","addRiskScore(address,uint8)":"451babd8","addRiskScoreToMultipleAccounts(address[],uint8)":"90d5a92c","addRuleAdministrator(address)":"6e8bac51","addRuleBypassAccount(address)":"388ff0c1","addTag(address,bytes32)":"5eafd108","addTagToMultipleAccounts(address[],bytes32)":"b315cb3a","applicationHandler()":"46f0ea20","approveAddressToTradingRuleAllowlist(address,bool)":"25ed7d4a","checkApplicationRules(address,address,address,uint256,uint16,uint256,uint8,uint8)":"f142a46f","cleanOutdatedRules()":"12be4100","confirmAppManager(address)":"f95228c0","confirmDataContractMigration(address)":"ced6eae6","confirmNewDataProvider(uint8)":"2b124b79","confirmSuperAdmin()":"4eec274c","deRegisterAMM(address)":"6db4a9c9","deRegisterTreasury(address)":"564f9db3","deregisterToken(string)":"7bdc8bbf","getAccessLevel(address)":"5bc008a0","getAccessLevelDataAddress()":"6dbda16a","getAccessLevelProvider()":"b1b65c35","getAccountDataAddress()":"82654fe9","getAccountProvider()":"d881be2f","getAllTags(address)":"cc812f3a","getHandlerAddress()":"6f9c83b8","getPauseRules()":"d4f93870","getPauseRulesDataAddress()":"4f3e5959","getPauseRulesProvider()":"f987b148","getRiskDataAddress()":"19d1c21d","getRiskScore(address)":"dc08706d","getRiskScoresProvider()":"db6fb325","getRoleAdmin(bytes32)":"248a9ca3","getRoleMember(bytes32,uint256)":"9010d07c","getRoleMemberCount(bytes32)":"ca15c873","getTagProvider()":"046e42a4","getTagsDataAddress()":"0f7b66b6","getTokenAddress(string)":"c4091236","getTokenID(address)":"63f8071c","getTokenList()":"273cbaa0","grantRole(bytes32,address)":"2f2ff15d","hasRole(bytes32,address)":"91d14854","hasTag(address,bytes32)":"d019577a","isAccessLevelAdmin(address)":"41b77fff","isAppAdministrator(address)":"c3c2ebbb","isRegisteredAMM(address)":"9a4e34ba","isRegisteredHandler(address)":"54c61507","isRiskAdmin(address)":"674b5e4d","isRuleAdministrator(address)":"d4a7db7f","isRuleBypassAccount(address)":"7069e99f","isSuperAdmin(address)":"df7f453b","isTradingRuleBypasser(address)":"be4eb0c7","isTreasury(address)":"516f0a1b","proposeAccessLevelsProvider(address)":"7e8b8749","proposeAccountsProvider(address)":"cf1c6f65","proposeDataContractMigration(address)":"7caca7d4","proposeNewSuperAdmin(address)":"25f4671c","proposePauseRulesProvider(address)":"395a3f2b","proposeRiskScoresProvider(address)":"dfc4834d","proposeTagsProvider(address)":"1bf31cee","registerAMM(address)":"da517b67","registerToken(string,address)":"69f667ed","registerTreasury(address)":"789d87a2","removeAccessLevel(address)":"6aa806a7","removePauseRule(uint64,uint64)":"ddbd94a9","removeRiskScore(address)":"61c69861","removeTag(address,bytes32)":"d37373ba","renounceAccessLevelAdmin()":"45467e2d","renounceAppAdministrator()":"0c631214","renounceRiskAdmin()":"75c5512a","renounceRole(bytes32,address)":"36568abe","renounceRuleAdministrator()":"5548064f","renounceRuleBypassAccount()":"e4a5a465","revokeRole(bytes32,address)":"d547741f","setAppName(string)":"f84ed61d","setNewApplicationHandlerAddress(address)":"df0a6446","supportsInterface(bytes4)":"01ffc9a7","version()":"54fd4d50"},"id":130}