{"abi":[{"type":"constructor","inputs":[],"stateMutability":"nonpayable"},{"type":"function","name":"addAddressToApprovedList","inputs":[{"name":"newApprove","type":"address","internalType":"address"}],"outputs":[],"stateMutability":"nonpayable"},{"type":"function","name":"addToApprovedList","inputs":[{"name":"newApproves","type":"address[]","internalType":"address[]"}],"outputs":[],"stateMutability":"nonpayable"},{"type":"function","name":"isApproved","inputs":[{"name":"addr","type":"address","internalType":"address"}],"outputs":[{"name":"","type":"bool","internalType":"bool"}],"stateMutability":"view"},{"type":"function","name":"isApprovedVerbose","inputs":[{"name":"addr","type":"address","internalType":"address"}],"outputs":[{"name":"","type":"bool","internalType":"bool"}],"stateMutability":"nonpayable"},{"type":"function","name":"name","inputs":[],"outputs":[{"name":"","type":"string","internalType":"string"}],"stateMutability":"pure"},{"type":"function","name":"owner","inputs":[],"outputs":[{"name":"","type":"address","internalType":"address"}],"stateMutability":"view"},{"type":"function","name":"removeFromAprovededList","inputs":[{"name":"removeApproves","type":"address[]","internalType":"address[]"}],"outputs":[],"stateMutability":"nonpayable"},{"type":"function","name":"renounceOwnership","inputs":[],"outputs":[],"stateMutability":"nonpayable"},{"type":"function","name":"transferOwnership","inputs":[{"name":"newOwner","type":"address","internalType":"address"}],"outputs":[],"stateMutability":"nonpayable"},{"type":"event","name":"AD1467_ApproveListOracleDeployed","inputs":[],"anonymous":false},{"type":"event","name":"AD1467_ApprovedAddress","inputs":[{"name":"addr","type":"address","indexed":true,"internalType":"address"}],"anonymous":false},{"type":"event","name":"AD1467_DeniedAddress","inputs":[{"name":"addr","type":"address","indexed":true,"internalType":"address"}],"anonymous":false},{"type":"event","name":"AD1467_DeniedListOracleDeployed","inputs":[],"anonymous":false},{"type":"event","name":"AD1467_NonDeniedAddress","inputs":[{"name":"addr","type":"address","indexed":true,"internalType":"address"}],"anonymous":false},{"type":"event","name":"AD1467_NotApprovedAddress","inputs":[{"name":"addr","type":"address","indexed":true,"internalType":"address"}],"anonymous":false},{"type":"event","name":"AD1467_OracleListChanged","inputs":[{"name":"add","type":"bool","indexed":true,"internalType":"bool"},{"name":"addresses","type":"address[]","indexed":false,"internalType":"address[]"}],"anonymous":false},{"type":"event","name":"OwnershipTransferred","inputs":[{"name":"previousOwner","type":"address","indexed":true,"internalType":"address"},{"name":"newOwner","type":"address","indexed":true,"internalType":"address"}],"anonymous":false}],"bytecode":{"object":"0x608060405234801561001057600080fd5b5061001a33610048565b6040517fea65e47f8f470c915856407568b15d1780147b7d65ec6675bd26df1be6c33f3f90600090a1610098565b600080546001600160a01b038381166001600160a01b0319831681178455604051919092169283917f8be0079c531659141344cd1fd0a4f28419497f9722a3daafe3b4186f6b6457e09190a35050565b61078a806100a76000396000f3fe608060405234801561001057600080fd5b50600436106100935760003560e01c8063715018a611610066578063715018a61461011a5780638da5cb5b1461012257806398e14d1f1461013d578063e692545e14610150578063f2fde38b1461016357600080fd5b806306fdde03146100985780631367588c146100b6578063673448dd146100cb57806369d05d3c14610107575b600080fd5b6100a0610176565b6040516100ad9190610569565b60405180910390f35b6100c96100c43660046105e5565b610196565b005b6100f76100d93660046106aa565b6001600160a01b031660009081526001602052604090205460ff1690565b60405190151581526020016100ad565b6100f76101153660046106aa565b61023a565b6100c96102d8565b6000546040516001600160a01b0390911681526020016100ad565b6100c961014b3660046106aa565b6102ec565b6100c961015e3660046105e5565b6103a7565b6100c96101713660046106aa565b610441565b606060405180606001604052806025815260200161073060259139905090565b61019e6104bf565b60005b81518110156101fb5760018060008484815181106101c1576101c16106cc565b6020908102919091018101516001600160a01b03168252810191909152604001600020805460ff19169115159190911790556001016101a1565b50600115157f4d94b8b2cb01ce2763a1f00ce532761cdfbd25a165c8d48ef747954e08225aa78260405161022f91906106e2565b60405180910390a250565b6001600160a01b03811660009081526001602052604081205460ff1615610297576040516001600160a01b038316907fa560109d2a3c4855b254ddb8433f87b2cb4b7b3b4a5a20f3c60f3848188a950790600090a2506001919050565b6040516001600160a01b038316907f83aab2a2c4bb39cdafdf00ae886855a16f0a93a7f6b8053abb65299f5149eaf190600090a2506000919050565b919050565b6102e06104bf565b6102ea6000610519565b565b6102f46104bf565b6001600160a01b0381166000908152600160208181526040808420805460ff1916841790558051838152808201909152919082810190803683370190505090508181600081518110610348576103486106cc565b60200260200101906001600160a01b031690816001600160a01b031681525050600115157f4d94b8b2cb01ce2763a1f00ce532761cdfbd25a165c8d48ef747954e08225aa78260405161039b91906106e2565b60405180910390a25050565b6103af6104bf565b60005b815181101561040d576000600160008484815181106103d3576103d36106cc565b6020908102919091018101516001600160a01b03168252810191909152604001600020805460ff19169115159190911790556001016103b2565b50600015157f4d94b8b2cb01ce2763a1f00ce532761cdfbd25a165c8d48ef747954e08225aa78260405161022f91906106e2565b6104496104bf565b6001600160a01b0381166104b35760405162461bcd60e51b815260206004820152602660248201527f4f776e61626c653a206e6577206f776e657220697320746865207a65726f206160448201526564647265737360d01b60648201526084015b60405180910390fd5b6104bc81610519565b50565b6000546001600160a01b031633146102ea5760405162461bcd60e51b815260206004820181905260248201527f4f776e61626c653a2063616c6c6572206973206e6f7420746865206f776e657260448201526064016104aa565b600080546001600160a01b038381166001600160a01b0319831681178455604051919092169283917f8be0079c531659141344cd1fd0a4f28419497f9722a3daafe3b4186f6b6457e09190a35050565b60006020808352835180602085015260005b818110156105975785810183015185820160400152820161057b565b506000604082860101526040601f19601f8301168501019250505092915050565b634e487b7160e01b600052604160045260246000fd5b80356001600160a01b03811681146102d357600080fd5b600060208083850312156105f857600080fd5b823567ffffffffffffffff8082111561061057600080fd5b818501915085601f83011261062457600080fd5b813581811115610636576106366105b8565b8060051b604051601f19603f8301168101818110858211171561065b5761065b6105b8565b60405291825284820192508381018501918883111561067957600080fd5b938501935b8285101561069e5761068f856105ce565b8452938501939285019261067e565b98975050505050505050565b6000602082840312156106bc57600080fd5b6106c5826105ce565b9392505050565b634e487b7160e01b600052603260045260246000fd5b6020808252825182820181905260009190848201906040850190845b818110156107235783516001600160a01b0316835292840192918401916001016106fe565b5090969550505050505056fe4578616d706c6520617070726f7665206f7261636c6528417070726f766564204c69737429a2646970667358221220421a22478e640b4974dca2d8a7d33bf90e48487235a7519c4caed9ebbe59b58e64736f6c63430008180033","linkReferences":{}},"methodIdentifiers":{"addAddressToApprovedList(address)":"98e14d1f","addToApprovedList(address[])":"1367588c","isApproved(address)":"673448dd","isApprovedVerbose(address)":"69d05d3c","name()":"06fdde03","owner()":"8da5cb5b","removeFromAprovededList(address[])":"e692545e","renounceOwnership()":"715018a6","transferOwnership(address)":"f2fde38b"},"id":208}