{"abi":[{"type":"function","name":"checkTokenMinHoldTime","inputs":[{"name":"_holdHours","type":"uint32","internalType":"uint32"},{"name":"_ownershipTs","type":"uint256","internalType":"uint256"}],"outputs":[],"stateMutability":"view"},{"type":"error","name":"MaxTagLimitReached","inputs":[]},{"type":"error","name":"NotEnoughBalance","inputs":[]},{"type":"error","name":"OverMaxDailyTrades","inputs":[]},{"type":"error","name":"RuleDoesNotExist","inputs":[]},{"type":"error","name":"UnderHoldPeriod","inputs":[]}],"bytecode":{"object":"0x608060405234801561001057600080fd5b5061014c806100206000396000f3fe608060405234801561001057600080fd5b506004361061002b5760003560e01c80631051b95b14610030575b600080fd5b61004361003e36600461008a565b610045565b005b80156100865761005782610e106100d5565b63ffffffff1661006782426100fd565b101561008657604051635f98112f60e01b815260040160405180910390fd5b5050565b6000806040838503121561009d57600080fd5b823563ffffffff811681146100b157600080fd5b946020939093013593505050565b634e487b7160e01b600052601160045260246000fd5b63ffffffff8181168382160280821691908281146100f5576100f56100bf565b505092915050565b81810381811115610110576101106100bf565b9291505056fea26469706673582212206df4ba0dd87bc106d3f20bbd875b8518d72136a1f3fcdb158d14c98a2a4da70364736f6c63430008180033","linkReferences":{}},"methodIdentifiers":{"checkTokenMinHoldTime(uint32,uint256)":"1051b95b"},"id":233}