{"abi":[{"type":"function","name":"addAccountApproveDenyOracle","inputs":[{"name":"_appManagerAddr","type":"address","internalType":"address"},{"name":"_type","type":"uint8","internalType":"uint8"},{"name":"_oracleAddress","type":"address","internalType":"address"}],"outputs":[{"name":"","type":"uint32","internalType":"uint32"}],"stateMutability":"nonpayable"},{"type":"function","name":"addPurchaseFeeByVolumeRule","inputs":[{"name":"_appManagerAddr","type":"address","internalType":"address"},{"name":"_volume","type":"uint256","internalType":"uint256"},{"name":"_rateIncreased","type":"uint16","internalType":"uint16"}],"outputs":[{"name":"","type":"uint32","internalType":"uint32"}],"stateMutability":"nonpayable"},{"type":"function","name":"addTokenMaxBuyVolume","inputs":[{"name":"_appManagerAddr","type":"address","internalType":"address"},{"name":"_supplyPercentage","type":"uint16","internalType":"uint16"},{"name":"_period","type":"uint16","internalType":"uint16"},{"name":"_totalSupply","type":"uint256","internalType":"uint256"},{"name":"_startTime","type":"uint64","internalType":"uint64"}],"outputs":[{"name":"","type":"uint32","internalType":"uint32"}],"stateMutability":"nonpayable"},{"type":"function","name":"addTokenMaxPriceVolatility","inputs":[{"name":"_appManagerAddr","type":"address","internalType":"address"},{"name":"_max","type":"uint16","internalType":"uint16"},{"name":"_period","type":"uint16","internalType":"uint16"},{"name":"_hoursFrozen","type":"uint16","internalType":"uint16"},{"name":"_totalSupply","type":"uint256","internalType":"uint256"}],"outputs":[{"name":"","type":"uint32","internalType":"uint32"}],"stateMutability":"nonpayable"},{"type":"function","name":"addTokenMaxSellVolume","inputs":[{"name":"_appManagerAddr","type":"address","internalType":"address"},{"name":"_supplyPercentage","type":"uint16","internalType":"uint16"},{"name":"_period","type":"uint16","internalType":"uint16"},{"name":"_totalSupply","type":"uint256","internalType":"uint256"},{"name":"_startTime","type":"uint64","internalType":"uint64"}],"outputs":[{"name":"","type":"uint32","internalType":"uint32"}],"stateMutability":"nonpayable"},{"type":"function","name":"addTokenMaxSupplyVolatility","inputs":[{"name":"_appManagerAddr","type":"address","internalType":"address"},{"name":"_maxPercentage","type":"uint16","internalType":"uint16"},{"name":"_period","type":"uint16","internalType":"uint16"},{"name":"_startTime","type":"uint64","internalType":"uint64"},{"name":"_totalSupply","type":"uint256","internalType":"uint256"}],"outputs":[{"name":"","type":"uint32","internalType":"uint32"}],"stateMutability":"nonpayable"},{"type":"function","name":"addTokenMaxTradingVolume","inputs":[{"name":"_appManagerAddr","type":"address","internalType":"address"},{"name":"_maxPercentage","type":"uint24","internalType":"uint24"},{"name":"_hoursPerPeriod","type":"uint16","internalType":"uint16"},{"name":"_startTime","type":"uint64","internalType":"uint64"},{"name":"_totalSupply","type":"uint256","internalType":"uint256"}],"outputs":[{"name":"","type":"uint32","internalType":"uint32"}],"stateMutability":"nonpayable"},{"type":"function","name":"addTokenMinTxSize","inputs":[{"name":"_appManagerAddr","type":"address","internalType":"address"},{"name":"_minSize","type":"uint256","internalType":"uint256"}],"outputs":[{"name":"","type":"uint32","internalType":"uint32"}],"stateMutability":"nonpayable"},{"type":"function","name":"getPurchaseFeeByVolumeRule","inputs":[{"name":"_index","type":"uint32","internalType":"uint32"}],"outputs":[{"name":"","type":"tuple","internalType":"struct INonTaggedRules.TokenPurchaseFeeByVolume","components":[{"name":"volume","type":"uint256","internalType":"uint256"},{"name":"rateIncreased","type":"uint16","internalType":"uint16"}]}],"stateMutability":"view"},{"type":"function","name":"getTokenMaxPriceVolatility","inputs":[{"name":"_index","type":"uint32","internalType":"uint32"}],"outputs":[{"name":"","type":"tuple","internalType":"struct INonTaggedRules.TokenMaxPriceVolatility","components":[{"name":"max","type":"uint16","internalType":"uint16"},{"name":"period","type":"uint16","internalType":"uint16"},{"name":"hoursFrozen","type":"uint16","internalType":"uint16"},{"name":"totalSupply","type":"uint256","internalType":"uint256"}]}],"stateMutability":"view"},{"type":"function","name":"getTotalTokenMaxPriceVolatility","inputs":[],"outputs":[{"name":"","type":"uint32","internalType":"uint32"}],"stateMutability":"view"},{"type":"function","name":"getTotalTokenPurchaseFeeByVolumeRules","inputs":[],"outputs":[{"name":"","type":"uint32","internalType":"uint32"}],"stateMutability":"view"},{"type":"event","name":"AD1467_ProtocolRuleCreated","inputs":[{"name":"ruleType","type":"bytes32","indexed":true,"internalType":"bytes32"},{"name":"ruleId","type":"uint32","indexed":true,"internalType":"uint32"},{"name":"extraTags","type":"bytes32[]","indexed":false,"internalType":"bytes32[]"}],"anonymous":false},{"type":"error","name":"AppManagerNotConnected","inputs":[]},{"type":"error","name":"BalanceAmountsShouldHave5Levels","inputs":[{"name":"inputLevels","type":"uint8","internalType":"uint8"}]},{"type":"error","name":"BelowMinAdminThreshold","inputs":[]},{"type":"error","name":"BlankTag","inputs":[]},{"type":"error","name":"CantMixPeriodicAndNonPeriodic","inputs":[]},{"type":"error","name":"IndexOutOfRange","inputs":[]},{"type":"error","name":"InputArraysMustHaveSameLength","inputs":[]},{"type":"error","name":"InputArraysSizesNotValid","inputs":[]},{"type":"error","name":"InvalidHourOfTheDay","inputs":[]},{"type":"error","name":"InvalidOracleType","inputs":[{"name":"_type","type":"uint8","internalType":"uint8"}]},{"type":"error","name":"InvalidRuleInput","inputs":[]},{"type":"error","name":"InvalidTimestamp","inputs":[{"name":"_timestamp","type":"uint64","internalType":"uint64"}]},{"type":"error","name":"InvertedLimits","inputs":[]},{"type":"error","name":"NotAppAdministrator","inputs":[]},{"type":"error","name":"NotAppAdministratorOrOwner","inputs":[]},{"type":"error","name":"NotRuleAdministrator","inputs":[]},{"type":"error","name":"NotSuperAdmin","inputs":[{"name":"","type":"address","internalType":"address"}]},{"type":"error","name":"RuleDoesNotExist","inputs":[]},{"type":"error","name":"TagAlreadyExists","inputs":[]},{"type":"error","name":"ValueOutOfRange","inputs":[{"name":"_value","type":"uint256","internalType":"uint256"}]},{"type":"error","name":"WithdrawalAmountsShouldHave5Levels","inputs":[{"name":"inputLevels","type":"uint8","internalType":"uint8"}]},{"type":"error","name":"WrongArrayOrder","inputs":[]},{"type":"error","name":"ZeroAddress","inputs":[]},{"type":"error","name":"ZeroValueNotPermited","inputs":[]}],"bytecode":{"object":"0x608060405234801561001057600080fd5b50611a0a806100206000396000f3fe608060405234801561001057600080fd5b50600436106100b45760003560e01c806370f247dc1161007157806370f247dc1461013a578063722042141461014d5780638bd537ed1461017f578063e323230f14610192578063f4cb4f39146101a5578063fa3a1c8d146101f357600080fd5b806303d4e11b146100b95780630e469abe146100db578063133510fa146100ee578063564ff334146101015780635f65ba0114610114578063632e195d14610127575b600080fd5b6100c16101fb565b60405163ffffffff90911681526020015b60405180910390f35b6100c16100e93660046116b2565b610216565b6100c16100fc366004611727565b610479565b6100c161010f36600461178d565b610743565b6100c16101223660046117d8565b61092b565b6100c1610135366004611807565b610b15565b6100c1610148366004611807565b610dc5565b61016061015b366004611865565b610ff3565b604080518251815260209283015161ffff1692810192909252016100d2565b6100c161018d366004611892565b611066565b6100c16101a03660046118bc565b61122f565b6101b86101b3366004611865565b6113f7565b60408051825161ffff9081168252602080850151821690830152838301511691810191909152606091820151918101919091526080016100d2565b6100c161148b565b600080610206611496565b6001015463ffffffff1692915050565b6000836001600160a01b038116610240576040516371724ffd60e01b815260040160405180910390fd5b806001600160a01b03811663d4a7db7f336040516001600160e01b031960e084901b1681526001600160a01b039091166004820152602401602060405180830381865afa158015610295573d6000803e3d6000fd5b505050506040513d601f19601f820116820180604052508101906102b991906118ef565b6102d657604051631acd860160e31b815260040160405180910390fd5b6001600160a01b0386166102fd5760405163d92e233d60e01b815260040160405180910390fd5b6001600160a01b0384166103245760405163d92e233d60e01b815260040160405180910390fd5b60018560ff16111561035357604051636a7d5e3560e01b815260ff861660048201526024015b60405180910390fd5b600061035d6114ca565b60408051808201825260ff808a1682526001600160a01b03808a166020808501918252600187015463ffffffff16600081815291889052958120855181549351909416610100026001600160a81b03199093169390941692909217179091559293509181907f4143434f554e545f415050524f56455f44454e595f4f5241434c450000000000906000805160206119b5833981519152905b60405190808252806020026020018201604052801561041e578160200160208202803683370190505b5060405161042c9190611911565b60405180910390a360018301805460009061044c9063ffffffff1661196b565b91906101000a81548163ffffffff021916908363ffffffff16021790555080955050505050509392505050565b6000856001600160a01b0381166104a3576040516371724ffd60e01b815260040160405180910390fd5b806001600160a01b03811663d4a7db7f336040516001600160e01b031960e084901b1681526001600160a01b039091166004820152602401602060405180830381865afa1580156104f8573d6000803e3d6000fd5b505050506040513d601f19601f8201168201806040525081019061051c91906118ef565b61053957604051631acd860160e31b815260040160405180910390fd5b6001600160a01b0388166105605760405163d92e233d60e01b815260040160405180910390fd5b620186a062ffffff8816111561059057604051630ade80db60e11b815262ffffff8816600482015260240161034a565b62ffffff871615806105a4575061ffff8616155b156105c257604051631153c6f560e21b815260040160405180910390fd5b6105d58567ffffffffffffffff166114f8565b60006105df611552565b6040805160808101825262ffffff808c16825261ffff808c16602080850191825267ffffffffffffffff808e16868801908152606087018e81526001808b015463ffffffff166000818152958c9052998520895181549751945190951665010000000000026cffffffffffffffff0000000000199490981663010000000264ffffffffff1990971694909816939093179490941716939093178455905192909101919091559293509181907f544f4b454e5f4d41585f54524144494e475f564f4c554d450000000000000000906000805160206119b5833981519152905b6040519080825280602002602001820160405280156106e6578160200160208202803683370190505b506040516106f49190611911565b60405180910390a36001830180546000906107149063ffffffff1661196b565b91906101000a81548163ffffffff021916908363ffffffff160217905550809550505050505095945050505050565b6000856001600160a01b03811661076d576040516371724ffd60e01b815260040160405180910390fd5b806001600160a01b03811663d4a7db7f336040516001600160e01b031960e084901b1681526001600160a01b039091166004820152602401602060405180830381865afa1580156107c2573d6000803e3d6000fd5b505050506040513d601f19601f820116820180604052508101906107e691906118ef565b61080357604051631acd860160e31b815260040160405180910390fd5b6001600160a01b03881661082a5760405163d92e233d60e01b815260040160405180910390fd5b61ffff8716158061083d575061ffff8616155b8061084a575061ffff8516155b1561086857604051631153c6f560e21b815260040160405180910390fd5b6000610872611580565b6040805160808101825261ffff808c1682528a811660208084019182528b8316848601908152606085018c815260018089015463ffffffff166000818152948a9052978420875181549651945188166401000000000265ffff0000000019958916620100000263ffffffff1990981691909816179590951792909216949094178355925191909201559293509181906f544f4b454e5f564f4c4154494c49545960801b906000805160206119b5833981519152906106bd565b6000856001600160a01b038116610955576040516371724ffd60e01b815260040160405180910390fd5b806001600160a01b03811663d4a7db7f336040516001600160e01b031960e084901b1681526001600160a01b039091166004820152602401602060405180830381865afa1580156109aa573d6000803e3d6000fd5b505050506040513d601f19601f820116820180604052508101906109ce91906118ef565b6109eb57604051631acd860160e31b815260040160405180910390fd5b61ffff871615806109fe575061ffff8616155b15610a1c57604051631153c6f560e21b815260040160405180910390fd5b610a2f8567ffffffffffffffff166114f8565b6000610a396115ae565b6040805160808101825261ffff808c1682528a8116602080840191825267ffffffffffffffff808d16858701908152606086018d81526001808a015463ffffffff166000818152958b90529885208851815497519451909516640100000000026bffffffffffffffff0000000019948916620100000263ffffffff1990981695909816949094179590951791909116949094178155925192909101919091559293509181907f544f4b454e5f4d41585f535550504c595f564f4c4154494c4954590000000000906000805160206119b5833981519152906106bd565b6000856001600160a01b038116610b3f576040516371724ffd60e01b815260040160405180910390fd5b806001600160a01b03811663d4a7db7f336040516001600160e01b031960e084901b1681526001600160a01b039091166004820152602401602060405180830381865afa158015610b94573d6000803e3d6000fd5b505050506040513d601f19601f82011682018060405250810190610bb891906118ef565b610bd557604051631acd860160e31b815260040160405180910390fd5b6001600160a01b038816610bfc5760405163d92e233d60e01b815260040160405180910390fd5b61270f61ffff88161115610c2957604051630ade80db60e11b815261ffff8816600482015260240161034a565b61ffff86161580610c3c575061ffff8716155b15610c5a57604051631153c6f560e21b815260040160405180910390fd5b610c6d8467ffffffffffffffff166114f8565b6000610c776115dc565b6001808201546040805160808101825261ffff808e1682528c811660208084019182528385018e815267ffffffffffffffff808f166060870190815263ffffffff9098166000818152938b90529683208651815495518716620100000263ffffffff1990961696169590951793909317845551968301969096559351600290910180549190941667ffffffffffffffff199091161790925592935090829074544f4b454e5f4d41585f53454c4c5f564f4c554d4560581b906000805160206119b583398151915290604051908082528060200260200182016040528015610d68578160200160208202803683370190505b50604051610d769190611911565b60405180910390a3600183018054600090610d969063ffffffff1661196b565b91906101000a81548163ffffffff021916908363ffffffff160217905550819550505050505095945050505050565b6000856001600160a01b038116610def576040516371724ffd60e01b815260040160405180910390fd5b806001600160a01b03811663d4a7db7f336040516001600160e01b031960e084901b1681526001600160a01b039091166004820152602401602060405180830381865afa158015610e44573d6000803e3d6000fd5b505050506040513d601f19601f82011682018060405250810190610e6891906118ef565b610e8557604051631acd860160e31b815260040160405180910390fd5b6001600160a01b038816610eac5760405163d92e233d60e01b815260040160405180910390fd5b61270f61ffff88161115610ed957604051630ade80db60e11b815261ffff8816600482015260240161034a565b61ffff86161580610eec575061ffff8716155b15610f0a57604051631153c6f560e21b815260040160405180910390fd5b610f1d8467ffffffffffffffff166114f8565b6000610f2761160a565b6040805160808101825261ffff808c1682528a811660208084019182528385018c815267ffffffffffffffff808d16606087019081526001808a015463ffffffff166000818152958b90529885208851815497518916620100000263ffffffff1990981698169790971795909517865591519385019390935551600290930180549390921667ffffffffffffffff1990931692909217905592935091819073544f4b454e5f4d41585f4255595f564f4c554d4560601b906000805160206119b5833981519152906106bd565b60408051808201909152600080825260208201526110226110126101fb565b63ffffffff808516919061163816565b600061102c611496565b63ffffffff909316600090815260209384526040908190208151808301909252805482526001015461ffff16938101939093525090919050565b6000826001600160a01b038116611090576040516371724ffd60e01b815260040160405180910390fd5b806001600160a01b03811663d4a7db7f336040516001600160e01b031960e084901b1681526001600160a01b039091166004820152602401602060405180830381865afa1580156110e5573d6000803e3d6000fd5b505050506040513d601f19601f8201168201806040525081019061110991906118ef565b61112657604051631acd860160e31b815260040160405180910390fd5b6001600160a01b03851661114d5760405163d92e233d60e01b815260040160405180910390fd5b8360000361116e57604051631153c6f560e21b815260040160405180910390fd5b6000611178611668565b6040805160208082018352888252600184015463ffffffff16600081815285835284812084519055845190815291820193849052939450909291829170544f4b454e5f4d494e5f54585f53495a4560781b916000805160206119b5833981519152916111e391611911565b60405180910390a36001830180546000906112039063ffffffff1661196b565b91906101000a81548163ffffffff021916908363ffffffff160217905550809550505050505092915050565b6000836001600160a01b038116611259576040516371724ffd60e01b815260040160405180910390fd5b806001600160a01b03811663d4a7db7f336040516001600160e01b031960e084901b1681526001600160a01b039091166004820152602401602060405180830381865afa1580156112ae573d6000803e3d6000fd5b505050506040513d601f19601f820116820180604052508101906112d291906118ef565b6112ef57604051631acd860160e31b815260040160405180910390fd5b6001600160a01b0386166113165760405163d92e233d60e01b815260040160405180910390fd5b841580611325575061ffff8416155b1561134357604051631153c6f560e21b815260040160405180910390fd5b61271061ffff8516111561137057604051630ade80db60e11b815261ffff8516600482015260240161034a565b600061137a611496565b60408051808201825288815261ffff888116602080840191825260018681015463ffffffff166000818152928890529582208551815592519201805461ffff19169290931691909117909155929350918190704255595f4645455f42595f564f4c554d4560781b906000805160206119b5833981519152906103f5565b60408051608081018252600080825260208201819052918101829052606081019190915261142661101261148b565b6000611430611580565b63ffffffff909316600090815260209384526040908190208151608081018352815461ffff80821683526201000082048116978301979097526401000000009004909516918501919091526001015460608401525090919050565b600080610206611580565b6000806114c460017f226ceb21dfcac639e4009f1c19fb67c8e9e0c6c637eb862a0f2921973f16ea4061198e565b92915050565b6000806114c460017f393520d3a7ae2d5ebb865efe7c253600ffe7f63536515bbd509b4936416fc46c61198e565b67ffffffffffffffff811615806115255750611518426301dfe2006119a1565b8167ffffffffffffffff16115b1561154f57604051634275ae3b60e01b815267ffffffffffffffff8216600482015260240161034a565b50565b6000806114c460017f7ec0480b9860da71df40eeba9d55d11a6e64e9befe36fdfcdb7f8f7bb7dae19c61198e565b6000806114c460017fb76f41a74bf49284233f04293712da3b797b7ee4d348322d4d20083f7b3b809961198e565b6000806114c460017fe933e4fa004729344ad93dde4bd94d0b881b307b0cca199749c0ad3af242919961198e565b6000806114c460017f36a6b5e1dcad62c6cb5da92222f5f227370563aad6447813d73230d0fad88f7461198e565b6000806114c460017f25a585c2e8f7fa7b14633f4226915cea53b2c82875c542bdc3e0d9112ee62c0861198e565b8163ffffffff168163ffffffff1611611664576040516325ef9da360e11b815260040160405180910390fd5b5050565b6000806114c460017fdc15be84837e6adc6cb93c079465be8e43c2ac54b75e2a73d79900c1c9f9c9c561198e565b80356001600160a01b03811681146116ad57600080fd5b919050565b6000806000606084860312156116c757600080fd5b6116d084611696565b9250602084013560ff811681146116e657600080fd5b91506116f460408501611696565b90509250925092565b803561ffff811681146116ad57600080fd5b803567ffffffffffffffff811681146116ad57600080fd5b600080600080600060a0868803121561173f57600080fd5b61174886611696565b9450602086013562ffffff8116811461176057600080fd5b935061176e604087016116fd565b925061177c6060870161170f565b949793965091946080013592915050565b600080600080600060a086880312156117a557600080fd5b6117ae86611696565b94506117bc602087016116fd565b93506117ca604087016116fd565b925061177c606087016116fd565b600080600080600060a086880312156117f057600080fd5b6117f986611696565b9450611760602087016116fd565b600080600080600060a0868803121561181f57600080fd5b61182886611696565b9450611836602087016116fd565b9350611844604087016116fd565b9250606086013591506118596080870161170f565b90509295509295909350565b60006020828403121561187757600080fd5b813563ffffffff8116811461188b57600080fd5b9392505050565b600080604083850312156118a557600080fd5b6118ae83611696565b946020939093013593505050565b6000806000606084860312156118d157600080fd5b6118da84611696565b9250602084013591506116f4604085016116fd565b60006020828403121561190157600080fd5b8151801515811461188b57600080fd5b6020808252825182820181905260009190848201906040850190845b818110156119495783518352928401929184019160010161192d565b50909695505050505050565b634e487b7160e01b600052601160045260246000fd5b600063ffffffff80831681810361198457611984611955565b6001019392505050565b818103818111156114c4576114c4611955565b808201808211156114c4576114c461195556fec8c31d1b3fae743175dd37c3ed86aca4d193c9fcd5732cc172fbd4e9bc170e8aa2646970667358221220fcb90a01aa065e4024362b1b80ce68fe0b8a3168d23f09736507ba5c92ed287064736f6c63430008180033","linkReferences":{}},"methodIdentifiers":{"addAccountApproveDenyOracle(address,uint8,address)":"0e469abe","addPurchaseFeeByVolumeRule(address,uint256,uint16)":"e323230f","addTokenMaxBuyVolume(address,uint16,uint16,uint256,uint64)":"70f247dc","addTokenMaxPriceVolatility(address,uint16,uint16,uint16,uint256)":"564ff334","addTokenMaxSellVolume(address,uint16,uint16,uint256,uint64)":"632e195d","addTokenMaxSupplyVolatility(address,uint16,uint16,uint64,uint256)":"5f65ba01","addTokenMaxTradingVolume(address,uint24,uint16,uint64,uint256)":"133510fa","addTokenMinTxSize(address,uint256)":"8bd537ed","getPurchaseFeeByVolumeRule(uint32)":"72204214","getTokenMaxPriceVolatility(uint32)":"f4cb4f39","getTotalTokenMaxPriceVolatility()":"fa3a1c8d","getTotalTokenPurchaseFeeByVolumeRules()":"03d4e11b"},"id":238}