{"abi":[{"type":"constructor","inputs":[{"name":"_name","type":"string","internalType":"string"},{"name":"_symbol","type":"string","internalType":"string"},{"name":"_appManagerAddress","type":"address","internalType":"address"},{"name":"_baseUri","type":"string","internalType":"string"}],"stateMutability":"nonpayable"},{"type":"function","name":"approve","inputs":[{"name":"to","type":"address","internalType":"address"},{"name":"tokenId","type":"uint256","internalType":"uint256"}],"outputs":[],"stateMutability":"nonpayable"},{"type":"function","name":"balanceOf","inputs":[{"name":"owner","type":"address","internalType":"address"}],"outputs":[{"name":"","type":"uint256","internalType":"uint256"}],"stateMutability":"view"},{"type":"function","name":"baseUri","inputs":[],"outputs":[{"name":"","type":"string","internalType":"string"}],"stateMutability":"view"},{"type":"function","name":"burn","inputs":[{"name":"tokenId","type":"uint256","internalType":"uint256"}],"outputs":[],"stateMutability":"nonpayable"},{"type":"function","name":"confirmAppManagerAddress","inputs":[],"outputs":[],"stateMutability":"nonpayable"},{"type":"function","name":"connectHandlerToToken","inputs":[{"name":"_deployedHandlerAddress","type":"address","internalType":"address"}],"outputs":[],"stateMutability":"nonpayable"},{"type":"function","name":"getAppManagerAddress","inputs":[],"outputs":[{"name":"","type":"address","internalType":"address"}],"stateMutability":"view"},{"type":"function","name":"getApproved","inputs":[{"name":"tokenId","type":"uint256","internalType":"uint256"}],"outputs":[{"name":"","type":"address","internalType":"address"}],"stateMutability":"view"},{"type":"function","name":"getHandlerAddress","inputs":[],"outputs":[{"name":"","type":"address","internalType":"address"}],"stateMutability":"view"},{"type":"function","name":"handlerAddress","inputs":[],"outputs":[{"name":"","type":"address","internalType":"address"}],"stateMutability":"view"},{"type":"function","name":"isApprovedForAll","inputs":[{"name":"owner","type":"address","internalType":"address"},{"name":"operator","type":"address","internalType":"address"}],"outputs":[{"name":"","type":"bool","internalType":"bool"}],"stateMutability":"view"},{"type":"function","name":"name","inputs":[],"outputs":[{"name":"","type":"string","internalType":"string"}],"stateMutability":"view"},{"type":"function","name":"owner","inputs":[],"outputs":[{"name":"","type":"address","internalType":"address"}],"stateMutability":"view"},{"type":"function","name":"ownerOf","inputs":[{"name":"tokenId","type":"uint256","internalType":"uint256"}],"outputs":[{"name":"","type":"address","internalType":"address"}],"stateMutability":"view"},{"type":"function","name":"pause","inputs":[],"outputs":[],"stateMutability":"nonpayable"},{"type":"function","name":"paused","inputs":[],"outputs":[{"name":"","type":"bool","internalType":"bool"}],"stateMutability":"view"},{"type":"function","name":"proposeAppManagerAddress","inputs":[{"name":"_newAppManagerAddress","type":"address","internalType":"address"}],"outputs":[],"stateMutability":"nonpayable"},{"type":"function","name":"renounceOwnership","inputs":[],"outputs":[],"stateMutability":"nonpayable"},{"type":"function","name":"safeMint","inputs":[{"name":"to","type":"address","internalType":"address"}],"outputs":[],"stateMutability":"payable"},{"type":"function","name":"safeTransferFrom","inputs":[{"name":"from","type":"address","internalType":"address"},{"name":"to","type":"address","internalType":"address"},{"name":"tokenId","type":"uint256","internalType":"uint256"}],"outputs":[],"stateMutability":"nonpayable"},{"type":"function","name":"safeTransferFrom","inputs":[{"name":"from","type":"address","internalType":"address"},{"name":"to","type":"address","internalType":"address"},{"name":"tokenId","type":"uint256","internalType":"uint256"},{"name":"data","type":"bytes","internalType":"bytes"}],"outputs":[],"stateMutability":"nonpayable"},{"type":"function","name":"setApprovalForAll","inputs":[{"name":"operator","type":"address","internalType":"address"},{"name":"approved","type":"bool","internalType":"bool"}],"outputs":[],"stateMutability":"nonpayable"},{"type":"function","name":"setBaseURI","inputs":[{"name":"_baseUri","type":"string","internalType":"string"}],"outputs":[],"stateMutability":"nonpayable"},{"type":"function","name":"supportsInterface","inputs":[{"name":"interfaceId","type":"bytes4","internalType":"bytes4"}],"outputs":[{"name":"","type":"bool","internalType":"bool"}],"stateMutability":"view"},{"type":"function","name":"symbol","inputs":[],"outputs":[{"name":"","type":"string","internalType":"string"}],"stateMutability":"view"},{"type":"function","name":"tokenByIndex","inputs":[{"name":"index","type":"uint256","internalType":"uint256"}],"outputs":[{"name":"","type":"uint256","internalType":"uint256"}],"stateMutability":"view"},{"type":"function","name":"tokenOfOwnerByIndex","inputs":[{"name":"owner","type":"address","internalType":"address"},{"name":"index","type":"uint256","internalType":"uint256"}],"outputs":[{"name":"","type":"uint256","internalType":"uint256"}],"stateMutability":"view"},{"type":"function","name":"tokenURI","inputs":[{"name":"tokenId","type":"uint256","internalType":"uint256"}],"outputs":[{"name":"","type":"string","internalType":"string"}],"stateMutability":"view"},{"type":"function","name":"totalSupply","inputs":[],"outputs":[{"name":"","type":"uint256","internalType":"uint256"}],"stateMutability":"view"},{"type":"function","name":"transferFrom","inputs":[{"name":"from","type":"address","internalType":"address"},{"name":"to","type":"address","internalType":"address"},{"name":"tokenId","type":"uint256","internalType":"uint256"}],"outputs":[],"stateMutability":"nonpayable"},{"type":"function","name":"transferOwnership","inputs":[{"name":"newOwner","type":"address","internalType":"address"}],"outputs":[],"stateMutability":"nonpayable"},{"type":"function","name":"unpause","inputs":[],"outputs":[],"stateMutability":"nonpayable"},{"type":"function","name":"withdraw","inputs":[],"outputs":[],"stateMutability":"payable"},{"type":"event","name":"AD1467_AppManagerAddressSet","inputs":[{"name":"_address","type":"address","indexed":true,"internalType":"address"}],"anonymous":false},{"type":"event","name":"AD1467_CollectionPrice","inputs":[{"name":"collection","type":"address","indexed":true,"internalType":"address"},{"name":"price","type":"uint256","indexed":true,"internalType":"uint256"}],"anonymous":false},{"type":"event","name":"AD1467_FeeType","inputs":[{"name":"tag","type":"bytes32","indexed":true,"internalType":"bytes32"},{"name":"add","type":"bool","indexed":true,"internalType":"bool"},{"name":"minBalance","type":"uint256","indexed":false,"internalType":"uint256"},{"name":"maxBalance","type":"uint256","indexed":false,"internalType":"uint256"},{"name":"feePercentage","type":"int256","indexed":false,"internalType":"int256"},{"name":"targetAccount","type":"address","indexed":false,"internalType":"address"}],"anonymous":false},{"type":"event","name":"AD1467_HandlerConnected","inputs":[{"name":"handlerAddress","type":"address","indexed":true,"internalType":"address"},{"name":"assetAddress","type":"address","indexed":true,"internalType":"address"}],"anonymous":false},{"type":"event","name":"AD1467_NewNFTDeployed","inputs":[{"name":"appManagerAddress","type":"address","indexed":true,"internalType":"address"}],"anonymous":false},{"type":"event","name":"AD1467_NewTokenDeployed","inputs":[{"name":"appManagerAddress","type":"address","indexed":true,"internalType":"address"}],"anonymous":false},{"type":"event","name":"AD1467_SingleTokenPrice","inputs":[{"name":"collection","type":"address","indexed":true,"internalType":"address"},{"name":"tokenID","type":"uint256","indexed":true,"internalType":"uint256"},{"name":"price","type":"uint256","indexed":true,"internalType":"uint256"}],"anonymous":false},{"type":"event","name":"AD1467_TokenPrice","inputs":[{"name":"token","type":"address","indexed":true,"internalType":"address"},{"name":"price","type":"uint256","indexed":true,"internalType":"uint256"}],"anonymous":false},{"type":"event","name":"Approval","inputs":[{"name":"owner","type":"address","indexed":true,"internalType":"address"},{"name":"approved","type":"address","indexed":true,"internalType":"address"},{"name":"tokenId","type":"uint256","indexed":true,"internalType":"uint256"}],"anonymous":false},{"type":"event","name":"ApprovalForAll","inputs":[{"name":"owner","type":"address","indexed":true,"internalType":"address"},{"name":"operator","type":"address","indexed":true,"internalType":"address"},{"name":"approved","type":"bool","indexed":false,"internalType":"bool"}],"anonymous":false},{"type":"event","name":"BatchMetadataUpdate","inputs":[{"name":"_fromTokenId","type":"uint256","indexed":false,"internalType":"uint256"},{"name":"_toTokenId","type":"uint256","indexed":false,"internalType":"uint256"}],"anonymous":false},{"type":"event","name":"MetadataUpdate","inputs":[{"name":"_tokenId","type":"uint256","indexed":false,"internalType":"uint256"}],"anonymous":false},{"type":"event","name":"OwnershipTransferred","inputs":[{"name":"previousOwner","type":"address","indexed":true,"internalType":"address"},{"name":"newOwner","type":"address","indexed":true,"internalType":"address"}],"anonymous":false},{"type":"event","name":"Paused","inputs":[{"name":"account","type":"address","indexed":false,"internalType":"address"}],"anonymous":false},{"type":"event","name":"Transfer","inputs":[{"name":"from","type":"address","indexed":true,"internalType":"address"},{"name":"to","type":"address","indexed":true,"internalType":"address"},{"name":"tokenId","type":"uint256","indexed":true,"internalType":"uint256"}],"anonymous":false},{"type":"event","name":"Unpaused","inputs":[{"name":"account","type":"address","indexed":false,"internalType":"address"}],"anonymous":false},{"type":"error","name":"AppManagerNotConnected","inputs":[]},{"type":"error","name":"BelowMinAdminThreshold","inputs":[]},{"type":"error","name":"ConfirmerDoesNotMatchProposedAddress","inputs":[]},{"type":"error","name":"NoProposalHasBeenMade","inputs":[]},{"type":"error","name":"NotAppAdministrator","inputs":[]},{"type":"error","name":"NotAppAdministratorOrOwner","inputs":[]},{"type":"error","name":"NotRuleAdministrator","inputs":[]},{"type":"error","name":"NotSuperAdmin","inputs":[{"name":"","type":"address","internalType":"address"}]},{"type":"error","name":"ZeroAddress","inputs":[]}],"bytecode":{"object":"0x60806040523480156200001157600080fd5b506040516200301438038062003014833981016040819052620000349162000346565b838383838383600062000048838262000489565b50600162000057828262000489565b5050600b805460ff19169055506200006f3362000114565b6001600f556001600160a01b0382166200009c5760405163d92e233d60e01b815260040160405180910390fd5b600d80546001600160a01b0384166001600160a01b03199182168117909255600e80549091169091179055620000d2816200016e565b6040516001600160a01b038316907f72609421458389ee9c5f42d2ead41eecce3b39daf473d94de7f1ec1a9b593a0090600090a2505050505050505062000580565b600b80546001600160a01b03838116610100818102610100600160a81b031985161790945560405193909204169182907f8be0079c531659141344cd1fd0a4f28419497f9722a3daafe3b4186f6b6457e090600090a35050565b600d546001600160a01b0316620001858162000198565b601362000193838262000489565b505050565b6001600160a01b038116620001c0576040516371724ffd60e01b815260040160405180910390fd5b806001600160a01b03811663c3c2ebbb336040516001600160e01b031960e084901b1681526001600160a01b039091166004820152602401602060405180830381865afa15801562000216573d6000803e3d6000fd5b505050506040513d601f19601f820116820180604052508101906200023c919062000555565b1580156200025b5750600b546001600160a01b03610100909104163314155b156200027a5760405163054f3a3160e31b815260040160405180910390fd5b5050565b634e487b7160e01b600052604160045260246000fd5b600082601f830112620002a657600080fd5b81516001600160401b0380821115620002c357620002c36200027e565b604051601f8301601f19908116603f01168101908282118183101715620002ee57620002ee6200027e565b81604052838152602092508660208588010111156200030c57600080fd5b600091505b8382101562000330578582018301518183018401529082019062000311565b6000602085830101528094505050505092915050565b600080600080608085870312156200035d57600080fd5b84516001600160401b03808211156200037557600080fd5b620003838883890162000294565b955060208701519150808211156200039a57600080fd5b620003a88883890162000294565b604088015190955091506001600160a01b0382168214620003c857600080fd5b606087015191935080821115620003de57600080fd5b50620003ed8782880162000294565b91505092959194509250565b600181811c908216806200040e57607f821691505b6020821081036200042f57634e487b7160e01b600052602260045260246000fd5b50919050565b601f82111562000193576000816000526020600020601f850160051c81016020861015620004605750805b601f850160051c820191505b8181101562000481578281556001016200046c565b505050505050565b81516001600160401b03811115620004a557620004a56200027e565b620004bd81620004b68454620003f9565b8462000435565b602080601f831160018114620004f55760008415620004dc5750858301515b600019600386901b1c1916600185901b17855562000481565b600085815260208120601f198616915b82811015620005265788860151825594840194600190910190840162000505565b5085821015620005455787850151600019600388901b60f8161c191681555b5050505050600190811b01905550565b6000602082840312156200056857600080fd5b815180151581146200057957600080fd5b9392505050565b612a8480620005906000396000f3fe6080604052600436106101ee5760003560e01c80635c975abb1161010d5780638da5cb5b116100a0578063b88d4fde1161006f578063b88d4fde1461053e578063c87b56dd1461055e578063cdccb27a1461057e578063e985e9c514610593578063f2fde38b146105dc57600080fd5b80638da5cb5b146104d157806395d89b41146104f45780639abc832014610509578063a22cb4651461051e57600080fd5b806370a08231116100dc57806370a0823114610467578063715018a61461048757806371af85e01461049c5780638456cb59146104bc57600080fd5b80635c975abb146103f15780636352211e146104095780636f9c83b8146104295780636fd7d9701461044757600080fd5b80633ccfd60b1161018557806342966c681161015457806342966c68146103735780634c330077146103935780634f6ccce7146103b157806355f804b3146103d157600080fd5b80633ccfd60b146103235780633f4ba83a1461032b57806340d097c31461034057806342842e0e1461035357600080fd5b806311280cb5116101c157806311280cb5146102a457806318160ddd146102c457806323b872dd146102e35780632f745c591461030357600080fd5b806301ffc9a7146101f357806306fdde0314610228578063081812fc1461024a578063095ea7b314610282575b600080fd5b3480156101ff57600080fd5b5061021361020e36600461242e565b6105fc565b60405190151581526020015b60405180910390f35b34801561023457600080fd5b5061023d61062b565b60405161021f919061249b565b34801561025657600080fd5b5061026a6102653660046124ae565b6106bd565b6040516001600160a01b03909116815260200161021f565b34801561028e57600080fd5b506102a261029d3660046124e3565b6106e4565b005b3480156102b057600080fd5b506102a26102bf36600461250d565b6107fe565b3480156102d057600080fd5b506009545b60405190815260200161021f565b3480156102ef57600080fd5b506102a26102fe366004612528565b610909565b34801561030f57600080fd5b506102d561031e3660046124e3565b61093b565b6102a26109d1565b34801561033757600080fd5b506102a2610ae6565b6102a261034e36600461250d565b610bb2565b34801561035f57600080fd5b506102a261036e366004612528565b610bf4565b34801561037f57600080fd5b506102a261038e3660046124ae565b610c0f565b34801561039f57600080fd5b50600d546001600160a01b031661026a565b3480156103bd57600080fd5b506102d56103cc3660046124ae565b610c40565b3480156103dd57600080fd5b506102a26103ec3660046125f0565b610cd3565b3480156103fd57600080fd5b50600b5460ff16610213565b34801561041557600080fd5b5061026a6104243660046124ae565b610cf4565b34801561043557600080fd5b506010546001600160a01b031661026a565b34801561045357600080fd5b5060105461026a906001600160a01b031681565b34801561047357600080fd5b506102d561048236600461250d565b610d54565b34801561049357600080fd5b506102a2610dda565b3480156104a857600080fd5b506102a26104b736600461250d565b610dee565b3480156104c857600080fd5b506102a2610f30565b3480156104dd57600080fd5b50600b5461010090046001600160a01b031661026a565b34801561050057600080fd5b5061023d610ff8565b34801561051557600080fd5b5061023d611007565b34801561052a57600080fd5b506102a2610539366004612647565b611095565b34801561054a57600080fd5b506102a261055936600461267e565b6110a0565b34801561056a57600080fd5b5061023d6105793660046124ae565b6110d8565b34801561058a57600080fd5b506102a26110e3565b34801561059f57600080fd5b506102136105ae3660046126fa565b6001600160a01b03918216600090815260056020908152604080832093909416825291909152205460ff1690565b3480156105e857600080fd5b506102a26105f736600461250d565b61116b565b6000610607826111e1565b80610616575061061682611202565b806106255750610625826111e1565b92915050565b60606000805461063a9061272d565b80601f01602080910402602001604051908101604052809291908181526020018280546106669061272d565b80156106b35780601f10610688576101008083540402835291602001916106b3565b820191906000526020600020905b81548152906001019060200180831161069657829003601f168201915b5050505050905090565b60006106c882611227565b506000908152600460205260409020546001600160a01b031690565b60006106ef82610cf4565b9050806001600160a01b0316836001600160a01b0316036107615760405162461bcd60e51b815260206004820152602160248201527f4552433732313a20617070726f76616c20746f2063757272656e74206f776e656044820152603960f91b60648201526084015b60405180910390fd5b336001600160a01b038216148061077d575061077d81336105ae565b6107ef5760405162461bcd60e51b815260206004820152603d60248201527f4552433732313a20617070726f76652063616c6c6572206973206e6f7420746f60448201527f6b656e206f776e6572206f7220617070726f76656420666f7220616c6c0000006064820152608401610758565b6107f98383611286565b505050565b600d546001600160a01b031680610828576040516371724ffd60e01b815260040160405180910390fd5b806001600160a01b03811663c3c2ebbb336040516001600160e01b031960e084901b1681526001600160a01b039091166004820152602401602060405180830381865afa15801561087d573d6000803e3d6000fd5b505050506040513d601f19601f820116820180604052508101906108a19190612767565b6108be5760405163ba80c9e560e01b815260040160405180910390fd5b6001600160a01b0383166108e55760405163d92e233d60e01b815260040160405180910390fd5b5050600c80546001600160a01b0319166001600160a01b0392909216919091179055565b610914335b826112f4565b6109305760405162461bcd60e51b815260040161075890612784565b6107f9838383611373565b600061094683610d54565b82106109a85760405162461bcd60e51b815260206004820152602b60248201527f455243373231456e756d657261626c653a206f776e657220696e646578206f7560448201526a74206f6620626f756e647360a81b6064820152608401610758565b506001600160a01b03919091166000908152600760209081526040808320938352929052205490565b600d546001600160a01b0316806109fb576040516371724ffd60e01b815260040160405180910390fd5b806001600160a01b03811663c3c2ebbb336040516001600160e01b031960e084901b1681526001600160a01b039091166004820152602401602060405180830381865afa158015610a50573d6000803e3d6000fd5b505050506040513d601f19601f82011682018060405250810190610a749190612767565b610a915760405163ba80c9e560e01b815260040160405180910390fd5b604051600090339047908381818185875af1925050503d8060008114610ad3576040519150601f19603f3d011682016040523d82523d6000602084013e610ad8565b606091505b50509050806107f957600080fd5b600d546001600160a01b031680610b10576040516371724ffd60e01b815260040160405180910390fd5b806001600160a01b03811663c3c2ebbb336040516001600160e01b031960e084901b1681526001600160a01b039091166004820152602401602060405180830381865afa158015610b65573d6000803e3d6000fd5b505050506040513d601f19601f82011682018060405250810190610b899190612767565b610ba65760405163ba80c9e560e01b815260040160405180910390fd5b610bae6114e4565b5050565b610bba611536565b600d546001600160a01b0316610bcf8161157c565b6000610bda60125490565b9050610bea601280546001019055565b6107f98382611658565b6107f9838383604051806020016040528060008152506110a0565b610c183361090e565b610c345760405162461bcd60e51b815260040161075890612784565b610c3d81611672565b50565b6000610c4b60095490565b8210610cae5760405162461bcd60e51b815260206004820152602c60248201527f455243373231456e756d657261626c653a20676c6f62616c20696e646578206f60448201526b7574206f6620626f756e647360a01b6064820152608401610758565b60098281548110610cc157610cc16127d1565b90600052602060002001549050919050565b600d546001600160a01b0316610ce88161157c565b60136107f98382612837565b6000818152600260205260408120546001600160a01b0316806106255760405162461bcd60e51b8152602060048201526018602482015277115490cdcc8c4e881a5b9d985b1a59081d1bdad95b88125160421b6044820152606401610758565b60006001600160a01b038216610dbe5760405162461bcd60e51b815260206004820152602960248201527f4552433732313a2061646472657373207a65726f206973206e6f7420612076616044820152683634b21037bbb732b960b91b6064820152608401610758565b506001600160a01b031660009081526003602052604090205490565b610de2611683565b610dec60006116e3565b565b600d546001600160a01b031680610e18576040516371724ffd60e01b815260040160405180910390fd5b806001600160a01b03811663c3c2ebbb336040516001600160e01b031960e084901b1681526001600160a01b039091166004820152602401602060405180830381865afa158015610e6d573d6000803e3d6000fd5b505050506040513d601f19601f82011682018060405250810190610e919190612767565b610eae5760405163ba80c9e560e01b815260040160405180910390fd5b6001600160a01b038316610ed55760405163d92e233d60e01b815260040160405180910390fd5b601080546001600160a01b0385166001600160a01b0319918216811790925560118054909116821790556040513091907f9a2cdaf1a28a88ccd359d6abc6a27d4856d16459aafb0aae34c1296bab5b63fb90600090a3505050565b600d546001600160a01b031680610f5a576040516371724ffd60e01b815260040160405180910390fd5b806001600160a01b03811663c3c2ebbb336040516001600160e01b031960e084901b1681526001600160a01b039091166004820152602401602060405180830381865afa158015610faf573d6000803e3d6000fd5b505050506040513d601f19601f82011682018060405250810190610fd39190612767565b610ff05760405163ba80c9e560e01b815260040160405180910390fd5b610bae61173d565b60606001805461063a9061272d565b601380546110149061272d565b80601f01602080910402602001604051908101604052809291908181526020018280546110409061272d565b801561108d5780601f106110625761010080835404028352916020019161108d565b820191906000526020600020905b81548152906001019060200180831161107057829003601f168201915b505050505081565b610bae33838361177a565b6110aa33836112f4565b6110c65760405162461bcd60e51b815260040161075890612784565b6110d284848484611848565b50505050565b60606106258261187b565b600c546001600160a01b031661110c5760405163821e0eeb60e01b815260040160405180910390fd5b600c546001600160a01b0316331461113757604051634128496760e01b815260040160405180910390fd5b600c8054600d80546001600160a01b0383166001600160a01b03199182168117909255600e80548216909217909155169055565b611173611683565b6001600160a01b0381166111d85760405162461bcd60e51b815260206004820152602660248201527f4f776e61626c653a206e6577206f776e657220697320746865207a65726f206160448201526564647265737360d01b6064820152608401610758565b610c3d816116e3565b60006001600160e01b0319821663780e9d6360e01b14806106255750610625825b60006001600160e01b03198216632483248360e11b1480610625575061062582611976565b6000818152600260205260409020546001600160a01b0316610c3d5760405162461bcd60e51b8152602060048201526018602482015277115490cdcc8c4e881a5b9d985b1a59081d1bdad95b88125160421b6044820152606401610758565b600081815260046020526040902080546001600160a01b0319166001600160a01b03841690811790915581906112bb82610cf4565b6001600160a01b03167f8c5be1e5ebec7d5bd14f71427d1e84f3dd0314c0f7b2291e5b200ac8c7c3b92560405160405180910390a45050565b60008061130083610cf4565b9050806001600160a01b0316846001600160a01b0316148061134757506001600160a01b0380821660009081526005602090815260408083209388168352929052205460ff165b8061136b5750836001600160a01b0316611360846106bd565b6001600160a01b0316145b949350505050565b826001600160a01b031661138682610cf4565b6001600160a01b0316146113ac5760405162461bcd60e51b8152600401610758906128f7565b6001600160a01b03821661140e5760405162461bcd60e51b8152602060048201526024808201527f4552433732313a207472616e7366657220746f20746865207a65726f206164646044820152637265737360e01b6064820152608401610758565b61141b83838360016119c6565b826001600160a01b031661142e82610cf4565b6001600160a01b0316146114545760405162461bcd60e51b8152600401610758906128f7565b600081815260046020908152604080832080546001600160a01b03199081169091556001600160a01b0387811680865260038552838620805460001901905590871680865283862080546001019055868652600290945282852080549092168417909155905184937fddf252ad1be2c89b69c2b068fc378daa952ba7f163c4a11628f55a4df523b3ef91a4505050565b6114ec611ad3565b600b805460ff191690557f5db9ee0a495bf2e6ff9c91a7834c1ba4fdd244a5e8aa4e537bd38aeae4b073aa335b6040516001600160a01b03909116815260200160405180910390a1565b600b5460ff1615610dec5760405162461bcd60e51b815260206004820152601060248201526f14185d5cd8589b194e881c185d5cd95960821b6044820152606401610758565b6001600160a01b0381166115a3576040516371724ffd60e01b815260040160405180910390fd5b806001600160a01b03811663c3c2ebbb336040516001600160e01b031960e084901b1681526001600160a01b039091166004820152602401602060405180830381865afa1580156115f8573d6000803e3d6000fd5b505050506040513d601f19601f8201168201806040525081019061161c9190612767565b15801561163a5750600b546001600160a01b03610100909104163314155b15610bae5760405163054f3a3160e31b815260040160405180910390fd5b610bae828260405180602001604052806000815250611b1c565b61167a611536565b610c3d81611b4f565b600b546001600160a01b03610100909104163314610dec5760405162461bcd60e51b815260206004820181905260248201527f4f776e61626c653a2063616c6c6572206973206e6f7420746865206f776e65726044820152606401610758565b600b80546001600160a01b03838116610100818102610100600160a81b031985161790945560405193909204169182907f8be0079c531659141344cd1fd0a4f28419497f9722a3daafe3b4186f6b6457e090600090a35050565b611745611536565b600b805460ff191660011790557f62e78cea01bee320cd4e420270b5ea74000d11b0c9f74754ebdbfc544b05a2586115193390565b816001600160a01b0316836001600160a01b0316036117db5760405162461bcd60e51b815260206004820152601960248201527f4552433732313a20617070726f766520746f2063616c6c6572000000000000006044820152606401610758565b6001600160a01b03838116600081815260056020908152604080832094871680845294825291829020805460ff191686151590811790915591519182527f17307eab39ab6107e8899845ad3d59bd9653f200f220920489ca2b5937696c31910160405180910390a3505050565b611853848484611373565b61185f84848484611b8f565b6110d25760405162461bcd60e51b81526004016107589061293c565b606061188682611227565b6000828152600660205260408120805461189f9061272d565b80601f01602080910402602001604051908101604052809291908181526020018280546118cb9061272d565b80156119185780601f106118ed57610100808354040283529160200191611918565b820191906000526020600020905b8154815290600101906020018083116118fb57829003601f168201915b505050505090506000611929611c90565b9050805160000361193b575092915050565b81511561196d57808260405160200161195592919061298e565b60405160208183030381529060405292505050919050565b61136b84611c9f565b60006001600160e01b031982166380ac58cd60e01b14806119a757506001600160e01b03198216635b5e139f60e01b145b8061062557506301ffc9a760e01b6001600160e01b0319831614610625565b6119ce611d06565b6119d6611536565b6011546001600160a01b039081169063e802b52390861615611a00576119fb86610d54565b611a03565b60005b6001600160a01b03861615611a2057611a1b86610d54565b611a23565b60005b8787336040516001600160e01b031960e088901b168152600481019590955260248501939093526001600160a01b0391821660448501528116606484015216608482015260a4810185905260c4016020604051808303816000875af1158015611a90573d6000803e3d6000fd5b505050506040513d601f19601f82011682018060405250810190611ab49190612767565b611abd57600080fd5b611ac984848484611d5f565b6110d26001600f55565b600b5460ff16610dec5760405162461bcd60e51b815260206004820152601460248201527314185d5cd8589b194e881b9bdd081c185d5cd95960621b6044820152606401610758565b611b268383611e93565b611b336000848484611b8f565b6107f95760405162461bcd60e51b81526004016107589061293c565b611b588161202c565b60008181526006602052604090208054611b719061272d565b159050610c3d576000818152600660205260408120610c3d916123ca565b60006001600160a01b0384163b15611c8557604051630a85bd0160e11b81526001600160a01b0385169063150b7a0290611bd39033908990889088906004016129bd565b6020604051808303816000875af1925050508015611c0e575060408051601f3d908101601f19168201909252611c0b918101906129fa565b60015b611c6b573d808015611c3c576040519150601f19603f3d011682016040523d82523d6000602084013e611c41565b606091505b508051600003611c635760405162461bcd60e51b81526004016107589061293c565b805181602001fd5b6001600160e01b031916630a85bd0160e11b14905061136b565b506001949350505050565b60606013805461063a9061272d565b6060611caa82611227565b6000611cb4611c90565b90506000815111611cd45760405180602001604052806000815250611cff565b80611cde846120cf565b604051602001611cef92919061298e565b6040516020818303038152906040525b9392505050565b6002600f5403611d585760405162461bcd60e51b815260206004820152601f60248201527f5265656e7472616e637947756172643a207265656e7472616e742063616c6c006044820152606401610758565b6002600f55565b6001811115611dce5760405162461bcd60e51b815260206004820152603560248201527f455243373231456e756d657261626c653a20636f6e7365637574697665207472604482015274185b9cd9995c9cc81b9bdd081cdd5c1c1bdc9d1959605a1b6064820152608401610758565b816001600160a01b038516611e2a57611e2581600980546000838152600a60205260408120829055600182018355919091527f6e1540171b6c0c960b71a7020d9f60077f6af931a8bbf590da0223dacf75c7af0155565b611e4d565b836001600160a01b0316856001600160a01b031614611e4d57611e4d8582612162565b6001600160a01b038416611e6957611e64816121ff565b611e8c565b846001600160a01b0316846001600160a01b031614611e8c57611e8c84826122ae565b5050505050565b6001600160a01b038216611ee95760405162461bcd60e51b815260206004820181905260248201527f4552433732313a206d696e7420746f20746865207a65726f20616464726573736044820152606401610758565b6000818152600260205260409020546001600160a01b031615611f4e5760405162461bcd60e51b815260206004820152601c60248201527f4552433732313a20746f6b656e20616c7265616479206d696e746564000000006044820152606401610758565b611f5c6000838360016119c6565b6000818152600260205260409020546001600160a01b031615611fc15760405162461bcd60e51b815260206004820152601c60248201527f4552433732313a20746f6b656e20616c7265616479206d696e746564000000006044820152606401610758565b6001600160a01b038216600081815260036020908152604080832080546001019055848352600290915280822080546001600160a01b0319168417905551839291907fddf252ad1be2c89b69c2b068fc378daa952ba7f163c4a11628f55a4df523b3ef908290a45050565b600061203782610cf4565b90506120478160008460016119c6565b61205082610cf4565b600083815260046020908152604080832080546001600160a01b03199081169091556001600160a01b0385168085526003845282852080546000190190558785526002909352818420805490911690555192935084927fddf252ad1be2c89b69c2b068fc378daa952ba7f163c4a11628f55a4df523b3ef908390a45050565b606060006120dc836122f2565b600101905060008167ffffffffffffffff8111156120fc576120fc612564565b6040519080825280601f01601f191660200182016040528015612126576020820181803683370190505b5090508181016020015b600019016f181899199a1a9b1b9c1cb0b131b232b360811b600a86061a8153600a850494508461213057509392505050565b6000600161216f84610d54565b6121799190612a17565b6000838152600860205260409020549091508082146121cc576001600160a01b03841660009081526007602090815260408083208584528252808320548484528184208190558352600890915290208190555b5060009182526008602090815260408084208490556001600160a01b039094168352600781528383209183525290812055565b60095460009061221190600190612a17565b6000838152600a602052604081205460098054939450909284908110612239576122396127d1565b90600052602060002001549050806009838154811061225a5761225a6127d1565b6000918252602080832090910192909255828152600a9091526040808220849055858252812055600980548061229257612292612a38565b6001900381819060005260206000200160009055905550505050565b60006122b983610d54565b6001600160a01b039093166000908152600760209081526040808320868452825280832085905593825260089052919091209190915550565b60008072184f03e93ff9f4daa797ed6e38ed64bf6a1f0160401b83106123315772184f03e93ff9f4daa797ed6e38ed64bf6a1f0160401b830492506040015b6d04ee2d6d415b85acef8100000000831061235d576d04ee2d6d415b85acef8100000000830492506020015b662386f26fc10000831061237b57662386f26fc10000830492506010015b6305f5e1008310612393576305f5e100830492506008015b61271083106123a757612710830492506004015b606483106123b9576064830492506002015b600a83106106255760010192915050565b5080546123d69061272d565b6000825580601f106123e6575050565b601f016020900490600052602060002090810190610c3d91905b808211156124145760008155600101612400565b5090565b6001600160e01b031981168114610c3d57600080fd5b60006020828403121561244057600080fd5b8135611cff81612418565b60005b8381101561246657818101518382015260200161244e565b50506000910152565b6000815180845261248781602086016020860161244b565b601f01601f19169290920160200192915050565b602081526000611cff602083018461246f565b6000602082840312156124c057600080fd5b5035919050565b80356001600160a01b03811681146124de57600080fd5b919050565b600080604083850312156124f657600080fd5b6124ff836124c7565b946020939093013593505050565b60006020828403121561251f57600080fd5b611cff826124c7565b60008060006060848603121561253d57600080fd5b612546846124c7565b9250612554602085016124c7565b9150604084013590509250925092565b634e487b7160e01b600052604160045260246000fd5b600067ffffffffffffffff8084111561259557612595612564565b604051601f8501601f19908116603f011681019082821181831017156125bd576125bd612564565b816040528093508581528686860111156125d657600080fd5b858560208301376000602087830101525050509392505050565b60006020828403121561260257600080fd5b813567ffffffffffffffff81111561261957600080fd5b8201601f8101841361262a57600080fd5b61136b8482356020840161257a565b8015158114610c3d57600080fd5b6000806040838503121561265a57600080fd5b612663836124c7565b9150602083013561267381612639565b809150509250929050565b6000806000806080858703121561269457600080fd5b61269d856124c7565b93506126ab602086016124c7565b925060408501359150606085013567ffffffffffffffff8111156126ce57600080fd5b8501601f810187136126df57600080fd5b6126ee8782356020840161257a565b91505092959194509250565b6000806040838503121561270d57600080fd5b612716836124c7565b9150612724602084016124c7565b90509250929050565b600181811c9082168061274157607f821691505b60208210810361276157634e487b7160e01b600052602260045260246000fd5b50919050565b60006020828403121561277957600080fd5b8151611cff81612639565b6020808252602d908201527f4552433732313a2063616c6c6572206973206e6f7420746f6b656e206f776e6560408201526c1c881bdc88185c1c1c9bdd9959609a1b606082015260800190565b634e487b7160e01b600052603260045260246000fd5b601f8211156107f9576000816000526020600020601f850160051c810160208610156128105750805b601f850160051c820191505b8181101561282f5782815560010161281c565b505050505050565b815167ffffffffffffffff81111561285157612851612564565b6128658161285f845461272d565b846127e7565b602080601f83116001811461289a57600084156128825750858301515b600019600386901b1c1916600185901b17855561282f565b600085815260208120601f198616915b828110156128c9578886015182559484019460019091019084016128aa565b50858210156128e75787850151600019600388901b60f8161c191681555b5050505050600190811b01905550565b60208082526025908201527f4552433732313a207472616e736665722066726f6d20696e636f72726563742060408201526437bbb732b960d91b606082015260800190565b60208082526032908201527f4552433732313a207472616e7366657220746f206e6f6e20455243373231526560408201527131b2b4bb32b91034b6b83632b6b2b73a32b960711b606082015260800190565b600083516129a081846020880161244b565b8351908301906129b481836020880161244b565b01949350505050565b6001600160a01b03858116825284166020820152604081018390526080606082018190526000906129f09083018461246f565b9695505050505050565b600060208284031215612a0c57600080fd5b8151611cff81612418565b8181038181111561062557634e487b7160e01b600052601160045260246000fd5b634e487b7160e01b600052603160045260246000fdfea2646970667358221220a36d6f8d8f978bdebc74d6719c68759863d92785f3820c4b7255fe53d0d6f2d864736f6c63430008180033","linkReferences":{}},"methodIdentifiers":{"approve(address,uint256)":"095ea7b3","balanceOf(address)":"70a08231","baseUri()":"9abc8320","burn(uint256)":"42966c68","confirmAppManagerAddress()":"cdccb27a","connectHandlerToToken(address)":"71af85e0","getAppManagerAddress()":"4c330077","getApproved(uint256)":"081812fc","getHandlerAddress()":"6f9c83b8","handlerAddress()":"6fd7d970","isApprovedForAll(address,address)":"e985e9c5","name()":"06fdde03","owner()":"8da5cb5b","ownerOf(uint256)":"6352211e","pause()":"8456cb59","paused()":"5c975abb","proposeAppManagerAddress(address)":"11280cb5","renounceOwnership()":"715018a6","safeMint(address)":"40d097c3","safeTransferFrom(address,address,uint256)":"42842e0e","safeTransferFrom(address,address,uint256,bytes)":"b88d4fde","setApprovalForAll(address,bool)":"a22cb465","setBaseURI(string)":"55f804b3","supportsInterface(bytes4)":"01ffc9a7","symbol()":"95d89b41","tokenByIndex(uint256)":"4f6ccce7","tokenOfOwnerByIndex(address,uint256)":"2f745c59","tokenURI(uint256)":"c87b56dd","totalSupply()":"18160ddd","transferFrom(address,address,uint256)":"23b872dd","transferOwnership(address)":"f2fde38b","unpause()":"3f4ba83a","withdraw()":"3ccfd60b"},"id":205}