{"abi":[{"type":"constructor","inputs":[{"name":"_dataModuleAppManagerAddress","type":"address","internalType":"address"}],"stateMutability":"nonpayable"},{"type":"function","name":"addMultipleTagToMultipleAccounts","inputs":[{"name":"_accounts","type":"address[]","internalType":"address[]"},{"name":"_tags","type":"bytes32[]","internalType":"bytes32[]"}],"outputs":[],"stateMutability":"nonpayable"},{"type":"function","name":"addTag","inputs":[{"name":"_address","type":"address","internalType":"address"},{"name":"_tag","type":"bytes32","internalType":"bytes32"}],"outputs":[],"stateMutability":"nonpayable"},{"type":"function","name":"addTagToMultipleAccounts","inputs":[{"name":"_accounts","type":"address[]","internalType":"address[]"},{"name":"_tag","type":"bytes32","internalType":"bytes32"}],"outputs":[],"stateMutability":"nonpayable"},{"type":"function","name":"confirmDataProvider","inputs":[{"name":"_providerType","type":"uint8","internalType":"enum IDataModule.ProviderType"}],"outputs":[],"stateMutability":"nonpayable"},{"type":"function","name":"confirmOwner","inputs":[],"outputs":[],"stateMutability":"nonpayable"},{"type":"function","name":"dataModuleAppManagerAddress","inputs":[],"outputs":[{"name":"","type":"address","internalType":"address"}],"stateMutability":"view"},{"type":"function","name":"getAllTags","inputs":[{"name":"_address","type":"address","internalType":"address"}],"outputs":[{"name":"","type":"bytes32[]","internalType":"bytes32[]"}],"stateMutability":"view"},{"type":"function","name":"hasTag","inputs":[{"name":"_address","type":"address","internalType":"address"},{"name":"_tag","type":"bytes32","internalType":"bytes32"}],"outputs":[{"name":"","type":"bool","internalType":"bool"}],"stateMutability":"view"},{"type":"function","name":"owner","inputs":[],"outputs":[{"name":"","type":"address","internalType":"address"}],"stateMutability":"view"},{"type":"function","name":"proposeOwner","inputs":[{"name":"_newOwner","type":"address","internalType":"address"}],"outputs":[],"stateMutability":"nonpayable"},{"type":"function","name":"removeTag","inputs":[{"name":"_address","type":"address","internalType":"address"},{"name":"_tag","type":"bytes32","internalType":"bytes32"}],"outputs":[],"stateMutability":"nonpayable"},{"type":"function","name":"renounceOwnership","inputs":[],"outputs":[],"stateMutability":"nonpayable"},{"type":"function","name":"tagRecords","inputs":[{"name":"","type":"address","internalType":"address"},{"name":"","type":"uint256","internalType":"uint256"}],"outputs":[{"name":"","type":"bytes32","internalType":"bytes32"}],"stateMutability":"view"},{"type":"function","name":"transferOwnership","inputs":[{"name":"newOwner","type":"address","internalType":"address"}],"outputs":[],"stateMutability":"nonpayable"},{"type":"function","name":"version","inputs":[],"outputs":[{"name":"","type":"string","internalType":"string"}],"stateMutability":"pure"},{"type":"event","name":"AD1467_AMMRegistered","inputs":[{"name":"_address","type":"address","indexed":true,"internalType":"address"}],"anonymous":false},{"type":"event","name":"AD1467_AccessLevelAdded","inputs":[{"name":"_address","type":"address","indexed":true,"internalType":"address"},{"name":"_level","type":"uint8","indexed":true,"internalType":"uint8"}],"anonymous":false},{"type":"event","name":"AD1467_AccessLevelAdmin","inputs":[{"name":"admin","type":"address","indexed":true,"internalType":"address"},{"name":"add","type":"bool","indexed":true,"internalType":"bool"}],"anonymous":false},{"type":"event","name":"AD1467_AccessLevelProviderSet","inputs":[{"name":"_address","type":"address","indexed":true,"internalType":"address"}],"anonymous":false},{"type":"event","name":"AD1467_AccessLevelRemoved","inputs":[{"name":"_address","type":"address","indexed":true,"internalType":"address"}],"anonymous":false},{"type":"event","name":"AD1467_AccountAdded","inputs":[{"name":"account","type":"address","indexed":true,"internalType":"address"}],"anonymous":false},{"type":"event","name":"AD1467_AccountProviderSet","inputs":[{"name":"_address","type":"address","indexed":true,"internalType":"address"}],"anonymous":false},{"type":"event","name":"AD1467_AccountRemoved","inputs":[{"name":"account","type":"address","indexed":true,"internalType":"address"}],"anonymous":false},{"type":"event","name":"AD1467_AppAdministrator","inputs":[{"name":"admin","type":"address","indexed":true,"internalType":"address"},{"name":"add","type":"bool","indexed":true,"internalType":"bool"}],"anonymous":false},{"type":"event","name":"AD1467_AppManagerDataUpgradeProposed","inputs":[{"name":"deployedAddress","type":"address","indexed":true,"internalType":"address"},{"name":"replacedAddress","type":"address","indexed":false,"internalType":"address"}],"anonymous":false},{"type":"event","name":"AD1467_AppManagerDeployed","inputs":[{"name":"superAndAppAdmin","type":"address","indexed":true,"internalType":"address"},{"name":"appName","type":"string","indexed":true,"internalType":"string"}],"anonymous":false},{"type":"event","name":"AD1467_AppManagerDeployedForUpgrade","inputs":[{"name":"superAndAppAdmin","type":"address","indexed":true,"internalType":"address"},{"name":"appName","type":"string","indexed":true,"internalType":"string"}],"anonymous":false},{"type":"event","name":"AD1467_AppNameChanged","inputs":[{"name":"appName","type":"string","indexed":true,"internalType":"string"}],"anonymous":false},{"type":"event","name":"AD1467_DataContractsMigrated","inputs":[{"name":"ownerAddress","type":"address","indexed":true,"internalType":"address"}],"anonymous":false},{"type":"event","name":"AD1467_PauseRuleEvent","inputs":[{"name":"pauseStart","type":"uint256","indexed":true,"internalType":"uint256"},{"name":"pauseStop","type":"uint256","indexed":true,"internalType":"uint256"},{"name":"add","type":"bool","indexed":true,"internalType":"bool"}],"anonymous":false},{"type":"event","name":"AD1467_PauseRuleProviderSet","inputs":[{"name":"_address","type":"address","indexed":true,"internalType":"address"}],"anonymous":false},{"type":"event","name":"AD1467_RemoveFromRegistry","inputs":[{"name":"contractName","type":"string","indexed":false,"internalType":"string"},{"name":"contractAddress","type":"address","indexed":false,"internalType":"address"}],"anonymous":false},{"type":"event","name":"AD1467_RiskAdmin","inputs":[{"name":"admin","type":"address","indexed":true,"internalType":"address"},{"name":"add","type":"bool","indexed":true,"internalType":"bool"}],"anonymous":false},{"type":"event","name":"AD1467_RiskProviderSet","inputs":[{"name":"_address","type":"address","indexed":true,"internalType":"address"}],"anonymous":false},{"type":"event","name":"AD1467_RiskScoreAdded","inputs":[{"name":"_address","type":"address","indexed":true,"internalType":"address"},{"name":"_score","type":"uint8","indexed":false,"internalType":"uint8"}],"anonymous":false},{"type":"event","name":"AD1467_RiskScoreRemoved","inputs":[{"name":"_address","type":"address","indexed":true,"internalType":"address"}],"anonymous":false},{"type":"event","name":"AD1467_RuleAdmin","inputs":[{"name":"admin","type":"address","indexed":true,"internalType":"address"},{"name":"add","type":"bool","indexed":true,"internalType":"bool"}],"anonymous":false},{"type":"event","name":"AD1467_RuleBypassAccount","inputs":[{"name":"bypassAccount","type":"address","indexed":true,"internalType":"address"},{"name":"add","type":"bool","indexed":true,"internalType":"bool"}],"anonymous":false},{"type":"event","name":"AD1467_SuperAdministrator","inputs":[{"name":"admin","type":"address","indexed":true,"internalType":"address"},{"name":"add","type":"bool","indexed":true,"internalType":"bool"}],"anonymous":false},{"type":"event","name":"AD1467_Tag","inputs":[{"name":"_address","type":"address","indexed":true,"internalType":"address"},{"name":"_tag","type":"bytes32","indexed":true,"internalType":"bytes32"},{"name":"add","type":"bool","indexed":true,"internalType":"bool"}],"anonymous":false},{"type":"event","name":"AD1467_TagAlreadyApplied","inputs":[{"name":"_address","type":"address","indexed":true,"internalType":"address"}],"anonymous":false},{"type":"event","name":"AD1467_TagProviderSet","inputs":[{"name":"_address","type":"address","indexed":true,"internalType":"address"}],"anonymous":false},{"type":"event","name":"AD1467_TokenNameUpdated","inputs":[{"name":"_token","type":"string","indexed":true,"internalType":"string"},{"name":"_address","type":"address","indexed":true,"internalType":"address"}],"anonymous":false},{"type":"event","name":"AD1467_TokenRegistered","inputs":[{"name":"_token","type":"string","indexed":true,"internalType":"string"},{"name":"_address","type":"address","indexed":true,"internalType":"address"}],"anonymous":false},{"type":"event","name":"AD1467_TradingRuleAddressAllowlist","inputs":[{"name":"_address","type":"address","indexed":true,"internalType":"address"},{"name":"isApproved","type":"bool","indexed":true,"internalType":"bool"}],"anonymous":false},{"type":"event","name":"AD1467_TreasuryRegistered","inputs":[{"name":"_address","type":"address","indexed":true,"internalType":"address"}],"anonymous":false},{"type":"event","name":"OwnershipTransferred","inputs":[{"name":"previousOwner","type":"address","indexed":true,"internalType":"address"},{"name":"newOwner","type":"address","indexed":true,"internalType":"address"}],"anonymous":false},{"type":"error","name":"AppManagerNotConnected","inputs":[]},{"type":"error","name":"BlankTag","inputs":[]},{"type":"error","name":"CantMixPeriodicAndNonPeriodic","inputs":[]},{"type":"error","name":"ConfirmerDoesNotMatchProposedAddress","inputs":[]},{"type":"error","name":"IndexOutOfRange","inputs":[]},{"type":"error","name":"InputArraysMustHaveSameLength","inputs":[]},{"type":"error","name":"InputArraysSizesNotValid","inputs":[]},{"type":"error","name":"InvalidOracleType","inputs":[{"name":"_type","type":"uint8","internalType":"uint8"}]},{"type":"error","name":"InvalidRuleInput","inputs":[]},{"type":"error","name":"InvertedLimits","inputs":[]},{"type":"error","name":"MaxTagLimitReached","inputs":[]},{"type":"error","name":"NoAddressToRemove","inputs":[]},{"type":"error","name":"NoProposalHasBeenMade","inputs":[]},{"type":"error","name":"NotAppAdministratorOrOwner","inputs":[]},{"type":"error","name":"NotEnoughBalance","inputs":[]},{"type":"error","name":"RuleDoesNotExist","inputs":[]},{"type":"error","name":"TagAlreadyExists","inputs":[]},{"type":"error","name":"ValueOutOfRange","inputs":[{"name":"_value","type":"uint256","internalType":"uint256"}]},{"type":"error","name":"WrongArrayOrder","inputs":[]},{"type":"error","name":"ZeroAddress","inputs":[]},{"type":"error","name":"ZeroValueNotPermited","inputs":[]}],"bytecode":{"object":"0x60a060405234801561001057600080fd5b506040516112e93803806112e983398101604081905261002f916100a4565b8061003933610054565b6001600160a01b031660805261004e81610054565b506100d4565b600080546001600160a01b038381166001600160a01b0319831681178455604051919092169283917f8be0079c531659141344cd1fd0a4f28419497f9722a3daafe3b4186f6b6457e09190a35050565b6000602082840312156100b657600080fd5b81516001600160a01b03811681146100cd57600080fd5b9392505050565b6080516111d76101126000396000818161023c01528181610273015281816102ba0152818161039e015281816108eb015261093201526111d76000f3fe608060405234801561001057600080fd5b50600436106100f55760003560e01c8063b315cb3a11610097578063d019577a11610066578063d019577a14610201578063d37373ba14610224578063d3d24c9b14610237578063f2fde38b1461025e57600080fd5b8063b315cb3a146101b3578063b5ed298a146101c6578063bd9b6d86146101d9578063cc812f3a146101e157600080fd5b80635eafd108116100d35780635eafd10814610152578063715018a6146101655780638da5cb5b1461016d578063a81790581461019257600080fd5b80631bf974f3146100fa57806326a119291461010f57806354fd4d5014610122575b600080fd5b61010d610108366004610e0d565b610271565b005b61010d61011d366004610f32565b610409565b60408051808201825260058152640312e312e360dc1b602082015290516101499190610fed565b60405180910390f35b61010d61016036600461103c565b610487565b61010d6105e3565b6000546001600160a01b03165b6040516001600160a01b039091168152602001610149565b6101a56101a036600461103c565b6105f7565b604051908152602001610149565b61010d6101c1366004611066565b610628565b61010d6101d43660046110ab565b6108e9565b61010d610a49565b6101f46101ef3660046110ab565b610ab2565b60405161014991906110c6565b61021461020f36600461103c565b610b1e565b6040519015158152602001610149565b61010d61023236600461103c565b610b4c565b61017a7f000000000000000000000000000000000000000000000000000000000000000081565b61010d61026c3660046110ab565b610ce5565b7f00000000000000000000000000000000000000000000000000000000000000006001600160a01b03166102b8576040516371724ffd60e01b815260040160405180910390fd5b7f00000000000000000000000000000000000000000000000000000000000000006001600160a01b03811663c3c2ebbb336040516001600160e01b031960e084901b1681526001600160a01b039091166004820152602401602060405180830381865afa15801561032d573d6000803e3d6000fd5b505050506040513d601f19601f82011682018060405250810190610351919061110a565b15801561036957506000546001600160a01b03163314155b156103875760405163054f3a3160e31b815260040160405180910390fd5b604051632b124b7960e01b81526001600160a01b037f00000000000000000000000000000000000000000000000000000000000000001690632b124b79906103d390859060040161112c565b600060405180830381600087803b1580156103ed57600080fd5b505af1158015610401573d6000803e3d6000fd5b505050505050565b610411610d63565b80518251146104325760405162514d8b60e31b815260040160405180910390fd5b60005b82518110156104825761047a83828151811061045357610453611154565b602002602001015183838151811061046d5761046d611154565b6020026020010151610487565b600101610435565b505050565b61048f610d63565b806000036104b05760405163d7be2be360e01b815260040160405180910390fd5b6001600160a01b0382166104d75760405163d92e233d60e01b815260040160405180910390fd5b6104e18282610b1e565b1561051e576040516001600160a01b038316907f33a66df9ee2fd21e38fe3deee3babfebcde277451a9acc49ed0ae93c16e3e17290600090a25050565b6001600160a01b038216600090815260036020526040902054600a11610557576040516351d7d97160e11b815260040160405180910390fd5b6001600160a01b03821660008181526003602090815260408083208054600484528285208786528452828520819055600180820183559185528385200186905584845260058352818420868552909252808320805460ff191683179055519092849290917ffff458da2d09c8be67a97dc8c3f8f316c0f1afb907fc6de8d8c191f6bb8ebb0f9190a45050565b6105eb610d63565b6105f56000610dbd565b565b6003602052816000526040600020818154811061061357600080fd5b90600052602060002001600091509150505481565b610630610d63565b806000036106515760405163d7be2be360e01b815260040160405180910390fd5b60005b82518110156104825761068083828151811061067257610672611154565b602002602001015183610b1e565b156106d95782818151811061069757610697611154565b60200260200101516001600160a01b03167f33a66df9ee2fd21e38fe3deee3babfebcde277451a9acc49ed0ae93c16e3e17260405160405180910390a26108e1565b600a60ff16600360008584815181106106f4576106f4611154565b60200260200101516001600160a01b03166001600160a01b03168152602001908152602001600020805490501061073e576040516351d7d97160e11b815260040160405180910390fd5b6003600084838151811061075457610754611154565b60200260200101516001600160a01b03166001600160a01b03168152602001908152602001600020805490506004600085848151811061079657610796611154565b60200260200101516001600160a01b03166001600160a01b03168152602001908152602001600020600084815260200190815260200160002081905550600360008483815181106107e9576107e9611154565b6020908102919091018101516001600160a01b0316825281810192909252604001600090812080546001818101835591835292822090920184905584516005919086908590811061083c5761083c611154565b60200260200101516001600160a01b03166001600160a01b03168152602001908152602001600020600084815260200190815260200160002060006101000a81548160ff02191690831515021790555060011515828483815181106108a3576108a3611154565b60200260200101516001600160a01b03167ffff458da2d09c8be67a97dc8c3f8f316c0f1afb907fc6de8d8c191f6bb8ebb0f60405160405180910390a45b600101610654565b7f00000000000000000000000000000000000000000000000000000000000000006001600160a01b0316610930576040516371724ffd60e01b815260040160405180910390fd5b7f00000000000000000000000000000000000000000000000000000000000000006001600160a01b03811663c3c2ebbb336040516001600160e01b031960e084901b1681526001600160a01b039091166004820152602401602060405180830381865afa1580156109a5573d6000803e3d6000fd5b505050506040513d601f19601f820116820180604052508101906109c9919061110a565b1580156109e157506000546001600160a01b03163314155b156109ff5760405163054f3a3160e31b815260040160405180910390fd5b6001600160a01b038216610a265760405163d92e233d60e01b815260040160405180910390fd5b50600180546001600160a01b0319166001600160a01b0392909216919091179055565b6001546001600160a01b0316610a725760405163821e0eeb60e01b815260040160405180910390fd5b6001546001600160a01b03163314610a9d57604051634128496760e01b815260040160405180910390fd5b6001546105f5906001600160a01b0316610dbd565b6001600160a01b038116600090815260036020908152604091829020805483518184028101840190945280845260609392830182828015610b1257602002820191906000526020600020905b815481526020019060010190808311610afe575b50505050509050919050565b6001600160a01b038216600090815260056020908152604080832084845290915290205460ff165b92915050565b610b54610d63565b610b5e8282610b1e565b15610ccc576001600160a01b03821660009081526003602052604081208054610b899060019061116a565b81548110610b9957610b99611154565b90600052602060002001549050818114610c1f576001600160a01b038316600081815260046020908152604080832086845282528083205493835260039091529020805483919083908110610bf057610bf0611154565b60009182526020808320909101929092556001600160a01b038616815260048252604080822085835290925220555b6001600160a01b0383166000908152600360205260409020805480610c4657610c4661118b565b6000828152602080822083016000199081018390559092019092556001600160a01b0385168083526005825260408084208685528352808420805460ff191690558184526004835280842086855290925281832083905590518491907ffff458da2d09c8be67a97dc8c3f8f316c0f1afb907fc6de8d8c191f6bb8ebb0f908490a4505050565b604051637de8c17d60e01b815260040160405180910390fd5b610ced610d63565b6001600160a01b038116610d575760405162461bcd60e51b815260206004820152602660248201527f4f776e61626c653a206e6577206f776e657220697320746865207a65726f206160448201526564647265737360d01b60648201526084015b60405180910390fd5b610d6081610dbd565b50565b6000546001600160a01b031633146105f55760405162461bcd60e51b815260206004820181905260248201527f4f776e61626c653a2063616c6c6572206973206e6f7420746865206f776e65726044820152606401610d4e565b600080546001600160a01b038381166001600160a01b0319831681178455604051919092169283917f8be0079c531659141344cd1fd0a4f28419497f9722a3daafe3b4186f6b6457e09190a35050565b600060208284031215610e1f57600080fd5b813560058110610e2e57600080fd5b9392505050565b634e487b7160e01b600052604160045260246000fd5b604051601f8201601f1916810167ffffffffffffffff81118282101715610e7457610e74610e35565b604052919050565b600067ffffffffffffffff821115610e9657610e96610e35565b5060051b60200190565b80356001600160a01b0381168114610eb757600080fd5b919050565b600082601f830112610ecd57600080fd5b81356020610ee2610edd83610e7c565b610e4b565b8083825260208201915060208460051b870101935086841115610f0457600080fd5b602086015b84811015610f2757610f1a81610ea0565b8352918301918301610f09565b509695505050505050565b60008060408385031215610f4557600080fd5b823567ffffffffffffffff80821115610f5d57600080fd5b610f6986838701610ebc565b9350602091508185013581811115610f8057600080fd5b85019050601f81018613610f9357600080fd5b8035610fa1610edd82610e7c565b81815260059190911b82018301908381019088831115610fc057600080fd5b928401925b82841015610fde57833582529284019290840190610fc5565b80955050505050509250929050565b60006020808352835180602085015260005b8181101561101b57858101830151858201604001528201610fff565b506000604082860101526040601f19601f8301168501019250505092915050565b6000806040838503121561104f57600080fd5b61105883610ea0565b946020939093013593505050565b6000806040838503121561107957600080fd5b823567ffffffffffffffff81111561109057600080fd5b61109c85828601610ebc565b95602094909401359450505050565b6000602082840312156110bd57600080fd5b610e2e82610ea0565b6020808252825182820181905260009190848201906040850190845b818110156110fe578351835292840192918401916001016110e2565b50909695505050505050565b60006020828403121561111c57600080fd5b81518015158114610e2e57600080fd5b602081016005831061114e57634e487b7160e01b600052602160045260246000fd5b91905290565b634e487b7160e01b600052603260045260246000fd5b81810381811115610b4657634e487b7160e01b600052601160045260246000fd5b634e487b7160e01b600052603160045260246000fdfea264697066735822122020f7363d1abbb45dbdaadd82af123d3cd26d59311a5f9a28c53d3527540aaba764736f6c63430008180033","linkReferences":{}},"methodIdentifiers":{"addMultipleTagToMultipleAccounts(address[],bytes32[])":"26a11929","addTag(address,bytes32)":"5eafd108","addTagToMultipleAccounts(address[],bytes32)":"b315cb3a","confirmDataProvider(uint8)":"1bf974f3","confirmOwner()":"bd9b6d86","dataModuleAppManagerAddress()":"d3d24c9b","getAllTags(address)":"cc812f3a","hasTag(address,bytes32)":"d019577a","owner()":"8da5cb5b","proposeOwner(address)":"b5ed298a","removeTag(address,bytes32)":"d37373ba","renounceOwnership()":"715018a6","tagRecords(address,uint256)":"a8179058","transferOwnership(address)":"f2fde38b","version()":"54fd4d50"},"id":146}