{"abi":[{"type":"function","name":"activateAdminMinTokenBalance","inputs":[{"name":"_actions","type":"uint8[]","internalType":"enum ActionTypes[]"},{"name":"_on","type":"bool","internalType":"bool"}],"outputs":[],"stateMutability":"nonpayable"},{"type":"function","name":"checkAllRules","inputs":[{"name":"balanceFrom","type":"uint256","internalType":"uint256"},{"name":"balanceTo","type":"uint256","internalType":"uint256"},{"name":"_from","type":"address","internalType":"address"},{"name":"_to","type":"address","internalType":"address"},{"name":"_sender","type":"address","internalType":"address"},{"name":"_amount","type":"uint256","internalType":"uint256"}],"outputs":[{"name":"","type":"bool","internalType":"bool"}],"stateMutability":"nonpayable"},{"type":"function","name":"confirmAppManagerAddress","inputs":[],"outputs":[],"stateMutability":"nonpayable"},{"type":"function","name":"getAdminMinTokenBalanceId","inputs":[{"name":"_action","type":"uint8","internalType":"enum ActionTypes"}],"outputs":[{"name":"","type":"uint32","internalType":"uint32"}],"stateMutability":"view"},{"type":"function","name":"getAppManagerAddress","inputs":[],"outputs":[{"name":"","type":"address","internalType":"address"}],"stateMutability":"view"},{"type":"function","name":"initialize","inputs":[{"name":"_ruleProcessorProxyAddress","type":"address","internalType":"address"},{"name":"_appManagerAddress","type":"address","internalType":"address"},{"name":"_assetAddress","type":"address","internalType":"address"}],"outputs":[],"stateMutability":"nonpayable"},{"type":"function","name":"isAdminMinTokenBalanceActive","inputs":[{"name":"_action","type":"uint8","internalType":"enum ActionTypes"}],"outputs":[{"name":"","type":"bool","internalType":"bool"}],"stateMutability":"view"},{"type":"function","name":"isAdminMinTokenBalanceActiveAndApplicable","inputs":[],"outputs":[{"name":"","type":"bool","internalType":"bool"}],"stateMutability":"view"},{"type":"function","name":"proposeAppManagerAddress","inputs":[{"name":"_newAppManagerAddress","type":"address","internalType":"address"}],"outputs":[],"stateMutability":"nonpayable"},{"type":"function","name":"setAdminMinTokenBalanceId","inputs":[{"name":"_actions","type":"uint8[]","internalType":"enum ActionTypes[]"},{"name":"_ruleId","type":"uint32","internalType":"uint32"}],"outputs":[],"stateMutability":"nonpayable"},{"type":"function","name":"setAdminMinTokenBalanceIdFull","inputs":[{"name":"_actions","type":"uint8[]","internalType":"enum ActionTypes[]"},{"name":"_ruleIds","type":"uint32[]","internalType":"uint32[]"}],"outputs":[],"stateMutability":"nonpayable"},{"type":"function","name":"setLastPossibleAction","inputs":[{"name":"_lastPossibleAction","type":"uint8","internalType":"uint8"}],"outputs":[],"stateMutability":"nonpayable"},{"type":"event","name":"AD1467_AppManagerAddressProposed","inputs":[{"name":"_address","type":"address","indexed":true,"internalType":"address"}],"anonymous":false},{"type":"event","name":"AD1467_AppManagerAddressSet","inputs":[{"name":"_address","type":"address","indexed":true,"internalType":"address"}],"anonymous":false},{"type":"event","name":"AD1467_ApplicationHandlerActionActivated","inputs":[{"name":"ruleType","type":"bytes32","indexed":true,"internalType":"bytes32"},{"name":"actions","type":"uint8[]","indexed":false,"internalType":"enum ActionTypes[]"}],"anonymous":false},{"type":"event","name":"AD1467_ApplicationHandlerActionApplied","inputs":[{"name":"ruleType","type":"bytes32","indexed":true,"internalType":"bytes32"},{"name":"action","type":"uint8","indexed":true,"internalType":"enum ActionTypes"},{"name":"ruleId","type":"uint32","indexed":true,"internalType":"uint32"}],"anonymous":false},{"type":"event","name":"AD1467_ApplicationHandlerActionAppliedFull","inputs":[{"name":"ruleType","type":"bytes32","indexed":true,"internalType":"bytes32"},{"name":"actions","type":"uint8[]","indexed":false,"internalType":"enum ActionTypes[]"},{"name":"ruleIds","type":"uint32[]","indexed":false,"internalType":"uint32[]"}],"anonymous":false},{"type":"event","name":"AD1467_ApplicationHandlerActionDeactivated","inputs":[{"name":"ruleType","type":"bytes32","indexed":true,"internalType":"bytes32"},{"name":"actions","type":"uint8[]","indexed":false,"internalType":"enum ActionTypes[]"}],"anonymous":false},{"type":"event","name":"AD1467_ApplicationHandlerActivated","inputs":[{"name":"ruleType","type":"bytes32","indexed":true,"internalType":"bytes32"}],"anonymous":false},{"type":"event","name":"AD1467_ApplicationHandlerDeactivated","inputs":[{"name":"ruleType","type":"bytes32","indexed":true,"internalType":"bytes32"}],"anonymous":false},{"type":"event","name":"AD1467_ERC721AddressSet","inputs":[{"name":"_address","type":"address","indexed":true,"internalType":"address"}],"anonymous":false},{"type":"event","name":"AD1467_FeeActivationSet","inputs":[{"name":"_activation","type":"bool","indexed":true,"internalType":"bool"}],"anonymous":false},{"type":"event","name":"AD1467_NFTValuationLimitUpdated","inputs":[{"name":"nftValuationLimit","type":"uint256","indexed":true,"internalType":"uint256"}],"anonymous":false},{"type":"event","name":"AD1467_RulesBypassedViaRuleBypassAccount","inputs":[{"name":"ruleBypassAccount","type":"address","indexed":true,"internalType":"address"},{"name":"appManager","type":"address","indexed":true,"internalType":"address"}],"anonymous":false},{"type":"error","name":"AddressAlreadyRegistered","inputs":[]},{"type":"error","name":"AdminMinTokenBalanceisActive","inputs":[]},{"type":"error","name":"AlreadyInitialized","inputs":[]},{"type":"error","name":"AppManagerNotConnected","inputs":[]},{"type":"error","name":"BelowMinAdminThreshold","inputs":[]},{"type":"error","name":"CantMixPeriodicAndNonPeriodic","inputs":[]},{"type":"error","name":"ConfirmerDoesNotMatchProposedAddress","inputs":[]},{"type":"error","name":"IndexOutOfRange","inputs":[]},{"type":"error","name":"InputArraysMustHaveSameLength","inputs":[]},{"type":"error","name":"InputArraysSizesNotValid","inputs":[]},{"type":"error","name":"InvalidOracleType","inputs":[{"name":"_type","type":"uint8","internalType":"uint8"}]},{"type":"error","name":"InvalidRuleInput","inputs":[]},{"type":"error","name":"InvertedLimits","inputs":[]},{"type":"error","name":"NoAddressToRemove","inputs":[]},{"type":"error","name":"NoProposalHasBeenMade","inputs":[]},{"type":"error","name":"NotAUser","inputs":[{"name":"_address","type":"address","internalType":"address"}]},{"type":"error","name":"NotAccessLevelAdministrator","inputs":[{"name":"_address","type":"address","internalType":"address"}]},{"type":"error","name":"NotAppAdministrator","inputs":[]},{"type":"error","name":"NotAppAdministratorOrOwner","inputs":[]},{"type":"error","name":"NotRegisteredHandler","inputs":[{"name":"","type":"address","internalType":"address"}]},{"type":"error","name":"NotRiskAdmin","inputs":[{"name":"_address","type":"address","internalType":"address"}]},{"type":"error","name":"NotRuleAdministrator","inputs":[]},{"type":"error","name":"NotSuperAdmin","inputs":[{"name":"","type":"address","internalType":"address"}]},{"type":"error","name":"PricingModuleNotConfigured","inputs":[{"name":"_erc20PricingAddress","type":"address","internalType":"address"},{"name":"nftPricingAddress","type":"address","internalType":"address"}]},{"type":"error","name":"ValueOutOfRange","inputs":[{"name":"_value","type":"uint256","internalType":"uint256"}]},{"type":"error","name":"WrongArrayOrder","inputs":[]},{"type":"error","name":"ZeroAddress","inputs":[]},{"type":"error","name":"ZeroValueNotPermited","inputs":[]}],"bytecode":{"object":"0x608060405234801561001057600080fd5b50611d63806100206000396000f3fe608060405234801561001057600080fd5b50600436106100b45760003560e01c8063cdccb27a11610071578063cdccb27a14610159578063cf70d94814610161578063d6591f4914610174578063dcb0080f14610187578063e20da9a11461019a578063e802b523146101ad57600080fd5b806305476625146100b957806311280cb5146100e6578063322f1a00146100fb5780634c3300771461010e578063b1a7f8281461012e578063c0c53b8b14610146575b600080fd5b6100cc6100c736600461180a565b6101c0565b60405163ffffffff90911681526020015b60405180910390f35b6100f96100f436600461183c565b61020c565b005b6100f96101093660046118a3565b6102a5565b610116610481565b6040516001600160a01b0390911681526020016100dd565b61013661049d565b60405190151581526020016100dd565b6100f961015436600461190f565b610610565b6100f96107d3565b6100f961016f366004611963565b6108cb565b61013661018236600461180a565b610b0b565b6100f96101953660046119ce565b610b5c565b6100f96101a8366004611a19565b610d89565b6101366101bb366004611a3c565b610dcf565b60006101ca61124e565b60008360048111156101de576101de611a9b565b60048111156101ef576101ef611a9b565b815260208101919091526040016000205463ffffffff1692915050565b610214611282565b600201546001600160a01b031661022a816112b0565b6001600160a01b0382166102515760405163d92e233d60e01b815260040160405180910390fd5b8161025a611282565b80546001600160a01b0319166001600160a01b03928316179055604051908316907fb55bb65ffb11767909d0a4c57dc84fe177b0bf1e1d6ecfc499e4d0ae950af3b990600090a25050565b6102ad611282565b600201546001600160a01b0316806102d8576040516371724ffd60e01b815260040160405180910390fd5b806001600160a01b03811663d4a7db7f336040516001600160e01b031960e084901b1681526001600160a01b039091166004820152602401602060405180830381865afa15801561032d573d6000803e3d6000fd5b505050506040513d601f19601f820116820180604052508101906103519190611ab1565b61036e57604051631acd860160e31b815260040160405180910390fd5b600085900361039057604051633f4ab26f60e21b815260040160405180910390fd5b8483146103af5760405162514d8b60e31b815260040160405180910390fd5b6103b76113a9565b60005b85811015610420576104188787838181106103d7576103d7611ace565b90506020020160208101906103ec919061180a565b8686848181106103fe576103fe611ace565b90506020020160208101906104139190611ae4565b61142f565b6001016103ba565b507641444d494e5f4d494e5f544f4b454e5f42414c414e434560481b7ffce5ba10ca670317c4ad6aaf14bfb5c4467bb4415ab89dafce1434471a227126878787876040516104719493929190611b58565b60405180910390a2505050505050565b600061048b611282565b600201546001600160a01b0316919050565b600080806104a961124e565b90505b6104b4611282565b6003015460ff600160a01b909104811690831611610607578060008360ff1660048111156104e4576104e4611a9b565b60048111156104f5576104f5611a9b565b600481111561050657610506611a9b565b8152602081019190915260400160002054640100000000900460ff16156105f55761052f611282565b600101546001600160a01b0316635d74c45e82600060ff8616600481111561055957610559611a9b565b600481111561056a5761056a611a9b565b600481111561057b5761057b611a9b565b81526020810191909152604090810160002054905160e083901b6001600160e01b031916815263ffffffff9091166004820152600160248201819052604482015260640160006040518083038186803b1580156105d757600080fd5b505afa9250505080156105e8575060015b6105f55760019250505090565b816105ff81611bce565b9250506104ac565b60009250505090565b7f02dbc36a11ad69a7efd36e6fc5553942b2a3c7757978bf89807fea8d8cdf5a8b546001600160a01b0316331461067d5760405162461bcd60e51b815260206004820152600c60248201526b15539055551213d49256915160a21b60448201526064015b60405180910390fd5b6000610687611557565b805490915060ff16156106ac5760405162dc149f60e41b815260040160405180910390fd5b60006106b6611282565b90506001600160a01b03841615806106d557506001600160a01b038516155b806106e757506001600160a01b038316155b156107055760405163d92e233d60e01b815260040160405180910390fd5b6002810180546001600160a01b03199081166001600160a01b038781169190911790925560018084018054909216888416179091556003830180549286166001600160a81b031990931692909217600160a21b1790915561076e90631634ff0560e31b90611585565b815460ff191660011782556040516001600160a01b03841660248201526107ca9063f2fde38b60e01b9060440160408051601f198184030181529190526020810180516001600160e01b031663f2fde38b60e01b179052611617565b50505050505050565b60006107dd611282565b80549091506001600160a01b03166108085760405163821e0eeb60e01b815260040160405180910390fd5b80546001600160a01b0316331461083257604051634128496760e01b815260040160405180910390fd5b80546002820180546001600160a01b0319166001600160a01b0390921691909117905561085d611282565b60029081015490820180546001600160a01b039092166001600160a01b0319928316179055815416815561088f611282565b600201546040516001600160a01b03909116907f3ac7d74683e7037bbcca16efc7d8a868fef7ab1c486ed25e3658c626afd10fa990600090a250565b6108d3611282565b600201546001600160a01b0316806108fe576040516371724ffd60e01b815260040160405180910390fd5b806001600160a01b03811663d4a7db7f336040516001600160e01b031960e084901b1681526001600160a01b039091166004820152602401602060405180830381865afa158015610953573d6000803e3d6000fd5b505050506040513d601f19601f820116820180604052508101906109779190611ab1565b61099457604051631acd860160e31b815260040160405180910390fd5b826109bf576109a161049d565b156109bf576040516312e9e50760e21b815260040160405180910390fd5b60006109c961124e565b905060005b85811015610a5757848260008989858181106109ec576109ec611ace565b9050602002016020810190610a01919061180a565b6004811115610a1257610a12611a9b565b6004811115610a2357610a23611a9b565b8152602081019190915260400160002080549115156401000000000264ff00000000199092169190911790556001016109ce565b508315610ab7577641444d494e5f4d494e5f544f4b454e5f42414c414e434560481b7f4dfa26a794eb61a703a2beac482f06b4372aed0b7c0d6b4490db416146d8e32e8787604051610aaa929190611bed565b60405180910390a2610b03565b7641444d494e5f4d494e5f544f4b454e5f42414c414e434560481b7fe67b4c6b446d2563a2a39eb75b71127a3f908bcfcef4f7c89bd9e1b3ef39d15e8787604051610471929190611bed565b505050505050565b6000610b1561124e565b6000836004811115610b2957610b29611a9b565b6004811115610b3a57610b3a611a9b565b8152602081019190915260400160002054640100000000900460ff1692915050565b610b64611282565b600201546001600160a01b031680610b8f576040516371724ffd60e01b815260040160405180910390fd5b806001600160a01b03811663d4a7db7f336040516001600160e01b031960e084901b1681526001600160a01b039091166004820152602401602060405180830381865afa158015610be4573d6000803e3d6000fd5b505050506040513d601f19601f82011682018060405250810190610c089190611ab1565b610c2557604051631acd860160e31b815260040160405180910390fd5b610c2d611282565b6001015460405163f314bcb960e01b815263ffffffff851660048201526001600160a01b039091169063f314bcb99060240160006040518083038186803b158015610c7757600080fd5b505afa158015610c8b573d6000803e3d6000fd5b50505050610c976116b9565b15610cc257610ca461049d565b15610cc2576040516312e9e50760e21b815260040160405180910390fd5b60005b84811015610b0357610cfd868683818110610ce257610ce2611ace565b9050602002016020810190610cf7919061180a565b8561142f565b8363ffffffff16868683818110610d1657610d16611ace565b9050602002016020810190610d2b919061180a565b6004811115610d3c57610d3c611a9b565b6040517641444d494e5f4d494e5f544f4b454e5f42414c414e434560481b907f4f87ac5c7868c692420a972d0f84fa7750afbf2b8a09848fefc355020bce707b90600090a4600101610cc5565b610d91611282565b600201546001600160a01b0316610da7816112b0565b81610db0611282565b60030160146101000a81548160ff021916908360ff1602179055505050565b60007f02dbc36a11ad69a7efd36e6fc5553942b2a3c7757978bf89807fea8d8cdf5a8b546001600160a01b03163314610e395760405162461bcd60e51b815260206004820152600c60248201526b15539055551213d49256915160a21b6044820152606401610674565b6000610e43611282565b6002810154604051637069e99f60e01b81526001600160a01b03898116600483015292935060009290911690637069e99f90602401602060405180830381865afa158015610e95573d6000803e3d6000fd5b505050506040513d601f19601f82011682018060405250810190610eb99190611ab1565b6002830154604051637069e99f60e01b81526001600160a01b03898116600483015292935060009290911690637069e99f90602401602060405180830381865afa158015610f0b573d6000803e3d6000fd5b505050506040513d601f19601f82011682018060405250810190610f2f9190611ab1565b90506000610f3e89898961175e565b600285015460405163516f0a1b60e01b81526001600160a01b038b8116600483015292935091169063516f0a1b90602401602060405180830381865afa158015610f8c573d6000803e3d6000fd5b505050506040513d601f19601f82011682018060405250810190610fb09190611ab1565b61123d5782158015610fc0575081155b156110e757600284015460405163f142a46f60e01b81526001600160a01b039091169063f142a46f906110069033908d908d908c9060009081908a908290600401611c09565b600060405180830381600087803b15801561102057600080fd5b505af1158015611034573d6000803e3d6000fd5b5050505061108d6336bd6ea760e01b8c8c8c8c8b8760405160240161105e96959493929190611c72565b60408051601f198184030181529190526020810180516001600160e01b03166336bd6ea760e01b179052611617565b50506110e0636f43d91d60e01b8a8a89856040516024016110b19493929190611cb6565b60408051601f198184030181529190526020810180516001600160e01b0316636f43d91d60e01b179052611617565b505061123d565b6110ef61124e565b600082600481111561110357611103611a9b565b600481111561111457611114611a9b565b8152602081019190915260400160002054640100000000900460ff1680156111395750825b1561123d57611146611282565b600101546001600160a01b0316635d74c45e61116061124e565b600084600481111561117457611174611a9b565b600481111561118557611185611a9b565b81526020810191909152604090810160002054905160e083901b6001600160e01b031916815263ffffffff9091166004820152602481018e90526044810189905260640160006040518083038186803b1580156111e157600080fd5b505afa1580156111f5573d6000803e3d6000fd5b50505050611201611282565b600201546040516001600160a01b039091169033907fe99db0cf7d60f275b21533b3f618d16d949405d33c3970818d6631b3cb862ec090600090a35b5060019a9950505050505050505050565b60008061127c60017ff5bd48fd0872ddd36ef3d33e5a5e9adb72fd2eac946092e3216254d49dfac80b611ceb565b92915050565b60008061127c60017f1c7e9355957c344e150b07462120dcb6c99b078e258444a7cd1841042fa7f14b611ceb565b6001600160a01b0381166112d7576040516371724ffd60e01b815260040160405180910390fd5b806001600160a01b03811663c3c2ebbb336040516001600160e01b031960e084901b1681526001600160a01b039091166004820152602401602060405180830381865afa15801561132c573d6000803e3d6000fd5b505050506040513d601f19601f820116820180604052508101906113509190611ab1565b15801561138757507f02dbc36a11ad69a7efd36e6fc5553942b2a3c7757978bf89807fea8d8cdf5a8b546001600160a01b03163314155b156113a55760405163054f3a3160e31b815260040160405180910390fd5b5050565b60006113b361124e565b905060005b6113c0611282565b60030154600160a01b900460ff1681116113a5578160008260048111156113e9576113e9611a9b565b60048111156113fa576113fa611a9b565b600481111561140b5761140b611a9b565b81526020810191909152604001600020805464ffffffffff191690556001016113b8565b611437611282565b6001015460405163f314bcb960e01b815263ffffffff831660048201526001600160a01b039091169063f314bcb99060240160006040518083038186803b15801561148157600080fd5b505afa158015611495573d6000803e3d6000fd5b5050505060006114a361124e565b9050818160008560048111156114bb576114bb611a9b565b60048111156114cc576114cc611a9b565b815260200190815260200160002060000160006101000a81548163ffffffff021916908363ffffffff160217905550600181600001600085600481111561151557611515611a9b565b600481111561152657611526611a9b565b8152602081019190915260400160002080549115156401000000000264ff0000000019909216919091179055505050565b60008061127c60017fe9b0251cee7e1bb8b178e56e954bef13496065e8dd664538ecbb99cf4ec347f3611ceb565b6001600160e01b031980831690036115cc5760405162461bcd60e51b815260206004820152600a602482015269125b9d985b1a5908125160b21b6044820152606401610674565b6001600160e01b03199190911660009081527f8f7e2d929645ca415c0682921b343d96410da360ea90cf9706c3d0606a2b233260205260409020805460ff1916911515919091179055565b6000606060006116256117c8565b6001600160e01b03198616600090815260208290526040908190205490519192506001600160a01b031690819061165d908790611cfe565b600060405180830381855af49150503d8060008114611698576040519150601f19603f3d011682016040523d82523d6000602084013e61169d565b606091505b509094509250836116b057825160208401fd5b50509250929050565b600080806116c561124e565b90505b6116d0611282565b6003015460ff600160a01b909104811690831611610607578060008360ff16600481111561170057611700611a9b565b600481111561171157611711611a9b565b600481111561172257611722611a9b565b8152602081019190915260400160002054640100000000900460ff161561174c5760019250505090565b8161175681611bce565b9250506116c8565b60006001600160a01b038416611776575060036117c1565b6001600160a01b03831661178c575060046117c1565b836001600160a01b0316826001600160a01b0316146117ad575060026117c1565b6001600160a01b0384163b156117c1575060015b9392505050565b60008061127c60017fbe498a3b14fd79a48c3c9af86ff14271ed497d09071013334028d28e7791db20611ceb565b80356005811061180557600080fd5b919050565b60006020828403121561181c57600080fd5b6117c1826117f6565b80356001600160a01b038116811461180557600080fd5b60006020828403121561184e57600080fd5b6117c182611825565b60008083601f84011261186957600080fd5b50813567ffffffffffffffff81111561188157600080fd5b6020830191508360208260051b850101111561189c57600080fd5b9250929050565b600080600080604085870312156118b957600080fd5b843567ffffffffffffffff808211156118d157600080fd5b6118dd88838901611857565b909650945060208701359150808211156118f657600080fd5b5061190387828801611857565b95989497509550505050565b60008060006060848603121561192457600080fd5b61192d84611825565b925061193b60208501611825565b915061194960408501611825565b90509250925092565b801515811461196057600080fd5b50565b60008060006040848603121561197857600080fd5b833567ffffffffffffffff81111561198f57600080fd5b61199b86828701611857565b90945092505060208401356119af81611952565b809150509250925092565b803563ffffffff8116811461180557600080fd5b6000806000604084860312156119e357600080fd5b833567ffffffffffffffff8111156119fa57600080fd5b611a0686828701611857565b90945092506119499050602085016119ba565b600060208284031215611a2b57600080fd5b813560ff811681146117c157600080fd5b60008060008060008060c08789031215611a5557600080fd5b8635955060208701359450611a6c60408801611825565b9350611a7a60608801611825565b9250611a8860808801611825565b915060a087013590509295509295509295565b634e487b7160e01b600052602160045260246000fd5b600060208284031215611ac357600080fd5b81516117c181611952565b634e487b7160e01b600052603260045260246000fd5b600060208284031215611af657600080fd5b6117c1826119ba565b60058110611b0f57611b0f611a9b565b9052565b8183526000602080850194508260005b85811015611b4d57611b3d87611b38846117f6565b611aff565b9582019590820190600101611b23565b509495945050505050565b604081526000611b6c604083018688611b13565b8281036020848101919091528482528591810160005b86811015611bab5763ffffffff611b98856119ba565b1682529282019290820190600101611b82565b5098975050505050505050565b634e487b7160e01b600052601160045260246000fd5b600060ff821660ff8103611be457611be4611bb8565b60010192915050565b602081526000611c01602083018486611b13565b949350505050565b6001600160a01b0389811682528881166020830152871660408201526060810186905261ffff8516608082015260a081018490526101008101611c4f60c0830185611aff565b60028310611c5f57611c5f611a9b565b8260e08301529998505050505050505050565b868152602081018690526001600160a01b038581166040830152841660608201526080810183905260c08101611cab60a0830184611aff565b979650505050505050565b6001600160a01b038581168252841660208201526040810183905260808101611ce26060830184611aff565b95945050505050565b8181038181111561127c5761127c611bb8565b6000825160005b81811015611d1f5760208186018101518583015201611d05565b50600092019182525091905056fea2646970667358221220cbc643d830adb2f01d1f6deedc6ca574741bb697062d70d6e37b7b34cd8959a864736f6c63430008180033","linkReferences":{}},"methodIdentifiers":{"activateAdminMinTokenBalance(uint8[],bool)":"cf70d948","checkAllRules(uint256,uint256,address,address,address,uint256)":"e802b523","confirmAppManagerAddress()":"cdccb27a","getAdminMinTokenBalanceId(uint8)":"05476625","getAppManagerAddress()":"4c330077","initialize(address,address,address)":"c0c53b8b","isAdminMinTokenBalanceActive(uint8)":"d6591f49","isAdminMinTokenBalanceActiveAndApplicable()":"b1a7f828","proposeAppManagerAddress(address)":"11280cb5","setAdminMinTokenBalanceId(uint8[],uint32)":"dcb0080f","setAdminMinTokenBalanceIdFull(uint8[],uint32[])":"322f1a00","setLastPossibleAction(uint8)":"e20da9a1"},"id":168}