{"abi":[{"type":"function","name":"addAccountMaxBuySize","inputs":[{"name":"_appManagerAddr","type":"address","internalType":"address"},{"name":"_accountTypes","type":"bytes32[]","internalType":"bytes32[]"},{"name":"_maxSizes","type":"uint256[]","internalType":"uint256[]"},{"name":"_periods","type":"uint16[]","internalType":"uint16[]"},{"name":"_startTime","type":"uint64","internalType":"uint64"}],"outputs":[{"name":"","type":"uint32","internalType":"uint32"}],"stateMutability":"nonpayable"},{"type":"function","name":"addAccountMaxSellSize","inputs":[{"name":"_appManagerAddr","type":"address","internalType":"address"},{"name":"_accountTypes","type":"bytes32[]","internalType":"bytes32[]"},{"name":"_maxSizes","type":"uint192[]","internalType":"uint192[]"},{"name":"_period","type":"uint16[]","internalType":"uint16[]"},{"name":"_startTime","type":"uint64","internalType":"uint64"}],"outputs":[{"name":"","type":"uint32","internalType":"uint32"}],"stateMutability":"nonpayable"},{"type":"function","name":"addAccountMinMaxTokenBalance","inputs":[{"name":"_appManagerAddr","type":"address","internalType":"address"},{"name":"_accountTypes","type":"bytes32[]","internalType":"bytes32[]"},{"name":"_min","type":"uint256[]","internalType":"uint256[]"},{"name":"_max","type":"uint256[]","internalType":"uint256[]"},{"name":"_periods","type":"uint16[]","internalType":"uint16[]"},{"name":"_startTime","type":"uint64","internalType":"uint64"}],"outputs":[{"name":"","type":"uint32","internalType":"uint32"}],"stateMutability":"nonpayable"},{"type":"function","name":"addAdminMinTokenBalance","inputs":[{"name":"_appManagerAddr","type":"address","internalType":"address"},{"name":"_amount","type":"uint256","internalType":"uint256"},{"name":"_endTime","type":"uint256","internalType":"uint256"}],"outputs":[{"name":"","type":"uint32","internalType":"uint32"}],"stateMutability":"nonpayable"},{"type":"function","name":"addTokenMaxDailyTrades","inputs":[{"name":"_appManagerAddr","type":"address","internalType":"address"},{"name":"_nftTags","type":"bytes32[]","internalType":"bytes32[]"},{"name":"_tradesAllowed","type":"uint8[]","internalType":"uint8[]"},{"name":"_startTime","type":"uint64","internalType":"uint64"}],"outputs":[{"name":"","type":"uint32","internalType":"uint32"}],"stateMutability":"nonpayable"},{"type":"event","name":"AD1467_ProtocolRuleCreated","inputs":[{"name":"ruleType","type":"bytes32","indexed":true,"internalType":"bytes32"},{"name":"ruleId","type":"uint32","indexed":true,"internalType":"uint32"},{"name":"extraTags","type":"bytes32[]","indexed":false,"internalType":"bytes32[]"}],"anonymous":false},{"type":"error","name":"AppManagerNotConnected","inputs":[]},{"type":"error","name":"BelowMinAdminThreshold","inputs":[]},{"type":"error","name":"BlankTag","inputs":[]},{"type":"error","name":"CantMixPeriodicAndNonPeriodic","inputs":[]},{"type":"error","name":"DateInThePast","inputs":[{"name":"date","type":"uint256","internalType":"uint256"}]},{"type":"error","name":"IndexOutOfRange","inputs":[]},{"type":"error","name":"InputArraysMustHaveSameLength","inputs":[]},{"type":"error","name":"InputArraysSizesNotValid","inputs":[]},{"type":"error","name":"InvalidOracleType","inputs":[{"name":"_type","type":"uint8","internalType":"uint8"}]},{"type":"error","name":"InvalidRuleInput","inputs":[]},{"type":"error","name":"InvalidTimestamp","inputs":[{"name":"_timestamp","type":"uint64","internalType":"uint64"}]},{"type":"error","name":"InvertedLimits","inputs":[]},{"type":"error","name":"NotAppAdministrator","inputs":[]},{"type":"error","name":"NotAppAdministratorOrOwner","inputs":[]},{"type":"error","name":"NotRuleAdministrator","inputs":[]},{"type":"error","name":"NotSuperAdmin","inputs":[{"name":"","type":"address","internalType":"address"}]},{"type":"error","name":"StartTimeNotValid","inputs":[]},{"type":"error","name":"TagAlreadyExists","inputs":[]},{"type":"error","name":"TagListMustBeSingleBlankOrValueList","inputs":[]},{"type":"error","name":"ValueOutOfRange","inputs":[{"name":"_value","type":"uint256","internalType":"uint256"}]},{"type":"error","name":"WrongArrayOrder","inputs":[]},{"type":"error","name":"ZeroAddress","inputs":[]},{"type":"error","name":"ZeroValueNotPermited","inputs":[]}],"bytecode":{"object":"0x608060405234801561001057600080fd5b5061172f806100206000396000f3fe608060405234801561001057600080fd5b50600436106100575760003560e01c80632f96d4d41461005c578063402c73b0146100885780636dec90641461009b578063abe04422146100ae578063d3f35808146100c1575b600080fd5b61006f61006a3660046112ee565b6100d4565b60405163ffffffff909116815260200160405180910390f35b61006f6100963660046113a8565b61020a565b61006f6100a93660046112ee565b610380565b61006f6100bc36600461148c565b6104ce565b61006f6100cf3660046114bf565b6106b6565b6000886001600160a01b0381166100fe576040516371724ffd60e01b815260040160405180910390fd5b806001600160a01b03811663d4a7db7f336040516001600160e01b031960e084901b1681526001600160a01b039091166004820152602401602060405180830381865afa158015610153573d6000803e3d6000fd5b505050506040513d601f19601f82011682018060405250810190610177919061154e565b61019457604051631acd860160e31b815260040160405180910390fd5b88871415806101a35750888514155b156101c05760405162514d8b60e31b815260040160405180910390fd5b60008990036101e2576040516357a7068b60e01b815260040160405180910390fd5b6101ec8a8a610824565b6101fb8a8a8a8a8a8a8a61087f565b9b9a5050505050505050505050565b60008a6001600160a01b038116610234576040516371724ffd60e01b815260040160405180910390fd5b806001600160a01b03811663d4a7db7f336040516001600160e01b031960e084901b1681526001600160a01b039091166004820152602401602060405180830381865afa158015610289573d6000803e3d6000fd5b505050506040513d601f19601f820116820180604052508101906102ad919061154e565b6102ca57604051631acd860160e31b815260040160405180910390fd5b6001600160a01b038d166102f15760405163d92e233d60e01b815260040160405180910390fd5b8a8914158061030057508a8714155b806103155750841580159061031557508a8514155b156103325760405162514d8b60e31b815260040160405180910390fd5b60008b9003610354576040516357a7068b60e01b815260040160405180910390fd5b61035e8c8c610824565b61036f8c8c8c8c8c8c8c8c8c610a98565b9d9c50505050505050505050505050565b6000886001600160a01b0381166103aa576040516371724ffd60e01b815260040160405180910390fd5b806001600160a01b03811663d4a7db7f336040516001600160e01b031960e084901b1681526001600160a01b039091166004820152602401602060405180830381865afa1580156103ff573d6000803e3d6000fd5b505050506040513d601f19601f82011682018060405250810190610423919061154e565b61044057604051631acd860160e31b815260040160405180910390fd5b6001600160a01b038b166104675760405163d92e233d60e01b815260040160405180910390fd5b88871415806104765750888514155b156104935760405162514d8b60e31b815260040160405180910390fd5b60008990036104b5576040516357a7068b60e01b815260040160405180910390fd5b6104bf8a8a610824565b6101fb8a8a8a8a8a8a8a610dac565b6000836001600160a01b0381166104f8576040516371724ffd60e01b815260040160405180910390fd5b806001600160a01b03811663d4a7db7f336040516001600160e01b031960e084901b1681526001600160a01b039091166004820152602401602060405180830381865afa15801561054d573d6000803e3d6000fd5b505050506040513d601f19601f82011682018060405250810190610571919061154e565b61058e57604051631acd860160e31b815260040160405180910390fd5b6000610598610fa4565b9050856000036105bb57604051631153c6f560e21b815260040160405180910390fd5b4285116105e3576040516301c0893960e31b8152600481018690526024015b60405180910390fd5b60018181015460408051808201825289815260208082018a815263ffffffff909416600081815287835284812084518155955195909601949094558251948552840191829052919283917f41444d494e5f4d494e5f544f4b454e5f42414c414e4345000000000000000000916000805160206116da833981519152916106699190611577565b60405180910390a36001830180546000906106899063ffffffff166115d1565b91906101000a81548163ffffffff021916908363ffffffff16021790555081955050505050509392505050565b6000866001600160a01b0381166106e0576040516371724ffd60e01b815260040160405180910390fd5b806001600160a01b03811663d4a7db7f336040516001600160e01b031960e084901b1681526001600160a01b039091166004820152602401602060405180830381865afa158015610735573d6000803e3d6000fd5b505050506040513d601f19601f82011682018060405250810190610759919061154e565b61077657604051631acd860160e31b815260040160405180910390fd5b6001600160a01b03891661079d5760405163d92e233d60e01b815260040160405180910390fd5b8615806107b157506001600160401b038416155b156107cf57604051631153c6f560e21b815260040160405180910390fd5b8685146107ee5760405162514d8b60e31b815260040160405180910390fd5b610800846001600160401b0316610fd8565b61080a8888610824565b610817888888888861102f565b9998505050505050505050565b600181111561087b5760005b8181101561087957600083838381811061084c5761084c6115f4565b905060200201350361087157604051636bb35a9960e01b815260040160405180910390fd5b600101610830565b505b5050565b60008061088a6111b8565b600281015490915063ffffffff166108aa6001600160401b038516610fd8565b60005b898110156109df578888828181106108c7576108c76115f4565b905060200201356000148061090457508686828181106108e9576108e96115f4565b90506020020160208101906108fe919061160a565b61ffff16155b1561092257604051631153c6f560e21b815260040160405180910390fd5b60405180604001604052808a8a8481811061093f5761093f6115f4565b90506020020135815260200188888481811061095d5761095d6115f4565b9050602002016020810190610972919061160a565b61ffff16905263ffffffff83166000908152602085905260408120908d8d858181106109a0576109a06115f4565b6020908102929092013583525081810192909252604001600020825181559101516001918201805461ffff191661ffff909216919091179055016108ad565b5063ffffffff8116600081815260018401602052604090819020805467ffffffffffffffff19166001600160401b03881617905551734143434f554e545f4d41585f4255595f53495a4560601b906000805160206116da83398151915290610a4a908e908e9061162e565b60405180910390a3600282018054600090610a6a9063ffffffff166115d1565b91906101000a81548163ffffffff021916908363ffffffff1602179055508092505050979650505050505050565b600080610aa36111e6565b600281015490915063ffffffff166001600160401b038416600003610ac6574293505b60005b8b811015610cce578a8a82818110610ae357610ae36115f4565b9050602002013560001480610b105750888882818110610b0557610b056115f4565b905060200201356000145b15610b2e57604051631153c6f560e21b815260040160405180910390fd5b888882818110610b4057610b406115f4565b905060200201358b8b83818110610b5957610b596115f4565b905060200201351115610b7f5760405163eeb9d4f760e01b815260040160405180910390fd5b8515801590610bb65750868682818110610b9b57610b9b6115f4565b9050602002016020810190610bb0919061160a565b61ffff16155b15610bd457604051632dd4652960e21b815260040160405180910390fd5b60405180606001604052808c8c84818110610bf157610bf16115f4565b9050602002013581526020018a8a84818110610c0f57610c0f6115f4565b60209081029290920135835250018715610c4f57888884818110610c3557610c356115f4565b9050602002016020810190610c4a919061160a565b610c52565b60005b61ffff16905263ffffffff83166000908152602085905260408120908f8f85818110610c8057610c806115f4565b6020908102929092013583525081810192909252604090810160002083518155918301516001808401919091559201516002909101805461ffff191661ffff90921691909117905501610ac9565b50838260010160008363ffffffff1663ffffffff16815260200190815260200160002060006101000a8154816001600160401b0302191690836001600160401b031602179055508063ffffffff167f4143434f554e545f4d494e5f4d41585f544f4b454e5f42414c414e43450000006000805160206116da8339815191528e8e604051610d5c92919061162e565b60405180910390a3600282018054600090610d7c9063ffffffff166115d1565b91906101000a81548163ffffffff021916908363ffffffff16021790555080925050509998505050505050505050565b600080610db7611214565b600281015490915063ffffffff16610dd76001600160401b038516610fd8565b60005b89811015610f3857888882818110610df457610df46115f4565b9050602002016020810190610e099190611667565b6001600160c01b03161580610e465750868682818110610e2b57610e2b6115f4565b9050602002016020810190610e40919061160a565b61ffff16155b15610e6457604051631153c6f560e21b815260040160405180910390fd5b60405180604001604052808a8a84818110610e8157610e816115f4565b9050602002016020810190610e969190611667565b6001600160c01b03168152602001888884818110610eb657610eb66115f4565b9050602002016020810190610ecb919061160a565b61ffff16905263ffffffff83166000908152602085905260408120908d8d85818110610ef957610ef96115f4565b6020908102929092013583525081810192909252604001600020825181559101516001918201805461ffff191661ffff90921691909117905501610dda565b5063ffffffff8116600081815260018401602052604090819020805467ffffffffffffffff19166001600160401b03881617905551744143434f554e545f4d41585f53454c4c5f53495a4560581b906000805160206116da83398151915290610a4a908e908e9061162e565b600080610fd260017f5387434b2d3be7a91940ea8e6fee24226ef10692fcf63e7e5c04ec47fd7f9d79611690565b92915050565b6001600160401b03811615806110035750610ff7426301dfe2006116a3565b816001600160401b0316115b1561102c57604051634275ae3b60e01b81526001600160401b03821660048201526024016105da565b50565b60008061103a611242565b600181015490915063ffffffff1660005b8781101561111e5760006040518060400160405280898985818110611072576110726115f4565b905060200201602081019061108791906116b6565b60ff1681526001600160401b03881660209182015263ffffffff8516600090815290869052604081209192508291908c8c868181106110c8576110c86115f4565b60209081029290920135835250818101929092526040016000208251815493909201516001600160401b03166101000268ffffffffffffffffff1990931660ff909216919091179190911790555060010161104b565b506040805160008152602081019182905263ffffffff83169175544f4b454e5f4d41585f4441494c595f54524144455360501b916000805160206116da8339815191529161116c9190611577565b60405180910390a360018201805460009061118c9063ffffffff166115d1565b91906101000a81548163ffffffff021916908363ffffffff160217905550809250505095945050505050565b600080610fd260017fb55fad9ae18bf1512bc017f51e2b8984d659cd3a8848cbaa71ef7c0999db6bd0611690565b600080610fd260017f57f022a955ea4a82d6829b2369e82ccc92e1e803cd0f0f5669038f7b6e994fc6611690565b600080610fd260017f1162e821763e1a90b75e60ad1e076d131a2344e0b7a0b39fe6e1691100701615611690565b600080610fd260017f5f3e73a83d0712e1b13444a98d0279e8921ea9760d8491b3bab0cf95044a4a4f611690565b80356001600160a01b038116811461128757600080fd5b919050565b60008083601f84011261129e57600080fd5b5081356001600160401b038111156112b557600080fd5b6020830191508360208260051b85010111156112d057600080fd5b9250929050565b80356001600160401b038116811461128757600080fd5b60008060008060008060008060a0898b03121561130a57600080fd5b61131389611270565b975060208901356001600160401b038082111561132f57600080fd5b61133b8c838d0161128c565b909950975060408b013591508082111561135457600080fd5b6113608c838d0161128c565b909750955060608b013591508082111561137957600080fd5b506113868b828c0161128c565b9094509250611399905060808a016112d7565b90509295985092959890939650565b60008060008060008060008060008060c08b8d0312156113c757600080fd5b6113d08b611270565b995060208b01356001600160401b03808211156113ec57600080fd5b6113f88e838f0161128c565b909b50995060408d013591508082111561141157600080fd5b61141d8e838f0161128c565b909950975060608d013591508082111561143657600080fd5b6114428e838f0161128c565b909750955060808d013591508082111561145b57600080fd5b506114688d828e0161128c565b909450925061147b905060a08c016112d7565b90509295989b9194979a5092959850565b6000806000606084860312156114a157600080fd5b6114aa84611270565b95602085013595506040909401359392505050565b600080600080600080608087890312156114d857600080fd5b6114e187611270565b955060208701356001600160401b03808211156114fd57600080fd5b6115098a838b0161128c565b9097509550604089013591508082111561152257600080fd5b5061152f89828a0161128c565b90945092506115429050606088016112d7565b90509295509295509295565b60006020828403121561156057600080fd5b8151801515811461157057600080fd5b9392505050565b6020808252825182820181905260009190848201906040850190845b818110156115af57835183529284019291840191600101611593565b50909695505050505050565b634e487b7160e01b600052601160045260246000fd5b600063ffffffff8083168181036115ea576115ea6115bb565b6001019392505050565b634e487b7160e01b600052603260045260246000fd5b60006020828403121561161c57600080fd5b813561ffff8116811461157057600080fd5b6020808252810182905260006001600160fb1b0383111561164e57600080fd5b8260051b80856040850137919091016040019392505050565b60006020828403121561167957600080fd5b81356001600160c01b038116811461157057600080fd5b81810381811115610fd257610fd26115bb565b80820180821115610fd257610fd26115bb565b6000602082840312156116c857600080fd5b813560ff8116811461157057600080fdfec8c31d1b3fae743175dd37c3ed86aca4d193c9fcd5732cc172fbd4e9bc170e8aa264697066735822122009a08859fa3dea1f4d6bebc91f99d7d92f631fe689819004251866a1521628b864736f6c63430008180033","linkReferences":{}},"methodIdentifiers":{"addAccountMaxBuySize(address,bytes32[],uint256[],uint16[],uint64)":"2f96d4d4","addAccountMaxSellSize(address,bytes32[],uint192[],uint16[],uint64)":"6dec9064","addAccountMinMaxTokenBalance(address,bytes32[],uint256[],uint256[],uint16[],uint64)":"402c73b0","addAdminMinTokenBalance(address,uint256,uint256)":"abe04422","addTokenMaxDailyTrades(address,bytes32[],uint8[],uint64)":"d3f35808"},"id":245}