{"abi":[{"type":"function","name":"checkAccountMaxBuySize","inputs":[{"name":"ruleId","type":"uint32","internalType":"uint32"},{"name":"boughtInPeriod","type":"uint256","internalType":"uint256"},{"name":"amount","type":"uint256","internalType":"uint256"},{"name":"toTags","type":"bytes32[]","internalType":"bytes32[]"},{"name":"lastUpdateTime","type":"uint64","internalType":"uint64"}],"outputs":[{"name":"","type":"uint256","internalType":"uint256"}],"stateMutability":"view"},{"type":"function","name":"checkAccountMaxSellSize","inputs":[{"name":"ruleId","type":"uint32","internalType":"uint32"},{"name":"salesInPeriod","type":"uint256","internalType":"uint256"},{"name":"amount","type":"uint256","internalType":"uint256"},{"name":"fromTags","type":"bytes32[]","internalType":"bytes32[]"},{"name":"lastUpdateTime","type":"uint64","internalType":"uint64"}],"outputs":[{"name":"","type":"uint256","internalType":"uint256"}],"stateMutability":"view"},{"type":"function","name":"checkAccountMaxTokenBalance","inputs":[{"name":"balanceTo","type":"uint256","internalType":"uint256"},{"name":"toTags","type":"bytes32[]","internalType":"bytes32[]"},{"name":"amount","type":"uint256","internalType":"uint256"},{"name":"ruleId","type":"uint32","internalType":"uint32"}],"outputs":[],"stateMutability":"view"},{"type":"function","name":"checkAccountMinMaxTokenBalance","inputs":[{"name":"ruleId","type":"uint32","internalType":"uint32"},{"name":"balanceFrom","type":"uint256","internalType":"uint256"},{"name":"balanceTo","type":"uint256","internalType":"uint256"},{"name":"amount","type":"uint256","internalType":"uint256"},{"name":"toTags","type":"bytes32[]","internalType":"bytes32[]"},{"name":"fromTags","type":"bytes32[]","internalType":"bytes32[]"}],"outputs":[],"stateMutability":"view"},{"type":"function","name":"checkAccountMinMaxTokenBalanceAMM","inputs":[{"name":"ruleIdToken0","type":"uint32","internalType":"uint32"},{"name":"ruleIdToken1","type":"uint32","internalType":"uint32"},{"name":"tokenBalance0","type":"uint256","internalType":"uint256"},{"name":"tokenBalance1","type":"uint256","internalType":"uint256"},{"name":"amountIn","type":"uint256","internalType":"uint256"},{"name":"amountOut","type":"uint256","internalType":"uint256"},{"name":"fromTags","type":"bytes32[]","internalType":"bytes32[]"}],"outputs":[],"stateMutability":"view"},{"type":"function","name":"checkAccountMinTokenBalance","inputs":[{"name":"balanceFrom","type":"uint256","internalType":"uint256"},{"name":"fromTags","type":"bytes32[]","internalType":"bytes32[]"},{"name":"amount","type":"uint256","internalType":"uint256"},{"name":"ruleId","type":"uint32","internalType":"uint32"}],"outputs":[],"stateMutability":"view"},{"type":"function","name":"checkAdminMinTokenBalance","inputs":[{"name":"ruleId","type":"uint32","internalType":"uint32"},{"name":"currentBalance","type":"uint256","internalType":"uint256"},{"name":"amount","type":"uint256","internalType":"uint256"}],"outputs":[],"stateMutability":"view"},{"type":"function","name":"getAccountMaxBuySize","inputs":[{"name":"_index","type":"uint32","internalType":"uint32"},{"name":"_accountType","type":"bytes32","internalType":"bytes32"}],"outputs":[{"name":"","type":"tuple","internalType":"struct ITaggedRules.AccountMaxBuySize","components":[{"name":"maxSize","type":"uint256","internalType":"uint256"},{"name":"period","type":"uint16","internalType":"uint16"}]}],"stateMutability":"view"},{"type":"function","name":"getAccountMaxBuySizeStart","inputs":[{"name":"_index","type":"uint32","internalType":"uint32"}],"outputs":[{"name":"startTime","type":"uint64","internalType":"uint64"}],"stateMutability":"view"},{"type":"function","name":"getAccountMaxSellSize","inputs":[{"name":"_index","type":"uint32","internalType":"uint32"},{"name":"_accountType","type":"bytes32","internalType":"bytes32"}],"outputs":[{"name":"","type":"tuple","internalType":"struct ITaggedRules.AccountMaxSellSize","components":[{"name":"maxSize","type":"uint256","internalType":"uint256"},{"name":"period","type":"uint16","internalType":"uint16"}]}],"stateMutability":"view"},{"type":"function","name":"getAccountMaxSellSizeStartByIndex","inputs":[{"name":"_index","type":"uint32","internalType":"uint32"}],"outputs":[{"name":"startTime","type":"uint64","internalType":"uint64"}],"stateMutability":"view"},{"type":"function","name":"getAccountMinMaxTokenBalance","inputs":[{"name":"_index","type":"uint32","internalType":"uint32"},{"name":"_accountType","type":"bytes32","internalType":"bytes32"}],"outputs":[{"name":"","type":"tuple","internalType":"struct ITaggedRules.AccountMinMaxTokenBalance","components":[{"name":"min","type":"uint256","internalType":"uint256"},{"name":"max","type":"uint256","internalType":"uint256"},{"name":"period","type":"uint16","internalType":"uint16"}]}],"stateMutability":"view"},{"type":"function","name":"getAccountMinMaxTokenBalanceStart","inputs":[{"name":"_index","type":"uint32","internalType":"uint32"}],"outputs":[{"name":"startTime","type":"uint64","internalType":"uint64"}],"stateMutability":"view"},{"type":"function","name":"getAdminMinTokenBalance","inputs":[{"name":"_index","type":"uint32","internalType":"uint32"}],"outputs":[{"name":"","type":"tuple","internalType":"struct ITaggedRules.AdminMinTokenBalance","components":[{"name":"amount","type":"uint256","internalType":"uint256"},{"name":"endTime","type":"uint256","internalType":"uint256"}]}],"stateMutability":"view"},{"type":"function","name":"getTotalAccountMaxBuySize","inputs":[],"outputs":[{"name":"","type":"uint32","internalType":"uint32"}],"stateMutability":"view"},{"type":"function","name":"getTotalAccountMaxSellSize","inputs":[],"outputs":[{"name":"","type":"uint32","internalType":"uint32"}],"stateMutability":"view"},{"type":"function","name":"getTotalAccountMinMaxTokenBalances","inputs":[],"outputs":[{"name":"","type":"uint32","internalType":"uint32"}],"stateMutability":"view"},{"type":"function","name":"getTotalAdminMinTokenBalance","inputs":[],"outputs":[{"name":"","type":"uint32","internalType":"uint32"}],"stateMutability":"view"},{"type":"error","name":"CantMixPeriodicAndNonPeriodic","inputs":[]},{"type":"error","name":"IndexOutOfRange","inputs":[]},{"type":"error","name":"InputArraysMustHaveSameLength","inputs":[]},{"type":"error","name":"InputArraysSizesNotValid","inputs":[]},{"type":"error","name":"InvalidOracleType","inputs":[{"name":"_type","type":"uint8","internalType":"uint8"}]},{"type":"error","name":"InvalidRuleInput","inputs":[]},{"type":"error","name":"InvertedLimits","inputs":[]},{"type":"error","name":"MaxTagLimitReached","inputs":[]},{"type":"error","name":"MaxTagLimitReached","inputs":[]},{"type":"error","name":"NotEnoughBalance","inputs":[]},{"type":"error","name":"OverMaxBalance","inputs":[]},{"type":"error","name":"OverMaxSellSize","inputs":[]},{"type":"error","name":"RuleDoesNotExist","inputs":[]},{"type":"error","name":"RuleDoesNotExist","inputs":[]},{"type":"error","name":"TxnInFreezeWindow","inputs":[]},{"type":"error","name":"UnderMinBalance","inputs":[]},{"type":"error","name":"ValueOutOfRange","inputs":[{"name":"_value","type":"uint256","internalType":"uint256"}]},{"type":"error","name":"WrongArrayOrder","inputs":[]},{"type":"error","name":"ZeroValueNotPermited","inputs":[]}],"bytecode":{"object":"0x608060405234801561001057600080fd5b506111f1806100206000396000f3fe608060405234801561001057600080fd5b50600436106101165760003560e01c8063609b1132116100a2578063b413d3db11610071578063b413d3db14610266578063b6dbd9e11461029f578063b7e41706146102b2578063c1b17a6a146102ba578063cd26c4dd146102c257600080fd5b8063609b1132146101f157806362d1417c14610204578063820c5823146102325780639fc0a20f1461025357600080fd5b80632bb8adde116100e95780632bb8adde146101905780633ba7dfab14610198578063479aca1a146101ab5780634a870762146101cb5780635d74c45e146101de57600080fd5b80630640215f1461011b5780630ac8a7901461013d5780631ac24c5a146101525780631dad60201461017d575b600080fd5b6101236102d5565b60405163ffffffff90911681526020015b60405180910390f35b61015061014b366004610e4d565b6102f0565b005b610165610160366004610ead565b61046b565b6040516001600160401b039091168152602001610134565b61016561018b366004610ead565b6104ea565b610123610501565b6101506101a6366004610ec8565b61051c565b6101be6101b9366004610f57565b610534565b6040516101349190610f81565b6101506101d9366004610e4d565b610596565b6101506101ec366004610f9c565b610705565b6101656101ff366004610ead565b61076d565b610217610212366004610ead565b610784565b60408051825181526020928301519281019290925201610134565b610245610240366004610fcf565b610811565b604051908152602001610134565b61015061026136600461104c565b61094a565b610279610274366004610f57565b6109d6565b6040805182518152602080840151908201529181015161ffff1690820152606001610134565b6101be6102ad366004610f57565b610a9f565b610123610abd565b610123610ac8565b6102456102d0366004610fcf565b610ad3565b6000806102e0610bff565b6002015463ffffffff1692915050565b8315610465576102ff83610c2d565b600061030c8260006109d6565b51111561035557604080516001808252818301909252906020808301908036833701905050925060008360008151811061034857610348611108565b6020026020010181815250505b60006103608261046b565b905042816001600160401b0316116104635760005b84518110156104615760006103a38487848151811061039657610396611108565b60200260200101516109d6565b9050806040015161ffff1660001461042157826001600160401b0316816040015161ffff16610e106103d59190611134565b6103df904261114b565b101561041c578051158015906103fe575080516103fc868961114b565b105b1561041c5760405163a7fb7b4b60e01b815260040160405180910390fd5b610458565b80511580159061043a57508051610438868961114b565b105b1561045857604051631f11bcbb60e11b815260040160405180910390fd5b50600101610375565b505b505b50505050565b6000610488610478610abd565b63ffffffff8085169190610c5316565b6000610492610c83565b600281015490915063ffffffff908116908416106104c357604051631390f2a160e01b815260040160405180910390fd5b63ffffffff909216600090815260019092016020525060409020546001600160401b031690565b60006104f76104786102d5565b6000610492610bff565b60008061050c610cb1565b6001015463ffffffff1692915050565b610528858285896102f0565b61046184838589610596565b60408051808201909152600080825260208201526000610552610cdf565b63ffffffff85166000908152602091825260408082208683528352908190208151808301909252805482526001015461ffff16918101919091529150505b92915050565b61059f83610c2d565b60006105ac8260006109d6565b6020015111156105f85760408051600180825281830190925290602080830190803683370190505092506000836000815181106105eb576105eb611108565b6020026020010181815250505b60006106038261046b565b905042816001600160401b0316116104635760005b84518110156104615760006106398487848151811061039657610396611108565b9050806040015161ffff166000146106be57826001600160401b0316816040015161ffff16610e1061066b9190611134565b610675904261114b565b10156106b9576000816020015111801561069b57506020810151610699868961115e565b115b156106b95760405163a7fb7b4b60e01b815260040160405180910390fd5b6106fc565b600081602001511180156106de575060208101516106dc868961115e565b115b156106fc576040516307695a9160e21b815260040160405180910390fd5b50600101610618565b600061071084610784565b9050828211156107335760405163569d45cf60e11b815260040160405180910390fd5b80602001514210801561074f5750805161074d838561114b565b105b1561046557604051631f11bcbb60e11b815260040160405180910390fd5b600061077a610478610ac8565b6000610492610cdf565b60408051808201909152600080825260208201526107a3610478610501565b60006107ad610cb1565b600181015490915063ffffffff908116908416106107de57604051631390f2a160e01b815260040160405180910390fd5b63ffffffff9092166000908152602092835260409081902081518083019092528054825260010154928101929092525090565b600061081c83610c2d565b60006108278761076d565b9050600042826001600160401b03161161093f576000610848896000610534565b6020015161ffff16111561089857604080516001808252818301909252906020808301908036833701905050945060008560008151811061088b5761088b611108565b6020026020010181815250505b60005b855181101561093d5760006108c98a8884815181106108bc576108bc611108565b6020026020010151610534565b602081015190915061ffff16156109345760208101516108f8906001600160401b0386169061ffff1688610d0d565b1561090e57610907888a61115e565b9250610912565b8792505b80518311156109345760405163a7fb7b4b60e01b815260040160405180910390fd5b5060010161089b565b505b979650505050505050565b61098b868383808060200260200160405190810160405280939291908181526020018383602002808284376000920191909152508892508d91506102f09050565b6109cc858383808060200260200160405190810160405280939291908181526020018383602002808284376000920191909152508992508c91506105969050565b5050505050505050565b6109fe60405180606001604052806000815260200160008152602001600061ffff1681525090565b610a19610a09610abd565b63ffffffff8086169190610c5316565b6000610a23610c83565b600281015490915063ffffffff90811690851610610a5457604051631390f2a160e01b815260040160405180910390fd5b63ffffffff84166000908152602091825260408082208583528352908190208151606081018352815481526001820154938101939093526002015461ffff1690820152905092915050565b60408051808201909152600080825260208201526000610552610bff565b6000806102e0610c83565b6000806102e0610cdf565b6000610ade83610c2d565b6000610ae9876104ea565b9050600042826001600160401b03161161093f576000610b0a896000610a9f565b6020015161ffff161115610b5a576040805160018082528183019092529060208083019080368337019050509450600085600081518110610b4d57610b4d611108565b6020026020010181815250505b60005b855181101561093d576000610b8b8a888481518110610b7e57610b7e611108565b6020026020010151610a9f565b602081015190915061ffff1615610bf6576020810151610bba906001600160401b0386169061ffff1688610d0d565b15610bd057610bc9888a61115e565b9250610bd4565b8792505b8051831115610bf65760405163246615dd60e21b815260040160405180910390fd5b50600101610b5d565b60008061059060017f1162e821763e1a90b75e60ad1e076d131a2344e0b7a0b39fe6e169110070161561114b565b8051600a1015610c50576040516351d7d97160e11b815260040160405180910390fd5b50565b8163ffffffff168163ffffffff1611610c7f576040516325ef9da360e11b815260040160405180910390fd5b5050565b60008061059060017f57f022a955ea4a82d6829b2369e82ccc92e1e803cd0f0f5669038f7b6e994fc661114b565b60008061059060017f5387434b2d3be7a91940ea8e6fee24226ef10692fcf63e7e5c04ec47fd7f9d7961114b565b60008061059060017fb55fad9ae18bf1512bc017f51e2b8984d659cd3a8848cbaa71ef7c0999db6bd061114b565b6000816001600160401b0316600003610d2857506000610d85565b6000610d3684610e10611171565b63ffffffff16610d4f6001600160401b0387164261114b565b610d599190611199565b610d63904261114b565b905080836001600160401b031610610d7f576001915050610d85565b60009150505b9392505050565b634e487b7160e01b600052604160045260246000fd5b600082601f830112610db357600080fd5b813560206001600160401b0380831115610dcf57610dcf610d8c565b8260051b604051601f19603f83011681018181108482111715610df457610df4610d8c565b6040529384526020818701810194908101925087851115610e1457600080fd5b6020870191505b8482101561093f57813583529183019190830190610e1b565b803563ffffffff81168114610e4857600080fd5b919050565b60008060008060808587031215610e6357600080fd5b8435935060208501356001600160401b03811115610e8057600080fd5b610e8c87828801610da2565b93505060408501359150610ea260608601610e34565b905092959194509250565b600060208284031215610ebf57600080fd5b610d8582610e34565b60008060008060008060c08789031215610ee157600080fd5b610eea87610e34565b955060208701359450604087013593506060870135925060808701356001600160401b0380821115610f1b57600080fd5b610f278a838b01610da2565b935060a0890135915080821115610f3d57600080fd5b50610f4a89828a01610da2565b9150509295509295509295565b60008060408385031215610f6a57600080fd5b610f7383610e34565b946020939093013593505050565b8151815260208083015161ffff169082015260408101610590565b600080600060608486031215610fb157600080fd5b610fba84610e34565b95602085013595506040909401359392505050565b600080600080600060a08688031215610fe757600080fd5b610ff086610e34565b9450602086013593506040860135925060608601356001600160401b038082111561101a57600080fd5b61102689838a01610da2565b935060808801359150808216821461103d57600080fd5b50809150509295509295909350565b60008060008060008060008060e0898b03121561106857600080fd5b61107189610e34565b975061107f60208a01610e34565b965060408901359550606089013594506080890135935060a0890135925060c08901356001600160401b03808211156110b757600080fd5b818b0191508b601f8301126110cb57600080fd5b8135818111156110da57600080fd5b8c60208260051b85010111156110ef57600080fd5b6020830194508093505050509295985092959890939650565b634e487b7160e01b600052603260045260246000fd5b634e487b7160e01b600052601160045260246000fd5b80820281158282048414176105905761059061111e565b818103818111156105905761059061111e565b808201808211156105905761059061111e565b63ffffffff8181168382160280821691908281146111915761119161111e565b505092915050565b6000826111b657634e487b7160e01b600052601260045260246000fd5b50069056fea2646970667358221220c339f9195d71037e6052e74c3580127c8a1b531501d99dd49d5670b9b5de7c8464736f6c63430008180033","linkReferences":{}},"methodIdentifiers":{"checkAccountMaxBuySize(uint32,uint256,uint256,bytes32[],uint64)":"820c5823","checkAccountMaxSellSize(uint32,uint256,uint256,bytes32[],uint64)":"cd26c4dd","checkAccountMaxTokenBalance(uint256,bytes32[],uint256,uint32)":"4a870762","checkAccountMinMaxTokenBalance(uint32,uint256,uint256,uint256,bytes32[],bytes32[])":"3ba7dfab","checkAccountMinMaxTokenBalanceAMM(uint32,uint32,uint256,uint256,uint256,uint256,bytes32[])":"9fc0a20f","checkAccountMinTokenBalance(uint256,bytes32[],uint256,uint32)":"0ac8a790","checkAdminMinTokenBalance(uint32,uint256,uint256)":"5d74c45e","getAccountMaxBuySize(uint32,bytes32)":"479aca1a","getAccountMaxBuySizeStart(uint32)":"609b1132","getAccountMaxSellSize(uint32,bytes32)":"b6dbd9e1","getAccountMaxSellSizeStartByIndex(uint32)":"1dad6020","getAccountMinMaxTokenBalance(uint32,bytes32)":"b413d3db","getAccountMinMaxTokenBalanceStart(uint32)":"1ac24c5a","getAdminMinTokenBalance(uint32)":"62d1417c","getTotalAccountMaxBuySize()":"c1b17a6a","getTotalAccountMaxSellSize()":"0640215f","getTotalAccountMinMaxTokenBalances()":"b7e41706","getTotalAdminMinTokenBalance()":"2bb8adde"},"id":232}