{"abi":[{"type":"function","name":"dummyTrade","inputs":[{"name":"tokenA","type":"address","internalType":"address"},{"name":"tokenB","type":"address","internalType":"address"},{"name":"amountIn","type":"uint256","internalType":"uint256"},{"name":"amountOut","type":"uint256","internalType":"uint256"},{"name":"isTokenAIn","type":"bool","internalType":"bool"}],"outputs":[],"stateMutability":"nonpayable"}],"bytecode":{"object":"0x608060405234801561001057600080fd5b5061030e806100206000396000f3fe608060405234801561001057600080fd5b506004361061002b5760003560e01c80630f2a876714610030575b600080fd5b61004361003e366004610259565b610045565b005b801561013a576040516323b872dd60e01b8152336004820152306024820152604481018490526001600160a01b038616906323b872dd906064016020604051808303816000875af115801561009e573d6000803e3d6000fd5b505050506040513d601f19601f820116820180604052508101906100c291906102b4565b5060405163a9059cbb60e01b8152336004820152602481018390526001600160a01b0385169063a9059cbb906044016020604051808303816000875af1158015610110573d6000803e3d6000fd5b505050506040513d601f19601f8201168201806040525081019061013491906102b4565b50610225565b6040516323b872dd60e01b8152336004820152306024820152604481018490526001600160a01b038516906323b872dd906064016020604051808303816000875af115801561018d573d6000803e3d6000fd5b505050506040513d601f19601f820116820180604052508101906101b191906102b4565b5060405163a9059cbb60e01b8152336004820152602481018390526001600160a01b0386169063a9059cbb906044016020604051808303816000875af11580156101ff573d6000803e3d6000fd5b505050506040513d601f19601f8201168201806040525081019061022391906102b4565b505b5050505050565b80356001600160a01b038116811461024357600080fd5b919050565b801515811461025657600080fd5b50565b600080600080600060a0868803121561027157600080fd5b61027a8661022c565b94506102886020870161022c565b9350604086013592506060860135915060808601356102a681610248565b809150509295509295909350565b6000602082840312156102c657600080fd5b81516102d181610248565b939250505056fea26469706673582212206a4371f0ca5d8c0430ebe43730a372945fe9a2da8f9abb82aab280fd7577530764736f6c63430008180033","linkReferences":{}},"methodIdentifiers":{"dummyTrade(address,address,uint256,uint256,bool)":"0f2a8767"},"id":267}