{"abi":[{"type":"function","name":"dummyTrade","inputs":[{"name":"erc20","type":"address","internalType":"address"},{"name":"erc721","type":"address","internalType":"address"},{"name":"erc20Amount","type":"uint256","internalType":"uint256"},{"name":"tokenId","type":"uint256","internalType":"uint256"},{"name":"isBuyingNFT","type":"bool","internalType":"bool"}],"outputs":[],"stateMutability":"nonpayable"},{"type":"function","name":"onERC721Received","inputs":[{"name":"_operator","type":"address","internalType":"address"},{"name":"_from","type":"address","internalType":"address"},{"name":"_tokenId","type":"uint256","internalType":"uint256"},{"name":"_data","type":"bytes","internalType":"bytes"}],"outputs":[{"name":"","type":"bytes4","internalType":"bytes4"}],"stateMutability":"pure"}],"bytecode":{"object":"0x608060405234801561001057600080fd5b506103d2806100206000396000f3fe608060405234801561001057600080fd5b50600436106100365760003560e01c80630f2a87671461003b578063150b7a0214610050575b600080fd5b61004e610049366004610282565b61008c565b005b61006f61005e3660046102dd565b630a85bd0160e11b95945050505050565b6040516001600160e01b0319909116815260200160405180910390f35b8015610175576040516323b872dd60e01b8152336004820152306024820152604481018490526001600160a01b038616906323b872dd906064016020604051808303816000875af11580156100e5573d6000803e3d6000fd5b505050506040513d601f19601f820116820180604052508101906101099190610378565b50604051632142170760e11b8152306004820152336024820152604481018390526001600160a01b038516906342842e0e90606401600060405180830381600087803b15801561015857600080fd5b505af115801561016c573d6000803e3d6000fd5b5050505061024e565b604051632142170760e11b8152336004820152306024820152604481018390526001600160a01b038516906342842e0e90606401600060405180830381600087803b1580156101c357600080fd5b505af11580156101d7573d6000803e3d6000fd5b505060405163a9059cbb60e01b8152336004820152602481018690526001600160a01b038816925063a9059cbb91506044016020604051808303816000875af1158015610228573d6000803e3d6000fd5b505050506040513d601f19601f8201168201806040525081019061024c9190610378565b505b5050505050565b80356001600160a01b038116811461026c57600080fd5b919050565b801515811461027f57600080fd5b50565b600080600080600060a0868803121561029a57600080fd5b6102a386610255565b94506102b160208701610255565b9350604086013592506060860135915060808601356102cf81610271565b809150509295509295909350565b6000806000806000608086880312156102f557600080fd5b6102fe86610255565b945061030c60208701610255565b935060408601359250606086013567ffffffffffffffff8082111561033057600080fd5b818801915088601f83011261034457600080fd5b81358181111561035357600080fd5b89602082850101111561036557600080fd5b9699959850939650602001949392505050565b60006020828403121561038a57600080fd5b815161039581610271565b939250505056fea2646970667358221220c8aa07e5a97debcb17776e774ad9f44d8add8beca551a55b70636a6d2810404264736f6c63430008180033","linkReferences":{}},"methodIdentifiers":{"dummyTrade(address,address,uint256,uint256,bool)":"0f2a8767","onERC721Received(address,address,uint256,bytes)":"150b7a02"},"id":267}