{"abi":[{"type":"constructor","inputs":[{"name":"_nameProto","type":"string","internalType":"string"},{"name":"_symbolProto","type":"string","internalType":"string"},{"name":"_appManagerAddress","type":"address","internalType":"address"},{"name":"_baseUri","type":"string","internalType":"string"}],"stateMutability":"nonpayable"},{"type":"function","name":"approve","inputs":[{"name":"to","type":"address","internalType":"address"},{"name":"tokenId","type":"uint256","internalType":"uint256"}],"outputs":[],"stateMutability":"nonpayable"},{"type":"function","name":"balanceOf","inputs":[{"name":"owner","type":"address","internalType":"address"}],"outputs":[{"name":"","type":"uint256","internalType":"uint256"}],"stateMutability":"view"},{"type":"function","name":"burn","inputs":[{"name":"tokenId","type":"uint256","internalType":"uint256"}],"outputs":[],"stateMutability":"nonpayable"},{"type":"function","name":"confirmAppManagerAddress","inputs":[],"outputs":[],"stateMutability":"nonpayable"},{"type":"function","name":"connectHandlerToToken","inputs":[{"name":"_handlerAddress","type":"address","internalType":"address"}],"outputs":[],"stateMutability":"nonpayable"},{"type":"function","name":"getAppManagerAddress","inputs":[],"outputs":[{"name":"","type":"address","internalType":"address"}],"stateMutability":"view"},{"type":"function","name":"getApproved","inputs":[{"name":"tokenId","type":"uint256","internalType":"uint256"}],"outputs":[{"name":"","type":"address","internalType":"address"}],"stateMutability":"view"},{"type":"function","name":"getHandlerAddress","inputs":[],"outputs":[{"name":"","type":"address","internalType":"address"}],"stateMutability":"view"},{"type":"function","name":"isApprovedForAll","inputs":[{"name":"owner","type":"address","internalType":"address"},{"name":"operator","type":"address","internalType":"address"}],"outputs":[{"name":"","type":"bool","internalType":"bool"}],"stateMutability":"view"},{"type":"function","name":"name","inputs":[],"outputs":[{"name":"","type":"string","internalType":"string"}],"stateMutability":"view"},{"type":"function","name":"owner","inputs":[],"outputs":[{"name":"","type":"address","internalType":"address"}],"stateMutability":"view"},{"type":"function","name":"ownerOf","inputs":[{"name":"tokenId","type":"uint256","internalType":"uint256"}],"outputs":[{"name":"","type":"address","internalType":"address"}],"stateMutability":"view"},{"type":"function","name":"proposeAppManagerAddress","inputs":[{"name":"_newAppManagerAddress","type":"address","internalType":"address"}],"outputs":[],"stateMutability":"nonpayable"},{"type":"function","name":"renounceOwnership","inputs":[],"outputs":[],"stateMutability":"nonpayable"},{"type":"function","name":"safeMint","inputs":[{"name":"to","type":"address","internalType":"address"}],"outputs":[],"stateMutability":"payable"},{"type":"function","name":"safeTransferFrom","inputs":[{"name":"from","type":"address","internalType":"address"},{"name":"to","type":"address","internalType":"address"},{"name":"tokenId","type":"uint256","internalType":"uint256"}],"outputs":[],"stateMutability":"nonpayable"},{"type":"function","name":"safeTransferFrom","inputs":[{"name":"from","type":"address","internalType":"address"},{"name":"to","type":"address","internalType":"address"},{"name":"tokenId","type":"uint256","internalType":"uint256"},{"name":"data","type":"bytes","internalType":"bytes"}],"outputs":[],"stateMutability":"nonpayable"},{"type":"function","name":"setApprovalForAll","inputs":[{"name":"operator","type":"address","internalType":"address"},{"name":"approved","type":"bool","internalType":"bool"}],"outputs":[],"stateMutability":"nonpayable"},{"type":"function","name":"supportsInterface","inputs":[{"name":"interfaceId","type":"bytes4","internalType":"bytes4"}],"outputs":[{"name":"","type":"bool","internalType":"bool"}],"stateMutability":"view"},{"type":"function","name":"symbol","inputs":[],"outputs":[{"name":"","type":"string","internalType":"string"}],"stateMutability":"view"},{"type":"function","name":"tokenByIndex","inputs":[{"name":"index","type":"uint256","internalType":"uint256"}],"outputs":[{"name":"","type":"uint256","internalType":"uint256"}],"stateMutability":"view"},{"type":"function","name":"tokenOfOwnerByIndex","inputs":[{"name":"owner","type":"address","internalType":"address"},{"name":"index","type":"uint256","internalType":"uint256"}],"outputs":[{"name":"","type":"uint256","internalType":"uint256"}],"stateMutability":"view"},{"type":"function","name":"tokenURI","inputs":[{"name":"tokenId","type":"uint256","internalType":"uint256"}],"outputs":[{"name":"","type":"string","internalType":"string"}],"stateMutability":"view"},{"type":"function","name":"totalSupply","inputs":[],"outputs":[{"name":"","type":"uint256","internalType":"uint256"}],"stateMutability":"view"},{"type":"function","name":"transferFrom","inputs":[{"name":"from","type":"address","internalType":"address"},{"name":"to","type":"address","internalType":"address"},{"name":"tokenId","type":"uint256","internalType":"uint256"}],"outputs":[],"stateMutability":"nonpayable"},{"type":"function","name":"transferOwnership","inputs":[{"name":"newOwner","type":"address","internalType":"address"}],"outputs":[],"stateMutability":"nonpayable"},{"type":"event","name":"AD1467_AppManagerAddressSet","inputs":[{"name":"_address","type":"address","indexed":true,"internalType":"address"}],"anonymous":false},{"type":"event","name":"AD1467_CollectionPrice","inputs":[{"name":"collection","type":"address","indexed":true,"internalType":"address"},{"name":"price","type":"uint256","indexed":true,"internalType":"uint256"}],"anonymous":false},{"type":"event","name":"AD1467_FeeType","inputs":[{"name":"tag","type":"bytes32","indexed":true,"internalType":"bytes32"},{"name":"add","type":"bool","indexed":true,"internalType":"bool"},{"name":"minBalance","type":"uint256","indexed":false,"internalType":"uint256"},{"name":"maxBalance","type":"uint256","indexed":false,"internalType":"uint256"},{"name":"feePercentage","type":"int256","indexed":false,"internalType":"int256"},{"name":"targetAccount","type":"address","indexed":false,"internalType":"address"}],"anonymous":false},{"type":"event","name":"AD1467_HandlerConnected","inputs":[{"name":"handlerAddress","type":"address","indexed":true,"internalType":"address"},{"name":"assetAddress","type":"address","indexed":true,"internalType":"address"}],"anonymous":false},{"type":"event","name":"AD1467_NewNFTDeployed","inputs":[{"name":"appManagerAddress","type":"address","indexed":true,"internalType":"address"}],"anonymous":false},{"type":"event","name":"AD1467_NewTokenDeployed","inputs":[{"name":"appManagerAddress","type":"address","indexed":true,"internalType":"address"}],"anonymous":false},{"type":"event","name":"AD1467_SingleTokenPrice","inputs":[{"name":"collection","type":"address","indexed":true,"internalType":"address"},{"name":"tokenID","type":"uint256","indexed":true,"internalType":"uint256"},{"name":"price","type":"uint256","indexed":true,"internalType":"uint256"}],"anonymous":false},{"type":"event","name":"AD1467_TokenPrice","inputs":[{"name":"token","type":"address","indexed":true,"internalType":"address"},{"name":"price","type":"uint256","indexed":true,"internalType":"uint256"}],"anonymous":false},{"type":"event","name":"Approval","inputs":[{"name":"owner","type":"address","indexed":true,"internalType":"address"},{"name":"approved","type":"address","indexed":true,"internalType":"address"},{"name":"tokenId","type":"uint256","indexed":true,"internalType":"uint256"}],"anonymous":false},{"type":"event","name":"ApprovalForAll","inputs":[{"name":"owner","type":"address","indexed":true,"internalType":"address"},{"name":"operator","type":"address","indexed":true,"internalType":"address"},{"name":"approved","type":"bool","indexed":false,"internalType":"bool"}],"anonymous":false},{"type":"event","name":"OwnershipTransferred","inputs":[{"name":"previousOwner","type":"address","indexed":true,"internalType":"address"},{"name":"newOwner","type":"address","indexed":true,"internalType":"address"}],"anonymous":false},{"type":"event","name":"Transfer","inputs":[{"name":"from","type":"address","indexed":true,"internalType":"address"},{"name":"to","type":"address","indexed":true,"internalType":"address"},{"name":"tokenId","type":"uint256","indexed":true,"internalType":"uint256"}],"anonymous":false},{"type":"error","name":"AppManagerNotConnected","inputs":[]},{"type":"error","name":"BelowMinAdminThreshold","inputs":[]},{"type":"error","name":"ConfirmerDoesNotMatchProposedAddress","inputs":[]},{"type":"error","name":"NoProposalHasBeenMade","inputs":[]},{"type":"error","name":"NotAppAdministrator","inputs":[]},{"type":"error","name":"NotAppAdministratorOrOwner","inputs":[]},{"type":"error","name":"NotRuleAdministrator","inputs":[]},{"type":"error","name":"NotSuperAdmin","inputs":[{"name":"","type":"address","internalType":"address"}]},{"type":"error","name":"ZeroAddress","inputs":[]}],"bytecode":{"object":"0x60806040523480156200001157600080fd5b506040516200255338038062002553833981016040819052620000349162000213565b8383600062000044838262000357565b50600162000053828262000357565b505050620000706200006a620000f560201b60201c565b620000f9565b6001600160a01b038216620000985760405163d92e233d60e01b815260040160405180910390fd5b600880546001600160a01b0384166001600160a01b0319918216811790925560098054909116821790556040517f190d181faa359c0408a05fed34ab1914753b07b5c54422b772d67a30206408ce90600090a25050505062000423565b3390565b600680546001600160a01b038381166001600160a01b0319831681179093556040519116919082907f8be0079c531659141344cd1fd0a4f28419497f9722a3daafe3b4186f6b6457e090600090a35050565b634e487b7160e01b600052604160045260246000fd5b600082601f8301126200017357600080fd5b81516001600160401b03808211156200019057620001906200014b565b604051601f8301601f19908116603f01168101908282118183101715620001bb57620001bb6200014b565b8160405283815260209250866020858801011115620001d957600080fd5b600091505b83821015620001fd5785820183015181830184015290820190620001de565b6000602085830101528094505050505092915050565b600080600080608085870312156200022a57600080fd5b84516001600160401b03808211156200024257600080fd5b620002508883890162000161565b955060208701519150808211156200026757600080fd5b620002758883890162000161565b604088015190955091506001600160a01b03821682146200029557600080fd5b606087015191935080821115620002ab57600080fd5b50620002ba8782880162000161565b91505092959194509250565b600181811c90821680620002db57607f821691505b602082108103620002fc57634e487b7160e01b600052602260045260246000fd5b50919050565b601f82111562000352576000816000526020600020601f850160051c810160208610156200032d5750805b601f850160051c820191505b818110156200034e5782815560010162000339565b5050505b505050565b81516001600160401b038111156200037357620003736200014b565b6200038b81620003848454620002c6565b8462000302565b602080601f831160018114620003c35760008415620003aa5750858301515b600019600386901b1c1916600185901b1785556200034e565b600085815260208120601f198616915b82811015620003f457888601518255948401946001909101908401620003d3565b5085821015620004135787850151600019600388901b60f8161c191681555b5050505050600190811b01905550565b61212080620004336000396000f3fe6080604052600436106101815760003560e01c80636352211e116100d157806395d89b411161008a578063c87b56dd11610064578063c87b56dd1461044d578063cdccb27a1461046d578063e985e9c514610482578063f2fde38b146104cb57600080fd5b806395d89b41146103f8578063a22cb4651461040d578063b88d4fde1461042d57600080fd5b80636352211e146103475780636f9c83b81461036757806370a0823114610385578063715018a6146103a557806371af85e0146103ba5780638da5cb5b146103da57600080fd5b806323b872dd1161013e57806342842e0e1161011857806342842e0e146102c957806342966c68146102e95780634c330077146103095780634f6ccce71461032757600080fd5b806323b872dd146102765780632f745c591461029657806340d097c3146102b657600080fd5b806301ffc9a71461018657806306fdde03146101bb578063081812fc146101dd578063095ea7b31461021557806311280cb51461023757806318160ddd14610257575b600080fd5b34801561019257600080fd5b506101a66101a1366004611c39565b6104eb565b60405190151581526020015b60405180910390f35b3480156101c757600080fd5b506101d061050b565b6040516101b29190611ca6565b3480156101e957600080fd5b506101fd6101f8366004611cb9565b61059d565b6040516001600160a01b0390911681526020016101b2565b34801561022157600080fd5b50610235610230366004611cee565b6105c4565b005b34801561024357600080fd5b50610235610252366004611d18565b6106de565b34801561026357600080fd5b50600c545b6040519081526020016101b2565b34801561028257600080fd5b50610235610291366004611d33565b6107e9565b3480156102a257600080fd5b506102686102b1366004611cee565b61081b565b6102356102c4366004611d18565b6108b1565b3480156102d557600080fd5b506102356102e4366004611d33565b6108eb565b3480156102f557600080fd5b50610235610304366004611cb9565b610906565b34801561031557600080fd5b506008546001600160a01b03166101fd565b34801561033357600080fd5b50610268610342366004611cb9565b610937565b34801561035357600080fd5b506101fd610362366004611cb9565b6109ca565b34801561037357600080fd5b50600f546001600160a01b03166101fd565b34801561039157600080fd5b506102686103a0366004611d18565b610a2a565b3480156103b157600080fd5b50610235610ab0565b3480156103c657600080fd5b506102356103d5366004611d18565b610ac4565b3480156103e657600080fd5b506006546001600160a01b03166101fd565b34801561040457600080fd5b506101d0610bfa565b34801561041957600080fd5b50610235610428366004611d7d565b610c09565b34801561043957600080fd5b50610235610448366004611dca565b610c18565b34801561045957600080fd5b506101d0610468366004611cb9565b610c50565b34801561047957600080fd5b50610235610cc4565b34801561048e57600080fd5b506101a661049d366004611ea6565b6001600160a01b03918216600090815260056020908152604080832093909416825291909152205460ff1690565b3480156104d757600080fd5b506102356104e6366004611d18565b610d4c565b60006104f682610dc2565b80610505575061050582610dc2565b92915050565b60606000805461051a90611ed9565b80601f016020809104026020016040519081016040528092919081815260200182805461054690611ed9565b80156105935780601f1061056857610100808354040283529160200191610593565b820191906000526020600020905b81548152906001019060200180831161057657829003601f168201915b5050505050905090565b60006105a882610de7565b506000908152600460205260409020546001600160a01b031690565b60006105cf826109ca565b9050806001600160a01b0316836001600160a01b0316036106415760405162461bcd60e51b815260206004820152602160248201527f4552433732313a20617070726f76616c20746f2063757272656e74206f776e656044820152603960f91b60648201526084015b60405180910390fd5b336001600160a01b038216148061065d575061065d813361049d565b6106cf5760405162461bcd60e51b815260206004820152603d60248201527f4552433732313a20617070726f76652063616c6c6572206973206e6f7420746f60448201527f6b656e206f776e6572206f7220617070726f76656420666f7220616c6c0000006064820152608401610638565b6106d98383610e46565b505050565b6008546001600160a01b031680610708576040516371724ffd60e01b815260040160405180910390fd5b806001600160a01b03811663c3c2ebbb336040516001600160e01b031960e084901b1681526001600160a01b039091166004820152602401602060405180830381865afa15801561075d573d6000803e3d6000fd5b505050506040513d601f19601f820116820180604052508101906107819190611f13565b61079e5760405163ba80c9e560e01b815260040160405180910390fd5b6001600160a01b0383166107c55760405163d92e233d60e01b815260040160405180910390fd5b5050600780546001600160a01b0319166001600160a01b0392909216919091179055565b6107f4335b82610eb4565b6108105760405162461bcd60e51b815260040161063890611f30565b6106d9838383610f33565b600061082683610a2a565b82106108885760405162461bcd60e51b815260206004820152602b60248201527f455243373231456e756d657261626c653a206f776e657220696e646578206f7560448201526a74206f6620626f756e647360a81b6064820152608401610638565b506001600160a01b03919091166000908152600a60209081526040808320938352929052205490565b6008546001600160a01b03166108c6816110a4565b60006108d1600e5490565b90506108e1600e80546001019055565b6106d9838261117a565b6106d983838360405180602001604052806000815250610c18565b61090f336107ee565b61092b5760405162461bcd60e51b815260040161063890611f30565b61093481611194565b50565b6000610942600c5490565b82106109a55760405162461bcd60e51b815260206004820152602c60248201527f455243373231456e756d657261626c653a20676c6f62616c20696e646578206f60448201526b7574206f6620626f756e647360a01b6064820152608401610638565b600c82815481106109b8576109b8611f7d565b90600052602060002001549050919050565b6000818152600260205260408120546001600160a01b0316806105055760405162461bcd60e51b8152602060048201526018602482015277115490cdcc8c4e881a5b9d985b1a59081d1bdad95b88125160421b6044820152606401610638565b60006001600160a01b038216610a945760405162461bcd60e51b815260206004820152602960248201527f4552433732313a2061646472657373207a65726f206973206e6f7420612076616044820152683634b21037bbb732b960b91b6064820152608401610638565b506001600160a01b031660009081526003602052604090205490565b610ab8611237565b610ac26000611291565b565b6008546001600160a01b031680610aee576040516371724ffd60e01b815260040160405180910390fd5b806001600160a01b03811663c3c2ebbb336040516001600160e01b031960e084901b1681526001600160a01b039091166004820152602401602060405180830381865afa158015610b43573d6000803e3d6000fd5b505050506040513d601f19601f82011682018060405250810190610b679190611f13565b610b845760405163ba80c9e560e01b815260040160405180910390fd5b6001600160a01b038316610bab5760405163d92e233d60e01b815260040160405180910390fd5b600f80546001600160a01b0319166001600160a01b0385169081179091556040513091907f9a2cdaf1a28a88ccd359d6abc6a27d4856d16459aafb0aae34c1296bab5b63fb90600090a3505050565b60606001805461051a90611ed9565b610c143383836112e3565b5050565b610c223383610eb4565b610c3e5760405162461bcd60e51b815260040161063890611f30565b610c4a848484846113b1565b50505050565b6060610c5b82610de7565b6000610c7260408051602081019091526000815290565b90506000815111610c925760405180602001604052806000815250610cbd565b80610c9c846113e4565b604051602001610cad929190611f93565b6040516020818303038152906040525b9392505050565b6007546001600160a01b0316610ced5760405163821e0eeb60e01b815260040160405180910390fd5b6007546001600160a01b03163314610d1857604051634128496760e01b815260040160405180910390fd5b60078054600880546001600160a01b0383166001600160a01b03199182168117909255600980548216909217909155169055565b610d54611237565b6001600160a01b038116610db95760405162461bcd60e51b815260206004820152602660248201527f4f776e61626c653a206e6577206f776e657220697320746865207a65726f206160448201526564647265737360d01b6064820152608401610638565b61093481611291565b60006001600160e01b0319821663780e9d6360e01b1480610505575061050582611477565b6000818152600260205260409020546001600160a01b03166109345760405162461bcd60e51b8152602060048201526018602482015277115490cdcc8c4e881a5b9d985b1a59081d1bdad95b88125160421b6044820152606401610638565b600081815260046020526040902080546001600160a01b0319166001600160a01b0384169081179091558190610e7b826109ca565b6001600160a01b03167f8c5be1e5ebec7d5bd14f71427d1e84f3dd0314c0f7b2291e5b200ac8c7c3b92560405160405180910390a45050565b600080610ec0836109ca565b9050806001600160a01b0316846001600160a01b03161480610f0757506001600160a01b0380821660009081526005602090815260408083209388168352929052205460ff165b80610f2b5750836001600160a01b0316610f208461059d565b6001600160a01b0316145b949350505050565b826001600160a01b0316610f46826109ca565b6001600160a01b031614610f6c5760405162461bcd60e51b815260040161063890611fc2565b6001600160a01b038216610fce5760405162461bcd60e51b8152602060048201526024808201527f4552433732313a207472616e7366657220746f20746865207a65726f206164646044820152637265737360e01b6064820152608401610638565b610fdb83838360016114c7565b826001600160a01b0316610fee826109ca565b6001600160a01b0316146110145760405162461bcd60e51b815260040161063890611fc2565b600081815260046020908152604080832080546001600160a01b03199081169091556001600160a01b0387811680865260038552838620805460001901905590871680865283862080546001019055868652600290945282852080549092168417909155905184937fddf252ad1be2c89b69c2b068fc378daa952ba7f163c4a11628f55a4df523b3ef91a4505050565b6001600160a01b0381166110cb576040516371724ffd60e01b815260040160405180910390fd5b806001600160a01b03811663c3c2ebbb336040516001600160e01b031960e084901b1681526001600160a01b039091166004820152602401602060405180830381865afa158015611120573d6000803e3d6000fd5b505050506040513d601f19601f820116820180604052508101906111449190611f13565b15801561115c57506006546001600160a01b03163314155b15610c145760405163054f3a3160e31b815260040160405180910390fd5b610c148282604051806020016040528060008152506115ba565b600061119f826109ca565b90506111af8160008460016114c7565b6111b8826109ca565b600083815260046020908152604080832080546001600160a01b03199081169091556001600160a01b0385168085526003845282852080546000190190558785526002909352818420805490911690555192935084927fddf252ad1be2c89b69c2b068fc378daa952ba7f163c4a11628f55a4df523b3ef908390a45050565b6006546001600160a01b03163314610ac25760405162461bcd60e51b815260206004820181905260248201527f4f776e61626c653a2063616c6c6572206973206e6f7420746865206f776e65726044820152606401610638565b600680546001600160a01b038381166001600160a01b0319831681179093556040519116919082907f8be0079c531659141344cd1fd0a4f28419497f9722a3daafe3b4186f6b6457e090600090a35050565b816001600160a01b0316836001600160a01b0316036113445760405162461bcd60e51b815260206004820152601960248201527f4552433732313a20617070726f766520746f2063616c6c6572000000000000006044820152606401610638565b6001600160a01b03838116600081815260056020908152604080832094871680845294825291829020805460ff191686151590811790915591519182527f17307eab39ab6107e8899845ad3d59bd9653f200f220920489ca2b5937696c31910160405180910390a3505050565b6113bc848484610f33565b6113c8848484846115ed565b610c4a5760405162461bcd60e51b815260040161063890612007565b606060006113f1836116ee565b600101905060008167ffffffffffffffff81111561141157611411611db4565b6040519080825280601f01601f19166020018201604052801561143b576020820181803683370190505b5090508181016020015b600019016f181899199a1a9b1b9c1cb0b131b232b360811b600a86061a8153600a850494508461144557509392505050565b60006001600160e01b031982166380ac58cd60e01b14806114a857506001600160e01b03198216635b5e139f60e01b145b8061050557506301ffc9a760e01b6001600160e01b0319831614610505565b600f546001600160a01b039081169063e802b523908616156114f1576114ec86610a2a565b6114f4565b60005b6001600160a01b038616156115115761150c86610a2a565b611514565b60005b8787336040516001600160e01b031960e088901b168152600481019590955260248501939093526001600160a01b0391821660448501528116606484015216608482015260a4810185905260c4016020604051808303816000875af1158015611581573d6000803e3d6000fd5b505050506040513d601f19601f820116820180604052508101906115a59190611f13565b6115ae57600080fd5b610c4a848484846117c6565b6115c483836118fa565b6115d160008484846115ed565b6106d95760405162461bcd60e51b815260040161063890612007565b60006001600160a01b0384163b156116e357604051630a85bd0160e11b81526001600160a01b0385169063150b7a0290611631903390899088908890600401612059565b6020604051808303816000875af192505050801561166c575060408051601f3d908101601f1916820190925261166991810190612096565b60015b6116c9573d80801561169a576040519150601f19603f3d011682016040523d82523d6000602084013e61169f565b606091505b5080516000036116c15760405162461bcd60e51b815260040161063890612007565b805181602001fd5b6001600160e01b031916630a85bd0160e11b149050610f2b565b506001949350505050565b60008072184f03e93ff9f4daa797ed6e38ed64bf6a1f0160401b831061172d5772184f03e93ff9f4daa797ed6e38ed64bf6a1f0160401b830492506040015b6d04ee2d6d415b85acef81000000008310611759576d04ee2d6d415b85acef8100000000830492506020015b662386f26fc10000831061177757662386f26fc10000830492506010015b6305f5e100831061178f576305f5e100830492506008015b61271083106117a357612710830492506004015b606483106117b5576064830492506002015b600a83106105055760010192915050565b60018111156118355760405162461bcd60e51b815260206004820152603560248201527f455243373231456e756d657261626c653a20636f6e7365637574697665207472604482015274185b9cd9995c9cc81b9bdd081cdd5c1c1bdc9d1959605a1b6064820152608401610638565b816001600160a01b0385166118915761188c81600c80546000838152600d60205260408120829055600182018355919091527fdf6966c971051c3d54ec59162606531493a51404a002842f56009d7e5cf4a8c70155565b6118b4565b836001600160a01b0316856001600160a01b0316146118b4576118b48582611a93565b6001600160a01b0384166118d0576118cb81611b30565b6118f3565b846001600160a01b0316846001600160a01b0316146118f3576118f38482611bdf565b5050505050565b6001600160a01b0382166119505760405162461bcd60e51b815260206004820181905260248201527f4552433732313a206d696e7420746f20746865207a65726f20616464726573736044820152606401610638565b6000818152600260205260409020546001600160a01b0316156119b55760405162461bcd60e51b815260206004820152601c60248201527f4552433732313a20746f6b656e20616c7265616479206d696e746564000000006044820152606401610638565b6119c36000838360016114c7565b6000818152600260205260409020546001600160a01b031615611a285760405162461bcd60e51b815260206004820152601c60248201527f4552433732313a20746f6b656e20616c7265616479206d696e746564000000006044820152606401610638565b6001600160a01b038216600081815260036020908152604080832080546001019055848352600290915280822080546001600160a01b0319168417905551839291907fddf252ad1be2c89b69c2b068fc378daa952ba7f163c4a11628f55a4df523b3ef908290a45050565b60006001611aa084610a2a565b611aaa91906120b3565b6000838152600b6020526040902054909150808214611afd576001600160a01b0384166000908152600a602090815260408083208584528252808320548484528184208190558352600b90915290208190555b506000918252600b602090815260408084208490556001600160a01b039094168352600a81528383209183525290812055565b600c54600090611b42906001906120b3565b6000838152600d6020526040812054600c8054939450909284908110611b6a57611b6a611f7d565b9060005260206000200154905080600c8381548110611b8b57611b8b611f7d565b6000918252602080832090910192909255828152600d9091526040808220849055858252812055600c805480611bc357611bc36120d4565b6001900381819060005260206000200160009055905550505050565b6000611bea83610a2a565b6001600160a01b039093166000908152600a602090815260408083208684528252808320859055938252600b9052919091209190915550565b6001600160e01b03198116811461093457600080fd5b600060208284031215611c4b57600080fd5b8135610cbd81611c23565b60005b83811015611c71578181015183820152602001611c59565b50506000910152565b60008151808452611c92816020860160208601611c56565b601f01601f19169290920160200192915050565b602081526000610cbd6020830184611c7a565b600060208284031215611ccb57600080fd5b5035919050565b80356001600160a01b0381168114611ce957600080fd5b919050565b60008060408385031215611d0157600080fd5b611d0a83611cd2565b946020939093013593505050565b600060208284031215611d2a57600080fd5b610cbd82611cd2565b600080600060608486031215611d4857600080fd5b611d5184611cd2565b9250611d5f60208501611cd2565b9150604084013590509250925092565b801515811461093457600080fd5b60008060408385031215611d9057600080fd5b611d9983611cd2565b91506020830135611da981611d6f565b809150509250929050565b634e487b7160e01b600052604160045260246000fd5b60008060008060808587031215611de057600080fd5b611de985611cd2565b9350611df760208601611cd2565b925060408501359150606085013567ffffffffffffffff80821115611e1b57600080fd5b818701915087601f830112611e2f57600080fd5b813581811115611e4157611e41611db4565b604051601f8201601f19908116603f01168101908382118183101715611e6957611e69611db4565b816040528281528a6020848701011115611e8257600080fd5b82602086016020830137600060208483010152809550505050505092959194509250565b60008060408385031215611eb957600080fd5b611ec283611cd2565b9150611ed060208401611cd2565b90509250929050565b600181811c90821680611eed57607f821691505b602082108103611f0d57634e487b7160e01b600052602260045260246000fd5b50919050565b600060208284031215611f2557600080fd5b8151610cbd81611d6f565b6020808252602d908201527f4552433732313a2063616c6c6572206973206e6f7420746f6b656e206f776e6560408201526c1c881bdc88185c1c1c9bdd9959609a1b606082015260800190565b634e487b7160e01b600052603260045260246000fd5b60008351611fa5818460208801611c56565b835190830190611fb9818360208801611c56565b01949350505050565b60208082526025908201527f4552433732313a207472616e736665722066726f6d20696e636f72726563742060408201526437bbb732b960d91b606082015260800190565b60208082526032908201527f4552433732313a207472616e7366657220746f206e6f6e20455243373231526560408201527131b2b4bb32b91034b6b83632b6b2b73a32b960711b606082015260800190565b6001600160a01b038581168252841660208201526040810183905260806060820181905260009061208c90830184611c7a565b9695505050505050565b6000602082840312156120a857600080fd5b8151610cbd81611c23565b8181038181111561050557634e487b7160e01b600052601160045260246000fd5b634e487b7160e01b600052603160045260246000fdfea2646970667358221220c5884b959d282e7d58adfbdd2d7cda82f11763e7369d585c667bc0acddbb886864736f6c63430008180033","linkReferences":{}},"methodIdentifiers":{"approve(address,uint256)":"095ea7b3","balanceOf(address)":"70a08231","burn(uint256)":"42966c68","confirmAppManagerAddress()":"cdccb27a","connectHandlerToToken(address)":"71af85e0","getAppManagerAddress()":"4c330077","getApproved(uint256)":"081812fc","getHandlerAddress()":"6f9c83b8","isApprovedForAll(address,address)":"e985e9c5","name()":"06fdde03","owner()":"8da5cb5b","ownerOf(uint256)":"6352211e","proposeAppManagerAddress(address)":"11280cb5","renounceOwnership()":"715018a6","safeMint(address)":"40d097c3","safeTransferFrom(address,address,uint256)":"42842e0e","safeTransferFrom(address,address,uint256,bytes)":"b88d4fde","setApprovalForAll(address,bool)":"a22cb465","supportsInterface(bytes4)":"01ffc9a7","symbol()":"95d89b41","tokenByIndex(uint256)":"4f6ccce7","tokenOfOwnerByIndex(address,uint256)":"2f745c59","tokenURI(uint256)":"c87b56dd","totalSupply()":"18160ddd","transferFrom(address,address,uint256)":"23b872dd","transferOwnership(address)":"f2fde38b"},"id":328}