{"abi":[{"type":"function","name":"checkAccountDenyForNoAccessLevel","inputs":[{"name":"_accessLevel","type":"uint8","internalType":"uint8"}],"outputs":[],"stateMutability":"pure"},{"type":"function","name":"checkAccountMaxValueByAccessLevel","inputs":[{"name":"_ruleId","type":"uint32","internalType":"uint32"},{"name":"_accessLevel","type":"uint8","internalType":"uint8"},{"name":"_balance","type":"uint128","internalType":"uint128"},{"name":"_amountToTransfer","type":"uint128","internalType":"uint128"}],"outputs":[],"stateMutability":"view"},{"type":"function","name":"checkAccountMaxValueOutByAccessLevel","inputs":[{"name":"_ruleId","type":"uint32","internalType":"uint32"},{"name":"_accessLevel","type":"uint8","internalType":"uint8"},{"name":"_usdWithdrawalTotal","type":"uint128","internalType":"uint128"},{"name":"_usdAmountTransferring","type":"uint128","internalType":"uint128"}],"outputs":[{"name":"","type":"uint128","internalType":"uint128"}],"stateMutability":"view"},{"type":"function","name":"getAccountMaxValueByAccessLevel","inputs":[{"name":"_index","type":"uint32","internalType":"uint32"},{"name":"_accessLevel","type":"uint8","internalType":"uint8"}],"outputs":[{"name":"","type":"uint48","internalType":"uint48"}],"stateMutability":"view"},{"type":"function","name":"getAccountMaxValueOutByAccessLevel","inputs":[{"name":"_index","type":"uint32","internalType":"uint32"},{"name":"_accessLevel","type":"uint8","internalType":"uint8"}],"outputs":[{"name":"","type":"uint48","internalType":"uint48"}],"stateMutability":"view"},{"type":"function","name":"getTotalAccountMaxValueByAccessLevel","inputs":[],"outputs":[{"name":"","type":"uint32","internalType":"uint32"}],"stateMutability":"view"},{"type":"function","name":"getTotalAccountMaxValueOutByAccessLevel","inputs":[],"outputs":[{"name":"","type":"uint32","internalType":"uint32"}],"stateMutability":"view"},{"type":"error","name":"AccessLevelIsNotValid","inputs":[{"name":"accessLevel","type":"uint8","internalType":"uint8"}]},{"type":"error","name":"CantMixPeriodicAndNonPeriodic","inputs":[]},{"type":"error","name":"IndexOutOfRange","inputs":[]},{"type":"error","name":"InputArraysMustHaveSameLength","inputs":[]},{"type":"error","name":"InputArraysSizesNotValid","inputs":[]},{"type":"error","name":"InvalidOracleType","inputs":[{"name":"_type","type":"uint8","internalType":"uint8"}]},{"type":"error","name":"InvalidRuleInput","inputs":[]},{"type":"error","name":"InvertedLimits","inputs":[]},{"type":"error","name":"NotAllowedForAccessLevel","inputs":[]},{"type":"error","name":"NotEnoughBalance","inputs":[]},{"type":"error","name":"OverMaxValueByAccessLevel","inputs":[]},{"type":"error","name":"OverMaxValueOutByAccessLevel","inputs":[]},{"type":"error","name":"RuleDoesNotExist","inputs":[]},{"type":"error","name":"ValueOutOfRange","inputs":[{"name":"_value","type":"uint256","internalType":"uint256"}]},{"type":"error","name":"WrongArrayOrder","inputs":[]},{"type":"error","name":"ZeroValueNotPermited","inputs":[]}],"bytecode":{"object":"0x608060405234801561001057600080fd5b506104b5806100206000396000f3fe608060405234801561001057600080fd5b506004361061007d5760003560e01c8063ac4db8071161005b578063ac4db807146100e3578063ad5dbad3146100eb578063bc8bace7146100fe578063f5c2ce591461012957600080fd5b80631713890a1461008257806332f0d3e3146100975780635a0e0ed4146100b9575b600080fd5b61009561009036600461036f565b61013c565b005b61009f61019d565b60405163ffffffff90911681526020015b60405180910390f35b6100cc6100c73660046103c3565b6101b8565b60405165ffffffffffff90911681526020016100b0565b61009f610226565b6100cc6100f93660046103c3565b610231565b61011161010c36600461036f565b61023c565b6040516001600160801b0390911681526020016100b0565b6100956101373660046103f6565b6102ab565b60006101488585610231565b905061016465ffffffffffff8216670de0b6b3a764000061042e565b61016e8484610445565b6001600160801b031611156101965760405163aee8b99360e01b815260040160405180910390fd5b5050505050565b6000806101a86102d2565b6001015463ffffffff1692915050565b6000806101c36102d2565b600181015490915063ffffffff908116908516106101f457604051631390f2a160e01b815260040160405180910390fd5b63ffffffff841660009081526020918252604080822060ff86168352909252205465ffffffffffff1690505b92915050565b6000806101a8610300565b6000806101c3610300565b60008061024986866101b8565b905061026565ffffffffffff8216670de0b6b3a764000061042e565b61026f8585610445565b6001600160801b03161115610297576040516308d857c560e41b815260040160405180910390fd5b6102a18385610445565b9695505050505050565b8060ff166000036102cf57604051633fac082d60e01b815260040160405180910390fd5b50565b60008061022060017fcd576fc088c5eb040f665f257428613253482a372b228b4e0451df92d88b2b2d61046c565b60008061022060017f4815e3fa667405e725c432fd6db2286588ecce84f997ea5bdb96e5e764a28d4861046c565b803563ffffffff8116811461034257600080fd5b919050565b803560ff8116811461034257600080fd5b80356001600160801b038116811461034257600080fd5b6000806000806080858703121561038557600080fd5b61038e8561032e565b935061039c60208601610347565b92506103aa60408601610358565b91506103b860608601610358565b905092959194509250565b600080604083850312156103d657600080fd5b6103df8361032e565b91506103ed60208401610347565b90509250929050565b60006020828403121561040857600080fd5b61041182610347565b9392505050565b634e487b7160e01b600052601160045260246000fd5b808202811582820484141761022057610220610418565b6001600160801b0381811683821601908082111561046557610465610418565b5092915050565b818103818111156102205761022061041856fea26469706673582212208ed994a74b409156363e5289dc50fc37d7156c0cc6b26e37df2f386e2b8d06e064736f6c63430008180033","linkReferences":{}},"methodIdentifiers":{"checkAccountDenyForNoAccessLevel(uint8)":"f5c2ce59","checkAccountMaxValueByAccessLevel(uint32,uint8,uint128,uint128)":"1713890a","checkAccountMaxValueOutByAccessLevel(uint32,uint8,uint128,uint128)":"bc8bace7","getAccountMaxValueByAccessLevel(uint32,uint8)":"ad5dbad3","getAccountMaxValueOutByAccessLevel(uint32,uint8)":"5a0e0ed4","getTotalAccountMaxValueByAccessLevel()":"ac4db807","getTotalAccountMaxValueOutByAccessLevel()":"32f0d3e3"},"id":228}