{"abi":[{"type":"constructor","inputs":[{"name":"_name","type":"string","internalType":"string"},{"name":"_symbol","type":"string","internalType":"string"},{"name":"_appManagerAddress","type":"address","internalType":"address"}],"stateMutability":"nonpayable"},{"type":"function","name":"allowance","inputs":[{"name":"owner","type":"address","internalType":"address"},{"name":"spender","type":"address","internalType":"address"}],"outputs":[{"name":"","type":"uint256","internalType":"uint256"}],"stateMutability":"view"},{"type":"function","name":"approve","inputs":[{"name":"spender","type":"address","internalType":"address"},{"name":"amount","type":"uint256","internalType":"uint256"}],"outputs":[{"name":"","type":"bool","internalType":"bool"}],"stateMutability":"nonpayable"},{"type":"function","name":"balanceOf","inputs":[{"name":"account","type":"address","internalType":"address"}],"outputs":[{"name":"","type":"uint256","internalType":"uint256"}],"stateMutability":"view"},{"type":"function","name":"burn","inputs":[{"name":"amount","type":"uint256","internalType":"uint256"}],"outputs":[],"stateMutability":"nonpayable"},{"type":"function","name":"burnFrom","inputs":[{"name":"account","type":"address","internalType":"address"},{"name":"amount","type":"uint256","internalType":"uint256"}],"outputs":[],"stateMutability":"nonpayable"},{"type":"function","name":"confirmAppManagerAddress","inputs":[],"outputs":[],"stateMutability":"nonpayable"},{"type":"function","name":"connectHandlerToToken","inputs":[{"name":"_handlerAddress","type":"address","internalType":"address"}],"outputs":[],"stateMutability":"nonpayable"},{"type":"function","name":"decimals","inputs":[],"outputs":[{"name":"","type":"uint8","internalType":"uint8"}],"stateMutability":"view"},{"type":"function","name":"decreaseAllowance","inputs":[{"name":"spender","type":"address","internalType":"address"},{"name":"subtractedValue","type":"uint256","internalType":"uint256"}],"outputs":[{"name":"","type":"bool","internalType":"bool"}],"stateMutability":"nonpayable"},{"type":"function","name":"flashFee","inputs":[{"name":"token","type":"address","internalType":"address"},{"name":"amount","type":"uint256","internalType":"uint256"}],"outputs":[{"name":"","type":"uint256","internalType":"uint256"}],"stateMutability":"view"},{"type":"function","name":"flashLoan","inputs":[{"name":"receiver","type":"address","internalType":"contract IERC3156FlashBorrower"},{"name":"token","type":"address","internalType":"address"},{"name":"amount","type":"uint256","internalType":"uint256"},{"name":"data","type":"bytes","internalType":"bytes"}],"outputs":[{"name":"","type":"bool","internalType":"bool"}],"stateMutability":"pure"},{"type":"function","name":"getAppManagerAddress","inputs":[],"outputs":[{"name":"","type":"address","internalType":"address"}],"stateMutability":"view"},{"type":"function","name":"getHandlerAddress","inputs":[],"outputs":[{"name":"","type":"address","internalType":"address"}],"stateMutability":"view"},{"type":"function","name":"increaseAllowance","inputs":[{"name":"spender","type":"address","internalType":"address"},{"name":"addedValue","type":"uint256","internalType":"uint256"}],"outputs":[{"name":"","type":"bool","internalType":"bool"}],"stateMutability":"nonpayable"},{"type":"function","name":"maxFlashLoan","inputs":[{"name":"token","type":"address","internalType":"address"}],"outputs":[{"name":"","type":"uint256","internalType":"uint256"}],"stateMutability":"view"},{"type":"function","name":"mint","inputs":[{"name":"to","type":"address","internalType":"address"},{"name":"amount","type":"uint256","internalType":"uint256"}],"outputs":[],"stateMutability":"nonpayable"},{"type":"function","name":"name","inputs":[],"outputs":[{"name":"","type":"string","internalType":"string"}],"stateMutability":"view"},{"type":"function","name":"pause","inputs":[],"outputs":[],"stateMutability":"nonpayable"},{"type":"function","name":"paused","inputs":[],"outputs":[{"name":"","type":"bool","internalType":"bool"}],"stateMutability":"view"},{"type":"function","name":"proposeAppManagerAddress","inputs":[{"name":"_newAppManagerAddress","type":"address","internalType":"address"}],"outputs":[],"stateMutability":"nonpayable"},{"type":"function","name":"supportsInterface","inputs":[{"name":"interfaceId","type":"bytes4","internalType":"bytes4"}],"outputs":[{"name":"","type":"bool","internalType":"bool"}],"stateMutability":"view"},{"type":"function","name":"symbol","inputs":[],"outputs":[{"name":"","type":"string","internalType":"string"}],"stateMutability":"view"},{"type":"function","name":"totalSupply","inputs":[],"outputs":[{"name":"","type":"uint256","internalType":"uint256"}],"stateMutability":"view"},{"type":"function","name":"transfer","inputs":[{"name":"to","type":"address","internalType":"address"},{"name":"amount","type":"uint256","internalType":"uint256"}],"outputs":[{"name":"","type":"bool","internalType":"bool"}],"stateMutability":"nonpayable"},{"type":"function","name":"transferFrom","inputs":[{"name":"from","type":"address","internalType":"address"},{"name":"to","type":"address","internalType":"address"},{"name":"amount","type":"uint256","internalType":"uint256"}],"outputs":[{"name":"","type":"bool","internalType":"bool"}],"stateMutability":"nonpayable"},{"type":"function","name":"unpause","inputs":[],"outputs":[],"stateMutability":"nonpayable"},{"type":"event","name":"AD1467_AppManagerAddressSet","inputs":[{"name":"_address","type":"address","indexed":true,"internalType":"address"}],"anonymous":false},{"type":"event","name":"AD1467_CollectionPrice","inputs":[{"name":"collection","type":"address","indexed":true,"internalType":"address"},{"name":"price","type":"uint256","indexed":true,"internalType":"uint256"}],"anonymous":false},{"type":"event","name":"AD1467_FeeType","inputs":[{"name":"tag","type":"bytes32","indexed":true,"internalType":"bytes32"},{"name":"add","type":"bool","indexed":true,"internalType":"bool"},{"name":"minBalance","type":"uint256","indexed":false,"internalType":"uint256"},{"name":"maxBalance","type":"uint256","indexed":false,"internalType":"uint256"},{"name":"feePercentage","type":"int256","indexed":false,"internalType":"int256"},{"name":"targetAccount","type":"address","indexed":false,"internalType":"address"}],"anonymous":false},{"type":"event","name":"AD1467_HandlerConnected","inputs":[{"name":"handlerAddress","type":"address","indexed":true,"internalType":"address"},{"name":"assetAddress","type":"address","indexed":true,"internalType":"address"}],"anonymous":false},{"type":"event","name":"AD1467_NewNFTDeployed","inputs":[{"name":"appManagerAddress","type":"address","indexed":true,"internalType":"address"}],"anonymous":false},{"type":"event","name":"AD1467_NewTokenDeployed","inputs":[{"name":"appManagerAddress","type":"address","indexed":true,"internalType":"address"}],"anonymous":false},{"type":"event","name":"AD1467_SingleTokenPrice","inputs":[{"name":"collection","type":"address","indexed":true,"internalType":"address"},{"name":"tokenID","type":"uint256","indexed":true,"internalType":"uint256"},{"name":"price","type":"uint256","indexed":true,"internalType":"uint256"}],"anonymous":false},{"type":"event","name":"AD1467_TokenPrice","inputs":[{"name":"token","type":"address","indexed":true,"internalType":"address"},{"name":"price","type":"uint256","indexed":true,"internalType":"uint256"}],"anonymous":false},{"type":"event","name":"Approval","inputs":[{"name":"owner","type":"address","indexed":true,"internalType":"address"},{"name":"spender","type":"address","indexed":true,"internalType":"address"},{"name":"value","type":"uint256","indexed":false,"internalType":"uint256"}],"anonymous":false},{"type":"event","name":"Paused","inputs":[{"name":"account","type":"address","indexed":false,"internalType":"address"}],"anonymous":false},{"type":"event","name":"Transfer","inputs":[{"name":"from","type":"address","indexed":true,"internalType":"address"},{"name":"to","type":"address","indexed":true,"internalType":"address"},{"name":"value","type":"uint256","indexed":false,"internalType":"uint256"}],"anonymous":false},{"type":"event","name":"Unpaused","inputs":[{"name":"account","type":"address","indexed":false,"internalType":"address"}],"anonymous":false},{"type":"error","name":"AppManagerNotConnected","inputs":[]},{"type":"error","name":"BelowMinAdminThreshold","inputs":[]},{"type":"error","name":"CallerNotAuthorizedToMint","inputs":[]},{"type":"error","name":"ConfirmerDoesNotMatchProposedAddress","inputs":[]},{"type":"error","name":"ExceedingMaxSupply","inputs":[]},{"type":"error","name":"NoProposalHasBeenMade","inputs":[]},{"type":"error","name":"NotAppAdministrator","inputs":[]},{"type":"error","name":"NotAppAdministratorOrOwner","inputs":[]},{"type":"error","name":"NotRuleAdministrator","inputs":[]},{"type":"error","name":"NotSuperAdmin","inputs":[{"name":"","type":"address","internalType":"address"}]},{"type":"error","name":"ZeroAddress","inputs":[]}],"bytecode":{"object":"0x60806040523480156200001157600080fd5b506040516200209f3803806200209f8339810160408190526200003491620001b1565b82826003620000448382620002cf565b506004620000538282620002cf565b50506005805460ff191690555060016008556001600160a01b0381166200008d5760405163d92e233d60e01b815260040160405180910390fd5b600680546001600160a01b0383166001600160a01b0319918216811790925560078054909116821790556040517f190d181faa359c0408a05fed34ab1914753b07b5c54422b772d67a30206408ce90600090a25050506200039b565b634e487b7160e01b600052604160045260246000fd5b600082601f8301126200011157600080fd5b81516001600160401b03808211156200012e576200012e620000e9565b604051601f8301601f19908116603f01168101908282118183101715620001595762000159620000e9565b81604052838152602092508660208588010111156200017757600080fd5b600091505b838210156200019b57858201830151818301840152908201906200017c565b6000602085830101528094505050505092915050565b600080600060608486031215620001c757600080fd5b83516001600160401b0380821115620001df57600080fd5b620001ed87838801620000ff565b945060208601519150808211156200020457600080fd5b506200021386828701620000ff565b604086015190935090506001600160a01b03811681146200023357600080fd5b809150509250925092565b600181811c908216806200025357607f821691505b6020821081036200027457634e487b7160e01b600052602260045260246000fd5b50919050565b601f821115620002ca576000816000526020600020601f850160051c81016020861015620002a55750805b601f850160051c820191505b81811015620002c657828155600101620002b1565b5050505b505050565b81516001600160401b03811115620002eb57620002eb620000e9565b6200030381620002fc84546200023e565b846200027a565b602080601f8311600181146200033b5760008415620003225750858301515b600019600386901b1c1916600185901b178555620002c6565b600085815260208120601f198616915b828110156200036c578886015182559484019460019091019084016200034b565b50858210156200038b5787850151600019600388901b60f8161c191681555b5050505050600190811b01905550565b611cf480620003ab6000396000f3fe608060405234801561001057600080fd5b506004361061018e5760003560e01c80635cffe9de116100de5780638456cb5911610097578063a9059cbb11610071578063a9059cbb14610346578063cdccb27a14610359578063d9d98ce414610361578063dd62ed3e1461037457600080fd5b80638456cb591461032357806395d89b411461032b578063a457c2d71461033357600080fd5b80635cffe9de1461029d578063613255ab146102b05780636f9c83b8146102c357806370a08231146102d457806371af85e0146102fd57806379cc67901461031057600080fd5b8063313ce5671161014b57806340c10f191161012557806340c10f191461024757806342966c681461025a5780634c3300771461026d5780635c975abb1461029257600080fd5b8063313ce5671461021d578063395093511461022c5780633f4ba83a1461023f57600080fd5b806301ffc9a71461019357806306fdde03146101bb578063095ea7b3146101d057806311280cb5146101e357806318160ddd146101f857806323b872dd1461020a575b600080fd5b6101a66101a136600461181f565b610387565b60405190151581526020015b60405180910390f35b6101c36103be565b6040516101b29190611849565b6101a66101de3660046118ad565b610450565b6101f66101f13660046118d9565b610468565b005b6002545b6040519081526020016101b2565b6101a66102183660046118f6565b610579565b604051601281526020016101b2565b6101a661023a3660046118ad565b610799565b6101f66107bb565b6101f66102553660046118ad565b610887565b6101f6610268366004611937565b6109d5565b6006546001600160a01b03165b6040516001600160a01b0390911681526020016101b2565b60055460ff166101a6565b6101a66102ab366004611950565b6109e2565b6101fc6102be3660046118d9565b610a3e565b6009546001600160a01b031661027a565b6101fc6102e23660046118d9565b6001600160a01b031660009081526020819052604090205490565b6101f661030b3660046118d9565b610a66565b6101f661031e3660046118ad565b610b9c565b6101f6610bb1565b6101c3610c79565b6101a66103413660046118ad565b610c88565b6101a66103543660046118ad565b610d0e565b6101f6610f3b565b6101fc61036f3660046118ad565b610fdb565b6101fc6103823660046119ef565b61103c565b60006001600160e01b031982166336372b0760e01b14806103b857506301ffc9a760e01b6001600160e01b03198316145b92915050565b6060600380546103cd90611a28565b80601f01602080910402602001604051908101604052809291908181526020018280546103f990611a28565b80156104465780601f1061041b57610100808354040283529160200191610446565b820191906000526020600020905b81548152906001019060200180831161042957829003601f168201915b5050505050905090565b60003361045e818585611067565b5060019392505050565b6006546001600160a01b031680610492576040516371724ffd60e01b815260040160405180910390fd5b806001600160a01b03811663c3c2ebbb336040516001600160e01b031960e084901b1681526001600160a01b039091166004820152602401602060405180830381865afa1580156104e7573d6000803e3d6000fd5b505050506040513d601f19601f8201168201806040525081019061050b9190611a62565b6105285760405163ba80c9e560e01b815260040160405180910390fd5b6001600160a01b03831661054f5760405163d92e233d60e01b815260040160405180910390fd5b5050600580546001600160a01b0390921661010002610100600160a81b0319909216919091179055565b600061058361118c565b3361058f8582856111e5565b600960009054906101000a90046001600160a01b03166001600160a01b031663e43504da6040518163ffffffff1660e01b8152600401602060405180830381865afa1580156105e2573d6000803e3d6000fd5b505050506040513d601f19601f820116820180604052508101906106069190611a62565b156107785760095460609081906000906001600160a01b031663d7f2400f89610644816001600160a01b031660009081526020819052604090205490565b6040516001600160e01b031960e085901b1681526001600160a01b0390921660048301526024820152604401600060405180830381865afa15801561068d573d6000803e3d6000fd5b505050506040513d6000823e601f3d908101601f191682016040526106b59190810190611b6e565b909350915060005b82518110156107675760008382815181106106da576106da611c33565b602002602001015160020b131561075f57600061271084838151811061070257610702611c33565b602002602001015162ffffff168961071a9190611c5f565b6107249190611c76565b9050801561075d576107508a86848151811061074257610742611c33565b60200260200101518361125f565b61075a8184611c98565b92505b505b6001016106bd565b506107728187611cab565b95505050505b61078385858561125f565b60019150506107926001600855565b9392505050565b60003361045e8185856107ac838361103c565b6107b69190611c98565b611067565b6006546001600160a01b0316806107e5576040516371724ffd60e01b815260040160405180910390fd5b806001600160a01b03811663c3c2ebbb336040516001600160e01b031960e084901b1681526001600160a01b039091166004820152602401602060405180830381865afa15801561083a573d6000803e3d6000fd5b505050506040513d601f19601f8201168201806040525081019061085e9190611a62565b61087b5760405163ba80c9e560e01b815260040160405180910390fd5b61088361140e565b5050565b60075460405163c3c2ebbb60e01b81523360048201526001600160a01b039091169063c3c2ebbb90602401602060405180830381865afa1580156108cf573d6000803e3d6000fd5b505050506040513d601f19601f820116820180604052508101906108f39190611a62565b1580156109695750600754604051634d271a5d60e11b81523360048201526001600160a01b0390911690639a4e34ba90602401602060405180830381865afa158015610943573d6000803e3d6000fd5b505050506040513d601f19601f820116820180604052508101906109679190611a62565b155b15610987576040516311f0042d60e31b815260040160405180910390fd5b6000600a541180156109ad5750600a54816109a160025490565b6109ab9190611c98565b115b156109cb57604051634c0116c960e11b815260040160405180910390fd5b6108838282611460565b6109df338261152b565b50565b60405162461bcd60e51b815260206004820152602360248201527f466c6173686c6f616e73206e6f7420616c6c6f77656420617420746869732074604482015262696d6560e81b60648201526000906084015b60405180910390fd5b60006001600160a01b0382163014610a575760006103b8565b6002546103b890600019611cab565b6006546001600160a01b031680610a90576040516371724ffd60e01b815260040160405180910390fd5b806001600160a01b03811663c3c2ebbb336040516001600160e01b031960e084901b1681526001600160a01b039091166004820152602401602060405180830381865afa158015610ae5573d6000803e3d6000fd5b505050506040513d601f19601f82011682018060405250810190610b099190611a62565b610b265760405163ba80c9e560e01b815260040160405180910390fd5b6001600160a01b038316610b4d5760405163d92e233d60e01b815260040160405180910390fd5b600980546001600160a01b0319166001600160a01b0385169081179091556040513091907f9a2cdaf1a28a88ccd359d6abc6a27d4856d16459aafb0aae34c1296bab5b63fb90600090a3505050565b610ba78233836111e5565b610883828261152b565b6006546001600160a01b031680610bdb576040516371724ffd60e01b815260040160405180910390fd5b806001600160a01b03811663c3c2ebbb336040516001600160e01b031960e084901b1681526001600160a01b039091166004820152602401602060405180830381865afa158015610c30573d6000803e3d6000fd5b505050506040513d601f19601f82011682018060405250810190610c549190611a62565b610c715760405163ba80c9e560e01b815260040160405180910390fd5b610883611661565b6060600480546103cd90611a28565b60003381610c96828661103c565b905083811015610cf65760405162461bcd60e51b815260206004820152602560248201527f45524332303a2064656372656173656420616c6c6f77616e63652062656c6f77604482015264207a65726f60d81b6064820152608401610a35565b610d038286868403611067565b506001949350505050565b6000610d1861118c565b6009546040805163721a826d60e11b8152905133926001600160a01b03169163e43504da9160048083019260209291908290030181865afa158015610d61573d6000803e3d6000fd5b505050506040513d601f19601f82011682018060405250810190610d859190611a62565b15610f215760095460609081906000906001600160a01b031663d7f2400f85610dc3816001600160a01b031660009081526020819052604090205490565b6040516001600160e01b031960e085901b1681526001600160a01b0390921660048301526024820152604401600060405180830381865afa158015610e0c573d6000803e3d6000fd5b505050506040513d6000823e601f3d908101601f19168201604052610e349190810190611b6e565b909350915060005b8251811015610f10576000838281518110610e5957610e59611c33565b602002602001015160020b1315610f0857610ec485858381518110610e8057610e80611c33565b6020026020010151612710868581518110610e9d57610e9d611c33565b602002602001015162ffffff168b610eb59190611c5f565b610ebf9190611c76565b61125f565b612710838281518110610ed957610ed9611c33565b602002602001015162ffffff1688610ef19190611c5f565b610efb9190611c76565b610f059083611c98565b91505b600101610e3c565b50610f1b8187611cab565b95505050505b610f2c81858561125f565b60019150506103b86001600855565b60055461010090046001600160a01b0316610f695760405163821e0eeb60e01b815260040160405180910390fd5b60055461010090046001600160a01b03163314610f9957604051634128496760e01b815260040160405180910390fd5b600580546006805461010083046001600160a01b03166001600160a01b03199182168117909255600780549091169091179055610100600160a81b0319169055565b60006001600160a01b03831630146110355760405162461bcd60e51b815260206004820152601b60248201527f4552433230466c6173684d696e743a2077726f6e6720746f6b656e00000000006044820152606401610a35565b6000610792565b6001600160a01b03918216600090815260016020908152604080832093909416825291909152205490565b6001600160a01b0383166110c95760405162461bcd60e51b8152602060048201526024808201527f45524332303a20617070726f76652066726f6d20746865207a65726f206164646044820152637265737360e01b6064820152608401610a35565b6001600160a01b03821661112a5760405162461bcd60e51b815260206004820152602260248201527f45524332303a20617070726f766520746f20746865207a65726f206164647265604482015261737360f01b6064820152608401610a35565b6001600160a01b0383811660008181526001602090815260408083209487168084529482529182902085905590518481527f8c5be1e5ebec7d5bd14f71427d1e84f3dd0314c0f7b2291e5b200ac8c7c3b92591015b60405180910390a3505050565b6002600854036111de5760405162461bcd60e51b815260206004820152601f60248201527f5265656e7472616e637947756172643a207265656e7472616e742063616c6c006044820152606401610a35565b6002600855565b60006111f1848461103c565b90506000198114611259578181101561124c5760405162461bcd60e51b815260206004820152601d60248201527f45524332303a20696e73756666696369656e7420616c6c6f77616e63650000006044820152606401610a35565b6112598484848403611067565b50505050565b6001600160a01b0383166112c35760405162461bcd60e51b815260206004820152602560248201527f45524332303a207472616e736665722066726f6d20746865207a65726f206164604482015264647265737360d81b6064820152608401610a35565b6001600160a01b0382166113255760405162461bcd60e51b815260206004820152602360248201527f45524332303a207472616e7366657220746f20746865207a65726f206164647260448201526265737360e81b6064820152608401610a35565b61133083838361169e565b6001600160a01b038316600090815260208190526040902054818110156113a85760405162461bcd60e51b815260206004820152602660248201527f45524332303a207472616e7366657220616d6f756e7420657863656564732062604482015265616c616e636560d01b6064820152608401610a35565b6001600160a01b03848116600081815260208181526040808320878703905593871680835291849020805487019055925185815290927fddf252ad1be2c89b69c2b068fc378daa952ba7f163c4a11628f55a4df523b3ef910160405180910390a3611259565b61141661178e565b6005805460ff191690557f5db9ee0a495bf2e6ff9c91a7834c1ba4fdd244a5e8aa4e537bd38aeae4b073aa335b6040516001600160a01b03909116815260200160405180910390a1565b6001600160a01b0382166114b65760405162461bcd60e51b815260206004820152601f60248201527f45524332303a206d696e7420746f20746865207a65726f2061646472657373006044820152606401610a35565b6114c26000838361169e565b80600260008282546114d49190611c98565b90915550506001600160a01b038216600081815260208181526040808320805486019055518481527fddf252ad1be2c89b69c2b068fc378daa952ba7f163c4a11628f55a4df523b3ef910160405180910390a35050565b6001600160a01b03821661158b5760405162461bcd60e51b815260206004820152602160248201527f45524332303a206275726e2066726f6d20746865207a65726f206164647265736044820152607360f81b6064820152608401610a35565b6115978260008361169e565b6001600160a01b0382166000908152602081905260409020548181101561160b5760405162461bcd60e51b815260206004820152602260248201527f45524332303a206275726e20616d6f756e7420657863656564732062616c616e604482015261636560f01b6064820152608401610a35565b6001600160a01b0383166000818152602081815260408083208686039055600280548790039055518581529192917fddf252ad1be2c89b69c2b068fc378daa952ba7f163c4a11628f55a4df523b3ef910161117f565b6116696117d9565b6005805460ff191660011790557f62e78cea01bee320cd4e420270b5ea74000d11b0c9f74754ebdbfc544b05a2586114433390565b6116a66117d9565b6009546001600160a01b031663e802b5236116d6856001600160a01b031660009081526020819052604090205490565b6001600160a01b0385166000908152602081905260409020548686336040516001600160e01b031960e088901b168152600481019590955260248501939093526001600160a01b0391821660448501528116606484015216608482015260a4810184905260c4016020604051808303816000875af115801561175c573d6000803e3d6000fd5b505050506040513d601f19601f820116820180604052508101906117809190611a62565b61178957600080fd5b505050565b60055460ff166117d75760405162461bcd60e51b815260206004820152601460248201527314185d5cd8589b194e881b9bdd081c185d5cd95960621b6044820152606401610a35565b565b60055460ff16156117d75760405162461bcd60e51b815260206004820152601060248201526f14185d5cd8589b194e881c185d5cd95960821b6044820152606401610a35565b60006020828403121561183157600080fd5b81356001600160e01b03198116811461079257600080fd5b60006020808352835180602085015260005b818110156118775785810183015185820160400152820161185b565b506000604082860101526040601f19601f8301168501019250505092915050565b6001600160a01b03811681146109df57600080fd5b600080604083850312156118c057600080fd5b82356118cb81611898565b946020939093013593505050565b6000602082840312156118eb57600080fd5b813561079281611898565b60008060006060848603121561190b57600080fd5b833561191681611898565b9250602084013561192681611898565b929592945050506040919091013590565b60006020828403121561194957600080fd5b5035919050565b60008060008060006080868803121561196857600080fd5b853561197381611898565b9450602086013561198381611898565b935060408601359250606086013567ffffffffffffffff808211156119a757600080fd5b818801915088601f8301126119bb57600080fd5b8135818111156119ca57600080fd5b8960208285010111156119dc57600080fd5b9699959850939650602001949392505050565b60008060408385031215611a0257600080fd5b8235611a0d81611898565b91506020830135611a1d81611898565b809150509250929050565b600181811c90821680611a3c57607f821691505b602082108103611a5c57634e487b7160e01b600052602260045260246000fd5b50919050565b600060208284031215611a7457600080fd5b8151801515811461079257600080fd5b634e487b7160e01b600052604160045260246000fd5b604051601f8201601f1916810167ffffffffffffffff81118282101715611ac357611ac3611a84565b604052919050565b600067ffffffffffffffff821115611ae557611ae5611a84565b5060051b60200190565b600082601f830112611b0057600080fd5b81516020611b15611b1083611acb565b611a9a565b8083825260208201915060208460051b870101935086841115611b3757600080fd5b602086015b84811015611b635780518060020b8114611b565760008081fd5b8352918301918301611b3c565b509695505050505050565b60008060408385031215611b8157600080fd5b825167ffffffffffffffff80821115611b9957600080fd5b818501915085601f830112611bad57600080fd5b81516020611bbd611b1083611acb565b82815260059290921b84018101918181019089841115611bdc57600080fd5b948201945b83861015611c03578551611bf481611898565b82529482019490820190611be1565b91880151919650909350505080821115611c1c57600080fd5b50611c2985828601611aef565b9150509250929050565b634e487b7160e01b600052603260045260246000fd5b634e487b7160e01b600052601160045260246000fd5b80820281158282048414176103b8576103b8611c49565b600082611c9357634e487b7160e01b600052601260045260246000fd5b500490565b808201808211156103b8576103b8611c49565b818103818111156103b8576103b8611c4956fea264697066735822122082c07cf419ef93b3eae5885e088498e18479dc9b6fefa7cf350b6419a36e53a464736f6c63430008180033","linkReferences":{}},"methodIdentifiers":{"allowance(address,address)":"dd62ed3e","approve(address,uint256)":"095ea7b3","balanceOf(address)":"70a08231","burn(uint256)":"42966c68","burnFrom(address,uint256)":"79cc6790","confirmAppManagerAddress()":"cdccb27a","connectHandlerToToken(address)":"71af85e0","decimals()":"313ce567","decreaseAllowance(address,uint256)":"a457c2d7","flashFee(address,uint256)":"d9d98ce4","flashLoan(address,address,uint256,bytes)":"5cffe9de","getAppManagerAddress()":"4c330077","getHandlerAddress()":"6f9c83b8","increaseAllowance(address,uint256)":"39509351","maxFlashLoan(address)":"613255ab","mint(address,uint256)":"40c10f19","name()":"06fdde03","pause()":"8456cb59","paused()":"5c975abb","proposeAppManagerAddress(address)":"11280cb5","supportsInterface(bytes4)":"01ffc9a7","symbol()":"95d89b41","totalSupply()":"18160ddd","transfer(address,uint256)":"a9059cbb","transferFrom(address,address,uint256)":"23b872dd","unpause()":"3f4ba83a"},"id":150}