{"abi":[{"type":"function","name":"activateAccountMaxBuySize","inputs":[{"name":"_on","type":"bool","internalType":"bool"}],"outputs":[],"stateMutability":"nonpayable"},{"type":"function","name":"getAccountMaxBuySizeId","inputs":[],"outputs":[{"name":"","type":"uint32","internalType":"uint32"}],"stateMutability":"view"},{"type":"function","name":"isAccountMaxBuySizeActive","inputs":[],"outputs":[{"name":"","type":"bool","internalType":"bool"}],"stateMutability":"view"},{"type":"function","name":"setAccountMaxBuySizeId","inputs":[{"name":"_ruleId","type":"uint32","internalType":"uint32"}],"outputs":[],"stateMutability":"nonpayable"},{"type":"function","name":"setAccountMaxBuySizeIdFull","inputs":[{"name":"_actions","type":"uint8[]","internalType":"enum ActionTypes[]"},{"name":"_ruleIds","type":"uint32[]","internalType":"uint32[]"}],"outputs":[],"stateMutability":"nonpayable"},{"type":"event","name":"AD1467_AppManagerAddressProposed","inputs":[{"name":"_address","type":"address","indexed":true,"internalType":"address"}],"anonymous":false},{"type":"event","name":"AD1467_AppManagerAddressSet","inputs":[{"name":"_address","type":"address","indexed":true,"internalType":"address"}],"anonymous":false},{"type":"event","name":"AD1467_ApplicationHandlerActionActivated","inputs":[{"name":"ruleType","type":"bytes32","indexed":true,"internalType":"bytes32"},{"name":"actions","type":"uint8[]","indexed":false,"internalType":"enum ActionTypes[]"}],"anonymous":false},{"type":"event","name":"AD1467_ApplicationHandlerActionApplied","inputs":[{"name":"ruleType","type":"bytes32","indexed":true,"internalType":"bytes32"},{"name":"action","type":"uint8","indexed":true,"internalType":"enum ActionTypes"},{"name":"ruleId","type":"uint32","indexed":true,"internalType":"uint32"}],"anonymous":false},{"type":"event","name":"AD1467_ApplicationHandlerActionAppliedFull","inputs":[{"name":"ruleType","type":"bytes32","indexed":true,"internalType":"bytes32"},{"name":"actions","type":"uint8[]","indexed":false,"internalType":"enum ActionTypes[]"},{"name":"ruleIds","type":"uint32[]","indexed":false,"internalType":"uint32[]"}],"anonymous":false},{"type":"event","name":"AD1467_ApplicationHandlerActionDeactivated","inputs":[{"name":"ruleType","type":"bytes32","indexed":true,"internalType":"bytes32"},{"name":"actions","type":"uint8[]","indexed":false,"internalType":"enum ActionTypes[]"}],"anonymous":false},{"type":"event","name":"AD1467_ERC721AddressSet","inputs":[{"name":"_address","type":"address","indexed":true,"internalType":"address"}],"anonymous":false},{"type":"event","name":"AD1467_FeeActivationSet","inputs":[{"name":"_activation","type":"bool","indexed":true,"internalType":"bool"}],"anonymous":false},{"type":"event","name":"AD1467_NFTValuationLimitUpdated","inputs":[{"name":"nftValuationLimit","type":"uint256","indexed":true,"internalType":"uint256"}],"anonymous":false},{"type":"error","name":"AccountApproveDenyOraclesPerAssetLimitReached","inputs":[]},{"type":"error","name":"AppManagerNotConnected","inputs":[]},{"type":"error","name":"BatchMintBurnNotSupported","inputs":[]},{"type":"error","name":"BelowMinAdminThreshold","inputs":[]},{"type":"error","name":"CannotTurnOffAccountDenyForNoAccessLevelWhileActive","inputs":[]},{"type":"error","name":"FeesAreGreaterThanTransactionAmount","inputs":[{"name":"","type":"address","internalType":"address"}]},{"type":"error","name":"InputArraysMustHaveSameLength","inputs":[]},{"type":"error","name":"InputArraysSizesNotValid","inputs":[]},{"type":"error","name":"InvalidAction","inputs":[]},{"type":"error","name":"NotAppAdministrator","inputs":[]},{"type":"error","name":"NotAppAdministratorOrOwner","inputs":[]},{"type":"error","name":"NotRuleAdministrator","inputs":[]},{"type":"error","name":"NotSuperAdmin","inputs":[{"name":"","type":"address","internalType":"address"}]},{"type":"error","name":"PeriodExceeds5Years","inputs":[]},{"type":"error","name":"ZeroValueNotPermited","inputs":[]},{"type":"error","name":"actionCheckFailed","inputs":[]}],"bytecode":{"object":"0x608060405234801561001057600080fd5b50610a5c806100206000396000f3fe608060405234801561001057600080fd5b50600436106100575760003560e01c806301e519fb1461005c578063129c48e6146100715780632c57a58a14610084578063e68e08a7146100a1578063efefd60e146100b4575b600080fd5b61006f61006a36600461078b565b6100d1565b005b61006f61007f3660046107f9565b6101f5565b61008c6103ce565b60405190151581526020015b60405180910390f35b61006f6100af366004610876565b6103e9565b6100bc6105ed565b60405163ffffffff9091168152602001610098565b6100d9610603565b600201546001600160a01b031680610104576040516371724ffd60e01b815260040160405180910390fd5b806001600160a01b03811663d4a7db7f336040516001600160e01b031960e084901b1681526001600160a01b039091166004820152602401602060405180830381865afa158015610159573d6000803e3d6000fd5b505050506040513d601f19601f8201168201806040525081019061017d9190610893565b61019a57604051631acd860160e31b815260040160405180910390fd5b6101a5600184610637565b63ffffffff83166001604051734143434f554e545f4d41585f4255595f53495a4560601b907f4f87ac5c7868c692420a972d0f84fa7750afbf2b8a09848fefc355020bce707b90600090a4505050565b6101fd610603565b600201546001600160a01b031680610228576040516371724ffd60e01b815260040160405180910390fd5b806001600160a01b03811663d4a7db7f336040516001600160e01b031960e084901b1681526001600160a01b039091166004820152602401602060405180830381865afa15801561027d573d6000803e3d6000fd5b505050506040513d601f19601f820116820180604052508101906102a19190610893565b6102be57604051631acd860160e31b815260040160405180910390fd5b60008590036102e057604051633f4ab26f60e21b815260040160405180910390fd5b8483146102ff5760405162514d8b60e31b815260040160405180910390fd5b610307610701565b60005b8581101561037057610368878783818110610327576103276108c6565b905060200201602081019061033c91906108eb565b86868481811061034e5761034e6108c6565b9050602002016020810190610363919061078b565b610637565b60010161030a565b50734143434f554e545f4d41585f4255595f53495a4560601b7ffce5ba10ca670317c4ad6aaf14bfb5c4467bb4415ab89dafce1434471a227126878787876040516103be949392919061092f565b60405180910390a2505050505050565b60006103d8610744565b54640100000000900460ff16919050565b6103f1610603565b600201546001600160a01b03168061041c576040516371724ffd60e01b815260040160405180910390fd5b806001600160a01b03811663d4a7db7f336040516001600160e01b031960e084901b1681526001600160a01b039091166004820152602401602060405180830381865afa158015610471573d6000803e3d6000fd5b505050506040513d601f19601f820116820180604052508101906104959190610893565b6104b257604051631acd860160e31b815260040160405180910390fd5b826104bb610744565b80549115156401000000000264ff00000000199092169190911790556040805160018082528183019092526000916020808301908036833701905050905060018160008151811061050e5761050e6108c6565b60200260200101906004811115610527576105276108b0565b9081600481111561053a5761053a6108b0565b905250831561059757734143434f554e545f4d41585f4255595f53495a4560601b7f4dfa26a794eb61a703a2beac482f06b4372aed0b7c0d6b4490db416146d8e32e8260405161058a91906109bc565b60405180910390a26105e7565b734143434f554e545f4d41585f4255595f53495a4560601b7fe67b4c6b446d2563a2a39eb75b71127a3f908bcfcef4f7c89bd9e1b3ef39d15e826040516105de91906109bc565b60405180910390a25b50505050565b60006105f7610744565b5463ffffffff16919050565b60008061063160017f1c7e9355957c344e150b07462120dcb6c99b078e258444a7cd1841042fa7f14b610a05565b92915050565b600182600481111561064b5761064b6108b0565b1461066957604051634a7f394f60e01b815260040160405180910390fd5b610671610603565b6001015460405163866fafc760e01b815263ffffffff831660048201526001600160a01b039091169063866fafc79060240160006040518083038186803b1580156106bb57600080fd5b505afa1580156106cf573d6000803e3d6000fd5b5050505060006106dd610744565b805464ffffffffff191663ffffffff90931692909217640100000000179091555050565b600061070b610744565b905060005b610718610603565b60030154600160a01b900460ff16811161074057815464ffffffffff19168255600101610710565b5050565b60008061063160017ff9397a199b69953d97776df17438ea0629f955e5b5df28e98fa3dbe5aa39991d610a05565b803563ffffffff8116811461078657600080fd5b919050565b60006020828403121561079d57600080fd5b6107a682610772565b9392505050565b60008083601f8401126107bf57600080fd5b50813567ffffffffffffffff8111156107d757600080fd5b6020830191508360208260051b85010111156107f257600080fd5b9250929050565b6000806000806040858703121561080f57600080fd5b843567ffffffffffffffff8082111561082757600080fd5b610833888389016107ad565b9096509450602087013591508082111561084c57600080fd5b50610859878288016107ad565b95989497509550505050565b801515811461087357600080fd5b50565b60006020828403121561088857600080fd5b81356107a681610865565b6000602082840312156108a557600080fd5b81516107a681610865565b634e487b7160e01b600052602160045260246000fd5b634e487b7160e01b600052603260045260246000fd5b80356005811061078657600080fd5b6000602082840312156108fd57600080fd5b6107a6826108dc565b60006005821061092657634e487b7160e01b600052602160045260246000fd5b50815260200190565b6040808252810184905260008560608301825b8781101561096d5761095c82610957856108dc565b610906565b602093909301929150600101610942565b5083810360208581019190915285825291508590820160005b868110156109af5763ffffffff61099c84610772565b1682529183019190830190600101610986565b5098975050505050505050565b6020808252825182820181905260009190848201906040850190845b818110156109f9576109eb838551610906565b9385019392506001016109d8565b50909695505050505050565b8181038181111561063157634e487b7160e01b600052601160045260246000fdfea2646970667358221220826824fd7a8f7e133d75364781123a3212b6b2db67369961e68702856b4cc15764736f6c63430008180033","linkReferences":{}},"methodIdentifiers":{"activateAccountMaxBuySize(bool)":"e68e08a7","getAccountMaxBuySizeId()":"efefd60e","isAccountMaxBuySizeActive()":"2c57a58a","setAccountMaxBuySizeId(uint32)":"01e519fb","setAccountMaxBuySizeIdFull(uint8[],uint32[])":"129c48e6"},"id":184}